:020000040000fa
:10000000e8ff0020090400007104000071040000f2
:10001000710400007104000071040000710400000c
:1000200071040000710400007104000071040000fc
:1000300071040000710400007104000071040000ec
:1000400071040000710400007104000071040000dc
:1004000006000000000000001049086800281bd00a
:100410000f4a90470d490868002815d00d4a012061
:1004200010600d4a11600d49012008600c4a00203f
:100430001060082008600b4a10684008fcd2054a8a
:10044000002010600848004708480047fc41e00fc2
:10045000ef05000008000e4010000e400c000e409a
:1004600018000e401c000e40710400009d040000a6
:10047000bff34f8f054906480860bff34f8f05490a
:1004800005480860bff34f8ffee7000000500e40a4
:10049000444400000ced00e00400fa0500b5444ab5
:1004a0004448801a91b020f0030000231446834290
:1004b000414a03d0d158e1500433f8e73f4940485e
:1004c000401a134420f003000022824203d000248b
:1004d0008c500432f9e73b493b4c641a24f0030486
:1004e0000022a24203d0985888500432f9e7374ad4
:1004f0003749891a21f0030100238b4207d00020dd
:10050000d0500433f9e7d3f89020940705d4314b49
:10051000d3f84021d501fad4f5e72f4a5468516841
:1005200021f0407141f0807151602c4a1d69d2f870
:10053000b0201a6101f0dafc01f030fc00f056f84e
:1005400000f09cfb00f06cfe00f098f908b100f0a0
:1005500085fa204bd3f84021d001fad4d3f890206b
:100560009107f6d51d611b4bd3f84021d201fad477
:10057000d3f890309b07f6d5174b01215c60684695
:1005800000f050fc009801a900f0fafb20b9039b91
:10059000134843f001039847bff34f8f114a124ba2
:1005a000d16801f4e0610b43d360bff34f8ffee7e6
:1005b0000000002020010020f02200002001002087
:1005c0002802002000040020080400200c04002061
:1005d0005827002000400e4000000e40b081e00f80
:1005e0009021000000ed00e00400fa05704770471c
:1005f0000020704703207047032070470320704796
:100600000020704703207047054b5a6842f01002e3
:100610005a6003f5a04344f244421a60704700bf99
:1006200000000e4010b500231a464ff0ff31c45ca5
:100630008c4218bf00220132042a04d00133102b4f
:1006400003d02146f3e7002010bd012010bd0000bb
:1006500008b501f071f8bff34f8f054a054bd1681b
:1006600001f4e0610b43d360bff34f8ffee700bf9f
:1006700000ed00e00400fa051fb5436a994202d379
:100680004ff0ff301ee0c269531c1ad0036b994231
:1006900004d2013b591a8369585c13e0cb1a0b4909
:1006a00000208de803000a49013a0868d21a0df1ca
:1006b0000f01012300f0e1fb0028e1d19df80f00bc
:1006c00000e0002005b05df804fb00bfa08601003b
:1006d0006414002038b5026a836a9a42044602d341
:1006e0004ff0ff3038bdc36a0f2b11d90c48616938
:1006f000102200f0e3fd05460028f1d11023206907
:100700000749224601f00cfc6369e562103363611e
:10071000236a01332362e36a5a1ce262e05c38bd5b
:1007200058170020f7b5134b134e05461446002208
:100730008de80c0030682a4623460f4600f00cfc7a
:1007400008b1002013e00d4b0090019330680c4974
:100750003a46234600f091fb0028f2d1284608498a
:10076000224601f0b5fcd0f1010038bf002003b0f3
:10077000f0bd00bf20a1070064140020a086010086
:1007800058170020c369013310b5044616d0036b17
:100790008269581c2063d154626b236b93420dd342
:1007a000a069e169fff7beff10b9a36b0133a36332
:1007b000e269636b1344e36100232363636a0133db
:1007c0006362002010bd0000f0b51e46244b9fb0b0
:1007d00007460c4618686946154600f0d1fa20b164
:1007e0006b1c36d14ff480530493049b1d4914971e
:1007f000b3f5805f84bf4ff4805304931a4b139377
:100800001a4b1593236819934ff0ff3300221a9364
:10081000049b179218921b921c931d92144b154a1d
:1008200016950fa801f0f4f9134a1d9b116819449d
:10083000116080b91b9820b10fa8ff21fff7a2ff1c
:10084000f8e7189ab24208d8169b013306d0226006
:1008500004e0082002e0052000e006201fb0f0bd03
:100860006414002085070000241400201c040020cc
:1008700079060000d50600001c1400202de9f04f79
:10088000544b554a554e1360803391b03360544bee
:1008900000220df113001a6000f02afc002840f03d
:1008a00095809df813305a1e012a40f28f80052b47
:1008b00000f08c8009a800f0d9fe002840f0868066
:1008c0000d9b002b40f082800e9c621c7ed1fff7b6
:1008d0009bfe9df81330032b08bf022002d0042b8f
:1008e00002d10320fff7b4fe3e4b3f4f3f4d202186
:1008f00019600b9ba3f1300038603d483022026044
:100900002a603c4a402010603b4a3c48403b136010
:10091000102200f0d3fc002858d12d68d7f800a091
:10092000d6f800900395054609eb451000f054fffa
:10093000baf5805fddf80cb094bf0027012756465a
:100940005eb1b6f5805f34bfb0464ff480582c4896
:100950005946424600f0b2fc58b105a8274910227a
:1009600001f0b6fb002808bf2c4601351c2ddbd159
:1009700011e0b6eb0806c34402d1022f08bf0327db
:100980000197cdf80080002005a910221c4b01f032
:1009900007fa0227d4e7631c10d009eb4419484634
:1009a000fff740fe40b109f11000fff73bfe0028c1
:1009b00008bf4ff0ff3401e04ff0ff34114b1c60d3
:1009c000013408bf04208dd0012000e0002011b0c8
:1009d000bde8f08f003800000c04002070140020e7
:1009e0001c14002068140020741400206c140020d3
:1009f00010040020140400201804002054140020c7
:100a0000581700202014002070b5124e94b00546ef
:100a100001243068039405a900f0b2f9a8b9b5b172
:100a20000a9b0490013d5b421d40049bab424ff08a
:100a300001000dd8084b03900093306804a903aa65
:100a4000002300f0e0fa0028efd0002000e020466c
:100a500014b070bd6414002040420f002de9f04f27
:100a6000734b74481968c3b0102200f027fc0028ab
:100a700040f0db80704b71481968714b6d4a1b6800
:100a800003eb4111103100f092fe6e4bd3f8008061
:100a90006d4b1e68002e44d003a84146102208f179
:100aa000100900f00bfc002837d10f2e37d9049b1a
:100ab00003f11002964232d3069a002a2fd15f4ddd
:100ac00002930fcd18ac0fc40fcd0fc495e80f00e3
:100ad00084e80f005d4c0398206024a900f050f9d1
:100ae000002835d133a8259f00f0c0fd60bb9df8dc
:100af000e430f3b1484602a94ff0ff323b46fff71e
:100b000063fe834670b92368dff840a1013300f02b
:100b100087803846fff778fff0b9082002e0072009
:100b200000e030464a4b1b68002b18bf0120fff73e
:100b30008ffd9df8ca30022bdcd1359b203fff1a78
:100b4000299b5a421740d5e74ff0ff332360d1e786
:100b50004ff0ff372760cde718ad0fcd374c0fc4ee
:100b60000fcd0fc495e80f0084e80f00484602a996
:100b70005a463b46fff728fe0028d3d19df8c930de
:100b8000002b4dd011a800f071fd139bdaf8000086
:100b90000990203b0793bdf85030adf820309df808
:100ba00052308df822309df853308df823309df867
:100bb00014308df828309df815308df829309df8c7
:100bc00016308df82a309df817308df82b3033a968
:100bd000029b0b9300f0d4f810bb349b232b1fd93e
:100be0001c4bdaf8000001228de80c000ca9102241
:100bf000142300f042f998b90cab11aa934204d225
:100c000013f8012bff2af8d00ae009d107a8102118
:100c10001422fff787fd18b90d4b1a6801321a60cc
:100c2000049b10339844f61a34e743b0bde8f08fc4
:100c30001004002078140020201400202414002028
:100c400070140020140400201804002064140020f4
:100c50001c140020a0860100074b014603f180020e
:100c600018469b688b4205d000f110039342f7d1e0
:100c70004ff0ff30704700bf0038000010b501f0a2
:100c8000e3f90446fff7b4fc002c18bf204610bd62
:100c9000e0b51d460f461646fff7deff431c0fd09a
:100ca000436872199a420dd8c368016813f0020fa5
:100cb0000ad1384631442a46bde8e04001f0d0b9b7
:100cc0000520e0bd0420e0bd384631442a46fff748
:100cd00091fce0bd70b51d460c461646fff7bcff03
:100ce000431c0fd0436862199a420dd8c36800684c
:100cf00013f0020f0ad1204431462a46bde8704065
:100d000001f016ba052070bd042070bd20443146a4
:100d10002a46fff771fc70bd73b50e461546fff706
:100d20009bff326803681344421c0446019308d0b9
:100d30004db1c3689b070dd401a8294601f0f0f915
:100d400002e0052000e004202268019b9b1a33602a
:100d500002b070bd01a82946fff750fcf4e708b5c2
:100d6000fff77aff421c05d0c3689b0704d5fff745
:100d700047fc08bd002008bdbde8084001f07ab975
:100d8000f0b58db00c46fff767ff421c054606d054
:100d9000c3689b0705d501a8fff734fc04e00520d4
:100da00026e001a801f068f9ab6823606b68636016
:100db0002b68a360074601ae04f10c030df12c0c67
:100dc000324603ca624518605960164603f10803ab
:100dd000f6d110681860eb68c3f3400284f838203d
:100de00003f001029b0884f8392084f83a30384631
:100df0000db0f0bd30b50023094c04eb0314dab29a
:100e0000a468651c09d00d78954288bf40f823403e
:100e100001330132082bd2b2eed10a7030bd00bfcf
:100e200000380000f0b599b008238df803304ff07a
:100e3000ff33036005460f4601a80df10301fff7dc
:100e4000d9ff00249df80330e6b2b34212d918aba3
:100e500003eb860609a956f85c0cfff791ff38b939
:100e60009df85e30bb4203d156f85c3c2b6002e03b
:100e70000134e7e7012019b0f0bd2de9f04f91b042
:100e8000894601a9804692469b46fff779ffe8b95b
:100e90009df868600e9f1b9c0136bc4238bf3c46e3
:100ea000f6b24046494652465b46fff7f1fe05461c
:100eb00038b94046fff753ffe41b10b1002cf8d1be
:100ec0000625013e16f0ff06ebd1284611b0bde81d
:100ed000f08f000030b589b005460c46fff7bcfe28
:100ee000431c33d0c368d90701d401202fe0194b2c
:100ef00001228de80c00284603a910221423fff7d5
:100f0000bcff20bb039b002befd013f00f00ecd1f4
:100f1000059a0132e9d09df81850ff2de5d09df8d3
:100f20001910ff29e1d09df81a20ff2addd02033c7
:100f30002360bdf81030a3809df81230a3719df896
:100f40001b30e57121726272a37200e0052009b0c6
:100f500030bd00bfa08601002de9f04f95b00c46d2
:100f60001d4605a99df87830019092460393fff73e
:100f700007ff0746002842d1ddf848901f9b4b45ec
:100f800038bf4b460293002d39d0099bddf80c8009
:100f9000029ec3f1000c04ea0c0c9c442b1963451f
:100fa0008cbfc4eb0c0bab465b4601982146524606
:100fb000fff790fe034660b901980093fff7cffe5c
:100fc0004e45009b14d3c9eb060610b1002ef3d199
:100fd000062308f1ff32b8f1000f01d09046e3e795
:100fe00023b95c44da44cbeb0505cce71f4606e0a9
:100ff00000284ff000060cbf33460623e9e73846c9
:1010000015b0bde8f08f2de9f04790b0894601a9f1
:10101000804692461e46fff7b3fed0b90e9f189c3d
:101020000136bc4238bf3c46f6b2404649465246bd
:10103000fff772fe054638b94046fff790fee41b05
:1010400010b1002cf8d10625013e16f0ff06ecd1b8
:10105000284610b0bde8f087044a00231370044a04
:101060001360044a1360044a13707047a001002003
:10107000c001002020010020bc01002030b5174b2a
:1010800091b0186801a9fff77bfe28bb144a059ba5
:101090001360144b144c1b78144a02991bb10020a6
:1010a0002060116018e0039800f110030069002827
:1010b000f5d010f00f00f2d19d680135efd01d7b07
:1010c000ff2decd05d7bff2de9d09d7bff2de6d081
:1010d0001b692360cb1a136011b030bdc80100201a
:1010e000b8010020b401002094010020d0010020ac
:1010f0002de9f04f3f4e89b033780390002b6ed12d
:10110000052333703c4b1b78002b6ad13b4bdff837
:1011100004a13b4c0194012700971a68daf80000fb
:1011200004a91023fff7a9fe054600285ad1354827
:1011300004a9102200f0ccff08b102234de0dff833
:10114000d890dff8d88000970194daf80000d8f83a
:10115000002049461023fff790fe0546002841d1a4
:10116000d9f80040284ba4f140029a4201d8210747
:1011700001d0032331e0d8f800304ff6ff78c4ebfc
:10118000030b1f4bdaf8000020490022702c34bffb
:10119000274670278de80c005a463b46fff76dfe48
:1011a00088b9bb44e41b0346184a4046d15c02930d
:1011b00000f036fb029b0133bb428046f4d3002c87
:1011c000dfd1034601e04ff6ff73114ab9f80480fe
:1011d0001360434514bf04230623337002e0002547
:1011e00000e007253378039a2846137009b0bde85c
:1011f000f08f00bfb5010020a0010020c401002035
:10120000a086010041210000c0ff0f002401002042
:1012100098010020c8010020a40100209c010020aa
:1012200038b51d4c1d4d20460421fff7fbfd30b99c
:101230002368013303d01a4b01221a700ae0164cbe
:1012400002212046fff7eefd40b92368013305d0a7
:10125000134b1870fff712ff044618b105232b70cb
:10126000012416e00f4b104a1b6812680f491a44fc
:10127000a2f1100008600e49203a0a600d49d31a05
:101280000b60fff7e9fe0c4b04481c602c70fff765
:101290002fff204638bd00bfc8010020b501002047
:1012a000b401002094010020d0010020c4010020de
:1012b0009c010020cc010020980100202de9f3477b
:1012c000324b0c461b783249154606460a68894659
:1012d000002b52d12f49097806294ed12032944251
:1012e0004dd2121baa424ad3002848d01f2c31d815
:1012f0000093dff8b480284b284fdff8a8a0cdf882
:1013000004a01a68d8f8000039461023fff7b5fd8d
:10131000002837d18de80104214bd8f800001a6865
:1013200007f110011023fff7a8fd58bb4ff0004351
:10133000c4f12008a84528bfa846bb614ff0ff3381
:1013400030463919fb61424600f0d1fe4444c8ebf7
:1013500005054644adb1124b1a68d9f80030203a61
:10136000d21a104b00218de80a000f4b3146186845
:1013700022442b46fff781fd04e0072002e0042011
:1013800000e0284602b0bde8f08700bfa0010020c1
:10139000a4010020b5010020c40100202401002088
:1013a0009c010020a0860100c8010020f0b51a4d64
:1013b00095b0044605a92868fff7e2fc174b1a7898
:1013c000012a1e4624d0164b0a9a1f68154b1b682b
:1013d000524213400f3703931740039bbb420ed872
:1013e0000123049304b1a0470f4b0093286803a97d
:1013f00004aa0023fff707fe0028eed009e00b4bfc
:1014000000241c6001233370fff726fe204600e015
:10141000002015b0f0bd00bfc8010020b5010020bc
:10142000c40100209401002040420f0098010020d8
:101430006f2838b504460d4601d8012038bd030792
:10144000fbd1094b1b689842f7d81046fff7aeff57
:101450000028f2d1054b01221a70054b1860054b8c
:101460001c60054b1d7038bdd0010020a00100207c
:10147000c001002020010020bc0100202de9f04f18
:1014800015466d4a1c46137885b0064688461bb93a
:10149000fff7e2fd03230ee0684f3a689042ba4638
:1014a00003d0fff7d9fd0426c1e015f0030c05d0e9
:1014b000fff7d2fd052323700426b9e0702df7d87d
:1014c0005f4ad2f800b05845ebd8c0eb0b02aa42f5
:1014d000eed319b9fff7c0fd0723ece7012b6bd161
:1014e000584b0293c0f12009a94528bfa9461818f6
:1014f0004e444a46cdf80cc000f0f9fd1f2e3e6068
:10150000029bddf80cc003d884f800c066468fe06b
:1015100018464d490293102200f0dafd029b18b1e3
:10152000fff79afd06237ce01b69484a454fa3f16b
:1015300040019142f4d81907f2d1ba6932f0004261
:10154000eed1f9690131ebd120339b45e8d14ff061
:101550000043bb613e4bdff80cc11b78bb753d4bb4
:10156000dff804b11a703c4b0092cdf804c0196842
:10157000dbf80000cdf80cc03a461023fff7ecfc76
:10158000ddf80cc0002833d18de80110334bdbf8b7
:101590000000196810373a461023fff7ddfc38bb0e
:1015a00097e80f00dff8b8c08ce80f00224a02234a
:1015b0001370c9eb0505c84415b925702e4637e0f0
:1015c00041462a461f4800f092fd244b1968244bdf
:1015d0001b682039c91a234b00228de80c00224bce
:1015e000184a186831442b46fff7b6fc064608b186
:1015f000082316e0daf80030114a164f1d4413682c
:1016000038709d42caf8005011d1fff725fd3846c9
:101610003e70fff76dfd064610b93b78062b03d0f0
:1016200002232370012603e00123237000e02670cb
:10163000304605b0bde8f08fa0010020c0010020b9
:10164000200100202401002041210000c0ff0f00e4
:10165000bc010020b5010020c40100209c01002035
:10166000a401002020a10700c801002030b5164dbc
:10167000044691b0fff702fd2b682360134b1a68f4
:101680002032a2609a88a2819a79a2739a68226114
:10169000da68db79e3730e4b62611b7823760d4bbe
:1016a00001a91868fff76cfb10b14ff0ff3307e09a
:1016b0000a9b0d9a29681a44069bb1fbf3f3534326
:1016c000636011b030bd00bfd0010020a401002034
:1016d000b4010020c801002070b5134b88b00df193
:1016e0000f001d68fff704fd0446c8b99df80f30d0
:1016f000062b15d10d4b9a689ab10fcb08ae06e9af
:101700000f0032460a4b42f8084d0193094b0094f2
:10171000186805f108010423fff71efc044600e0e9
:101720000724204608b070bd9c010020a4010020c1
:1017300020a10700c801002070b50f4b1c680f4b9b
:10174000da680132054686b018bf072011d10fcbe9
:1017500006ae06e90f000a4b3246002142f8045d4e
:101760008de80a00074b04f10c0118680423fff709
:10177000f3fb06b070bd00bf9c010020a401002057
:1017800020a10700c801002010b50f230022cc5c67
:1017900042ea4402c254ca5c13f1ff334fead21248
:1017a000f5d21ab1c37b83f08703c37310bd30b584
:1017b000034601f1100451f8045b43f8045ba142b5
:1017c000f9d1103002f1100352f8041b40f8041b49
:1017d0009a42f9d130bd000030b50d4c0d4d85b0a9
:1017e00001462a462046fff7e2ff29460a4d6a468f
:1017f0001023204600f094fb284604f12001fff757
:10180000c3ff06482946fff7bfff05b030bd00bf44
:10181000f40100209c210000d4010020e4010020fc
:1018200040ba83b25940c1f303134b4083ea0333f8
:101830009bb2d8b283ea40107047f0b5036889b014
:10184000002500245c530235202dfad1944208da99
:1018500031f9145033f81560013623f8156001345e
:10186000f4e7b3f9004094422ed0002501245e191c
:10187000b6f90260d6eb440428d402351e2df6d109
:101880000025adf8025000ae2e445f190235b7f8be
:1018900002c077881c2d6744b780f4d1002393429f
:1018a00014da31f813606eb108ad36b205eb4606b6
:1018b000476836f8205c05f1010c2db226f820cce3
:1018c00027f815300133eae7002000e0204609b090
:1018d000f0bd70b5056904460e466369b34210da7f
:1018e000a36820689847002804da04f11800012151
:1018f00000f00cfc6369c2b29a400833154363617f
:10190000ebe7012025fa06f29b1b00fa06f6701e93
:1019100022616361284070bd2de9f84f04460a68d2
:101920000069636900268a4602f102083746b1461b
:10193000012523b300f00102b8f900c042ea090210
:1019400008f10201cceb0208b8454fea50000dda6d
:10195000636920615b1b03f00703d71b63613e448f
:10196000daf8043033f91600bde8f88f6744013b1c
:1019700066447f004fea420901358846d9e7d5f130
:10198000100b10d0a26820689047002804da04f1f8
:101990001800012100f0bafbc0b2bbf1080fb4bfc0
:1019a0005b460823c5e76ff00900bde8f88f00002b
:1019b0002de9f84304460f46904639462046fff786
:1019c000abff011e49dbff290adc6568002df4d05e
:1019d0002068c9b2a8470028efda0120bde8f883e3
:1019e000b1f5807f02d10020bde8f8836ff48073e9
:1019f000cb181c2b34dc204a32f913601f4a2046d6
:101a000032f91310fff765ff414606442046fff701
:101a100083ff051e28db1a4b33f91590194b20461e
:101a200033f91510fff755ff6368814493b9b5f595
:101a3000807fc2d1d7e709f1ff31e368206898477a
:101a4000011e14db94e80900c9b29847002806f18a
:101a5000ff36c2db002eeed1e9e70846bde8f88389
:101a60006ff00900bde8f8832846bde8f8836ff001
:101a70000a00bde8f88300bf842200004a2200006b
:101a8000ac210000e82100002de9f047adf5a86d7c
:101a900004ab009323ab01930cab0293052114ab71
:101aa00005460393fff715ff052100f201172846ad
:101ab000fff70fff042100f101082846fff709ff97
:101ac000b7f58f7f00f1040900f38880b8f11e0f8d
:101ad00000f3848000264e45b2ac0ada4b4b284610
:101ae000032133f916a0fff7f4fe013624f81a009b
:101af000f1e7122e07dc454b33f91630002224f8ab
:101b000013200136f5e7684621461322fff795febc
:101b1000002866d1064607eb08094e4534da284608
:101b20006946fff7f9fe00286cdb0f2803dc721c06
:101b300024f8160026e010280ad1002e54d0731e77
:101b40002846022134f913a0fff7c3fe03300de04d
:101b50001128284604d10321fff7bbfe033003e020
:101b60000721fff7b6fe0b304ff0000a32184a4546
:101b70003ddc04eb46060023834203d026f813a085
:101b80000133f9e71646c6e7b4f9003293b3684665
:101b900021463a46fff751fe002808d02ddb009b76
:101ba000b3f90020b3f9023013449f4225d102a8b3
:101bb00004eb47014246fff740fe002808d01fdb38
:101bc000029bb3f90020b3f902301344984517d1b2
:101bd0002846694602aafff7ebfe13e06ff0020009
:101be00010e06ff003000de06ff004000ae06ff00a
:101bf000050007e06ff0080004e06ff0060001e068
:101c00006ff007000df5a86dbde8f08724220000f5
:101c1000f0b5adf52f7d0190049307a80023029144
:101c200003920593069300f06bfa002840f0a18020
:101c3000012101a8fff74dfe0221044601a8fff78c
:101c400048fe00283cd105900690039b01989847d8
:101c5000061e01da022087e0039b01989847051ec3
:101c6000f8db039b01989847071ef3db039b019861
:101c700098470028eedb80b2ffb2adb2f6b247ea79
:101c8000002746ea0525ff43adb2bfb2bd4214d1dd
:101c9000029b0bb9002067e0002dfbd0039b01984d
:101ca0009847011ed6db029b0198c9b29847013db7
:101cb0000028adb2f0da012056e06ff0010053e0e9
:101cc00001284cd12e4b1b68002b42d02d4b2e4aa5
:101cd0001a602e4a5a602e4b2e4a1a602e4a5a60bb
:101ce00000231eaa082199520233b3f5907ff8d140
:101cf00000231eaa1a4402330921e02ba2f8201166
:101d0000f7d100230233322b05d0aeaa1a440721a3
:101d100022f8421cf6e700230233122b05d0aeaaac
:101d20001a44082122f8121cf6e716481ea94ff49f
:101d30009072fff782fd00231ea905225a5202333a
:101d40003c2bf9d11e221248fff777fd0c4b0022e5
:101d50001a6001a80b490e4afff72afe04e0022888
:101d600009d101a8fff790fe38b9002c3ff460af0d
:101d700003e0022001e04ff0ff300df52f7df0bdb4
:101d8000000400208814002098140020f41400207f
:101d90009014002034170020b81400207047000071
:101da0002de9f84f07464ff480709a4689469046d1
:101db0000a9d9df82cb000f01df9454801230360f1
:101dc000bff34f8f434e444c00233360736023684e
:101dd000736263687362a3687362e3687362bbf1e2
:101de000010f844638d817b92762676203e03b6861
:101df00023627b6863620023a362e3622ce00a46ed
:101e000016f8011b02f8011ccaeb06079f4202f1fb
:101e10000101f4d34db3314b03f1100753f8041b08
:101e2000da684a402b4943f8042cbb42c1f88020b1
:101e3000f4d105238b600b69264a9b07fbd4d2f8ab
:101e400080302362d2f880306362d2f88030a3629f
:101e5000d2f88030e362b24645b3102d34bf2b4632
:101e60001023ed1a1e495646c9e7bbf1000f02d0f8
:101e7000bbf1030fcfd1d3f110010ad0802313702f
:101e8000002301338b4202d00027d754f9e71549cc
:101e900000e015490023e718ca583869043380ea7e
:101ea000020e102bc7f810e0f5d1b4e7ccf80050c3
:101eb0004ff4807000f0b2f8454506d0631993f8ee
:101ec000203009f805300135f6e7bde8f88f00bf8e
:101ed0000016c84300000f40f40100200402002057
:101ee00005020020e4010020d401002007b50948c4
:101ef000fff772fc084b09499b6c1b0c00209b02ee
:101f00000093019004224ff00053fff749ff03b004
:101f10005df804fb9c210000b081e00f0804002064
:101f20002de9f04104464ff4807017461d460e46d9
:101f300000f060f82d4a01231360bff34f8f2c4b44
:101f4000002119602168596261685962a16859626b
:101f5000e16859629446002d3fd0254b2269c3f8b1
:101f60008020d4f81480c3f88080a169c3f8801061
:101f7000e269c3f880200520986020690130206163
:101f800040b908f10103636123b94b1ca3610bb98c
:101f90000132e261164b186910f00200fad1d3f851
:101fa00080202262d3f880206262d3f88020a2626f
:101fb000d3f88030e362102d34bf2b46102304f198
:101fc0002008ed1a18f80010325c4a403a540130eb
:101fd0009842f7d106440744bde7ccf800504ff4cf
:101fe0008070bde8f04100f019b800bf0016c8438a
:101ff00000000f4072b6074b1a6801321a60064a99
:102000001168084310601a68013a1a601b6803b926
:1020100062b67047541700202402002072b6084ba5
:102020001a6801321a60074a116821ea000010603c
:102030001a68013a1a601b6803b962b6704700bf9c
:102040005417002024020020044b41f671321a6418
:102050009a6822f001029a600020704700000e404a
:1020600010b5eff3108472b600f041f804b962b60f
:10207000002010bd00207047134a70b50346054686
:1020800002f12806144603ccb44218605960224677
:1020900003f10803f6d1206818600c4b9a6c596b59
:1020a0005b6b92b2090e1b0e92020a310a332a6050
:1020b00003f01f03012201f01f0102fa01f19a400f
:1020c0006960aa60002070bdc0220000b081e00fee
:1020d00030b50023934208d0c55c0133cc1814f806
:1020e000014ca542f6d0281b30bd002030bd10b5f4
:1020f0000023934203d0cc5cc4540133f9e710bdf4
:10210000ec46a0e8f05f4ff000007047b0e8f05fe9
:10211000e546080008bf0120704700bf000000002e
:1021200001b40248844601bc604700bf9100002012
:1021300001b40248844601bc604700bf0100002092
:1021400000534352319a933082d9eb0afc3121e398
:1021500037000000f1100000bd120000ad130000b8
:10216000311400007d1400006d160000d916000027
:10217000910c0000d50c0000190d00005f0d00004f
:10218000810d0000f50d0000250e0000d50e0000a9
:102190000600000070210000542100000000000033
:1021a000000000000000000000000000010002002c
:1021b000030004000500070009000d0011001900cc
:1021c00021003100410061008100c1000101810155
:1021d00001020103010401060108010c01100118ac
:1021e00001200130014001600000000000000000fb
:1021f00001000100020002000300030004000400cb
:10220000050005000600060007000700080008009a
:10221000090009000a000a000b000b000c000c006a
:102220000d000d0010001100120000000800070052
:10223000090006000a0005000b0004000c00030062
:102240000d0002000e0001000f0000000000000061
:10225000000000000000000000000100010001007b
:10226000010002000200020002000300030003005c
:10227000030004000400040004000500050005003c
:102280000500000003000400050006000700080028
:1022900009000a000b000d000f00110013001700c9
:1022a0001b001f0023002b0033003b0043005300a2
:1022b000630073008300a300c300e3000201000079
:1022c00000001000000800000008000004000000ea
:1022d00000000000000000000000000052000000ac
:1022e00002a00000ba880000020000000000000008
:1022f00040ea020313f00303f7b5064638d192080b
:10230000eff3108772b61d48846844f001048460be
:1023100093421a4c25d206eb8300c0f30a0c012528
:10232000ccf5006c20614fea9c0ce560d41aa44502
:1023300028bfa44663440024644501eb84000ed00a
:10234000006801900d4de8690007fbd50198a86170
:102350000820e860e869c007fcd40134ece70146d6
:10236000d6e7a36823f00103a3601fb962b601e0ba
:10237000042000e0002003b0f0bd00bf00000e40cc
:1023800070b58cb0044601a80d4600f039f80399e9
:1023900022684b1e13402ed1286800fb01260198ad
:1023a000864228d899421dd00433981850f8040c5e
:1023b0000130f7d0eff3108172b6104b9a6842f0fb
:1023c00001029a6022681a610122da600222da6050
:1023d000d8690a4ac007fbd4936823f001039360cd
:1023e00001b962b62268039b134423602b68013b4a
:1023f0002b60002000e004200cb070bd00000e40f7
:1024000001b40248844601bc604700bf7920000047
:0c241000010000000000000000000000bf
:020000040000fa
:10380000000000000040000008010010000000005f
:103810000040000000c00300080100000500000097
:103820000000040000f00300084c7583090000004c
:1038300000f0070000100000080000200c0000004d
:020000040000fa
:1038800021bbd37575030c0a64664b2496d661324e
:10389000634d84afe8e5b025a27b0fb1834c4da703
:1038a000396503c6b24ac4333c646d941c76033553
:1038b0009587f5f9e82bb22b3e3749e850e321f51f
:020000040006f4
:1017b000b435c3076dc11a03a70146cb39ebc2deae
:1017c0002116ad0a457366edbe165e357d23b35016
:1017d0000801000080c3010004003e00000000007a
:1017e0002ad09463f3787bf417476c23c7a272a7bf
:1017f000d5ee01954f669ba475fa0510a4e57d779b
:10180000319de8bc0369011844a713be5ab1e17cbd
:10181000c0ad306667ce1fb71f7feb57a2b07df615
:10182000c661fd6711087cbf4e3c2206ddc23f6edb
:101830003955e8177637f201652d53bc7b1451d723
:1018400034629d191c30e3ec9f6168dbf7d12df009
:101850000ecb6b899656921a353d2b787ef4c8f0e4
:10186000e2f427252a0e73799e458f86cfae618ece
:101870007c26a2783ba3dc66c2d404b7dbe5c8ddd6
:1018800091a64c8e7029ea5b9a3a606d5be467bd65
:1018900095f93859bebf79dd941281494bcffb16bb
:1018a00013ab7991fb041a32cd14b63f54b7ca9bdf
:1018b000b47ee647893217f0164a3a779bb129176a
:1018c00043915f9b8180a5a1d203b043b449529953
:1018d0004ed74668b32a70d7302a6d2dd72d5b5767
:1018e0009cbd6c189462a46f911849003fbf0e38dc
:1018f000be86d821168585161f1ad7d939c2790d0b
:101900008c6d461b7e67e9df194fd4f032f7b304c4
:101910003000f5a4823c3ae927239a8bba607468b8
:10192000f0cf5eeb5251cdabbc5037a8f024c6cf00
:101930001d68587f9567051ac291faa0adb0900e48
:10194000c1365c3b6ad54404b8b70954590fa3affc
:10195000f1821974fb0f0b18258faa2ee89e7d3a91
:10196000f7dfc0326290cf0cbf913b0f9455cfc8c8
:10197000cc894ff0140f66dd62ce945690800375cb
:101980007f20e265dea59109bfe170d611cbedaff6
:1019900085ce5a35fbcb774b0b3faa8a8e99f454f0
:1019a000ec1dce29d93a03073145eb95a999f418d6
:1019b000891d459ef7657fe39684ecc78775f62001
:1019c0005c393d6e0c675a0053ceca3407c55ff2ce
:1019d0003758f8b49e8f2667a888cb7d9c55e4b80d
:1019e000f388d42b3d34594ea62c8bcca905f11687
:1019f000872b5b70f33008943bc29125e2cb1e2904
:101a0000f0f45e5dc6cf66dc06119beeba71bc13c6
:101a1000d70c0751a4a4c877b19c82515fa2f59d51
:101a200066cf8f470f67acca2ad0e68c293a9dafa4
:101a300047b7323b633f55d16e004ff900b68f5523
:101a40008629f02d898bd985b63609290dfabcdc9b
:101a500097817288f59156d53324eeffd650ecd09d
:101a6000802cfe39d814fce5bde431f9190b5b4d2f
:101a70007bf464fecfc3c8d1fdc188092844d94195
:101a8000db5e621554f7ab0e86f6ca99fc93f268da
:101a9000f17fd5f6a922e1496a81c55c9bcb3a0e5c
:101aa000c18ea6ed2b814a73c135ace5c91f3db887
:101ab000d3bc3f40abbfefb4179999e300b6f31a1c
:101ac0003b14b7d7bd539b302da09f558c0e94016e
:101ad000513f380ed3a76219ae4d3070a10d0af6f2
:101ae0003bbc567c2e2701e01f4cebb4163cb3d90f
:101af000d9af8ac6039678fd9a8202e7cacd194605
:101b0000fa9820c9ac87f6ee3d3c95d33dba7940b2
:101b10001c28f35bc3a1122fd10f1e44caae3d3067
:101b200092fafb4dffd8768520dfe30459baa79ed1
:101b300066ff35bc6a20176aa32f1d1721191745a8
:101b40009c4fac706060b446b0126a14cd094de091
:101b50007e9b66bf54ae5f2561df0d1ac6b4974504
:101b600032bf3f5926a1cfb1ab93deda36f0e7c7db
:101b7000ebf0f80d0ff9086f44bae3ce101144f6fc
:101b8000e866d42b501330fd9bda5b9aa6b61d3362
:101b9000b393e06cf1861b7c14a8dab117bbfe8905
:101ba00085ea0783063a5ad9fdd4cb5d04267d44e5
:101bb000e52c86321b384edff150eaa4ada93fd3a5
:101bc00097a3b8620cfe5f44155a674ef661675ad8
:101bd000cbb2ab29b3ad9e578a140b56f6f20998d7
:101be0000c7547f450de487e58011b1677ecfefc5e
:101bf0006d1cadcb37283ff51ad4f2e045b4aee307
:101c0000d4109cfbbe58ec9ee0effcbb622a8c40db
:101c10001aa86c80c01861d5155dff2b188d3d5a30
:101c20000181e2781a728c4ab5dfee1d796af17291
:101c30005ba9ba86a653486f63eaf78348380394d2
:101c400097d7b92fa103739a89f87f69f3701e3c67
:101c5000b99d0359a47ff22d9b14e4b91bfcfb54de
:101c6000c7635a42b2a4d88097e0b61fee8660756b
:101c70008bd70a68cdff31741b80363765c0ec9373
:101c8000b832058e1862d094131b8c9d8da8b63c7b
:101c90003065f6e39b6e7f2e27ba9afb1cd70f6246
:101ca0003e853d2e0fe84642be4e9938cc36b9ea05
:101cb000c9d97858b1a3f51920d5542710e5b32c0c
:101cc000a3f5cc89871dcff1d810e6e90daae34032
:101cd00004d21d1b8c44e8a5e6943a41dcb5ae7bea
:101ce000ab7331fc1410b351f4f10cc607d03f0da7
:101cf000636011219c36bf6718cd0451083cbde9d3
:101d0000ff6a187cb8e65fd3f2ab8eac889ce52402
:101d100083a3e8497effb3554697e42874fc2a352f
:101d20006ed3b3f2037360c56d9f250b3be50d4287
:101d3000dc4af7e2a6c92a3db1111cd6743f100552
:101d4000d761cdea32216ce6d3f4b6d8c482c5b5ea
:101d5000e196a37a59103b9e9e085c807790f1270c
:101d600045c383054703a8e136a28ec128ba01ab5b
:101d7000244bd2dfc110bc34f61a0638c268e92cf5
:101d80007b9b942027762413eed7e70fee6f49391b
:101d90004b77070d300669529b813cacbbaf3d12bf
:101da0002cb0f2a21208891198d1245581b7fb9664
:101db000ccce75aaf354a37a85b60c84acdf6f2d14
:101dc0004d804df0c0af901f576dc10992b9cecb79
:101dd000df19ec3f8bb6eb94b254af5b55ab6cedb7
:101de000e3206d4f7f6d547908a32e5a0eb69b5693
:101df000fee86fe1e115fb4e0d3ad107facd175d14
:101e0000a5e718ab4b8156a07c05b0c0b30cd0350c
:101e1000b65615eb6fd580237b835e541e89d304a1
:101e2000473141f4887401f1ea1120a48763b33685
:101e3000ce615c983ec68bf701eea9003ac0fb0a62
:101e4000295cce0308e438d43b09f30af07e5185bf
:101e5000a9ab512b59ed72399461979b38c64b3b16
:101e6000d6e37cea48303b501a5e8ad55cc4867b58
:101e70000755c2e204f80cb176dab4b59672a07ccc
:101e800040d0ba92cfe00f0f1de5e685a5731c1771
:101e900062f6be6c94189397cc4a0289106476e07f
:101ea000b52c756ba53af7920c39491289570b631b
:101eb000b89328958a87c07df65473425feb678f8d
:101ec0001c2d6014af112791a7b4a22922e7d916bf
:101ed0005ead4edcf0ba02337ac66283e17a273c0b
:101ee0002fbdb69c372d5c94b5c8cb70237a0a22df
:101ef000382af2a38e80a227aa5f48bdf8c924ab76
:101f0000f8709d55f1bdcbc5be57beddbe1da012fc
:101f1000baeb973a5b4775a2cb12299068bf71293b
:101f20004499f5a5c29be0513834336f9cf119c92f
:101f300092ab039e613d5f67174df110144fbc12c9
:101f4000603ad481697761a832e00dc1dd374e680f
:101f5000dbc878438c6250fd5ce982469218f4f647
:101f60003d1d2a22106fd9bb7b9505106f3ecbc853
:101f700053cbf8ff91fa97816473c81bab027fa51e
:101f80008a696e50efa67f9f535a5fe36eb3ac3ef3
:101f9000d8615f0f22f38b1cc29072f9d106300e0c
:101fa0000e4901262858162a160d757ae94b930c0e
:101fb00075739bae83ea451afcc5125f44ffd3e4f8
:101fc000773b9181b7e1e526884afb57467a426420
:101fd0008cac21e8f4bff9101bb410ee65dd2109cb
:101fe000fb9ab105ab6f09124b86e7d483ebaf3f89
:101ff0003befa63a17c58710001ccf3db6fb8646bf
:102000000876b008894b16cc19c26c65d73cb292e1
:10201000e04967eac206608fbd657653c4a6b8a5dd
:102020002e4be9576d8a737bae2234ec8690c8b292
:10203000aab9e06c26c5f4cc46a07ea4871acd3e92
:102040002e671ed1369bd8c1335934d423c4566869
:10205000f60cc3ca6accf6536bf94abde19597a852
:10206000a0ffd9e61a381fe70b514ee4759ae43cfd
:10207000206e5b0b1e96bb0a8abec9b44977d4dac0
:102080004ff96334c882b0300759c4c50993768bc1
:10209000a21ddc0429d1fc060b19cd2f0802329cad
:1020a0008eb37b9657bb6b3d5ab092eaa0f1bc0d44
:1020b00025a71fb1cd0250e89ec8a9c17b6c972a05
:1020c0002e2e93ae0ac7991357bf922acec17e70a7
:1020d000e6225dec237a1c07836cba95bed12afbfd
:1020e000e3a90bff55dc287775ac5381dfe268bcb0
:1020f000cf90a21c48689f3d5dcdf4411bedd820d8
:10210000a8ebd71cbf4e63d33c0133630e7b3a3d33
:102110008661a8f5339a09d966612c94b9d9aa6f5a
:1021200059827c10e55ff4cdf6849e10b761179b51
:10213000082411a7eb00bf32059748f0a18419e3ea
:10214000722d673e55bb9b77471a7bc599cf0a46d0
:10215000fea56e3e368644f338c74cbc58da92046e
:10216000e683486a5e61c1a840bc08e0708afc64ee
:10217000a799460933edf5dfd111cdaa8d8496b725
:10218000942ae0ebd6cff08010a23b790f50881450
:102190008921f5823edf5cc956305f62061090af40
:1021a000f872ddbbc36a030113abec57ead7c8561c
:1021b0006e597f060e3ba363d66ff3b290c5329f74
:1021c0005b61bbb8f853853fbda15594a7d7586e46
:1021d0000edf93e111219c83587a7251104070af49
:1021e000504449c576f66a00e0f376889ccc4a54a0
:1021f000aab3e89c41ace3c1751ca4bd10abad55be
:10220000a3a9c3a6b95a9011e3e5c5d4ae58478235
:10221000feaf12d3014e42f6f5355a4cfb3ed2ffcb
:10222000b25bfb7efedd08714fb73324718f42d560
:10223000a9b811dc9f98da9ed9059c5737751bba4f
:102240009d02e8d8f14cca71a5b47789339e8aa45f
:102250008cffd251bdd8f7f50318cde426ea2e291c
:1022600015cb3e69f06597397a4ee227a0ea15e072
:10227000b2bca7ea30874cd319863d984216f08746
:102280007694416e55d668d88f9661b6f3d842776a
:102290008e85963c65de36ea6c9346e7b5be6ac825
:1022a000ff79833f80cf8f542b126ccfa921015e21
:1022b0006d8050319c8d85bbbf48a18c49c1dedc4f
:1022c00033bd6315670dda6b51e81c42de049c7365
:1022d00001645ac3e8d0c87387156dc85b25adc2c9
:1022e0009b600724bd7813a55398ce5f22b4685530
:1022f00004907a6a42e76a9a731534052cfe54da20
:1023000039cb55fa6ab58de762a4112e6f144a399c
:102310004e2d4ee20d7832b2ea3896512c9c9c46f6
:10232000a4827893db7ed6bc74423e720b27a983cd
:10233000d8007edac71b020133f5a997aea6fc2ca4
:102340006edad69781432842d7479db57f14b6f9f8
:102350004d73c348f21ce5e34aada4ac689ea90ed8
:102360008bbdf4a57e9f1cf51379cddee93b9494db
:10237000ea77a748a6e7b341b1901901aae0df4a7e
:1023800064189d2643032cbd9e977fe81ae8d25b14
:10239000b55adc35c706655eab3b1e2207055dcb33
:1023a000653b955bd2e79b7eb34a76539c645e8b1c
:1023b0000ef862c577a9ea140c9df11e02dcd770f5
:1023c000d7d172c6a9b3eba499e343cbbc670a8308
:1023d000ff142c500424a2b91b222a9c793b71aa19
:1023e000e2b724286b752740aa55f1febe03485872
:1023f0006a3c79fc19cf16f0fc7f5ad5d2278f574b
:102400003eafa967747788f5a2b41b038f64c157e8
:10241000d8af9dd76d3ede0d4d506f4bb2aeeb7910
:10242000e8ee7a68fd884e2539b5fdda83f2406d15
:102430006f1441297934936f8fe32fd0fcb401ac32
:10244000d20579343763796c25dd2e585665f5c28f
:10245000e0f1cc7b9d41eea55f2bd4699a82b0d888
:10246000991c9c53344f732d629eb95be48d901a76
:102470005eed10039cb707dfe151bb7c978f57a837
:10248000f34f4f81df8fadb2a79dfd4c36e56d1f39
:10249000be8e48cf22736dbfa730b0f084347a7df2
:1024a00008c6cf90eab2228d0a2e068095e81467fe
:1024b0008a56f3c9f81fde67618e2afaa682e6bb48
:1024c000bbdb2dbc73d5339fde3c95dcebd0bcd998
:1024d00090cab6d13113fb2b39b0a7087ce84887e6
:1024e0000e2ee1460922cdc2aa4b3081367ee73559
:1024f000c637d1e983a0534be875e92f4657c4b3db
:10250000fcb304568516a08fc79bf1e1936a250f93
:1025100092dc7347a9b4a878be2c40644c9fe39f1b
:10252000975ba40fcfd4e3b4bafa2383f8bc138526
:10253000670b9480fe8252d2dab52d13a100777614
:1025400060bd251327065d218e762d4612093bb40a
:102550005ed4507053c55635322f20bc457bddb557
:10256000777b2106ebdbbb1c558bd90ff4a522c072
:10257000f734683a6b55ac86e6b7309153b2a9bbd5
:10258000839ff55a9eee0e154ec87726fdf295c92b
:1025900076f2628eeeb590cdd5c3323aa1b32078f3
:1025a000c701e947b114f938746d453f346f0e9493
:1025b000c91a58d49086b0269d1cb271ec63ac60e9
:1025c00031bfc7dfeae68f383a80f208e2e01b3a13
:1025d0004032d524e889dc11261dc34a7cf5083237
:1025e00057fb1c6e7e302a65e6a1969402da56a946
:1025f000f206fe5983aba9fa47202d31c56f4dd1a4
:10260000b8484491209ced55d8444659d0e098df15
:102610009ba57eeb20d3203a169a2fdc4554b73386
:10262000403310bc6a688fd82a3c7b6e70c676a295
:1026300025bde439a67fbd28390dbdb92d040c494f
:10264000e1dfca932749374558c6e64a944616de65
:10265000fb27c34238a1f63769d7fc8ce91de07926
:10266000f7f5fe68ef65012b43a37a988deb0641e1
:10267000c21594644ad592c807bb19bf9b5d955c8f
:102680001c23156090a713043609e7b67657341b50
:102690000d8aa4a345776bf5439f61cfcd075cfa04
:1026a000a9f0314a7bcc934bd06fddad4da0e6c78e
:1026b000e1603b4ca169c291a13d584e204a884936
:1026c0009143ef9f27a52c4a0a75221199c13cd04e
:1026d000023f38d29dd6043a099850e96178b6484d
:1026e000079d84829c8b7dcdf75311df1dab8277d4
:1026f0002eeefc313465c82b5cb2f3c9d951686544
:10270000a32177e9b16be9f0c5446fbef1990842a6
:10271000cc72c9c7a6631d8f1121e827e77ceebce8
:102720005b11a002ecff9d9b5fa5c93c334153b2f6
:102730008c2476c52157b4d3a0d3252e9de0809359
:10274000903eac9d08039fd0d1a6c0581c8a422f52
:10275000b5350833facd601b8a0e109f9d45c2af78
:10276000f6b8a5f761d0129c2f2fb9d3a9c2bff339
:10277000709a32d1c20ea04c8364024fe07bb495b4
:10278000cc125ab289afde589af9430d1d3e42264b
:102790007f49262917a3a10ee898110e8f97f19c67
:1027a00016691e884babcbae2870cae62b39396b45
:1027b0001b971937c0ee0bed13d302cd1e92965323
:1027c00048a246ccda03889fe6989588ac214f87cb
:1027d000ceaf554f21722d4b155c814898799e14d0
:1027e000081d45adc13191c89b026d158ba263c90f
:1027f00014632c98e6ca1e62cdc0d95b2f378ef4c5
:1028000047d128b96b60f4b5d48d6f798e87bfad91
:10281000e49f6de82c16ba991387a7a54c8b185b1b
:10282000af512b64bf8ebe1ff5d6d4770b53e1faa0
:102830008b2729cd9ed8910941a7c38db13452b0c1
:10284000728cc53935785550337f7a40306904af82
:10285000dc1c1e033f1761aa8c25ea7bcff3beee7a
:10286000d5c8f2225816fd2c17a8d2b41651d0c0e4
:10287000c00c7e74f7fbb2515fb00f63a044696770
:102880009d182570d8c2a61ef00f4fa5f57b9b9012
:10289000b0d6997cd5c89ee7c6fa967cc6ef55e2bd
:1028a0005554b1f45028e8dcc148cfd08abc283355
:1028b000c69719d121380788f896285b84ba14e99d
:1028c00093593651c8cd9b146ce7296a108efead22
:1028d0002f194ebd8d2dc8e90ec365e391d56f2428
:1028e000f448cd110a7ee6eeef575cba1f71cd11a8
:1028f0006464b1952f934c45775452e78c487f6fb1
:10290000fc58b673875f6e56d3620da6cb03572b68
:10291000f123a0008f41afa4bbe007ec74e0f35ead
:102920009e12f8a3dc0c887a3e938adfa166b11070
:102930000bae69ae44c292b4d2a56cf15672e2b944
:1029400043490260cc4aa3cb97a6c4a8ae029c3ce4
:102950006833dccf2a298bfac27a849ef38cde9fff
:1029600013bb451ad68503f0e64494b977a0cf96f9
:10297000d5e97f7d3cad5a035ea31755770b03273e
:102980002e4d3a1b16e39c3c3c08346843f2ef7a28
:10299000f228724c1d71aa8bd37d579d5f39404e32
:1029a000a14eea810527401dd8cbe27d2041993414
:1029b000ea565cd625412ec461f0264f231e436f94
:1029c000c333c5e5ab04d31a20689243454b40f8a6
:1029d000011bd6c6d3d8f66c7fa21cfd92da41e962
:1029e0004629b90a0c7b588f03bced0383495d4827
:1029f000ae0d7a32fb4ab8eb3b8f18f515a5f815ea
:102a0000b012afc836abef2f89ff1212f32376dd79
:102a1000506a59ff47e2bcef7f62cb964b173547b0
:102a2000a7787a2fcb7e30644bbb3d91e324cd0f4a
:102a3000e4e5e53517edbf3f1e3c8c47e1eea525eb
:102a4000967fad7c775fc6d9bef2acd1048a895639
:102a50001b48020236265075ae67579d70db66a490
:102a6000e3f0480dbc7add1af5217cefe8b5861f4e
:102a7000aa9120c9ef1387be25da63497add948fc6
:102a8000362a90674493767e3c2f067aab3915a898
:102a9000381d4237d2870e1b74acc5e10c4a9938f9
:102aa000e896edc87fa19506c9777a48508d6ab837
:102ab000046a7afd7a842777119050853c4524aecc
:102ac000f7222bcb2c01918e00f9f5eea3c43078c0
:102ad0005aa33bc4e3304daa296a423c01def8f810
:102ae000e5bda28e0afcb20e04362af6c0cc101642
:102af000d90132210620c874e8a6e600d5c2452dca
:102b0000fdd93e19adc40bbfa293b2c67f1d1925d6
:102b10006f57c774b31d4e268d5e81ecb46aa6d67e
:102b20002d85fd527ae932fc532f454dece0d31947
:102b3000bbca7dbf119491ae1f0b5019e5dccf2ca1
:102b40009b48f87adfae91c42a8147a6ee6b63a951
:102b50000a381253cab2698fbf9a015fc502f97c65
:102b60001f1d96fb37c2b383a45af25e201444683b
:102b7000c8cc2097d7ba049a35be62a8dc23cbc54f
:102b8000440d59fb074a05050e55a58f528da98b9b
:102b9000e109878b03d29c693e240711a29fb3e60b
:102ba0008329f55924167c473e4be8c6f8572fccad
:102bb0007176a0dff4591a5b663daa042b40e6fd4e
:102bc00012195c587fabb4b7ef554ab66f8eea6600
:102bd000df491ba0078ae33f827cafcf37a92c12c5
:102be000992f49397d9813009a185d4403754176f1
:102bf000e5c398f74125ae0a9d1a4abd337e8da5df
:102c000083002294fd7021a43ef457644ef3fc38f7
:102c1000ea1f710869363ccb41477c7f20ad86b600
:102c2000d6f19574a8a6337d11d925bccfa3eefab1
:102c30002f04c08ded80b2eda0a8f3733cba842ab6
:102c40003fd01e693904d4fbc0a3b890f0821fdfc7
:102c5000792df12117701152fa801347956b7fbbc4
:102c60008b54477b28662599a3ef4f5e266f81ed35
:102c70009ab1f71558907652d0ff034e9dc321307c
:102c800095ae50e74f487ce8559aef1031c1e31cf0
:102c900032c08bb995bf55a25e6ca5f65ee7e581a3
:102ca00069fb15a82cbc0e3a3588c97d93ec018fc1
:102cb0006a98cb6aa063bcf66f4a6c0341af724856
:102cc00073a698f7ad23a33a6036b367da81300f65
:102cd000174abc6ec452ec27b26bb4111ba9f24662
:102ce000e6a669308bef396adde7aceac1fa81e12b
:102cf0000b19cb7e100eff22b429c7edab8f3dd64a
:102d000076402e1bd0897226edb172e5501d1f99b9
:102d100041e221722c5f893b973cd3ecbc90118c33
:102d2000eb6f26725412a0bab7ebffb44a8f0fc5ef
:102d3000a3469189a3b3f12774a852ca403e49f42f
:102d4000c6093e9584a8c7ec3ad4ed431b687210bf
:102d50004e126fcf458c6c4d5d30b666e5b0e51c0c
:102d600011085ef32fc4b51ef5ca07db75a7b65868
:102d70006d1ecdd2f1c16d48a7dc854b7667d1d5ec
:102d8000ab1af79edc2a3e560cc8c52e080003e994
:102d90009d542b544eb9458ad0ed54c8069b2fef55
:102da000b7a5deb6641eba885ef89688f08286db28
:102db0009c7135e4982290b8203c9182d4f79ea46f
:102dc000d0b90e442c798da2e0cae3bbbe415d842c
:102dd000e75fed10e6569679a2701fbd7c6742eb67
:102de000f167652130a3944643a0d98225a45a5a9d
:102df000ec4204852524d20797330befe0e3733fc1
:102e0000c44f27c45da99ec936c7b8dd123c51db4b
:102e1000a30aa9f55cf0b0c677c3227c45ccd807dd
:102e2000046dbefec230fd0658774865649cb594bb
:102e30001f7d1f923c71fd175fe1044523920e3404
:102e400035e51bab6c73aa79831c69d4e6b9cdc395
:102e5000471966ba51e7bd18efa6ff23568a7ed2fe
:102e6000bb526d5134b21ccc34bd1261de63e8e25a
:102e7000f857e028b9bbda0310df803f42aa956912
:102e80002cfb9a4982fdb36e6dca83195c5ece1924
:102e9000239d065a5b1a67103ca35dc22845af5ab2
:102ea000466fe41d6f13100ea08b56676f7f1ca337
:102eb000a89b15bcf4758e19cde341cd2d3680b19c
:102ec000c34717ce3e39ad1fb3021d8c2dc2bf586c
:102ed000a10479a2ad2f353912b8197f5ef7cd87dd
:102ee0009c06e4a2fb6f169f28d87a32a1a74f4a0e
:102ef00035728ff50ce48b683ee66cf30a7ebd6795
:102f000051523346041acd9042e5641bc2fdff0eb8
:102f100066de8c6ef7add7c0e7e687689e11042c9d
:102f2000ad9b733a7873bdb777095b21aee70cd1df
:102f3000318f78ca880b4f0a7ec29a90c8a8f94e82
:102f4000806c8525ce9ef31812e41a77213518e19e
:102f5000fb4e3e9fe547402614efcea99533a4b023
:102f6000bb379c315e2ca93dd78dfa820dac069df6
:102f7000bfb0fcb47738ec3d9225d158d05924c568
:102f8000e0da039d5fddb05b22c5734deacb4d2ec9
:102f9000e6f15edf3c000c626007acdfa8c06a357a
:102fa00019a54304c1088b803d615ef803ee7119d9
:102fb000051e0f2cd9b86592f662fdd7351a4ac1a5
:102fc000518dc2266119f5cc764f950c5d1b5817b3
:102fd000766d07e7750d0a267f70ca4febd407069a
:102fe000e062bbf47f90d5022941c84de524777c8f
:102ff0002505dbe84f5700d8751fa89518468af2bb
:10300000740af4a2df7f533ede3736018bea1eebf3
:10301000d1bf63f00e14cf0f4aac9ca0bd78f5323f
:10302000eabc30df6d2737dd74b16debbdb36c9d4d
:103030002db1de0d489bd5551323281ad9138fa522
:10304000763d1021d9c6da5894d2c5ca9fa99c40b2
:10305000f413c40ce2836203bce9776dfbd7e35e33
:1030600004a023df4169782fd748c8a8d0e00d0419
:10307000e611faf4b4425589fd4bfc10ce835cb5e1
:103080005d65fa9fdc3b41232316a762ae17a59727
:1030900069ff23274589ca2c6cb2508a7b606fb9bf
:1030a00046d847407c8ec51fe31bc03912244153cc
:1030b000ead9e90b8f78c06c3fccd16e0a9c08ca64
:1030c000cb8fdf03845fba3297d8fb0478ccc6d0ad
:1030d00024cc2a5641bfe3aa3ca956268b15c542eb
:1030e00081e9e8cd879b88a5764d70d926e1a817a0
:1030f000b863fe88af536d5758b52c90d6707429bd
:103100002037ee3db33275d581c390c54b673cff88
:10311000ed529d3c1014cf62334e82f26c0dfbefea
:1031200082eb8676e6ab21e2bc014abda10be62725
:10313000616473e3518e95821702531fec3004e4ef
:103140009073ddf8356db208c39d308900cfa206bb
:103150003c4e5aedab8365df6dcaa05684f24667dc
:103160005a6178a29399909249b32660b839fe5576
:1031700012d475a202f3925fae5bac9cffe2110f1a
:10318000e32c18311ac4848afcc277933a59494314
:10319000ffed7f03e7070537b0f1e38530b964231e
:1031a0008704420e75a17f3e088f5fa58392188128
:1031b0005b56e04b538dc66005f890528e12b043bb
:1031c0003adfeae8ca40aba13b7ee55f99032bdf1b
:1031d0005d30d87795430701383993ef427e3f83be
:1031e000acc577c0b5747e923221725c682d957e35
:1031f000d0bfafc43ccb236fb06104fcf109a6dca7
:1032000001ab2d958f3cf5d2790eb054db2babb1d1
:10321000b88201b4b95a96d4a92766b0ca321f0f32
:103220001570d3a24c37020c4540229d383977d314
:10323000f0fc7d1aea10872f66e7893c000855af3d
:10324000df9c49243431170002dda4874f8154e10b
:10325000e3e24983d56a33245da1e13b646c0e96b9
:10326000ec9e434f685ca22a7b55daadd7b3f94395
:10327000b9ddaee3380f248637cec05c43c8c0ee5c
:103280001c68ceace6b7835f1764e6498cd7df3b9a
:103290009eb546b82f8d31aedff7894e178095e980
:1032a0003c1e2122566b8fbed303956f47e22477d5
:1032b00041293f13c7e6f7276395a24b0ea321e3ed
:1032c000cdd4207ea1af027edd21b80ae7c817e386
:1032d000499851a0df919eb655b3ddfd73d838fdf6
:1032e000eef0943cd11163fe4f06cfa100e8247f9d
:1032f0009a792b293638ac9e5b3806bc49011546b5
:1033000045f5e688fc3c18ddae4c6830f2f76d3cc4
:10331000a56add1bc4995e6e68b21b772cf1353946
:103320005eac68eb38ad95f34ac5e724915ca5c562
:10333000847a41ccd221c1a1f4bfd0171b4eba72fe
:10334000c88c88ff67c6b03830b57ab896ff6295ea
:10335000c50663b8e4fb6d6926a3edaab904c38c66
:1033600001355dad33a01a6f8f6b24c495898e38fb
:10337000ac6dbd1ed8c30d655fa0e8287bdfcc0413
:10338000eb7331b73510f320b7050c40f92e5977a0
:103390001190e931d5baed755adfec7c6ac386b776
:1033a000ea8a8c4c1de9a3304115044af8c4d4d3f1
:1033b000f05b88f7e89b84013e5a6d4ea9c3e1f5a6
:1033c000e6640f40bbb888c99b5fd950fd81508629
:1033d00006859b8f35cb9dde5f84099027e0ecd876
:1033e000ade55c856db3b4b63bcd7f1a53d71def09
:1033f000265fa279263f30526c432fa33057161513
:10340000caedf8413668c426d184d9ee806a3b659e
:103410000d93ab35260d8f0af9c0236a689b998cf2
:1034200063686fe1808135554059ce1cae4c2b3d11
:103430005e1defb46a927997363a954df7695fcb86
:103440008c5db9a3fe5bdc0ae828401c9bd4e53bfd
:10345000effae6b82e0d22b189a3c9b30efb87128d
:10346000340169ef5f534edb15caaf2a53d5c2a7ab
:103470006dc639c442d67fb48f0203ba026ecc69de
:10348000ce5f9173f9450db02e19c72c16ad00bc57
:1034900059afc56982346a68e0bb4b210546bad48e
:1034a00016c279a22f2ba2075c0d915298ddb0f2c3
:1034b000cfd6775a49031d89b559785b27412a38f9
:1034c000e48202075b3352331dcceeb0a0d67d07f9
:1034d0004417d150bd9d8f81c1c57ee8cd925ecc91
:1034e00095471d9582fc1c87ba86d0fd640d20bbd4
:1034f00019cef2bd5b414768eeac7a0412c5b5bf88
:10350000e72fff24277759addb83a67e06e4432609
:10351000ae6e37d3c37d4816ab38f9503b0f041c51
:10352000b9fd057063065c377c4ccbe215fb5e424f
:1035300001a09e1ba2462472ff1d13d8e14b458bb0
:1035400080595542a2fa4d2e541b7b85670aa70b62
:103550006e848e43cec0a24dfbdc119da6f59a7001
:10356000a211e84a570ca87b884abb4f5fa869673d
:103570002734de684218f74728fcc15a24a0818c02
:10358000bea7f34060b6e2c700172ff6f2ee50e395
:1035900053bdf77e4f1e4be8772e7288d9a6a49ea6
:1035a0005ae7fb24bdf017a3d36f7b145b41957dd5
:1035b00094401ee26876a74a1d910c97e53fb56bd3
:1035c0000197ca985b956df21f83d94b5b852419cf
:1035d000eebcb85ecae9c8b2d931141634fff7f0b0
:1035e0007eeb997e60e56b83d1d48078a159dec6ed
:1035f0003d63d023bea2ab62f09761e0c7f4cfe990
:1036000062b810e18ac2faf51beb930dc50f389d25
:103610001fe89923d74b7fd4b0a211e4cdd442cb7d
:10362000984259e124018e327c14ba8cbeb60c113a
:10363000aa984fbe491f03f90dc45d9c2a02f67279
:10364000529dabf021466f431fd1470d80d6989114
:10365000ed640895de41ee89c0f0d2bd2e61633c79
:103660006c266a998095b0ff4169038ece02f4f111
:10367000452d2348a47067689be5ac968b13e5ef56
:1036800075fc102b5cf017b0c4df62a820f125b4e4
:1036900047bfbb70ef553d8046a6ee6d7b793498f1
:1036a000d6cfe489bf553168d44602ad6d104edceb
:1036b0004dea5cd2957b678d4eb31ee394bd238c9f
:1036c000542a0a064f2178c8ac7a68d9cc0ebbbb05
:1036d0003b0f59549dc8784f1c6d5f09c5bc28230a
:1036e0005bcf9e90c03d77e75a895ac2ec341c9854
:1036f00076981a1694f448a5d6d1b989c8e9b7b115
:103700004fe130be6a1b1322baabb9a9da53ba68cb
:1037100002773ef55eb1f55e9eeac658c35274dd8f
:10372000363732a5f16a280606ad97b17881c14fc8
:10373000a32b98cdc302a734402d3b350416102c83
:10374000201789ea860f380fcc669c6a282dc11392
:10375000fd100063fe00410efb8d15bcfe94284356
:1037600003402853bf294a62d3705ca70287bb6c11
:10377000dbe52678043ec4d69ba79e2a8d45d8adae
:1037800019d16c2947bbff41741aabd5c69715d028
:10379000f500c897cd57a71d5d39fde87a72506bcb
:1037a00017c4950d43699e86465baada3879fed325
:1037b000358281c3bfd5e83defa740d7a5fbaff465
:1037c000e6313504ed3adf74840d00a2405d1c9fa4
:1037d000695889e5adf814c952cbeb91318736f4bd
:1037e000a3da44cd270d2ae27798bbde7c95855e6f
:1037f000e17b4abb345e80865b1e0a41a730880ba2
:103800007bde5204329c25b8ab778d1b3a18c5fc81
:103810003e99ce1edb26441029b0f176e8eef91b66
:10382000e5dc7925169aa32428a36f8cab4bec1307
:10383000ea7428ed74e60785523485eae39a12b3f8
:10384000df9a03746136180b7402af6bcab48bfb3a
:103850000e33c3a777929f64ee90d6c24e6e0d0fc3
:1038600043ded925c93c459b47eab95ce0cdad9f15
:103870003ed92bbc891918bbb1fe97d718107e29e9
:1038800077137561f649a4fb5022a14c27e2b9e1f8
:10389000e1f3a1199a0efe20f3d788eef712fc5936
:1038a00090011b8524dd7a3ad0b6609c08b67e2e46
:1038b00024ca64c900ae658e5496bc582dda5252a3
:1038c000f9e896ea736c050d83279fef0f7811c115
:1038d000726cce404873571c3764377a0038449e68
:1038e000965a4f7fd1c872edd799a39bcedc5cb4ba
:1038f000d0f9ce996c45bc4cd8afe42ff3233f727e
:10390000d790de0e98de05209883ad5cd12223038c
:103910002ed5b2d89427f7f274fca324bcbbe622c0
:10392000d8d77134cbd2a15467bf65882c92f116d9
:1039300045362ff92f7f2a93bebaaa1b35bab29cff
:10394000869fb92b691f6ac0dbbab854ed708cca68
:10395000eadd85be1768d3bf32c88a210ff60aceca
:10396000f3e84c1366bd53b777dfc525b4546b70cd
:10397000ae3c40c62e93dea42815930f9cd7c09969
:103980001bc7d9f90ef2a149dc673e156f7acde865
:103990008d1ab8f6f88ce117a64fbf6d9bc7d0976c
:1039a0008203b5adb8ca6598865b03926b4ea3bf20
:1039b000fcb1543e9f7e3c4fd1340d6f33ff0a0d56
:1039c000e280e1699b9f22e1329e4cbed434a80084
:1039d000f618ff8690fd7253743ff5b0f7fdb82ed0
:1039e000873be355889b9896800bf4367d6087472c
:1039f0008dd8dd760faabdb5157d3464196f015dd4
:103a000023dc316368bda94b2935bf1a8d4ef015f3
:103a1000bda7bc89d0b8e43102f31268c0d8f4b3b2
:103a200058ec6e23d95a969f5f902e470d80bf9415
:103a3000b1f2d5926e79e7f259cf1ddca250de24a7
:103a400050f60d6a7abf1ea951449c033179d6fe07
:103a5000807e6463425552fa39cde5e21cb63302ea
:103a6000a4deef9ecf0a360a88ce0002c83adaf208
:103a7000d5f76d23ca50b3996f0ec23d1ae9eccd4c
:103a8000767e2914ff12a5e485e783a48796a96ba7
:103a90003ff256ff7d4819e88ed4e2cf5862115ba1
:103aa0007b2de44938aa659830eec1a4fb56660622
:103ab0008f765d19093a683a5db190c83dc8ef7bd1
:103ac000c6c42e4f8dfecceb4559b4bb6a2e1be10c
:103ad0005b3291fd0d7db1acc88a68fc8aa0cd4bec
:103ae0005f90ba6f561f81a3bed09f33be59f56b4e
:103af000b69238bcd3b5c2d0caa9634bc07d5c793d
:103b0000b5f3018ae1418f68e76aa2c09f47b0859b
:103b100061cfbee8482011974431441d312a058efb
:103b2000d42a0a6b99b35add0859c2a1bb1ea9ed6c
:103b30000ae40d878101f53d8138eb7d4d622a63f2
:103b400028397bfddae380dbf5acf6912c7ad6e1ff
:103b5000231252f532133e80a501bd2b1210017eb7
:103b600090c7b21e282b58d0f414717350a4498cfe
:103b700081c528c28c2f46af8fef88972acfb574a6
:103b8000206acb8f4f2e44c9488701d653879d7e2c
:103b9000d9cfb0508c56cb52a35eec5a2f6928c1b6
:103ba000652b17eac52bd335c31e682bc91729e827
:103bb0000bac9257eaffa19c59e228e3dbd089f4d1
:103bc0007dcbf170063a01e0e55bf033e30fcaf715
:103bd000a99c15b6cc22eb5dea88307e877fe4badb
:103be00059fc20454936f80bea7b46b9bfa2ecf6f2
:103bf0005cca42879617d7ece58648cb5b2bea0771
:103c00002b08002b04f8531e457a1d6b05d64c2754
:103c1000f59a7f6165495846d1b4aa63cc561663bc
:103c20007148c04afbeef0c543464318cc11194019
:103c30005fe86ae0f7d78c76df5b25d4fe5a1c6616
:103c4000141928c5e897758d679a9c8238ce650847
:103c50009bcb8c87fc6fef2e863af80ddb71b70c8f
:103c600097452b0b95bbad9113c586a08de88f347e
:103c70006d5d45e14e88750c233d5c7957ba382f50
:103c800014d64c39025af5158164b01f53e6e18e03
:103c90007f4e786085db91e1ed9d6fbb41fb047247
:103ca000bf1c8e9cf2465ddad07bd1605d2906d4c4
:103cb000efaf48c3bcf31f6a63eba6aae097fefe12
:103cc000149e8dbc1faa836f7584291e1dddab7fda
:103cd0003b4e88ef5b8e527acef39b68567afa5948
:103ce000109751efbf1b821cdbef1b8c40156e7ec3
:103cf000fcb8772c5dd4054e9543477760c97d1697
:103d00005fbb5e8e549757a4cbc2b28997be00abff
:103d10000b385423cff8092f122a0bf7907a1adaae
:103d20004cd277831b015952832079db66f65fdf23
:103d3000776fc05fab25ee698c0dfd126742770c83
:103d40005ebb31c89496f4c49feaba75bcc5af7027
:103d5000e282563cf65b0e1680ce9c9b60dd853d74
:103d60000c3d631ba37165d56f8cc3a9b67ef1545e
:103d7000b31231ee539aa6f2a8743d3ed46cb5be90
:103d800037aff4e78bd02edbbe3770b2d80087fc9c
:103d9000a9ca65d98f98948e62123c3ebb765d0da0
:103da000e20f0123a93d42d5b87e787b55f1854cc1
:103db000a4bc6de7c58cf73b053b80e40630c5d459
:103dc000607d9f394a46f302ffc77d4c7a2cb0874d
:103dd0009c6d9def011a760bd380c33128d0594ecc
:103de000d73be195f0df30c4dd5f48cb15a6028eee
:103df0009d15184947ec24f7e393e93f431ea62994
:103e0000120b49d8297933159dbdc4396ab457249a
:103e10001ee16c65301f8c27a02da14e9e4677dadf
:103e2000057cab6cdd4e800161929344ef79a9e093
:103e3000bd33fa779696abc2e8de344bee52b6014c
:103e4000ce59c643d212e2700871d9f9aea9402703
:103e500006d0b2be803ed18c457b0200a40140e377
:103e600022717b62bea38a7844ebe542cd09f6b8a5
:103e70004f666c824421a7de3b22f83b37620ff588
:103e800023e9223b63e14c221e4d96aab2dbfd7d65
:103e9000335712488a5cdc103cd462a09b3b091a61
:103ea000af559f8f38bfdd21a3a140561a390aa212
:103eb00009c7b89f523bfe95f029f19563a37efd9b
:103ec0005f37c3577eabade4d43588d83c15832526
:103ed0002b4bddfe3538685f28d88bdd25c444aa1e
:103ee000037f00ccfc936665514873fdd4e04da47c
:103ef000e9571032fe4610d627dba887c521439923
:103f0000ae391da00d64d64f9c02eb0e676f3bddf2
:103f1000e41e5ccaad67467f2e18be171813d88200
:103f2000e50de64041a7eca8cb5bd77eb9fe9ec766
:103f3000e75b7f66b0fcc1578bcc069273ad232b39
:103f4000215920189ab1b5a83491a6329d6ca22aa5
:103f5000a9592b8d736e0061c9bb356bf299000bab
:103f6000420bace773905c975e234dac643c5261ae
:103f7000b8e3800febf22e3b08434f37389c4d8f50
:103f8000805d80226965f37fd1b5a873f21caf878d
:103f9000bd3c672ca2cf1d634e9eafd59ba8265e6d
:103fa0003f2074c51b76b935e2e3748b0f1569c8e1
:103fb000eee4577a82f5e2b887f37d737b6a89680d
:103fc0002f9319dfdd6e36a7a29230a1b8c6225416
:103fd000fde169fae314ce0aea173f62f2a188a074
:103fe000c0584ab709467cdb6f6751c48e7f927513
:103ff0000c42c315df88a13905748f36b2e7217ce6
:10400000b39edfcf8740999b95923e447b14dffea1
:104010006d5d2cabdb254c0055af258f695cce5711
:10402000c4e5f27f7e24983ebc2cc16cb12cc3a2a7
:10403000e695bf3fda272af4d93fae66270e457ec4
:10404000c41350d51210675bc35a9d8c0f94cd30aa
:10405000106ec5b18a3b06765c6b8a4da336c8a646
:10406000ef4721c44dc7dd682896635e48688a69ba
:1040700018ccad3f523f54c68935c66662bf14aafc
:104080001637bd3841adc77efb295a2e2fdaef8c8b
:10409000f7a6ee00725b498bb6b494582f4c070715
:1040a000269186de11a1528f3e15da1630546ce847
:1040b0000dc25febe6f6527da66b42ad74b4717330
:1040c000fed952f7da102673462501b8a1b832bee0
:1040d00000abb2941e377520929acf70c9fc7dd286
:1040e00002911130f2527998a250b9cb0ebf9dc502
:1040f00095c4a823347bfbcd3ed006997fd173cfe6
:10410000ba192a97f5126b3a88745fc16c709dbe1c
:10411000f432eeaacb55ebfe0dbd2194b2276f947d
:10412000b7ffcc543a823bb602f1b2026f4b437deb
:10413000dd57c7719baf47faf1c24375bb52563288
:10414000d302bcb806e47c9623c214325653a3feb5
:1041500076f184bece1c37b01550c290bc0f8e795c
:10416000b0c5c2ef6e54d98761a02880a95ae94a28
:10417000529cd631453063cc3d18542dc840e77170
:1041800044fa045bda4f451ade77301ae811b9f1c8
:104190002b45c3125331caf627ffa4759b8bc2442b
:1041a000be1c6228ce0eacd21991b86a99bd33f507
:1041b000cd7f57644feeeb4b0d6f50ab621c3873e5
:1041c00023196d5bd769ffc817717903403d86f9e4
:1041d00002d87b5c70f6dc44098d137f77ac07be98
:1041e000f8b98d98bb01fdbe9276ddfa19e30c8219
:1041f000d3b010996fe859d9f55dfa5c27921f92f8
:10420000eeaede079453080ad8b9887d91f23cfce3
:10421000518d076b8b3d0b34510bedf3e61f3fbe09
:104220003d6651302ebc10f69bc5c4515f8822f20a
:10423000c1a162ebcc9f8de28113980ddd0c2a4564
:104240001f0102e723d0449cab65be9e2e2fb07d9c
:10425000b7f19934fe95dc1758d54247fd11b57575
:1042600028425fa22e2ce5de725429383a7d560092
:10427000b72e9326cc063767fa88ed2e0376d64afa
:10428000774f6ef5dd920038286399ecdfb0389ceb
:10429000f0bec786970a1c6c848fe95e35674b7049
:1042a00048381b0df675fb31c5377970ca5924f5ae
:1042b000c969c92169067fd0072e8f8f05faf23fa1
:1042c00033f36642e33b05c9077d10518eb508c53f
:1042d000ad58d73d4fb59b741a11ab0974b3e8972d
:1042e000510e7d94ae6860fc40422c5243bd7287f3
:1042f0003b0822d3283faadcfd39e8044c4a0eb91a
:1043000097cd9d16f3961d28b7315939664c26bdb9
:1043100077fba144004675c5720e83f1a9a9e12d72
:1043200012b9b16abc60cbebbfffb0802ca84df4d2
:10433000c4c3ae390e72adf3ad04194a3d60e4e07a
:104340007a9a3da6846ec63efe783a8367e91929bb
:104350009d9ac306bdc9185a0ddd7b2ac3a3164119
:10436000a753c971e1039adbdb22bbf18f95c239f8
:10437000a72793edabe922b4519dddb0cb5381df8c
:1043800059f15856c9b2aad71e0145f67309c33e62
:10439000682b400cdadd7db5f6979a0a8037824d9e
:1043a0002c2f5cce58cdffca6eeec6e4e4f4a01b01
:1043b00091578de6c33d35a5c9062fc3523a9bdb05
:1043c000bebd98110d5c778cba918af1bb1b7e1d26
:1043d000fa1e966dde5dc73672799abf299c188edb
:1043e0009f8e090ced12bf1939df0d7a41011a2693
:1043f000728f8ad8374fb4e91c88dc9cd565346647
:1044000045808659befb2a4f39868f0e655e6c0c3f
:10441000a3bb669c3f8691eaafea4ec62abb6e5aa2
:104420002e5d9dc2ee978b7d1a29af9efeae47bed4
:10443000beb1278b26403383e18b3e9aefebe61d1e
:1044400038bc118fbf723939094ed46aa4129f79d2
:1044500028b6c46c13c8678aac562eb7a7169064ea
:1044600070f8b1d29553e4e034174f8a9a1b323674
:10447000ab041e03c4c029e2160f38c80027c84a7f
:10448000851881db5810804e3b30656939b0168243
:104490002b7b9388959ee067511e24445856ae2b83
:1044a000a4fb51a9e69b7a22acc5e88c677a4c1b29
:1044b0003bc262d5d4262baff0543e1bc993ed749a
:1044c000555df08a20bc5b7cc2278baf8e56c44200
:1044d000085f588af82aa36f5b30051efe9edf2610
:1044e000e9d830902e8084d77b646ee19e3cd42244
:1044f000b870d7a13c319de0d1b4202ca6ee7e044b
:10450000a4b2d8f0d5ab070a4a886d4d742269462b
:1045100078fea238f70f694fbf9b953876e7924532
:10452000ff0fffda7c27e8b5c9d5af0f388763ca1c
:1045300017f9e77607460a8485dfe373ac57a7547b
:1045400089f354f697c2d758c68374ca9f1574b7b7
:1045500023caba109461c29f9f5aca52890457b4a1
:104560001a1b44d541c0cfaa9ceb9a7d3f38722ece
:104570008bf38467dc8ed6dbd9578ac651e7038f6d
:1045800015675440999de9bc470b97a212e6f417b2
:10459000ab3f11f24169f8915163f53ae711857b20
:1045a0006a7fdc57c9b0949e6f520d03c7497230c1
:1045b000d7d4c17ddaf7b526640a597c57edb43eed
:1045c0007f4148dbb19ee5b78ccc7b3353d26fb7cc
:1045d000856da75aa50b936743973d73cc266f84cf
:1045e000bb074de6a73cf7e3f2a4e12d4113ade88c
:1045f0008d0d696a5adc4bc90e006a213f06efa097
:104600005db412f30163482dc4fdfe77ad19c413e8
:10461000697dcccc5d95935f3ff84a7001f36142b0
:10462000304e2ef3c972451de1084df682cf9493aa
:104630001100db78061ea5b8059083a40b11dee5fa
:10464000988c19df81bd5d97eedda5bbfcdcf4c75e
:10465000059eb205de8e851e6a53b4f8579d601d17
:104660004205f1de6bbc71e6edfe183b75f1392cad
:10467000e6d821699fd87f2968c18291acbe6227a4
:104680003bd12356c233abb2b5df539279d8a05693
:10469000a19db0defda3f33916a5c4c1d8945c3842
:1046a000739d45a802b54b0638c1abc3ed2e6c25f2
:1046b000983291e84436c8883d6423007766aea0fe
:1046c000af77b9de8d1b92486a831abbfc9f2d6ab7
:1046d000ab470c98279c4b73578ec4ad201c9f9af8
:1046e000e8bc704422f9fa73b34e688f2ce8f21dcf
:1046f000a33ece04224323f7fb4edddfa798bf3550
:1047000039b26dc66fd4a18eb020df58081b635d2f
:104710007b884cba2bc7218eec23baf94ea5a07129
:10472000038b41878904e51ec492515633e14ae563
:104730009c814b9cf40f9f0d9285cf245d4e9e85ee
:10474000c3a3dbf3189592ae6a53737554f495893d
:10475000ad3fd63e92e22d4035e0dff52907f75414
:10476000a4a97fff8f84624bb2db4ef75c2251da43
:10477000b4f976af4aeb1425dda08b3254baa2ba55
:10478000883f29263fbebcc79a98893d5294032092
:104790001825cba973ce5cdb1c2e819c1eb2faf9c6
:1047a000053540700c7f30049184b4ed1aa84dbedd
:1047b000d3ec5e8cd49b48a0f961140ac3138d57c7
:1047c000a765510f3c7f28220268945a95931b9449
:1047d000d32af8fc0764182c3b020750beb8686a5d
:1047e000bf350b62455ec3a6c663f72a687714948b
:1047f0005d0572b804260bbaa3428ae939d1ba9191
:10480000c3e67dcd006b536e61210c8420c01e7801
:10481000f88a6d43290ac22aa5d0c522592c7d1ecb
:1048200078a3fb1e3e19ea35b480ce6f0da84fd990
:104830006ae32c6d563c3c265015d181d3e505f931
:104840002af44eb33700da53770e21f51c4c2f149f
:10485000b011a991b25f97fbd4a7d42808fcc1d7a7
:1048600011b04c59c981f8f67d9c76fb4dd241526e
:10487000748679891bed608f3a838802e0944899a9
:10488000379bcad71e1d651b5db9d779d9b6d94ddf
:10489000336c7dc74b54afe2881c62e7966fb52836
:1048a0007cf3872a6990cd4580471194a0f6af37f5
:1048b000f6eb00db574ce235e710c74992ac20f32a
:1048c000e5831cea4227ad30444190a77779f62171
:1048d000bd83b396b6d12e4e8ea17784eb9b4bca87
:1048e0003691990c4f42dde6f39ba304a8ba4fcb57
:1048f000947967d266c0fadba33b838a4e54743640
:10490000803febd8e6e62ad65b1b9d35fe049ecaa7
:10491000e45b7cfb4b3b3ede7d3239045d78000a74
:104920002e8db152af70b6d071fb572ffc6395ad91
:1049300098b4ec5917212c716088882084a9353de2
:104940009066b360fecc92a6de5f5f989800af657c
:10495000a4cc03d64235885029c35e4c0e0d0dd22f
:10496000dc3b3761e10aa91bbd19307eaf236fec38
:1049700004d6698182a5d9c6a37ad62a2072a44c0e
:104980009aef95855eea8f60c075d5d8b21d834acf
:10499000c57c9e70f3345b6830f8e8326124965d24
:1049a000887eb9e69f6ce76cb5fc16a5da2a0de1a6
:1049b0006305277ff7fa86b15b0c86545f91b903d4
:1049c000e0e3a66f7db6795a293201525890998555
:1049d0002e34d3ac015a2ae66d166d73ec8b9e967d
:1049e0008e27607c9b41ee80ab56f990131b2272a0
:1049f000c796ed8b220839f8c99831f11b1977bb9e
:104a0000d736f9883872d0168b8a45b1236057960d
:104a10002cdb2d22f231d9fef20d42e1675dfbdc89
:104a2000fd4b1c702ec696c17ab67a5cbd36b30fac
:104a300083ecc04c5753013f9469c018b66d109574
:104a4000c4c9a49703f4802b6ae157a84f9dd8925c
:104a50005ec77e9d564cde9d11fbcd1c767feeee33
:104a60007f014f5a6cff0c35a27873dc597a77229c
:104a7000c1a937d801908cd9549797c41626f7143a
:104a8000a91c36440cf50e5758f884ab45b0597f35
:104a90000cefe4020bbf3d7c2c95919c81faa35f47
:104aa000d4dd0e13a92a0b78ba85b4dccee3152722
:104ab000ba6b447a386c3ca9077e00dd9700987c7d
:104ac0002d948f1aa231babae7f03fbfc0ac0a1ecc
:104ad000719f8eeb0f9811df4a9523b78994e59566
:104ae00097b00aecc289f43474de0d1298a02eb28d
:104af00004a1262e366db6853b3cd708ddb1f656af
:104b0000ec114037fd869b73228951f960846dbc9e
:104b10001fa5483c194fe67ddac4f81a428a3af3d9
:104b2000b5ff2ba0fe862685720aa9451d7e9c3501
:104b30009a58e48f976b6db3db93b6c3cecbc66048
:104b40001f9b584a68c4fea4278519680b8fedea9d
:104b5000fa2085321ea4399110f2c56a12d49cb68f
:104b600081f876f59a688eaf26d92b1d217a4253ab
:104b7000907c0b97dd7d7e70cc2306fff52223c44d
:104b800032aa9d4651b084c7f206a42285ea0500e8
:104b90004b07ecb1480a76eacdd84cc9132a06b7c0
:104ba0004c49046937f505d7bfabd33797a9a82a75
:104bb00092668eba07342212a5d71d3f1698b3bd50
:104bc000f17340882edfe59631097aeac35f580019
:104bd0003c597d0d8c4ef92d4a81c6e32189cd4883
:104be000afe9e3e0230f3c791e1efe82972fd6fb30
:104bf0009af62dceaf619cbc642269893cad1b49fd
:104c000081ffe792f6baa7f97653f5e4b01051ceda
:104c1000169af82757239d2105e2e5eab1aa0bc4ad
:104c20001073b05e0ad1a625921848ce1b4faca6d1
:104c3000996de3aff800a9687299055984811e2225
:104c40004c9b1a4b824d8156ff09e175418cc31a6a
:104c50001cd9da8b28b1d1d888cc981e4350f0de0d
:104c600080c23ceaa97a61b5799c85f2df67a90820
:104c7000f893dc5ba639db5ecde335353c1cf3cf26
:104c8000e54f65778036d00f58353445d48e6a1f8e
:104c90000f27ab1b8feeecccd6a1854cb439055c4d
:104ca00024d018a6c87affd7247519817763d3f763
:104cb000a42730d0ee83d87ce67b868f6b5b383bb5
:104cc0001e117ed91df7abdb3d9df13532663ac82a
:104cd000133bdaccb8036144ba83b4562561c67875
:104ce0006e1a79e9721fd70f8f649a9d0f462db9fe
:104cf00071c79f6145aa10b976bd129a7821828f3b
:104d00007dbc30decd46fe50db42099859768d5f82
:104d1000059357eef3f5b485e597a761dcdf99c6f7
:104d20001f197e4aefb4461e75baa8740bdffa5eef
:104d300074fedb62ace356992cfa7a8a20423f2b50
:104d4000c08797f9bec7f2b92b20e63aa3fff70850
:104d5000cd16bae53251459cf66e78792aafa1adf1
:104d60008b9eefbd4fb9fd036ef30669b5081cdbe2
:104d70009b1b702960a65be19e9b83ea8243fd73c7
:104d80003c4530dfa68e43f102bb90b6e64ec1da59
:104d900076606b2e8942d69b135da328e17a16a814
:104da000640056192109ef7540b04459d9e180cb10
:104db000f5f0697330418b23f5afe2b282ec9cbe13
:104dc00066b81af0f667071b1a1f1dafb5094fb377
:104dd000f6c33fdc947bd6ebc7c64e764e9a058968
:104de000d03674b5523d69286fa8949475751cad82
:104df0008b5206aefa64b2d0943ac8305783774dde
:104e0000a353ad9a4803c4f9ba41304a308520779c
:104e1000c100c4cd6cd497c2af4a8996381f3fcc2d
:104e2000da98cdc6270a1d5ace6230b56d008ca423
:104e3000c96bcb4df039ebbfeaa041a35b64f442f0
:104e40007f6af6ba4a2819ca7f4145a3546d074eb6
:104e5000193ee7ad6f5233daf3fb8b25c3897942f4
:104e6000ece5990c160e216fe4f756d6a7a4ae36e2
:104e7000ad6fdc7f29b21ac31784fedd53162706f7
:104e80004bf9f7c28473f046f2fbfd563bf8321241
:104e90003de4f06e8d22f283f9d8efaeaf76bd53cc
:104ea000be07a7bf0cd96fd618e96ef37a15e94192
:104eb000e05773b535ecbb41051976a1b0ddac7c8c
:104ec0002c73cddbbdac4cbf17b9f6e1d83eed3c41
:104ed0000c0318cc9db06db1b901f1f087cc6472b0
:104ee000dda2bdc6b59974a7bca8827287127002f4
:104ef000e694c99dfe7cc28143ebb0347c9e621572
:104f0000b457b2c71b153355778ff9f2a8c4b6b59d
:104f1000a13c1b6a54d4018a4218763987b5950c96
:104f20004716e5f95e4e02dbcf9fa6eb218c08e227
:104f30004bfffaa162c3ae9acdaedb71a595322bc1
:104f4000c4dd7e40d5e4e38537a71c89e9710ebd39
:104f50003d4de4ad5c78571243f4cef16ccdb28296
:104f60003d78fdce997c6fac20d42b2add1b907f41
:104f7000937847ee5153b8aa51e49ba2ca7e0664c7
:104f8000d9e53b4d4ac8d13bd6a7f14c6067ebcc85
:104f900093d71e5a327de312da14a9e64a5ccb5647
:104fa000df469e0f966a7b5affa729a80ac8dda193
:104fb000cf0d5d8b72cb233460e0b52d0d91cae42b
:104fc00047c821d6cc09060b525b52fac198aaa158
:104fd000478c8b862d9a55993c869d4478a8951ec2
:104fe00016188793330e2b641cb054770df982aedc
:104ff000343e0db3ca017107dbdcf50bf8e1e06963
:10500000c246b54eaf966207bf5adeb4fbd0a5fece
:10501000b70196e70340bdd3abdf3180589bfae67a
:105020006211631bba67d24a65241860f0d3642703
:1050300001055d7e498a4c129010c060d970686e7f
:10504000603d2deba85c3ce6cbf018209fd0865d40
:105050005e474675509931f6beb94b0dda2b875530
:105060004854caadf596a4496bef80931b061dbb4f
:10507000e71c53faf69eb0ddf6befcc8a430166cf1
:10508000b6912f3887dad9e213d92ec655301ed003
:1050900055b42a5903bfbb87c13198cae1dafb79fd
:1050a000f4f480340ae0778bacb2cb3ebda7d823b2
:1050b000cdc91207eb469c205a0dd9831cb1a9dd3e
:1050c00009a7c3375ba09cbfdb5e0fdb2d3a091439
:1050d0008f158c0a304aa901a0009e68258909080d
:1050e000b419c8b351f4c9017d26800f158584fc1d
:1050f0005813c23f434ebe97b081895eec0e0687bf
:105100002078cd71f3b0971da0ecc52192f6aad7f7
:10511000011faacaf06fc451e4ff5610bf862a755a
:10512000f7cabff7edc762476f6e10db9746a58dd4
:10513000ed5c3f1b15dfc329e8cbe831fa0d61e4d4
:105140008b4eb4933d5e5d54249663d5437ed76efb
:10515000f1aba4d38e7645e2f6c8d9e112a03ddecc
:1051600088004d091e72a438b7b86c02593d4c0036
:105170007cce82df8531fc6e9062aa814ce44f9632
:10518000daa21f998ef8cbaf87b7fa70667b81b52c
