:020000040000fa
:10000000e8ff0020090400007104000071040000f2
:10001000710400007104000071040000710400000c
:1000200071040000710400007104000071040000fc
:1000300071040000710400007104000071040000ec
:1000400071040000710400007104000071040000dc
:1004000006000000000000001049086800281bd00a
:100410000f4a90470d490868002815d00d4a012061
:1004200010600d4a11600d49012008600c4a00203f
:100430001060082008600b4a10684008fcd2054a8a
:10044000002010600848004708480047fc41e00fc2
:10045000ef05000008000e4010000e400c000e409a
:1004600018000e401c000e40710400009d040000a6
:10047000bff34f8f054906480860bff34f8f05490a
:1004800005480860bff34f8ffee7000000500e40a4
:10049000444400000ced00e00400fa0500b5444ab5
:1004a0004448801a91b020f0030000231446834290
:1004b000414a03d0d158e1500433f8e73f4940485e
:1004c000401a134420f003000022824203d000248b
:1004d0008c500432f9e73b493b4c641a24f0030486
:1004e0000022a24203d0985888500432f9e7374ad4
:1004f0003749891a21f0030100238b4207d00020dd
:10050000d0500433f9e7d3f89020940705d4314b49
:10051000d3f84021d501fad4f5e72f4a5468516841
:1005200021f0407141f0807151602c4a1d69d2f870
:10053000b0201a6101f0dafc01f030fc00f056f84e
:1005400000f09cfb00f06cfe00f098f908b100f0a0
:1005500085fa204bd3f84021d001fad4d3f890206b
:100560009107f6d51d611b4bd3f84021d201fad477
:10057000d3f890309b07f6d5174b01215c60684695
:1005800000f050fc009801a900f0fafb20b9039b91
:10059000134843f001039847bff34f8f114a124ba2
:1005a000d16801f4e0610b43d360bff34f8ffee7e6
:1005b0000000002020010020f02200002001002087
:1005c0002802002000040020080400200c04002061
:1005d0005827002000400e4000000e40b081e00f80
:1005e0009021000000ed00e00400fa05704770471c
:1005f0000020704703207047032070470320704796
:100600000020704703207047054b5a6842f01002e3
:100610005a6003f5a04344f244421a60704700bf99
:1006200000000e4010b500231a464ff0ff31c45ca5
:100630008c4218bf00220132042a04d00133102b4f
:1006400003d02146f3e7002010bd012010bd0000bb
:1006500008b501f071f8bff34f8f054a054bd1681b
:1006600001f4e0610b43d360bff34f8ffee700bf9f
:1006700000ed00e00400fa051fb5436a994202d379
:100680004ff0ff301ee0c269531c1ad0036b994231
:1006900004d2013b591a8369585c13e0cb1a0b4909
:1006a00000208de803000a49013a0868d21a0df1ca
:1006b0000f01012300f0e1fb0028e1d19df80f00bc
:1006c00000e0002005b05df804fb00bfa08601003b
:1006d0006414002038b5026a836a9a42044602d341
:1006e0004ff0ff3038bdc36a0f2b11d90c48616938
:1006f000102200f0e3fd05460028f1d11023206907
:100700000749224601f00cfc6369e562103363611e
:10071000236a01332362e36a5a1ce262e05c38bd5b
:1007200058170020f7b5134b134e05461446002208
:100730008de80c0030682a4623460f4600f00cfc7a
:1007400008b1002013e00d4b0090019330680c4974
:100750003a46234600f091fb0028f2d1284608498a
:10076000224601f0b5fcd0f1010038bf002003b0f3
:10077000f0bd00bf20a1070064140020a086010086
:1007800058170020c369013310b5044616d0036b17
:100790008269581c2063d154626b236b93420dd342
:1007a000a069e169fff7beff10b9a36b0133a36332
:1007b000e269636b1344e36100232363636a0133db
:1007c0006362002010bd0000f0b51e46244b9fb0b0
:1007d00007460c4618686946154600f0d1fa20b164
:1007e0006b1c36d14ff480530493049b1d4914971e
:1007f000b3f5805f84bf4ff4805304931a4b139377
:100800001a4b1593236819934ff0ff3300221a9364
:10081000049b179218921b921c931d92144b154a1d
:1008200016950fa801f0f4f9134a1d9b116819449d
:10083000116080b91b9820b10fa8ff21fff7a2ff1c
:10084000f8e7189ab24208d8169b013306d0226006
:1008500004e0082002e0052000e006201fb0f0bd03
:100860006414002085070000241400201c040020cc
:1008700079060000d50600001c1400202de9f04f79
:10088000544b554a554e1360803391b03360544bee
:1008900000220df113001a6000f02afc002840f03d
:1008a00095809df813305a1e012a40f28f80052b47
:1008b00000f08c8009a800f0d9fe002840f0868066
:1008c0000d9b002b40f082800e9c621c7ed1fff7b6
:1008d0009bfe9df81330032b08bf022002d0042b8f
:1008e00002d10320fff7b4fe3e4b3f4f3f4d202186
:1008f00019600b9ba3f1300038603d483022026044
:100900002a603c4a402010603b4a3c48403b136010
:10091000102200f0d3fc002858d12d68d7f800a091
:10092000d6f800900395054609eb451000f054fffa
:10093000baf5805fddf80cb094bf0027012756465a
:100940005eb1b6f5805f34bfb0464ff480582c4896
:100950005946424600f0b2fc58b105a8274910227a
:1009600001f0b6fb002808bf2c4601351c2ddbd159
:1009700011e0b6eb0806c34402d1022f08bf0327db
:100980000197cdf80080002005a910221c4b01f032
:1009900007fa0227d4e7631c10d009eb4419484634
:1009a000fff740fe40b109f11000fff73bfe0028c1
:1009b00008bf4ff0ff3401e04ff0ff34114b1c60d3
:1009c000013408bf04208dd0012000e0002011b0c8
:1009d000bde8f08f003800000c04002070140020e7
:1009e0001c14002068140020741400206c140020d3
:1009f00010040020140400201804002054140020c7
:100a0000581700202014002070b5124e94b00546ef
:100a100001243068039405a900f0b2f9a8b9b5b172
:100a20000a9b0490013d5b421d40049bab424ff08a
:100a300001000dd8084b03900093306804a903aa65
:100a4000002300f0e0fa0028efd0002000e020466c
:100a500014b070bd6414002040420f002de9f04f27
:100a6000734b74481968c3b0102200f027fc0028ab
:100a700040f0db80704b71481968714b6d4a1b6800
:100a800003eb4111103100f092fe6e4bd3f8008061
:100a90006d4b1e68002e44d003a84146102208f179
:100aa000100900f00bfc002837d10f2e37d9049b1a
:100ab00003f11002964232d3069a002a2fd15f4ddd
:100ac00002930fcd18ac0fc40fcd0fc495e80f00e3
:100ad00084e80f005d4c0398206024a900f050f9d1
:100ae000002835d133a8259f00f0c0fd60bb9df8dc
:100af000e430f3b1484602a94ff0ff323b46fff71e
:100b000063fe834670b92368dff840a1013300f02b
:100b100087803846fff778fff0b9082002e0072009
:100b200000e030464a4b1b68002b18bf0120fff73e
:100b30008ffd9df8ca30022bdcd1359b203fff1a78
:100b4000299b5a421740d5e74ff0ff332360d1e786
:100b50004ff0ff372760cde718ad0fcd374c0fc4ee
:100b60000fcd0fc495e80f0084e80f00484602a996
:100b70005a463b46fff728fe0028d3d19df8c930de
:100b8000002b4dd011a800f071fd139bdaf8000086
:100b90000990203b0793bdf85030adf820309df808
:100ba00052308df822309df853308df823309df867
:100bb00014308df828309df815308df829309df8c7
:100bc00016308df82a309df817308df82b3033a968
:100bd000029b0b9300f0d4f810bb349b232b1fd93e
:100be0001c4bdaf8000001228de80c000ca9102241
:100bf000142300f042f998b90cab11aa934204d225
:100c000013f8012bff2af8d00ae009d107a8102118
:100c10001422fff787fd18b90d4b1a6801321a60cc
:100c2000049b10339844f61a34e743b0bde8f08fc4
:100c30001004002078140020201400202414002028
:100c400070140020140400201804002064140020f4
:100c50001c140020a0860100074b014603f180020e
:100c600018469b688b4205d000f110039342f7d1e0
:100c70004ff0ff30704700bf0038000010b501f0a2
:100c8000e3f90446fff7b4fc002c18bf204610bd62
:100c9000e0b51d460f461646fff7deff431c0fd09a
:100ca000436872199a420dd8c368016813f0020fa5
:100cb0000ad1384631442a46bde8e04001f0d0b9b7
:100cc0000520e0bd0420e0bd384631442a46fff748
:100cd00091fce0bd70b51d460c461646fff7bcff03
:100ce000431c0fd0436862199a420dd8c36800684c
:100cf00013f0020f0ad1204431462a46bde8704065
:100d000001f016ba052070bd042070bd20443146a4
:100d10002a46fff771fc70bd73b50e461546fff706
:100d20009bff326803681344421c0446019308d0b9
:100d30004db1c3689b070dd401a8294601f0f0f915
:100d400002e0052000e004202268019b9b1a33602a
:100d500002b070bd01a82946fff750fcf4e708b5c2
:100d6000fff77aff421c05d0c3689b0704d5fff745
:100d700047fc08bd002008bdbde8084001f07ab975
:100d8000f0b58db00c46fff767ff421c054606d054
:100d9000c3689b0705d501a8fff734fc04e00520d4
:100da00026e001a801f068f9ab6823606b68636016
:100db0002b68a360074601ae04f10c030df12c0c67
:100dc000324603ca624518605960164603f10803ab
:100dd000f6d110681860eb68c3f3400284f838203d
:100de00003f001029b0884f8392084f83a30384631
:100df0000db0f0bd30b50023094c04eb0314dab29a
:100e0000a468651c09d00d78954288bf40f823403e
:100e100001330132082bd2b2eed10a7030bd00bfcf
:100e200000380000f0b599b008238df803304ff07a
:100e3000ff33036005460f4601a80df10301fff7dc
:100e4000d9ff00249df80330e6b2b34212d918aba3
:100e500003eb860609a956f85c0cfff791ff38b939
:100e60009df85e30bb4203d156f85c3c2b6002e03b
:100e70000134e7e7012019b0f0bd2de9f04f91b042
:100e8000894601a9804692469b46fff779ffe8b95b
:100e90009df868600e9f1b9c0136bc4238bf3c46e3
:100ea000f6b24046494652465b46fff7f1fe05461c
:100eb00038b94046fff753ffe41b10b1002cf8d1be
:100ec0000625013e16f0ff06ebd1284611b0bde81d
:100ed000f08f000030b589b005460c46fff7bcfe28
:100ee000431c33d0c368d90701d401202fe0194b2c
:100ef00001228de80c00284603a910221423fff7d5
:100f0000bcff20bb039b002befd013f00f00ecd1f4
:100f1000059a0132e9d09df81850ff2de5d09df8d3
:100f20001910ff29e1d09df81a20ff2addd02033c7
:100f30002360bdf81030a3809df81230a3719df896
:100f40001b30e57121726272a37200e0052009b0c6
:100f500030bd00bfa08601002de9f04f95b00c46d2
:100f60001d4605a99df87830019092460393fff73e
:100f700007ff0746002842d1ddf848901f9b4b45ec
:100f800038bf4b460293002d39d0099bddf80c8009
:100f9000029ec3f1000c04ea0c0c9c442b1963451f
:100fa0008cbfc4eb0c0bab465b4601982146524606
:100fb000fff790fe034660b901980093fff7cffe5c
:100fc0004e45009b14d3c9eb060610b1002ef3d199
:100fd000062308f1ff32b8f1000f01d09046e3e795
:100fe00023b95c44da44cbeb0505cce71f4606e0a9
:100ff00000284ff000060cbf33460623e9e73846c9
:1010000015b0bde8f08f2de9f04790b0894601a9f1
:10101000804692461e46fff7b3fed0b90e9f189c3d
:101020000136bc4238bf3c46f6b2404649465246bd
:10103000fff772fe054638b94046fff790fee41b05
:1010400010b1002cf8d10625013e16f0ff06ecd1b8
:10105000284610b0bde8f087044a00231370044a04
:101060001360044a1360044a13707047a001002003
:10107000c001002020010020bc01002030b5174b2a
:1010800091b0186801a9fff77bfe28bb144a059ba5
:101090001360144b144c1b78144a02991bb10020a6
:1010a0002060116018e0039800f110030069002827
:1010b000f5d010f00f00f2d19d680135efd01d7b07
:1010c000ff2decd05d7bff2de9d09d7bff2de6d081
:1010d0001b692360cb1a136011b030bdc80100201a
:1010e000b8010020b401002094010020d0010020ac
:1010f0002de9f04f3f4e89b033780390002b6ed12d
:10110000052333703c4b1b78002b6ad13b4bdff837
:1011100004a13b4c0194012700971a68daf80000fb
:1011200004a91023fff7a9fe054600285ad1354827
:1011300004a9102200f0ccff08b102234de0dff833
:10114000d890dff8d88000970194daf80000d8f83a
:10115000002049461023fff790fe0546002841d1a4
:10116000d9f80040284ba4f140029a4201d8210747
:1011700001d0032331e0d8f800304ff6ff78c4ebfc
:10118000030b1f4bdaf8000020490022702c34bffb
:10119000274670278de80c005a463b46fff76dfe48
:1011a00088b9bb44e41b0346184a4046d15c02930d
:1011b00000f036fb029b0133bb428046f4d3002c87
:1011c000dfd1034601e04ff6ff73114ab9f80480fe
:1011d0001360434514bf04230623337002e0002547
:1011e00000e007253378039a2846137009b0bde85c
:1011f000f08f00bfb5010020a0010020c401002035
:10120000a086010041210000c0ff0f002401002042
:1012100098010020c8010020a40100209c010020aa
:1012200038b51d4c1d4d20460421fff7fbfd30b99c
:101230002368013303d01a4b01221a700ae0164cbe
:1012400002212046fff7eefd40b92368013305d0a7
:10125000134b1870fff712ff044618b105232b70cb
:10126000012416e00f4b104a1b6812680f491a44fc
:10127000a2f1100008600e49203a0a600d49d31a05
:101280000b60fff7e9fe0c4b04481c602c70fff765
:101290002fff204638bd00bfc8010020b501002047
:1012a000b401002094010020d0010020c4010020de
:1012b0009c010020cc010020980100202de9f3477b
:1012c000324b0c461b783249154606460a68894659
:1012d000002b52d12f49097806294ed12032944251
:1012e0004dd2121baa424ad3002848d01f2c31d815
:1012f0000093dff8b480284b284fdff8a8a0cdf882
:1013000004a01a68d8f8000039461023fff7b5fd8d
:10131000002837d18de80104214bd8f800001a6865
:1013200007f110011023fff7a8fd58bb4ff0004351
:10133000c4f12008a84528bfa846bb614ff0ff3381
:1013400030463919fb61424600f0d1fe4444c8ebf7
:1013500005054644adb1124b1a68d9f80030203a61
:10136000d21a104b00218de80a000f4b3146186845
:1013700022442b46fff781fd04e0072002e0042011
:1013800000e0284602b0bde8f08700bfa0010020c1
:10139000a4010020b5010020c40100202401002088
:1013a0009c010020a0860100c8010020f0b51a4d64
:1013b00095b0044605a92868fff7e2fc174b1a7898
:1013c000012a1e4624d0164b0a9a1f68154b1b682b
:1013d000524213400f3703931740039bbb420ed872
:1013e0000123049304b1a0470f4b0093286803a97d
:1013f00004aa0023fff707fe0028eed009e00b4bfc
:1014000000241c6001233370fff726fe204600e015
:10141000002015b0f0bd00bfc8010020b5010020bc
:10142000c40100209401002040420f0098010020d8
:101430006f2838b504460d4601d8012038bd030792
:10144000fbd1094b1b689842f7d81046fff7aeff57
:101450000028f2d1054b01221a70054b1860054b8c
:101460001c60054b1d7038bdd0010020a00100207c
:10147000c001002020010020bc0100202de9f04f18
:1014800015466d4a1c46137885b0064688461bb93a
:10149000fff7e2fd03230ee0684f3a689042ba4638
:1014a00003d0fff7d9fd0426c1e015f0030c05d0e9
:1014b000fff7d2fd052323700426b9e0702df7d87d
:1014c0005f4ad2f800b05845ebd8c0eb0b02aa42f5
:1014d000eed319b9fff7c0fd0723ece7012b6bd161
:1014e000584b0293c0f12009a94528bfa9461818f6
:1014f0004e444a46cdf80cc000f0f9fd1f2e3e6068
:10150000029bddf80cc003d884f800c066468fe06b
:1015100018464d490293102200f0dafd029b18b1e3
:10152000fff79afd06237ce01b69484a454fa3f16b
:1015300040019142f4d81907f2d1ba6932f0004261
:10154000eed1f9690131ebd120339b45e8d14ff061
:101550000043bb613e4bdff80cc11b78bb753d4bb4
:10156000dff804b11a703c4b0092cdf804c0196842
:10157000dbf80000cdf80cc03a461023fff7ecfc76
:10158000ddf80cc0002833d18de80110334bdbf8b7
:101590000000196810373a461023fff7ddfc38bb0e
:1015a00097e80f00dff8b8c08ce80f00224a02234a
:1015b0001370c9eb0505c84415b925702e4637e0f0
:1015c00041462a461f4800f092fd244b1968244bdf
:1015d0001b682039c91a234b00228de80c00224bce
:1015e000184a186831442b46fff7b6fc064608b186
:1015f000082316e0daf80030114a164f1d4413682c
:1016000038709d42caf8005011d1fff725fd3846c9
:101610003e70fff76dfd064610b93b78062b03d0f0
:1016200002232370012603e00123237000e02670cb
:10163000304605b0bde8f08fa0010020c0010020b9
:10164000200100202401002041210000c0ff0f00e4
:10165000bc010020b5010020c40100209c01002035
:10166000a401002020a10700c801002030b5164dbc
:10167000044691b0fff702fd2b682360134b1a68f4
:101680002032a2609a88a2819a79a2739a68226114
:10169000da68db79e3730e4b62611b7823760d4bbe
:1016a00001a91868fff76cfb10b14ff0ff3307e09a
:1016b0000a9b0d9a29681a44069bb1fbf3f3534326
:1016c000636011b030bd00bfd0010020a401002034
:1016d000b4010020c801002070b5134b88b00df193
:1016e0000f001d68fff704fd0446c8b99df80f30d0
:1016f000062b15d10d4b9a689ab10fcb08ae06e9af
:101700000f0032460a4b42f8084d0193094b0094f2
:10171000186805f108010423fff71efc044600e0e9
:101720000724204608b070bd9c010020a4010020c1
:1017300020a10700c801002070b50f4b1c680f4b9b
:10174000da680132054686b018bf072011d10fcbe9
:1017500006ae06e90f000a4b3246002142f8045d4e
:101760008de80a00074b04f10c0118680423fff709
:10177000f3fb06b070bd00bf9c010020a401002057
:1017800020a10700c801002010b50f230022cc5c67
:1017900042ea4402c254ca5c13f1ff334fead21248
:1017a000f5d21ab1c37b83f08703c37310bd30b584
:1017b000034601f1100451f8045b43f8045ba142b5
:1017c000f9d1103002f1100352f8041b40f8041b49
:1017d0009a42f9d130bd000030b50d4c0d4d85b0a9
:1017e00001462a462046fff7e2ff29460a4d6a468f
:1017f0001023204600f094fb284604f12001fff757
:10180000c3ff06482946fff7bfff05b030bd00bf44
:10181000f40100209c210000d4010020e4010020fc
:1018200040ba83b25940c1f303134b4083ea0333f8
:101830009bb2d8b283ea40107047f0b5036889b014
:10184000002500245c530235202dfad1944208da99
:1018500031f9145033f81560013623f8156001345e
:10186000f4e7b3f9004094422ed0002501245e191c
:10187000b6f90260d6eb440428d402351e2df6d109
:101880000025adf8025000ae2e445f190235b7f8be
:1018900002c077881c2d6744b780f4d1002393429f
:1018a00014da31f813606eb108ad36b205eb4606b6
:1018b000476836f8205c05f1010c2db226f820cce3
:1018c00027f815300133eae7002000e0204609b090
:1018d000f0bd70b5056904460e466369b34210da7f
:1018e000a36820689847002804da04f11800012151
:1018f00000f00cfc6369c2b29a400833154363617f
:10190000ebe7012025fa06f29b1b00fa06f6701e93
:1019100022616361284070bd2de9f84f04460a68d2
:101920000069636900268a4602f102083746b1461b
:10193000012523b300f00102b8f900c042ea090210
:1019400008f10201cceb0208b8454fea50000dda6d
:10195000636920615b1b03f00703d71b63613e448f
:10196000daf8043033f91600bde8f88f6744013b1c
:1019700066447f004fea420901358846d9e7d5f130
:10198000100b10d0a26820689047002804da04f1f8
:101990001800012100f0bafbc0b2bbf1080fb4bfc0
:1019a0005b460823c5e76ff00900bde8f88f00002b
:1019b0002de9f84304460f46904639462046fff786
:1019c000abff011e49dbff290adc6568002df4d05e
:1019d0002068c9b2a8470028efda0120bde8f883e3
:1019e000b1f5807f02d10020bde8f8836ff48073e9
:1019f000cb181c2b34dc204a32f913601f4a2046d6
:101a000032f91310fff765ff414606442046fff701
:101a100083ff051e28db1a4b33f91590194b20461e
:101a200033f91510fff755ff6368814493b9b5f595
:101a3000807fc2d1d7e709f1ff31e368206898477a
:101a4000011e14db94e80900c9b29847002806f18a
:101a5000ff36c2db002eeed1e9e70846bde8f88389
:101a60006ff00900bde8f8832846bde8f8836ff001
:101a70000a00bde8f88300bf842200004a2200006b
:101a8000ac210000e82100002de9f047adf5a86d7c
:101a900004ab009323ab01930cab0293052114ab71
:101aa00005460393fff715ff052100f201172846ad
:101ab000fff70fff042100f101082846fff709ff97
:101ac000b7f58f7f00f1040900f38880b8f11e0f8d
:101ad00000f3848000264e45b2ac0ada4b4b284610
:101ae000032133f916a0fff7f4fe013624f81a009b
:101af000f1e7122e07dc454b33f91630002224f8ab
:101b000013200136f5e7684621461322fff795febc
:101b1000002866d1064607eb08094e4534da284608
:101b20006946fff7f9fe00286cdb0f2803dc721c06
:101b300024f8160026e010280ad1002e54d0731e77
:101b40002846022134f913a0fff7c3fe03300de04d
:101b50001128284604d10321fff7bbfe033003e020
:101b60000721fff7b6fe0b304ff0000a32184a4546
:101b70003ddc04eb46060023834203d026f813a085
:101b80000133f9e71646c6e7b4f9003293b3684665
:101b900021463a46fff751fe002808d02ddb009b76
:101ba000b3f90020b3f9023013449f4225d102a8b3
:101bb00004eb47014246fff740fe002808d01fdb38
:101bc000029bb3f90020b3f902301344984517d1b2
:101bd0002846694602aafff7ebfe13e06ff0020009
:101be00010e06ff003000de06ff004000ae06ff00a
:101bf000050007e06ff0080004e06ff0060001e068
:101c00006ff007000df5a86dbde8f08724220000f5
:101c1000f0b5adf52f7d0190049307a80023029144
:101c200003920593069300f06bfa002840f0a18020
:101c3000012101a8fff74dfe0221044601a8fff78c
:101c400048fe00283cd105900690039b01989847d8
:101c5000061e01da022087e0039b01989847051ec3
:101c6000f8db039b01989847071ef3db039b019861
:101c700098470028eedb80b2ffb2adb2f6b247ea79
:101c8000002746ea0525ff43adb2bfb2bd4214d1dd
:101c9000029b0bb9002067e0002dfbd0039b01984d
:101ca0009847011ed6db029b0198c9b29847013db7
:101cb0000028adb2f0da012056e06ff0010053e0e9
:101cc00001284cd12e4b1b68002b42d02d4b2e4aa5
:101cd0001a602e4a5a602e4b2e4a1a602e4a5a60bb
:101ce00000231eaa082199520233b3f5907ff8d140
:101cf00000231eaa1a4402330921e02ba2f8201166
:101d0000f7d100230233322b05d0aeaa1a440721a3
:101d100022f8421cf6e700230233122b05d0aeaaac
:101d20001a44082122f8121cf6e716481ea94ff49f
:101d30009072fff782fd00231ea905225a5202333a
:101d40003c2bf9d11e221248fff777fd0c4b0022e5
:101d50001a6001a80b490e4afff72afe04e0022888
:101d600009d101a8fff790fe38b9002c3ff460af0d
:101d700003e0022001e04ff0ff300df52f7df0bdb4
:101d8000000400208814002098140020f41400207f
:101d90009014002034170020b81400207047000071
:101da0002de9f84f07464ff480709a4689469046d1
:101db0000a9d9df82cb000f01df9454801230360f1
:101dc000bff34f8f434e444c00233360736023684e
:101dd000736263687362a3687362e3687362bbf1e2
:101de000010f844638d817b92762676203e03b6861
:101df00023627b6863620023a362e3622ce00a46ed
:101e000016f8011b02f8011ccaeb06079f4202f1fb
:101e10000101f4d34db3314b03f1100753f8041b08
:101e2000da684a402b4943f8042cbb42c1f88020b1
:101e3000f4d105238b600b69264a9b07fbd4d2f8ab
:101e400080302362d2f880306362d2f88030a3629f
:101e5000d2f88030e362b24645b3102d34bf2b4632
:101e60001023ed1a1e495646c9e7bbf1000f02d0f8
:101e7000bbf1030fcfd1d3f110010ad0802313702f
:101e8000002301338b4202d00027d754f9e71549cc
:101e900000e015490023e718ca583869043380ea7e
:101ea000020e102bc7f810e0f5d1b4e7ccf80050c3
:101eb0004ff4807000f0b2f8454506d0631993f8ee
:101ec000203009f805300135f6e7bde8f88f00bf8e
:101ed0000016c84300000f40f40100200402002057
:101ee00005020020e4010020d401002007b50948c4
:101ef000fff772fc084b09499b6c1b0c00209b02ee
:101f00000093019004224ff00053fff749ff03b004
:101f10005df804fb9c210000b081e00f0804002064
:101f20002de9f04104464ff4807017461d460e46d9
:101f300000f060f82d4a01231360bff34f8f2c4b44
:101f4000002119602168596261685962a16859626b
:101f5000e16859629446002d3fd0254b2269c3f8b1
:101f60008020d4f81480c3f88080a169c3f8801061
:101f7000e269c3f880200520986020690130206163
:101f800040b908f10103636123b94b1ca3610bb98c
:101f90000132e261164b186910f00200fad1d3f851
:101fa00080202262d3f880206262d3f88020a2626f
:101fb000d3f88030e362102d34bf2b46102304f198
:101fc0002008ed1a18f80010325c4a403a540130eb
:101fd0009842f7d106440744bde7ccf800504ff4cf
:101fe0008070bde8f04100f019b800bf0016c8438a
:101ff00000000f4072b6074b1a6801321a60064a99
:102000001168084310601a68013a1a601b6803b926
:1020100062b67047541700202402002072b6084ba5
:102020001a6801321a60074a116821ea000010603c
:102030001a68013a1a601b6803b962b6704700bf9c
:102040005417002024020020044b41f671321a6418
:102050009a6822f001029a600020704700000e404a
:1020600010b5eff3108472b600f041f804b962b60f
:10207000002010bd00207047134a70b50346054686
:1020800002f12806144603ccb44218605960224677
:1020900003f10803f6d1206818600c4b9a6c596b59
:1020a0005b6b92b2090e1b0e92020a310a332a6050
:1020b00003f01f03012201f01f0102fa01f19a400f
:1020c0006960aa60002070bdc0220000b081e00fee
:1020d00030b50023934208d0c55c0133cc1814f806
:1020e000014ca542f6d0281b30bd002030bd10b5f4
:1020f0000023934203d0cc5cc4540133f9e710bdf4
:10210000ec46a0e8f05f4ff000007047b0e8f05fe9
:10211000e546080008bf0120704700bf000000002e
:1021200001b40248844601bc604700bf9100002012
:1021300001b40248844601bc604700bf0100002092
:1021400000534352319a933082d9eb0afc3121e398
:1021500037000000f1100000bd120000ad130000b8
:10216000311400007d1400006d160000d916000027
:10217000910c0000d50c0000190d00005f0d00004f
:10218000810d0000f50d0000250e0000d50e0000a9
:102190000600000070210000542100000000000033
:1021a000000000000000000000000000010002002c
:1021b000030004000500070009000d0011001900cc
:1021c00021003100410061008100c1000101810155
:1021d00001020103010401060108010c01100118ac
:1021e00001200130014001600000000000000000fb
:1021f00001000100020002000300030004000400cb
:10220000050005000600060007000700080008009a
:10221000090009000a000a000b000b000c000c006a
:102220000d000d0010001100120000000800070052
:10223000090006000a0005000b0004000c00030062
:102240000d0002000e0001000f0000000000000061
:10225000000000000000000000000100010001007b
:10226000010002000200020002000300030003005c
:10227000030004000400040004000500050005003c
:102280000500000003000400050006000700080028
:1022900009000a000b000d000f00110013001700c9
:1022a0001b001f0023002b0033003b0043005300a2
:1022b000630073008300a300c300e3000201000079
:1022c00000001000000800000008000004000000ea
:1022d00000000000000000000000000052000000ac
:1022e00002a00000ba880000020000000000000008
:1022f00040ea020313f00303f7b5064638d192080b
:10230000eff3108772b61d48846844f001048460be
:1023100093421a4c25d206eb8300c0f30a0c012528
:10232000ccf5006c20614fea9c0ce560d41aa44502
:1023300028bfa44663440024644501eb84000ed00a
:10234000006801900d4de8690007fbd50198a86170
:102350000820e860e869c007fcd40134ece70146d6
:10236000d6e7a36823f00103a3601fb962b601e0ba
:10237000042000e0002003b0f0bd00bf00000e40cc
:1023800070b58cb0044601a80d4600f039f80399e9
:1023900022684b1e13402ed1286800fb01260198ad
:1023a000864228d899421dd00433981850f8040c5e
:1023b0000130f7d0eff3108172b6104b9a6842f0fb
:1023c00001029a6022681a610122da600222da6050
:1023d000d8690a4ac007fbd4936823f001039360cd
:1023e00001b962b62268039b134423602b68013b4a
:1023f0002b60002000e004200cb070bd00000e40f7
:1024000001b40248844601bc604700bf7920000047
:0c241000010000000000000000000000bf
:020000040000fa
:103800000000040000f00300084c7483090000006d
:10381000000000000040000008010010000000004f
:103820000040000000c00300080100000500000087
:1038300000f0070000100000080000200c0000004d
:020000040000fa
:1038800021bbd37575030c0a64664b2496d661324e
:10389000634d84afe8e5b025a27b0fb1834c4da703
:1038a000396503c6b24ac4333c646d941c76033553
:1038b0009587f5f9e82bb22b3e3749e850e321f51f
:020000040006f4
:101a1000b0406b1dc5eaefd7cd5e52f3af6659e318
:101a20003d5c00fc5d9b161e7754586fcde39172b0
:101a30000801000080c3010004003e000000000017
:101a4000294d70280ebad002f164c842637784b180
:101a50000d0b430aed0b090157380e760790aa4e7d
:101a60003b7f06f253f1ab21e800088d9bd17c1c33
:101a7000b3b42bc044fe6cf01694e70e9d4704d31c
:101a800048dbbd31a2048986ad31fb7e6ee8b7d656
:101a900023504f02a4492ff68a0b41c13dec08d3d5
:101aa000a5dd1820346d57368b55ae0ab5fbae3b1d
:101ab0002f4711591736a46d496d230677f00c1284
:101ac000bb634832153d021814628a464f74b191c7
:101ad00079b5ddaa3670c9f208d962de001d2e96ee
:101ae00079e1f4c4c3f342968c96555588f4c178d5
:101af0008854a22ecdca269d22b6496432ea737a52
:101b00006881eda97ae70ce8acc2556488cf08f685
:101b10000a44a5e273da657a2bb8e393200838a269
:101b2000ffaac6d79413a3d92c068015506fb57b96
:101b300066d19ddca704b524481d897bf338fe3ca3
:101b40008e687641ff40a1915f28521fcbb876daac
:101b50004f56fce5ca4d1992755de9d154e73ea692
:101b600018cfddcfd4ad13f76c57b49d89b83eeada
:101b70009ebe7dca04ced0c1c165a58efe18ddf221
:101b800092856157b3e6081b25296b1559ea322463
:101b900031dc0b62ffa1a0f7a8116b5df9b12078d1
:101ba0006b6b739e82294d7438bd1ee7bd8699da32
:101bb000b48dc638484de3479a07259e75d99523bd
:101bc00025d7e334c9a8d796b47203610c6f741b90
:101bd00041944ab4c1c37743d3aa6b81f359b9fe88
:101be000fb693847cf5c6f6490db020b36c7f53b6f
:101bf000a59662995952c09a1497e9f491c155e398
:101c0000a7bbf44a59cacfc6270168f228203380ff
:101c100019ad13e6e747b9d69494087749db340d3c
:101c200050472a5afc7a5fb21f6b4daaab637728e4
:101c3000c8ab5700839b754d64139d7eacdff4c623
:101c40003ea57c666301d21cd0d2ad6d34bdde975b
:101c500003c2ebe87a09835dd8097b8fbc6bc45261
:101c60009ce8643e7b4814be13ec18e02c13590426
:101c700097a20c5d1d438453fa879272229e5eca1e
:101c800077f1c401bf838a287936ec3ea9965a5170
:101c90006be04ace9bf2948a344aca84347992a586
:101ca000c1ec94a4846f63573166d147f40114f1f9
:101cb00013e2b93ace16d383dd519b32d907f79c94
:101cc000f128c80a4939288a745bf77a205362914f
:101cd0005c859d478c554ca397926b1b12ff5d9db5
:101ce000d480088886fb9f452954ee37ee31e8887a
:101cf000de6c2814c5c8965fa8f4e3c1f9a4408a35
:101d0000761e73948ee2474bbc9aef24213d2c2d16
:101d10002bc9daf58a46831683312ba91f44228307
:101d2000e1eb8db06156592402a8dfa8a6a4ace36c
:101d3000ce265cc4496691de3094f5cee61e1fc502
:101d4000a6106664a0330883653b675cc59e2f447c
:101d50008c520a6713bab1f023e5c77a847d6230ea
:101d60003354ffa9212197d3d237baa60619de3002
:101d7000ec47394a6ac20ea7cbc6c9fc8ca1dd5c10
:101d800031d8af54c71c5eaf24b2ef3c529232d868
:101d9000c6eb11a84785dc6a16648107933103b549
:101da000f36c4d991fa97869086de1643051127187
:101db0006ae8fd280ddf1ce2fcc637db156fc28b1d
:101dc000c9cfb5913110fcb24f8dc109dfedb85fbd
:101dd000a49cad578174a49d1d973da466a17ac1b2
:101de000462ce357d589ec478abc52aa9a7fafd6d6
:101df0003dee2e240a78cc76916563f3937858945f
:101e0000041f6aa56bddd9fa015c58124430db2e41
:101e10008099d905d9802dead9af23ae9f23228698
:101e2000e243de3e31cb4d6a126019bd1bd6797e8e
:101e30003cfda766762dd4bffef285a475ea6a2420
:101e4000fc33d3f55ceb530eeb4c62aa86ca3e3ae8
:101e50008ab5dfb41a6496500303e89c719068a4b5
:101e6000ffbaf4c803e6d9f33b5a023424fcc5adeb
:101e7000ab0795a8fc2a75fd1a087b239a4833f90d
:101e8000553e7d1800ee94704df27cbcbeda40b732
:101e90006224f22e90298fd43bbb49a4954f4f1f4b
:101ea000f8c2b308470a89a18524c4989838aa6d56
:101eb000de776fd1c7ccf42be04a870cef38522d78
:101ec000e25df9737990649a21a3e88fdfb7f5d0ca
:101ed000e7af261d37160e4a3081e2794ba9312e25
:101ee000e484f8c13b433167cc04e41634257870b0
:101ef0000408e32b91a89cbf225c6a2c97d1356c17
:101f000039bb2800bbe68b8fb124b5475e613cf539
:101f1000412651de724aa3bbc8fc2870f1d96c7807
:101f200018c3836f3bac56a7cba8182178eea18bc2
:101f3000004f54b427d9fc9866240533232bddc603
:101f4000580b4e7c6820a440c473cc3a31250f4e08
:101f500010afb1d9eba961b0f0ed6ebc959163857e
:101f6000ebaf186e73ff74a6ff50bc6111149abbdf
:101f70007bc6bd7916fd7fa5ef7e5a0ebc2ba3d084
:101f8000a7e98095e3f6c0c0fa3bfa94362e2ac53d
:101f900017b6fab8ec7121f8003d82fc4d1c6218ae
:101fa000860f90b0ac24718dec08c2daea3e3c9802
:101fb000b231982961d1bfe49277b3ffd151aa51d0
:101fc000a17eff755b5a840bd43f90a47adf9cd32b
:101fd0000ad0d5b20a8f82546567f97f369f266e84
:101fe0001a8a5f366a434d69150ada79782c0b75bf
:101ff00082a694c921fa438704960b762938060de8
:10200000712710fa182a442c37c9b8b87ce11edeb3
:102010001f529b87e63ea4f32f797c9b3f9fe46889
:1020200052becddac144bf2a22044a3d8c0424fbaf
:10203000225e45cc58a74ffd5af122efc21dd26e49
:10204000c10f207a1362e22f469964192f3a37079d
:1020500011080c8d100a8803a0fbdd83698a4411e6
:10206000b40871addf60103d3631cde9eaeb97b5cc
:10207000c2ab8b881d9855364f5ce01fc520362fac
:10208000fa58d978cab9a7522d7c221a09c184b945
:1020900049538511758eaa68b196e66e00a435cbba
:1020a000ed6eb7549f98e6829528128997216eb8f5
:1020b00008b38e98e12d0187fa2ac5e77c4603d242
:1020c000cefa72be535adbd5078a931030d1043250
:1020d000bd11d43799ce8a99f73bb560c3349e3a87
:1020e000661d58a6a3b20253574e67b40ab69006af
:1020f000c7354aa9f654ee0833fd14835a9031ffd0
:102100004374838776b90b327db60ec739dcaf8353
:10211000b8286b719ddd7227f5180b4c98ccd03820
:102120005f616429e0794d73ac2e461df2fae07dc3
:102130008800f4b4c3f4326bcd90c2e3fcfdb885e3
:10214000b9a55e5415051c0a8a21b483f6614107be
:102150003a05cc59eb744d1d15e4c4aaa3f40f58ed
:10216000a17bb0c56c0437a70ebaeba73c7095a84d
:10217000a82d80398a761fe8f531a279f5726bc7f0
:10218000c6c27b588330269b020205fa8fa774eee5
:1021900003c6f1933209808db2179fe7e559214eae
:1021a00046bf5d467b3d09adbe58badf94af6ff0c8
:1021b000eaaa43bc577374f6357b1f29e815e54b33
:1021c0008d20e0ec04dcd1fc84af48e857ddf1f46d
:1021d0005805018d913fe9cabb36c74df3205f66b4
:1021e000c987b763eb3347f6f3f9277efaca303075
:1021f000c4339f0bd8816b83ab3f89c36b1d116fb9
:10220000eff9f1e0767355f764afa301ad5081decd
:10221000fe018ef37306ce5206a0b95e34739a2384
:102220003acec6007fc85b6342c598a90ee1537bd6
:10223000821236fb20d24ed448e8e16e44873667de
:1022400021197c8e78dc60c431f6327cd817449733
:1022500057d5b46b050706b12f654d80165bb06f7f
:10226000165fb1ca3b1ca07610634d8dc8a9055cf2
:102270009be67517e7dd6b4051e33c18b9d63e7914
:10228000d41d9d23e944b82c7fa3fd5bce476a058e
:10229000c978c323934a9e786fde47842ab41cff13
:1022a000f0ddf35dfbbdaa030b3dc5dd6af71fb88a
:1022b000c8fb1b60684431e00544bd4dbad5233ae4
:1022c000ac472d77988a4143272fd06969ea593e58
:1022d000685a6dbeac8f9bd768aabf3b2570f16072
:1022e00025bba7571fcd24619ecb117bb6fa718702
:1022f00081189577d9be3503527de2883d1afffcdf
:1023000094df7e837660d127d010fd147f4af1fde3
:10231000f5c84d61f8b1ea188eec95f77d1ea9f568
:102320001435c75c813380ca6f2f045e3fb50d370b
:1023300072a138d0a3cb9df0302c4ba0bf9f53b5da
:1023400052557705382679bc1f81a40fdc705826ba
:1023500075af6b8e0bf1fe162ae7cc463e5f91ed12
:10236000192a12f948497c0182b09885768ed56485
:1023700088b172919d3e6a3e5fe6c92e2337f1fb1c
:10238000db13bfe99e08de556eac2f1720fd37b674
:102390002a0c9611eaffc8fc5252a86664d1f5696e
:1023a000c0a66092c1c0e926d99a3d280caaa5b65c
:1023b00037c102b5f3065c1043d218e224cdd0ab8e
:1023c000c89a818e0470e032fb2b8f1123d19f9e1f
:1023d0001d41ad76679b3bc48bdc01c491349435c1
:1023e000aed4df18c5e807c819abd52d18051d1fd9
:1023f00093b4922a2b93c82f98b9f1b8934ee25018
:1024000078b6374783b41d1217e7061c47f27c875e
:10241000d5f382d7d4320469f0a596e5c495ba35d0
:10242000a3e4001307067c5cb98539e446640a2df1
:1024300081e18f1f30cfc1584ae867d714824c3be7
:10244000890cf25bb4563e7b6571bc7677d05688ba
:1024500071040b3ed8c1bd655c2cfb60b82fc45d18
:10246000e73ddef197b664336911c48896270456b8
:10247000797bcb320d3a5c471437184e591f72b92d
:102480000b8262560a8607ecc49f20ac7279529f79
:1024900008bec800d324940604e46f354773255959
:1024a00067b2e39bf1a7f942b41a6a7a01ea63c4fe
:1024b00009d652c1b6333d045da9e6f40aab071f45
:1024c0008a8b62be3b671cf8fe527bb3157d22ea05
:1024d0005131f54ba676a0758ded90641fbb9247e8
:1024e000136de0eae330dea3440bfb0ac2797c56ad
:1024f000a9b58b8ed1221f64d4fb4ff1ae36d1a08b
:102500004f6c2be5e880cfa6739aeeade89014856a
:102510009c5e3462f86052e071a36c7617f37e75ae
:1025200009c88084da87cc8368cf78d3c396aea5f8
:1025300075bc3d6d5145d59d4f93b48e28d784bc55
:1025400039fbfd6d1d1900c16f2d94a8cd7b19417c
:10255000c77b4e5e24739156eac15603360574ee6e
:102560009e43e18d54c70b8021a7652a79f06b1e2d
:10257000f9088635cdbde74523f6b0e836d458577f
:10258000ac64961fbcaa86d072d6720bc3f251aa55
:102590007e8c61ca01cac77e3f459461259bbe42bd
:1025a000c6431185a79f8f21c80f1cf177a22afb74
:1025b00011c1f016e8e0e734d22e160edb5112906e
:1025c000d6c03e69a74ba2611b69d79cee8fafd9dd
:1025d00067d0ce5db0b99f0c612cb373080b981710
:1025e000790281635a273463f71dd7b32bf3f61aa8
:1025f000f119deddb7db81606a12b825a66a60eaf0
:102600001712e9a8e8d5ae951a9cdbdcc51fed785a
:10261000de1514a3680dd1c3a9f9ce093ec7a4e6ff
:10262000ec38600e37412c754950cd58ca67dbf73e
:102630002599e9f25d02e62803ed81a3c14bb32b96
:10264000214926ef4d62c9c7c930d28d34eb3b58c2
:102650007b405c7e4d65c6907099235b98b53c14b9
:1026600072c4215283d826166343af1c457a69abe6
:1026700095aebe11dbd29b64f165a1800779699ba1
:102680006b548109c26fa9905d78e8607784f85d2a
:10269000d3d0fc7d36a039778d44e929f145ffec94
:1026a000fa96213e725890a2d0d2885c1b2fdc0b88
:1026b0001316802982d1a59e883710773a62f5518a
:1026c0002b2ff9a417c5aa235a2903586836319d20
:1026d000e51555016d3340fd40357fb682fe07821a
:1026e00078234e34b11e3db1d2e8c81534809b4fdb
:1026f00029eb0c74eb9ccebefb8dc81db02c3a951b
:10270000107e925e86d82697723affe6755e19892a
:10271000030fa654e2c35e536b7a9719e4b5805851
:10272000fd5e6ca5378c9159635458fe77de8d534e
:10273000e53807fd8ef1984a7922b56d2c6390c378
:1027400025236e50ebc89edd816c7940237aadc2a3
:1027500093d8cc463a5e88c05259a3ae7d4f0158fb
:10276000900c881858879f0a4c85383e739f764690
:10277000f7e5e3043064bcf0976cb5e08cc407d196
:1027800067b6a0efbb41e67596fd3bdbcaf7e2a951
:10279000831bfc089c66cdc999930ffbe5c5167c8d
:1027a00060fd6f8af5c3028ab9240572af5224dd39
:1027b00085e301697497cb878b507e1eb0216284bc
:1027c000e21644b54358d8babb8097cbbadf5bdd7d
:1027d000225dd59a5ea21649007b0dc55ef43ace05
:1027e000f5cb5f9358bc4da731ea27c739188b6ddd
:1027f000b9c13a4f7d61c14f3ab5dfb6f2d3c1bc22
:10280000897d0d473c4f613fdf9960749a29581fbd
:10281000b3b31a9ef051ae94c45e40c507396d1e25
:102820006fbcfa7c10bdd91e99a0bf5bea94e57617
:1028300011b49122bdd1e4717840ee1419d87124fd
:10284000430cd2917c084d73a06d7abb740957d3a9
:10285000df9d99805483c3c2f3735af65d94e2bf3f
:10286000a98e2b2bbe83559d85905f07e686b1b25e
:10287000b06f06f7c8906d6ec179249137b1406c86
:10288000f7a1672d0a51d6fa5b1cb2f6026d28ff3c
:102890003b00ddf48267e2809318571a677963ef93
:1028a000fee7ea9d0af9caca6195695c60f441a62f
:1028b00071cdc13d93797f36b1500a245455b00390
:1028c00083dafa0fa92c6530daa194ec55bf1b9f6f
:1028d0008b7f20711fd6287a7f3e42b633601eacb4
:1028e000f962c1175ade33d90cbbe53d1aaaecd206
:1028f0009957f06ecf0ba524d0a24f4a52dfe80cb7
:10290000bd93d75629a7c457235e337d93ecfe258c
:10291000886204543f374f5da21b2e338dc7b0a58c
:10292000a71275a971952a00eaced66520665eaa1f
:102930004265fdcf067b1ce3dfabc6fb6d7a160f4d
:102940007de2d5b0c0a377d957a5fc4741b801bafd
:10295000fa3c26832f8ac8ab68dc59ffb840524640
:10296000da12f0be5f322faf7d90d4064a1072d8d3
:10297000bf5871a7cd82e1107a8c0e3723b150eb8e
:10298000299a3dcbdb10fa284826eb0d772f2fb084
:102990003d49a6383977e6e501ec25b9b9e6dacb49
:1029a000b126df8f1eb32931b4f1b1d9a7026f551b
:1029b000afec3b512b5c81feb54f8ee623162ed338
:1029c00018c212b29af06c286033497bda861e4531
:1029d000b02c7f583e56c46992d72d64a14f3ac699
:1029e00012e40dd607808877af13cdf475005056ea
:1029f00083f272760eb72cd079e54b37c8e6f21e1b
:102a00007c3deb7658ec4c643739ee497688c597b7
:102a10007d0de2641eb7ea90a15044c92e98ef34b0
:102a20009989abd436547aaa3bf8c294530454e53e
:102a3000e4ff6e6d556a8f9998a558a05455ffba5a
:102a40000b3e334e3d1271ac75a3e3bf313bdda6a7
:102a5000269d5e7574cf2eb696a3cdabc7bf11541d
:102a600098b2542638badd1d72c9a65bc03fc4783f
:102a7000270a51bdabd908e490661c4e8da4fefb1d
:102a8000e04c04e5f3a8609deaadb4a8c72ab28380
:102a900098f908c92a1697e00c5cd52ddf5d44969d
:102aa0002207a79472181ba00deb1ddc9e922a5fd3
:102ab0003f774ff292853184f9b2ff0eb417e03fb1
:102ac0009b9f29dbd4f35ddd924b715db719e4db8d
:102ad00091495b482ca4da9989ff610069838e8e45
:102ae0001106b1634e72d63dbdf0dd35387e13431d
:102af00050d3c0cf4f7d130afaa1623d12dfb76ced
:102b00005c6c93e60c4d5af75ddfcae4afae000f84
:102b10001129d4baaba56e4ff8e20b4da386b41ab7
:102b2000cd8ca42f4e8d61fa6c36f7dba1d56bc826
:102b3000b372a0907ac9cbbfa7d4d88db76923fa56
:102b40008b54d520114ff69e4f307f71537e1add86
:102b500092f140803e941c4c89317f89c2e81d70ff
:102b600097230811608086bce6462a78129b93d68c
:102b700017ec0d2e8ffd63d5dedd23b61ee6c96a88
:102b80002e234ae5c83634a87db88ece13f68021b0
:102b900016b03e8d9f244f2d79e25c0ffd1dfbcebc
:102ba0000b470a5ef33bb3cc0b1787ede89c283b41
:102bb0009cfc7b3d566762d1c9e91043bdc71bd160
:102bc0008bc11dce342425a1f0d177d6700a45b231
:102bd0003ec7ccc3df66c83e9e915534d8b8c2a765
:102be00023dd21aeb70b4c764c7db039c9fabde977
:102bf00035c33363f1fa176b716d1377fb1fa1f7c0
:102c0000a05bc03d350474a8fd7eb9a08ea26eeb1a
:102c100096d09d3f10b16280a6026482fa7ef8c809
:102c2000b057898b64b1c079d4ee7fc4d13d7a614d
:102c3000ba92e044d2e5781106818a7dbc584753a8
:102c400028f03634953627b519b07ad27547e94f52
:102c5000cc91fcf01e9b797f8f9e60e86881030d0c
:102c600025f95783b15ac849f9509eaf93a08d2bcf
:102c70008f083ab93eb6572c62fdbfb8f2990c35b1
:102c8000e5f35f9e1906a4041cd69a302e707829ad
:102c90008cfcad75f449979c3a63a4b3d45fc871ba
:102ca00001ed584f33359b74b18a327972cb76532c
:102cb0002e9f2be687b47c3dfca623d14e7deea251
:102cc0006505f48af5cb2ae9ce5b352c4fc186a386
:102cd000ff84869f5359e4e6069e2064d17c92d3fc
:102ce000c17cfe64fba13908ce6fb2332d8f3d2924
:102cf000cd4d1a13172488a9e145321d94b7de245f
:102d000082e5d8e7d9701010de2d8a04fec562a6d0
:102d10009bc6b1ca104b5777b3c1e1b9cee999ada3
:102d2000c00d817caed6f50686462a3de0544c7730
:102d3000fdd252c9bf3429b92a73e49dea8c9ecdd5
:102d4000f9a5cde3a9882d9f29850914fb0306fa6f
:102d50001440736160e1a4ae3f27fc93753843389b
:102d60001918e5b69df27101f2ef65b58be64014d6
:102d70001e30ef8d910e81b9969510b6d60718d4f6
:102d8000514ad5637ce0d5cba9374315eb3e6e8025
:102d90005a16ab30dbca402506fee9d42b67035b2d
:102da0001965b3f9d0aadf10b9153cb30edb58672b
:102db000492a96952276340747aa31039b9deefc5b
:102dc00026d9bab45fdf8330c47eac9e50a65c1daa
:102dd000fcda5224a22d6b1ce64173527541b6a950
:102de0006fbf8c67b0f04f0c523e3bb02e42128c3e
:102df000807e1b03605e4d9a22d29cdc0490da0731
:102e0000522756bd5794271573ca138ce5992a7d0e
:102e10002fbf1e70201ae42a9481f8b0dc9fa8907e
:102e2000a8cb870ab1cdaa353ee3ad0f7d43a609f5
:102e30001c4bbd6e9b15932a927db8db4ff2fcfdb7
:102e4000535f40fb71f6ae8ce4251817f7de985ff0
:102e500065d6518131932a1ebee7ef9b7816c7a62f
:102e6000ca852dbfaa00c88b1dd612451571d4aed8
:102e7000c0f970ecc16221f7376dd78ea100ab2f7e
:102e8000e42e004ecf7d7aecea5d16d3fa3c57cca7
:102e900077ade78616d5dd73dc49c8a0ca9c76609d
:102ea0000e106a0da90d9fcaafeb7d70bdcc1fe857
:102eb0001fcba1aad4a1eb20fa9023f0b01f22fbd4
:102ec00025bb200047a8fa4acf8e052e723e5f4de3
:102ed0004da4fb4680e70578fcdf9c51fb6bb16c91
:102ee000f2cd2bd172f2ed7a0382eb608bb44129e3
:102ef0000a9284d8a39e2acca866585f89648780ea
:102f00009d531b523145f29d4591adfd56fec1d5f5
:102f100053a541ce04aabd4961a49a903e7ac9a4a2
:102f20004fd5b1786aa5e38270a272115e2cd51ad2
:102f3000c6deaa72ef63e6757a61b02410c11bf990
:102f4000e30b21b7bf1b1c3d2f7f4cec9c96905888
:102f50002c021cae2f946d423449c92c72a91cb9a5
:102f6000bf9973915d84180022afbdde299b9dd06f
:102f700092fde33d4403a7a097e8baf7ce2eb4260e
:102f8000095e339467264a4135e71147f49370f29e
:102f900037773266a39b62db0ec2f22dd21c7dd046
:102fa000ccb8cde576f373d0e1ce3fcdab749605ca
:102fb0005129442c8a14cea953b52d2753c4b76b7d
:102fc000fa5220ad241c0fc74256fdbf5a248afe78
:102fd000c6e17fa83339209612b97f5d648f5fee1a
:102fe000e7033f1d2095eccdfe2aeb70b8b3496b8b
:102ff0008e319d6880f2b0512cb8ee5f0ca51e2674
:10300000d35eede876f37011cd33c4d028c3c87712
:10301000c2f56055ee9f852a9c6d361a415f7f2f61
:10302000520569cd733e7e3f5ee033474df1b022dd
:10303000a8cf7abbbde4e6ab9ccf30926a3321af18
:10304000f5ddaac9d9880ced6d9190d3f4ef60b18c
:10305000f1369818ceefb583e4a228e1da4b0a499d
:10306000f075ac96ea7f247d288cb2fdaa59a35650
:1030700059fb906c4678340e519e93b916853d519c
:103080002dc3940f6327709d1b84a976b4ea231e79
:10309000acd8527961b51f797537d2cbb66e41790c
:1030a000b744022cc036d2f5b37a80c9d9d367c1f0
:1030b000b6053caf08a69cba94e1a348fcb217fc45
:1030c0004e9c700bb5487e55569c667234b9800b89
:1030d000623f34c66469af3f25c269640a4657251a
:1030e00020ff4a1d7457bc2bea75a1ebc7433b2850
:1030f000af9e02b7b89c2d5aa236c313eb154da54f
:10310000b2b0de9e28352f96650549d754121feac6
:1031100017706937e173c0cefbbff4dc29be38cf2e
:103120000b79e41f8386895679e1f7969cd8ffc115
:10313000569ed1640e0552605b19cbd5c337faa6f3
:103140009c4561def7bac54d00e927501961ecaf27
:10315000c65e9c12123866f9467d8b54e47fc2111c
:10316000e0b2a43eb9c34b1225ec16a8937f3d5b99
:103170004016332ba250a1d57166bbb64a2b437fb4
:10318000fa336e478e698f38f4ac45f0a434ea41c7
:1031900071d9890a26ebdc154867fc81ffc5528f7f
:1031a0004a0def4d647c0be9add73f6720b11cb7ea
:1031b000d7bd939603a774ec9f079cc00f69bc6fa3
:1031c000d6bcc48fec9333ae240e1f9d880f3efef9
:1031d00095b9dbc914e58af5190b7fe8d08f5783c1
:1031e0004926d93b9cdc401696c9cea3594129d922
:1031f00017cd67b67f31bc62959da2945b4e550595
:10320000231ebbe79eb055d2980e1054359d800505
:103210003c21419329fd5417e6b616f88507b3ab58
:10322000ff7f75329db5424ac2e4cb3a08b082e3d3
:103230003618e11980f37f982809c10a1505b549a8
:10324000e248ca28483662e141b360880fdee57281
:1032500082d5596abcec5969485a81230bd87c2f16
:10326000d3f1ff3b6821a4626d8adddeb4874ff0a5
:1032700070c7952ed822d95bfff0f27a6c2d5d577e
:10328000cb079454791cea5d68450b2f7f789b3df2
:1032900099f341c6ca5d47879e63a3ddfe0695d3b9
:1032a00034dc64df9f2aa76562191de23df0abaef6
:1032b0002a5a93f3ebbc5ec69b876c3ea064bdf2ba
:1032c0004db72384e2c2cf0e3d3f51f241447b1cf7
:1032d0003b6580baa8b0f51733ac38509b429b468b
:1032e000d0cfdcc1a1780204d918b6f4a13fa6ce94
:1032f00033fe710b69ace1cbfc8315563838efbd5a
:1033000014c5e55c56db6b838ea282c1bcd01b77f3
:10331000cdea24954db662df48d78ca0a0d0fe69d7
:10332000a572dc889d59ca2b20b42ab0e21e858e76
:103330001f0ad9e74636a03b4b32ec49ad34da25bb
:103340007ce35823d1c1749e6babc892f3b6f2599b
:10335000c563d8cc7dd36690423bc74038376461a3
:103360002daf6f41032c56547b42c9db721d84196b
:103370005c24ba804ae6e0fea3b4c11a652a55323d
:103380004cae72634046dc23da120a2992dbbbbfe3
:1033900038c801c2d7093c5c2c90b1ffc0a7e40932
:1033a0004027d914efe6cf37a71ee2dd050373727d
:1033b0003975b9d05b6c904915093ac3fa69679db4
:1033c0006ec63c28b91e178cbbe31bce1362e264a9
:1033d0009bcee84f3a5741c7ac43bee26f7a9cf1af
:1033e000a30966fc3292a494706a128367ace7a5c5
:1033f0005fb34e16b9cd09b853b979c6733b9f86f2
:103400001c1a91193a59a97a46afa0b5636d61efbc
:103410007ceac618d2ef89a77ab8a2c10a7c6718dd
:103420001d56cb7ae127d10a85d0f66b2608b8adb8
:10343000b953b99b5087a1d96276d940705f07ff15
:10344000898f2b22362246cbe358b51eae79a3b422
:103450002593cc97de454a4ef630ff46341fdd08f3
:10346000eba23e9e1320468cd684abfb9910292def
:1034700009c01af55e285013d11d3cab1ed3a40021
:10348000df210e2f74670325c3e828bb7f54ca24ad
:1034900038c9409afc570dbf84d742a6768bb5e752
:1034a00058afccd4ea9c56fff21080dc1c2877245d
:1034b000ee0e921e8c9c2651361374039ce74ceb47
:1034c000c934b71671155e414fbfb3c39eddf3e734
:1034d0005055b7886bf5fc777ea3a129b65ca80c84
:1034e000dfe84c9161f146af63f575d9e70c63569f
:1034f000dc6eccc63e3df6d02918692ed3421f564d
:10350000f8feecdbcbb5da6e9e9482e9e871862199
:103510008c5c3c4a7ebe308d9f65dbb824331f3007
:1035200077e9bd2df327547afdd79360ace16310a2
:103530006fe96e7513565ce43834a61c025c588f34
:10354000058c8c62c1a435f72212db855cd04fd785
:10355000db0c787524f22b09da8217ffbe8749c687
:1035600035851b068f2033e3bf0678083278541d5b
:1035700071c69be0e1cc717e63d6eee29419b7e3ad
:103580005407ded4ea614ad28b7e5a4afc38d8a569
:103590004840181ea1555cf4b8fd3a1db3dc3fdb72
:1035a00055cf4b0dc88f85e012ef1ea3495f07c4ae
:1035b00060c21f66cab65dd7ae4e630aef475d3381
:1035c000f3fd783a8be7f2e2f18648a928315ecc28
:1035d0002cd6b8a13c252b1825c2be942182f40319
:1035e000105af45762e3066e102bb376bed5e82f5f
:1035f0009eddfe22f372fe70d1dddcea44953a874f
:10360000b6786ab74bc21928e236a7465442ec9cfa
:10361000db3a4683e3df65f89345a89302230ea0c7
:1036200062e37712312b4b940088ef0048794434e1
:10363000b0e48922c22d31397cee054851ff1d3797
:10364000f247c14545675f1f8982736139d6959af4
:103650005f2f7db86db031bee7e0cf03d5261f03e5
:103660003386175272774f54ab34e0f7753b348191
:1036700061ac50a153024dccebb2dd95b8204f8d1b
:10368000330998b78ea31ac8f1892046b3765395ab
:10369000809a875ae1e08fc42cd3774ea29e9d9bdf
:1036a0005d1920b52918c99e0ccfc8a02e3991b636
:1036b000cf43e2beb13f31e04f9a5e90d252095300
:1036c0008278dca040deed19ad9e7981f0745b5c00
:1036d000568080e5e370ad8f0f934595425258f2c6
:1036e000f4a9d130471a0d726a9d0e13e02d154cc6
:1036f00008cf736dc42d3894d089226badde8d1e3a
:10370000032724beaab3e352782b90f55c59ad9100
:103710009c88a9d3edbfe5cda3d0ef24f20456d306
:103720000650e22b295fb82504b48a1dc9b891a5bb
:1037300083b00a5f39d3d0ee8ee17182c4f9a89ebe
:10374000454275c20e51a61955659e81f09a2641d3
:103750002af7901141c36f2274bc4375332839c9cd
:1037600026eaa4c7545a08b589e2f2968eda2904eb
:10377000d36590e85196b382770412eeaa27c76703
:10378000d09099d388a14d54f330735d3b4fd4f161
:10379000b51b6af7b37a4cd4f5321f6b74898586f2
:1037a0009688fda4c3ea33dd94348ef4f053e087a9
:1037b000338fc8bf80a0e682d0c796566396c115e6
:1037c0009fb1f4fc64a119cd1592100ab15ee18598
:1037d00040cf96480180c73e775fc8e3cb1fea58c9
:1037e0004a3b32ccf60343b3c2ad55fc11867bdeb7
:1037f000b21228a673df4fb7ac8528ef10bd3ddbb2
:10380000e8dd8f6f05a1cbe7e1d245b8db4e0ad9e1
:10381000d53cbb44276145d2c9c5ce5c6dd99dfd61
:103820008ceec266578b074f6dc803506dae41a733
:1038300096b6f2adc1d7dad4aed38f4fedacea2b4a
:103840007abb900a07ce866024c804c95c3b6dc170
:103850007997c95d9d490ce9b677e98d8ddf9d218a
:10386000e9106e87c49e308b3c152c1bc6acdc9dca
:10387000ef3055d3739a4a13e70cfe6774e8b9bf6b
:10388000651d0db215065ca4672decc8676862afb4
:103890000a719e1f3cc81f4e4d41e94ff647126109
:1038a000ab5fb839cfedce6483d7db00eb3ca17fb3
:1038b00041cf53b8855e9e257068c051c214d64969
:1038c00086f87ef96a001b1668299009c190d1ce4e
:1038d0006459092208757ff20cbd22e667a5646968
:1038e000878bcb7ead9d98a0cb6ada86ecf6bc5870
:1038f0009b82acf5c3ca54c8319e9c4f2e9fe219df
:10390000bc5f4bde9822ea8acbc013fe19b21eb30d
:10391000a87ad98fed26861df1abfba495f7e97d3a
:10392000f16935a37ce6742c2e748321628e9c6928
:1039300098146be0c207550bb43b70f28e3c01b596
:1039400076362b6902c834ac1ac249a42066099b9a
:103950007e40a9d64c82e80e54e4f5bf3c3c42c9f7
:10396000c3911704cf7d0d15e97f73d09158d661af
:103970005268ebf5833a9fe54dfcdda32833eb6df0
:103980003ffc8eeac5d8dc5f6880634d7f2da0b612
:10399000c95d20501defb9ad1e8cc3e3b669b3ec11
:1039a000ca0add18106598bbf3c32cd2806b13567e
:1039b0003406ef1948a744bfcd4d71cac6fe59df82
:1039c0006f0f375d5fc058540d80d4b39cad147732
:1039d0000bafd561b33138be6cb0fb6e6c79a80308
:1039e000a32a2435af8b66ecbca4af4eb8b4c46830
:1039f000bdd1744c86c2c3ca8a2872f03b78be51ce
:103a00009a77b0ae4f80b74059876f4e34eeb6d933
:103a1000bde04565271082210a3d127e257ed2cf6a
:103a2000aed51635f36bb182bd7d18eccaf251b23a
:103a300091608fb10e5ab7b083fff1939ef2614f40
:103a4000536a78648d4ff39bb25a4e6be0e3279a2a
:103a5000e6d957cb93be4b68f0fc1fd96c8062ba95
:103a6000f2d644aeed33def73d6a652fc292309f49
:103a7000bd57bd5ea30fd0d585742303bdb77d4070
:103a8000395128f9dfea21756229eed0ddd7b22657
:103a90002a74a0d6487b02c2b8e2f01430b1bece80
:103aa000c507e737c6792feb63ec379bd427fe7544
:103ab000f20596f721d0b45261b064ce4c909ac50d
:103ac000394eb4236a2d84c1e08e787b3d748a56ca
:103ad000b5134159b25c1bb1d7fdba1a87bfaf9677
:103ae0002aee2cd40f9b330587f53b620ec37d0174
:103af000d3eef8b7d5120e015b8615176d36f5f6c5
:103b000062904b82cc83e427b61947a9470d030a7c
:103b1000dd94e51120cc516e504e07f9bac79ceaee
:103b200049317f454b6fb369c14734856dd8e5c6d0
:103b3000418b5b318d6bc678625c8a8404cadd631d
:103b4000f76a5020de5870b3b20b967de6a6267b4e
:103b5000aa9f4098efc297626b1738bde7ed381cfb
:103b60000af27ebc8f8833662ac6e609d1c1470cab
:103b7000713ff74b1fbe0d8e9eed98239bfa479e1b
:103b80001361fc6562712a86c43a6055e69c41c89f
:103b90004c42d32b04ae4c3c0748825fa71086ed05
:103ba00039724cc2cf3ee4efd38a7954f98f0807bb
:103bb000e16eec4ad60038557624226cc98e39d491
:103bc000afec3e3c8bdb7401fbb93a97f44b307b96
:103bd000da070ca0408f6f5796364bbb6c2d88dff1
:103be0003a4c9aa28dcb218032eb46cd5f29592bde
:103bf00001a8367b677c5f4a0c062293462792ec2d
:103c000006360d8aefe0f55bde490ab165c89e66af
:103c1000aa68edb027466a2997e4e720300c436f85
:103c20002e12177affc67b2d1c28627b4ed732c717
:103c3000becca4d54e976464929b656bca19628111
:103c40002dcecf46e81291c42ecc01c5991b396602
:103c5000aecec0a38d46e12a2158d8136bb4484b91
:103c60009e886806d9131acc983f99529ab68d57f8
:103c70006f7a1ea91a8de399e4f47d3271dfcd21ac
:103c800092d3720645bdecf7b4e1f7e6f1e2daec67
:103c90007650f2047ea13ea91c2ba61d5f0ff8b53d
:103ca0007a682782dc1b901e67595c0bd326b36ea3
:103cb0003f6f11df1b7ab5c00778dae59c714c3a8b
:103cc000e1bd9b3a7eb1f299ba6630213d994276c8
:103cd0004bbf7bbdf127b3d4b6d34e96ae0b047960
:103ce000b9103db854823603ecce370097c0049328
:103cf000be85b02cfe0629c023d7000f904f06cffb
:103d0000ebae37a803d7d5fd2c9123df69f5509989
:103d1000931373896c506b567a59e62813bd1e07ae
:103d20006d5e2b1e9ff273c4e981ef481ce3ff7a9e
:103d3000ceb960b5ba5430ea5d40f0834d1b29e737
:103d400052407537962fac13cf36bc02e1edfb998c
:103d5000fd4e97d94a2ffbd7500ede23cd84ac847d
:103d6000d239a3075a1c8c853b3c4a1efd56ca41da
:103d70005d75ce4a36675b185e6ed7cd206a5fe709
:103d80001b9f3e307ec68fa94b803b760ce84213ca
:103d90000d19dc175d633293822441c0f93ccf12c8
:103da000a834efb371accf73a16308391e4af14f49
:103db0006b4c7087faad24ebb7be641acd77837471
:103dc0006bc3e6688afbb4567c535de276a2130ea1
:103dd000420e571a81d08ad552ab103d536b877b68
:103de00018cc7d0f5f608f480c939ec3b4ef0b21fe
:103df000d5acc79b91f473c1948585d7d3b4473da7
:103e000022d04aa729176229861030010194b6965c
:103e1000e7cd031647a076627cbad6a923b9fa2665
:103e2000d4dc4bd20ecf0541d669756e0499c3f729
:103e3000e06f85fb2b751fc685332a472ac209a769
:103e4000fc70c494b8b4cd76f73a1c14789071ff26
:103e5000d9e0eab0530159d3f60c8d4af31ebecc1b
:103e6000f2bac417402a79798eeca11b34cdd0b3b5
:103e70004e58e8fa72a0d53a4ac93233decaab12bc
:103e80004650afa506c4da933c92552600fa8f72cd
:103e90009149b21d1870ba15b409b0d587585a3f68
:103ea000517c144b56164c2a2d70b0c7fc1da0c275
:103eb000f35314e09f226c3089706721f01db4d059
:103ec00024d1d66324c4c6e516018114f6bc3f96fe
:103ed000e807cab360b3c6282118dd9879e2d34f4a
:103ee00012ec35f37720d9589b2d1d4871b808097d
:103ef000b42bcc94f0a78619b15aee7c2946cbc6d8
:103f000094ced7b55d42ba5d0bf26aeb50f08948aa
:103f10007b6977b901de7576a5a6f36ab00c54cb40
:103f2000c342154d1c2ebf993971a8b220f04d54d3
:103f30009e98d759c9ec09e43332a397384c6a13d9
:103f400009114b174e7afa6bea83ede43a66d543d2
:103f5000d1223351d7c7fba34bdf6f4c782bc43f23
:103f600028340cbeafeb945d5457b0145d28741127
:103f70001b5f5a6c55cfbd5f965f6174989082c489
:103f80004bae81e8120589de6d42ff330d9a63b8ae
:103f9000d818bb9f3d6f159ae2feb4a9b7e551d77b
:103fa000e282f522aaa86536eb9862d2e6e03d8c63
:103fb000a9c4bd30541e2e85ab2fd9bc69a055684d
:103fc000eaf218bc7a4d9841f81e074e9dd60f2094
:103fd000dab7bd402443ef5aa7dcfb24105657083c
:103fe000eac478fe34b722ccab213a71c0a0534d5d
:103ff00026517ad3034f8493555c325bec66798209
:10400000328a60921d293747b57ddc6ea94e58274c
:104010000071eab3e7fb5aebef203eb47a45ad57a7
:104020001a7f7e0a9d78e7af7c243f4a9ffa6b2a6d
:1040300019ac5d087458eef3d36edb2c170088e4de
:10404000d6ef233c2480171b17a76212a004fc069e
:10405000991250c42de345b3fd4c5092c2fcf7a811
:10406000463ed250590ed22869cde244d2bd5eda26
:1040700035886dad3a6b95bceefa5f37977f427924
:1040800077600e99c5d3a500cbc3a829b8728c233d
:104090001662dc002f761c6e87eb00b75cc577d309
:1040a000b88ed185d43ca550421224923051b94fdc
:1040b00028c8eb91028dc047a168f2ae3fe7f342fa
:1040c000e1c10d934f87b84e7d1a51fe908d7579e1
:1040d000c185f5f37aa3b3f4fc9bb71fa32a03fab7
:1040e000697733b468a93cea90dd28d3a34c312921
:1040f0004f314b708be7cc01914ab397b779b57bc1
:10410000ffc1d7b9c5469e908ac3e5d8ba94d802f4
:104110007d9763cca2911d2e984534ae02babc1394
:104120002bcb91781e3260a60ad7a2ae3b1d621d32
:104130005e50b324c2dd2b9006b1599a73d4ca04e1
:104140005c08bab05ab72513b3bf51f7d256446cc6
:10415000ea00c2a25cf107b8536e95b4d62125d20d
:10416000cf865c75283f7b97119303a28db5b0b4c1
:1041700046f0c221097560d66edf76680433c355f8
:10418000170cb23dc1e46fb57ac6ba4788f93c3c1a
:1041900093d55afdbdfb001649c247da446ceac309
:1041a0004f66672a5504e1396f5e51be8536711539
:1041b000e77b82d4077ec5602ddf6c30e3efe6bb82
:1041c000d940860e352cfbad20915f63479ac8e13c
:1041d0008d3b296ff87175f9c8df2c1caba73e70b9
:1041e000da836d3871bd9a7dcfa7db6e5948607850
:1041f00087dd774046dd4af607832c8c4f6d380cff
:104200002d76542697ce6278c1484afa2810ea01e2
:10421000f05a4913f9ea7480e8e65067be34c9af32
:1042200075f6bfc147f8f8bcf1f74f76a86992322e
:104230008f34cf66647295d3bf91665230a4c29f0b
:10424000b209b4156a95d8a1ff4ef1114b8a829c30
:10425000af963b232c8cae4992424603a9ecce5c30
:104260003a9540f89bee126fe324089f51fe368c7e
:10427000ae7fd34a590c75a1f95baca0fe80a88c27
:10428000c45d9b4cd34ea3d81d7a54fd3a0a792cb9
:1042900039c30470ec0ae931a9e23285b6402c65d5
:1042a0008fdc80ad773cf0b3a07fdf31f52f0d3e82
:1042b00017a75a2a95fe7298bfa0722db414bb2c72
:1042c000df783f6ba901242f7ab8ee8cc2c8327f09
:1042d000fc8e6330fe42b761bb7a6acb48bce575a1
:1042e000c69e90808a22dce581b5e811d9fb520296
:1042f000819a8b9fbe00c45f995b078b1d51f705a8
:10430000bfc07b16f290db8ae9584949af030a6fb8
:10431000e5cfa5212712bdb771c817744f7f95fd52
:1043200088fbbba0b550ba563698694313d6d985d9
:1043300069cde6ea73f1fc93cc4a4beae77ad3cf36
:104340008b892e85224b11ae8acd38cd0724fe55a0
:10435000985cc890ffc634406b2cdf2f4d8b647780
:10436000234ba63602820a8a9c1c1d61c634871a1a
:1043700010bf9273ab71b341bb742706a8d4251745
:10438000ef72f160bf84c1c300696751582cd3d06c
:104390007676a488de158a57590aac843b6319edfa
:1043a00082973167688fbbd78caa17c99e898fbf48
:1043b000bd1cbe1b1c28ad5aba1a291097b1e05576
:1043c00044b8aa889604b010ecd6402e4ab19fe9b2
:1043d00059481f9e14b658d3963219722cdff498a0
:1043e00090a590101431f476a4c8e884c26d846955
:1043f00043cde76ad5a23488ba417f659b59962a96
:10440000ac73ee6462618f70bb1454066404c2e145
:10441000c03617af7218563d7fd22bd4021a4f0701
:1044200070cfd57c3f984256f507186f54dd2a634c
:10443000b712b9172710c008cc90563dfc61fa4757
:10444000f94a68f9e214adc6ec23e7aa8aa3e0ae04
:10445000ea9280f27af78168e8fc0c0de9f22658be
:10446000aef5e569dc3762db935ff452a5e307291b
:104470003ba39e4626c668645f3f5a8cd9c7a44baf
:104480006544843f38055e65f885018ccd089266e9
:10449000c4c07654e58ef4f6eb2f4ba8a7ee69ca9c
:1044a0006cb6440b453da7fe3434ad8e209f5a7e3a
:1044b000dc8b76eb6f2e799f66c107b27cd15c14e2
:1044c0006b155d349276f605edac72bbc41af6ca74
:1044d000c9fe9172250faf49753dddef4a1038e7ef
:1044e0001bd05ac5d1dee71f0e47498f4f4a2ef722
:1044f000fe5a1eddc5eb5c1b22de5df5a71a4001ee
:1045000042cb38dec532c5a37d087214514541cf78
:10451000d35e7f2a3b65b22490c36b20b401523630
:1045200001b87417b3a78497b21b96f06c7ce8f1be
:10453000bd9c9e4b1978724afed003e8de6179de9d
:104540000fa9aae398d965be4dd4ba5902220f8d9e
:10455000b51aae6b52e8c5cabb48c60d693c0635f4
:10456000402e8f0a7d5d659f668d91de83d5593023
:10457000a89877a3ca19e9f9ddecb16e51b2495b8d
:10458000431b87bf5d89786f70b371511d57faf176
:104590009c3ca088c69c896bfb08c621d8c2fc1f26
:1045a000d1f553c616ab9ae94bfddc63712c30b6de
:1045b0005b50954a4df5adfeb60d2ef32398a2f64d
:1045c00069da9dcbd5d278019eeac034e5331583f4
:1045d000eeb023673ec2453cb13730a5c5339b8062
:1045e0007792bb3f15085881b05190d252c48c4b82
:1045f000a1190491e4ea7548b63ca9518cb0aa7897
:104600003f1f583286aa839de073df4e962edd7ed3
:104610003d36e4152c6b22df90a32c5c747d1523b2
:104620007dc51d7107143457960f1fdc5d043c27b0
:10463000d3a4136474a4d0cdef42d6c6e34662a7d8
:10464000c31918d94bedbb4e053422c92a93a83e95
:104650008ec5645d1afafbec88183fefc8932cf8fe
:104660003b6a8f5cde0c9f58f710a2f1e76d3bfbb5
:10467000954d158477d18b43a45377e61829f972a9
:104680007cb6a68a6788a3b0bab87f3431d91d56e4
:10469000684af139e120cd76fdf640bb4b885c09d4
:1046a00074436029b568d9b138a25a5170d3183013
:1046b000710ffc1caf812fca889245add2147b0dbf
:1046c0006dbd56090fd682410ee0128b08ca9ef4ca
:1046d0002ec5d9249ae5cada4142d7aefedc5a8dfe
:1046e0000f3877393ae4989e4d6f9f00e1b77d020d
:1046f000322fb6712cc63a5c539ce27fed88ec6198
:1047000027b3432493a184fcdd940c80fb2bd4dde0
:104710001731c0f55d01adaa0492f1497aabd20c14
:10472000ff0765b580ad460495914576e7c07204f4
:10473000b6ea7140b7d6ccc020696bf8ff96d8e2d4
:104740006f28124704a3d39a5ff5b54f8e2417b78d
:104750008b4f9ba60f6413dfef13606d1a23cbbb47
:10476000f0f7f04d74aea5fa3df342f1a490c2d13a
:104770005c2959ae82cb2692478051fc2c8be826cf
:10478000f57482dc69033eacbf1544970e17bdf289
:1047900048f346e5f255aa49231aa3153ada118cd3
:1047a000c562d747d2193880ee0ebe8b9bc35e0e12
:1047b000c5556468f61fc27b181e9cdc7047d3addc
:1047c00073e8cd727fa37c34add4ae4ef3bcc78dfd
:1047d000195878162cfe4f1ff70a071cb082700577
:1047e00019b82ec52ebb71eb99159ececccd01f01c
:1047f0007281e1e2be19a54be8e5c04be7156851af
:10480000b7b2b905342d864059e4a72437338a99c5
:104810002a715f07bb9cb019f68e36cc0d309b8099
:104820000eca21dfcd40221cabaf5767a0d157cfb6
:10483000afe986c5a5f125bc30c1c2c278e81bc36b
:104840007642560c26972136a0e437037fc82a1bf0
:1048500006dd3818196cd34942b161beceb756f1a6
:104860001fc6f611f061a7b0871864e3c9bf28ef2f
:10487000fe13f1751cc80fc7200d0024aabf0c1c25
:10488000c49e15dc4b6dcb8ef9dbc6684197f7af44
:10489000ff7aaadee1daa299836a7a1af976c19ad6
:1048a00017ca0c28cd860eb7d1dc0f5e03dc8adf79
:1048b000890fc175e6e0c3cd551c663b6df374b33b
:1048c0000a55f968360eaaa38d7fb0570ecdc502e2
:1048d000abb0d31920e6ba4d80bde848ab638f106a
:1048e000e341d33251a224ca63399677dcfaab266e
:1048f0007c43409bd4ae65ffcd508c42a64f18b28e
:10490000b44ff618643eed65eac5a2242da24da170
:10491000639a3fe3c0fec09044a8814c28e7244b33
:10492000c23630266dc75846e6097b084e6c295db5
:1049300003335d36cdad4fcb3bedd657b42a747bf8
:104940005bff7480fbbef265b3c849a6429215d2e4
:1049500035f2fd8d6a27ff67c467362947b4f537fe
:10496000e5ce8cf827d6353ae33f3fa00792ac9bc3
:10497000952084982d2f02010259a93bfdddee0af6
:10498000801862b60c684e3b1f74f5a2fa2d90b8e1
:1049900027fcc58dde6f53b397e1804fdbb90ef175
:1049a00085a14599201686ac89fd5dcae7505fd781
:1049b0001375f7779c1dee3df7298fc1260225263a
:1049c000c38f76fa54b3438e2386a124fe1f8878c2
:1049d00096fb5487d0280c36da23aa06390cfc172c
:1049e000ef5662183174a3fcc0269ddfebc8247d0e
:1049f00097bd29be1c32ef5793f6b89b161f26efc2
:104a0000e8fe00f8af2bbaf65067a164b3155f5407
:104a1000cc38c419dad500832ecebde2b9912dafc2
:104a200060902e12719814e1d4f45168835912df0a
:104a30002f324143641ce18451b98b6d1556b2ddb0
:104a40009bd23cb38270448eb0ca20f8c3a0c26d22
:104a5000e3d394e4e23f10d6aeb94df5b5c2c3fa44
:104a6000e6ffbfc49a334208c358c1df2066c4f7cb
:104a70002d7e255fb79ddce2f4f2c81753674de742
:104a8000b6738b22bdbd9c30dcd89c3a6ac5f2352a
:104a9000bb530d0658bed1f33ad3aaf2019bef45a2
:104aa000b4f77847bf7fbc2a6d6cd45121844aabe0
:104ab000b1aded46bada0fe4b3c8dac29bfda4e9a2
:104ac000e763aa85ab40e03b88230913e79b70614d
:104ad000a93bc6086f3d96a9c0665a25ebab113db0
:104ae000d3eb314df35287f59e56c3b20d8866085d
:104af000a301cfc08f5c9f6ce2c4de685f2f02ea27
:104b000023170618d51c237489ff651969ed73876f
:104b1000356f1b5e9eccfd526e34dd4289e77eb35d
:104b20000878fe3829c62ee0a7ddf8284d87a7edc6
:104b3000523d4f9fd6625208a8a1b60279549aeb13
:104b400075a06e820f2d0550633df5b067826e8aa9
:104b5000d856d572531dd2429830011940cf2e0b32
:104b6000c32452e04a225e1a343273d655c8dc564a
:104b70001749ae104f78f7eda1dcd71f42f223544e
:104b8000f3f70a92181fc4b6585af203ff1b506e6f
:104b9000cd3bc24b5e1347e64b07d54a87be792d06
:104ba00071fe866eeea980201f7264bac638151891
:104bb000e6d55c38976405b3814c6c9247c6818119
:104bc000605d3e77cb8f3defc179007c3a827a758c
:104bd000f4f300e241a49ff0d577950b12386ec133
:104be000e5bb0bb5fb085827ffc9286603a2b592a1
:104bf000facb3c2fdaef2cb94c4d5554ccfbe7c324
:104c000089386491e17c408c8b0ec99f7d9e527cdb
:104c1000507029f8b6cab94dad0510fa6c1ccb9886
:104c200077e4da25a76f2936a45480c28842fde4d0
:104c30003c7c7520a4248194bf5eee76d94ad6a927
:104c40000d11c1dfe4821e033133f180e6d10b4444
:104c50008941bee842836871dd7bcea87bcea26528
:104c600004c00c9f23bd4b9721d20b5b1efe024a52
:104c7000b33b2e1cd4fda905c2547687419a758694
:104c800084a06f923a9d289798cac4fe579f6ddf03
:104c90005aca6198d6b38ed90dd7750ed36aa68f2e
:104ca0007ef27354905a98b95fdf4ae1b395b56ebe
:104cb0006556ea0f567d0b2936c5ec33ea9a165f26
:104cc000f833e02687a336e7e125af831c094c04bf
:104cd0006620bbee701dd91baa4fe06a034c6972b7
:104ce00013ae678e237cb300d8765de1afe94dfa51
:104cf000b813dea59b2406fbadf935627c15e57b78
:104d0000dcaa558e7271c9f5e51df57b3e447253e0
:104d10005eac730fd9fbcc71f96834cc1761a1aece
:104d20008bfd68f0553dc32b34912257e8bb3ebc48
:104d30004146336f249aea3a4dff59cae26c897da5
:104d4000779a5ccd216221ad14630af99bfdad9782
:104d50007c9c316553a4af52f9ac059c47c7273df5
:104d6000a6e65f1eb6d01049c172f3624f9cbf57d2
:104d70002aaad614437ffab386d1ed5e77dd371dbc
:104d800002deae14b47e39f561f4a77f3ffe7d5993
:104d9000e6bbac7591e3b3db49258c57e8fe87345d
:104da000293c2af2fd1562a5122faa54c53244faf5
:104db0000dc9bc42f53ed4ec949c1a1711c085fb7a
:104dc00038d6385fed88e42ecd063939e402719388
:104dd000f7fed777d67a6177203462715bd7662c7d
:104de000ee510946d6a76df9dfe081b2b1d8183c83
:104df000d525651b9614c9e728d66b7e40418608e9
:104e0000adbcfd32b1c73fe45e9e6016b5717b203c
:104e1000c56dda09e63cb9190ce9c3a801dceb63fe
:104e2000332895a5e4b6482a92222cb6f49ea6a56e
:104e30005806f851ccd0767b987fa900c434daa606
:104e40000e188a5cbc14493baffa76bfb669e7b965
:104e50007a0f5c88aa0c06157fb9b3c2936bfcf875
:104e600049c2be63f8ec0b67abf0f4185e5a19e95f
:104e7000ffc8d6acdcd7f0210bea3e0536283082dd
:104e8000989d47440a707367cbbe1a0adaf8b35488
:104e9000c10cd89ab8a9c33c56fa94a1ebf31eb042
:104ea000fbc13f985626d0334ba31ed914948ff8dc
:104eb0004c32264a92f42649cb4b9e3a775c9e9d13
:104ec00091b7b38d13bbe50dc808965b2759664ca7
:104ed000efdbcf07417bea8988580117c90e1f33e2
:104ee0001600709928d97a4a012882ffce2cab5837
:104ef000ed03ee3f3d258afdc225133aa40aeae3fd
:104f0000c7902f8b3ff317b3f66dc44cae5f7be1b8
:104f10001e23def75af9c63e1be67d98ec51870446
:104f2000608b49fdcdd7ce6059eaa6216c1d835513
:104f30000bdda8aa53f7c438f865ffc051a207f4e7
:104f4000b68b44ff908804fcde6f4c1e551b0c157d
:104f5000eb7f88b506bd3f49e10c69c5c824becdcd
:104f6000180d6d0886e54275a00edcc09875f3ac8f
:104f7000c42fd9a9ddd75c06532fd38e422d7a16c4
:104f800076126a8885b21b7a01a04e6555e8a4e3c3
:104f9000cdc91922ef625891dc15756da7cbeafbdc
:104fa000d87888178c134b8352377a943b91046cd2
:104fb000a33ed4394beac7b86fcb58d59f3355368b
:104fc000c39212615dfeaf7addc171007d42066859
:104fd0009ec429a70e5d3fb4327abc06014c9352a1
:104fe00052f544368011734f916183e5b96465d100
:104ff000c1ca255a23a369c54c2c353ca5d595516a
:10500000e2df9349601af718341fac3d487e3eb08a
:10501000ab559e4d1d2839183bbede9b508fe9e6ef
:10502000cda46a5b23dca3accfb7421dca3b55704d
:10503000e8431705b6e6ff32185c66b707eaa59f96
:10504000b5a7a8c1e627e6fcc6968fced656f07265
:10505000273562ceafa9469a04855d578252034a2e
:105060000502be6541fa6e860a70eb536dc15a1a8d
:105070009b5688a0fb66ffd140669344a5d21fb51e
:10508000cbb410b708703e2207c6cb666457833096
:10509000f4d71f65f231d31e01759af1d20bafb16f
:1050a000ec44f69c7dd61bb0899c0b29947dd5eaf7
:1050b000ec83316533970af3b642080af292e6812f
:1050c0004493e2c648292f82c515618f98e98bdd8c
:1050d0006beac6ffbbd5d8c216d29bb5ae1d45ee56
:1050e00018ddead9399062662d2b245823f1760019
:1050f0002a3b25b3be4f7d5520d9b19161e33b8753
:10510000d657d16ca6664bc9edcc0ee1501d0a47af
:1051100020502aafcd44aa176de1a00f0e2252698c
:10512000d2249715f36abbb07c46d3d58fd414082c
:105130008dbcc5525af7dbf81e86d666484dd56e33
:105140004986035727f771f857d72aa05f6f1b7a54
:10515000a52fe628dbbe88fe80148708a2dfa30403
:105160002a2aa0371f938aa8c8b933082cf749e622
:105170007d1bb8bb6d9b9aac43f6d6dc4c746eebd2
:10518000c99aeacd9f1daeb5835a31e435363791c1
:10519000491bc982ed1964b4e7b2a9c4a2d0750a4b
:1051a0007fde346c3914972db05075a73d11ba12bb
:1051b00046435e199e2979b9266b1c393d132c157f
:1051c000092302d2e32a12bae943bca5391cd3be93
:1051d000940c48149c5adc61abdad2b42c957fafa6
:1051e000eb3eb42673f5ce3ad92af638d78f6d4503
:1051f00017672582c9b869b58ceca00eae7d266410
:1052000015140ca8c92e520d6f57ac92c991bc56fb
:105210001e5fe79fa232e2f715e5cf13bf6f90ce76
:105220003d1fcafc87a20ce0e2503afef4defc2ce3
:1052300098d245522571602aa14454825577cb0bf0
:105240007cfcef26b3b9777ce513e75aaa4d016ed3
:10525000daabd879bf5c9518a209736b57f07cca9a
:10526000c0008526fbde1165b2d6cdf841e8314a93
:10527000dd9e9a7e22727bd6384a08fbffc5f03746
:10528000b53a99ccb1e41b8e1fa58ca5852dd38a88
:105290009c70dd48139128744b990d2b528e53a4aa
:1052a000d10acc826bcca40457ef6b5eae8b11a2fb
:1052b000d2c0d023c636403b4ad66bd947ef5847b9
:1052c000efd07c6833d527bb9fd0921bee0275efe1
:1052d0001328d33f3df13c6816ff6a12154a8d250d
:1052e0005a4f6eac416588287dc5fdfcc3fba913f0
:1052f00080d9b335d7c1886312a58f5e6860aad8fc
:10530000afaf095b282089d6dcf31658dccd727765
:1053100085cb8b345c05bb2edc441f6029fc9af9dd
:10532000e7cc39eca3a1bedfd5704bccbb26e4980b
:10533000f16aae58ad9210c43ea1bdd761aa93e503
:105340000c5191700ea0eaeead38916e17ab794119
:105350005fe520ee7629aee15710bd435af7c84607
:10536000e4dd53c81ab8c97ac3ee0f1c2c0eccf674
:10537000c3ad630c19323a3dfa794609209de0a18c
:105380009c5f3b21d79438a6820478c18c3b4faafe
:105390001eb9a82b51d1b0d4e18ae9ffd4ce1c9f0d
:1053a000766f6ebd40f264ac074c29447c29239390
:1053b000c48f06fadc8cf10a7f5c260892cbbe5bb8
:1053c00093c7af0109d2eeae8881f2a8db53639692
:1053d00039c7b7261383e1140b6fc6df2bb4498c92
:1053e000395dfea79c21bdc082b5a2af2e2502bab1
