:020000024000BC
:1000000003B40148019001BDF12704000000000085
:10001000FFFFFFFFFFFFFFFFFFFFFFFFFFFFFFFFF0
:10002000FFFFFFFFFFFFFFFFFFFFFFFFFFFFFFFFE0
:100030004150503279C63B75B3C3DCD21DB6064D74
:100040000002000000000400582B00000000000027
:10005000054A1368F92B10B504D8044909685C1CDB
:10006000C854146010BD00BF08B000200CB00020C0
:10007000084A13687D2B10B5014609D806485C1C58
:1000800000681460054CC154208801F0E1FF208015
:1000900010BD00BF18B0002010B0002014B0002028
:1000A000C02808B505D0DB2807D1FFF7D1FFDD2038
:1000B00003E0DB20FFF7CCFFDC20BDE80840FFF7C2
:1000C000C7BF00002DE9F843044600F077F92C4B38
:1000D0001A781D46A2B1DC2C03D0DD2C05D1DB2023
:1000E00000E0C020FFF7C4FF06E0264B00221A60A4
:1000F000254B4FF6FF721A8000232B70BDE8F88362
:10010000C02C2FD11F4A13689046002B35D05A1FA0
:10011000772A1D4D1ED81D4CB5F8009022689E1EF2
:100120005F1E915DD35D4FF0000061F3070063F344
:100130000F2080B201F08CFF2368D95D01F088FFA9
:10014000814507D100F040F9114B1B6813B12068BD
:10015000314698470023C8F800304FF6FF732B80D4
:10016000BDE8F883DB2C03D101221A70BDE8F883C7
:100170002046BDE8F843FFF77BBFBDE8F88300BF2A
:100180001CB0002018B0002014B0002010B00020D7
:1001900020B0002013B5124B1B680DF10700DB6A7D
:1001A0009847A8B99DF807301A0704D003F0100348
:1001B00003F0FF043BB100F0E7F8012002F026F95C
:1001C00002F094F906E002F097F9204602F01EF9D9
:1001D00000F0B8F801F022FF01F032FF02B010BDCC
:1001E000D0BA002038B50E4D00242C700D4D28607B
:1001F0000D4803600D48049B03600D4B1C600D4BC4
:100200001C600D4B4FF6FF7018800846114602F037
:1002100069F80A4802F0C0F9BDE83840FFF7BABFF4
:100220001CB0002020B000200CB0002010B0002036
:1002300008B0002018B0002014B00020C500040051
:100240002DE9F0410D46044601F00EFF154F002345
:100250000646C0203B60FFF7FBFE04EB0508444563
:1002600004D014F8010BFFF71BFFF8E7F0B2FFF71B
:1002700017FFC6F30720FFF713FFC020FFF7E8FEC4
:100280003968A9420AD3084B186802F03BF9054BBC
:100290001B68C31A58425841BDE8F0810020BDE8F0
:1002A000F08100BF08B000200CB0002002F0C4B9FB
:1002B00008B101F0BDBE01F0C3BE000038B51E4C50
:1002C0002378BBB91D4A136815460BB1DB68984704
:1002D000012001F083FE1A4A0123237013702B685A
:1002E0000BB11B699847022002F0D0F9BDE83840F5
:1002F00000F026BB2378012B1CD1104A1368154649
:100300000BB1DB689847012002F080F802F0EEF8AC
:10031000022323702B680BB11B699847022002F05F
:1003200099F901F04DFE01F051FE1020BDE8384072
:1003300001F054BE38BD00BF28B00020D4BA002060
:1003400001BD00200D4A136810B514460BB1DB68DF
:1003500098470B4B0B4800221A7001F0D9FD01F0B1
:100360002FFE01F033FE102001F038FE01F022FED6
:1003700023680BB11B69984710BD00BFD4BA002099
:1003800028B00020BD0204000A4A136810B51446C4
:100390000BB1DB689847084B00221A7001F010FE81
:1003A00001F014FE01F0ECFD23680BB11B699847C6
:1003B00010BD00BFD4BA002028B00020014B01229C
:1003C0001A70704701BD0020014B00221A7070475F
:1003D00001BD00202DE9F843224F3B680BB1DB68DB
:1003E0009847214D2B78002B32D0204C204E23688B
:1003F0001B689847236831685B69804698471D4BA6
:100400001A78044602F0FF092AB10022C6F80080DB
:100410001A70194C1EE0194B98421BD92B78BBB1AE
:100420002B78022B05D102F067F8484601F0EEFF69
:1004300005E02B78012B02D1022002F00BF90023FA
:1004400010202B7001F0CAFD01F0C0FD01F0B2FDDB
:100450004FF0FF343B680BB11B6998472046BDE85D
:10046000F88300BFD4BA002028B00020E0BA0020F2
:1004700024B0002001BD0020A08601009F8601005D
:1004800070B58278CB1E9A4206460D464FF00000AA
:1004900018D100F0C7FA044698B10B4B1B685B6893
:1004A000984700236060A360E36031462A4604F168
:1004B000100002F0D3F9054B20461B689847012035
:1004C00070BD70BD70BD00BFE0BA002008BD002047
:1004D0000F4B07B518600F4B1A79B2B90E495A790C
:1004E00000910E4819680E4BFFF77CFE0D4B0E4A2B
:1004F0001A600E4A5A600E4A1A610E4A5A610E4A32
:100500009A600E4ADA600E4A9A6103B05DF804FB05
:1005100008BD0020242B040023B100208104040026
:1005200029B0002010BD002069060400410204002B
:10053000B1020400AD020400A10604001506040087
:10054000D5030400024B1868003018BF0120704723
:1005500004BD002008B5054B9A68054B1B6912B90C
:10056000044A106800B10120984708BD3CBD002036
:1005700010BD002004BD002038B5044608B901258F
:1005800011E0836800F1100503B19847A17C074B87
:1005900028465B6803319847054620B1E368002B85
:1005A000EDD020469847284638BD00BF10BD00203A
:1005B00038B504460078842807D1134D2B685BB901
:1005C000124801F085FD286006E000F0BBFAB0B1EA
:1005D000E378012B13D1F0E72D680B4C7DB10C4B68
:1005E0001B786B7400F0A4F9E8742068FFF7C4FF6F
:1005F000054620B90548216801F060FD2560BDE889
:100600003840FFF7A7BF00BF04BD00203CBD00205D
:100610000CBD00202DE9F0410446007C00F092FA68
:100620000646C8B10E4F386804F11008A0B10D4D50
:10063000617C2A7891420CD1027C217C42F08002BC
:10064000914206D100F00AFA00233B602B78013377
:100650002B704046FFF7ACFF3046BDE8F08100BF8D
:1006600004BD00200CBD002038B50B4D2B681BB914
:100670000A4801F02DFD28602868074C58B1FFF7A3
:100680007BFF40B120681030FFF792FF206800F038
:10069000E5F90023236038BD2CBD002048BD0020B3
:1006A0007047000008B5014630B1044801F0F9FC7C
:1006B000BDE80840FFF74EBF08BD00BF3CBD0020AD
:1006C00010B50446034801F0EAFC10B1037CA342D4
:1006D000F9D110BD3CBD002038B5254D254B002279
:1006E0001A602B68DB689847234801F0F1FC2B68FF
:1006F000224D1B690446984704B3EB68204698478F
:10070000B8B9207C00F006FA18B1204600F0AAFC27
:1007100026E0207C00F006FA18B1204600F068FDC3
:100720001EE0207C00F006FA18B1204600F012FA14
:1007300016E0AB689847204600F090F92B68984780
:10074000AB6998470C4B9B682BB90D4B9B680033EA
:1007500018BF012300E00123002B18BF002038BD83
:100760000028E6D00648214601F09BFCE6E700BFE2
:10077000D4BA0020A4B1002030BD002010BD00205C
:1007800048BD002037B51548154C01F083FC1548CD
:1007900001F080FC144801F07DFC00F003F91348DF
:1007A000FFF796FE23689B689847114B1B68054628
:1007B0005B6801A804219847012D05D1019BDB0747
:1007C00002D523681B68984701F0EAF9FFF76AFF32
:1007D000084B00221A6003B030BD00BF30BD0020BE
:1007E000D8BA00203CBD002048BD00207909040093
:1007F000E8BA0020A4B100202DE9F04180463F2056
:100800000F461646FFF75CFF0025044620B901207D
:1008100000F008F901250446404639463246234691
:1008200001F0DAF925B12046BDE8F041FFF73ABF03
:10083000BDE8F08138B52220FFF742FF00250446CD
:1008400020B9012000F0EEF801250446204601F011
:1008500018FA25B12046BDE83840FFF723BF38BD60
:1008600037B50546012000F0DDF8044688B10A4B93
:100870001B6801A85B699847019800F01DF92246A2
:100880000146284600F030FC2046FFF70BFF002011
:1008900000E0022003B030BDD0BA002038B50546D4
:1008A000012000F0BFF8044650B128464FF0FF3158
:1008B000224600F019FC2046FFF7F4FE002038BD68
:1008C000022038BD2DE9FF47804601200F4616461D
:1008D0001D46DDF830A09DF8349000F0A3F80446E2
:1008E00088B1504600F0E8F802948DE801023946DC
:1008F000404632462B4600F0DBFB204604B0BDE804
:10090000F047FFF7CFBE04B0BDE8F08738B5054625
:1009100068B1012000F086F8044640B1284621461F
:1009200001F077F92046BDE83840FFF7BBBE38BD7F
:10093000024B9868003018BF012070473CBD002072
:1009400038B50A4C2368DB689847094B01221D68BB
:100950001A6023681B69984735B9236805489B6866
:1009600029464FF4FA52984738BD00BFD4BA002048
:10097000A4B10020D906040038B5084C2368054608
:10098000DB6898472946064801F08BFB23681B6902
:100990009847BDE83840FFF7D3BF00BFD4BA002066
:1009A00030BD002070B5184E184C194B1948A41BC7
:1009B0008C25B4FBF5F510356A081A6001F06AFB66
:1009C00000214FF40C62144801F06CFF22463046BF
:1009D000002101F067FF00240F490E4821448C34A8
:1009E00001F06CFBB4F50C6FF6D110240B4B8C218D
:1009F000AC4201FB043104D2064801F05FFB013434
:100A0000F4E7074B196070BD58BD0020F8EF0020D7
:100A1000A8B10020ACB10020B8B1002098B40020EB
:100A200000B0002070B50B4C23680646DB68984781
:100A300025461EB1084B9B68022B04D9064801F0DD
:100A400047FB044600E000242B681B6998472046BA
:100A500070BD00BFD4BA0020ACB1002070B50C4D01
:100A60000C4C2B680646DB6898472046314601F05F
:100A700025FB2B681B699847074BA2681B689A42A5
:100A800004D3064B1B6801201B6A984770BD00BF4A
:100A9000D4BA0020ACB10020A8B10020E4BA0020F4
:100AA000431C04D0034B002808BF184670476FF062
:100AB0007F407047FEFFFF006FF07F43984204D0F5
:100AC000013B984208BF002070474FF0FF3070474D
:100AD00000F17F430233B3F17F4F08D8054B00F19B
:100AE0000040013898428CBF00200120704701204F
:100AF000704700BFFCFFFF0010B500238B4204D2FB
:100B0000C45C944203D00133F8E7002010BD0120FB
:100B100010BD0000024603210148FFF7EDBF00BFF2
:100B2000DA280400024618210148FFF7E5BF00BF9C
:100B3000B4280400024603210148FFF7DDBF00BFCF
:100B4000D728040002460B210148FFF7D5BF00BF9C
:100B5000CC280400F0B5037C0E2B89B0044606D0E7
:100B6000162B00F0BA810D2B40F0D8810BE1827C6E
:100B7000B0F81370022ABBB240F0D0815E1E162E70
:100B800000F2EE80072B26D14FF4004001F096F8DA
:100B9000F0B1894B9D5D0023162E00F2C181DFE884
:100BA00016F01D00290033003F0059007D005D0054
:100BB0006100630069007000770081008B008F0086
:100BC000A100A700AF00BF01B800CC00C300C70060
:100BD00000250623C6E04FF40070D7E7774B1B686B
:100BE00004A85B699847002840F0B5800498FFF797
:100BF00063FF7BE0714B1B6805A8DB699847002801
:100C000040F0A980059B82E06C4B1B680DF10B0046
:100C10005B6A9847002840F09E809DF80B3076E094
:100C2000664B1B6806A8DB6A9847002840F0938053
:100C30009DF8183003F00F02022A9CBF6049885CBF
:100C4000DA0644BF40F01000C0B25E064ED560F038
:100C50007F0021E05B4B1B681B6946E05A4B1B6819
:100C6000DB6842E00C2352E0584B1B685B689847F6
:100C7000000E3BE0554B1B685B689847C0F307408C
:100C800034E0524B1B685B689847C0F307202DE0A7
:100C90004E4B1B685B689847C0B227E0494B1B6806
:100CA0005B6922E0454B1B68DB6B0020984708B965
:100CB000062052E0052050E0404B1B685B6BF4E7D8
:100CC000ADF81430ADF818303C4B1B6805A8DB6D4F
:100CD00006A99847BDF818309DF814201B029BB256
:100CE000134314E0374B1B68DB6A984703902AE0F4
:100CF000374B1B6806A89B6A08219847069B06E0AD
:100D0000334B1B6806A89B6A08219847079B0393EF
:100D100019E008A820F8083D284B1B68DB6C9847B1
:100D2000BDF8183003930DE0244B1B685B6807E0A7
:100D3000224B1B680020DB6803E0204B1B685B6DC7
:100D400003A8984738B904F1170003A92A4601F00F
:100D500085FD002001E0082803D81E4B1B5C01E044
:100D6000002501238E21002221740421A260E2606B
:100D7000A1741BB96A18A274A57500E0A275E3748A
:100D8000A7820120D0E0427D817CB0F8133003328D
:100D9000914240F0C3805D1E162D00F29680162B06
:100DA0001AD100F07DFF20B94FF4807000F086FF6B
:100DB000A0B906238CE000BFE0280400D0BA0020D0
:100DC000DD280400E4BA0020B8BA0020C8BA002028
:100DD000D4BA0020F7280400172BE5D1534B627DCD
:100DE0005B5D9A4273D10023042A04F11606069330
:100DF00003D806A8314601F031FD162D00F292808D
:100E0000DFE805F00C13171E909090909090909052
:100E10003F439090909090474E5257000698FFF7AE
:100E20003FFE434B1B689B6947E0414B1B681B6AB5
:100E30003DE03F4B9DF818001B689B6A98473DE0DA
:100E4000069AD1B201F00F03022B07D0032B03D077
:100E5000012B38D1002002E0022000E00120C90669
:100E600048BF40F010001306314B1B6848BF40F0EC
:100E700040001B6B984708BB0190FFF78BF9019866
:100E80001EE02B4B1B681B6C16E0294B1B689B6BF1
:100E900012E0274BBDF818001B681B6D98470DE04A
:100EA000234B1B689B6D02E0214B1B689B680698D7
:100EB00003E01F4B1B681B6930469847082804D87D
:100EC0001C4B1B5C04E0042302E0012300E003232D
:100ED0000022A260E2608D221BE0837C042B1DD1E6
:100EE0004FF4805000F0EAFE60B1D4F81320124BAA
:100EF0009A4209D10E4B1B681B689847031C18BF08
:100F0000012302E0032300E002230022A260E2604A
:100F1000962201202274A074E37405E0002003E00F
:100F200002201AE70220CBE709B0F0BDE028040058
:100F3000D0BA0020F7280400446F497410B5044665
:100F400070B1084B1B685B689847227C63686060DF
:100F5000032A05D1D4F81F20D31A1844C4F81F005F
:100F600010BD00BFE0BA0020F0B5044689B094F887
:100F70002130A27C0F3300209A4201906BD1237C58
:100F80000120012B0CBF81279F2700F097FE00282E
:100F900052D0D4F81600FFF79BFD00284ED0237FD7
:100FA00013F0010218BF01228DF81B209A0705D506
:100FB0009DF81B2042F008028DF81B2013F03C0323
:100FC00008D09DF81B209B1042F004028DF81B20D6
:100FD0008DF81E30E37E0BB1012B31D18DF81A3024
:100FE0001E4B1F4E1B685B689847D4F81D20636832
:100FF000D31A184404F1220305900293D4F8160082
:1010000094F821300393FFF74BFDE37C227D04909D
:1010100043EA0223ADF81830637D8DF81C30A37EBF
:101020008DF81D30336802A8DB69984733680546A0
:101030009B6901A8984704E00A2502E0052500E025
:1010400002250023A360E3600423A374019B27749B
:10105000A3756575012009B0F0BD00BFE0BA00209E
:10106000E4BA002038B5037C012B044602D01F2BC4
:1010700018D01BE0457F827C05F10B039A4215D105
:10108000223004F11E012A4601F0F1FB00236377B0
:10109000A377E37784F82030A37C84F821500433CD
:1010A000A3742046BDE83840FFF75EBF002038BD7E
:1010B00030B5059C34B10025A560E5600225257496
:1010C0000E25A574E3619DF81030A082002583F001
:1010D00001030398E276E574A17584F82030656019
:1010E000C4F8170030BD000038B543681133054619
:1010F0001446D8B22AB100239360D360032313743B
:1011000090746B7C2376AB686361C4F81910AB7C78
:1011100063772B7C03F00303A377EA7C920002F051
:101120003C021343A37795E8060004F1240001F084
:1011300095FB084B1B685B689847074BA360EB68FF
:10114000C4F81F300023E3746B6884F823306060B8
:1011500038BD00BFE0BA00203D0F040003469A07E7
:1011600000F0010044BF40F00400C0B2590748BF7E
:1011700040F002001A0748BF40F00800D90648BFF7
:1011800040F010009A0648BF40F020001B0648BF00
:1011900040F080007047000008B5044B5B69984739
:1011A000034B1B685B68984708BD00BF10BD00205B
:1011B000D8BA0020064B13B51B685B6804469847F5
:1011C00002AB43F8040D1868C4F8170002B010BD54
:1011D000E0BA002038B5054640B1FFF7A9FB044648
:1011E000FFF7B0F9002818BF0124EC7438BD0000E7
:1011F0002DE9F047037C1E2BA6B0044600F0448383
:101200002CD8172B00F0198212D8062B00F08480FE
:1012100006D8042B00F00582052B5BD000F0AEBC95
:101220000B2B00F0A6810C2B00F0E18000F0A6BC97
:101230001A2B00F0AE8207D8182B00F02082192B51
:1012400000F0538200F09ABC1B2B4FF0000500F019
:10125000CF821C2B00F0E88200F090BC3B2B00F00A
:101260009A8012D8382B00F0CE8307D8202B00F0BC
:101270004D83212B00F0B08300F080BC392B00F0AF
:10128000E0833A2B66D000F079BC422B00F02F842B
:1012900007D8402B00F0FE83412B00F0148400F0AF
:1012A0006DBC4F2B00F03A84502B4FF0000200F041
:1012B0004B844C2B40F06284CC230374042383744E
:1012C000974B82601B68C2605B699847C4F8130043
:1012D00000F022BC837C012B40F05084042000F0FD
:1012E000EDFC98B1E07C003018BF012000F022FD39
:1012F000002840F043848B4D2B681B68984730B121
:101300002B689B689847FFF729FF00E080200023A7
:10131000A360E360852372E3857C002D40F02E847A
:10132000082000F0CBFC28B1284600F003FD10B1E6
:1013300000F024BC80200023A360E3600125862305
:101340002374A574E074002840F02084764BE36099
:1013500000F01CBC837C532B40F01084102000F064
:10136000ADFC40B1714BE17C1B68A28A9B6A04F121
:101370001600984700E005200023A360E360BA232D
:10138000042823744FF00103A37496BF684B042311
:101390001B5CE374C0E3837C002B40F0EF832020D0
:1013A000ADF814308DF8043000F088FC40B15F4B8C
:1013B0001B6804F117005B6A01A905AA984700E0C1
:1013C00005200023A360E360BB2323745423A3748C
:1013D000BDF81430A4F815309DF8043023750028AA
:1013E00000F02D8302280CBF0120022027E3837C1C
:1013F000B0F81380022B1FFA88F740F0BF837D1EE0
:101400000C2D00F29F800C2F17D14FF4004000F0FC
:1014100055FC78B1474B04F117095E5D00230C2D94
:101420007AD8DFE805F0131B2D7931353F66434B41
:101430005F6568000026062386E0042F01D0072F91
:1014400002D14FF40010E2E78020E0E7354B1B6843
:101450009B689847FFF782FE019051E026A8DFF8CD
:10146000CCA040F8843DDAF800309B699847DAF860
:1014700000305B6905469847059BC01A01903EE025
:101480002A4B1B689B6930E0264B1B689B6A2CE04B
:10149000294B1B6801A85B6804219847019B03F056
:1014A000010326E01F4B1B68DB681EE0ADF802302D
:1014B000ADF81430214B1B685B6C06E0ADF80230D0
:1014C000ADF814301D4B1B681B6E0DF1020005A911
:1014D0009847BDF81420BDF8023003EB02430546DF
:1014E00001930CE00F4B1B685B6901A8984705E06E
:1014F0007023019304E0484600F09CFC054645B982
:10150000042E00F23D83484601A9324601F0A6F9B7
:1015100036E3082D17D800E00225094B5B5D13E088
:10152000CCBA0020D8BA002099110400E4BA0020F7
:101530000D29040000290400E8BA0020D0BA0020D8
:1015400012290400002601238C2100222174042189
:10155000A260E260A1743BB97218082FA274A6754C
:1015600003D19B4AA26000E0A275E374A4F8148042
:10157000D2E2437D827CB0F8135003339A4240F0AC
:10158000FD826E1E0C2E42D8402000F097FB0028F2
:101590003FD0904B627D9B5D9A423CD10023042A50
:1015A00004F11606059303D805A8314601F056F953
:1015B000053D082D00F2E682DFE815F00900100075
:1015C000E402E4021900E402E402E4022100824B96
:1015D0009DF814001B68DB6A984713E00598012802
:1015E00000F2D28200F0010000F0A4FB0AE07B4B85
:1015F00005991B6888B29B6C090C984702E030463D
:1016000000F0F8FB082802D8754B1B5C04E00123AE
:1016100002E0062300E003230022A260E2608B22A6
:101620004CE2837C002B40F0A982C36084230374C6
:1016300001256C4B85748360A8E2837C052B40F008
:101640009D824FF4005000F039FB80B1624B1B6863
:101650009B68984768B1644BD4F813001B68E17D20
:101660001B6C9847002814BF0223002302E00423C8
:1016700000E001230022A260E26097221EE2C37D07
:10168000827C05339A4240F07982534B467C1B683A
:101690009B689847E8B1544BD4F813001B68E17D70
:1016A0005B6C04F1180298470138062805D8DFE87A
:1016B00000F01206080A0C0E0E0000230CE00223B4
:1016C0000AE0042308E0052306E0062304E00723DC
:1016D00002E0032300E001230022A260E260012572
:1016E00098222274A5746674EBE1837C002B40F091
:1016F00045828360C36099230374182383744FF475
:10170000004000F0DBFA054600283BD0364E336837
:101710005B6898473368C4F813001B6998473368BF
:10172000A4F81700DB689847336860765B699847D0
:101730003368A0769B6998473368E076DB69984701
:101740003368E0615B6A9847336820841B6A984776
:10175000336884F822009B6A9847244BC4F823001E
:101760001B685B689847C0F3076384F82730C0F3B1
:10177000074384F82830C0F3072384F8293084F81D
:101780002A0003E204F113000021182201F08AF874
:10179000C2E1837C002B40F0F1814FF4005000F057
:1017A0008DFA68B10C4B1B689B68984750B10E4B83
:1017B0001B689B6C9847002814BF0223002302E09B
:1017C000032300E001230022A260E2609A2275E177
:1017D000B511040000290400D8BA0020D0BA0020B6
:1017E00012290400D5110400B8BA0020C8BA00209C
:1017F000837C002B40F0CA814FF4005000F05EFA69
:1018000050B1984B1B689B68984738B1964B1B6842
:10181000DB6B9847002302E0022300E00123002253
:10182000A260E2609B2249E1837C8DF81450042B76
:1018300040F0AC818D4B1B6805A8DB6A98470546D4
:101840004FF4802000F03AFAA0B1864B1B689B68E9
:10185000984788B99DF814301A070FD175B9824B93
:10186000D4F813001B681B6D9847002814BF03238E
:10187000002304E0042302E0012300E0022300220D
:10188000A260E2609C2219E1837C0025072B8DF881
:10189000145040F07B81754B1B6805A8DB6A9847A4
:1018A00005464FF4002000F009FA08B36D4B1B68A1
:1018B0009B689847F0B99DF814301B071CD1DDB91F
:1018C000E17D4B1EDBB2FD2B18D8674BD4F813001B
:1018D0001B68228B5B6D9847072809D8DFE800F06A
:1018E000040808100808060A00230AE0032308E099
:1018F000062306E0012304E0022302E0042300E0C3
:1019000005230022A260E2609E22D7E0867C002EA2
:1019100040F03481A0230374692383748660C66019
:1019200031466822143000F0BDFF4FF4001000F083
:10193000C5F90546002800F0EF804A4B1B6805A852
:101940001B6A9847002845D106AE0027059B9F4299
:101950003BD200210D2201A800F0A4FF3068FFF760
:10196000ABF80190737A8DF80B30337A8DF80A302A
:10197000B388ADF80F30B3798DF80830F3798DF86E
:101980000930337B8DF80E30F37A8DF80D30B37A51
:1019900023B1012B18BF02238DF80C300D2303FB5C
:1019A000074301AA14330DF10C089446BCE8030068
:1019B000C44518605960624603F10803F5D1106808
:1019C000186012791A71082F01D1059B79E0103641
:1019D0000137BBE7E674D1E0837C002B40F0CE807A
:1019E0004FF4800000F06AF920B11E4B1B68DB69E0
:1019F000984700E002200023A360E360A1230125B3
:101A00002374A5749EE0837C012B40F0B7804FF0D7
:101A1000007000F053F928B1124BE07C1B685B6B3F
:101A2000984700E008200023A360E360B8232374F4
:101A30000123A37418B105280CBF18460220E074D6
:101A40006AE0837C002B40F099804FF080608DF835
:101A5000143000F033F958B1024B1B6805A81B6B1A
:101A6000984706E0D8BA0020B8BA0020D0BA0020C3
:101A700008200023A360E360B92323740223A37426
:101A800018B105280CBF012018469DF81430E074E9
:101A9000237541E03F4BD0F813001B68D4F81710B2
:101AA0001B689847072898BF3B4B4FF0000298BF30
:101AB0001B5CA260E26088BF0623C022012522745D
:101AC000A574E37462E0334B1B685B68984700239E
:101AD00020B107280CBF0122062200E01A46A360AD
:101AE000E3600125C1232374A574E2744EE0002352
:101AF0008360C360274DC2230374052383742B685E
:101B00009B68984701281CBF0223E3742B6808BF19
:101B1000E074DB6898476061012537E0837C032B24
:101B200007D11E4BC07C1B68A18A5B6B98470125BF
:101B300001E0032000250023A360E360CF2323748A
:101B40000123A374E07421E0857CADF81420012DFD
:101B500006D1124BC07C1B6805A99B6B984701E01E
:101B6000032015460023A360E360D0232374BDF84F
:101B70001430A3820323E074A37407E0002505E07A
:101B80000025CAE402203FE503203DE5284626B0B3
:101B9000BDE8F087CCBA00201B290400E4BA00207D
:101BA00038B50120FEF73EFF044680B107230374D9
:101BB00002238374074B00251B6845749B6885606E
:101BC000C56045609847FFF7C9FAE574207520465F
:101BD00038BD00BFD8BA002070B50E461C46BBB158
:101BE00000259D60DD603F2323745423A37404F11A
:101BF0001703A4F815202075FF21184650226560B0
:101C0000657400F04FFE3146502200F027FEE57467
:101C100070BD38B505460C4631B100238B60CB60F2
:101C20001D230B741F238B7400236374E374A86853
:101C3000FEF742FF2B68A361AB8A6061A383AB7E92
:101C4000A3772B7FE377EB6884F820306B68C4F8C8
:101C50002130EB8AA4F82530EB7E84F827302B69FD
:101C6000A3626B7F84F82C30AB7F84F82D30EB7F40
:101C700084F82E3095F8203084F82F302B8B238673
:101C800038BD58B12222027402220023827401223C
:101C90008360C360436043740275C374704700007F
:101CA00008B5054B1B680020DB689847D0F10100A0
:101CB00038BF002008BD00BFD0BA002013B50446CD
:101CC000FFF7EEFF70B102A84FF0FF3240F8042D8D
:101CD000064A12685268904701982040031B5842F8
:101CE000584100E0012002B010BD00BFD0BA002072
:101CF00008B5034B03481B681F211B68984708BDA4
:101D0000E8BA002079BA002008B5074B1A7842B922
:101D100001221A70054B06481B681F215B68984713
:101D200008BD002008BD00BF78BA0020E8BA002036
:101D300079BA002010B50446FFF7E6FF034B1C708C
:101D400018B9BDE81040FFF7D3BF10BD79BA002025
:101D500010B50446FFF7D8FF064B224603F11C01DD
:101D600053F8044B42F8044B8B42F9D11B88138083
:101D700010BD00BF7ABA002010B50446FFF7C4FFBB
:101D8000084A234604F11C0153F8044B42F8044B63
:101D90008B42F9D11B88138018B9BDE81040FFF7BA
:101DA000A7BF10BD7ABA002010B58AB0044602A8B9
:101DB000FFF7CEFF08B1002017E003460AAA002172
:101DC00042F8241D02A9194408888978ADF8040056
:101DD0009170019A0649501E884201D8A24203D050
:101DE00003331E2BEAD1E6E701200AB010BD00BF85
:101DF000FCFFFF0070B505468AB0002405EB8403A4
:101E00000B4918680190019A8A420ED804EB4401EC
:101E100002AA88181E889B788E520134837010465F
:101E2000FFF7AAFF0A2CE9D100E003200AB070BD39
:101E3000FDFFFF0070B58AB0044602A8FFF788FFD7
:101E40000146B0B903460AAA02AD00201D4442F87B
:101E5000240D2E88AD78ADF804609570019D064E76
:101E6000B54288BF01900333106844F8040B1E2B61
:101E7000E9D108460AB070BDFDFFFF00684620F0BA
:101E800007010D4B8D4601B5D3F81C24D3F8283437
:101E90001A4092B20023D10704D501200649984088
:101EA000C1F824040233102B4FEA9202F3D1BDE8AB
:101EB00001408546704700BF00A000406846124BB5
:101EC00020F007018D4631B5D3F81C54D3F82834DF
:101ED0001D40C5F34E050124EB070BD50A4B01222B
:101EE000A240C3F82424094B03EB440353F8023CFB
:101EF00003B198470234112C4FEA9505ECD1BDE8A7
:101F000031408546704700BF00A0004098BA0020CD
:101F100038B5164B164C0022C3F828244FF0FF3278
:101F2000C3F82424134A1060D3F8002422F0F002EE
:101F3000C3F80024236813B11B6A0A20984723685A
:101F40002BB19D690C4B01200A210022A847236870
:101F500013B11B6A1220984723682BB19C69074B69
:101F6000012012210022A04738BD00BF00A0004080
:101F7000D4BA002098BA00207D1E0400BD1E0400C3
:101F800010B50B4C236813B1DB690A20984723680E
:101F900013B11B6A0A209847236813B1DB6912202A
:101FA0009847236813B11B6A1220984710BD00BFE1
:101FB000D4BA0020014B01221A60704704851442F4
:101FC000014B00221A60704704851442024B022222
:101FD000C3F82424704700BF00A00040044B00F069
:101FE0000102C0F300101A60C3F88000704700BF00
:101FF00004821442084BD3F8B02042F00802C3F820
:10200000B020A3F55A239A6E22F0F0029A66DA6E97
:1020100022F40072DA66704700400E40034B9A6E5D
:1020200022F0F00242F040029A66704700A00040A1
:10203000024BDA6E22F40072DA66704700A00040AC
:10204000024BDA6E42F40072DA66704700A000407C
:1020500081EA1021034B33F8113083EA002080B26B
:10206000704700BF2429040030B500224FF6FF73EB
:102070008A420AD0855C064C85EA1325013234F881
:10208000154084EA03239BB2F2E7184630BD00BF37
:1020900024290400002303604360836070470068C4
:1020A000704703680BB9016001E0436819600023C1
:1020B00041600B60836801338360704703680B6085
:1020C0004368016003B941608368013383607047EE
:1020D0000346006840B19A68013A9A6002681A6043
:1020E00002B95A6000230360704700002DE9F04FE9
:1020F000494BDFF87481186085B00446836847480F
:10210000474F484E484DDFF86491DFF864A1DFF88F
:1021100064B14FF401719847A368C8F8000040F219
:10212000032142489847A368386040F201214048A3
:102130009847A368306040F201213E489847A36861
:1021400028604FF400713C489847A368C9F8000024
:1021500040F2012139489847A368CAF800004FF4BB
:10216000007137489847A368CBF800004FF400711E
:1021700034489847344B4FF400711860A3683348D3
:102180009847334AA36810604FF4007101923148B8
:102190009847DFF8E4C0A368CCF8000040F20121C2
:1021A000CDF808C02C4898472C4BA46818604FF411
:1021B000007103932A48A04701462A48039B016007
:1021C000D8F80000019ADDF808C0F8B13868E8B125
:1021D0003068D8B12868C8B1D9F80000B0B1DAF8D1
:1021E000000098B1DBF8000080B1106870B1DCF835
:1021F000000058B1144802682AB11B682BB1081CB2
:1022000018BF012002E0002000E0184600F00100A5
:1022100005B0BDE8F08F00BFC8BA002061F103002F
:10222000D0BA0020D8BA0020D4BA002076D6CE7416
:1022300065C1F902D51BDB774DC2130015FF4E01B6
:10224000AFD6137738230F00B8BA0020B830B90CD6
:10225000DCBA00206830B90C1808F202CCBA0020B1
:10226000493BFD01C4BA0020E4BA0020E0BA0020D6
:10227000BCBA0020E8BA0020C0BA0020044B0548D0
:10228000D3F80C31C3F308230133B0FBF3F07047EC
:1022900000400E4000F04902054BD3F8C02010B1B9
:1022A00042F0080201E022F00802C3F8C0207047A3
:1022B00000400E406846094B20F0070108228D4679
:1022C00001B5D8699A64064B1A6812B11B68C0B28E
:1022D0009847BDE801408546704700BF00000140B7
:1022E000F0BA00203F4BF7B5D3F8B0203E4E42F095
:1022F0000802C3F8B020A3F55A2307465A6822F013
:102300000F025A60DA6822F00102DA605A6822F09D
:10231000F0025A60DA6822F00202DA60334A0023DF
:1023200053801380324A1360324A1370324A13606A
:10233000336813B1DB690C209847336813B11B6A0B
:102340000C209847326812B1D3690D209847326843
:1023500012B1136A0D209847284C0120FFF79CFF0B
:1023600003236367002541F20503A567E560256047
:10237000E565A5656360FFF781FFBB005A0802EBC6
:1023800040100190019AB2FBF3F30193019B203BB3
:102390000193019BDB000193019A194B13400193B8
:1023A000236823F060032360236843F06003236005
:1023B000019B6361134BE564A3640423E36033680A
:1023C00013B11B6A0D20984733682BB19C690E4BE3
:1023D00001200D210022A0470020FFF75DFF03B080
:1023E000F0BD00BF00400E40D4BA0020F6BA002075
:1023F000F0BA0020F4BA0020ECBA0020000001403E
:10240000F8FF7F00F9FF01008D2404001C4A1368C7
:1024100070B5064615460BB1DB689847194C236822
:102420008EB163B90120FFF737FF012000F02EF9CC
:10243000154B5A6822F00F0242F004025A602368DA
:102440000133236016E013B12368013B2360246845
:1024500084B90D4B5A6822F00F0242F002025A6012
:10246000DA6842F001020120DA6000F0F3F8204659
:10247000FFF712FF2B680BB11B69984770BD00BFB7
:10248000D4BA0020ECBA002000A00040684620F03A
:1024900007018D46114A19B501239364104B5988E1
:1024A000013189B259801888598880B289B288422E
:1024B00007D05988C1F308010B441B79DBB2536381
:1024C00007E0084B00241C602046FFF79FFF064BE7
:1024D0001C70BDE819408546704700BF00000140F0
:1024E000F6BA002080092042F4BA0020014B0122F4
:1024F0001A60704780012042014B01221A60704728
:10250000840120421F4AF8B5136806460D46174657
:102510000BB1DB6898471C4C22886388D31A9BB2A6
:10252000C3F50073AB4226D32288638892B29BB274
:1025300071198E420CD0208816F801CBC0F3080028
:10254000204480F804C02088013080B22080F0E769
:102550009A4211D10120FFF759FF0C4A0123136061
:102560006288C2F308021444094A2179C9B251634E
:10257000084A137000E000253B680BB11B699847BF
:102580002846F8BDD4BA0020F6BA002080092042BF
:1025900000000140F4BA002070B5214C23680646C3
:1025A0000BB1DB6898471F4B1F4D1E600120FFF7E2
:1025B00073FE23689EB12BB19E691C4B01200C2138
:1025C0000022B04701232B60194B5A6822F0F00219
:1025D00042F020025A60DA6842F002020DE013B1C4
:1025E000DB690C20984700232B60114B5A6822F0BE
:1025F000F0025A60DA6822F00202DA600D4BDA6902
:1026000008229A640020FFF747FE236813B11B6A73
:102610000C20984723680BB11B69984770BD00BF19
:10262000D4BA0020F0BA002088092042B522040064
:1026300000A0004000000140024B1B78002BFBD1A2
:10264000704700BFF4BA0020014B00221A607047A7
:10265000FCBC002038B50B4C236805460BB1DB6889
:102660009847094B1A6822EA05001860186818B9DB
:1026700023680BB15B69984723680BB11B699847C6
:1026800038BD00BFD4BA0020FCBC002038B50A4CCD
:10269000236805460BB1DB689847084B1A6845EA82
:1026A00002001860236813B15B6901209847236812
:1026B0000BB11B69984738BDD4BA0020FCBC002080
:1026C00010B5044C23781BB9FFF7BEFF012323701C
:1026D000012010BD00BD0020034608461946FEF744
:1026E0008BB8FEF7A7B8FEF711B913B503460089FA
:1026F0001C68997ADA7A00941C7B01945B68FEF777
:10270000E1F802B010BD00001FB52B4CFFF7EEFC46
:10271000FFF7D6FFFFF76EFCFEF734F81E212748BF
:10272000FFF7F0FE236826481B6898472368254872
:102730005B689847236824489B6898472368234C24
:10274000DB6823489847236822485B6E9847224BF2
:1027500022481B68DB6C9847214B22481B680121EB
:102760009B699847236811201B6B984710BB23680F
:1027700002A85B69984728B9236803A8DB699847D2
:1027800038B90CE0236818489B6998470028F3D0B3
:1027900010E00E4B15481B681B6A984750B9236818
:1027A0000DF107005B6A984720B1084B1B680220B7
:1027B0009B6A984704B010BDE4BA00202C2B04009B
:1027C000610804009D080400EB260400D0BA002034
:1027D000D9260400A91D0400B8BA0020E726040089
:1027E000D8BA0020E32604008A969800C3B2A1005C
:1027F00038B51D46036804469847B0F5007F1ED3E0
:1028000010491148401A20F003000022824204D0EF
:102810000E4BD3588B500432F8E70D490D4B5B1A21
:1028200023F0030300229A4203D000208850043290
:10283000F9E72046FFF768FF074B1B682B60002075
:1028400038BD00BF00B0002008B00020502B0400AD
:1028500008B0002058BD002000B0002010B50023B3
:10286000934203D0CC5CC4540133F9E710BD8142DC
:1028700070B501D300230EE08C18A042FAD285185F
:10288000134613F1FF3305D3514266182944F65C11
:10289000CE54F6E770BD934203D0CC5CC4540133F0
:1028A000F9E770BD02440346934202D003F8011BCE
:1028B000FAE770470405060B0C1718191A1B1C1EA3
:1028C000202138393A3B4041424C4F50828387BFE8
:1028D0009DA2BDBEC2C9CC0D0E16011F3C01020354
:1028E00004030101010101020202020210100201AF
:1028F000020201020404100001010404040502069E
:102900000101010101010104040402012800010484
:102910000302000101040104010206000606050687
:102920000206010000002110422063308440A550BF
:10293000C660E770088129914AA16BB18CC1ADD105
:10294000CEE1EFF13112100273325222B5529442AD
:10295000F772D662399318837BB35AA3BDD39CC355
:10296000FFF3DEE36224433420040114E664C774F9
:10297000A44485546AA54BB528850995EEE5CFF5A5
:10298000ACC58DD55336722611163006D776F6664D
:102990009556B4465BB77AA719973887DFF7FEE7F5
:1029A0009DD7BCC7C448E5588668A7784008611819
:1029B00002282338CCC9EDD98EE9AFF94889699945
:1029C0000AA92BB9F55AD44AB77A966A711A500AED
:1029D000333A122AFDDBDCCBBFFB9EEB799B588B95
:1029E0003BBB1AABA66C877CE44CC55C222C033C39
:1029F000600C411CAEED8FFDECCDCDDD2AAD0BBDE5
:102A0000688D499D977EB66ED55EF44E133E322E8C
:102A1000511E700E9FFFBEEFDDDFFCCF1BBF3AAF34
:102A2000599F788F8891A981CAB1EBA10CD12DC192
:102A30004EF16FE18010A100C230E3200450254028
:102A400046706760B9839893FBA3DAB33DC31CD388
:102A50007FE35EF3B1029012F322D2323542145278
:102A600077625672EAB5CBA5A89589856EF54FE5D4
:102A70002CD50DC5E234C324A014810466744764C8
:102A800024540544DBA7FAB79987B8975FE77EF728
:102A90001DC73CD7D326F2369106B0165766767618
:102AA000154634564CD96DC90EF92FE9C899E989F4
:102AB0008AB9ABA94458654806782768C018E10868
:102AC0008238A3287DCB5CDB3FEB1EFBF98BD89BC8
:102AD000BBAB9ABB754A545A376A167AF10AD01AB8
:102AE000B32A923A2EFD0FED6CDD4DCDAABD8BAD14
:102AF000E89DC98D267C076C645C454CA23C832C08
:102B0000E01CC10C1FEF3EFF5DCF7CDF9BAFBABF67
:102B1000D98FF89F176E367E554E745E932EB23E57
:102B2000D10EF01E00C20100000000006475616C4F
:102B30006D6375207465737420796F737369207287
:102B40006174652031313532303000000000000002
:082B500058BD00200000000048
:0400000340000000B9
:00000001FF
