:020000040000fa
:10000000e8ff0020090400007104000071040000f2
:10001000710400007104000071040000710400000c
:1000200071040000710400007104000071040000fc
:1000300071040000710400007104000071040000ec
:1000400071040000710400007104000071040000dc
:1004000006000000000000001049086800281bd00a
:100410000f4a90470d490868002815d00d4a012061
:1004200010600d4a11600d49012008600c4a00203f
:100430001060082008600b4a10684008fcd2054a8a
:10044000002010600848004708480047fc41e00fc2
:10045000ef05000008000e4010000e400c000e409a
:1004600018000e401c000e40710400009d040000a6
:10047000bff34f8f054906480860bff34f8f05490a
:1004800005480860bff34f8ffee7000000500e40a4
:10049000444400000ced00e00400fa0500b5444ab5
:1004a0004448801a91b020f0030000231446834290
:1004b000414a03d0d158e1500433f8e73f4940485e
:1004c000401a134420f003000022824203d000248b
:1004d0008c500432f9e73b493b4c641a24f0030486
:1004e0000022a24203d0985888500432f9e7374ad4
:1004f0003749891a21f0030100238b4207d00020dd
:10050000d0500433f9e7d3f89020940705d4314b49
:10051000d3f84021d501fad4f5e72f4a5468516841
:1005200021f0407141f0807151602c4a1d69d2f870
:10053000b0201a6101f0dafc01f030fc00f056f84e
:1005400000f09cfb00f06cfe00f098f908b100f0a0
:1005500085fa204bd3f84021d001fad4d3f890206b
:100560009107f6d51d611b4bd3f84021d201fad477
:10057000d3f890309b07f6d5174b01215c60684695
:1005800000f050fc009801a900f0fafb20b9039b91
:10059000134843f001039847bff34f8f114a124ba2
:1005a000d16801f4e0610b43d360bff34f8ffee7e6
:1005b0000000002020010020f02200002001002087
:1005c0002802002000040020080400200c04002061
:1005d0005827002000400e4000000e40b081e00f80
:1005e0009021000000ed00e00400fa05704770471c
:1005f0000020704703207047032070470320704796
:100600000020704703207047054b5a6842f01002e3
:100610005a6003f5a04344f244421a60704700bf99
:1006200000000e4010b500231a464ff0ff31c45ca5
:100630008c4218bf00220132042a04d00133102b4f
:1006400003d02146f3e7002010bd012010bd0000bb
:1006500008b501f071f8bff34f8f054a054bd1681b
:1006600001f4e0610b43d360bff34f8ffee700bf9f
:1006700000ed00e00400fa051fb5436a994202d379
:100680004ff0ff301ee0c269531c1ad0036b994231
:1006900004d2013b591a8369585c13e0cb1a0b4909
:1006a00000208de803000a49013a0868d21a0df1ca
:1006b0000f01012300f0e1fb0028e1d19df80f00bc
:1006c00000e0002005b05df804fb00bfa08601003b
:1006d0006414002038b5026a836a9a42044602d341
:1006e0004ff0ff3038bdc36a0f2b11d90c48616938
:1006f000102200f0e3fd05460028f1d11023206907
:100700000749224601f00cfc6369e562103363611e
:10071000236a01332362e36a5a1ce262e05c38bd5b
:1007200058170020f7b5134b134e05461446002208
:100730008de80c0030682a4623460f4600f00cfc7a
:1007400008b1002013e00d4b0090019330680c4974
:100750003a46234600f091fb0028f2d1284608498a
:10076000224601f0b5fcd0f1010038bf002003b0f3
:10077000f0bd00bf20a1070064140020a086010086
:1007800058170020c369013310b5044616d0036b17
:100790008269581c2063d154626b236b93420dd342
:1007a000a069e169fff7beff10b9a36b0133a36332
:1007b000e269636b1344e36100232363636a0133db
:1007c0006362002010bd0000f0b51e46244b9fb0b0
:1007d00007460c4618686946154600f0d1fa20b164
:1007e0006b1c36d14ff480530493049b1d4914971e
:1007f000b3f5805f84bf4ff4805304931a4b139377
:100800001a4b1593236819934ff0ff3300221a9364
:10081000049b179218921b921c931d92144b154a1d
:1008200016950fa801f0f4f9134a1d9b116819449d
:10083000116080b91b9820b10fa8ff21fff7a2ff1c
:10084000f8e7189ab24208d8169b013306d0226006
:1008500004e0082002e0052000e006201fb0f0bd03
:100860006414002085070000241400201c040020cc
:1008700079060000d50600001c1400202de9f04f79
:10088000544b554a554e1360803391b03360544bee
:1008900000220df113001a6000f02afc002840f03d
:1008a00095809df813305a1e012a40f28f80052b47
:1008b00000f08c8009a800f0d9fe002840f0868066
:1008c0000d9b002b40f082800e9c621c7ed1fff7b6
:1008d0009bfe9df81330032b08bf022002d0042b8f
:1008e00002d10320fff7b4fe3e4b3f4f3f4d202186
:1008f00019600b9ba3f1300038603d483022026044
:100900002a603c4a402010603b4a3c48403b136010
:10091000102200f0d3fc002858d12d68d7f800a091
:10092000d6f800900395054609eb451000f054fffa
:10093000baf5805fddf80cb094bf0027012756465a
:100940005eb1b6f5805f34bfb0464ff480582c4896
:100950005946424600f0b2fc58b105a8274910227a
:1009600001f0b6fb002808bf2c4601351c2ddbd159
:1009700011e0b6eb0806c34402d1022f08bf0327db
:100980000197cdf80080002005a910221c4b01f032
:1009900007fa0227d4e7631c10d009eb4419484634
:1009a000fff740fe40b109f11000fff73bfe0028c1
:1009b00008bf4ff0ff3401e04ff0ff34114b1c60d3
:1009c000013408bf04208dd0012000e0002011b0c8
:1009d000bde8f08f003800000c04002070140020e7
:1009e0001c14002068140020741400206c140020d3
:1009f00010040020140400201804002054140020c7
:100a0000581700202014002070b5124e94b00546ef
:100a100001243068039405a900f0b2f9a8b9b5b172
:100a20000a9b0490013d5b421d40049bab424ff08a
:100a300001000dd8084b03900093306804a903aa65
:100a4000002300f0e0fa0028efd0002000e020466c
:100a500014b070bd6414002040420f002de9f04f27
:100a6000734b74481968c3b0102200f027fc0028ab
:100a700040f0db80704b71481968714b6d4a1b6800
:100a800003eb4111103100f092fe6e4bd3f8008061
:100a90006d4b1e68002e44d003a84146102208f179
:100aa000100900f00bfc002837d10f2e37d9049b1a
:100ab00003f11002964232d3069a002a2fd15f4ddd
:100ac00002930fcd18ac0fc40fcd0fc495e80f00e3
:100ad00084e80f005d4c0398206024a900f050f9d1
:100ae000002835d133a8259f00f0c0fd60bb9df8dc
:100af000e430f3b1484602a94ff0ff323b46fff71e
:100b000063fe834670b92368dff840a1013300f02b
:100b100087803846fff778fff0b9082002e0072009
:100b200000e030464a4b1b68002b18bf0120fff73e
:100b30008ffd9df8ca30022bdcd1359b203fff1a78
:100b4000299b5a421740d5e74ff0ff332360d1e786
:100b50004ff0ff372760cde718ad0fcd374c0fc4ee
:100b60000fcd0fc495e80f0084e80f00484602a996
:100b70005a463b46fff728fe0028d3d19df8c930de
:100b8000002b4dd011a800f071fd139bdaf8000086
:100b90000990203b0793bdf85030adf820309df808
:100ba00052308df822309df853308df823309df867
:100bb00014308df828309df815308df829309df8c7
:100bc00016308df82a309df817308df82b3033a968
:100bd000029b0b9300f0d4f810bb349b232b1fd93e
:100be0001c4bdaf8000001228de80c000ca9102241
:100bf000142300f042f998b90cab11aa934204d225
:100c000013f8012bff2af8d00ae009d107a8102118
:100c10001422fff787fd18b90d4b1a6801321a60cc
:100c2000049b10339844f61a34e743b0bde8f08fc4
:100c30001004002078140020201400202414002028
:100c400070140020140400201804002064140020f4
:100c50001c140020a0860100074b014603f180020e
:100c600018469b688b4205d000f110039342f7d1e0
:100c70004ff0ff30704700bf0038000010b501f0a2
:100c8000e3f90446fff7b4fc002c18bf204610bd62
:100c9000e0b51d460f461646fff7deff431c0fd09a
:100ca000436872199a420dd8c368016813f0020fa5
:100cb0000ad1384631442a46bde8e04001f0d0b9b7
:100cc0000520e0bd0420e0bd384631442a46fff748
:100cd00091fce0bd70b51d460c461646fff7bcff03
:100ce000431c0fd0436862199a420dd8c36800684c
:100cf00013f0020f0ad1204431462a46bde8704065
:100d000001f016ba052070bd042070bd20443146a4
:100d10002a46fff771fc70bd73b50e461546fff706
:100d20009bff326803681344421c0446019308d0b9
:100d30004db1c3689b070dd401a8294601f0f0f915
:100d400002e0052000e004202268019b9b1a33602a
:100d500002b070bd01a82946fff750fcf4e708b5c2
:100d6000fff77aff421c05d0c3689b0704d5fff745
:100d700047fc08bd002008bdbde8084001f07ab975
:100d8000f0b58db00c46fff767ff421c054606d054
:100d9000c3689b0705d501a8fff734fc04e00520d4
:100da00026e001a801f068f9ab6823606b68636016
:100db0002b68a360074601ae04f10c030df12c0c67
:100dc000324603ca624518605960164603f10803ab
:100dd000f6d110681860eb68c3f3400284f838203d
:100de00003f001029b0884f8392084f83a30384631
:100df0000db0f0bd30b50023094c04eb0314dab29a
:100e0000a468651c09d00d78954288bf40f823403e
:100e100001330132082bd2b2eed10a7030bd00bfcf
:100e200000380000f0b599b008238df803304ff07a
:100e3000ff33036005460f4601a80df10301fff7dc
:100e4000d9ff00249df80330e6b2b34212d918aba3
:100e500003eb860609a956f85c0cfff791ff38b939
:100e60009df85e30bb4203d156f85c3c2b6002e03b
:100e70000134e7e7012019b0f0bd2de9f04f91b042
:100e8000894601a9804692469b46fff779ffe8b95b
:100e90009df868600e9f1b9c0136bc4238bf3c46e3
:100ea000f6b24046494652465b46fff7f1fe05461c
:100eb00038b94046fff753ffe41b10b1002cf8d1be
:100ec0000625013e16f0ff06ebd1284611b0bde81d
:100ed000f08f000030b589b005460c46fff7bcfe28
:100ee000431c33d0c368d90701d401202fe0194b2c
:100ef00001228de80c00284603a910221423fff7d5
:100f0000bcff20bb039b002befd013f00f00ecd1f4
:100f1000059a0132e9d09df81850ff2de5d09df8d3
:100f20001910ff29e1d09df81a20ff2addd02033c7
:100f30002360bdf81030a3809df81230a3719df896
:100f40001b30e57121726272a37200e0052009b0c6
:100f500030bd00bfa08601002de9f04f95b00c46d2
:100f60001d4605a99df87830019092460393fff73e
:100f700007ff0746002842d1ddf848901f9b4b45ec
:100f800038bf4b460293002d39d0099bddf80c8009
:100f9000029ec3f1000c04ea0c0c9c442b1963451f
:100fa0008cbfc4eb0c0bab465b4601982146524606
:100fb000fff790fe034660b901980093fff7cffe5c
:100fc0004e45009b14d3c9eb060610b1002ef3d199
:100fd000062308f1ff32b8f1000f01d09046e3e795
:100fe00023b95c44da44cbeb0505cce71f4606e0a9
:100ff00000284ff000060cbf33460623e9e73846c9
:1010000015b0bde8f08f2de9f04790b0894601a9f1
:10101000804692461e46fff7b3fed0b90e9f189c3d
:101020000136bc4238bf3c46f6b2404649465246bd
:10103000fff772fe054638b94046fff790fee41b05
:1010400010b1002cf8d10625013e16f0ff06ecd1b8
:10105000284610b0bde8f087044a00231370044a04
:101060001360044a1360044a13707047a001002003
:10107000c001002020010020bc01002030b5174b2a
:1010800091b0186801a9fff77bfe28bb144a059ba5
:101090001360144b144c1b78144a02991bb10020a6
:1010a0002060116018e0039800f110030069002827
:1010b000f5d010f00f00f2d19d680135efd01d7b07
:1010c000ff2decd05d7bff2de9d09d7bff2de6d081
:1010d0001b692360cb1a136011b030bdc80100201a
:1010e000b8010020b401002094010020d0010020ac
:1010f0002de9f04f3f4e89b033780390002b6ed12d
:10110000052333703c4b1b78002b6ad13b4bdff837
:1011100004a13b4c0194012700971a68daf80000fb
:1011200004a91023fff7a9fe054600285ad1354827
:1011300004a9102200f0ccff08b102234de0dff833
:10114000d890dff8d88000970194daf80000d8f83a
:10115000002049461023fff790fe0546002841d1a4
:10116000d9f80040284ba4f140029a4201d8210747
:1011700001d0032331e0d8f800304ff6ff78c4ebfc
:10118000030b1f4bdaf8000020490022702c34bffb
:10119000274670278de80c005a463b46fff76dfe48
:1011a00088b9bb44e41b0346184a4046d15c02930d
:1011b00000f036fb029b0133bb428046f4d3002c87
:1011c000dfd1034601e04ff6ff73114ab9f80480fe
:1011d0001360434514bf04230623337002e0002547
:1011e00000e007253378039a2846137009b0bde85c
:1011f000f08f00bfb5010020a0010020c401002035
:10120000a086010041210000c0ff0f002401002042
:1012100098010020c8010020a40100209c010020aa
:1012200038b51d4c1d4d20460421fff7fbfd30b99c
:101230002368013303d01a4b01221a700ae0164cbe
:1012400002212046fff7eefd40b92368013305d0a7
:10125000134b1870fff712ff044618b105232b70cb
:10126000012416e00f4b104a1b6812680f491a44fc
:10127000a2f1100008600e49203a0a600d49d31a05
:101280000b60fff7e9fe0c4b04481c602c70fff765
:101290002fff204638bd00bfc8010020b501002047
:1012a000b401002094010020d0010020c4010020de
:1012b0009c010020cc010020980100202de9f3477b
:1012c000324b0c461b783249154606460a68894659
:1012d000002b52d12f49097806294ed12032944251
:1012e0004dd2121baa424ad3002848d01f2c31d815
:1012f0000093dff8b480284b284fdff8a8a0cdf882
:1013000004a01a68d8f8000039461023fff7b5fd8d
:10131000002837d18de80104214bd8f800001a6865
:1013200007f110011023fff7a8fd58bb4ff0004351
:10133000c4f12008a84528bfa846bb614ff0ff3381
:1013400030463919fb61424600f0d1fe4444c8ebf7
:1013500005054644adb1124b1a68d9f80030203a61
:10136000d21a104b00218de80a000f4b3146186845
:1013700022442b46fff781fd04e0072002e0042011
:1013800000e0284602b0bde8f08700bfa0010020c1
:10139000a4010020b5010020c40100202401002088
:1013a0009c010020a0860100c8010020f0b51a4d64
:1013b00095b0044605a92868fff7e2fc174b1a7898
:1013c000012a1e4624d0164b0a9a1f68154b1b682b
:1013d000524213400f3703931740039bbb420ed872
:1013e0000123049304b1a0470f4b0093286803a97d
:1013f00004aa0023fff707fe0028eed009e00b4bfc
:1014000000241c6001233370fff726fe204600e015
:10141000002015b0f0bd00bfc8010020b5010020bc
:10142000c40100209401002040420f0098010020d8
:101430006f2838b504460d4601d8012038bd030792
:10144000fbd1094b1b689842f7d81046fff7aeff57
:101450000028f2d1054b01221a70054b1860054b8c
:101460001c60054b1d7038bdd0010020a00100207c
:10147000c001002020010020bc0100202de9f04f18
:1014800015466d4a1c46137885b0064688461bb93a
:10149000fff7e2fd03230ee0684f3a689042ba4638
:1014a00003d0fff7d9fd0426c1e015f0030c05d0e9
:1014b000fff7d2fd052323700426b9e0702df7d87d
:1014c0005f4ad2f800b05845ebd8c0eb0b02aa42f5
:1014d000eed319b9fff7c0fd0723ece7012b6bd161
:1014e000584b0293c0f12009a94528bfa9461818f6
:1014f0004e444a46cdf80cc000f0f9fd1f2e3e6068
:10150000029bddf80cc003d884f800c066468fe06b
:1015100018464d490293102200f0dafd029b18b1e3
:10152000fff79afd06237ce01b69484a454fa3f16b
:1015300040019142f4d81907f2d1ba6932f0004261
:10154000eed1f9690131ebd120339b45e8d14ff061
:101550000043bb613e4bdff80cc11b78bb753d4bb4
:10156000dff804b11a703c4b0092cdf804c0196842
:10157000dbf80000cdf80cc03a461023fff7ecfc76
:10158000ddf80cc0002833d18de80110334bdbf8b7
:101590000000196810373a461023fff7ddfc38bb0e
:1015a00097e80f00dff8b8c08ce80f00224a02234a
:1015b0001370c9eb0505c84415b925702e4637e0f0
:1015c00041462a461f4800f092fd244b1968244bdf
:1015d0001b682039c91a234b00228de80c00224bce
:1015e000184a186831442b46fff7b6fc064608b186
:1015f000082316e0daf80030114a164f1d4413682c
:1016000038709d42caf8005011d1fff725fd3846c9
:101610003e70fff76dfd064610b93b78062b03d0f0
:1016200002232370012603e00123237000e02670cb
:10163000304605b0bde8f08fa0010020c0010020b9
:10164000200100202401002041210000c0ff0f00e4
:10165000bc010020b5010020c40100209c01002035
:10166000a401002020a10700c801002030b5164dbc
:10167000044691b0fff702fd2b682360134b1a68f4
:101680002032a2609a88a2819a79a2739a68226114
:10169000da68db79e3730e4b62611b7823760d4bbe
:1016a00001a91868fff76cfb10b14ff0ff3307e09a
:1016b0000a9b0d9a29681a44069bb1fbf3f3534326
:1016c000636011b030bd00bfd0010020a401002034
:1016d000b4010020c801002070b5134b88b00df193
:1016e0000f001d68fff704fd0446c8b99df80f30d0
:1016f000062b15d10d4b9a689ab10fcb08ae06e9af
:101700000f0032460a4b42f8084d0193094b0094f2
:10171000186805f108010423fff71efc044600e0e9
:101720000724204608b070bd9c010020a4010020c1
:1017300020a10700c801002070b50f4b1c680f4b9b
:10174000da680132054686b018bf072011d10fcbe9
:1017500006ae06e90f000a4b3246002142f8045d4e
:101760008de80a00074b04f10c0118680423fff709
:10177000f3fb06b070bd00bf9c010020a401002057
:1017800020a10700c801002010b50f230022cc5c67
:1017900042ea4402c254ca5c13f1ff334fead21248
:1017a000f5d21ab1c37b83f08703c37310bd30b584
:1017b000034601f1100451f8045b43f8045ba142b5
:1017c000f9d1103002f1100352f8041b40f8041b49
:1017d0009a42f9d130bd000030b50d4c0d4d85b0a9
:1017e00001462a462046fff7e2ff29460a4d6a468f
:1017f0001023204600f094fb284604f12001fff757
:10180000c3ff06482946fff7bfff05b030bd00bf44
:10181000f40100209c210000d4010020e4010020fc
:1018200040ba83b25940c1f303134b4083ea0333f8
:101830009bb2d8b283ea40107047f0b5036889b014
:10184000002500245c530235202dfad1944208da99
:1018500031f9145033f81560013623f8156001345e
:10186000f4e7b3f9004094422ed0002501245e191c
:10187000b6f90260d6eb440428d402351e2df6d109
:101880000025adf8025000ae2e445f190235b7f8be
:1018900002c077881c2d6744b780f4d1002393429f
:1018a00014da31f813606eb108ad36b205eb4606b6
:1018b000476836f8205c05f1010c2db226f820cce3
:1018c00027f815300133eae7002000e0204609b090
:1018d000f0bd70b5056904460e466369b34210da7f
:1018e000a36820689847002804da04f11800012151
:1018f00000f00cfc6369c2b29a400833154363617f
:10190000ebe7012025fa06f29b1b00fa06f6701e93
:1019100022616361284070bd2de9f84f04460a68d2
:101920000069636900268a4602f102083746b1461b
:10193000012523b300f00102b8f900c042ea090210
:1019400008f10201cceb0208b8454fea50000dda6d
:10195000636920615b1b03f00703d71b63613e448f
:10196000daf8043033f91600bde8f88f6744013b1c
:1019700066447f004fea420901358846d9e7d5f130
:10198000100b10d0a26820689047002804da04f1f8
:101990001800012100f0bafbc0b2bbf1080fb4bfc0
:1019a0005b460823c5e76ff00900bde8f88f00002b
:1019b0002de9f84304460f46904639462046fff786
:1019c000abff011e49dbff290adc6568002df4d05e
:1019d0002068c9b2a8470028efda0120bde8f883e3
:1019e000b1f5807f02d10020bde8f8836ff48073e9
:1019f000cb181c2b34dc204a32f913601f4a2046d6
:101a000032f91310fff765ff414606442046fff701
:101a100083ff051e28db1a4b33f91590194b20461e
:101a200033f91510fff755ff6368814493b9b5f595
:101a3000807fc2d1d7e709f1ff31e368206898477a
:101a4000011e14db94e80900c9b29847002806f18a
:101a5000ff36c2db002eeed1e9e70846bde8f88389
:101a60006ff00900bde8f8832846bde8f8836ff001
:101a70000a00bde8f88300bf842200004a2200006b
:101a8000ac210000e82100002de9f047adf5a86d7c
:101a900004ab009323ab01930cab0293052114ab71
:101aa00005460393fff715ff052100f201172846ad
:101ab000fff70fff042100f101082846fff709ff97
:101ac000b7f58f7f00f1040900f38880b8f11e0f8d
:101ad00000f3848000264e45b2ac0ada4b4b284610
:101ae000032133f916a0fff7f4fe013624f81a009b
:101af000f1e7122e07dc454b33f91630002224f8ab
:101b000013200136f5e7684621461322fff795febc
:101b1000002866d1064607eb08094e4534da284608
:101b20006946fff7f9fe00286cdb0f2803dc721c06
:101b300024f8160026e010280ad1002e54d0731e77
:101b40002846022134f913a0fff7c3fe03300de04d
:101b50001128284604d10321fff7bbfe033003e020
:101b60000721fff7b6fe0b304ff0000a32184a4546
:101b70003ddc04eb46060023834203d026f813a085
:101b80000133f9e71646c6e7b4f9003293b3684665
:101b900021463a46fff751fe002808d02ddb009b76
:101ba000b3f90020b3f9023013449f4225d102a8b3
:101bb00004eb47014246fff740fe002808d01fdb38
:101bc000029bb3f90020b3f902301344984517d1b2
:101bd0002846694602aafff7ebfe13e06ff0020009
:101be00010e06ff003000de06ff004000ae06ff00a
:101bf000050007e06ff0080004e06ff0060001e068
:101c00006ff007000df5a86dbde8f08724220000f5
:101c1000f0b5adf52f7d0190049307a80023029144
:101c200003920593069300f06bfa002840f0a18020
:101c3000012101a8fff74dfe0221044601a8fff78c
:101c400048fe00283cd105900690039b01989847d8
:101c5000061e01da022087e0039b01989847051ec3
:101c6000f8db039b01989847071ef3db039b019861
:101c700098470028eedb80b2ffb2adb2f6b247ea79
:101c8000002746ea0525ff43adb2bfb2bd4214d1dd
:101c9000029b0bb9002067e0002dfbd0039b01984d
:101ca0009847011ed6db029b0198c9b29847013db7
:101cb0000028adb2f0da012056e06ff0010053e0e9
:101cc00001284cd12e4b1b68002b42d02d4b2e4aa5
:101cd0001a602e4a5a602e4b2e4a1a602e4a5a60bb
:101ce00000231eaa082199520233b3f5907ff8d140
:101cf00000231eaa1a4402330921e02ba2f8201166
:101d0000f7d100230233322b05d0aeaa1a440721a3
:101d100022f8421cf6e700230233122b05d0aeaaac
:101d20001a44082122f8121cf6e716481ea94ff49f
:101d30009072fff782fd00231ea905225a5202333a
:101d40003c2bf9d11e221248fff777fd0c4b0022e5
:101d50001a6001a80b490e4afff72afe04e0022888
:101d600009d101a8fff790fe38b9002c3ff460af0d
:101d700003e0022001e04ff0ff300df52f7df0bdb4
:101d8000000400208814002098140020f41400207f
:101d90009014002034170020b81400207047000071
:101da0002de9f84f07464ff480709a4689469046d1
:101db0000a9d9df82cb000f01df9454801230360f1
:101dc000bff34f8f434e444c00233360736023684e
:101dd000736263687362a3687362e3687362bbf1e2
:101de000010f844638d817b92762676203e03b6861
:101df00023627b6863620023a362e3622ce00a46ed
:101e000016f8011b02f8011ccaeb06079f4202f1fb
:101e10000101f4d34db3314b03f1100753f8041b08
:101e2000da684a402b4943f8042cbb42c1f88020b1
:101e3000f4d105238b600b69264a9b07fbd4d2f8ab
:101e400080302362d2f880306362d2f88030a3629f
:101e5000d2f88030e362b24645b3102d34bf2b4632
:101e60001023ed1a1e495646c9e7bbf1000f02d0f8
:101e7000bbf1030fcfd1d3f110010ad0802313702f
:101e8000002301338b4202d00027d754f9e71549cc
:101e900000e015490023e718ca583869043380ea7e
:101ea000020e102bc7f810e0f5d1b4e7ccf80050c3
:101eb0004ff4807000f0b2f8454506d0631993f8ee
:101ec000203009f805300135f6e7bde8f88f00bf8e
:101ed0000016c84300000f40f40100200402002057
:101ee00005020020e4010020d401002007b50948c4
:101ef000fff772fc084b09499b6c1b0c00209b02ee
:101f00000093019004224ff00053fff749ff03b004
:101f10005df804fb9c210000b081e00f0804002064
:101f20002de9f04104464ff4807017461d460e46d9
:101f300000f060f82d4a01231360bff34f8f2c4b44
:101f4000002119602168596261685962a16859626b
:101f5000e16859629446002d3fd0254b2269c3f8b1
:101f60008020d4f81480c3f88080a169c3f8801061
:101f7000e269c3f880200520986020690130206163
:101f800040b908f10103636123b94b1ca3610bb98c
:101f90000132e261164b186910f00200fad1d3f851
:101fa00080202262d3f880206262d3f88020a2626f
:101fb000d3f88030e362102d34bf2b46102304f198
:101fc0002008ed1a18f80010325c4a403a540130eb
:101fd0009842f7d106440744bde7ccf800504ff4cf
:101fe0008070bde8f04100f019b800bf0016c8438a
:101ff00000000f4072b6074b1a6801321a60064a99
:102000001168084310601a68013a1a601b6803b926
:1020100062b67047541700202402002072b6084ba5
:102020001a6801321a60074a116821ea000010603c
:102030001a68013a1a601b6803b962b6704700bf9c
:102040005417002024020020044b41f671321a6418
:102050009a6822f001029a600020704700000e404a
:1020600010b5eff3108472b600f041f804b962b60f
:10207000002010bd00207047134a70b50346054686
:1020800002f12806144603ccb44218605960224677
:1020900003f10803f6d1206818600c4b9a6c596b59
:1020a0005b6b92b2090e1b0e92020a310a332a6050
:1020b00003f01f03012201f01f0102fa01f19a400f
:1020c0006960aa60002070bdc0220000b081e00fee
:1020d00030b50023934208d0c55c0133cc1814f806
:1020e000014ca542f6d0281b30bd002030bd10b5f4
:1020f0000023934203d0cc5cc4540133f9e710bdf4
:10210000ec46a0e8f05f4ff000007047b0e8f05fe9
:10211000e546080008bf0120704700bf000000002e
:1021200001b40248844601bc604700bf9100002012
:1021300001b40248844601bc604700bf0100002092
:1021400000534352319a933082d9eb0afc3121e398
:1021500037000000f1100000bd120000ad130000b8
:10216000311400007d1400006d160000d916000027
:10217000910c0000d50c0000190d00005f0d00004f
:10218000810d0000f50d0000250e0000d50e0000a9
:102190000600000070210000542100000000000033
:1021a000000000000000000000000000010002002c
:1021b000030004000500070009000d0011001900cc
:1021c00021003100410061008100c1000101810155
:1021d00001020103010401060108010c01100118ac
:1021e00001200130014001600000000000000000fb
:1021f00001000100020002000300030004000400cb
:10220000050005000600060007000700080008009a
:10221000090009000a000a000b000b000c000c006a
:102220000d000d0010001100120000000800070052
:10223000090006000a0005000b0004000c00030062
:102240000d0002000e0001000f0000000000000061
:10225000000000000000000000000100010001007b
:10226000010002000200020002000300030003005c
:10227000030004000400040004000500050005003c
:102280000500000003000400050006000700080028
:1022900009000a000b000d000f00110013001700c9
:1022a0001b001f0023002b0033003b0043005300a2
:1022b000630073008300a300c300e3000201000079
:1022c00000001000000800000008000004000000ea
:1022d00000000000000000000000000052000000ac
:1022e00002a00000ba880000020000000000000008
:1022f00040ea020313f00303f7b5064638d192080b
:10230000eff3108772b61d48846844f001048460be
:1023100093421a4c25d206eb8300c0f30a0c012528
:10232000ccf5006c20614fea9c0ce560d41aa44502
:1023300028bfa44663440024644501eb84000ed00a
:10234000006801900d4de8690007fbd50198a86170
:102350000820e860e869c007fcd40134ece70146d6
:10236000d6e7a36823f00103a3601fb962b601e0ba
:10237000042000e0002003b0f0bd00bf00000e40cc
:1023800070b58cb0044601a80d4600f039f80399e9
:1023900022684b1e13402ed1286800fb01260198ad
:1023a000864228d899421dd00433981850f8040c5e
:1023b0000130f7d0eff3108172b6104b9a6842f0fb
:1023c00001029a6022681a610122da600222da6050
:1023d000d8690a4ac007fbd4936823f001039360cd
:1023e00001b962b62268039b134423602b68013b4a
:1023f0002b60002000e004200cb070bd00000e40f7
:1024000001b40248844601bc604700bf7920000047
:0c241000010000000000000000000000bf
:020000040000fa
:103800000000040000f0030008746b84090000004d
:10381000000000000040000008010010000000004f
:103820000040000000c00300080100000500000087
:1038300000f0070000100000080000200c0000004d
:020000040000fa
:1038800021bbd37575030c0a64664b2496d661324e
:10389000634d84afe8e5b025a27b0fb1834c4da703
:1038a000396503c6b24ac4333c646d941c76033553
:1038b0009587f5f9e82bb22b3e3749e850e321f51f
:020000040006f4
:100bd000d6fde509aad0494127532bde632339db33
:100be00062205ba42109052d744ad55a0e73c3a552
:100bf0000801000080c3010004003e000000000066
:100c0000f65c0fe820f3b4f5eed484be09de8e2c3a
:100c1000109b8f85ee27f3e78d9e41e20c641e68e2
:100c200005c939db818f09005a8c00ac23f42413e9
:100c3000191befea83d54cda9da006e13ce1167062
:100c4000a781e6ff0e970aa41ec7dfa37920bcd7b1
:100c50007632e35fa1a312ac3aafc2fe8039744191
:100c600069b306019094c5b57dffae95fc127c4733
:100c7000d9a5f4bdf10629eee7762e20268d6381f5
:100c80009acceecf7e65d5af7748c75c36174cbda2
:100c9000235d32e7540a58dac48ff5fb58bc1405bb
:100ca000894586bad43190c5caf0cc1aed47fe24e6
:100cb000473a0351e49973c7ad3c162e2e7e392f67
:100cc00023a659bea43848a513f78637d0386cf947
:100cd000470888cfc447c441e6566beb3173d32a2b
:100ce000b1fe4cd5db181c43c093d4e644289d9735
:100cf0009e4197f9ab0088fee6ad762f4a4cd0fbbb
:100d0000c3791fe5245bc1476b4e3eace31ac111aa
:100d1000b983cba91de21c5a3bc0c620c925c52bef
:100d2000f731dc2f2631e708fb6a1498bd9c753833
:100d300021ac6e99369755bcffba60858b931280b3
:100d40008a7ab8b8d884ed3e170e1da4debf52b91a
:100d500096f3721095fd38fa05ff1e0171762e325a
:100d600021fb26a86d1bd6458dad7992ae3b320195
:100d7000e9b338e052d80de390c8c137880cad9282
:100d80001156f8a8b01106a12200f7bf0675f08f22
:100d9000c0debaa8fa62cab59bca7921b4dd91e770
:100da000cd372933b89c58663bf73cfa6919ddf911
:100db0002b3b9d8aced4aaa588fbe67c09bddcc866
:100dc000c22713f60b8f2b9c77bb08f51072f456d5
:100dd00023ea65ed703ded24b0c993f5a3605f0e85
:100de0002667f110b7ad8740370b2bc91dd9da261e
:100df000d5dd424fb9e4d7ca715e6ada07b648abaf
:100e0000a0143886c8d095d1c5dcf73747861b07b4
:100e1000804903e1d3912f061227e952e2cef290e6
:100e2000e4e150bf2f8142626d95efb82072d53159
:100e3000e344910a824fca27fbfbf8616511d0dfba
:100e4000fce2a299e2a499fa64a0b609ebc3dc1b08
:100e500010a119bfe229e82c40f48afe90bc8c2234
:100e6000877b2f12252faf97727f9165dc6f171a42
:100e7000247d80c294c3c7dc5077dfdb6d9a28be27
:100e80009c51c0546c17728d86ec72dd93ebb4b636
:100e900015fea2eb43f72e8bf73da9007ce4a2c31d
:100ea00079d8b831d26e2c6face018f08e4c94b477
:100eb0005e8b4190498aaf0e7a8ee3079b59a62636
:100ec00017bfeb9bd7d13d930ab15ba1b7b3f5d068
:100ed000e4248ce08df1b9bf05d25522e7d4ad01f1
:100ee000eeed92c297f37badf5e08d244683282f7b
:100ef0006931e21154f129cc485b8b6167692d7926
:100f00009ea389d5a11edc58fbffcc8b3c88af3457
:100f10005137a52b8092997399df4451a115362939
:100f2000e27c192ea656057591bf2ba6dd22d88826
:100f30008deda6ee22c4cfd714acc02424b884c64d
:100f4000341342867325c4f8710bad5ccbbfbeb6bb
:100f5000191ffec5a6597ece2c491e9a252e1f604c
:100f60000e6bff100ba49df2806a1a040728caaf0b
:100f7000d0870aedad6924cfcbd59c20df486a939a
:100f800088a4639da8865667010e7f775195b17e30
:100f9000d2da19a6f9b365fe55a5bcbb922d218cfa
:100fa000844e2f3d5f46294b63bf05dc05ea9d510a
:100fb000f05290a17062347a13bfdf4d86d134367f
:100fc0009dfcd5968c0a27cc661916ca067ed14c94
:100fd00011e81b0d9f323d02509ee7a55d4bd83caa
:100fe000d36577433411082f58d7d48e2b656c57af
:100ff000844d5bcb51e3166d8392e1f9508e88df0f
:101000005dda7ad18470f26b368d1cb5440e66a021
:10101000a14aeaaba41e36af5b20d5fad6ad5b423f
:10102000f9ffb3f34854e447145333298df409d43a
:10103000aa8be090a52279aef43459ddff44dc0c94
:10104000b87730a4818ffd3639979320f2cfbc1c3e
:10105000de6323f910266114c40fe293eda09a21f8
:101060004576186f8871b225ec531eed1bd45a9e3d
:101070007bca43ff9891b23f03eb4ec33d0a46c083
:101080000761caafc462d99853fad3a6d769ea15e3
:10109000e1734505f9e24cf6b25f1558dc2cf61ffa
:1010a0008939757ef8c0c0fdbed7e672c43ccd97c5
:1010b000b82f4ce24f0b62a128094fa94533d061ec
:1010c000a0bc6f1e870725d4c0774d35c471d534b9
:1010d000d026300ae598c614923297790717bc7566
:1010e00012f8e3e21611419ebe47df2f3c9fd20a61
:1010f000cd3bdf46784ed10b02ffded3705898a06f
:1011000049c6680fce23119d5bcc363d465b30b798
:101110007e34df3ef9ea76c3c641fe8522452cb413
:10112000a93b28c8502c469cc317d7d9900c0795cb
:10113000d197157e81402615b01d89e208a569b5b5
:10114000282e93ce36b4665f833d0e09267304f3d2
:1011500083ae1a7ee8b234601fb99acffbdd7f3bc5
:10116000c76b05d680ed63e9d090c54e5bfd4a356f
:101170008c200bbb900116ff8bcef186af72cde3b6
:101180009d4267d32525eea61f1c47451ccaba4eb3
:10119000e53a17a1e4ce1adad0e8c34a2166bbca01
:1011a00059e095da6b6a6c3f9f999d9e2b80c8e64b
:1011b000b80a25a5902c632a375bc73cb1548c86ae
:1011c0003b6dc6ca03f92b4b77080d95a5f45d83db
:1011d000782531693e1231a04ef6be71fb57495257
:1011e000d48b320923e1808c81fc2019f2fcc9ac3c
:1011f0006fe55c686f3271d67931c23bae15a8f8e5
:10120000cfa19a2ec45a99a958672e15aa8eb02933
:101210007eb9e8e3dc44d6e58b660b113366e53630
:10122000d5513e75f1a704a15ab422f7dcc8a20e2d
:101230005b9650f0001730c7828c43082299864d88
:101240006ca3f8c0721c552421e2d7c0eb602ca31c
:10125000e955cf81c105bdd620230ccbd1cd0a42a3
:101260004b0b899a9c4277d4e9c674fa76d1ee5535
:101270007749ec3d05708ba94204c7d4d7b53f43ed
:10128000b06e8a82af1ca46837819fd30d98dde3ce
:10129000613c78b7f4ec775adf8b97a279427ba256
:1012a000baa5afe64a9ffb06ae96aaab123827b2a4
:1012b00038f567ef4a0be466f56e12a608adfecf6f
:1012c0005bba783a3116e323957d256331428c96db
:1012d000ee6e421b077295800b4336f431ad87c525
:1012e000434a15fdbdf50409c913adca74ae584c87
:1012f00087c8d0cd290d952b2e059070a4bae4f1a6
:10130000d205dd7c87e931bb62e2f65380b01585fa
:101310009f1334c900efacec1369282cab947170a7
:1013200014e1bf8573c3775983ac5fd79465bb0d58
:101330002c2854b9c0b7a460df9be4d2202b16033d
:10134000b102e5c92878ca32af095ed7f24543cf6a
:101350005e965f3b26088d17d6d88d362ed04bc6ad
:1013600011ba12a0bf2d5db68ed296b56bda60763b
:10137000b804b6ef7dd4f9335631e92b75c66863ee
:10138000031ed9546d600928fb172192d81c4a2ae4
:10139000d2e7e0a0f011b665b40e610323850f0516
:1013a0000b771c3afa5db8f0e700eca832ddf15b90
:1013b000156033712aa7f564415a7a92150566bb08
:1013c000e274023e6534f4d87f5b4ae97e08c67554
:1013d000703ebdbe73353a5cd0b4e7ed0103677a69
:1013e00083c37bc8a258484a12fb9b40e68f521a1f
:1013f00068523eff9638f96b99164474367489b07a
:1014000090709d7b0546c5ef10fc579e5f96bf3bd5
:101410003e22554a3c9bd7f0f2b4784d31592e1eee
:101420006df58588a96f54795fd35eb853bd514877
:1014300094fe30c7484fc6f47dac2d685bab357168
:101440006f8bff3db596814af3856b2e37b5b76b31
:1014500036a16542bd3b649877e87914c34ccb054f
:10146000129e682bbca76cca2fe5050ca5a1180518
:101470006ec5fdcbfb7321ee1578b974c04389208e
:10148000e7380c1582341795ae46bbdf2eccf950e9
:10149000849f4792f873a093edad712732ef15ae9c
:1014a00083422f3f1efaf531dd247926af7f9ff965
:1014b00076a3ee2cb783d160d6df4c6fbf007036b9
:1014c0001da93a42fe94188b463cf6f5265405b900
:1014d0008cbbe7eee0ee8cd52356b89218ff2eaa0f
:1014e0004a996e26b7fc0c0efedd141c974f397a14
:1014f00004bda431f2551e0cc39da91859dd2c3a28
:101500006c0f80e23cab9e39ca8772c0275f71289e
:1015100059aa2af518fbe0e2e70a778d620e793db9
:101520000a97b5dea11450a4db0ff8b7bd7ffe0efd
:1015300022126f7e5dc852a2da1a80414d9b40771d
:101540002054951b65971c6f94afc6954ab8298d9a
:10155000dd2795588ea290600dd463f3b245e1303b
:1015600063dcae30afdd4a7f309cb6bd5e15a8733c
:101570006f1fa9987d5e765960e4910fc8a651a3ac
:1015800086a4fd65bd6e8fec7faecb52c91e728402
:10159000cd166eb17d37b2c28139046d5e7791d7b9
:1015a0005f7b23b435dd6d7d0a643b03b61a75d0cd
:1015b000c6c372e83ddcf8dc4dd709b57fe0020711
:1015c0008f7def20c9b2f98b76cc88aa3e97ee4684
:1015d000b5d0853fab191634735a1e251f58c6fa6d
:1015e0009e0748e7f19005b4c49b0b442ccd7debde
:1015f000be600fdd0982dae51f0ab40fa44a1c5849
:10160000c9fc6d5391a70b3da5fe745ff7cf32184f
:1016100008ec34dd27c40c0b4fbe7e1c8f49d3e889
:101620000204d9e14f9128c6822e4b0be4c9ca8f20
:10163000e51298f160f8a23db915722cc59b1ba666
:101640002b7be6cc4fc2e6a338590f50499c9347f9
:10165000d66cc6cd6cc21ca732f4f9774f432df37c
:10166000fa09bd7cb2a7cad6c8371e1c542974be5d
:10167000bdb3ae68229fff99be94142adab62af24f
:101680006bc520267d211fa083ba836a000233b474
:101690001a633bd1da65c9454b883031dab07391b2
:1016a0005fa6ef4dbd0de606012709c91759213286
:1016b000f05b3e8b8deb4ee98152a12ebadaa299f6
:1016c0005766c0cb3df897d41348738c8d265426ab
:1016d000ef57262682431837402fa7694e36a8b504
:1016e000aff4cba31267a76eb7c5112e86f2b592e1
:1016f00060902ae9b5ac573fd3505d4fcfebd2f1a4
:101700000afbaee809334feea83a2b89e28ac454ab
:1017100065833a2f4cc49f910525b86d28d2a3e963
:101720001fee85f0b580179afa6e3c38e807613aeb
:101730008b59c780bd1b45355d6a33edd065d54fec
:1017400032f064a469c1486f771581406c9f90772f
:1017500066d3371772081f00cfe04208d069514e98
:1017600043e888ac827cbbf86e888a4c60a272b772
:101770008f71d9f5ab2c306a68e0e0b5be82489332
:10178000b94c4f0e6de4c8dd328790ddd492be10a7
:101790005b24e6cc212511b38c0a05b3c48039e85b
:1017a000c5091f2a0f3c6ff405c6f713fe2f020b65
:1017b00045bb29902dc10530f6bf3509710677224a
:1017c000033d06480189dd34b4b4fe8964f51b6528
:1017d000156784f06b59873902d5d9af4256460553
:1017e000ace6e2befc98b615236edac848519da35c
:1017f0009dc4cb31d67cae638d9bf946221ffbff87
:101800008c7a4b3914476766e755c62e9082e6af4f
:101810009f646c3fc30f3ed179c51c32876d43096d
:10182000c8abfb5b4a20129ea9636d58fc0bdcfa27
:10183000790cfd8cac9a174c5daa37c489df141a59
:10184000de8132046ebdb57460f5ca931aeea6450a
:10185000763180a21f5e54184555296f29289dd8de
:101860006ca21f23dd1f057694a12229556f0388e2
:10187000c7077970f1bf49e4a90b0bd1110ed3aaa8
:10188000497e1110acd0179eb4930ecf3f90560fe7
:1018900042bd887cc82ead787098a1dc576bfee6ff
:1018a0009ed3d8d185883c65a25952131237a379ab
:1018b000068ed8c9635b0776c93d2d80a677044b99
:1018c0007a56286256ae1c4e3cef66fae2a96616be
:1018d0004df99cdd79817ff2b2a6688963b4c0ecd2
:1018e000019cd1c09a90b7dfc6de5f3abee214f722
:1018f0002e23885c166708808e575425e8935f86f0
:10190000da34daeb939a070fe623d8c6749af0d844
:10191000d315d1d48eeff0769d222c94dfd552ae24
:10192000928cadeda333d742acd8cc6c024a1fcb1e
:10193000cab7c1233f8deaedb82f0edcfd182c2a63
:10194000382cd09fddee19c2f3b0e466fdfd84882b
:101950009fd7aedf961d79e794952c42d8b9c1fd8b
:101960007fe9a55cf16e2f1da5960425842a6de9fb
:10197000d285b306c9c92496f4ceac1ab58919012b
:10198000bfaf67c1811ebe6ba8cc67be68f151882e
:10199000706ef74cbee2448b06b317ceb8e66246d3
:1019a000a8d91a5f128826fa0ab370bc7a3ba6340b
:1019b0006fe85226978afcf794dbcf815e706e2d1c
:1019c000b170b91241bf53708b7c8b4eb9fdada085
:1019d000bbd812dc968570a5193121fc0ccf1c07f1
:1019e0009774493274e7a2a14b08937dc584daf558
:1019f000fe8eca94cda172c0f9068b695b52bf2ad4
:101a0000adda268995b2cb0377714177e89fda4248
:101a1000d9522af310e22704ba13568e97941b5911
:101a2000accd7bf35de209f0ec1ebd22e9e884b2a7
:101a30002a616ae6b048918aaac11ffb5409227440
:101a4000304aec7e0c899162b175d79eb69a88991e
:101a5000e4f6b00db503b1fefef42116fb3afecf5d
:101a60006de1c05bb3c676d06b94bebd73bfa08979
:101a70004e28658a57813d603c48016912e132aacf
:101a8000da8b7457df33759311263ec227dd6bb8ae
:101a90003164dab96a6ced2519cecfb4f511ac0a10
:101aa0000215f41e4bc6fd553d9f66641670fca5dd
:101ab000f428d36cf1a8a2ca006baf5c0060a990b7
:101ac000d20d1c0dacfcce1df2294b792e204753b4
:101ad00027cd3a27f7777e85e532d77c348ee32e03
:101ae000277eac325188c5b3aa6bcddbf3114c1005
:101af000d2ea239e383a773fc8bbd16728807b3231
:101b00009786bc2ab32c1d44401a3fc19d6bc96cfb
:101b1000c11f3aa674ad54190363df5b53c6a9d63f
:101b20009b58a20be69aabdfef777eb989a8c84530
:101b30009be42f7c32d7a16ba8a1d958cd12f78096
:101b40002b3cc0880cc65245d85c62dd36f16b1b5d
:101b5000196fe8f06b8be77fa4d50a091a807f68bc
:101b6000efcef36765e0cc2b50260d50bb895c6649
:101b70007fb2585be301289f9dd548e560e294e37e
:101b80007eda98d1b2a5c83ab5f10ee04a0d5618e2
:101b90007b12c198e05474e3509f29ed6059d60838
:101ba000a3616ba5d824af18d917cd3df9ec6bd341
:101bb0003228a2fc40271e87bfd82d0bc295445166
:101bc0000de77bfc23d06639eafeec68d82040f9ab
:101bd000b626e43f5ae0a1beff82f63ceb707803e4
:101be000a5f1404449c8640f84d3ed0a57eb69adb1
:101bf000343468709d0a8234d6f93dcbb24d3e68cc
:101c00004ce3f21d91e4d5db5f65891b2af50222c6
:101c10006d17cecef67af957770093d3209c9e5f4e
:101c200059dc017587d3b722eceef89af0e3971fe1
:101c3000c701522e91da0f4f9edafc25b657621279
:101c40004e30ef04e7324addf01f98bf460e58cc05
:101c500025b33a8926f6dcb9a5907f926f7f7197fc
:101c600054f17690560d6d3987a9a41979af1fa04c
:101c70008f7cffa59d8de33bbb3dcab01fb3c8f36e
:101c8000fd022d68a1b39f17d4a73f9aad50f30270
:101c9000809847f73019bc798b87e853776a84a31b
:101ca00067991447f3f9f07495b9d9c41387a7cb92
:101cb000e3a478df31cfc05862287184991f09f6f8
:101cc000716995c6b7ef8a030d477d5ade93099671
:101cd00005dcd8961d5f2a1129ed2f48451e34607a
:101ce000568a51bb1b7a6da90fd135fcc33b7fa42b
:101cf0007ed011fce19d495071381bb368c7c220ea
:101d0000f328edbdb4a1acba7c6341882701e52d71
:101d1000c7c567d0860c41171d7dfa8438625fd431
:101d20005d2e6314758ee0489189e3a3daba2b3bec
:101d3000558c6556155bcc4145808819bfb01b9109
:101d40008c099f5b300b347456379ff19603d23c5d
:101d5000ddc507fa82c2b30812bad470d5d289a2ff
:101d600012822c26330f1423e4b88b589968481d2f
:101d700054fe5ecfd4bd10003aa926941ded06771f
:101d8000c2d91d95c1b769aec9bb375dced6322663
:101d9000adb3098992c847fd06d94dd4134c04e16f
:101da00036cb07ed60312a613b68985da45abaffd3
:101db000923f89473446f770f5ecba007bdf54abad
:101dc000fb8fe96cb401a9eb0a75154f45a9be5903
:101dd00044803e9103ff1a8eb605f3a88067354e06
:101de000e093879785c3321fd379839b3b344f851c
:101df0003b47890405c73558653f8dba71fcaab6c3
:101e0000d5ab93c49a21c9fda00b4e3dce08f15c21
:101e1000ace1939629187ee68c30b235e57056f821
:101e20000986ddd516b524841ece3b32876b1c0d8a
:101e30002f28331467919937e22ba8593c09d8ee23
:101e40000d25e762716b76df520a28f4ccdf11684a
:101e5000642dd276f4a47029b772f00dd98cec1fe2
:101e6000ff2ee5b9ce9c2c9511e911ce7fadbb00bc
:101e700065f5ebbb70c46f41c13882cee0fcf4b4b1
:101e8000ad9409da3e0aaf5ba4b1eb2d0de7c5e3d3
:101e90009e30e6f61749edcfa8fb6eee1c8293f458
:101ea0001ca2c730796dea75e4f12fe0a1dd25fbb6
:101eb0000b3532cb7c3305dcfe139f3ecc28e14949
:101ec0008bf964672c82b7e93f77c397f26fb36be6
:101ed000477ee0608c2db442de98a2cc6228be26fc
:101ee00009fd56ddf6e868e9f9251eacc5442487ee
:101ef000094ee48f728f5fdbc84ff66b9ebc467f46
:101f00009f8c1caf63b135fb8ac100679962cfa675
:101f10002298b02f12a3efd73b916553b64683fab0
:101f2000c6aaded225c72a745c94359df4c55ddd52
:101f30009c2d02f9df9c8c9b8231fa3fd66c3f9d31
:101f40008574309988a8f3c88253cb893cee7ce332
:101f50008d90e03843435dc3dd6b6e53a7c52c0005
:101f6000655eb8f7c53fa17b917c90c3ca88c49bce
:101f70001e8aeee45221225d491540100eb596ad41
:101f800064dd70ab745af49013335e751536e5df7b
:101f9000e4b62c17d369ceaed363528fdbaba68edb
:101fa00015da08fa1efdcb1cc4c77e80bf58c3dffc
:101fb0006f17cc96cc41a262b9be4d493668e96e26
:101fc000b28e60d9b7568ca0c2a030c54d03fe2298
:101fd000552e76bde2041a7c898bd52cddb589e1be
:101fe0001a2e64bd1a06b20f6f415fcc9aff59fcde
:101ff000239e6ec70c9bb55cd5ce7fab0e6b92e873
:1020000052659442b3feb4364b6a4438fe487c7f36
:10201000659bd2247d90caff831fc1a803c26303be
:10202000b535eb500454fce3d5536d373c27adb9bf
:1020300059b0c9fd1e1ea9d33894a5f7a4a4e791f1
:10204000cf75d6dcc815610798b6a6ce048cdff232
:102050009abc0318936a76c02f040232e3b97b312d
:102060004dd42ac63f09bc6ebf2a64274654b22508
:10207000a78b77c9873062f2ddca93642fbbc43661
:10208000dff4c9c9e3849046581e0a21050623b42b
:1020900033439233fd6a4dd1eef87be7f72128f701
:1020a000604d136b561645afa6b1e749b591f08464
:1020b000ff87295d07a466e4b5af1654da9ea90030
:1020c0009d8df0b863075d5f1fd43a87ad3ed8a5fc
:1020d00065783afb400c0d87218362262f47d08418
:1020e000e8e01567c65f9e74fdc47dfa889efc53c8
:1020f000908acca4efa24a6c238763f9f054a84fce
:10210000756389297a1728da0aa1439040f3794a3e
:102110001c527f3ac664912c91cb93834aece8d74a
:10212000ea2ec7c03b5e0d686dad6eec1b28cbd0b0
:10213000d443c6fc32d8cf7df2d5784674231542fd
:1021400030c1b124b95c14b06204a4eb15e9548d1c
:10215000bb7e2d761755afef63b24f23297c0d2739
:102160002c5ce2743f08d424c970e45a3f26a95974
:10217000e61765145dfa2e3d012c49a771b1c8c858
:10218000e48f840912fa1f9a75ad713a81f1422ddc
:102190002acf96290aae14c4abc2be7f4a4c3ce893
:1021a000a4952be64c9e98aa84aba417fc7b896966
:1021b000a041909e5fb9a18317cf661cf8aafcc40a
:1021c0005a24bc935b49dee7e30a2687a9c2286943
:1021d000aab3f1a66bf7b7ac605fdca778cd4c98db
:1021e000b7dfa3b8afaa82da99c7151630a51cddf0
:1021f00030759244c16826ccf3e89d1be64d2c8bcc
:1022000033902a3325c970fe4d182ce55ca6725a0e
:10221000658539ff6fc2eaf10b589a37bae942f87f
:10222000943b2cdda26cc1b36b5beb2b0924d15525
:1022300022c17c8ba8c10913e70f553c7bb03055f8
:10224000cc33a330fee7c0fd856d3e800349aa8de7
:10225000fb338d430735ab97479eb47ec7dea0b3f3
:102260001a817f847b6b83a180079c9754300f2554
:10227000eaefc6334bc73f7cee9cd5a95aa251a9c1
:10228000281acdfa910fa10278049e1bbf66c526bd
:10229000bd19970648fa0d93042ec21ac87759340f
:1022a000653234bb1d7cd19598a54212f5350be003
:1022b000c4f8432ecccf05267e64302fdbd4a4880f
:1022c0007c8115126b58e3afb279baa7230f0032a5
:1022d000c2b56109c36d0ec127380f5210aae9d5e6
:1022e000a99020064d69663ab80287337e3a4ea01f
:1022f0000c1b4d3f36ca2cd0f850dbf7bec461bc76
:10230000b259a1e8cb7aa1e4f4e66b3379f95b0624
:10231000ffac16702e3106af6d284da1ddccb7a4f1
:10232000303090e804df149048d7f2c1d90ad8bb06
:102330000950a20e10bf29dad5893463f24f17ed88
:1023400063af2aec407165dadbe91b491dd110ada2
:102350005f82875ccc7e1f76f23fb850017bce83d4
:10236000f565782356d744bf4c0fa0f75411a679d2
:102370001052917cb5eca0598e91a0233d81076647
:1023800066fb6d79a088bf7e990de4bbfb7bb0be78
:10239000a240e83c249c3d5afe1baf2b6f32e96ff4
:1023a000741572be9ef7284c2321993c73f609b12f
:1023b000cc3cb1758b12d57cc62cf42dd56ea644c1
:1023c000ae51ad60129963248926951f7b8b85eef3
:1023d000ba819bada787a7dc39391bf7b5472e8f8c
:1023e00032299ef12c1f7d9f22e4d36f62b8976a39
:1023f0008d7ef5875bccde7d43052a5d7dc708dbde
:10240000d96cc572091f5005c46b04ae4e22b09d35
:1024100067b0b3d06e296987e889cb68b325acaec5
:1024200084784f61b19e190e070e847d9feb8e7ede
:102430001eef775380d736e8c2ff2cef04ce13335c
:10244000ed51a952ae6c7d04ff7580dbfad586e6ae
:10245000ae307dc65a5b2b99e1f31764a09332b47a
:102460001a393f9284202130aa7d0675eacc25b71f
:1024700057a513829c264e3cb64b3915930a3782da
:102480005b229378e07124487d7f571f5457332592
:102490008cc67e8f2bcf0dc02b8b740c87d2f6375a
:1024a000afbcbc2f5fa41947b096c4585ee41df1c1
:1024b000ab112f493614a3b246e12de5f685f5168a
:1024c00048014d6cd2911b0dfc091ea2129b6cdbc6
:1024d00045767ba0f216b63b5de0ba1e6ed66aabbf
:1024e000a7c8acf8768b25e7b4e6f6e2f3c1cfdcfb
:1024f000161bcc68b618f05cde034f204c51eb186d
:1025000073b7a059ccaaef126d1b1b7fef3f0a6c6b
:10251000b19d71917909ec54ba56ee5b07ee858e48
:10252000dc7490328a6eed21a778758f5c070843c2
:1025300046b29f49a5e505d7f4e02d0534c8bccdca
:10254000cb104c8710adc1b9deaedd7ab9e6bb8bde
:102550007909706dec4610ab08c82a72bceb846335
:10256000e5404b5fb49bcef937b4fcc6491dbac3f6
:10257000f7269ee6714eeefb4b158d7dad54731222
:10258000cf934565a62a26d5c1f33daa23d24abbdf
:102590000197309fadd61e2f5b4e132d325dc74f76
:1025a000d240d3fc224fe12b4b2b01719760417c31
:1025b0008bc8706f3beb8f3f95782f51c71b950ee3
:1025c00063254e0529cb926593f530c9f27f80a82b
:1025d000a1c354a5b62f10e8cf0d917bce5119a001
:1025e000fbce2245cb1240017160bc8caab0472db6
:1025f0004153f7f1794e7541d6b55ab663e48691e9
:10260000f4999edac0c9d69f5d089ba69acea85fb2
:10261000948ecca5550337269d60c2f759e48354a8
:10262000ef3c58b555e6b913ae27656f7179403464
:102630009d01ab3fd3ca3e0cc654176f8810625b36
:102640001e8d910772d94c6356b1885d8fcb6a1a83
:10265000348db9e6f2ca32071f69f173946b35e421
:10266000152a7f6da89c7e5877f8e25ba31a101d8f
:102670002a425b5cb71cb91678b16f4b43b638d0b1
:102680008728c32750c7465e52fcc1b122164bd5de
:10269000454c5bde3ef2a496d5beecd33016c7f0b7
:1026a0009eab51d323dedde024cade3749572575c2
:1026b00053e464a39577416714b33821efb0072e34
:1026c000a4752f5b23aaaf0ef3bec3a8b3c804f949
:1026d00076d16f4973414030bff2b8be6a98486afc
:1026e00031e1d5260699a66668b316c2e878ac81b2
:1026f0008f7ff8791e05383837299d8ba1e3beca34
:1027000016c6ba2f67a4ae210cc613da85a2aa0e8c
:10271000f5a9ec19b2119a1e14dc5f3f9e8e83d28c
:10272000ad22da2ff319557234347a4d911ea1daa5
:1027300020d674963400a444a51f76c0c49517f71c
:102740002c78df457e4eb8d97df54b1d8354d33da3
:102750007e2f0d6215d84eadabf39ca8e741181c37
:10276000d5e63c881ada481386fccf4d91b77c68d1
:102770002ef42db71676752cd080fdf81592d7065d
:102780008dfee0aff48757454b71ce83f61854adfc
:102790008a187fba81f033c4719ed4899711a60735
:1027a00026a634386333ad3adbc98472dd762a2538
:1027b000e6fc6b6518ba3b5027e72b21b28d6a689f
:1027c000d46878b9a59179e63bab1df22621e95f83
:1027d000de96ac6d960c2d150fb3ceee3bf2b6c067
:1027e000605a6d4ac186612ed8bf49b04cb35e5f56
:1027f0000b0f48f6398c4b1852ed21d45f9957399d
:10280000b7382d65145034856a71f235fd347aacd1
:1028100036a3b012276842b00200bc2d6a8e555d07
:102820005681ec8a2669f2a32ecbe2589c87b341ed
:10283000c1ba7418fed9b892501ff0bbfa8d563346
:10284000adbb0467434c71a54f3fb11a2733250a2e
:1028500075b6540404d0bb78ba1016ca74b0446775
:10286000c815c20afe46d7a42cb56aaa56b792ec80
:10287000616c20358f029661fa97bac0b55c19e198
:1028800082cf1a056c734941d13a6e7cc299187d8a
:10289000a2de9dab867fe15cbee640188b61c8d5a9
:1028a000b3398cb9b7257aca2649f66d5bb953a2fc
:1028b0006fd4508f812316dbbd79c8a85bada82edd
:1028c0005175f86eddb458f0e38544dfec8f5d4a56
:1028d000827a93adf250cc2e541334ff0e510d3545
:1028e0008bf7a5c7c38e77f0033c6cd8358bfe8c75
:1028f00079d59ff894f0da5b08b1dc2c7ec2eaa6a9
:10290000be1727c8db7185866de77f76e87c1ba73d
:10291000affba895f87bc80e65e3008a0b183cafa7
:10292000671678ce3a424002aae5f17691d701388f
:102930009cc4c1266fe5117e3bc85c1dcd99bc6d62
:102940004a866a201b1d049baa0e49927d9dd8ddf4
:1029500044955761e97f0f486f100ac66b3b8f495a
:10296000774c2123810a20879133dd8c5ba6d13df2
:10297000f06c104976b51a59f6ece15e9f98f18e2d
:10298000251c9bd8e372986c6cb319d61bf9a5fd76
:10299000a50458ae6f1ad646b4cf9e5db9ae7c740e
:1029a000157466da91c9b6187f9116669baec81089
:1029b000aaf81f39d54978b14e20ffd8d7dc272a8d
:1029c0004143b91cfcf204e35223557c76389fe95d
:1029d000686929bf07a2be1175328390ef8b3bacab
:1029e000a83fbca49134bb6c1f5e446afbb5281c95
:1029f00049e17d772f0f57b04eabcbb5577cf7171a
:102a00003948e225e1c78a382209b2dc79e7c007f4
:102a1000e91a3869c82473f3725f38eff7097c9bb1
:102a2000f4aba0cd83815c8275297f520a367dcebe
:102a3000aadf1a33e798fa880ea72c8a4a91643fd6
:102a400009203ab4b84930d3f077cdac1f371edc3b
:102a500015e697b93b66c445430764ea4dde750d3c
:102a600003b732abcdb226d07d1a8d2835e0488928
:102a70008e609238fec39387e723af992970303f69
:102a8000d1be954f866ba19fac985e6a7b26de73a4
:102a90000b0b2daffc0b4027823cfe8350481e0cd5
:102aa000411b8d29001b3183c077505ee5c66ca3a6
:102ab000b993d08ae726af8eb2d7491b92815b6764
:102ac00093459f1a165b3b7554662936c7ad426d18
:102ad00048a27aff4aaf2ae14af9669595a851d5ee
:102ae000ef0896971899e852ec8e1f981dcf3af68a
:102af00039dee46d458990f67229b5012b686107ce
:102b0000f73a6507ee328251940ac9377a80116c20
:102b1000cafdad12ed9385f22f2b14f98b199b8210
:102b20002709148985bdb8b8ae96849b0e6c98b3fe
:102b30009fa2d7677630038a8ff9ff9c8fcf6c7482
:102b400061e782a5498c89332e291c960ee1f0e8b5
:102b5000511b77d1dbb1512c523d98ee266ede8ca5
:102b600052023ab006c2ea0702e3d8876a5c6f6e87
:102b7000bea33ec82073ae06b1383eb3fa854349c2
:102b800043b58865f1664045cb16e8fd9d803f1f43
:102b900068d0b877437af31db892702a8a6cdf4503
:102ba0005454433000c6c4dacdd04485e2d07ac054
:102bb0000a91cee4c82869d970c483e5984b4bcb01
:102bc0001a27bea809c4622e00f11466fcd435850c
:102bd0002b01bab3c59435f0275c9be84ae7424d18
:102be000ddfc3c30d5ac8d35a74b85d92baf4d489e
:102bf000ef0820b91221b1982777fa31b654d120c5
:102c00008b02342310e9dd3cd8dce263f4b130649c
:102c10008c1e7a64ec72157e75330dd5196c61c803
:102c2000e49f5bab6a3a748e7eaee5aca0d9ac3e55
:102c3000b4efcfad32ac81e5b7ffb05ebb2ca76f70
:102c40003b1d489e0422f93385104cd8cf8ffbc81a
:102c500041989a3241a2e7ba6f21922bb2ae4a5df7
:102c600073efd0396cef06240e08a84a14fda64570
:102c70004dcf2de8627a2248a6a07091659a3ee277
:102c8000aab8ae8f25873d6bc65ad0990daadd81b3
:102c9000f85866e6755d61a999b4d1938eeff9bfd6
:102ca0005cdcdff2dd862dccbeb0ec8de329e209e1
:102cb0003d2fc88ab8556819fff6df97770cb33ceb
:102cc0003501f30c6c7522bce9ac3d4cce000f769f
:102cd000140ab8fdf5c7bcc9cd19bed138855cd57d
:102ce000c8fbac091cc14710210b228bef0c9c3197
:102cf0004af191b49005d091696743162b51cfca20
:102d0000df953eb14d8fb9cfe8fc7e4dc5e8655cdf
:102d10003ab6f54bf4399319c290456d1825547d98
:102d2000514f6afaeadcc7b7ce38494b21ca345250
:102d300078733081be3dd519c7ac94bee06573d9b8
:102d4000582b9c37ad17aa673e754c0fca1a0e6aee
:102d5000cacb63e3376ebbe9e16ab3a330b74da0da
:102d6000193097c9b9f3a5f47da6e196ad70014974
:102d70000a09f8e444874f392cda70bfd8e1653589
:102d8000b26d55a2872a4bf2ff7c8470171d2c3a36
:102d900040e7e6c47a34c953d7f51978b4eb532722
:102da000ab1df7b5a480488b5f6f6daceaae7802bf
:102db000fb4869a737cf48f3cf143847fd5b058f31
:102dc00080a269b43756f06d1f342fe268a4fd88e5
:102dd0008e9ce72e38b2dc6699c4f099b38d78c624
:102de00031d78a9b194c61012f871dfdc4abe64288
:102df000ef6ea4f6f858023036e6ff28ae06a38040
:102e0000a6e4a1238ad7f19a39d18b3885dd901cad
:102e1000f116d248bba2a9591009c4f0e786817ff8
:102e200089d11a4a9a654dd0366c893b6a935246cd
:102e3000a6f3046b0bf119b37dc1f4c48b2a7f9efa
:102e4000385da04f3d274c96836ed0eab2c798916b
:102e500048d8906a1695b56b7065ebd62c2369ae91
:102e600088cbe7a29b8454159de49c44032107f181
:102e70004a0dba184f26975f19f3d2b7b2f1e2cfd5
:102e80006e1bc124a0feb7f9274fa16b72576aaa27
:102e9000234ed359b5654abfee4493c8acafd7c3f0
:102ea000edbb9584bcaa323bf4ac10b2490567df98
:102eb0003acf23fe3725c0c2ecc2d0daa952504027
:102ec0001c31357d2663696c7c23d39bed2832aaa7
:102ed0003f60efaa59e4f5c635e96de37544432038
:102ee00070906ad5e7f1561f55fe7166f44adf8986
:102ef0003c2ba3a3439f2112d43944d114d71a6980
:102f0000bee822f6460ca2eb592323cae7350b850f
:102f1000294968822b583a5f6f3fb6eb1c84bf4c3f
:102f2000c21f10a5a9fb98a72270d5d9b201b76d11
:102f30000a9487accd5d27df6cba1237e9f32dd741
:102f4000195870ba95be2f38460cfe75e2e201544e
:102f500024ff0b54522577fd4a2f7edec52aa83563
:102f600001a07535c3b3747cb453d83312e0be11dd
:102f700085175bf99e08bfe0b20f4c25d614975019
:102f8000a0161a0f1ef19b030396b5599366dd3ff9
:102f9000608ef3db9d3abe441ea0e3f4ac339d6625
:102fa000a02a9f2226820b0400b1404ffa830aef29
:102fb000f4ef9b12d7dddf8c293a9379cfda79cb06
:102fc0002ad123e7f36c4604b42adb6f1b944dfa35
:102fd0006d3cf4b4dfc2674956b3a5985cdce7e505
:102fe0005c463a43de229cd9ae2d3c552fab2e8059
:102ff000d11d5d0143088b93e868ff7d1b66c4818a
:103000006f72b407691eed166529a69004234d9ec4
:103010004982cbc8c0fca308a66ac98109416b9745
:1030200072ee652a565bc4c220cd3479f8e09e4822
:10303000567811652e98083c24a65f102ce6af4404
:1030400057e971f0d6d870579ce126f9c324bbf13b
:10305000993c465efb571f3aabef6723ba12148cbc
:103060003c56a0399d67976f20cb2a13cfa753c03a
:103070006fc2614db303eaa822586ad88fa838c935
:10308000b294c0d0e4134cc74e9af1705a03d95a87
:10309000fc64b532a67d066552bb29a55b4a791e44
:1030a000f20d6033d283003de974031238350871a4
:1030b00091579931c2920e3fb005f0bbf723edbe98
:1030c000e62f6cb67a618740485d83db6e7bb9176b
:1030d0003e23f50937ecdf5d242e901f608c945859
:1030e000a544043c55294705eab577eee9f635e5f0
:1030f0005c6fb327ade6e4333f0475c3804ec06d0b
:10310000f30cad4a9437923aab27eef5af530dc3ab
:10311000b182afa6d606b3e97979fb3fa5fe083c9c
:10312000d0aa552f052be668fce5d3577fe7e428a6
:10313000548077cbce3c0b9c458d81ac63e2c93e7d
:10314000440c2ae91a7b567ad7bc69d69db96e8a97
:103150006b85b11ad5da28212cc0cc776be24a1dd9
:10316000be8b763245d8d23d7ce31a24ec93758829
:103170002c0cc786bbdde67333d4f97fb9bd511380
:1031800033661be09ad8b0e4a1e28d3a6c5a56a59a
:10319000baaf29a9b15e791a5e547486f9e605962c
:1031a0006e63599b5e7689fd5a40e0c91996eccf53
:1031b000651c582634493d6e8dbc20a4c2a17b16e7
:1031c000507e546917d71fb4cb7e779c51a3133719
:1031d000b741111065fbfe63794f3069cb6b4c89a9
:1031e000119b5fa842aed9849bf05665619c566fd7
:1031f0000812e30e3e1274555daabdfcb339384f78
:1032000098dbfc3e26b01a00745175f5cc6cf86e54
:10321000784978d47b4365b4f5b0997ea8135d28ce
:10322000705ab5c39633e0c1af0fe4e2f4d74567f7
:1032300091085a96ed2fdedf5022ab28793aa393fe
:10324000cb4f56100242ddc8386fc085b0b733127d
:103250002da407b478b7e742fb874d2fbdbe1354aa
:103260005f283abdcb5b5cbeae95ca00adb0235fb4
:10327000c7af0578d87f1d9ed2963fd638f8de823c
:1032800078fba2b51b26b6a880813d3a6c5e33b9a7
:103290008db2af3a6c2c6ea3c79d2d846a9f456d8d
:1032a00062dbbf567769b9d38bf89078b1b00d392e
:1032b0004f83a35894dc4249d280f23125a8d630fe
:1032c000dd94cfdd4e1f246d62d65577b49cb1bc22
:1032d000aa63b6d0b71f237b71d3153a7e021c15a3
:1032e000bf7c16271059b4827729d586676415c923
:1032f000e3768cefedc3b0107c7dfc066420de41ec
:10330000b1b42e88ca27f1a53d5924a794d83f0f00
:1033100011b4ace50d2a9b7f5366ac8e3308b41014
:103320001bda93eaa957d2e73cf993312aa750b0a8
:1033300014cb0ae31e504fc3b02804842c602ba387
:10334000dccfdd1ced238d83468223a984c637baea
:1033500005f84e20aea6a1f16078148a78b2d91a89
:1033600062fd77a11aa30c8635b592e53eaf1ffe2c
:10337000b43f2b1cfe783b103afa107c9e8ca27155
:10338000caa435bd7499b40c74472233ffff8281ff
:103390009206e0004c3e461511f02bc8ad7abcb148
:1033a000adfdc96617cc51e81e8d8ea7fb84175f53
:1033b00091ca4f034eaf4bb3b2c44edc9f53e9bf2b
:1033c00018ee755458db808307550b39bd511d4ce1
:1033d000621cab2d293c3368d37b285505c9d2bc70
:1033e000ea8c8a6f51ea8012b2e5ea044a2abffdec
:1033f000e99f88052808a21f9f8061af4d6c2bc3f1
:103400004c41164f88b78833ccd0abbbbf79a6f9f7
:10341000807010ee5bfab3495b197b9c06cc43fdd0
:10342000f59e035e88277e75f618ee82efc5ad0c1b
:10343000a1ce730fa2faf2a08cae2a74fa2df595e4
:1034400093f11b42d252cee1413be616736b35ce6f
:10345000064ccb01ac2142adc42ddf3ba594150b2e
:103460002e000a95276c8812092f59f13331b66f57
:10347000adce65928ad04222703ac6846227f15559
:1034800089b9cf04834d1c71b8d0973a7934394348
:103490003573c05a5bfd958c6f750cf9f6390fe3e7
:1034a0009eca541d8b577cac24f609c79818b0e20d
:1034b000019e7ecaa3ab2fbd17838781e7f30394d8
:1034c00067fe0a3caff99bd11c104a9086143b4c16
:1034d0008f640f013562f2c00c6a14d9945058f30e
:1034e0008065fa8651eb82cda47a5e0fa3253f97c3
:1034f000a4c86d9a729c00c59079fb096341d20300
:10350000b4ccc93450026dc900c77fc5a74dea6568
:1035100085145c2a59ad3853c996faf1be579a3ec4
:1035200016e93b0d26383da7a41923b499af2f12f5
:103530003141005094229140f828ceb4476d39efc4
:103540002665240279ddcd8bdfdfdc72a75eaaa7ba
:10355000ae77ae4c60a2c90470973ae55ba5fb87d5
:1035600036250da03e9786245c563f711656089767
:10357000bcaff967d4cf3178bfa6becb4eff5adfc0
:103580004e2384493eb8b7466c09b52859ed95e6f7
:1035900046bce65c2786543b793436d55b230c3930
:1035a0009e6f107f24cad5d75d0ee943a05486d6fe
:1035b000b8adec18221c7990cb2a0a997c02704194
:1035c000b193639cce499bbc2520f229edc60f9494
:1035d0003a319a547d9dea7d5ab402b6850a69fd56
:1035e00073a3851075f4430f9999a157b2447dddfb
:1035f00009416c3b75ba55b5578e70c300b70d4382
:10360000f83434fe44c6df8f6e7e3a2e853edc35bc
:10361000b0a2aff8586db897c71ecadcc19986e34f
:10362000783d144ff1006ae05624d7b0e09756accd
:10363000b69e551c100015977d0ac6834c8f6c2dc5
:10364000afb38f5de01d6ff7b1815674bf45635c0a
:103650007da0f2f0a67c9f4d2ed5ce1fc68e663083
:103660006c41a67abc91a87b7d8f969008ce69c3e9
:10367000f49f22d0920f2cf2b0cd344e7a14248cc9
:10368000e587087be316ed6fd74c7af1698a95ca16
:10369000d4a1ce3acbb5f79e05f73999e411461c73
:1036a00039c05f5174935f9c2520d02cb5d1a22bdb
:1036b00081d5583f9f97bbf5bba30b29dc65ed3a3d
:1036c00053325c3adf26cdbf16c2d459a95f24ce4f
:1036d0000cf3c9b57cdb5077218168fa7d8e71a629
:1036e00026cd7c23641c9c06cf3ef300c0a9babf44
:1036f00086afea8278e215097650a7c6ff225657b0
:1037000097226393000c8f424fbdc284783c619d29
:10371000c5a5442472375181141243ddaf49a1a9d4
:103720000e4e05dbd820a20fdb8efd76267ce80d41
:103730006172076106f39e7d0264865c673e4b4cb6
:103740004da3c1c42da031b2adc76a4dcb8037f2b5
:1037500046fbc388f6d2b7812868e4b749775002a0
:103760003d920fc35c50928afc87f9aaf939e8efc1
:10377000620a3ff971db9a0ec5aee4a428b2e37f7a
:10378000978b97ea3e7182b635640565a2bc326ab2
:103790008682aab10a5d5d3384e9b6bfa41553bf22
:1037a0009df21a59fc99ab6325026fa2126847d4a7
:1037b000d1babb14fa8ad43b0b34289e1b99b53975
:1037c0000e17b697437831778aa1a33a30d55e8a2f
:1037d0002f3ac5fb103c5c37cc05411baedd3bba34
:1037e000ff9ba2680b7283e554a56ad7bc7ea0cf6d
:1037f000e109c44f2a0be2b6dda435f05db6cbb6c5
:10380000f8a10b8ef7febe7836f8c53912d06ac320
:10381000e54137f8fdcf81cc8b5d41a77ea2e9055c
:10382000b83e1399fb62feb6cdd2bcdd9865e34a83
:10383000dc518dc44a9444b01812687d5c2d8b8d88
:10384000c18e3be6f1109ba4cacb77fd5e6bb378cb
:10385000ac65a26456f019ccddb0dd1eaaa141a270
:10386000803b18cbd8b7349f4cbf0e4e92dc4bf048
:10387000fdc08553afe2484ec2204c1c95a888cdb0
:10388000b859806dee42729d35286ce38b5b2fa199
:10389000a29237db6d167128eb9ec351f3cb855c8a
:1038a00039b961060914b45217e92bc524463ed52f
:1038b00059875ef71171b8b2cdfc159b013436b44f
:1038c000f86a1920650e0b8860f08316e145cdd4a7
:1038d000a426702c4c344ccbafced827cee046601b
:1038e0006e852c16678164895a286095695c80060c
:1038f0004edfb952228051464ca94cd6f1c43e77d6
:10390000ce88fe65ec8788d63be016be24a72b70d8
:103910006c77acae5ce536a403c211216095e1156d
:103920008ba5a4f15bb84e539d364ac4f85094c59c
:103930004d3930706f77ed5cf85a25ef210ba82ccc
:10394000b602def62d5b69ae7b7b7fda0e52e417a2
:103950005509bea1a67e3388c0f51a38c81655563b
:10396000518d094b40a696c66c04726b6757cb0c01
:103970003d7943ab51833de5d9ae0f7e3ff509e07c
:10398000817782330a1a70c053d48393b2cc0d1e50
:103990005a513adc2d8530c4d3d84130e54ced7d09
:1039a0000799236d9522dbeed6a173757529f99bd6
:1039b00092b0dfbc0981e2e2e90cedc29131de3761
:1039c0009a797902ae4ae753492ca68ce0aa6d7128
:1039d000da220a5af4f1c2c8d7223de40d0aa8d16e
:1039e0002491e0e6aebbbd14b2e873de3477630128
:1039f0000d12ceae33a3fc0d9c5ee8fd8426fe7650
:103a000078b4d299464633f9bae8c2f20c20392983
:103a1000b08923f66d8206002aa96e149005e04352
:103a2000ef15b5248d938b9bc0343a1de09e743ef8
:103a3000101bf305c86066f8d353f6d3470a2c75fc
:103a40008ddb3d11586dd4ab2e7b3c9e0f7c45e940
:103a5000fd860a48d826e1b487deccf188fd49ce40
:103a60002d3480e8021c73ca85ad0766496f1112b8
:103a7000069008c4dec9c4ac946f93d5b0e38fe15f
:103a8000579384e4b8e1238dcba3798ecf34675666
:103a9000e63c194adb9fdfb43a07fed5770aa0352a
:103aa0007ba9dad7b305a6c238fe6573a775844c27
:103ab00077cebbc3996b5bca8aa40403b3b4c8eec8
:103ac00045e3f4ab3cfd6c3b9204b9ad44b33663c3
:103ad0002fdbbb3fa95658d5ae7230a532ecfa3a6f
:103ae00004a07f427ab9b11c79cc3e74c7673148d3
:103af00065ce7ac705c5c95297e67997af9a9c0dee
:103b0000d82defce9c0a340c4c2d765ebc640f4c45
:103b10002573899c3b034f84c00a304c811fda66b1
:103b2000ea4badd45dcddcd05a748bade07430ea95
:103b3000e6f826c2c2ca4645785f2989feade8cdbf
:103b4000ee2574ccff29ef0d5e8f58dd24bb96fb6c
:103b5000e674443a2288917ebb35839cca6dc8b115
:103b6000ce5b536405e43e6b22e1aa8f6b6ab467b7
:103b7000641d6034167ae0e8084b96e4f253bcee1c
:103b8000e29596cd999a94a851b2f04c3e75bf0932
:103b9000a764298c12f7d776b126ba96605bb41a5f
:103ba000defd3969ff569891f10671e3093eb95f70
:103bb000bd627245c15a95ac2bb33a2fe8b19e65f0
:103bc000b4e1f7a12b0b2eedb8fafc0335d2fbc8fc
:103bd0006844f03f7a58928677b25e55b37867733f
:103be000d403551b7a906500213052ba1c6f310402
:103bf000b439ae34575a5a6d7b9bfb0575549565a5
:103c0000fad7391c516e066f30010acbbe78526d5f
:103c10007557891641c0ed772b2d77cac64504a587
:103c200065de51a2ad39dc2bf8004bf5ad7e5e753b
:103c300061292bf556f5691ac1eeddaa101f990806
:103c4000b2bb41ccd7d33ac844d0e2266eed068849
:103c500097a364aac49854afb7c33680c76bb0fbb0
:103c6000d574a41cf98c02df45cda3684d5d3c3aa8
:103c7000fe2c96c1d2758c061ac130e7d9d8d21263
:103c8000b13fde185614f35b6c694b271a361e2ab7
:103c90003fb5f8c58cdebdd9a0c3009a8528e19c4c
:103ca0003cd7dde9888802662944c41e2dc6e45b42
:103cb0002962f60e5ae6df316eeffdd226e00c9255
:103cc000b5bf3cf29df5d624802b7149aead59129b
:103cd0004a5ce6b8679a90dab94c291e6faefb636e
:103ce00088b9dfe8d97bd02aa29dbb1b39eb27b569
:103cf000fee24764a99d1bb74499951e2f8eeab436
:103d0000f89d977a521f4ba866d3230d7e4aa8e0f0
:103d10002c93de9affeb4eecc5b21da4a3a2f9daf8
:103d2000d277a4230b6d475873dfdb5b0030bcdf19
:103d30000620e33896abd85c34de4ea4fcccb7fa50
:103d40009b4337352b22f41fa76fa3ff19fc90beae
:103d50007ade1808e832b34ad9985f72734ab1c262
:103d60009c441eeaa97b8eff4ec2600a982e789a68
:103d700090b355dc01776800512dfe97f63fc4ca19
:103d80007c91535abff4a11291232622c711bae4a1
:103d9000376e1fd2919f9efc2a344b71754dbd9f8b
:103da000827c2566bf0afda7c7da33c46a8f0d8bf4
:103db0006de1b76fa43517b53db40c4f83a00d9ed0
:103dc000fe47c88c20791b9eda6fab3ebfab664db9
:103dd000911c89f0e029ff0cc50d1a6954a91b8cb0
:103de000185a0c30d290d3ab359272e8a21a4962bd
:103df0004f4003cc9c1cbe0ffd76f7bd3ddd786eb9
:103e00001ca0284ef71ac75bd72f1ee36b91b22a6e
:103e100090b2073bcef7b9e58206d81558b8d22440
:103e20002bdee2e747bd894de9ee08feb0c12fd297
:103e300024ff67b0951ab8cbe8b56f002b5dec6a2c
:103e400085d6d7c0a1431cde52b5765c63ea0582f5
:103e50004b62c17209c274bf8a5959bfc2ae87f69c
:103e6000ed8f063105e343196cded9a6fc82f3c061
:103e7000dd5db07253892b5dc9efecdc1c5393e21e
:103e80005be2d3279f5d68919df05d5154f71f5f02
:103e90008ce93af480a35544a4953d2013a26c0408
:103ea000896a5d69ec7ebef83bdb32428638295771
:103eb000abae9c58a6f1a376331184d5281ee550ed
:103ec000685ccef719ddab5099da51ca4d0b1f4330
:103ed0007ffdab83f9dfea7cdc943cb4c5e24affaa
:103ee000b1488a22e916b525aad2b9632a0992dd1a
:103ef00021d5f6c347991c49fcc1b5cd4c98f40bac
:103f0000f464cc98204bfac57f8ee0ceba056cfbea
:103f1000be87d791710fa1594b9c2d01615ea3a063
:103f2000739727d0d04ed3f599d70948aae03c29fa
:103f3000bd0eb4ab390cc5b7d33f5911dc255aa51a
:103f40001b916ee13b4ea642ed9d5d72775d8c9fad
:103f5000db0214fc71e03be4022fd662d9bf1f28bc
:103f6000a393088a668b011a7d634f8147ade93eb2
:103f70002eacfc3ca7323637fcedfb4291f6152ef9
:103f8000539958f2a2e697c67d55e2f61261408f2a
:103f9000d905e1ef8ee20d01a49489e7c2394b7097
:103fa000bf59229aa1ed0f4df59c396e732cd8faaa
:103fb000449a57caea4a92db6b7122d2734d3fd1c1
:103fc000d79ff977062cee0ac547b0a3ac8475d904
:103fd000e78ae4faeda48e485cb974bef9f47bd6a6
:103fe000b4f95bf6b8927a2c8766ee2af36a0d3d37
:103ff000949bdf3b3deda45946f8e2a20afe7a42cb
:104000008f465b7b1ec7a93bf17087a17e5fbb57c4
:104010001c4c6889e5f1fdfbffdf288d44b41a4c88
:10402000ac86ca0451aa371644eb666e8792e82420
:1040300060bf7dd38dc27931c085f9da99c3b4b43c
:1040400031ec543bd19d129802edfd8dfba401eea5
:104050000707c539b58daac59d107b634ee9ca9186
:1040600003cc8177f0dc36760f55495fd67b18900c
:10407000ce9710cceb9c6daac9b721fe934b85510e
:1040800033c9c97983d3106a547bfa51d7cec4adf2
:104090001c66ba16bad49f5008d041bfa8641699be
:1040a0003987efd71c0906b1b8c7ca872f08ba04e9
:1040b000a623dcbaf869b2efdd6ade60b2b513445c
:1040c000319518ab80b616b12490d9fb5775694766
:1040d000e22ea214afd4bcc049304dc32e178aa81b
:1040e0002f574114487ebcca5056c59bcdb39f94f0
:1040f0007d125a116c372f0790dd57f78e09131d6b
:10410000dad97ad9eef75b0fbb341f0b342ba22f11
:104110004da63c4d68d9798c8367a6f9fd583bdfe5
:10412000d8822397a1b3246beb2f4736470642f280
:10413000dc32eafc088d6376b01c05dced08d2f3b6
:1041400057a906b2044368260b217dbc2b827866f2
:1041500019b795d640f380aed6609f1c48403ce32b
:104160003e361408223d2b97802725b1888a305d82
:10417000b52c3b200f13316ff1d420d8e184ce044d
:104180006b1a430bc9d24551926688e3f99d6ed0f4
:10419000c8485098811b4d272bd1639ddce7b9d1ce
:1041a000ff9d753e3402fd3e6fa14ca197b0963342
:1041b0007bf0172b1ece8042e5ce331ab6d0d9d66f
:1041c00034e091389718793a45b45c6176540e3de5
:1041d000e23facc3b925a9c43800079b07e359b82f
:1041e000d8c70356f54b7910a971397c1f594a4f2e
:1041f000eca40fd457ca7a121d0578de1c21788ae8
:10420000fa426e33848713a6039436c0a3fea53406
:10421000cd782963b50ee423bcc148eead089d32cc
:1042200056e5b131a577ac3e7d30d2375a1fcdcea1
:10423000d65a8804110e39e51bbad128f19984beeb
:1042400052b09c04c2efa99a7e2c204dd60e36aef9
:1042500012ec210baac5dd068880e392b60f41d58a
:104260000d50985ee7f69cbef3f0caa5992a214846
:10427000903af91f6753ac24aaf89f17445f9edf5a
:104280009eeed505df2a00abbbdbeba3691b96c016
:104290000800c19557c5aaeeacc43c9fd886ebc5b3
:1042a000f17579d9ab340dd20aef50f5032313c958
:1042b0001ab9506b1bf426b81d94d0d8b3f6d7c5e5
:1042c0003f2a1c765193448108c5b44e0a869d6ee0
:1042d0002624d7756057a597211ce333e4ee546973
:1042e0006f65773a0fd3bfb1caab77b041aabe337f
:1042f000cb128c208c00b8d076409fcff458d9a830
:10430000da1a56bb487420b3fd88953b21e193121d
:10431000b2d854e50c14fbdf1d12d5d694cd35f57b
:1043200018b24d846b3d4d9d2b5224582aea26db52
:10433000645b9677dd976d54225a65ae1f0a3e1f67
:104340007a772783d24a445b94b66b0e0f6c49d5bb
:10435000fa4212f7de9024ac8b9f2d372d86519bad
:1043600057018c67974e58dbce904a2347ba3b479c
:104370007f9a0cc410b3ff15d4b3030cc072ba43b8
:104380003121552bf87384d318599bd3216cbe96d9
:1043900011123b6680be2b48df53f6d2cdca8f3652
:1043a0008640b8054f61652f23cf57a82464641455
:1043b000fcb02b0cde20af348cfa26c815e0090dba
:1043c000a68023ac4398c0ee32d33227ab93b0d152
:1043d000c1d5607a40adcca49c171b24b65422e909
:1043e00038c452c2d2ab82bc62d87ac33e9a3998e2
:1043f000136944308db66f84fa4f22f4f40a4a4ba5
:10440000043c5e5f8539dade15f20360adbc2494ae
:10441000886e4e0ebeb049ef9e7c4f243da06fd2f9
:104420007f04fef1649bee68f33eaf992aa486e612
:10443000576dc3b5054573a5230fcaa0a2a88de982
:10444000d026cd59e5bb0c1c9f05835428c867fcba
:10445000829835b55611b99ba85c968a6fe0b1c6b3
:10446000b3ed5de657a40330f0b542f78af6505f2e
:1044700040d81fa893dcbe18937d4e39b64148c77b
:104480005f577e85bd557af3e3b405941333d15459
:10449000bf2c0ae49b1c5e1709435e2a48e5f6011f
:1044a000ce907845d923ecddfa40149a7a61d5266e
:1044b0007c036e7c8bc91ed4e6e9c5a9a81c0f58e5
:1044c0006b656140dc9813af5d0d1a47d9d60525a1
:1044d000cc8a061592f70f75bf8f7826b447720203
:1044e00048645130e64923cd21ec8d28da5ff87c11
:1044f000bfd7e9ef39395c8e15c180d54d805de3ba
:10450000ced45ab32f8bc6e97ce5be19f19161eb8d
:10451000d4abc0fe8b3341d485f087b71385357596
:10452000a20839f186f1758ec9165cc800c23d0338
:104530002d57e23a2d015f018654494a144c4d1f14
:104540003998783e00ec66a1cbaa45b38fedb0a7b1
:1045500073d3a637e0bbd970c6efd02cdc29a5ea0f
:10456000dd222fee914172733138fe0abd3f8dacd2
:10457000d814e16bfba788dc8f61b1219209e413a9
:1045800004ac9aed1229f4fc2902f20bf385f0eb4e
:10459000811b14a1e5d125bc766ca0d0c9aad3108b
:1045a0005a09de75a1eb3509656a50cf68d66e0ae7
