:020000024000BC
:1000000003B40148019001BD891404000000000000
:10001000FFFFFFFFFFFFFFFFFFFFFFFFFFFFFFFFF0
:10002000FFFFFFFFFFFFFFFFFFFFFFFFFFFFFFFFE0
:100030004150503279C63B75B3C3DCD21DB6064D74
:100040000002000000000400F81B00000000000097
:10005000164BD3F8B02042F00802C3F8B020A3F545
:100060005A239A6E22F0F0029A66DA6E22F4007237
:10007000DA66D3F8F42022F4702242F48022C3F826
:10008000F420D3F8F42022F4700242F48002C3F882
:10009000F420D3F8FC2022F01002C3F8FC20D3F89F
:1000A000FC2022F02002C3F8FC20704700400E40E4
:1000B000030903EB830300F00F0000EB4300C0B221
:1000C0007047F8B50024055D682D00EB040305D1E9
:1000D0005D7A002405F10A07264603E00134FF2C6F
:1000E000F1D11AE05FFA84FCBC4504F1010404D2AA
:1000F00013F80C000644F6B2F4E7D85DB0420CD118
:100100005819C07A162808D10C35158008462A4699
:10011000194601F0EFF90120F8BD0020F8BD0000FC
:10012000F8B5037A932B074625D100260022002339
:10013000B91974428879114960546421A2FB0145C0
:1001400001FB0355FFF7B4FFC0B20021221806F1EE
:10015000FF3645EB0103B11DEAD1094CD4E900019A
:100160008B4208BF82424FF0010005D0C4E9002352
:10017000044B1870F8BD0020F8BD00BF69B5002021
:1001800098B7002068B5002030B580000023084DE6
:100190005A420544CC18AA5C647B3332D2B29442F2
:1001A00004D1013B1A1DF2D1002030BD012030BD29
:1001B000D01A040070B5C2B00DF10602ADF80610F9
:1001C00002A9FFF77EFF60B39DF81030912B05D197
:1001D00002A8BDF8061000F081FC22E000260020F5
:1001E00000216423A0FB034503FB015502AB33440C
:1001F000013E9879FFF75CFFC0B200194FF0000193
:1002000041EB0501B31DECD1074BBDF906401E22A1
:100210001A70064A002301F07FF902A8214600F077
:10022000EDFD012042B070BD08B00020A0860100A5
:100230002DE9F043C3B002AEADF802100DF1020299
:100240003146FFF73EFF00285ED0314C2378013B5A
:10025000032B07D83046FFF763FF002853D0002355
:10026000237050E038203146FFF78EFF60B9B37B32
:10027000332B09D1274B1B685B689847BDF80210E8
:1002800001900198705006E03B203146FFF77CFF5B
:1002900030B9BDF802103046043100F06BFC32E09A
:1002A0000027002200234FF0010806EB0709642114
:1002B000A2FB014599F8060001FB0355FFF7F8FE84
:1002C000C0B20021221845EB010399F80610013F46
:1002D000AA2918BF4FF00008B91DE6D1B8F1000FE8
:1002E00005D03046BDF902106FF07F4209E0BDF93C
:1002F000024010461946084A002301F00DF9304625
:10030000214600F07BFD012043B0BDE8F08300BF33
:1003100078B5002050B40020A086010030B5C1B0EF
:1003200005460DF10200144601F0E4F8FE238DF8B5
:1003300000308DF80130064B9D42684604F1020101
:1003400002D100F0CBFB01E000F014FC41B030BD65
:10035000000001402DE9F8432C4C9DF820901E46EA
:10036000682390462370E3719DF82420912307466B
:1003700023724FEA89090025DFF8A4C0234BCC443F
:10038000601B1CF805C001350CF1330C042D80F8FE
:100390000DC0F1D1581C22B1AA21062201F0B3F8F8
:1003A00004E00A68C3F801208B888380301DC0B246
:1003B00060720021CBB2B34206D218F80120631854
:1003C00033329A730131F5E7002319465D1C06F1BB
:1003D0000E02DBB2934204D2E35C1944C9B22B464D
:1003E000F4E734441623E373094BA1739F420CBF17
:1003F000084A094A054901231360084B00F10C0221
:100400001A603846BDE8F843FFF788BF68B400209B
:10041000000401407CB5002070B5002074B50020B8
:10042000D01A040007B53B23002100930191044832
:100430000A460B46FFF78EFF03B05DF804FB00BFD2
:10044000000401402DE9F04180460F4600263C683B
:100450007A686423A4FB034503FB0255C7E9004502
:1004600008EB0603013E5879FFF722FEC0B22418BC
:100470004FF0000145EB0105B31DC7E90045E6D18A
:100480000120BDE8F0810000F7B500240025CDE98A
:1004900000452B4C0F46682116462170E1719DF8EE
:1004A0002020112121729B000025DFF8A4E09E444A
:1004B000611B1EF805E001350EF1330E042D81F8A5
:1004C0000DE0F2D12AB1AA2106221E4801F01BF844
:1004D00006E01346C15CE2180133062B5170F9D1D6
:1004E000331D63720023DAB2B24205D2F95CE2181E
:1004F000333191730133F6E700231A46581C06F195
:100500000E01DBB28B4204D2E35C1A44D2B2034642
:10051000F4E734441623A273E37369460948FFF7EE
:1005200091FF094B094A10241C60DDE900010023FA
:1005300000F0F2FF0248214600F060FC03B0F0BD7D
:1005400068B4002069B4002074B50020A0860100C2
:10055000D01A040073B50023C25C682A00EB0304C0
:1005600005D1657A002305F10A001A4603E001333C
:10057000FF2BF1D141E0DEB2864203F1010303D249
:10058000A65D3244D2B2F6E7235C934235D16319BB
:10059000DB7A162B31D10C358D422ED838202146EE
:1005A000FFF7F2FD064690B9A37B332B0FD120460F
:1005B000294600F04DFC30B10096601C31463246B1
:1005C0003923FFF761FF0E4B00221A700AE03B202F
:1005D0002146FFF7D9FD28B92046294600F0CAFA7E
:1005E00001200BE0074B084801261E60074B2146FF
:1005F0002A461D60FFF792FEF2E7002002B070BDB0
:1006000008B0002070B500200000014074B5002043
:100610006846094B20F0070108228D4601B5D869CC
:100620009A64064B1A6812B11B68C0B29847BDE8BD
:1006300001408546704700BF0000014018B000200F
:100640006846094B20F0070108228D4601B5D8699C
:100650009A64064B1A6812B11B68C0B29847BDE88D
:1006600001408546704700BF000401400CB00020E7
:10067000094B0A491A6888540132FF21B2FBF1F193
:10068000C1EB0121521A1A60054B01221A70054B69
:1006900000221A60704700BF90B7002088B5002084
:1006A0008BB700208CB70020094B0A491A68885480
:1006B0000132FF21B2FBF1F1C1EB0121521A1A60A4
:1006C000054B01221A70054B00221A60704700BFCB
:1006D00088B600208CB6002080B5002084B50020AC
:1006E000F7B504460D4600F017FC714BD3F8B02067
:1006F00042F00802C3F8B020A3F554239C423CD139
:10070000A3F5C0436B4E5A6822F00F025A60DA68B4
:1007100022F00102DA605A6822F0F0025A60DA68C8
:1007200022F00202DA60644A538800235380118861
:100730001380624A1360624A1370624A136033681E
:1007400013B1DB690C209847336813B11B6A0C2086
:100750009847336813B1DB690D209847336813B1AC
:100760001B6A0D209847584E0121304600F0C4FC0A
:10077000032373670023B3673DE0544FBC423AD173
:10078000534B4C4E5A6822F470625A60DA6822F079
:100790000402DA605A6822F470425A60DA6822F081
:1007A0000802DA604B4A5388002353801188138073
:1007B000494A1360494A1370494A1360336813B1B8
:1007C000DB6914209847336813B11B6A14209847DB
:1007D000336813B1DB6915209847336813B11B6A7E
:1007E000152098473948012100F086FC03237B67D8
:1007F00040F20223BB670023E3602360E365A36547
:10080000314B9C420CBF41F2052341F2050363606A
:1008100000F064FCAD006B0803EB40100190019BFD
:10082000B3FBF5F50195019B203B0193019BDB0098
:100830000193019A2B4B13400193236823F060032B
:100840002360236843F060032360019B63610023FE
:10085000E364254BA3640423E3601B4B9C420ED14D
:10086000144A1368154613B11B6A0D2098472B686C
:10087000BBB19D691D4B01200D21002210E0134BDF
:100880009C420ED10B4A1368154613B11B6A152002
:1008900098472B682BB19D69154B0120152100222B
:1008A000A8472046002100F027FC03B0F0BD00BFA0
:1008B00000400E4044B400201EB0002018B00020BC
:1008C0001DB0002010B000200000014000040140D5
:1008D00000A0004022B200200CB000201CB000207C
:1008E00014B00020F8FF7F00F9FF01007D0904002B
:1008F000690A04001D4A136870B5064615460BB117
:10090000DB6898471A4C236896B16BB919480121E6
:1009100000F0F2FB012000F043FC174B5A6822F074
:100920000F0242F004025A6023680133236017E08B
:1009300013B12368013B236024688CB90E4B5A68BD
:1009400022F00F0242F002025A60DA6842F001021D
:100950000120DA6000F008FC0648214600F0CCFBDC
:100960002B680BB11B69984770BD00BF44B40020D1
:1009700010B000200000014000A00040684620F0B8
:1009800007018D4619B5124A01239364114B59880A
:100990005888013189B259801888598880B289B243
:1009A00088424FF0000407D05988C1F308010B4476
:1009B0001B79DBB2536306E0074B20461C60FFF750
:1009C00099FF064B1C70BDE819408546704700BF73
:1009D000000001401EB00020800920421DB0002010
:1009E0001D4A136870B5064615460BB1DB6898477B
:1009F0001A4C236896B16BB91948012100F07CFBB1
:100A0000012000F0CDFB174B5A6822F4706242F4CB
:100A100080625A6023680133236017E013B12368B2
:100A2000013B236024688CB90E4B5A6822F4706233
:100A300042F400725A60DA6842F004020120DA607F
:100A400000F092FB0648214600F056FB2B680BB1E4
:100A50001B69984770BD00BF44B4002014B000204B
:100A60000004014000A00040684620F007018D46C8
:100A700019B5124A01239364114B598858880131E2
:100A800089B259801888598880B289B288424FF05B
:100A9000000407D05988C1F308010B441B79DBB26D
:100AA000536306E0074B20461C60FFF799FF064B97
:100AB0001C70BDE819408546704700BF0004014026
:100AC00022B20020808920421CB0002000F1047076
:100AD0000C3040010123036070470000204AF8B544
:100AE000136806460D4617460BB1DB6898471D4C48
:100AF00022886388D31A9BB2C3F50073AB4228D314
:100B00002288638892B29BB271198E420ED02088DF
:100B100016F801CBC0F30800204480F804C02088F8
:100B2000B4F800C0013080B22080EEE79A4211D1C3
:100B30000120FFF7DFFE0C4A012313606288C2F335
:100B400008021444094A2179C9B25163084A137052
:100B500000E000253B680BB11B6998472846F8BDAB
:100B600044B400201EB00020800920420000014053
:100B70001DB00020204AF8B5136806460D461746FA
:100B80000BB1DB6898471D4C22886388D31A9BB24F
:100B9000C3F50073AB4228D32288638892B29BB21C
:100BA00071198E420ED0208816F801CBC0F30800D0
:100BB000204480F804C02088B4F800C0013080B21E
:100BC0002080EEE79A4211D10120FFF709FF0C4A7D
:100BD000012313606288C2F308021444094A217990
:100BE000C9B25163084A137000E000253B680BB19D
:100BF0001B6998472846F8BD44B4002022B2002063
:100C000080892042000401401CB0002070B5214CB6
:100C1000236806460BB1DB6898471F4B1F481E60D0
:100C2000012100F069FA1E4D23689EB12BB19E6927
:100C30001C4B01200C210022B04701232B601A4BD2
:100C40005A6822F0F00242F020025A60DA6842F05C
:100C500002020DE013B1DB690C20984700232B60E2
:100C6000114B5A6822F0F0025A60DA6822F0020250
:100C70000A48DA60C36908238364002100F03CFA63
:100C8000236813B11B6A0C20984723680BB11B69BA
:100C9000984770BD44B4002018B000200000014007
:100CA000880920421106040000A0004070B5214CC4
:100CB000236806460BB1DB6898471F4B1F481E6030
:100CC000012100F019FA1E4D23689EB12BB19E69D7
:100CD0001C4B012014210022B04701232B601A4B2A
:100CE0005A6822F4704242F400525A60DA6842F0C4
:100CF00008020DE013B1DB691420984700232B6034
:100D0000114B5A6822F470425A60DA6822F00802E5
:100D10000A48DA60C36908238364002100F0ECF913
:100D2000236813B11B6A1420984723680BB11B6911
:100D3000984770BD44B400200CB00020000401406E
:100D4000888920424106040000A00040044A002394
:100D50001360044A1370044A1360044A1360704716
:100D60008CB700208BB7002090B7002070B5002012
:100D7000044A00231360044A1370044A1360044AAF
:100D80001360704784B5002080B5002088B600202D
:100D90007CB50020154B984270B504460E461546AA
:100DA00002D1FFF7D3FF04E0114B984201D1FFF7C6
:100DB000DFFF204631462A46FFF792FC0B4B9C4250
:100DC00006D10C48FFF722FF0120FFF793FD08E052
:100DD000074B9C4205D10848FFF768FF0120FFF749
:100DE000FFFD2046BDE87040FFF770BE00000140E7
:100DF0000004014071060400A90604007FB5012328
:100E00008DF814308DF815308DF8123000230393CF
:100E10008DF813304FF6FF73ADF81030064B8DE8A8
:100E2000030022F07F421B680292DB696846984704
:100E300007B05DF804FB00BF54B40020024B1A78E1
:100E40000AB1013A1A70704708B00020FFF7EABAF9
:100E500037B5094B1B685B6804460D46984702ABE3
:100E6000294643F8040D186860512046FFF782FEBA
:100E7000012003B030BD00BF50B400200C4A12F86E
:100E8000303002EBC002302058430A4B5268034412
:100E900029B15968012000FA02F20A4305E05968B5
:100EA000012000FA02F221EA02025A60704700BFF4
:100EB000C41B040008A00040012830B521D8114B04
:100EC00013F8301003EBC0003023594301F1804385
:100ED00003F5204342685D6890000F24844025EAB2
:100EE00004045C605C68042505FA00F02043586047
:100EF000054B0B440120596800FA02F221EA020274
:100F00005A6030BDC41B040008A00040012801D86D
:100F1000FFF7B4BF7047000038B50B4B1D783DB1EB
:100F2000002001461870FFF7A9FF0120014607E0E5
:100F30000124204629461C70FFF7A0FF28462146C1
:100F4000BDE83840FFF79ABF67B500202DE9F04FA4
:100F5000494BDFF87481186085B0044683684748C0
:100F6000474F484E484DDFF86491DFF864A1DFF841
:100F700064B14FF401719847A368C8F8000040F2CB
:100F8000032142489847A368386040F20121404855
:100F90009847A368306040F201213E489847A36813
:100FA00028604FF400713C489847A368C9F80000D6
:100FB00040F2012139489847A368CAF800004FF46D
:100FC000007137489847A368CBF800004FF40071D0
:100FD00034489847344B4FF400711860A368334885
:100FE0009847334AA36810604FF40071019231486A
:100FF0009847DFF8E4C0A368CCF8000040F2012174
:10100000CDF808C02C4898472C4BA46818604FF4C2
:10101000007103932A48A04701462A48039B0160B8
:10102000D8F80000019ADDF808C0F8B13868E8B1D6
:101030003068D8B12868C8B1D9F80000B0B1DAF882
:10104000000098B1DBF8000080B1106870B1DCF8E6
:10105000000058B1144802682AB11B682BB1081C63
:1010600018BF012002E0002000E0184600F0010057
:1010700005B0BDE8F08F00BF38B4002061F1030077
:1010800040B4002048B4002044B4002076D6CE748A
:1010900065C1F902D51BDB774DC2130015FF4E0168
:1010A000AFD6137738230F0028B40020B830B90C1E
:1010B0004CB400206830B90C1808F2023CB400208F
:1010C000493BFD0134B4002054B4002050B400204A
:1010D0002CB4002058B4002030B40020044B054844
:1010E000D3F80C31C3F308230133B0FBF3F070479E
:1010F00000400E4000F04902144B98420AD103F51B
:101100005423D3F8C02011B142F008021BE022F0B2
:10111000080218E00E4B984209D10E4BD3F8C020BC
:1011200011B142F010020EE022F010020BE00A4B67
:1011300098420AD1074BD3F8C02011B142F02002E7
:1011400001E022F02002C3F8C020704700000140F7
:101150000004014000400E4000080140014B002205
:101160001A6070475CB4002038B50B4C2368054604
:101170000BB1DB689847094B1A6822EA0500186032
:10118000186818B923680BB15B69984723680BB1DD
:101190001B69984738BD00BF44B400205CB40020F0
:1011A00038B50A4C236805460BB1DB689847084BF5
:1011B0001A6845EA02001860236813B15B690120D0
:1011C000984723680BB11B69984738BD44B4002089
:1011D0005CB4002010B5044C23781BB9FFF7BEFFA8
:1011E00001232370012010BD60B40020436870B556
:1011F0000646A3B10B4B84680B4AD3E900010023D8
:1012000000F08AF900259D4208BF944207D0FFF7FD
:1012100083FE3068B188FFF79DF9002070BD012082
:1012200070BD00BF98B70020A086010038B51C4BE8
:101230001B7805460C465BB11A4B1A68824220D3D4
:10124000194B1A481988FEF7F3FFFFF77FFD07E0F7
:10125000174B1A6822B101328A4288BF00221A60F5
:10126000144B1B7803F0FF0183B1134B1A68AA4299
:1012700007D3124B12481988FEF79CFFFFF778FD41
:101280000CE01A680F4801321A6038BD0E4B1A681C
:1012900022B10132A24294BF1A6019600B4838BDD6
:1012A0008BB700208CB7002090B7002088B50020B5
:1012B00070B5002080B5002084B5002088B60020DD
:1012C0008CB60020803801007CB5002020A10700EA
:1012D000094A08B51368013313600A22B3FBF2F11F
:1012E00002FB11330BB9FFF7A9FD01200321BDE873
:1012F0000840FFF79BBF00BF64B400202DE9FF4109
:101300002F4E336810201B6B984708B1002053E024
:1013100033682C4F5B6902A8D7E90045984728B984
:10132000336803A8DB69984778B914E0204629465A
:10133000254AD6F80080002300F0EEF8D8F81830DF
:10134000104698470028EBD010E01D4B1F481B6843
:101350001B6A984750B933680DF107005B6A9847DC
:1013600030B1174B1B6802209B6A98470028CDD1EB
:10137000D7E90001144A3468002300F0CDF8A369CE
:10138000134C10469847134B13491B6813489B682E
:10139000FA22984733686FF001009B6D98472368E5
:1013A0000F481B68984723680D485B6898470D4BAA
:1013B0001B681B689847012004B0BDE8F08100BF9E
:1013C00040B4002098B70020A0860100C3B2A1005D
:1013D00054B4002044B4002000127A00D11204005A
:1013E000ED11040048B4002010B50446FFF7F2FEEA
:1013F000FEF72EFE0020FFF75FFD0120FFF75CFDEA
:1014000000200146FFF782FD00210120FFF77EFD4D
:101410002046FFF79BFDFFF719FD18A3D3E9002332
:1014200011491248C1E9002300224FF41651FFF779
:10143000B1FC0F4B0F48002415211C70FFF74EFB29
:101440000D484FF4E1312246FFF7A4FC204601216C
:10145000FFF75CFDFFF752FF28B101200146BDE810
:101460001040FFF753BD10BD98B7002000000140A9
:1014700078B50020D41B04000004014049F410009A
:1014800000000000AFF3008038B51D460368044635
:101490009847B0F5007F1ED310491148401A20F03C
:1014A00003000022824204D00E4BD3588B500432EA
:1014B000F8E70D490D4B5B1A23F0030300229A4213
:1014C00003D0002088500432F9E72046FFF78CFF54
:1014D000074B1B682B60002038BD00BF00B0002008
:1014E00008B00020F01B040008B00020A0B80020C5
:1014F00000B0002010B50023934203D0CC5CC4544C
:101500000133F9E710BD02440346934202D003F8C9
:10151000011BFAE77047000073B96AB9002908BFD8
:101520000028BCBF00204FF00041C4BF6FF0004155
:101530004FF0FF3000F03CB882B0EC462DE900508F
:1015400000F006F8DDF804E002B00CBC704700BF04
:101550002DE97043069E14461D468046894600F0DC
:1015600029F804FB01F300FB0533A4FB00451D44EF
:10157000B8EB040469EB0505C6E90045BDE87083D6
:101580002DE97043069E1446804689461D4600F0AC
:101590005DF900FB05F504FB0153A0FB04451D4468
:1015A000B8EB040469EB0505C6E90045BDE87083A6
:1015B000704700BF00292DE9F00FC0F29F80002482
:1015C000002BC0F29680154606460F46002B3ED1F2
:1015D0008A4257D9B2FA82F34BB1C3F1200201FA21
:1015E00003F720FA02F29D40174300FA03F6290C94
:1015F000B7FBF1F2330C01FB127CA8B243EA0C47B3
:1016000000FB02F3BB4209D97F1902F1FF3C80F0D5
:101610000181BB4240F2FE80023A2F44FF1AB7FB21
:10162000F1F3B6B201FB137146EA014100FB03F08E
:10163000884208D9491903F1FF3780F0ED808842CC
:1016400040F2EA80023B43EA0242002303E08B427D
:101650000AD900231A461046194614B1404261EBDC
:101660004101BDE8F00F7047B3FA83F8B8F1000FFD
:1016700040F084808B4202D3824200F2DE8000235D
:101680000122E8E712B90123B3FBF2F5B5FA85F2BE
:10169000002A39D17F1B280C1FFA85FC0123B7FBD8
:1016A000F0F1320C00FB117742EA07470CFB01F224
:1016B000BA4207D97F1901F1FF3802D2BA4200F2CB
:1016C000C1804146BF1AB7FBF0F2B6B200FB127000
:1016D00046EA00400CFB02FC844507D9401902F1A0
:1016E000FF3702D2844500F2AB803A4642EA01421B
:1016F000B1E7E443524263EB430364E7404261EBEA
:1017000041014FF0FF345BE79540C2F1200327FA17
:1017100003F1280C26FA03F39740B1FBF0F81F43BE
:101720003B0C00FB18111FFA85FC43EA01410CFB3E
:1017300008F38B4206FA02F608D9491908F1FF327C
:1017400079D28B4277D9A8F102082944C91AB1FB92
:10175000F0F3BFB200FB131147EA01470CFB03F2A1
:10176000BA4207D97F1903F1FF3160D2BA425ED97C
:10177000023B2F44BF1A43EA084390E7C8F1200216
:1017800003FA08FC25FA02F343EA0C0C4FEA1C4961
:1017900021FA02F301FA08F720FA02F2B3FBF9F199
:1017A000174309FB11333A0C1FFA8CFB42EA03433F
:1017B0000BFB01FA9A4505FA08F008D913EB0C0364
:1017C00001F1FF3235D29A4533D902396344CAEB6D
:1017D0000303B3FBF9F209FB1233BFB247EA034735
:1017E0000BFB02F9B94508D917EB0C0702F1FF33DF
:1017F0001BD2B94519D9023A674442EA0145A5FB13
:101800000001C9EB07078F424FF000030AD305D050
:101810002A4620E7624601E73B4614E706FA08F647
:101820008642F5D26A1E002315E71A46E5E70B4605
:10183000A0E71146CBE7904688E7434642460AE7D1
:10184000023A53E702392F443CE700BF2DE9F00F7D
:10185000144605460E46002B43D18A4253D9B2FAAC
:1018600082F757B1C7F1200620FA06F601FA07F30E
:1018700002FA07F41E4300FA07F5210CB6FBF1F259
:101880002B0C01FB1267A0B243EA074600FB02F3F0
:10189000B34209D9361902F1FF3780F0F680B3421E
:1018A00040F2F380023A2644F61AB6FBF1F3ADB2E9
:1018B00001FB136145EA014100FB03F0884208D9AE
:1018C000091903F1FF3680F0E280884240F2DF80A0
:1018D000023B43EA0242002310461946BDE8F00FDE
:1018E00070478B424AD8B3FA83F6002E4DD18B4213
:1018F00002D3824200F2D68000230122104619460C
:10190000BDE8F00F704712B90124B4FBF2F4B4FA49
:1019100084F2002A7CD1091B260CA7B20123B1FB5B
:10192000F6F02A0C06FB101142EA014107FB00F217
:101930008A4207D9091900F1FF3C02D28A4200F21B
:10194000C3806046891AB1FBF6F2ADB206FB1211F4
:1019500045EA014507FB02F7AF4208D92C1902F10D
:10196000FF3180F09680A74240F29380023A42EA2B
:10197000004210461946BDE8F00F704700231A4692
:1019800010461946BDE8F00F7047C6F1200522FA4F
:1019900005F4B3401C434FEA144821FA05F301FA59
:1019A00006F720FA05F5B3FBF8FC2F4308FB1C33C0
:1019B0003D0C1FFA84FA45EA03430AFB0CF99945EA
:1019C00002FA06FB04D91B190CF1FF326DD39446C1
:1019D000C9EB0303B3FBF8F508FB1533BFB247EAC5
:1019E00003470AFB05F8B84504D93F1905F1FF3351
:1019F00061D31D4645EA0C4CACFB0B23C8EB070733
:101A00009F424FF0000549D345D062462B4663E71D
:101A10009440C2F1200321FA03FC260C20FA03F3C0
:101A200001FA02F5BCFBF6F843EA05010B0C06FBD4
:101A300018CCA7B243EA0C4C07FB08F3634500FA45
:101A400002F509D91CEB040C08F1FF323AD26345C8
:101A500038D9A8F10208A444C3EB0C0CBCFBF6F384
:101A600089B206FB13CC41EA0C4107FB03F28A4220
:101A700007D9091903F1FF3022D28A4220D9023B4B
:101A80002144891A43EA084349E73A460CE73346BA
:101A90001FE70A466BE7B0409042B6D20CF1FF3226
:101AA000002319E73346324616E799458FD9ACF142
:101AB000020C23448CE7B8459BD9023D274499E7A3
:101AC0000346DEE79046C7E7023821443AE700BF05
:101AD00020010101200102012001010F2001020F5C
:101AE00020010B0120010B10200200012002010245
:101AF000200201032002200420030B0120030B021B
:101B000020030B0320030B0420030B0520030B060B
:101B100020030B0720030B0820030B0920030B0AEB
:101B200020030B0B20030B0C20030B0D20030B0ECB
:101B300020030B0F20030B1020030B1120030B12AB
:101B400020030B1320030B1420030B150001FF00CF
:101B500002800104040004010400010102030000EA
:101B600000000001000B0001000000000000000068
:101B70000000000000000000040910010409110128
:101B800002800102009002000280010604000102AE
:101B90000280010304001009028000023C230000BF
:101BA0000405010002800106048000010400050311
:101BB0000280011341434B44454545454545454653
:101BC0003433333905000000040000000500000034
:101BD0000500000044435520535441525420507294
:101BE0006F63657373200D0A0000000000000000A1
:081BF000A0B800200000000075
:0400000340000000B9
:00000001FF
