:020000040000fa
:10000000e8ff0020090400007104000071040000f2
:10001000710400007104000071040000710400000c
:1000200071040000710400007104000071040000fc
:1000300071040000710400007104000071040000ec
:1000400071040000710400007104000071040000dc
:1004000006000000000000001049086800281bd00a
:100410000f4a90470d490868002815d00d4a012061
:1004200010600d4a11600d49012008600c4a00203f
:100430001060082008600b4a10684008fcd2054a8a
:10044000002010600848004708480047fc41e00fc2
:10045000ef05000008000e4010000e400c000e409a
:1004600018000e401c000e40710400009d040000a6
:10047000bff34f8f054906480860bff34f8f05490a
:1004800005480860bff34f8ffee7000000500e40a4
:10049000444400000ced00e00400fa0500b5444ab5
:1004a0004448801a91b020f0030000231446834290
:1004b000414a03d0d158e1500433f8e73f4940485e
:1004c000401a134420f003000022824203d000248b
:1004d0008c500432f9e73b493b4c641a24f0030486
:1004e0000022a24203d0985888500432f9e7374ad4
:1004f0003749891a21f0030100238b4207d00020dd
:10050000d0500433f9e7d3f89020940705d4314b49
:10051000d3f84021d501fad4f5e72f4a5468516841
:1005200021f0407141f0807151602c4a1d69d2f870
:10053000b0201a6101f0dafc01f030fc00f056f84e
:1005400000f09cfb00f06cfe00f098f908b100f0a0
:1005500085fa204bd3f84021d001fad4d3f890206b
:100560009107f6d51d611b4bd3f84021d201fad477
:10057000d3f890309b07f6d5174b01215c60684695
:1005800000f050fc009801a900f0fafb20b9039b91
:10059000134843f001039847bff34f8f114a124ba2
:1005a000d16801f4e0610b43d360bff34f8ffee7e6
:1005b0000000002020010020f02200002001002087
:1005c0002802002000040020080400200c04002061
:1005d0005827002000400e4000000e40b081e00f80
:1005e0009021000000ed00e00400fa05704770471c
:1005f0000020704703207047032070470320704796
:100600000020704703207047054b5a6842f01002e3
:100610005a6003f5a04344f244421a60704700bf99
:1006200000000e4010b500231a464ff0ff31c45ca5
:100630008c4218bf00220132042a04d00133102b4f
:1006400003d02146f3e7002010bd012010bd0000bb
:1006500008b501f071f8bff34f8f054a054bd1681b
:1006600001f4e0610b43d360bff34f8ffee700bf9f
:1006700000ed00e00400fa051fb5436a994202d379
:100680004ff0ff301ee0c269531c1ad0036b994231
:1006900004d2013b591a8369585c13e0cb1a0b4909
:1006a00000208de803000a49013a0868d21a0df1ca
:1006b0000f01012300f0e1fb0028e1d19df80f00bc
:1006c00000e0002005b05df804fb00bfa08601003b
:1006d0006414002038b5026a836a9a42044602d341
:1006e0004ff0ff3038bdc36a0f2b11d90c48616938
:1006f000102200f0e3fd05460028f1d11023206907
:100700000749224601f00cfc6369e562103363611e
:10071000236a01332362e36a5a1ce262e05c38bd5b
:1007200058170020f7b5134b134e05461446002208
:100730008de80c0030682a4623460f4600f00cfc7a
:1007400008b1002013e00d4b0090019330680c4974
:100750003a46234600f091fb0028f2d1284608498a
:10076000224601f0b5fcd0f1010038bf002003b0f3
:10077000f0bd00bf20a1070064140020a086010086
:1007800058170020c369013310b5044616d0036b17
:100790008269581c2063d154626b236b93420dd342
:1007a000a069e169fff7beff10b9a36b0133a36332
:1007b000e269636b1344e36100232363636a0133db
:1007c0006362002010bd0000f0b51e46244b9fb0b0
:1007d00007460c4618686946154600f0d1fa20b164
:1007e0006b1c36d14ff480530493049b1d4914971e
:1007f000b3f5805f84bf4ff4805304931a4b139377
:100800001a4b1593236819934ff0ff3300221a9364
:10081000049b179218921b921c931d92144b154a1d
:1008200016950fa801f0f4f9134a1d9b116819449d
:10083000116080b91b9820b10fa8ff21fff7a2ff1c
:10084000f8e7189ab24208d8169b013306d0226006
:1008500004e0082002e0052000e006201fb0f0bd03
:100860006414002085070000241400201c040020cc
:1008700079060000d50600001c1400202de9f04f79
:10088000544b554a554e1360803391b03360544bee
:1008900000220df113001a6000f02afc002840f03d
:1008a00095809df813305a1e012a40f28f80052b47
:1008b00000f08c8009a800f0d9fe002840f0868066
:1008c0000d9b002b40f082800e9c621c7ed1fff7b6
:1008d0009bfe9df81330032b08bf022002d0042b8f
:1008e00002d10320fff7b4fe3e4b3f4f3f4d202186
:1008f00019600b9ba3f1300038603d483022026044
:100900002a603c4a402010603b4a3c48403b136010
:10091000102200f0d3fc002858d12d68d7f800a091
:10092000d6f800900395054609eb451000f054fffa
:10093000baf5805fddf80cb094bf0027012756465a
:100940005eb1b6f5805f34bfb0464ff480582c4896
:100950005946424600f0b2fc58b105a8274910227a
:1009600001f0b6fb002808bf2c4601351c2ddbd159
:1009700011e0b6eb0806c34402d1022f08bf0327db
:100980000197cdf80080002005a910221c4b01f032
:1009900007fa0227d4e7631c10d009eb4419484634
:1009a000fff740fe40b109f11000fff73bfe0028c1
:1009b00008bf4ff0ff3401e04ff0ff34114b1c60d3
:1009c000013408bf04208dd0012000e0002011b0c8
:1009d000bde8f08f003800000c04002070140020e7
:1009e0001c14002068140020741400206c140020d3
:1009f00010040020140400201804002054140020c7
:100a0000581700202014002070b5124e94b00546ef
:100a100001243068039405a900f0b2f9a8b9b5b172
:100a20000a9b0490013d5b421d40049bab424ff08a
:100a300001000dd8084b03900093306804a903aa65
:100a4000002300f0e0fa0028efd0002000e020466c
:100a500014b070bd6414002040420f002de9f04f27
:100a6000734b74481968c3b0102200f027fc0028ab
:100a700040f0db80704b71481968714b6d4a1b6800
:100a800003eb4111103100f092fe6e4bd3f8008061
:100a90006d4b1e68002e44d003a84146102208f179
:100aa000100900f00bfc002837d10f2e37d9049b1a
:100ab00003f11002964232d3069a002a2fd15f4ddd
:100ac00002930fcd18ac0fc40fcd0fc495e80f00e3
:100ad00084e80f005d4c0398206024a900f050f9d1
:100ae000002835d133a8259f00f0c0fd60bb9df8dc
:100af000e430f3b1484602a94ff0ff323b46fff71e
:100b000063fe834670b92368dff840a1013300f02b
:100b100087803846fff778fff0b9082002e0072009
:100b200000e030464a4b1b68002b18bf0120fff73e
:100b30008ffd9df8ca30022bdcd1359b203fff1a78
:100b4000299b5a421740d5e74ff0ff332360d1e786
:100b50004ff0ff372760cde718ad0fcd374c0fc4ee
:100b60000fcd0fc495e80f0084e80f00484602a996
:100b70005a463b46fff728fe0028d3d19df8c930de
:100b8000002b4dd011a800f071fd139bdaf8000086
:100b90000990203b0793bdf85030adf820309df808
:100ba00052308df822309df853308df823309df867
:100bb00014308df828309df815308df829309df8c7
:100bc00016308df82a309df817308df82b3033a968
:100bd000029b0b9300f0d4f810bb349b232b1fd93e
:100be0001c4bdaf8000001228de80c000ca9102241
:100bf000142300f042f998b90cab11aa934204d225
:100c000013f8012bff2af8d00ae009d107a8102118
:100c10001422fff787fd18b90d4b1a6801321a60cc
:100c2000049b10339844f61a34e743b0bde8f08fc4
:100c30001004002078140020201400202414002028
:100c400070140020140400201804002064140020f4
:100c50001c140020a0860100074b014603f180020e
:100c600018469b688b4205d000f110039342f7d1e0
:100c70004ff0ff30704700bf0038000010b501f0a2
:100c8000e3f90446fff7b4fc002c18bf204610bd62
:100c9000e0b51d460f461646fff7deff431c0fd09a
:100ca000436872199a420dd8c368016813f0020fa5
:100cb0000ad1384631442a46bde8e04001f0d0b9b7
:100cc0000520e0bd0420e0bd384631442a46fff748
:100cd00091fce0bd70b51d460c461646fff7bcff03
:100ce000431c0fd0436862199a420dd8c36800684c
:100cf00013f0020f0ad1204431462a46bde8704065
:100d000001f016ba052070bd042070bd20443146a4
:100d10002a46fff771fc70bd73b50e461546fff706
:100d20009bff326803681344421c0446019308d0b9
:100d30004db1c3689b070dd401a8294601f0f0f915
:100d400002e0052000e004202268019b9b1a33602a
:100d500002b070bd01a82946fff750fcf4e708b5c2
:100d6000fff77aff421c05d0c3689b0704d5fff745
:100d700047fc08bd002008bdbde8084001f07ab975
:100d8000f0b58db00c46fff767ff421c054606d054
:100d9000c3689b0705d501a8fff734fc04e00520d4
:100da00026e001a801f068f9ab6823606b68636016
:100db0002b68a360074601ae04f10c030df12c0c67
:100dc000324603ca624518605960164603f10803ab
:100dd000f6d110681860eb68c3f3400284f838203d
:100de00003f001029b0884f8392084f83a30384631
:100df0000db0f0bd30b50023094c04eb0314dab29a
:100e0000a468651c09d00d78954288bf40f823403e
:100e100001330132082bd2b2eed10a7030bd00bfcf
:100e200000380000f0b599b008238df803304ff07a
:100e3000ff33036005460f4601a80df10301fff7dc
:100e4000d9ff00249df80330e6b2b34212d918aba3
:100e500003eb860609a956f85c0cfff791ff38b939
:100e60009df85e30bb4203d156f85c3c2b6002e03b
:100e70000134e7e7012019b0f0bd2de9f04f91b042
:100e8000894601a9804692469b46fff779ffe8b95b
:100e90009df868600e9f1b9c0136bc4238bf3c46e3
:100ea000f6b24046494652465b46fff7f1fe05461c
:100eb00038b94046fff753ffe41b10b1002cf8d1be
:100ec0000625013e16f0ff06ebd1284611b0bde81d
:100ed000f08f000030b589b005460c46fff7bcfe28
:100ee000431c33d0c368d90701d401202fe0194b2c
:100ef00001228de80c00284603a910221423fff7d5
:100f0000bcff20bb039b002befd013f00f00ecd1f4
:100f1000059a0132e9d09df81850ff2de5d09df8d3
:100f20001910ff29e1d09df81a20ff2addd02033c7
:100f30002360bdf81030a3809df81230a3719df896
:100f40001b30e57121726272a37200e0052009b0c6
:100f500030bd00bfa08601002de9f04f95b00c46d2
:100f60001d4605a99df87830019092460393fff73e
:100f700007ff0746002842d1ddf848901f9b4b45ec
:100f800038bf4b460293002d39d0099bddf80c8009
:100f9000029ec3f1000c04ea0c0c9c442b1963451f
:100fa0008cbfc4eb0c0bab465b4601982146524606
:100fb000fff790fe034660b901980093fff7cffe5c
:100fc0004e45009b14d3c9eb060610b1002ef3d199
:100fd000062308f1ff32b8f1000f01d09046e3e795
:100fe00023b95c44da44cbeb0505cce71f4606e0a9
:100ff00000284ff000060cbf33460623e9e73846c9
:1010000015b0bde8f08f2de9f04790b0894601a9f1
:10101000804692461e46fff7b3fed0b90e9f189c3d
:101020000136bc4238bf3c46f6b2404649465246bd
:10103000fff772fe054638b94046fff790fee41b05
:1010400010b1002cf8d10625013e16f0ff06ecd1b8
:10105000284610b0bde8f087044a00231370044a04
:101060001360044a1360044a13707047a001002003
:10107000c001002020010020bc01002030b5174b2a
:1010800091b0186801a9fff77bfe28bb144a059ba5
:101090001360144b144c1b78144a02991bb10020a6
:1010a0002060116018e0039800f110030069002827
:1010b000f5d010f00f00f2d19d680135efd01d7b07
:1010c000ff2decd05d7bff2de9d09d7bff2de6d081
:1010d0001b692360cb1a136011b030bdc80100201a
:1010e000b8010020b401002094010020d0010020ac
:1010f0002de9f04f3f4e89b033780390002b6ed12d
:10110000052333703c4b1b78002b6ad13b4bdff837
:1011100004a13b4c0194012700971a68daf80000fb
:1011200004a91023fff7a9fe054600285ad1354827
:1011300004a9102200f0ccff08b102234de0dff833
:10114000d890dff8d88000970194daf80000d8f83a
:10115000002049461023fff790fe0546002841d1a4
:10116000d9f80040284ba4f140029a4201d8210747
:1011700001d0032331e0d8f800304ff6ff78c4ebfc
:10118000030b1f4bdaf8000020490022702c34bffb
:10119000274670278de80c005a463b46fff76dfe48
:1011a00088b9bb44e41b0346184a4046d15c02930d
:1011b00000f036fb029b0133bb428046f4d3002c87
:1011c000dfd1034601e04ff6ff73114ab9f80480fe
:1011d0001360434514bf04230623337002e0002547
:1011e00000e007253378039a2846137009b0bde85c
:1011f000f08f00bfb5010020a0010020c401002035
:10120000a086010041210000c0ff0f002401002042
:1012100098010020c8010020a40100209c010020aa
:1012200038b51d4c1d4d20460421fff7fbfd30b99c
:101230002368013303d01a4b01221a700ae0164cbe
:1012400002212046fff7eefd40b92368013305d0a7
:10125000134b1870fff712ff044618b105232b70cb
:10126000012416e00f4b104a1b6812680f491a44fc
:10127000a2f1100008600e49203a0a600d49d31a05
:101280000b60fff7e9fe0c4b04481c602c70fff765
:101290002fff204638bd00bfc8010020b501002047
:1012a000b401002094010020d0010020c4010020de
:1012b0009c010020cc010020980100202de9f3477b
:1012c000324b0c461b783249154606460a68894659
:1012d000002b52d12f49097806294ed12032944251
:1012e0004dd2121baa424ad3002848d01f2c31d815
:1012f0000093dff8b480284b284fdff8a8a0cdf882
:1013000004a01a68d8f8000039461023fff7b5fd8d
:10131000002837d18de80104214bd8f800001a6865
:1013200007f110011023fff7a8fd58bb4ff0004351
:10133000c4f12008a84528bfa846bb614ff0ff3381
:1013400030463919fb61424600f0d1fe4444c8ebf7
:1013500005054644adb1124b1a68d9f80030203a61
:10136000d21a104b00218de80a000f4b3146186845
:1013700022442b46fff781fd04e0072002e0042011
:1013800000e0284602b0bde8f08700bfa0010020c1
:10139000a4010020b5010020c40100202401002088
:1013a0009c010020a0860100c8010020f0b51a4d64
:1013b00095b0044605a92868fff7e2fc174b1a7898
:1013c000012a1e4624d0164b0a9a1f68154b1b682b
:1013d000524213400f3703931740039bbb420ed872
:1013e0000123049304b1a0470f4b0093286803a97d
:1013f00004aa0023fff707fe0028eed009e00b4bfc
:1014000000241c6001233370fff726fe204600e015
:10141000002015b0f0bd00bfc8010020b5010020bc
:10142000c40100209401002040420f0098010020d8
:101430006f2838b504460d4601d8012038bd030792
:10144000fbd1094b1b689842f7d81046fff7aeff57
:101450000028f2d1054b01221a70054b1860054b8c
:101460001c60054b1d7038bdd0010020a00100207c
:10147000c001002020010020bc0100202de9f04f18
:1014800015466d4a1c46137885b0064688461bb93a
:10149000fff7e2fd03230ee0684f3a689042ba4638
:1014a00003d0fff7d9fd0426c1e015f0030c05d0e9
:1014b000fff7d2fd052323700426b9e0702df7d87d
:1014c0005f4ad2f800b05845ebd8c0eb0b02aa42f5
:1014d000eed319b9fff7c0fd0723ece7012b6bd161
:1014e000584b0293c0f12009a94528bfa9461818f6
:1014f0004e444a46cdf80cc000f0f9fd1f2e3e6068
:10150000029bddf80cc003d884f800c066468fe06b
:1015100018464d490293102200f0dafd029b18b1e3
:10152000fff79afd06237ce01b69484a454fa3f16b
:1015300040019142f4d81907f2d1ba6932f0004261
:10154000eed1f9690131ebd120339b45e8d14ff061
:101550000043bb613e4bdff80cc11b78bb753d4bb4
:10156000dff804b11a703c4b0092cdf804c0196842
:10157000dbf80000cdf80cc03a461023fff7ecfc76
:10158000ddf80cc0002833d18de80110334bdbf8b7
:101590000000196810373a461023fff7ddfc38bb0e
:1015a00097e80f00dff8b8c08ce80f00224a02234a
:1015b0001370c9eb0505c84415b925702e4637e0f0
:1015c00041462a461f4800f092fd244b1968244bdf
:1015d0001b682039c91a234b00228de80c00224bce
:1015e000184a186831442b46fff7b6fc064608b186
:1015f000082316e0daf80030114a164f1d4413682c
:1016000038709d42caf8005011d1fff725fd3846c9
:101610003e70fff76dfd064610b93b78062b03d0f0
:1016200002232370012603e00123237000e02670cb
:10163000304605b0bde8f08fa0010020c0010020b9
:10164000200100202401002041210000c0ff0f00e4
:10165000bc010020b5010020c40100209c01002035
:10166000a401002020a10700c801002030b5164dbc
:10167000044691b0fff702fd2b682360134b1a68f4
:101680002032a2609a88a2819a79a2739a68226114
:10169000da68db79e3730e4b62611b7823760d4bbe
:1016a00001a91868fff76cfb10b14ff0ff3307e09a
:1016b0000a9b0d9a29681a44069bb1fbf3f3534326
:1016c000636011b030bd00bfd0010020a401002034
:1016d000b4010020c801002070b5134b88b00df193
:1016e0000f001d68fff704fd0446c8b99df80f30d0
:1016f000062b15d10d4b9a689ab10fcb08ae06e9af
:101700000f0032460a4b42f8084d0193094b0094f2
:10171000186805f108010423fff71efc044600e0e9
:101720000724204608b070bd9c010020a4010020c1
:1017300020a10700c801002070b50f4b1c680f4b9b
:10174000da680132054686b018bf072011d10fcbe9
:1017500006ae06e90f000a4b3246002142f8045d4e
:101760008de80a00074b04f10c0118680423fff709
:10177000f3fb06b070bd00bf9c010020a401002057
:1017800020a10700c801002010b50f230022cc5c67
:1017900042ea4402c254ca5c13f1ff334fead21248
:1017a000f5d21ab1c37b83f08703c37310bd30b584
:1017b000034601f1100451f8045b43f8045ba142b5
:1017c000f9d1103002f1100352f8041b40f8041b49
:1017d0009a42f9d130bd000030b50d4c0d4d85b0a9
:1017e00001462a462046fff7e2ff29460a4d6a468f
:1017f0001023204600f094fb284604f12001fff757
:10180000c3ff06482946fff7bfff05b030bd00bf44
:10181000f40100209c210000d4010020e4010020fc
:1018200040ba83b25940c1f303134b4083ea0333f8
:101830009bb2d8b283ea40107047f0b5036889b014
:10184000002500245c530235202dfad1944208da99
:1018500031f9145033f81560013623f8156001345e
:10186000f4e7b3f9004094422ed0002501245e191c
:10187000b6f90260d6eb440428d402351e2df6d109
:101880000025adf8025000ae2e445f190235b7f8be
:1018900002c077881c2d6744b780f4d1002393429f
:1018a00014da31f813606eb108ad36b205eb4606b6
:1018b000476836f8205c05f1010c2db226f820cce3
:1018c00027f815300133eae7002000e0204609b090
:1018d000f0bd70b5056904460e466369b34210da7f
:1018e000a36820689847002804da04f11800012151
:1018f00000f00cfc6369c2b29a400833154363617f
:10190000ebe7012025fa06f29b1b00fa06f6701e93
:1019100022616361284070bd2de9f84f04460a68d2
:101920000069636900268a4602f102083746b1461b
:10193000012523b300f00102b8f900c042ea090210
:1019400008f10201cceb0208b8454fea50000dda6d
:10195000636920615b1b03f00703d71b63613e448f
:10196000daf8043033f91600bde8f88f6744013b1c
:1019700066447f004fea420901358846d9e7d5f130
:10198000100b10d0a26820689047002804da04f1f8
:101990001800012100f0bafbc0b2bbf1080fb4bfc0
:1019a0005b460823c5e76ff00900bde8f88f00002b
:1019b0002de9f84304460f46904639462046fff786
:1019c000abff011e49dbff290adc6568002df4d05e
:1019d0002068c9b2a8470028efda0120bde8f883e3
:1019e000b1f5807f02d10020bde8f8836ff48073e9
:1019f000cb181c2b34dc204a32f913601f4a2046d6
:101a000032f91310fff765ff414606442046fff701
:101a100083ff051e28db1a4b33f91590194b20461e
:101a200033f91510fff755ff6368814493b9b5f595
:101a3000807fc2d1d7e709f1ff31e368206898477a
:101a4000011e14db94e80900c9b29847002806f18a
:101a5000ff36c2db002eeed1e9e70846bde8f88389
:101a60006ff00900bde8f8832846bde8f8836ff001
:101a70000a00bde8f88300bf842200004a2200006b
:101a8000ac210000e82100002de9f047adf5a86d7c
:101a900004ab009323ab01930cab0293052114ab71
:101aa00005460393fff715ff052100f201172846ad
:101ab000fff70fff042100f101082846fff709ff97
:101ac000b7f58f7f00f1040900f38880b8f11e0f8d
:101ad00000f3848000264e45b2ac0ada4b4b284610
:101ae000032133f916a0fff7f4fe013624f81a009b
:101af000f1e7122e07dc454b33f91630002224f8ab
:101b000013200136f5e7684621461322fff795febc
:101b1000002866d1064607eb08094e4534da284608
:101b20006946fff7f9fe00286cdb0f2803dc721c06
:101b300024f8160026e010280ad1002e54d0731e77
:101b40002846022134f913a0fff7c3fe03300de04d
:101b50001128284604d10321fff7bbfe033003e020
:101b60000721fff7b6fe0b304ff0000a32184a4546
:101b70003ddc04eb46060023834203d026f813a085
:101b80000133f9e71646c6e7b4f9003293b3684665
:101b900021463a46fff751fe002808d02ddb009b76
:101ba000b3f90020b3f9023013449f4225d102a8b3
:101bb00004eb47014246fff740fe002808d01fdb38
:101bc000029bb3f90020b3f902301344984517d1b2
:101bd0002846694602aafff7ebfe13e06ff0020009
:101be00010e06ff003000de06ff004000ae06ff00a
:101bf000050007e06ff0080004e06ff0060001e068
:101c00006ff007000df5a86dbde8f08724220000f5
:101c1000f0b5adf52f7d0190049307a80023029144
:101c200003920593069300f06bfa002840f0a18020
:101c3000012101a8fff74dfe0221044601a8fff78c
:101c400048fe00283cd105900690039b01989847d8
:101c5000061e01da022087e0039b01989847051ec3
:101c6000f8db039b01989847071ef3db039b019861
:101c700098470028eedb80b2ffb2adb2f6b247ea79
:101c8000002746ea0525ff43adb2bfb2bd4214d1dd
:101c9000029b0bb9002067e0002dfbd0039b01984d
:101ca0009847011ed6db029b0198c9b29847013db7
:101cb0000028adb2f0da012056e06ff0010053e0e9
:101cc00001284cd12e4b1b68002b42d02d4b2e4aa5
:101cd0001a602e4a5a602e4b2e4a1a602e4a5a60bb
:101ce00000231eaa082199520233b3f5907ff8d140
:101cf00000231eaa1a4402330921e02ba2f8201166
:101d0000f7d100230233322b05d0aeaa1a440721a3
:101d100022f8421cf6e700230233122b05d0aeaaac
:101d20001a44082122f8121cf6e716481ea94ff49f
:101d30009072fff782fd00231ea905225a5202333a
:101d40003c2bf9d11e221248fff777fd0c4b0022e5
:101d50001a6001a80b490e4afff72afe04e0022888
:101d600009d101a8fff790fe38b9002c3ff460af0d
:101d700003e0022001e04ff0ff300df52f7df0bdb4
:101d8000000400208814002098140020f41400207f
:101d90009014002034170020b81400207047000071
:101da0002de9f84f07464ff480709a4689469046d1
:101db0000a9d9df82cb000f01df9454801230360f1
:101dc000bff34f8f434e444c00233360736023684e
:101dd000736263687362a3687362e3687362bbf1e2
:101de000010f844638d817b92762676203e03b6861
:101df00023627b6863620023a362e3622ce00a46ed
:101e000016f8011b02f8011ccaeb06079f4202f1fb
:101e10000101f4d34db3314b03f1100753f8041b08
:101e2000da684a402b4943f8042cbb42c1f88020b1
:101e3000f4d105238b600b69264a9b07fbd4d2f8ab
:101e400080302362d2f880306362d2f88030a3629f
:101e5000d2f88030e362b24645b3102d34bf2b4632
:101e60001023ed1a1e495646c9e7bbf1000f02d0f8
:101e7000bbf1030fcfd1d3f110010ad0802313702f
:101e8000002301338b4202d00027d754f9e71549cc
:101e900000e015490023e718ca583869043380ea7e
:101ea000020e102bc7f810e0f5d1b4e7ccf80050c3
:101eb0004ff4807000f0b2f8454506d0631993f8ee
:101ec000203009f805300135f6e7bde8f88f00bf8e
:101ed0000016c84300000f40f40100200402002057
:101ee00005020020e4010020d401002007b50948c4
:101ef000fff772fc084b09499b6c1b0c00209b02ee
:101f00000093019004224ff00053fff749ff03b004
:101f10005df804fb9c210000b081e00f0804002064
:101f20002de9f04104464ff4807017461d460e46d9
:101f300000f060f82d4a01231360bff34f8f2c4b44
:101f4000002119602168596261685962a16859626b
:101f5000e16859629446002d3fd0254b2269c3f8b1
:101f60008020d4f81480c3f88080a169c3f8801061
:101f7000e269c3f880200520986020690130206163
:101f800040b908f10103636123b94b1ca3610bb98c
:101f90000132e261164b186910f00200fad1d3f851
:101fa00080202262d3f880206262d3f88020a2626f
:101fb000d3f88030e362102d34bf2b46102304f198
:101fc0002008ed1a18f80010325c4a403a540130eb
:101fd0009842f7d106440744bde7ccf800504ff4cf
:101fe0008070bde8f04100f019b800bf0016c8438a
:101ff00000000f4072b6074b1a6801321a60064a99
:102000001168084310601a68013a1a601b6803b926
:1020100062b67047541700202402002072b6084ba5
:102020001a6801321a60074a116821ea000010603c
:102030001a68013a1a601b6803b962b6704700bf9c
:102040005417002024020020044b41f671321a6418
:102050009a6822f001029a600020704700000e404a
:1020600010b5eff3108472b600f041f804b962b60f
:10207000002010bd00207047134a70b50346054686
:1020800002f12806144603ccb44218605960224677
:1020900003f10803f6d1206818600c4b9a6c596b59
:1020a0005b6b92b2090e1b0e92020a310a332a6050
:1020b00003f01f03012201f01f0102fa01f19a400f
:1020c0006960aa60002070bdc0220000b081e00fee
:1020d00030b50023934208d0c55c0133cc1814f806
:1020e000014ca542f6d0281b30bd002030bd10b5f4
:1020f0000023934203d0cc5cc4540133f9e710bdf4
:10210000ec46a0e8f05f4ff000007047b0e8f05fe9
:10211000e546080008bf0120704700bf000000002e
:1021200001b40248844601bc604700bf9100002012
:1021300001b40248844601bc604700bf0100002092
:1021400000534352319a933082d9eb0afc3121e398
:1021500037000000f1100000bd120000ad130000b8
:10216000311400007d1400006d160000d916000027
:10217000910c0000d50c0000190d00005f0d00004f
:10218000810d0000f50d0000250e0000d50e0000a9
:102190000600000070210000542100000000000033
:1021a000000000000000000000000000010002002c
:1021b000030004000500070009000d0011001900cc
:1021c00021003100410061008100c1000101810155
:1021d00001020103010401060108010c01100118ac
:1021e00001200130014001600000000000000000fb
:1021f00001000100020002000300030004000400cb
:10220000050005000600060007000700080008009a
:10221000090009000a000a000b000b000c000c006a
:102220000d000d0010001100120000000800070052
:10223000090006000a0005000b0004000c00030062
:102240000d0002000e0001000f0000000000000061
:10225000000000000000000000000100010001007b
:10226000010002000200020002000300030003005c
:10227000030004000400040004000500050005003c
:102280000500000003000400050006000700080028
:1022900009000a000b000d000f00110013001700c9
:1022a0001b001f0023002b0033003b0043005300a2
:1022b000630073008300a300c300e3000201000079
:1022c00000001000000800000008000004000000ea
:1022d00000000000000000000000000052000000ac
:1022e00002a00000ba880000020000000000000008
:1022f00040ea020313f00303f7b5064638d192080b
:10230000eff3108772b61d48846844f001048460be
:1023100093421a4c25d206eb8300c0f30a0c012528
:10232000ccf5006c20614fea9c0ce560d41aa44502
:1023300028bfa44663440024644501eb84000ed00a
:10234000006801900d4de8690007fbd50198a86170
:102350000820e860e869c007fcd40134ece70146d6
:10236000d6e7a36823f00103a3601fb962b601e0ba
:10237000042000e0002003b0f0bd00bf00000e40cc
:1023800070b58cb0044601a80d4600f039f80399e9
:1023900022684b1e13402ed1286800fb01260198ad
:1023a000864228d899421dd00433981850f8040c5e
:1023b0000130f7d0eff3108172b6104b9a6842f0fb
:1023c00001029a6022681a610122da600222da6050
:1023d000d8690a4ac007fbd4936823f001039360cd
:1023e00001b962b62268039b134423602b68013b4a
:1023f0002b60002000e004200cb070bd00000e40f7
:1024000001b40248844601bc604700bf7920000047
:0c241000010000000000000000000000bf
:020000040000fa
:103800000000040000f00300084c7483090000006d
:10381000000000000040000008010010000000004f
:103820000040000000c00300080100000500000087
:1038300000f0070000100000080000200c0000004d
:020000040000fa
:1038800021bbd37575030c0a64664b2496d661324e
:10389000634d84afe8e5b025a27b0fb1834c4da703
:1038a000396503c6b24ac4333c646d941c76033553
:1038b0009587f5f9e82bb22b3e3749e850e321f51f
:020000040006f4
:10183000d780dc5ba1bbd696e22d6c922037bca68c
:10184000920d96a901c74e638fce78f1bfaff59682
:101850000801000080c3010004003e0000000000f9
:10186000aea7b6e1859f9575d154ae36bc4d69ffe4
:1018700070f953a36d40e0dc1e48dbaefcd569bdba
:1018800058d0ef074de65f20987147b4f727e54f32
:1018900003cb29542a781f8c7e5b0faa258ca3903a
:1018a000659a70930fecfa440fe1f64e32e12e790f
:1018b000d8ed972519ccb1664056d5a39b009d1154
:1018c0005831f35b88c398bcd9008571e52bf27b56
:1018d0004dc46ac04a81ea329864232929563316d6
:1018e0006a88bfcccc2a06b6691a6782931c8ba47f
:1018f0007ded604b43f956be7a272135557f105355
:1019000088154f38ad5863d34254f718656b2d10c6
:10191000b5e4757fad8c879e08fb74ebe114cc6653
:101920006c8e9329fcace7083e0d04b9063acc79dd
:1019300059415295c95805796f2056c272e4a91ac7
:10194000ad54cc8131822702f85e02ae1549c9b18f
:10195000db91f689ab14d687f9620963431794dbf0
:101960001be638b8aed59c759c4c153a8d07ecf546
:101970002412ee9882cc29409e4511eb24cc501bba
:101980008ffde92abf18ef2ebc82bfb9ae2a8e5256
:101990000648ac8f62138ef01093d08b8a58d40215
:1019a0007e8866d004a73c2cfa2a085baaf6774901
:1019b0001ce532a25b215fdb47f6433108ac2459ba
:1019c000d01e44271c9817a0a0d4ccbc5261b524cb
:1019d000104f6f623d5619b312918bca390ce7361e
:1019e000c8705ca1f9c6b985e96063b1af15fc7c2c
:1019f000b7d34b2e2013855381096235fd1b59e166
:101a0000188f8d9f56ffe91cc123c6fcdb96a8806a
:101a1000056ff4bb0e3e762f6d7f5849af55f80029
:101a2000987f2d81624a898520aebe3a7004a3ef6b
:101a30008c0d65301f6cbc1e0e115dcd0fd0865015
:101a400008584314dd8cd5a79c3e18fa203c247f0f
:101a5000aba729ae66f19c951ebc7cc2b98d43fa3a
:101a6000457015686cd5f8c1371aba991e1ada8a0a
:101a7000b909568787df2345da09117796a556a558
:101a800025917b94742062f16041b36f3dab147279
:101a9000b7768e8cd1e189466be951c2de525ff98f
:101aa0008159ade686dd447cf62e65e6cff74b3fe7
:101ab000aa8a07341a388ca02c3c28d4e5b9ac94f7
:101ac000a7c2d6ca582f9c2958b2c5e53e9a55c51b
:101ad0003e5cc284296dffdfbe5f31d655aae7891f
:101ae000d5af37af9de2324bf2845ddfbdab1469f9
:101af000200d44344610fab7f84d7d77bf1bf178be
:101b0000318a12c5a41b71e32eaf4690db16df2c81
:101b100071cbdd9622f2fd9234100e2251db8f3d07
:101b2000599c2d8bdeec1d60b00810150555016920
:101b30006f523df5f6a9c8a6f5ea43e9be99b9f595
:101b40000dcb83ec08f89549dc3b3a314f02332a40
:101b50005c7911226f8520a10c3eb862678f8321ca
:101b600035a478d872307a8f6cd8390e9a914c316e
:101b70003a9232da04adf1f26edac4aff82ad3fd4c
:101b80008b629a4f80ed7e943dd187e52800b11d90
:101b9000e65482b5b8bd4eeec0b5078e2d0d6ba8cc
:101ba00070065b05ea04f0bb516a338c22086dd5e0
:101bb00072546412915e6dfd32afcaf6eb7561949a
:101bc00025a3003a8d534a8e5c1d52efcb23a4c847
:101bd0000caa2042e711bb0d347fa459e08c0e62a1
:101be0004acbddee0ee4d6c6b41cc0e59fd6b1feee
:101bf000c99da87db779835c41af77fb08b1bda3d0
:101c000058328cb62dfdec05f1c4416c071b17e969
:101c10004ecc039d9411e173f5ae5958c528ef548d
:101c200042f22b38f120104d455ea9c9e03b5c140f
:101c300037664026da3f56d1f47a08393e25b50298
:101c4000d30e7702afcf69b004ab89e5b6e93fefb9
:101c500074357589d09892a3e360f9226a0d2b3010
:101c600008dfe937963671efd879a1575a76b2185e
:101c7000f0043b2f28c069200fc497065ac1d0de5c
:101c8000cc74113c77df39d7d465f22e70215342e2
:101c9000564960c4cd9ff47f17b37394041be63b91
:101ca000dae3e9d89c4a5f33ac806a576ca1b2cec4
:101cb00092b73af911b25dd542b9f21c6d08654888
:101cc0003d04e956b808343acbd401f5c747806bd8
:101cd0009773ff62653eb6237cd74124e1843c3292
:101ce000a8e788586f56abbfb307c1529ed4b10165
:101cf000ed65e6411720f3fad0f06d0645717dbc25
:101d00002b51dd8b313ebcaf1fe6f3409343a68cd5
:101d100073194e5f96b8f8ebc363c5c7f6d23f4e52
:101d2000be27000fafd79fb2d97213fe82f0624276
:101d3000f2994e9740a9a210993a6a00e3615f1c9c
:101d4000c26878fa1ab2203c11b37f7f97b0d7727d
:101d500095cfb5d22594ca429a3ba9c9c1c14f3c7f
:101d600081a16d3cce38ff32f2643dc4f151a6e84a
:101d7000f1fb654754534b2b3ebbc2cd46dd953a34
:101d8000c6dcdc32d621e7fa2743151c63f9f929b2
:101d90000fe1bfbe6b170972f5b8b15b0147faf8e6
:101da000c0db2da6e94a10382fbd0c2d63707931a8
:101db0006f31d249591f1525634bd94431f8c5a35a
:101dc0009cf3744adb2c6d3906a40fd0f58e61f4b8
:101dd00062bb5f83924300bb81ca29ee2bc1bbd398
:101de0002a18d1ee55898377616ee633b695f45e95
:101df000cb21d8e571f42512c950ae3d3a30caa0c6
:101e00000509ac321964171a0cbd96db813dcdee85
:101e100023e9089ed4c7bc623b07d51ec13eacaccb
:101e2000264aece1f2d91d08884692aca41e09f5b9
:101e3000a55ef974651082ec6a57563a75a65e5f26
:101e4000883522ca2ad3cb6c464e34d97cdeb903fe
:101e500061b048cbc827b1a5061d68b60058d46d3f
:101e6000b8981b845b0428e39d47a0f97d986925f9
:101e700013e9eaa2b0980e2b58e4435d48f21d36f0
:101e8000f9c1e3d20e1014ff32173b40cf655c95c9
:101e9000e57586b0b708bcfad6469f4a2d2d7cd191
:101ea000480535427d80c37e295bd051deae3d6260
:101eb000530567c2a63ea64dc6be2472777029544c
:101ec000dd9b5af58fe18b642454254b5a0f31f179
:101ed0005493f0b9897b29c56f09fcf8882ab93574
:101ee0005ae19414cfbecf739284d391078ccf8cd8
:101ef000be3b98f612009acca5639d8ee239e16e46
:101f000024b69abee42ad83a5c9060bb3366bad84d
:101f1000deed27d37ec1d65904c5d1cf5f62402103
:101f2000b64064aa36c1d6312c66936522f4942b50
:101f3000e255fa14fc0a5825da039907501bdf8191
:101f40005f38a3abb3a261b94287239dce8af0d597
:101f5000d48a934e0a38343c4a5b90dc0dc32f4f31
:101f6000c47a71ebf683370898aa2ceb8d98014e52
:101f7000cc52ad021bbf63046143829d211ed54735
:101f8000e85346ab795bf5cfbac0d2d23d79a28097
:101f900049a9768de8cbddb02b31cbc51ceec4f85a
:101fa000a5b1d529d0afae94f0d7b0a95dffa8da1e
:101fb0005e2b063fb2380973f5280b7ae747985431
:101fc000edb89c16cacef2989bff26720a6f213894
:101fd00098ad618f9aca4aad44173f58f787a3213d
:101fe00092a188cb4290e1a9be0e21692c6336589c
:101ff000df2ab530853e6f2925f7c58e13e9c197d5
:102000009c269fbf6524609dc38cf3a9fcf3f7b6a3
:1020100018f4eaf8007c7548df8dd30940d165e7f4
:1020200018f0bd1de90b59bbe86576155aa75ee8a7
:10203000029b5f845eff944462561a7ccb7d8bcdfd
:102040000ce73b8eb1ff3241cd370a3f34187d5d3e
:102050003d984888af6f002a2bd6392e5d892f51c5
:1020600060c36c9f200aee28df0a41581a9d4ad1ae
:102070000d973d90593a14351fa74be87c3acbfc9d
:10208000ac2cc3316fb2b971c90c1fea3a2abf0c2c
:10209000a9e8d92d2f4030fd1dd5622e13baa9f124
:1020a000a58842230f5422c4f8c159c3ffc7848da9
:1020b00028267a820f382a5b25fec078d3ca519130
:1020c000036bfab590fb53c76bc486b19fc7c68339
:1020d000c4d2eb68ab89f104182a022845979945c8
:1020e000773132bae6d619df2cda3205d96f23aa56
:1020f000767043ac68cd1f9c5229bcc2fde83f16e8
:102100009e191ec5199b373fc088a2cf157dc4d329
:10211000751b0be290475b757da869ea2c71941ad8
:102120002ee99e93611b76f5b6a7c0bce70d77a795
:10213000bd2d91a5d77d6dcfc5bd141fdd3d92f19d
:10214000f6634b64811e99ebae2768d26d724566cb
:102150002c116bf43288b4727f5bb0b641f606add9
:102160007db316ce2a0cba00e420f2ffd493476c5c
:10217000da0b7fbe9a3f9b6f5db8bb2a7e793ee546
:10218000e4bf86b18022d243c059d5a3b0841800e1
:10219000f3d8d1d919a856af49bdbd8778538dc2a0
:1021a0000552f8dee6d42da6f95a5c0e30d2a14fc6
:1021b0002e7ff316397d09db1b8c6df4160e625be6
:1021c00058cfa898f45ae6d8d5bd013f1e0df85d4a
:1021d000444a2367e65bc583961dba95e531cb8fec
:1021e000a0e2d72b702bc3c2c0be60f7591dc2de60
:1021f00095c553c2785dc8eb0b16a425cb3a8777fb
:10220000a4029481e739d55ec4c9c00761f939efea
:10221000c6f77f95d6116fd8bca1f225a41e26e57e
:1022200087bb14cf62406de62c32d3e4678c57dc59
:102230008dca273cc7b9dd7c33e116b69c2ea416a7
:10224000ee9f2067b0c26e0e8fb2c121342ef2d342
:10225000a175b1960ca6e28700fa44e89f0d464aa4
:102260003456f026e6141c8c9d67368957535297d6
:10227000275f51616206755c976d9cb470567e064f
:102280009263de2bde60ea8b587e3026be4295ae2e
:10229000bb29186a6089621e9654fda8399685612b
:1022a00063e80c95a6514f25164fdc0daaa8b18402
:1022b000af2e08827c2f51e93727fba140ffb8c21f
:1022c000406f362852cf06f61475054ea39d7b9bb2
:1022d000396d22e4c690f3d8ca9d957b8705018ba2
:1022e00081e789ddc0fadc18a421fe23ae9a4db245
:1022f00066f2df6b37f060050b5595a0f06c95c565
:102300005f248b7e0e63a488b367ef8e8727b4fbb0
:102310007893edb7dc6ba2375205df6fa40c0e4645
:10232000c06b4f87e0b4624bb8583b788d7605f1af
:102330000bb36c0aafcd975eb7edbc6d5fb0dd0c33
:1023400036a2a33a7f65f1942ee2801a79782d8a1d
:102350001e07b286ff44123fdbf7464356980d3006
:102360000dc947aa6631541efdf23458218f060b61
:10237000d120d76e5d21a02865689b1a1dded81775
:10238000602b8bf6ea567587f7a5fceec8829f2e68
:10239000ee92907bd3fdaf3c7cd703a50985f5fb7e
:1023a000905c719c41f9d40332da9aca64dc0c590e
:1023b00096ea569866343ee5f2e206e9e19f9b8292
:1023c0004e3792ca821950f283ea8432f8a1b30cd4
:1023d0000740eff09dde8ca04bce2f16e679433df3
:1023e0000b8c6b87873edaa84039acf3440bf8ad11
:1023f00028e56983cf36ecbb95d64b88bd3b204c96
:10240000b681aca4d573f259f6e9f619f419342063
:10241000cc8aabd7064d40907c9dae4cf45c6b5e95
:10242000242c62256328a0648cbfeefa2a4d0f1a73
:10243000c14af08b59d4b32a3d3dcc2642ea6548c7
:10244000ee4c85c9954a6facff223e71af426ccf0e
:10245000bd75a1d56635e804ae655548bbf718557e
:10246000def8fcf30c5ceee0520659060f6d02c07c
:10247000f0a062cf2ff0679101e10b3cfe13f57ed7
:10248000667f4568bb2b104de3d0a08b99819fdd03
:1024900082fd328e52fbf4fed916ddc9f419e97bb8
:1024a000ad025d862e3adbc88b846841909e27334f
:1024b000dc4d565dd17b7946432a910dc462451ba4
:1024c0009afe0e07069daab7c2c857396d17dcd20f
:1024d00014080a1af3a681ac31a00578fc1b0bd5b1
:1024e0009ef262912a716a5acb477f69485f49e33d
:1024f0004fbffaca6f7aeac997f6748ca0e78af3dd
:102500009b78b73202b4e1e319ccefc9fb7d912a85
:102510002ff7b4d6c961eab939612d6f519632dc13
:10252000a9de17d6d9b3d20f4888b5de25ac73c65d
:10253000258d5ff3a814da21b3c505992698429733
:10254000dceb7fd6444cb218d00e0e4335466354b4
:102550008b76b425794aeb4ede98f9960925095712
:1025600030887e6933cb3631cd28148143b139436d
:10257000dcc7813a37e418a00992007be9d3967250
:102580009f90938237e3935ba9e6be4bb756a23385
:1025900097e65175c92f2fb53ef19140169279d12a
:1025a000c5a4a39a248fd8d78c37ad71c2290f3117
:1025b0006b66f942af6fb625591c10c6b7148c4232
:1025c0003228f644f9be8d8b8edc7ebdcc6970f06e
:1025d000b6f8b67606fb3a84366c796a750404b7a9
:1025e0009497e562b1a4c10b58b39475be92794932
:1025f0005c5cb105ac600d350590cb8055668210f2
:102600002d1db82f9a55b15d3e281ce73ff556eebb
:10261000f57934df86483c7b6dd3705ac1bff7979c
:102620008787fe24156556289c2dc1d086ac501f87
:10263000b0822ba2d599c66ccd7200af1f0bb81c0f
:10264000d7280c4a2611cdd11f42e9e4dcb08b40db
:10265000787ecdeedea4f9c84699c74a390552877f
:10266000752fbf6158431975eac9ebd2a225a6435d
:102670007553ae00075578376d5e286500e2c28a53
:102680005f753bb323eb0a7555bcd2a869ba8200cb
:10269000a75517b037f03f8239a771eef840bb76e7
:1026a0002526f7df58628326f4f8c3521e38ff3e12
:1026b000a8420f42817e12055c7ebc8291a5620118
:1026c0009c7355ff95282e5e075b6849b391e69e83
:1026d0007cd74c679d5e3a657c7e16b909539bbae0
:1026e00031b48c61969eed8808629656e279774601
:1026f0007b0d05331e87014df76294952df68459a5
:10270000db679ed196aab67748a41a31a0d3eda56f
:10271000b291dff79c40593513c7405415655f4fa0
:10272000f0cc9a44aefa886a9eaccb59c029b6b8b0
:102730005ffaa0c92064254ab29376f069ce0703f8
:10274000d46862685ac86942abe913f36efc63a5aa
:1027500069e185fd31535fa98145c38cb75c941055
:10276000a8474241414dfd30dff25947806f49058e
:10277000a1c9a9ffcef0a21206e28794cb902590c2
:10278000a7b3115023546e3ad3431aab013d37031c
:102790000a15ba258b7e777a3408a9f8ef06aa7b4a
:1027a0005aa9e63b7f17b0d2a4b99f6c5f2153189a
:1027b00023128394df3f8bdc4a7567daa3398b558c
:1027c000ea9b635a82367956669fd46f6671e8e950
:1027d000874014f3786e370e980e67ccf0f1f773dc
:1027e000f380c008d1ca88a355c67a24498343d24e
:1027f0005bc8c03d5bfd99d7ac58ba8743d24e4405
:10280000bcc68dc47898b6c2ee1d42acb5b40aef12
:102810009210929d3f04a7917771e7bc97d93cb283
:102820004fcc5a0b2aa1cb3cec63c6cb6be8f7e349
:102830004a97f7607ca66e054dd6ee70f879d355b1
:102840002f688089774b2c492184401d172c3fae7f
:102850005ca6843705f76bcca815be9b8421b98a8a
:102860009f6e41c6cbc5ad0a815fe317ae1a95cf07
:10287000f5cf9d2e7be509282de285dc2caab3122d
:1028800013853ac264c72cf855cda7a3e5504add9d
:102890006d969415c3b1a4823afa4d35bea2b1f734
:1028a0009e9236316570455708d2c57d2090726280
:1028b0008a7c1485041b2411759ab365a0831ea11c
:1028c000cc7879f5cc30b886af1afb89f33ce19c23
:1028d00042d0212ff1592ed006f4c51845da905078
:1028e0000a31ba0f04927730851a9084073cfbd0e6
:1028f0001aeadb7d81bd3c6586336e2cfe1f35c731
:10290000b703386f2ff23cf5407dda1adf7fbf3511
:102910004abb64a7c4fa7c7340418a436824734b62
:10292000d03146b11711e3e5e2e525e19827879e0e
:10293000cd639f802569a56ae4e3a3ca69be0e7fc3
:10294000ddf953ffe9882f08ef0c3afd657432fc7e
:10295000482b73b82b027793b3700370f2f2308276
:102960000d213f7d700ab4b98d7cb7479c82987e5b
:10297000118aef99e5eae0656199481b308287d9b1
:102980002fbd409418300e5e064af10008103077d3
:1029900090050992ae6d947b86a8b66a5563fad10c
:1029a000b8784fbc312ad09ce056ca5665538faeda
:1029b0006aa81aac26d3d992c61308b942fb3d7057
:1029c000586a1f55e42a5a1eae9f42fb23602bd73c
:1029d0000f395581c3721aa825fe922bfa492d2e64
:1029e000a8f8c4a724b0f038886b0d6bb37704d176
:1029f00059b4a173e5622bcd3dd65ab1efe406047c
:102a0000c771de1231c6ba0ac15ded340bdadeca17
:102a100058f5e64b296678d1fcaaee9c23ed2b13e2
:102a2000e4e4df891629346eac0d90a368ba49fc42
:102a3000cb34dd403d7768fda7515c59eceaa374c7
:102a40008529818f5881904f64f79f61e8b41da656
:102a500013a68addc1f4cfb6b99baceee050f09777
:102a6000ec03983443b218a7838f5608d14db9d8d8
:102a70002286089ead1ed13b4dde9f427824a717cb
:102a800002236a5a0e3bdde16a0ae9f100d13ab04d
:102a900092729bc29a4e8e25a438c236e32bddef8c
:102aa00086d0eec57fe4bab969a48f5ce936d5c893
:102ab0005f68f697ce084eb58cbc6f9c73ea7a635c
:102ac00056e78ad0a5078f933cd3149b54f1cdc908
:102ad000c6a21bd7fdc1f4ec35c163b8976d4e2972
:102ae000591a25aaf467e9b3057c1b1890aabb5da7
:102af000c9caa80875e528e1e182fea814637c56de
:102b000031c2b8f0547156c701d29fe6ab7774cf8b
:102b1000eb8a013fdab7859b4c0790acdbcab43d2a
:102b200053d79d9548e5e5762852f8cdf4f1029605
:102b3000ef516b2e6ebb2650ea0e95a92ad0635f2b
:102b4000187daacd4291fb03dfc6a088b64f0c8248
:102b5000db32a90cd06a8acf62d949bacf397d75e8
:102b6000aab2da77565bb40bd17438943fd58f385c
:102b7000a1cfcec1f97ee656a412555745a5b4158e
:102b80004ec3169a537bcd13d062947aee47e91563
:102b90000f39e142b91c0a183194b294857850e794
:102ba000e7c2f2efb36fd8ba1086dcf0b48d1068cc
:102bb0004982ac2f82ab4ea57bb9d1c7ebc0dd807b
:102bc0007a79df061633a162e0c6014a1b209ca673
:102bd0009af8f84a189b40324d696d1a35c0299b06
:102be000ff12f7d01ec3887bfa115731ea09aae415
:102bf000dfd68343e8f02d47aac1786a8a39da53d1
:102c0000ccbf4e8e9a42ce5c601d74c677ad86b73f
:102c1000037bc02db835149042104e682d8d43496a
:102c2000957a1177fc57850a54af89821f4d722e11
:102c30000360fc955ec61da546155d61b0dd514380
:102c400057008bbff438e3ff5bec6ebd7eef06d020
:102c5000f2f2dadf68cb5801b3b57cdf5f681105ab
:102c600072e79bc1f2682403393dd7b40f01e51523
:102c7000329a58ece3c553e0e958ecf8dffcd4177e
:102c80000f90e27d349ebbbb506345a0661d9b57f1
:102c900038847e91a1ea658268d4a592828a834da8
:102ca0007ba2457c29a4645e44d819a787f5f80265
:102cb0001dfaad8ee55b8ad5d36e6f76f121fb4aa6
:102cc0007311dae60e49eefa8ef74419910fcbb87c
:102cd00060924d1324059e3e569b868b3dee0c5f05
:102ce0004fbb217e023353d6bb05732c6ff4ce97b6
:102cf00035215de00d772a80da9f7e18c40c718a39
:102d0000676e8916e757a4a48408da87844473f3ae
:102d100085048acf408fa1eb7c4f63a60c0c393021
:102d2000f9ed56ab97090dd7c2a5dac25da2c0cbab
:102d3000d571a3ba19a9073e91b1b3cfea5fd02ede
:102d40008c4c09113fca9199b2ed13edc9c7a81f68
:102d50005cafe605a06c0c3cd639724fe85e257777
:102d6000c42a1b8e7d600c1ed9a15896f48ba88da9
:102d70008eeb649ed587a3d8f7d517fa17cb3bbb4c
:102d800027362a88711c90bd37073a1ed454f50c9b
:102d9000954b7e9ce209c58012eb669bcaa8dd4775
:102da0007f9ea01841a2f52316743e5a5c7a5149c1
:102db000400d7c73f4e0fa16d5a06c9f11d585699f
:102dc00007bfb979b028ca8c98a17e0dea12825d3e
:102dd0000748f5643f10afa20a87228816ab415d11
:102de00070ca15113925e823a1a0ba4f7e54340ebc
:102df000994c84f301aca43034cb409a24bcceb5ba
:102e00002099630e037f0bb319d0c292aa22993383
:102e100006a70ff6d2ddc87adc1572276c5f3daecf
:102e2000a681419a608cfc7b8afcf9d865d261bf8f
:102e300093a7385f8dd55404b8751ec86e0fd63869
:102e400075659b0332e4d625571a828a417b464931
:102e5000c1566384a5fb30f823a80aadf251224382
:102e60009fe367c703ec59805a05c50cab8c7029ea
:102e70005756053b1259a4a6150db884d06418f412
:102e80001d4075b58057f29c70092fd21eac2740ab
:102e9000cb95ecd603d4cfed629a37f6b37a25d131
:102ea00064a10a16fb81b4599a119bc729fb0c1e19
:102eb000f53ca876ce31d23f126d914f3db94b62b1
:102ec0001cb01d2f7ca9983fe6a153a55645ae5cca
:102ed000bbab2be53dc9c67a4f7862f7ffb978c125
:102ee000391fdac2e0ab7562d0a84662defaa0de16
:102ef00040e8ba1c4bd1f7b074b8c45d6cdd57ee36
:102f0000a19042682252b5dddb35b7a17758efb703
:102f100032d287594f10f1c34b38a5225274d54d88
:102f20000e3a90ed77788a0df20a30bc27a06561e1
:102f30009ccff2b3733b1e32d29c4b9c11a6eff098
:102f40008eb3993c71095139d5da19d9669d6d0f47
:102f5000b5067c7eb58e1cd88d0b39446a8c6236e2
:102f6000db7455916febd47ae8d71558d1176ade28
:102f7000702e2c58eb88dbb89abd10fc17f6c2ac4b
:102f8000a725e0adf2a067eaaa910478862b28373e
:102f9000fbbf5216bcd688a93d1f512584de389749
:102fa0009c0ce151ffb7269850c63e8f3c2a1a135d
:102fb000fa530e6bd2b12e15105019815ef5e5d97a
:102fc000147d07f088ddc56b3c4652e904f91233e5
:102fd000de87167b2c80ef715765e6a54d0a59f503
:102fe00061d19b4c5d10c058d0b45b2530f9941b67
:102ff000905872f4717df930bffd6cbd4be99f674d
:1030000063243001b383e6bbc58db6e8ea439b6e0b
:1030100073794fb33ca2d59ea566611440c01e498a
:10302000fd14465fb88c366b89fc894db97edfdbb9
:10303000164e6a652f07812133f6d4e4b7f71f5384
:10304000721a06ade2ba44d58ee4edc30eb17553e3
:10305000cd0bd71cb1d7cd0dceaec2157546361fe0
:1030600046f19cd65ba8c910ea3cf76ef927bbf184
:10307000059a1697474c01f9fbbebdcf2c5f920b0a
:103080007aa384785ca53bf2863c89e289bec38240
:10309000f448523c3a3063b944bec1a010bfe3fbd0
:1030a000fccf2e838f3f896c90c6be9c08ff3720d3
:1030b0007e8f0531248dcd7b50cc0096bef4024826
:1030c000273aba13ecab70c8c5e4c9ad80af46e08f
:1030d000fa05d2d509bd0ab4195f4e399b68cb6198
:1030e000e165fb7de9e82eb140f4612bac7bc20dbc
:1030f000726398a1ca6593ee7f69e3533b86748d32
:10310000ea96d07d74bd22d35bea2f5c486a59c32e
:10311000dc852ddb81bc05766bcc758ba39865d8df
:103120007f76c38e8f7ca3099e8a07792a4423b5b4
:1031300097d6f2e0eb9e2acd51dbafb7cd354244b6
:1031400036f46b9be150b255d9acd51f770645d606
:103150009c26afee30b5ad8c445f5ad5ad8a92193e
:1031600005c862952d07d2249fe5f50a29eaf5687e
:10317000352a9f9085540b9e1d3ffcbeb019e1e897
:1031800069ac664335880237a35b189dab176c7931
:103190004886b4f1c1d375872a3b5d379a61042d07
:1031a000e5c1f3b12d2953dec989321b37be6fa2a9
:1031b0001873132250100a53c1fdf507768f9aaa8f
:1031c000a421231b9fd8b43ef50086d93b7a8bf609
:1031d0005311e4acc16f43079857b00ac63d718dd7
:1031e000a09e79ad5da62db6792e6e5e075a9032ff
:1031f0001c5facd62c6d849c472101599a4933cb76
:103200005da43cc2aebe16505ad23cf48a21773837
:103210005f02f643e0bab94f51d98b77645a969f53
:10322000b08756561dcd3bda3e3d7b5dd3ec066b39
:10323000908cd9d626f9db83c3a1aa807a90ff8d22
:1032400038ebe1cd8dbcd91c43a459c83130f35eb5
:103250004a9cf274ea8462e176f0a19e1fea57e389
:10326000a32e237d0ddfaaaabff23c98015515932a
:103270005fd0c2a1fd9daa6e70ef91e9672e5064e8
:10328000150bb27ce619d4da29672a22a346908a64
:1032900047ae2c0ab94edbed2dc9445bc564c4753d
:1032a000c097a6c6c622148e6e7d4c35d60a364e01
:1032b000b6564d3f977dd6cdc2fdd83584e513de99
:1032c000585387c8767d7ec2fd8798aff1a6b0dce3
:1032d000d21d5c074db29d1a11476b0490958df479
:1032e000d89a32a5e07128b36d80d1adc630dd31fa
:1032f0004e8d3ebc603ac5e4babd45fc30b2fe0e10
:103300003c2b225cc54a28da096f1e49ce1d6b751d
:103310009c9a51ac820ed2f8e31724f8aeadb1629c
:10332000f6929ce266a3312548f850377b1d6ee883
:10333000408b6f13de350bd65d94a872fbc0384b03
:10334000aefb56f5b2a955afbf8df27ef81c12c286
:103350007c6c1cd4bbce854e71b8616036df93ffa8
:10336000b0bd6a4976eb58b6f9346a64a87d230487
:103370009accb050b13462aa6b9543299f297b71d6
:1033800093b33ebc35136819001e0868833bc743de
:10339000d6b85126c79013f98c012554ef9a105bcb
:1033a000614788595e304e11114e07fe3562f11f9c
:1033b000a95e3f88269acb050178d07f5b459b7f2d
:1033c000fdb83a5e4975486e9b327cac26c6502ae1
:1033d0009c31dd7df8978ddea2f401b3a81a1ba500
:1033e0005e557e60368ce3617de44eedd4b1ed42f6
:1033f000fbc80caf6fab4d2451d584d0e3feeeea91
:1034000080877dfc5a399b1258f4c6d75d5399a129
:1034100091d618341a78952814c4c43c6672ac2529
:10342000a69e5b003137aafe6b5580d733caec0ce1
:103430008194800f95891f6a3f5969e923064a24c0
:10344000cc44e6092114d641589767c22be28b8ef3
:1034500081935d2b703ee18ce14cead821d55e551d
:103460000cbbe8dea1cf1263daa8cc25efdde6566f
:10347000880ca02302731b32a4a85bd68d09158289
:103480008bd8d59647cba2db8c2a668416846e76c1
:10349000fcc2dd84dda1fa76b214255c6f38c0066b
:1034a00031b614084950988ef38f8adf67d8c1dc93
:1034b00057ecc45108422cd1e7bddb39867ded3491
:1034c0009724a3cf6370fa00c9cc49ecfc17b55818
:1034d0002e57fcf22a36ccd81de2b8ee4f00feb6cd
:1034e00052f3177fefba7ec472a2bb0f75cdb90835
:1034f0005347ecda7c4ce08a100905b959f614d729
:10350000360f16be96efb88ea42cbe649ec3a71cc1
:103510005fb1e0d308d95b945c9c0cf643ed813736
:103520001367ba419d58512a627423045124698457
:10353000ea4354fb41649ad0dff9ec187b72aef693
:103540002ba559b05c2126452681097de002b47285
:103550003fd0e015453ed33ac8276b9ae3768ad12f
:10356000c6755e880a6e7f1ad0cf20a5a5679f8496
:103570001ec37dcd0ab48ff5df13d3ecbc1c8f8244
:10358000fce5b678558845d33ffeb46ebb837285a3
:10359000985c38e1485b8d2e928046beaba297a026
:1035a000351f560ac73ae5a98f0a4fc51714fcdf25
:1035b00095e759354f6273893aec08409cfb086dda
:1035c000aacabd2a5a86ceda1b7334b4f78b651f9c
:1035d0009d554cca8899b7e8802f3e8bd0969d693f
:1035e00058548a4ffa1a941fc6f58e92777e7478d3
:1035f00043fba39aec771b5c225692b0fe11544a0f
:103600000f2661eb0db7f3d496ca2a41a2b36b39ea
:10361000f90b81544ba83b6ef0eecf66f884c8c31b
:10362000f7188c33916b535dd8fc12fbc45659705c
:10363000c006bdea397f5c3d2e6a4722e97fb7bdef
:103640000907d4f0330eb6483c4cfdcdd01f4a7468
:10365000d60e61407285a87ba952a199626eaf6ea9
:10366000fbc9836239369a6bd0679298440e2ce975
:103670005b38628b4de1ac871d6b45382d3162bee6
:1036800002213535200e4fdd8c72355f291186837e
:103690005805800592ddb2f2d18895aa769241d183
:1036a000b8dc4d079e055cc2b04acd422156c2919e
:1036b000c83541cd5c06221f48265f713816bd2ce7
:1036c0003f1b0ed8e88936523d569ac46606fa1258
:1036d000a649391d9d57ad38ccebf584566104d60b
:1036e000c962cfa738980bb249f3155223b94c29b8
:1036f000d9ad5727bc2d309531a5078cefb46f8b12
:10370000d1ba242b7082a449468c39c8e8c76fd738
:1037100046305d03669e16ee56c31d233ee22ae543
:103720006762d171f157d38c8d46528efe0c06859f
:10373000962316422ab166911178c8ebd8a9f6cc27
:1037400024da5fb5fd5b50d0b50dc687e018e542c1
:10375000e07a9dc4fd9376fc428818185bb7cb686d
:10376000c899fab355b38c73eab7b667e09142af24
:10377000faf450e96cd230b79e4e9d68e5c6599e6a
:10378000c8cafa46b2d49500c48a93eb725d0a1592
:1037900009da6ab3df597bf9a4a388336f071814d9
:1037a000c8bec4e20c8cb878baaa4ba6a9fa938911
:1037b000951787baa0980db892446c7aa9d7a5bd81
:1037c000c362f4c0c565b9181908e82d4021c58049
:1037d000bd852b85aaff7acab864576140d9f91d07
:1037e0003140b67d279b75b001298a23464e3b7c2c
:1037f000a72d947c0abb5064c539df6574f0d805e9
:10380000b162ea8c2b66416ae521a8d757c3cda1e6
:10381000573221c919360eb5c712f60ddf6eb0d872
:1038200016dd19a4afb801eaa758054775ac4b23bc
:103830000fe777f14338030c72dca10ec2c7cfce7d
:103840009b567dc28e06eec421d77cb1dbd284c0ec
:103850005f73cba0f58ef7f71c61c34bd50f7332a6
:103860008b5d4d72ed23f4b2ef1aa9438ec0363f43
:103870008d0328e9b3e752effaf8518564c2b465c5
:10388000a61c136ea684b496bde9321fd366729e41
:103890005e24e2a82a43573646d5d245ed5a1e5437
:1038a000d521ac5140110d74d4f58b67804ad4e515
:1038b0009274eebd1df74317fabe524c793399133b
:1038c0006066071abbf1988dffac86bb8cc7d36ec0
:1038d0008cd7d3245e119cf3046978749d96f360b1
:1038e000f17db3e166cce3ca52e08be6d87ad5bf6e
:1038f0006cd87fb8bb1a4da015bda18ad0673da278
:1039000093cab30982522b4ceb45c884ccbfbb5a37
:10391000203a96d12d858654dec2fc7fb14b05c678
:10392000d1fabdb73177cb30b9025d1e29729a3911
:103930007573611cf0b538d10042a9a6a97eefc10c
:10394000452f26dee0c79ffa030ad620b0e2acc6b8
:10395000cf77f9b60bceae86c7baa527fcf33cf7f6
:103960006f8535df5be93033a327476b608265af36
:10397000cff122156b0b9e8fed45a859b998d5d67e
:10398000e3b6070cd7e890824b51b23105c4a0e1f1
:103990009728b0b9f20c4e4f4d06d640474d6a29d4
:1039a000c6fe4f1b426a1aff28a96d97f7810127af
:1039b0005faa49448a9469abeb10c4984cdb282079
:1039c000cde047d44c19e1e6d31e4b62cce1798db2
:1039d0006578c468428a573b3c3e0c210d7706bc93
:1039e000cdb3c05ef13960de4866e06e8cf76e04e0
:1039f0002fd1108deb8175aff6ebe04fc87336d346
:103a0000b1bb78d8b4065641831d993a54694e38f3
:103a1000207a9a0e67f4963093179cfb86e73d1d3b
:103a20001e6441f716af545979dffda39963710df8
:103a300022ac0d5b9aba6612d056c8bc6e2498713f
:103a4000d48b98adf71a9330cf3de40e35de50524b
:103a50006c998f4953d2441741f977cb5a1cad2545
:103a60007afb7f2f436d8d26039836b6346b5be669
:103a70004f27d47b590e3acf249fef587e6565cff0
:103a800040e70af64d8010cd24ebbdcd249542a130
:103a9000194b9dcea498b98342e8fc17f2acdb8d9c
:103aa0000ed3a4ac3777ae3f57f4e92be52adfce2f
:103ab000dd585fcb7ea16e7ed3b03f4dad49ba6b72
:103ac000a8a8863a7a6c85f637f01d987e046b0daf
:103ad0006463b8db70d8dbc8ad32bc3d5da317e2d0
:103ae000205c4b6515062232e15f5e5abd8a5c7927
:103af00077034956049be8b6fc070911999059755c
:103b0000b0c0c6d7ef6ff001bbfb49c6ec2d0f1854
:103b10005e6f81b21087cabb74f2aeb8e93e0eabdd
:103b200009907a66f76bce0e3b5d014e207c14d86f
:103b3000066cdbc3a4369fc1a8c5993e7401d93376
:103b40000de0ed936611b9cda1844cf3f850377bad
:103b5000937029a088e6a80ba08699813f63918085
:103b6000f3d10c82b780a449f89107bcf704467ad8
:103b7000ca3d39f22ffb72c36a45f2d6e93ea884ea
:103b8000dfc877eff05ec55dbf3a8d9e5352d4ce4d
:103b90005d79a13b9474c1af0a4e010191a94f2fe9
:103ba00050d2cfad1afa1c3a5ded12c11a94bd87fe
:103bb0001a70d671e3ddb3c3e8c0d71ec112dcefc3
:103bc00043622dde7ca33b6ff25594103d1cdace90
:103bd000d13b057fb2052568a1f8a5ee3fce21e8cf
:103be000cabd3a43acbf37927a59da8de37a62cdd7
:103bf0000c98f64cae86a40abdc9f8951d40f39cfe
:103c000063d5d17d92acbf1c67fe6638dc9252b49e
:103c1000bcfa9d8d89faf42eff05c64bd201b82a55
:103c200054697cd167dc389c7e6abf0e086a0796af
:103c3000697e0ec19b1f9a956536a1b2c6b4a2e4f7
:103c400011bd540f412f3ece23b8e273f9119308f2
:103c5000ba2d54d0263d0264299846106c887620ef
:103c6000ae2df27c12bed307d9a15d5c95fe6be14f
:103c70006cadab321649b7ff555137df1268c5a797
:103c8000bba5015265f50a383f1e8c32892204f427
:103c9000d99d5d3aedb19a4f754889354f2b57be86
:103ca000788d20960155ff4ee6b01e03c36adb53a4
:103cb000823524fe5c319aa34d1c93a58f920c5a39
:103cc0009eab52dfa7983ce5ba6de99911d613a2d5
:103cd000271d29e960ccabcbda03599566668cd1f8
:103ce0007c2ab021fc6c183bd4faa01aba4afd9980
:103cf000770a19509cb6b99572cc3afe426de19c98
:103d00004469edcb69e68f4301ce52273336b8dde7
:103d100030c936ee0235fd1f0eb145a0a5d755843a
:103d2000283a91fdb6d87aca59872e406f42b134ed
:103d3000f4a0a6d6db6de64a1c37617b188b70a514
:103d400083589c35bda4a135979c495f95b95417fc
:103d5000a3be146b47cd6d1801098debd276bb95d0
:103d6000d87b3e48310af66bd9cc9362754d223030
:103d7000ce6c95de314fd151ce8612b6af4a43cdcf
:103d8000ea4b6b066d84fc10ec4b6009c136c11127
:103d90007a8d700d24bc304615be6dba4344f7a32e
:103da00002f164d5b0b929c0fb7d46cb0806064fa9
:103db00014c2c6c8b00f96ad31969a03df2fa09cef
:103dc000069600a5945070bdb4b6abf0977821d993
:103dd000d839f8bae9e324e8feee3e46ce3f2abce5
:103de000e493881658a928d90566c574bffc68c530
:103df00016505e5eafb0a132f37994c3cacbd758e8
:103e00003856a9abfe49fe7b24c410450f3d900ee9
:103e1000e2ff5232d12ed18857b8a9c2452b8fef7d
:103e200088df6937ddbed61836af066be5983fa749
:103e300088523a4f112b8fa057164e40d7395b3915
:103e4000fba756d15b954868b628bbb36c9581ca71
:103e500035fdd7ceb4e5eac66b42c140cfe546fb9f
:103e600088af06ed3cdf802a82a6a41f0ad88cbf4b
:103e7000846a54aae26ddf4b9264bef31884d09d2d
:103e800062499a33e454a7f1a13c4d974044d59b35
:103e9000d3595c1cfaf2046ab03739d78d2f70b74a
:103ea000903ba00fad6df1ca54c508a13327ddad1d
:103eb0009d366ca9f2826e896a75758faa716856f3
:103ec000fa68371c62c74c9e8783cce7be778eb6f4
:103ed00094169ad00cb54b9e90585b875e6b0f6b17
:103ee000d868eb8ceac690f44fd35389d5391e8637
:103ef000ab1dc509fc3622ebfbb645c4d834536e66
:103f0000f3450495f9724157f8272f69281aee2ec8
:103f1000fb2204752c92d7726393bd67975cdd28f2
:103f20006dd78cb1893690dd45e3fed34bc7d29374
:103f3000840a0b727d4189d9994fb55f05964f7cf4
:103f4000ecbf94e11aadf31b5e4b5f935536aec8e0
:103f5000ee7b2c2782d22b3209b83b62c1cabff359
:103f6000b6779b764613a2e071aecee2f37d483b76
:103f70006ada3e82250f905c2b52af64517b1d8222
:103f8000fdd89e0e4eefb087871c134a1b23745238
:103f900090c34cbc26542be2605b9b2a00420fa0ce
:103fa000b806eb7bea6d79b16161f83458156702a8
:103fb000f745f364c736032cf5dcd1161d3a8bfeaa
:103fc00033bebcf4784e96230488a6f82ae5d43490
:103fd000e4fc984180a1f5680825e075e5415d3471
:103fe000a2db29c74751109ea241b4c8e11c94df4f
:103ff0005f7139303cf34bdb1bd17d404e420f7576
:10400000cd7137a39e563b944b1039e2ddf4680323
:10401000c33ab296114bcc6a127637b927b8e72d5e
:1040200054e3e893da3d728690bf2a8d577b1a5786
:10403000f1f60b2b872ebf2ea59aa8a0f80a063ff3
:10404000e1238f37791126b6d9716d30936df23037
:10405000a45e76b1763d088f2313221acfaff1de2e
:1040600064697bb24be391aaa5fa30a4b515319ee1
:10407000b402795bd3e0f2a6f3861aadcb9f30533e
:104080005195fd614b05e353c3f494e7f1896e61eb
:10409000937ddbd79c0c25b1cbff9cd89413d88e95
:1040a0007be042914806598eac36d25c068d1eb537
:1040b000ca82d0743bdf787fee50db90142214acc0
:1040c000ee9ad79d3fe6382cb3d53cf0f72e7e60b4
:1040d000afd247bbd33ad07fc0131f25f61d68e18e
:1040e000750e8de1a2cc7541678e02a3bf08369d87
:1040f000c2887ff948fa27f6a48deef38a3f068d31
:10410000a22e262f57afdb78ded78f3b8c6420386a
:10411000c3ae4a8c9a92a0760c086b44a8476226dc
:10412000d45d382ad70853483f8cd28bd030d20a7e
:1041300075bcc483efde2cd2ea518d2b91ca79660f
:1041400016fd282706bbf3e74be536390a658b26b3
:104150003fa86fcc4614ab6fc111762f05939eb864
:104160004f3625454ff87c25a043eb274b95e90ab0
:10417000404fbed430382541489a4bf06377246acb
:10418000e05e51772f04672e64a6d14dc792a8cd6b
:104190000c8367cc84a32ed3aa4d64e81aa0b3a1e4
:1041a0002059d8d64fc1d6a85dc1767b25017b2d7d
:1041b0009b2ce4c2efcd4566994fb3d97a471bedee
:1041c0001a5d88857c14724e7755edc7b97948f72a
:1041d00041bc55be518b540f1d769b03a9b84511a8
:1041e0007da62a312a83cca9aef9851ab9f6a8731f
:1041f000cc173faca2548046ac7f009cfcae41f390
:104200006aa9da748c302479cf067103c1ea60c2de
:10421000a89268ea4676e88bf30e749e9401f881c2
:1042200062b87818ddd3d872545f441f7a94b234e0
:104230003d8d6bd5a9bc9966068a88729589dba9e4
:1042400030251bd47b633fcc390763a420faddf80b
:10425000b5e62f70c08410fd2c587e8946fc5b6e3d
:10426000513ca309e637f460437e4d0391b785d5f1
:10427000bbff7585e2bb79cd3066c11f002c774549
:104280009cfe1bf6fea057a052076286f091ec50f0
:10429000ce19aef7a4bbfcc6d9e5ccbe8b814b4f83
:1042a0009fe3cbdd724c94ac4dbb2c59ea726f3559
:1042b00003d03ed9da4d6c1067ab68ef37028751f7
:1042c000dd937fa56c9131d1c791f12daed462d32e
:1042d000732fd45d4d026ba4f244ee993623d3467e
:1042e0005294560649267cdc8c3ca94c25d510847a
:1042f000c3cebc86077c712cbec586e5cb8b674dd3
:104300000cf031200a6137886cd3d7be25ba3f6ed6
:10431000ff3cd6b1d3aedebad6a8a5757d88539042
:10432000eaf30ea3089c0931fb1d556f2472925cc1
:104330009a1fd695fe7d8b5d2478dfd7db80af9703
:10434000e47f8f5f6185b55cb59640af781813cb7d
:10435000133a4c08577b4431c3fb956fba299af046
:10436000595dd5b9e081e0a7d1a4f2483bb2ed0e8a
:10437000136bddd4323fc45a5199a87cf2119cb41e
:10438000051757e5d948c47f75b815b5efe4541043
:1043900001992ba16853aa30ecb987fb54e5f88842
:1043a000d563abfd9b8dbaf0fc7314d8e5e25cbc21
:1043b00023bf6562b07f3fce9b5b7d296c010f8080
:1043c00061c780d48585436054f41564c8b528d787
:1043d00065eb4658f5057a31c856431c8d01c0146b
:1043e000ee8bd833659370882b0f739b2bfb372094
:1043f000ca547ca1b8be21440b1d8483cec225a91a
:1044000001d57b7781b4118738a1db82c244b8da49
:104410004107b706b3e7f63e68b574a3abdc44a723
:104420001dab605fa98a0d2e46580b7197fe344272
:10443000e9b341c9c9d8f8725aa0b960d923069f17
:1044400028075122e2256745a1f81476f26e84749c
:104450002523c573ace9d98364a72583026c8a50f0
:104460007918dd4f471993e60d9fd280768153f975
:104470006c51532810dc438ee12f484bca6dd8f4a1
:1044800062efb58ad43792560354726079a0590a04
:104490002eb340605baf8a3c668084ec4585dc547b
:1044a00042b391910aaa6e03924910d4a24da31b64
:1044b0001cc4209ab6769a04394cf5f1446cb54187
:1044c00082500bcd540a7e85f2f848af5187c1a2c5
:1044d0002152304708525bd5e66508f08b5e29f71c
:1044e000679b648b7e67c8d81485a6dc07c640cc62
:1044f000d1deabea7e3b9a2af8cd0f2397d585fe15
:10450000f2ad184d3ee32ec898240ac9b051f816f2
:10451000855b9f32bce45bc9648e2b6016ada3291a
:104520000533093f577b2a33e0ae129ff853d2ed93
:1045300076f2cf4aa2160ae806b1618ab7ec34def9
:10454000e0885c385774126ba7eb1eb4ea173a5830
:104550002ae4fe1d9e6b5c73de2b7081ec03a214bb
:10456000c2978b1bf3e324970585024bf7fadd24f2
:104570000c646b2aa8f35cf63066d7afaa2421310d
:104580000a3c9c942216ba732a895aa9721cc7c085
:1045900035b17364fb621f3bbde1b7ba5345bb0f36
:1045a000bcfa644dcbd18759927ed94bc958f043a0
:1045b000cc83f224557a03c9a7efdd9534188ef920
:1045c000402ad5e5f5cf52761d55a1f068c2cee15f
:1045d000848a8d3476eba8f875bde074d1710d78be
:1045e000a9caf61a56abc108e897d52844e3b8a97a
:1045f000e9dd03d5fe025c4433919724fd04abb49e
:104600001cf338b5dfbdd60fcd201576ceb296623d
:10461000f7d569da2463612051aa535f60c79071ae
:104620005121a44a648617ed281e058e76000910d4
:10463000273e563fa65dba5dd4797472155921584c
:10464000017dfdf3566181272c7722ac7ea279dfb4
:1046500099ee2b505b24e459e7a8c6f321ce5f7096
:1046600000c9cf671a25e1936de5250c484cc84772
:10467000deafba318396d5472fa1885778bcfcc2ec
:10468000a5bccb67c48697d0076c76a99d5941938a
:1046900078ce72a7326b2d685a15abe8edf688c755
:1046a000e28255aa013347ea168bef26b1deacb39e
:1046b000f5cb033ec1e285f0b66ee39bd8cdb65c88
:1046c00057389fc8a752f6804bf2ef5652d5b144e7
:1046d0004af6f081220a00451a2689df1f92964a7f
:1046e00006197506f8d45903d15a21ad712dee0f74
:1046f0008cc13f0bafd8dbba1806c65169f66ad633
:104700003b3309bbaef2d469ab796e696fd990d4f3
:104710004c5449e5ed832019e948dacd1b33d343e6
:10472000d690b25ed2bd0399ef493bd5b59adda2d2
:10473000530738ee1664865b0f5f83f51e66195fbc
:104740003e4e0a759c6fe26096c85fe41dffb5c1de
:10475000fff5c074b30dbd6d53ea98e6b4dadbf231
:10476000b8e2c1c2aa3a28ace541056d4ae4f5c6f3
:10477000d137d30be4cbd0ef71d117a96a9701b031
:10478000f4398dc7fb79bda4fc871568fcc5102cd6
:104790006db04a2558cec3744c32c69b0b3ced4bd2
:1047a000732b5b736b4a2069cfecb6f25c49e992dc
:1047b0009dfbdd3baf495cb48918b827f206e16583
:1047c000f72bc71cecfada5740a33802dcb160cbf8
:1047d0000cbff24788cd5904728661d8eb3fe3c91c
:1047e0006a40e28451458cdffc8c83b85b6a3b8a6b
:1047f000f9e3ef914ec9f4b5794bd390cd8629f901
:1048000080e4227e90f5e982d76f6f8ae222647d90
:104810006a088e2f5c7e1ab32d6bf7be199462a3c3
:104820000974dbc5cae58c95c02907249c0cc7c553
:104830001f58029d4014a5fd05a2ffbc16fcddaa71
:10484000f7fa4476ccc0a0cc0e8a92e25a6a95d888
:10485000aef0777b0537d665bb93341b44f155ce5c
:10486000481b08d78e26a9fc68f9cfd89cddc66006
:10487000c6ce2f4725179dbc868ef8925406e7b208
:104880001d6f044f4f696c88c6882dc43d793c94d8
:104890009498193cbaae363b6f4a1e3443462eb14b
:1048a0002cfad6345585a1857c989a284dada3461f
:1048b00052b7559ee0a5405eeece5d102443974b67
:1048c000ffca015954fd41b0e8d49696d551aee3e4
:1048d00038b9fdd990971e3387603ba85b71e3958b
:1048e0000ae8ef5247eb46a94baab3f73179070d17
:1048f0006b9eb612331307f22eaf667c68fd16333b
:10490000e79644a550b3a291539c56b24fe244a8f7
:10491000d4554d095939480f19a8ac23f250b4e0c9
:10492000746104851856a31feaa39fb414e12e48ae
:1049300019f219876b8d95e197c612fc7b5ffd0715
:1049400040350ce22544e9fdc106dcb9b46231080a
:1049500041545b559eb38cac280504b0e8832b66ac
:104960009eeac290ac48984811ebea3ac8e39df43d
:10497000455f97df76b234839e2073fe1688eb4541
:104980007e69fe3a2eee653032e27bce791f93557a
:10499000678bbc1bc997f29c04eaf48ff0942263e6
:1049a000038da383b8ce25821acd41c48d71947432
:1049b000081e2d29c15c5c0471cdaf28068d338e95
:1049c0003f321818c942f944c8c3f1538baf973b23
:1049d0001d1e804553b835ebf31a6a86b4add64335
:1049e000f7c68be3f9ab08a897bb0a949f14f6852a
:1049f000d58ae5979f6465f2ce61e8059f86481bde
:104a00009d3b0a51a6bb97ece7b574da4c3bce89c7
:104a10008b82b7c1f7b351887427ec6b7be17aa81e
:104a20001b63406aa6cca3655bdd3f6d9dfa39b47c
:104a30009ce2517f0d29f6144d7efa473863587178
:104a40008cfca906094d5079e21ea6a8781c5dac25
:104a5000bf814391cc4bb34faab4d4d8f423d1e354
:104a600022c4c389eacbb51b3b329dd6cd7b474ed2
:104a7000ca4207b6c99b6b66a18e013895e62f1d09
:104a8000b9231f6c039c307d5a650820d77014e150
:104a9000fad3ccf009764e17f1c012aa1c67721b2c
:104aa000f6df1701fe1d276d0208f9a2c0ba7aede4
:104ab000866e67ef83c15eddd25fbea299e3d6bc8e
:104ac000aa1e2fd128d1857702809bd03628fc1ac8
:104ad000f836faf97a22e1c56032d35078d791ca14
:104ae000bb26a05d32d9325c33cb696e27473800d4
:104af0003d6b274e9332bd88b14802417636eb714b
:104b0000605fcbf91ecd58dd7570255bc2df4400b8
:104b1000c9a8cca902127faeb68eb92c225885ab9b
:104b2000462b31c33444103a239a691c2a86c4cade
:104b30008ea9be696df460c19057ff258b7cc6f4c9
:104b4000d36165794588ba62955aa5e1588b897e0b
:104b50000648ec28a4ca6b32d8c047be7ce9349121
:104b6000c8b87371ed9984d4bef0b60096f6404390
:104b70001113f96cb2a475e02527659f724529577a
:104b8000015dcbca6838c96a5682c3713d735d1036
:104b9000d72187601f0a34e4471561092ff3e578b0
:104ba0003d7643ab955193cbb55256d5961e032b0c
:104bb000fa8efbc046b17a2ddcb71c6addaa25c887
:104bc000437a1f91a93956a6eff343e7d0c50245b2
:104bd000890d507a621ebed6e6e2d4dca0a611048e
:104be0004ce26ad72d498072175a8c59bcf216f0e4
:104bf000e913f58091f1e7ce487355006289549f1f
:104c000034a4591e2a4b12d16ccde648694b795613
:104c10001d0a6df4cda5e596703fe1e2f8169814f3
:104c2000043304d79d3ce446c244c0d3ac5bfde3ef
:104c30005cef6c416ffeab26eae72fa528c8148b0a
:104c4000a066c598031ffcbe50dbe3925d7ed6ad27
:104c50005d3fa0fe0753cb6f2bd797356cd8691bf0
:104c6000766b6da90e484bb8897708046c9356f79c
:104c70000339654bf9d87b3305ac2fb57707a4ed25
:104c8000a38e92370080569a1acc21333a301ff700
:104c90005a379587842b20c2c8fb63f53e03abe4eb
:104ca00068099b32aa3c24f23ee0232400a9874bea
:104cb000924e75e87aa7fb971cd790936cedcb4981
:104cc00063dba5e76d7e43dd456875d33292f35c07
:104cd000f560e4fe8248b9d460db13fb1d933f58b6
:104ce0006337b07bedf91a213e5b289237bc7e5cbe
:104cf000f99050fe92364da969f6a9a918f451a869
:104d0000b6b9e9422be634097365ba1d39557bf70c
:104d10007737aa46b8a79110c9ce8dad99b5a3ef44
:104d2000229b6c0e7ae23ca33a772168b257cc41c1
:104d3000f5e2ee689b347b4c2a165e58b7ca1350d6
:104d4000c060f06bd43dbf7800db9603410f446137
:104d5000d149a431123daddfdcdf40df22f1f66442
:104d600018a23dce833eb6aefee2b43a9f0580ee79
:104d7000eb69d9f16947a2938633f0c14eaa67095e
:104d8000fdef98b035e9024c95f57eb4b3e72543c5
:104d9000277cad06a4470455b75732ee181a20e316
:104da000b1a6a95275a0356e4e96ccb0d4292e303e
:104db0001ad82ef90370eb6b110e19f3aaf0e590d7
:104dc0002f4430fb0f3f673bd228c2ccd7ebede23c
:104dd000044e65076559a09fba91ad5068ea18da8c
:104de0008d76fed241bd2d3ee40405cca9d71d1819
:104df0001486b3e930039ab4f322666ef0f74029c3
:104e000006c7994bc2a76d7a38ba87a00f21234de8
:104e1000b1f9550875f4bcd284d387ace9cdd091f3
:104e20009274b40b008cbdd1e05e376f0b905af1d9
:104e3000c874af4cab5823606c5f18d2a55fa38bce
:104e40003f7a904470124da274c16dc2ab5622dc01
:104e50006935a07e9f196fe177f492d8c5fea0acaa
:104e600063bd99d07de130e3378bfaea58d237320f
:104e7000af46f3f37403c7a50c2c17ca58ce60d203
:104e80003715453eab9f8376f0bc698fa6970bea3a
:104e900057fc18f2fdf3d1fbc446feda13326dbca9
:104ea0008f4beb6d70839152ab6858153440eac755
:104eb000065a977468ad4ce7c5e343edb31b4867ea
:104ec00010cb9603ef682ff9b52126f4434ba4fad3
:104ed0004104f1924eb395b81ab6f557df5863f70f
:104ee0005f7b08bf940c9c707ba6d55b168b71e82a
:104ef0007d7578fccf6ff3594c8773f05aced83557
:104f000035046e790b9425ad36916f94ff8118c5e9
:104f10009232c9dc7a8f9ec2a3d11fcf69e4f9c057
:104f20000c11cdb3693a85aceebf5d930f3f021e05
:104f30003cfa99182fef1e4736caeee961be503a87
:104f40002071bbc2db66af4ff4c67b267addb89c0e
:104f5000982557da5af4de8629ad1902f95ae6b8cf
:104f60006a8378223994b8bd2d1fafcb043d01234d
:104f70007b706c5992b32c37de57b0403c200c3319
:104f8000a20ebfc68c33a1e185af09574c046867f8
:104f90004e89fb641f611146d1997172154adefd7d
:104fa000fc3180d5b60d305d774b9ec1912ad13a48
:104fb0009af6ff750a592125b4b92c73c4ecc4586c
:104fc00099d0bbe53e17acddeb71ff6a3229ff36a5
:104fd000c52e809853241718f43b63c8a06c6ede6e
:104fe000d8ff06d14004d99988e639b45d251bbda8
:104ff000dfa3e19ab30b588df3f5e4d34621f237e2
:105000000dd0e809ef7adb862872cc0719604b23b4
:105010000a6db33564d7853ba3c0702ca78e03b34c
:10502000e0a2308376f131cbe4c81a7ccfd7fd9d66
:10503000ce9178e309efc7ecd3c996f1d00fe7a57d
:10504000dd3b070bf410d4fd2da427a6c406d59292
:1050500086a4a7d3bc9974c508c7cc1ffc74e95ab1
:105060000dfa896c7bde8d5bf917871414d18cd215
:10507000bd58ae435de798c48694acb110eb107890
:10508000c4c9eb71a2e0ba190b8ec5e1e59ffcb76c
:105090009cc1581c1b3b8dc70fd621aac3527374e9
:1050a00094fc7ecfa4f5f0ac41ce54b20db1e03605
:1050b0008c3fc97ca161e4f0051b9d4a8fe7b7cf07
:1050c0003d8f8d96f861d9c829a47de74e7e135691
:1050d0006221eb867b083e0e7b75fe524e04d67233
:1050e0001ad3e6497f5f2649facfd98ae8af3e9bbb
:1050f000d60088ee9d78bc1da3b4ac87cb58eaebf4
:1051000044e04181521b569909f8f2c137ca919e79
:105110008fa4a4f1409e32d109ed8e01609290f0ef
:10512000582ff9f5539ff3fe9fe0d7843373b5dd15
:10513000643d33009bb5e78b71191883fcb3f4e928
:105140000e43dbd6bf4bf1bc244bf646ae864c9be0
:105150000cc38be753502e5a582b1ebc782749128c
:10516000611ca82c8b6e2ada739d4e8cad0a669b4f
:1051700058fc6fb0677ca42862dfa94d106253ac65
:10518000f7c61cf08598011f16eaf961100b494615
:10519000d95ac7d0248bfcd45d8142429290312ce5
:1051a00021cafd964335d8e4e8a70705a68ed54762
:1051b000342fb374ef10a7293854827c5545aba225
:1051c00091ee1e08d80429d6488bf4e13035e30e61
:1051d000e3567d81f3fb88a47eb75ae04397f1f84c
:1051e0007a6c61690c782987009557f5ef4ed919cb
:1051f0008859f63e54a34f8724334c7ab163117417
:10520000abf6f2dccde648d86437790df77ca0ea3e
