:020000040000fa
:10000000e8ff0020090400007104000071040000f2
:10001000710400007104000071040000710400000c
:1000200071040000710400007104000071040000fc
:1000300071040000710400007104000071040000ec
:1000400071040000710400007104000071040000dc
:1004000006000000000000001049086800281bd00a
:100410000f4a90470d490868002815d00d4a012061
:1004200010600d4a11600d49012008600c4a00203f
:100430001060082008600b4a10684008fcd2054a8a
:10044000002010600848004708480047fc41e00fc2
:10045000ef05000008000e4010000e400c000e409a
:1004600018000e401c000e40710400009d040000a6
:10047000bff34f8f054906480860bff34f8f05490a
:1004800005480860bff34f8ffee7000000500e40a4
:10049000444400000ced00e00400fa0500b5444ab5
:1004a0004448801a91b020f0030000231446834290
:1004b000414a03d0d158e1500433f8e73f4940485e
:1004c000401a134420f003000022824203d000248b
:1004d0008c500432f9e73b493b4c641a24f0030486
:1004e0000022a24203d0985888500432f9e7374ad4
:1004f0003749891a21f0030100238b4207d00020dd
:10050000d0500433f9e7d3f89020940705d4314b49
:10051000d3f84021d501fad4f5e72f4a5468516841
:1005200021f0407141f0807151602c4a1d69d2f870
:10053000b0201a6101f0dafc01f030fc00f056f84e
:1005400000f09cfb00f06cfe00f098f908b100f0a0
:1005500085fa204bd3f84021d001fad4d3f890206b
:100560009107f6d51d611b4bd3f84021d201fad477
:10057000d3f890309b07f6d5174b01215c60684695
:1005800000f050fc009801a900f0fafb20b9039b91
:10059000134843f001039847bff34f8f114a124ba2
:1005a000d16801f4e0610b43d360bff34f8ffee7e6
:1005b0000000002020010020f02200002001002087
:1005c0002802002000040020080400200c04002061
:1005d0005827002000400e4000000e40b081e00f80
:1005e0009021000000ed00e00400fa05704770471c
:1005f0000020704703207047032070470320704796
:100600000020704703207047054b5a6842f01002e3
:100610005a6003f5a04344f244421a60704700bf99
:1006200000000e4010b500231a464ff0ff31c45ca5
:100630008c4218bf00220132042a04d00133102b4f
:1006400003d02146f3e7002010bd012010bd0000bb
:1006500008b501f071f8bff34f8f054a054bd1681b
:1006600001f4e0610b43d360bff34f8ffee700bf9f
:1006700000ed00e00400fa051fb5436a994202d379
:100680004ff0ff301ee0c269531c1ad0036b994231
:1006900004d2013b591a8369585c13e0cb1a0b4909
:1006a00000208de803000a49013a0868d21a0df1ca
:1006b0000f01012300f0e1fb0028e1d19df80f00bc
:1006c00000e0002005b05df804fb00bfa08601003b
:1006d0006414002038b5026a836a9a42044602d341
:1006e0004ff0ff3038bdc36a0f2b11d90c48616938
:1006f000102200f0e3fd05460028f1d11023206907
:100700000749224601f00cfc6369e562103363611e
:10071000236a01332362e36a5a1ce262e05c38bd5b
:1007200058170020f7b5134b134e05461446002208
:100730008de80c0030682a4623460f4600f00cfc7a
:1007400008b1002013e00d4b0090019330680c4974
:100750003a46234600f091fb0028f2d1284608498a
:10076000224601f0b5fcd0f1010038bf002003b0f3
:10077000f0bd00bf20a1070064140020a086010086
:1007800058170020c369013310b5044616d0036b17
:100790008269581c2063d154626b236b93420dd342
:1007a000a069e169fff7beff10b9a36b0133a36332
:1007b000e269636b1344e36100232363636a0133db
:1007c0006362002010bd0000f0b51e46244b9fb0b0
:1007d00007460c4618686946154600f0d1fa20b164
:1007e0006b1c36d14ff480530493049b1d4914971e
:1007f000b3f5805f84bf4ff4805304931a4b139377
:100800001a4b1593236819934ff0ff3300221a9364
:10081000049b179218921b921c931d92144b154a1d
:1008200016950fa801f0f4f9134a1d9b116819449d
:10083000116080b91b9820b10fa8ff21fff7a2ff1c
:10084000f8e7189ab24208d8169b013306d0226006
:1008500004e0082002e0052000e006201fb0f0bd03
:100860006414002085070000241400201c040020cc
:1008700079060000d50600001c1400202de9f04f79
:10088000544b554a554e1360803391b03360544bee
:1008900000220df113001a6000f02afc002840f03d
:1008a00095809df813305a1e012a40f28f80052b47
:1008b00000f08c8009a800f0d9fe002840f0868066
:1008c0000d9b002b40f082800e9c621c7ed1fff7b6
:1008d0009bfe9df81330032b08bf022002d0042b8f
:1008e00002d10320fff7b4fe3e4b3f4f3f4d202186
:1008f00019600b9ba3f1300038603d483022026044
:100900002a603c4a402010603b4a3c48403b136010
:10091000102200f0d3fc002858d12d68d7f800a091
:10092000d6f800900395054609eb451000f054fffa
:10093000baf5805fddf80cb094bf0027012756465a
:100940005eb1b6f5805f34bfb0464ff480582c4896
:100950005946424600f0b2fc58b105a8274910227a
:1009600001f0b6fb002808bf2c4601351c2ddbd159
:1009700011e0b6eb0806c34402d1022f08bf0327db
:100980000197cdf80080002005a910221c4b01f032
:1009900007fa0227d4e7631c10d009eb4419484634
:1009a000fff740fe40b109f11000fff73bfe0028c1
:1009b00008bf4ff0ff3401e04ff0ff34114b1c60d3
:1009c000013408bf04208dd0012000e0002011b0c8
:1009d000bde8f08f003800000c04002070140020e7
:1009e0001c14002068140020741400206c140020d3
:1009f00010040020140400201804002054140020c7
:100a0000581700202014002070b5124e94b00546ef
:100a100001243068039405a900f0b2f9a8b9b5b172
:100a20000a9b0490013d5b421d40049bab424ff08a
:100a300001000dd8084b03900093306804a903aa65
:100a4000002300f0e0fa0028efd0002000e020466c
:100a500014b070bd6414002040420f002de9f04f27
:100a6000734b74481968c3b0102200f027fc0028ab
:100a700040f0db80704b71481968714b6d4a1b6800
:100a800003eb4111103100f092fe6e4bd3f8008061
:100a90006d4b1e68002e44d003a84146102208f179
:100aa000100900f00bfc002837d10f2e37d9049b1a
:100ab00003f11002964232d3069a002a2fd15f4ddd
:100ac00002930fcd18ac0fc40fcd0fc495e80f00e3
:100ad00084e80f005d4c0398206024a900f050f9d1
:100ae000002835d133a8259f00f0c0fd60bb9df8dc
:100af000e430f3b1484602a94ff0ff323b46fff71e
:100b000063fe834670b92368dff840a1013300f02b
:100b100087803846fff778fff0b9082002e0072009
:100b200000e030464a4b1b68002b18bf0120fff73e
:100b30008ffd9df8ca30022bdcd1359b203fff1a78
:100b4000299b5a421740d5e74ff0ff332360d1e786
:100b50004ff0ff372760cde718ad0fcd374c0fc4ee
:100b60000fcd0fc495e80f0084e80f00484602a996
:100b70005a463b46fff728fe0028d3d19df8c930de
:100b8000002b4dd011a800f071fd139bdaf8000086
:100b90000990203b0793bdf85030adf820309df808
:100ba00052308df822309df853308df823309df867
:100bb00014308df828309df815308df829309df8c7
:100bc00016308df82a309df817308df82b3033a968
:100bd000029b0b9300f0d4f810bb349b232b1fd93e
:100be0001c4bdaf8000001228de80c000ca9102241
:100bf000142300f042f998b90cab11aa934204d225
:100c000013f8012bff2af8d00ae009d107a8102118
:100c10001422fff787fd18b90d4b1a6801321a60cc
:100c2000049b10339844f61a34e743b0bde8f08fc4
:100c30001004002078140020201400202414002028
:100c400070140020140400201804002064140020f4
:100c50001c140020a0860100074b014603f180020e
:100c600018469b688b4205d000f110039342f7d1e0
:100c70004ff0ff30704700bf0038000010b501f0a2
:100c8000e3f90446fff7b4fc002c18bf204610bd62
:100c9000e0b51d460f461646fff7deff431c0fd09a
:100ca000436872199a420dd8c368016813f0020fa5
:100cb0000ad1384631442a46bde8e04001f0d0b9b7
:100cc0000520e0bd0420e0bd384631442a46fff748
:100cd00091fce0bd70b51d460c461646fff7bcff03
:100ce000431c0fd0436862199a420dd8c36800684c
:100cf00013f0020f0ad1204431462a46bde8704065
:100d000001f016ba052070bd042070bd20443146a4
:100d10002a46fff771fc70bd73b50e461546fff706
:100d20009bff326803681344421c0446019308d0b9
:100d30004db1c3689b070dd401a8294601f0f0f915
:100d400002e0052000e004202268019b9b1a33602a
:100d500002b070bd01a82946fff750fcf4e708b5c2
:100d6000fff77aff421c05d0c3689b0704d5fff745
:100d700047fc08bd002008bdbde8084001f07ab975
:100d8000f0b58db00c46fff767ff421c054606d054
:100d9000c3689b0705d501a8fff734fc04e00520d4
:100da00026e001a801f068f9ab6823606b68636016
:100db0002b68a360074601ae04f10c030df12c0c67
:100dc000324603ca624518605960164603f10803ab
:100dd000f6d110681860eb68c3f3400284f838203d
:100de00003f001029b0884f8392084f83a30384631
:100df0000db0f0bd30b50023094c04eb0314dab29a
:100e0000a468651c09d00d78954288bf40f823403e
:100e100001330132082bd2b2eed10a7030bd00bfcf
:100e200000380000f0b599b008238df803304ff07a
:100e3000ff33036005460f4601a80df10301fff7dc
:100e4000d9ff00249df80330e6b2b34212d918aba3
:100e500003eb860609a956f85c0cfff791ff38b939
:100e60009df85e30bb4203d156f85c3c2b6002e03b
:100e70000134e7e7012019b0f0bd2de9f04f91b042
:100e8000894601a9804692469b46fff779ffe8b95b
:100e90009df868600e9f1b9c0136bc4238bf3c46e3
:100ea000f6b24046494652465b46fff7f1fe05461c
:100eb00038b94046fff753ffe41b10b1002cf8d1be
:100ec0000625013e16f0ff06ebd1284611b0bde81d
:100ed000f08f000030b589b005460c46fff7bcfe28
:100ee000431c33d0c368d90701d401202fe0194b2c
:100ef00001228de80c00284603a910221423fff7d5
:100f0000bcff20bb039b002befd013f00f00ecd1f4
:100f1000059a0132e9d09df81850ff2de5d09df8d3
:100f20001910ff29e1d09df81a20ff2addd02033c7
:100f30002360bdf81030a3809df81230a3719df896
:100f40001b30e57121726272a37200e0052009b0c6
:100f500030bd00bfa08601002de9f04f95b00c46d2
:100f60001d4605a99df87830019092460393fff73e
:100f700007ff0746002842d1ddf848901f9b4b45ec
:100f800038bf4b460293002d39d0099bddf80c8009
:100f9000029ec3f1000c04ea0c0c9c442b1963451f
:100fa0008cbfc4eb0c0bab465b4601982146524606
:100fb000fff790fe034660b901980093fff7cffe5c
:100fc0004e45009b14d3c9eb060610b1002ef3d199
:100fd000062308f1ff32b8f1000f01d09046e3e795
:100fe00023b95c44da44cbeb0505cce71f4606e0a9
:100ff00000284ff000060cbf33460623e9e73846c9
:1010000015b0bde8f08f2de9f04790b0894601a9f1
:10101000804692461e46fff7b3fed0b90e9f189c3d
:101020000136bc4238bf3c46f6b2404649465246bd
:10103000fff772fe054638b94046fff790fee41b05
:1010400010b1002cf8d10625013e16f0ff06ecd1b8
:10105000284610b0bde8f087044a00231370044a04
:101060001360044a1360044a13707047a001002003
:10107000c001002020010020bc01002030b5174b2a
:1010800091b0186801a9fff77bfe28bb144a059ba5
:101090001360144b144c1b78144a02991bb10020a6
:1010a0002060116018e0039800f110030069002827
:1010b000f5d010f00f00f2d19d680135efd01d7b07
:1010c000ff2decd05d7bff2de9d09d7bff2de6d081
:1010d0001b692360cb1a136011b030bdc80100201a
:1010e000b8010020b401002094010020d0010020ac
:1010f0002de9f04f3f4e89b033780390002b6ed12d
:10110000052333703c4b1b78002b6ad13b4bdff837
:1011100004a13b4c0194012700971a68daf80000fb
:1011200004a91023fff7a9fe054600285ad1354827
:1011300004a9102200f0ccff08b102234de0dff833
:10114000d890dff8d88000970194daf80000d8f83a
:10115000002049461023fff790fe0546002841d1a4
:10116000d9f80040284ba4f140029a4201d8210747
:1011700001d0032331e0d8f800304ff6ff78c4ebfc
:10118000030b1f4bdaf8000020490022702c34bffb
:10119000274670278de80c005a463b46fff76dfe48
:1011a00088b9bb44e41b0346184a4046d15c02930d
:1011b00000f036fb029b0133bb428046f4d3002c87
:1011c000dfd1034601e04ff6ff73114ab9f80480fe
:1011d0001360434514bf04230623337002e0002547
:1011e00000e007253378039a2846137009b0bde85c
:1011f000f08f00bfb5010020a0010020c401002035
:10120000a086010041210000c0ff0f002401002042
:1012100098010020c8010020a40100209c010020aa
:1012200038b51d4c1d4d20460421fff7fbfd30b99c
:101230002368013303d01a4b01221a700ae0164cbe
:1012400002212046fff7eefd40b92368013305d0a7
:10125000134b1870fff712ff044618b105232b70cb
:10126000012416e00f4b104a1b6812680f491a44fc
:10127000a2f1100008600e49203a0a600d49d31a05
:101280000b60fff7e9fe0c4b04481c602c70fff765
:101290002fff204638bd00bfc8010020b501002047
:1012a000b401002094010020d0010020c4010020de
:1012b0009c010020cc010020980100202de9f3477b
:1012c000324b0c461b783249154606460a68894659
:1012d000002b52d12f49097806294ed12032944251
:1012e0004dd2121baa424ad3002848d01f2c31d815
:1012f0000093dff8b480284b284fdff8a8a0cdf882
:1013000004a01a68d8f8000039461023fff7b5fd8d
:10131000002837d18de80104214bd8f800001a6865
:1013200007f110011023fff7a8fd58bb4ff0004351
:10133000c4f12008a84528bfa846bb614ff0ff3381
:1013400030463919fb61424600f0d1fe4444c8ebf7
:1013500005054644adb1124b1a68d9f80030203a61
:10136000d21a104b00218de80a000f4b3146186845
:1013700022442b46fff781fd04e0072002e0042011
:1013800000e0284602b0bde8f08700bfa0010020c1
:10139000a4010020b5010020c40100202401002088
:1013a0009c010020a0860100c8010020f0b51a4d64
:1013b00095b0044605a92868fff7e2fc174b1a7898
:1013c000012a1e4624d0164b0a9a1f68154b1b682b
:1013d000524213400f3703931740039bbb420ed872
:1013e0000123049304b1a0470f4b0093286803a97d
:1013f00004aa0023fff707fe0028eed009e00b4bfc
:1014000000241c6001233370fff726fe204600e015
:10141000002015b0f0bd00bfc8010020b5010020bc
:10142000c40100209401002040420f0098010020d8
:101430006f2838b504460d4601d8012038bd030792
:10144000fbd1094b1b689842f7d81046fff7aeff57
:101450000028f2d1054b01221a70054b1860054b8c
:101460001c60054b1d7038bdd0010020a00100207c
:10147000c001002020010020bc0100202de9f04f18
:1014800015466d4a1c46137885b0064688461bb93a
:10149000fff7e2fd03230ee0684f3a689042ba4638
:1014a00003d0fff7d9fd0426c1e015f0030c05d0e9
:1014b000fff7d2fd052323700426b9e0702df7d87d
:1014c0005f4ad2f800b05845ebd8c0eb0b02aa42f5
:1014d000eed319b9fff7c0fd0723ece7012b6bd161
:1014e000584b0293c0f12009a94528bfa9461818f6
:1014f0004e444a46cdf80cc000f0f9fd1f2e3e6068
:10150000029bddf80cc003d884f800c066468fe06b
:1015100018464d490293102200f0dafd029b18b1e3
:10152000fff79afd06237ce01b69484a454fa3f16b
:1015300040019142f4d81907f2d1ba6932f0004261
:10154000eed1f9690131ebd120339b45e8d14ff061
:101550000043bb613e4bdff80cc11b78bb753d4bb4
:10156000dff804b11a703c4b0092cdf804c0196842
:10157000dbf80000cdf80cc03a461023fff7ecfc76
:10158000ddf80cc0002833d18de80110334bdbf8b7
:101590000000196810373a461023fff7ddfc38bb0e
:1015a00097e80f00dff8b8c08ce80f00224a02234a
:1015b0001370c9eb0505c84415b925702e4637e0f0
:1015c00041462a461f4800f092fd244b1968244bdf
:1015d0001b682039c91a234b00228de80c00224bce
:1015e000184a186831442b46fff7b6fc064608b186
:1015f000082316e0daf80030114a164f1d4413682c
:1016000038709d42caf8005011d1fff725fd3846c9
:101610003e70fff76dfd064610b93b78062b03d0f0
:1016200002232370012603e00123237000e02670cb
:10163000304605b0bde8f08fa0010020c0010020b9
:10164000200100202401002041210000c0ff0f00e4
:10165000bc010020b5010020c40100209c01002035
:10166000a401002020a10700c801002030b5164dbc
:10167000044691b0fff702fd2b682360134b1a68f4
:101680002032a2609a88a2819a79a2739a68226114
:10169000da68db79e3730e4b62611b7823760d4bbe
:1016a00001a91868fff76cfb10b14ff0ff3307e09a
:1016b0000a9b0d9a29681a44069bb1fbf3f3534326
:1016c000636011b030bd00bfd0010020a401002034
:1016d000b4010020c801002070b5134b88b00df193
:1016e0000f001d68fff704fd0446c8b99df80f30d0
:1016f000062b15d10d4b9a689ab10fcb08ae06e9af
:101700000f0032460a4b42f8084d0193094b0094f2
:10171000186805f108010423fff71efc044600e0e9
:101720000724204608b070bd9c010020a4010020c1
:1017300020a10700c801002070b50f4b1c680f4b9b
:10174000da680132054686b018bf072011d10fcbe9
:1017500006ae06e90f000a4b3246002142f8045d4e
:101760008de80a00074b04f10c0118680423fff709
:10177000f3fb06b070bd00bf9c010020a401002057
:1017800020a10700c801002010b50f230022cc5c67
:1017900042ea4402c254ca5c13f1ff334fead21248
:1017a000f5d21ab1c37b83f08703c37310bd30b584
:1017b000034601f1100451f8045b43f8045ba142b5
:1017c000f9d1103002f1100352f8041b40f8041b49
:1017d0009a42f9d130bd000030b50d4c0d4d85b0a9
:1017e00001462a462046fff7e2ff29460a4d6a468f
:1017f0001023204600f094fb284604f12001fff757
:10180000c3ff06482946fff7bfff05b030bd00bf44
:10181000f40100209c210000d4010020e4010020fc
:1018200040ba83b25940c1f303134b4083ea0333f8
:101830009bb2d8b283ea40107047f0b5036889b014
:10184000002500245c530235202dfad1944208da99
:1018500031f9145033f81560013623f8156001345e
:10186000f4e7b3f9004094422ed0002501245e191c
:10187000b6f90260d6eb440428d402351e2df6d109
:101880000025adf8025000ae2e445f190235b7f8be
:1018900002c077881c2d6744b780f4d1002393429f
:1018a00014da31f813606eb108ad36b205eb4606b6
:1018b000476836f8205c05f1010c2db226f820cce3
:1018c00027f815300133eae7002000e0204609b090
:1018d000f0bd70b5056904460e466369b34210da7f
:1018e000a36820689847002804da04f11800012151
:1018f00000f00cfc6369c2b29a400833154363617f
:10190000ebe7012025fa06f29b1b00fa06f6701e93
:1019100022616361284070bd2de9f84f04460a68d2
:101920000069636900268a4602f102083746b1461b
:10193000012523b300f00102b8f900c042ea090210
:1019400008f10201cceb0208b8454fea50000dda6d
:10195000636920615b1b03f00703d71b63613e448f
:10196000daf8043033f91600bde8f88f6744013b1c
:1019700066447f004fea420901358846d9e7d5f130
:10198000100b10d0a26820689047002804da04f1f8
:101990001800012100f0bafbc0b2bbf1080fb4bfc0
:1019a0005b460823c5e76ff00900bde8f88f00002b
:1019b0002de9f84304460f46904639462046fff786
:1019c000abff011e49dbff290adc6568002df4d05e
:1019d0002068c9b2a8470028efda0120bde8f883e3
:1019e000b1f5807f02d10020bde8f8836ff48073e9
:1019f000cb181c2b34dc204a32f913601f4a2046d6
:101a000032f91310fff765ff414606442046fff701
:101a100083ff051e28db1a4b33f91590194b20461e
:101a200033f91510fff755ff6368814493b9b5f595
:101a3000807fc2d1d7e709f1ff31e368206898477a
:101a4000011e14db94e80900c9b29847002806f18a
:101a5000ff36c2db002eeed1e9e70846bde8f88389
:101a60006ff00900bde8f8832846bde8f8836ff001
:101a70000a00bde8f88300bf842200004a2200006b
:101a8000ac210000e82100002de9f047adf5a86d7c
:101a900004ab009323ab01930cab0293052114ab71
:101aa00005460393fff715ff052100f201172846ad
:101ab000fff70fff042100f101082846fff709ff97
:101ac000b7f58f7f00f1040900f38880b8f11e0f8d
:101ad00000f3848000264e45b2ac0ada4b4b284610
:101ae000032133f916a0fff7f4fe013624f81a009b
:101af000f1e7122e07dc454b33f91630002224f8ab
:101b000013200136f5e7684621461322fff795febc
:101b1000002866d1064607eb08094e4534da284608
:101b20006946fff7f9fe00286cdb0f2803dc721c06
:101b300024f8160026e010280ad1002e54d0731e77
:101b40002846022134f913a0fff7c3fe03300de04d
:101b50001128284604d10321fff7bbfe033003e020
:101b60000721fff7b6fe0b304ff0000a32184a4546
:101b70003ddc04eb46060023834203d026f813a085
:101b80000133f9e71646c6e7b4f9003293b3684665
:101b900021463a46fff751fe002808d02ddb009b76
:101ba000b3f90020b3f9023013449f4225d102a8b3
:101bb00004eb47014246fff740fe002808d01fdb38
:101bc000029bb3f90020b3f902301344984517d1b2
:101bd0002846694602aafff7ebfe13e06ff0020009
:101be00010e06ff003000de06ff004000ae06ff00a
:101bf000050007e06ff0080004e06ff0060001e068
:101c00006ff007000df5a86dbde8f08724220000f5
:101c1000f0b5adf52f7d0190049307a80023029144
:101c200003920593069300f06bfa002840f0a18020
:101c3000012101a8fff74dfe0221044601a8fff78c
:101c400048fe00283cd105900690039b01989847d8
:101c5000061e01da022087e0039b01989847051ec3
:101c6000f8db039b01989847071ef3db039b019861
:101c700098470028eedb80b2ffb2adb2f6b247ea79
:101c8000002746ea0525ff43adb2bfb2bd4214d1dd
:101c9000029b0bb9002067e0002dfbd0039b01984d
:101ca0009847011ed6db029b0198c9b29847013db7
:101cb0000028adb2f0da012056e06ff0010053e0e9
:101cc00001284cd12e4b1b68002b42d02d4b2e4aa5
:101cd0001a602e4a5a602e4b2e4a1a602e4a5a60bb
:101ce00000231eaa082199520233b3f5907ff8d140
:101cf00000231eaa1a4402330921e02ba2f8201166
:101d0000f7d100230233322b05d0aeaa1a440721a3
:101d100022f8421cf6e700230233122b05d0aeaaac
:101d20001a44082122f8121cf6e716481ea94ff49f
:101d30009072fff782fd00231ea905225a5202333a
:101d40003c2bf9d11e221248fff777fd0c4b0022e5
:101d50001a6001a80b490e4afff72afe04e0022888
:101d600009d101a8fff790fe38b9002c3ff460af0d
:101d700003e0022001e04ff0ff300df52f7df0bdb4
:101d8000000400208814002098140020f41400207f
:101d90009014002034170020b81400207047000071
:101da0002de9f84f07464ff480709a4689469046d1
:101db0000a9d9df82cb000f01df9454801230360f1
:101dc000bff34f8f434e444c00233360736023684e
:101dd000736263687362a3687362e3687362bbf1e2
:101de000010f844638d817b92762676203e03b6861
:101df00023627b6863620023a362e3622ce00a46ed
:101e000016f8011b02f8011ccaeb06079f4202f1fb
:101e10000101f4d34db3314b03f1100753f8041b08
:101e2000da684a402b4943f8042cbb42c1f88020b1
:101e3000f4d105238b600b69264a9b07fbd4d2f8ab
:101e400080302362d2f880306362d2f88030a3629f
:101e5000d2f88030e362b24645b3102d34bf2b4632
:101e60001023ed1a1e495646c9e7bbf1000f02d0f8
:101e7000bbf1030fcfd1d3f110010ad0802313702f
:101e8000002301338b4202d00027d754f9e71549cc
:101e900000e015490023e718ca583869043380ea7e
:101ea000020e102bc7f810e0f5d1b4e7ccf80050c3
:101eb0004ff4807000f0b2f8454506d0631993f8ee
:101ec000203009f805300135f6e7bde8f88f00bf8e
:101ed0000016c84300000f40f40100200402002057
:101ee00005020020e4010020d401002007b50948c4
:101ef000fff772fc084b09499b6c1b0c00209b02ee
:101f00000093019004224ff00053fff749ff03b004
:101f10005df804fb9c210000b081e00f0804002064
:101f20002de9f04104464ff4807017461d460e46d9
:101f300000f060f82d4a01231360bff34f8f2c4b44
:101f4000002119602168596261685962a16859626b
:101f5000e16859629446002d3fd0254b2269c3f8b1
:101f60008020d4f81480c3f88080a169c3f8801061
:101f7000e269c3f880200520986020690130206163
:101f800040b908f10103636123b94b1ca3610bb98c
:101f90000132e261164b186910f00200fad1d3f851
:101fa00080202262d3f880206262d3f88020a2626f
:101fb000d3f88030e362102d34bf2b46102304f198
:101fc0002008ed1a18f80010325c4a403a540130eb
:101fd0009842f7d106440744bde7ccf800504ff4cf
:101fe0008070bde8f04100f019b800bf0016c8438a
:101ff00000000f4072b6074b1a6801321a60064a99
:102000001168084310601a68013a1a601b6803b926
:1020100062b67047541700202402002072b6084ba5
:102020001a6801321a60074a116821ea000010603c
:102030001a68013a1a601b6803b962b6704700bf9c
:102040005417002024020020044b41f671321a6418
:102050009a6822f001029a600020704700000e404a
:1020600010b5eff3108472b600f041f804b962b60f
:10207000002010bd00207047134a70b50346054686
:1020800002f12806144603ccb44218605960224677
:1020900003f10803f6d1206818600c4b9a6c596b59
:1020a0005b6b92b2090e1b0e92020a310a332a6050
:1020b00003f01f03012201f01f0102fa01f19a400f
:1020c0006960aa60002070bdc0220000b081e00fee
:1020d00030b50023934208d0c55c0133cc1814f806
:1020e000014ca542f6d0281b30bd002030bd10b5f4
:1020f0000023934203d0cc5cc4540133f9e710bdf4
:10210000ec46a0e8f05f4ff000007047b0e8f05fe9
:10211000e546080008bf0120704700bf000000002e
:1021200001b40248844601bc604700bf9100002012
:1021300001b40248844601bc604700bf0100002092
:1021400000534352319a933082d9eb0afc3121e398
:1021500037000000f1100000bd120000ad130000b8
:10216000311400007d1400006d160000d916000027
:10217000910c0000d50c0000190d00005f0d00004f
:10218000810d0000f50d0000250e0000d50e0000a9
:102190000600000070210000542100000000000033
:1021a000000000000000000000000000010002002c
:1021b000030004000500070009000d0011001900cc
:1021c00021003100410061008100c1000101810155
:1021d00001020103010401060108010c01100118ac
:1021e00001200130014001600000000000000000fb
:1021f00001000100020002000300030004000400cb
:10220000050005000600060007000700080008009a
:10221000090009000a000a000b000b000c000c006a
:102220000d000d0010001100120000000800070052
:10223000090006000a0005000b0004000c00030062
:102240000d0002000e0001000f0000000000000061
:10225000000000000000000000000100010001007b
:10226000010002000200020002000300030003005c
:10227000030004000400040004000500050005003c
:102280000500000003000400050006000700080028
:1022900009000a000b000d000f00110013001700c9
:1022a0001b001f0023002b0033003b0043005300a2
:1022b000630073008300a300c300e3000201000079
:1022c00000001000000800000008000004000000ea
:1022d00000000000000000000000000052000000ac
:1022e00002a00000ba880000020000000000000008
:1022f00040ea020313f00303f7b5064638d192080b
:10230000eff3108772b61d48846844f001048460be
:1023100093421a4c25d206eb8300c0f30a0c012528
:10232000ccf5006c20614fea9c0ce560d41aa44502
:1023300028bfa44663440024644501eb84000ed00a
:10234000006801900d4de8690007fbd50198a86170
:102350000820e860e869c007fcd40134ece70146d6
:10236000d6e7a36823f00103a3601fb962b601e0ba
:10237000042000e0002003b0f0bd00bf00000e40cc
:1023800070b58cb0044601a80d4600f039f80399e9
:1023900022684b1e13402ed1286800fb01260198ad
:1023a000864228d899421dd00433981850f8040c5e
:1023b0000130f7d0eff3108172b6104b9a6842f0fb
:1023c00001029a6022681a610122da600222da6050
:1023d000d8690a4ac007fbd4936823f001039360cd
:1023e00001b962b62268039b134423602b68013b4a
:1023f0002b60002000e004200cb070bd00000e40f7
:1024000001b40248844601bc604700bf7920000047
:0c241000010000000000000000000000bf
:020000040000fa
:103800000000040000f00300084c7483090000006d
:10381000000000000040000008010010000000004f
:103820000040000000c00300080100000500000087
:1038300000f0070000100000080000200c0000004d
:020000040000fa
:1038800021bbd37575030c0a64664b2496d661324e
:10389000634d84afe8e5b025a27b0fb1834c4da703
:1038a000396503c6b24ac4333c646d941c76033553
:1038b0009587f5f9e82bb22b3e3749e850e321f51f
:020000040006f4
:101830009934d6f1ee54657de52a65cc53bf4e4c04
:10184000f6fbb6a903ed01f9dc18c51a52881dc8cc
:101850000801000080c3010004003e0000000000f9
:101860005dd2a6a2ec7b77ab4888040a93d9f49aa0
:10187000fd00939878115f4a06a009863095beb0a6
:10188000bcb321cc54f8e00189c5f2e8ba79acba0e
:101890007c15f0db7fe32c6007d848bf67eac57a88
:1018a00088b3bb4c5030e4d2515fcc6eaf075ee9d9
:1018b00091a05523e3e118a4ac6c8cb56dc667dc30
:1018c000ac83fd4b8caf24df8308a556bff33ef4f9
:1018d000e4c3917e33069b0e3b4dd4e8e57eec8756
:1018e000fda05e53aaba1f5b5c38489e76d0d72f06
:1018f00020af93597fbf1c4150224175f83c15869b
:10190000acf5ff38166c0b7a5ef2a93e9f4e692d3e
:10191000ae58bdfcd5a1e2fb323ff86b059de774e4
:10192000be18bfa84672e9598be51d99445b4a4a27
:1019300067f7d01d413faad6ae542a8055ab1cb0e4
:101940003e69eab57eb023be54d64afe3b7541e8f7
:101950006b2992e3d6148dcd54c28e97cb8d8a3be2
:10196000eaba0bdf50477c64811d38a3931738ea2d
:10197000711f8bec021aa6e99a40f87ed1f18cc156
:10198000d3bf54f9e2ccedd81115d6713d672c0abe
:101990005b3bbd3210ad615effc11f58d1b4f94c45
:1019a000cb481cb4d70115057d7dc6989c5ca63d2f
:1019b00017f11565821486fe1a6ec101f820a6a5de
:1019c00025617e67114aa5df3abd4edcba537745e3
:1019d00085faaad5b5c75987c398f43f7a31d32081
:1019e000c321ba76bc857e90c59f392e9cc2cd5b43
:1019f000168c4325fef996a3ae48f24ce9a934199a
:101a0000ce3feb4807ba26ab29c936a8404784b178
:101a1000720e5ea3f86ca6ab73d3f9ab78aaeb5148
:101a2000b3a2579e452ab177a29f236b1fb46d09bd
:101a30004e8e4b509b24a0cbc4a410f003da5ebda5
:101a4000ba42374510ab5b6b794c44a3f58d521a03
:101a500059081d968805db69fe5f340f1d1db6f51c
:101a6000c254e73221f7d1e54d6b0dc9538ba1cba1
:101a7000d730954abe28a106bcd73d3aaa779c2408
:101a8000dffda9695a1ac1441b001dc6402d59de4d
:101a9000eeb5971440b10405760fc22487609032ea
:101aa00006da9cbf192757aec87f5567ca41cd26b5
:101ab000f5c30a5daeb533eeb8478ec8e150bc3809
:101ac00079945b24d8fd0935eb9e711da8f6b1f120
:101ad00073d83e55e9b9f7cfc96c37eaaeaee5ac7d
:101ae000781810f934611363e797115929d6464bda
:101af0008977338b00c4ac83817cb92c935608a0c2
:101b00003233fd3dfd3407d6ece7c4a57dd9348cd6
:101b10009ac7d1b469d8fb0e8aecd8c4253d6e862d
:101b2000fd8097f07adcdeb6a46d35581f49419de3
:101b30009a680ddd1684b13cbc236ee786578a9007
:101b4000e3fd3b450447a771a9a8904897d5e9fc58
:101b50009af058c6ee8c92be4657d932f0967b3a30
:101b600077b15105717293f6eeb6802d99ed80bd77
:101b7000a770a7ca6ad83cfd7a7e3127d6ad29dd89
:101b800019d70a545557119f2927ecfee0fe421e33
:101b900090b057042cea4ed3ee9180b75856bd5df5
:101ba0001d57fa603a58cb472a671ed962afb72a49
:101bb000bcd163296c4a03b08271e1f291411721d3
:101bc000659fa63805da2929fb974ab12d98040ba1
:101bd000373a8d12ab8e1badc6b5ec1df3f57dd13a
:101be00016c496245ed13c056f42e11d62b41f37d6
:101bf0007fb1affec8c475c46f96300ec36dfd31a2
:101c000097141cbe81628c7944d4319c7405c985bb
:101c100050674149c87d48c6c0fe4a781d246d4eb4
:101c20002252afacb926f0658b18d1dd742e3b1271
:101c300035c251d20cfb84730677773076e13929af
:101c400098fca1bd52eb552b94c10b9c9ad0a4d308
:101c50004cc5368456fca8a4dfc7f1a35e12a53399
:101c600051d380631c34bdf3a4eb633ca4c4b21213
:101c7000c897265203184d94477a34e88f77d37c5f
:101c8000f7957f083343e12e37cf5c865653fc0926
:101c9000eaf2df4a1cb9a4271b2550f8533d3b1537
:101ca000d07fdd728e2420de96e1871d519d63d7a3
:101cb000a86fc1c73387c91e460988419445c3ef41
:101cc000c9275d0ad2137be7706c650ddf9d9f40cd
:101cd000280202b3b9a93a5589b4d72d9d56dc7fa5
:101ce0009fe8b0b12d2eb66ef84f04f00fb5a7a83f
:101cf00037575aa2267161d19e300af037996a315e
:101d00004820fc258ff2ba7aace6ae518da3042ea2
:101d100060d182042376e5ef70f179ada7b049b0c8
:101d20003b223189817df5399e300bb8cb88cdcdf2
:101d3000140b6fa76e49eb61645198b2101329b66a
:101d40001e223214c8d2f5b6ed400e816664e80258
:101d500093cd5ad3875d8c128484d50dae873c75a4
:101d6000eaedf4f4e7c0ff629f492b337726139026
:101d700003f4f991521a2326e56f0fe2f826af41da
:101d80006d004b0cd3259a15d1ec13d15682e9b8ce
:101d9000b0316e925ec1470746b305cdd09268065a
:101da000330c611e103968a849c195259526ed4c64
:101db00000b90517d3505c1248e67ae511eafd2b0d
:101dc0002d417e398c57a5b6f9bbf73bb5a0adf2d6
:101dd00095afa071cfba35f691034cc4cdf6bee4f1
:101de00061b4bc6fab76426787f953aa6e31613a32
:101df000a94f0c2aa99ac72d37995db726db59dd63
:101e0000e06613b7dc010a986cc13cd3e475f1c8f5
:101e1000cc8acb12ea52f8ed45fef848c4699266c6
:101e2000cdd77cbe2f947f7f3f80aa1ad92c28e083
:101e30007a6099819051445d40b8bd8a5d58be3842
:101e40001eae4bf23be967aa2b7bc258b74f9951a4
:101e5000b4de4fcfd9577ab55d79a53724cabf8a8a
:101e6000f4bfcb7840589f0aaf8ffcbc25b680af3b
:101e70007bef16ebeb5c1d0ac6be2677720d3801b0
:101e800077c65597b903ba293d82d27404ea378bd5
:101e90001c9e1d29db0346a1222fa6b717d3387c31
:101ea0005291f6f60f3b9796c31acd0d292702ae35
:101eb0005cc5ec268ed51558f519f3a6e07a6cb101
:101ec0001e303ce883d7353e0d2978dda50d89bc51
:101ed000eb74e74ff9b240ab56b552e716f3291150
:101ee0003732e45875772266355662a3ee2ec85f06
:101ef000032d7fe402cb1a22e85d1bf5636bd94208
:101f0000050a0a62703be1cd5bcffce69adcf7fd87
:101f1000e2d317da10155c0d70705f679c81991d14
:101f20009d20b6a04a1da169cfc5c481814cd1397d
:101f3000991c4a34d916faa19ffd2f997a8c160e56
:101f40008d33ba50593ce7502d3a66b1f4f9492126
:101f500080d77efc039ceb0299a62ecc01b2a9850a
:101f60008f1a54ee4532779d9d15f92cb9f6efb9cd
:101f7000a578ead8962904f4f3a55707fdc6947707
:101f8000820fd440d4bdcfcfd66c244ec05f86a084
:101f9000c1d94bc903db11b6746bafafcfea043aba
:101fa000cc371ba436f1f5096764f7a554292c6ecc
:101fb000385341c27a8d85809545e92b69b171d539
:101fc000992ab75bb29ece079b0121572fc7c8e263
:101fd0004ce45cb7181fc1e93c9fb18ce24d78de40
:101fe000cdf1446e0778f273d5009596e5fcc356a3
:101ff00028e228b3b7b1140bd2d203d8eaf22a9c54
:102000009cf2c9fcb61ed4d212afce0610d82d1247
:10201000b288fbe78ca5df3fbcd5feb9e5fa6e5e62
:10202000bc87103acb0c9fe77a880fc8ffc67a505e
:102030006a22d237a20de42c790a5c25b6f63171fa
:10204000fbe90858936cf1861c903a833dc61bdb74
:1020500070620d7cbc4b3f74337d104dac631597a3
:102060004551a1fd513894ec1b194bdba23fff7683
:10207000fa1b7af9774fd24cd04baef41d3a5e2e54
:10208000e648c30eaa174e19bd78faf4778be2a77b
:1020900098ce6e44359bae3f35eff0422cddabc0a1
:1020a00092b91a264b7b98cd479eb6800b695d9cf2
:1020b00012971282339db2c4d6fd1fde4b36c0127a
:1020c00058cdd313d53b0267d97c7226c6d931913e
:1020d00077be6403e1f1d26707fd1b1e1e6e95d02b
:1020e00043ecbaae621c08e09558342fad2c371a79
:1020f00096b661188fd2bd33888e53cce016095442
:1021000031b5ca4abf18c207e9f77bb930d075dece
:10211000ba0ad33383f3ef593117caa16f7300366c
:10212000e5bc0b893f4a4a69b814237546f12d1a5c
:10213000658ab59161d5d41bd72f58de68050ea8e6
:10214000fc4b548407a1a7423577566e1a6633bc00
:10215000d07c0b0c36293b1843db28800edd97e53d
:1021600091ffa9ea5820613dc95ed3fd88ded56f95
:10217000640b1c8bd9a24b6c49612621fe65c82fcc
:10218000ed5a0da289c5edfcfa1c99981a9e3d984e
:10219000f1fed77ea6ed104d9f1fae589a2e60af70
:1021a000a7aed933623df47460f5917cd4f31ea1df
:1021b000490e1084a506ff443656b60b47ea82ac9a
:1021c0007739dc6bcf32031fc2ab178272cf2bf98a
:1021d000b651b3c73108410b2817ad2fc5d9a42c70
:1021e000c1c069a1a3d7d9fd232eb660ddd089a8cf
:1021f0003735c6fc72ccef22e6d33c05058342a1fd
:10220000e29bbfa624541e7b1383fba21ac344f98e
:10221000601517a733b19ce954517bcea2e84c85d9
:102220004d9a477b710e39a17fca1db5b7e0b45fe7
:102230004b5fce1fe2b872b075b1667e188dcdcb04
:10224000b38a682b30be230ff5e75788dc1f680b75
:10225000a33ea9900d8e15e98a4e209da780c84205
:10226000364dabbf3d0994d78d5efb359a2a175981
:102270001da8163b0d5626ddfa3871fabea2d20b08
:10228000391450c3e0408fa99988620a0478893dc7
:10229000baf86e7328c3a2d9cea8b9043a94437d84
:1022a000091189e8c8209ec558bc8740da068eb956
:1022b0001829c584e03ad8cf2a605b4977e34d9a64
:1022c00035d2a8b3fcdd26f9e852abe513e41805d6
:1022d0005c712f4302bf7bc4d72d9a3a23b9beea63
:1022e000a1c56e5e67af80a3cc657251bceaa895ac
:1022f00096c36fb0302332d76217b47805dfd83b6e
:102300009ecea8de729ae484808950ef972fc3c0d6
:10231000748b87d381fa76ffcd0110b8f1f03fe9d5
:10232000beebd041b960d1dc2d6f997b19640fde13
:102330001aa9aa998a668e919c9759e5a8afe29a44
:10234000af478d42a0eadeece6572d12972fdc6ee8
:102350006070ad1c18298e42639b7d4229c3347185
:102360004a692727a605fba07e38e3be97c9e86423
:102370008b689c94dfe6c0ef7d7fa7de3cec777432
:102380004e8b685f81068495a4d0c2b65eff2c4a4e
:10239000245334df2ca63dbd7763dffb492e06f2c4
:1023a0003467771b4fc016f69919038135d580d352
:1023b0008cda5ca5a3599ecfb7cd9a71316e419945
:1023c0006fc6069a7abb009ed786dd8d4cf4aa397b
:1023d00064f1daf769c11a29f5943163f058ee0116
:1023e00005a96744a2506bfa76d6cef2971db108c4
:1023f00040f75746e057816f712885e2b918e15dd3
:102400001d4645bb2373fed5b44f56d523af186385
:10241000b64ef0e027b49bcd1b6f134da4ac71d129
:10242000ba3538ad13ba090782a87c3344b3d19ac0
:10243000f431039210d8bb0082c67699388b0e22f5
:10244000a7d376eaf33a251391bfe159f20f0cb402
:10245000c9c2e3e27589ddb4da24e925e2dd78ee6c
:102460007f6b33f0ba41d8b4f929d26671a8979d31
:1024700006fd6260f9541288dafcefef9128a2237e
:1024800097fcc84bcf95a506181af7f08b73dbb4f1
:1024900087600518273cb583ed55339c312018170c
:1024a0002b624b79d8dd641b0d6c33ad79714371b0
:1024b0001e40071a220bc9b63b2bc04068ac5d0d0d
:1024c000d1fe5a8a8a5eb571d1dff8954c496acb44
:1024d0001413d52df16501031c92379024b491712a
:1024e000c60f9698c3b7823203239bd0ababdb4bae
:1024f000cd841d4957b72e19e7a730d4ba336046ab
:102500009de5831d9081a6b3df878d9ca0df6b0db9
:10251000809710e70e106c500702761f81d73b0f93
:102520001a08f3a218fd0e7c5a6cda65174e146a6d
:10253000a6ea2cb563f146d08213105e11dd831f2d
:10254000c4cc493484c0e1da16e873279067048468
:10255000607182b322ead43ce9105e353dbc142d93
:102560004de0af6e7bb68e194b8d4978296bc90e45
:10257000fec328fdd0f81b672a3d97ef26038d5830
:1025800050b07da3cdf8c26c91bde4f020ee880b75
:10259000f943a310b43046a88ffa7a82371922cdb6
:1025a000f83f7181d7b48dba73fa078702f2b10a86
:1025b000669db4350e1d007f505078310f3a24b41b
:1025c00017e279afd136c6dcdb3fe4862dc99162d4
:1025d000d321d73af9ffbb8621626698505e4b2c17
:1025e000bb02651820d28836f00438716c9e07f063
:1025f00038e1b8c7fbd593394c20a67ecedf44071f
:1026000018593866c4af627405dd32e322b6034b55
:102610006b829089e110fcc2dc5141447d387ab272
:102620005431c35014ca71a5bd94558d60ad55aedb
:10263000ac5ff17c3cc1775ec59c690bc9f40a06ae
:10264000a7fd1b393393168d5af47239af96bce04f
:102650009bbc9ca8d7d11ad1a7cb48b50d477ade31
:102660004fc26a2950dee69247a02a6e30b4b58088
:102670008361fc53c3496a98e046bd729afa958c0f
:102680009341aa27f11f570000a10da55d91602875
:10269000910fba2b6f311249cf78d8548b1cd14788
:1026a00099711d55879b35d19313925129c92507df
:1026b00003d3dd5dcb086fc7bec2e0c7aa79d4f3f0
:1026c000884db51bd2a7ac4514c2d335c5969a68c0
:1026d000d95e7325020be963b3819d53531d4836c0
:1026e000160b0af23940a7f5bd3a8f819c267f9cd4
:1026f000cac0a9f7321ebf1b6afeb040a5c48843fa
:102700001c4ea7c3b72bc7e6f9a24d9d7ad7eee4be
:1027100034c5ebe64d2547eea006bdb311e1dcd292
:1027200052675da4649ee698b563d05c83ff3990e0
:10273000edaeec47ef46122b5cf7247bc3418aa732
:102740004b3f9d5ec4a10cf5f087f5d5b55157f60a
:10275000f6905c9bf8b2d8dc15d87a8dddffe1ea03
:10276000083b4a68bb2bd79795d3bb4ce22a0edfb8
:102770004250dfc7f3f9ac70222ba858fd7ef1adb3
:10278000273f04fda7d597cfc39b84f9e8aed5a812
:10279000727308fdd0e5a265a4848bcffd7d5560e2
:1027a000ff2aee99c4c353bfd2b260fa24f3cc5bc4
:1027b000f4575113e3a4bd8130ab270d949579668e
:1027c0000aa87a97f20809c215ab6bdbe5995a168d
:1027d000c0dc76b4bbf815f34dd75fcbe5ad647cb8
:1027e000ecd5dac52c813b0d8de89e516c31b6805d
:1027f00040358ed2a2b8da5ca4d9a3fc977eac4255
:10280000a7788f2720b5b52001c4d2f3c98634d864
:102810009ae3a15ca1351da4cc5c97be6fa211a167
:10282000b34d316a0069fa36bb9b8a18a8f78cd57c
:10283000899e4e7a5ba014a5d24b86dedd6f63f0d5
:10284000191875bba8c883c7b88a4b7d400f148080
:102850006268373465cf336a547318a4abdf39bb71
:1028600021cb93d86bb0faf533794eb5f9a061baa4
:10287000de9da8f27fcc638964422082ad971cbaaa
:10288000d1b0deede3632ebfa7174c996325be1bc5
:102890000fe5717480ca4e480507433a37feed12c2
:1028a00030b88b92b25ee4411571c26042ef189964
:1028b0009a5304ace634968b181352284d10569751
:1028c00047a02e9e196e2b7f624c2b201eabab2196
:1028d0008472ef124010e5c7bdceee53c2de69bb75
:1028e000eff80758d792d210f59a69e2d3ca97ca7f
:1028f00041f964a09c0bf1bc609ae8d8e1b5cc9397
:1029000043259be58220fe40d9807ffff243eaec1d
:10291000297a72f5742b076b4e83c01b1a510dfe7a
:102920001e9e853c8b958a96a792d3a2169630ef71
:10293000a6482686a4520b780363a33e3939ede5f9
:102940006a29a228c2c33ac7f7a14b1de05f9201d2
:1029500042fd19260b1c05df988f5695c466bfc132
:10296000c07be0530c7a41d55802122c0aae721784
:10297000b55c652f08429bd4e116ab0c74fa2215a6
:10298000ca0c02ab756445212d9fc3fdbdb8929161
:10299000d395ed3fb093ac38ae7b0cdc9b561e86d6
:1029a00090c634ae865814c6c7c5e54d0cb1470570
:1029b000f407ec2ec8d97cc43c9837345014507db1
:1029c0005de7ebfef598b15be9a4695bd3a34ce945
:1029d000364cf2fbea0feb0277d52e490add62b5e1
:1029e00072c8f9e4ab0d8517ea38d229a7c4ada89f
:1029f000ae98f5a1e54ec31e51daaaf81a7db0d7fc
:102a0000bc6e3e72cefd55693ffdb4489d0674a56f
:102a10004f24f31f80dc62d8513bfa3f8af70653fc
:102a20001c32277c5d652ba5a07af0f8d14acce456
:102a30005b043b4afed13334701fc2b62cf62bff29
:102a40002556c30091da72148c236c9f06b7178841
:102a5000c1c99a2a1bf877b5b931d70df13b05b139
:102a6000c1314580115d68d290bda3c8561b890451
:102a7000310c637a3627be10fa1c492303fc70b868
:102a8000a0a5577894fefd35f3e157d3949c551ad1
:102a90009423cd4f2a3977d9d566e7964d0cc26a73
:102aa00015ea0899f8a07be1c7b0edf7d7d810f286
:102ab000a51d4977b3b4ab1b1acd076231302e3256
:102ac0005b6f3f8ea47318736638dae83243d275b1
:102ad000432138d15e1fe3422e1ec6ff7b8c58e592
:102ae0005610da8a5adfa13335ea986ee2e52ec62f
:102af00096f5cee6255bcd1fccd869322cc37abdc6
:102b0000aa6bbf5747f92d4ee6f2045b9ffb1542b7
:102b1000dc17c11f5035cb2dba664832cfa54f3bcd
:102b2000babcf486f09945d22a1aea5fe67d426281
:102b3000d227d1c438c43ea64ad0e32c8c0de87d00
:102b4000d173dd1fde49e8ca73b5b7e491b6468e8e
:102b5000daa649682ae858d3a2fb696672c86e856e
:102b600003c6b7101b2451c3b491940d03e09a0817
:102b7000fde4293cd4d6f9eeedee88a24ce172f3e7
:102b80009ab9dd67f69833a3ca0004b1f94d1c72f7
:102b900049781c69a62ca723977a810b91e34dc82d
:102ba000df9a2bb54d6ed26f0e68ce146fcd1f9b82
:102bb0002bb6df3b69a9966a03e7c30d9d44505cc1
:102bc000193ba4a30ba3ee6b739e755d296770f789
:102bd000aabff44a122730f5b59081dd06e38214ce
:102be0001159e81b8208d917926f7233e8a736c6cd
:102bf000ac5b980507296664b854e14777576f2d99
:102c00001266b3e2c804195beb9c9695dfe4684c4e
:102c100045c09f8c1f7eda40e6c2341c24792b729b
:102c200022ef307b2b968dd9cce0b3d7bc4695ee06
:102c3000efcfd95654647a2b3425b128e8b4a00bd1
:102c400065f338ae318e64962cea4fa591da8ae7a7
:102c5000637f0f15b6974fbf65c01f4665831499f4
:102c6000b584b83c9fb80e0f49642f4b18c3822817
:102c7000c5dc45882f624df42af2a730bdb185be70
:102c8000e85d45ba11958187d660a393bc644a0577
:102c90002aa0e57add16da3eed027eb0f6b17205c5
:102ca000ceeb661aa5f6573bc99fb7bb8572711963
:102cb000e9f7e3e4178f163de46785acfdbffdbc83
:102cc00035c2b732222f9ab7451068905b65143f22
:102cd000848b231c573b2dbf19d813a3c042925598
:102ce0002052f84c8193b4d10a9a9da3bde68ff38c
:102cf000ee99c577b5827cbe52a918d55c61417a40
:102d00005cfa9db773c4c36f8ef6636c6500c75ed3
:102d10007bc6cb63aebf65d42fd1a8d7173144b1e2
:102d2000486000662ca3b09c2ad4daa1620346aaac
:102d300046411e660e7032bc933e4990670939eddc
:102d4000143fd5c9d5de87f64b89b7dae8f9162fd7
:102d5000b4f79ed2c61c690388c9d8dc95318dd9d9
:102d60005372f5bd269652c9472c0e3a4950794602
:102d7000b0efc1950fe75d3027e10679f324e7ef67
:102d800039c2ac3efccd62ed2fffaadf5bd31e89ba
:102d9000d344dc1a0cb4459ef8df259ae16f954abe
:102da000b0fb9f18070a5936c5950f1008d7e25196
:102db00024dee4ab053114f98ef6b44f134eb1b8ee
:102dc0005de4382ffa86792bd94d8a7d2dbad0bb98
:102dd000e643fd8d8ea6be44af9e0ab638a31944c5
:102de000448b0af8ba3d85ce25e26362a80b36bf54
:102df000b4784cc3d88ced1af4978fef2cc27ce0da
:102e00001a4518474257c6ab70e52271af538e1f63
:102e1000f348132631b737b34127b1208e79bf3a33
:102e20000477b48ad831090b22ba2bd81f4ef83157
:102e30002ce8946e892202010e1138d34c8f762f24
:102e4000aaaa6157abbab2bb94ad686e23f462d83c
:102e50000876f1499d1e0bedc7c9c635bd31dd4f62
:102e6000c9941f094f0087a3c20aa4fff609eb7b90
:102e7000ba91afd460f104fe8af70420bfe87c0069
:102e8000a3aeed44330549fc9a5a61e2bd4068188f
:102e9000ce8680e335cb3f3c927d49ed9d1f85b5c5
:102ea000e88e87bffa6427c61307f0fdcd6604a23b
:102eb000158559675d48424a5db70be099ef7c2a5a
:102ec000b44af474b07e55614790fa97fe45a3d397
:102ed00070db373e62e1020748dd7984638d0f9332
:102ee0005a4cc00436a6d16d345584ae027987673a
:102ef000fe58374a5c87f1110b02295b69fa2322dd
:102f00000531d4a59fd5602196ebca22e4f75c3841
:102f10000af226e4407e7cad16ccf07e504a7eee6e
:102f2000c5c1546799981d6b7a74a7e5f14f79adc7
:102f3000f061451eaa0c520a6058515a810d63a8cf
:102f400038f8103d2c4221cb68189839b511b96773
:102f500028d90cfc9452f3a7eb3629abbae429e448
:102f6000837ada2757b5ffa8a66b66e51fbf9c4f8b
:102f700082ce8d096b144f75b82561482898ae46ee
:102f8000498353763ced76747740e46f31a3bf1ddf
:102f9000a020bddc6bb66c91054b2e349b239e6b41
:102fa00006e86a3df98913d4e2777cc88bbe289085
:102fb00091ec72885173ac6fe18207d1ff28694fa1
:102fc00045a07f2888b76ea8ff95c4dc5d43018bc0
:102fd0001e0d9ba3c9f384fe3a086cc6eb4826dca1
:102fe000d269a476b1bf002ec5907ad4c3d85790c9
:102ff000e73e33f14f089f658001473316646b95b8
:10300000adde11cf75ca33204e726e8275a285e394
:103010006ce69c74bfbfa39fd98e78258b37120caa
:10302000ba420ca32b837d0c10115adef7e78a15e8
:10303000ad5a4c7c433af8d8c79b4cfae5d2a37101
:103040005c1d90e46bb8bab7f1aeb3d3954a69632f
:10305000a8edc4a434ba986412134a820142a03580
:1030600091da1648a5f19733c649e93b49568c20b9
:103070002aad6b41ddbe4920dc296e7b8f707294d6
:103080007acac1180870e86b56cbc5824f415eca38
:10309000df163e7755d684995ff3a74dc7ec0e6acd
:1030a000a992118e108a300d87590d3e06707ade76
:1030b00076c989fb53af444c3b1f881262538b1770
:1030c000b9f1736baccb4f64f882073eef8f3212cd
:1030d0000cb7785ce192d0a09348c9e98252a58be5
:1030e000f94e50dc7afba038792778597e9f4096bc
:1030f000c78c6f1f0e3cb0e9a2f2aec8a988da7780
:1031000006950ca2aa9e9d15c771df94a43cf36599
:10311000616c02bc641273a5753c38104d0257f601
:1031200091b75b934502dcb95f3df5abc2a7adfe3d
:103130001d6fab499654da608c2fa971014bfd6f5e
:10314000fd113e0bcdf6620ac344cbd2cb456fb422
:1031500018c8e55012dfa98c3caf921f8438238435
:103160002ef7da6e5c6ba0659299bd818051224486
:103170002a15c340c0596c83be7d9f6783f3e08fdf
:103180006aa5fe291b43fadbc555e0c350953455ab
:10319000e46574b0494e2a8f6ecde66e008ee4e889
:1031a000acb22a39769027144dba3bde84b0b5a86c
:1031b000c154d04fd89e16182a9717e16c82f29905
:1031c000258ae6c9a109c3d82135ce424fc0c0bb6c
:1031d000bc4c40817dfa6a3c385a209cb073a5b83b
:1031e000c3d2499a440d09977c90b24cbdcdd6b854
:1031f000022aa97da42d208e025dcd4c8b08026e83
:103200005d9a670217263385b08b275d5b70a09ea1
:1032100003b16cb48ba2789dcc9e02d7f599431c68
:10322000c11108fccf78ff007f009f942811601621
:1032300093f53b200131891289c92af1cafae73096
:103240006375b65bc904561450aa6bf911a89f7a2e
:103250005bdba7888f06ac05d8eecedc1df7aa7f16
:103260004423ad8be93253e7956d208ea767f16e4d
:103270004f569c5fd5a5c7579a21c2a4bc9bc92aab
:1032800056b59ffea6d486b565c960b4011dcf565c
:103290001984646ac81bdb2046e102bfd4da955961
:1032a000e130309b6ea72a88a474a83a4f656b1f43
:1032b0009fcd5c0246af9a2b00b688171b0eec849c
:1032c000e38a93c84a4119e91da94adc1c21d58d1e
:1032d000d723728c4afb8aa6d0b7edf808711b3051
:1032e000db87d259a62829bca3c8d8d480beb4b2e3
:1032f000673ea037247dbf94d16933e8a10420fd47
:1033000020261f17e734150e52bdce43b589f9e5c7
:103310007838d1009cc51dfd487db9499eac6939fe
:1033200021d19bbc5ac3c87944bb7f252056dae91a
:10333000613b9a23a67934d0a475b7bf8a3b1ce6bb
:103340008ad1b5ec4eab241abfb94d454ff1eb21f4
:10335000fc816469f5b478dcabaef68c3312678e11
:103360009b19bd39b0afedfdfbe90a7517c406c660
:1033700044fb78710fd0292dc66701e37cc054321d
:1033800055964890dc7c11f0e4991ac3af4f49552b
:103390005e105a633e04d541fbef3b9282e4f0e9b4
:1033a000609b950daf76de2d1f2d2bce56407836c7
:1033b000332569b118d3e1b2db541be1a1bdf70a93
:1033c000eddf6fe7b7846c2fe0caa51c651455e9e3
:1033d0009a3a068f602b58174c6bc967aff71f8757
:1033e000bd428f4531548f7ddaa7e022f68134fc4f
:1033f0002285357d6c528806e69a48d263f1b03555
:103400000c7a5b63ac451233251e79170fd3fd4947
:10341000bf536f7c59644ef7f52ac65060e3fd78c0
:103420007644f55115d18573b5722ae4030020184e
:1034300041524fc09b7e6ed2d67945c46e4d22e478
:10344000ca40dc7c6435b05a718b4312df26c6b8a3
:1034500047224ddb176e689fe42f0b548d7a4b3754
:103460005c3ae62aec584c4113f97529ffc5a47f54
:10347000a284a852e09e94a48a7fc296e0a53af75f
:10348000dd7b411dca3a37431d9247676df46e23b9
:10349000ee1f7ba247cd6224cc9f17b055dc115e96
:1034a00092bb17277ac3e211e31b463fdf5ab3db17
:1034b0008f7af35a91434e9dfb5be78e0afbb4e98a
:1034c000e544d99e3fba3bb7dcb180e561a136ef58
:1034d000282445f2603b42e1b70108aac1d28d958c
:1034e0005e36d5c385a25578750f20657412f8ea4b
:1034f0005d642ee137bcd78ca439235c4f4a749ca1
:10350000dc632b25abde76b855e69c596dd8fb42c3
:1035100099145b7b5cfa74f26fe442714ba7f0dfa5
:103520007564250d0d23573b4cedc46714a5046647
:10353000e40d79fca8f135d3aaa2d90d632582dc6c
:103540003406c743c93d71fda6e3cf4fa41ce8e78d
:1035500051530a4558f3f507e34a2fc57aa59c85d0
:103560002bc5f2586a4357ef43c11f22910a50cb33
:103570003cac1f6b3f75dc376f9cb38515c805bd30
:10358000701b1b91a46af717bb8c61e5a864545e9d
:10359000c064c55b9eefa60358bf10958f956a4225
:1035a0009662759c6a2095b751a87ff30a275c79cb
:1035b00085166770a31c53d4e1466b773297347c31
:1035c000981da1e56270ca2e7697726c92aaef865a
:1035d0001db2a18075e534640eef9fe61f8fbcf924
:1035e000017f2d2fd1679ce497088e6f5525090028
:1035f0005b311f00ce4d633507247dbd4a1c00475b
:10360000b465b1cccd894c5dbd358047ca91ed69bb
:103610006735440bd7e5474f38cdbc8164356e2103
:10362000deaf79e7a80816530f828e8729cff8f707
:10363000171913281b6d12ae92fe7d1cb7f04ec0f9
:10364000157385b883efd48fe00eb7e6d4a2eac332
:103650002eda9a3644503d76b1d3c97fe76231d92c
:103660004ab6b3f9c5fed8476ff65d9656c4521eea
:103670003a2f82f6b0d2102cf1ced250bdc42eb368
:1036800068610c3fa775d33d5a5b3001e88dddc6fc
:10369000a980c026de350d6c2073809f60d3179300
:1036a0008addace215913de5e3d447bf3b25787256
:1036b000066f8ec4de9048e38cbb12e065caafade6
:1036c0000fe849da67c3824ba32f300b531bae447c
:1036d000fa264892c395b3988c0fe8822af2b2502a
:1036e000434fc346131d9fb456590e4eff06819299
:1036f0009284f0f4d961ba34b9ffd3cc8b37373e1a
:1037000044b3a466dd9e906da275bb0e9c427a2bdd
:103710001be5e7ed85b1a4982dd4bf2844057b2f88
:10372000b34647e4acb22ff6922709889538adb27c
:10373000ed144ad125011085d3cda082a8a5de7f46
:1037400068113a3c78d6655264b2b6a42ff638eace
:1037500027a5041920364a6dbedf0584b547ae7c27
:103760002e194e20a974e455a420b7f1b355c38691
:103770000bf59eac32d3512b9cfa90f0269f46ea73
:103780008299e33a3b7bacf7446b8c9dedd50665a3
:1037900060d3d30fff07fcf3ad01435ef4eae761aa
:1037a0002caa32c7d4d4e8df878a2df6925d1e3f5b
:1037b00036be10eaf673f5901ea6a22a9cfeb78fbd
:1037c00011466405ad9e12d7ddf9669b042ece220c
:1037d000dd5cd898bf533a097c82c45e011771f74b
:1037e000ae578e273eb52b0c07b68a73b77c8c8af2
:1037f0008be290dd4019e9b7a5c10a0414a0711e3f
:103800001d725fac382bdd68d8fe3be25be28c3b7f
:1038100065ef5a14f2c7eff6855dcec3e1bbed3319
:103820003cf27e9fa8da4de1697bbc802bc5576acc
:1038300061bae0a22499d39c896feb123ac8dfae3b
:10384000806d0953393203b3c62de87364b4bf1acf
:1038500057af6513602e88196edb3caef2a4636a25
:10386000cf242ce462eb5c8bf90d5b6755946c4eb6
:10387000e8a0e8d4efe198d84594c5a2ee2a0c213f
:1038800094520289059e2c505db1eba785d53e1957
:10389000f983f4e01d3fa73d49286f0b1016949261
:1038a00098578e9c486d89f835ec47c361a701b8dd
:1038b00086409cb103ccd2020803bab5a542f3fd01
:1038c000c7a7db9bfec61ff5c21af944f947f938b2
:1038d0005ef95333c84dd0c74027d2d72069aae735
:1038e000b9978f009c4b0f6eb38da5ec6559c7e35c
:1038f000f63e2aff574ff8d9fa6ee82dc04daa11af
:10390000032d2e348dfcd1b0ffbd94c6400233a8e8
:10391000af9dbf2bf155a8264ad95dd22710b37fa2
:1039200004a03342585a72bed95a18dcdf0b30e972
:10393000da57dff45349ca989d1af5b25052701104
:1039400046a0df576d3040f9e081869d6ac4c11af8
:1039500004de87778be34352ccda0f8197db6b6e03
:1039600060448e7a02353b04db4f28f153b9defb0d
:10397000f3ddd6ac8ec846ee59f93417eb0252305f
:10398000053e3130778631890294b898973c1f0afa
:10399000134263fbfe8e4f86048df496562ab9af10
:1039a0001721bd0c2fbded86b7e4cf1a2536389e02
:1039b000b4a80ede77ad2d05518b1d1f0c5e656b17
:1039c000480eca2420009e14907325d24533e83a4d
:1039d000e06b5b68a72df9da6e7d8a729a04d8e4f1
:1039e000f78f3b4c1913364b6b96d1ec1c85012598
:1039f0006c17ee59fdbed44a4282580408e796f887
:103a0000ec2ede1a14053487047748e66b57c19e06
:103a10002624f08328302250e3a771065266589e70
:103a200034956081beea4c45c15e731a4ad468473a
:103a3000656d27104b9973412bbf8100a6293bd69a
:103a4000691b3bd7f2779bea051c014a71445d3f35
:103a50002ce1c63a8e44e1ba6eb1c0a0925b6ff61b
:103a60000a37f6f7d1d6a734d3f9fe9640049dca9b
:103a7000f2f05ccc6d6ea9466ae942db13bf0086aa
:103a8000e00149a5219902745a28125f0be967dd0c
:103a900022914c1f0067e23870aa872ab69a908458
:103aa00086eb831aeb0fb15ee7ae6cd91437f88c56
:103ab000051c9932860e1b2ee22e06eed5b9f8f5be
:103ac000bcb89128d0b7e8759f4e6544f5d97f35cd
:103ad000f4e41c3c32d8de222fea0f056a1152159d
:103ae00098c096dfe043aebb10865fe52f6d500cab
:103af000052234c927ac0bfdee67712129702bcd4f
:103b00008509556d0160682109f56444dcfedda777
:103b100076845a7e1c97bee7aef16f55703c0d3d22
:103b20005be86c7a6bb7c95d4f96882467dc252407
:103b300041f5125185d278b3376b84438449453cb3
:103b4000f7ae0b7c5af711bb1ebbfd58db371fd5f8
:103b5000fe0c63763c9fbabaf2098e34a2dc8fa7c2
:103b6000988da06c40fe3e09801a79dc3da3217738
:103b70007a07682f4692743c78d58c85658a4de922
:103b8000b8a0c901cb34a12fa1e02af259113e956a
:103b9000c8461d9c290453a8b84855e4429fa5e097
:103ba000f9a692d9e30c5eda37b81bd7514f21b092
:103bb000943b3154c5aecb9e3a0ab5ab580fcff209
:103bc0004ec6069b51fe1ac01f377e63fb56e9eeb8
:103bd000b7b7c13c0498d3ce002ea50040ee0ae250
:103be000f7ed6429c868a98c829b0832decf1d6a74
:103bf000880a570b9763d7ebcc75d3de67fbd3a747
:103c000075918e9160b77618ecc56a7cbe0131c79c
:103c100083a542c2514d1e2727930aff79a932245a
:103c20002fdbc9b3d77c385319f771a74b1ba73bc0
:103c3000c1357fc830f4b1ae33535c5b933b23c8ce
:103c4000447b53ee0639a32c25f86459dfb1eb7899
:103c5000e78b8672d623546bdcfd70602af3dc168a
:103c6000e03041bced983446e972cb7cadbe0f111b
:103c7000b306f169a143056aa10f194849e3200f72
:103c80003a95df274959baf3e33b3960a0bf62bcdc
:103c9000f400c9afda4d9ab068b981fb066c8215a1
:103ca0000680d479e7ae0317a8de9675a847887416
:103cb000374d877b22b83efa82cb63669b6a666f7c
:103cc0004c3b91bfe558d80685c9203762d95213bd
:103cd000c24d09a1cde6582115a1935d53716a9596
:103ce0004a2a9bb4f7e372f679cc2c77d1d4ff241f
:103cf00099da3b7ef6e08b25d638c3667c2a53974b
:103d0000f8014f9775bd2ecb4ebf1f5f221252ff99
:103d1000fce2a0ecfad6c066f4a2b41792c1623af3
:103d200012736f9dbe0ce5f7792a8138dd3af8ef02
:103d3000b79b08ebe814e398a3dcbd8d349a6c3292
:103d4000d0ed69d185afa906016b839431fe5ae4a9
:103d500097d7016701351070a35f504840373be5a6
:103d60009215c4b5964500af02281c4e713d14b3a0
:103d70007372127b75fc33172104cc50c43fa152df
:103d8000c8afe7adba9b7e919ecc40fd3bf0bed064
:103d9000d301e527b0a4e052ecbbd30db4aa0d7358
:103da000732a13650f4c368892cbd244dc71e27bc8
:103db0001ccc8d40102b6bbf77768e533f41a547af
:103dc0008d9e50027ee1ab4b0bcf12cf14759f61dd
:103dd000c8eeea7a8e4150b3b441baa922da275a22
:103de000bf333fc425cbee7209ab8602b66e4c1dc5
:103df000749be9644f890d06d3283bb01f1e28ce63
:103e000080393b265d0a654b03305f460ae6efaf1b
:103e10003d5c5a73213594c1349673ba71855851fb
:103e2000feb7be9ce0ff878d3a9fc212f275f8f78d
:103e300025ee3db718589239652f9350171668969e
:103e40004137a845062826c352ebffe427be826609
:103e50003d5c73e8da4e31590feb1c494b218bdf87
:103e600047ed78f4c037a987d8c8ea633b57b369f0
:103e70003ae52ca5af80525afa9250dc6d47ef4ad2
:103e8000c44d65ef5439203d9fbc27e7e2f9f0bef1
:103e9000903c233c931481510640851d4760123da0
:103ea000fad13b1c4129aeb46e4000be5e942b613a
:103eb0008057e1bd8303994335112a985daee00731
:103ec0007bd6258b61dc4dae51278d9f8082561f9e
:103ed000b90bdb4ea3d7dde67c882d9444e396d066
:103ee0008959018ec8876caec2c7fdd01be333adc4
:103ef00041b68f613963ebbedff97b28276ad9456c
:103f00009498973ca4b27b289ba351cf1ada167ad7
:103f100075adc899397d98700df02a4236c8fbef0f
:103f2000125218f0d5e41b8a919119640247f87275
:103f30003b6f42b9538e4950d3b35ee34b0b026ed5
:103f400016a0f2aff3c4ea264cde3911456837a655
:103f50002a20927696c3b9db355ba894e0b0efa037
:103f600068c0b21f9cc61e6c421727c1b346c82941
:103f70002615790dce436155d9e64ac6b8364a9d15
:103f80001b1536b003610cf7c352317a9219c1fe8a
:103f9000db1461c578d52fa71fee63b99d6eb453ae
:103fa00004d82debebf5bf0b798998ab015b24b0fe
:103fb000b910401994b7d9164ebe4a633b534fbe51
:103fc0001a5941beb2b33b63dc785289e4f43079cc
:103fd00078328cbc9a1d56794720c817e2fc5a905b
:103fe000f25588776d4d21830ca7e11b90f14b5062
:103ff00038d1005acb3707cd54be443cafa8dcd2f1
:10400000e12d4a5482b04f739b4b8f9037c6bc282a
:10401000995a8569c1f91c4ddb400fda1df9bb4483
:1040200051a5f6374d44136aedd528819d41938201
:104030005a674b109b9f88dfd9465a73e6dc0bc545
:10404000832d09a46ebb713131fbef1ed9c492756b
:10405000b8d435e988aa86c2c43587480414a9ecc7
:1040600081d36a8c2b847e71eb6fdd7ddd7f859043
:1040700022bf5996917936933f5a417245e64505dc
:1040800006d0ae96a09f6e70f273e896e7de9f04ae
:1040900023289527a2ed4919f2cdff7548df13ffbc
:1040a0007ccf9eb1bc808fecf7c3c8dbc7b2625c2b
:1040b000dede540b9a5c6169bf6898f2c96fa27e1c
:1040c000f2579a7609b0ebdee757fb1fa0c734e63c
:1040d0009050831b75d6a5dd8a699d21d4ed4ead28
:1040e0006abcb881a309a0c84c96e5953154f23654
:1040f000b8f325b1edd77947672f436c7b56e3a121
:10410000bb9c4e7da7f0db9f9bb4b921745457ea4a
:10411000438eec4f0dc32d2fd6a332c11d8a05014e
:10412000080671152d62231fc2c4585b3f7daaddae
:10413000b14c47ad8d70207a79dede3fad6065bb56
:10414000373a5fcde9ac97080a3db54d09f3a5991b
:1041500018b52966b8257ea1dc6345e2bc390f1e7f
:10416000597a5a03f2c2a51bbae0454bcba2423c96
:104170003af4db2e41032b62c3ee93cbea8826e7a9
:1041800011e4cffb3a4db91bc4a716fc391c988229
:104190006a935ade45e45008a1d8cfbf976cc54b4f
:1041a000353fdcb6e02aba1454564fe39cf84d1361
:1041b00019b6041f76e27e2daf50b848c8df122d25
:1041c0008cb7cf1e824072d8e7185a67c25aa9ab83
:1041d0007d1966b9b49e2ed35fbb116bcf5edd191e
:1041e0005142d17276df9013a33efa318d7afc7c76
:1041f000f0ad629ed1653c40ffa25da02c2b1dd787
:10420000d8e388c12668826127a6739aadb08cee88
:10421000b95c3779af2e79029abccb55a287a3be81
:1042200071e5a7673f5c490f8251efc05b5f5ef7a6
:1042300009b97603b156946039ca9f320a830dc119
:10424000826ea6405075c8cb08cb8b0f5f6cbbd479
:104250004f60399bf3440b8d8be64d604d643215f6
:10426000f70a44eb24bc630c8b80714f93d766d163
:104270000d44143bf610ac4861842aa38525c4d1b3
:104280002262e1b704d43b8caf9fb17bfeff81e992
:1042900034eae476adf9669f9dc67520fa3b02f8d4
:1042a00082d21c046783a30bdc860d3814492cfdd5
:1042b00077f7e9903c45d0fb1613cb8c945c4e41cc
:1042c000ef38b95b3719a18ebdd6a40d03194a3c4e
:1042d000ff88948170a0604dc588b0aae9b5cc3e36
:1042e0000748e8b2f7e33532db929ef3283985b60a
:1042f00099bcb09533566a3432fa6ef27007bd5edf
:104300003a4272898e9ff1d47567020a9ba55baa17
:1043100070a442c529a3d756a194e200a308f85a75
:104320001305eaaf0b4428cdbd2151ad0a6f639d43
:10433000b91cd602320ac8982815ddd585bc7ba8e1
:10434000de3addf2237e28b9d451ab5658016270b3
:10435000feaf7c707f4cf1a6702510dac7dc7a00c6
:10436000c80e54f2afbaf4573a5b481c8aff3dc6f8
:104370003fa69d90e4824f4e184a0989f1597f77f4
:10438000da5b9fa6ef59f10780a41850716918bd38
:104390008f70340459f1d398d402561f8d57b0c58d
:1043a0007043b397990e9db538ddbae337fb48e902
:1043b000e0a9d5f484094bc38af16415d16e2204b7
:1043c000deb36374ed4ea577faf5028669b2d8972d
:1043d000077c79253e8d633f3eb5ff4d20dfed1212
:1043e000bcef55823447a81b01d39509294f9b7c0c
:1043f0006cb4da77058c89e13aa88d2d5979f8ad3e
:10440000451deb5a426c78bad8f0449988be636374
:10441000103f96ec260969092ecba8b5fc64fcdd9b
:10442000b3c04bafc2e64fefefc2919a8e0a0d2791
:1044300075f1bc2a392c21121b1f70adee5889cca6
:10444000f9215bbdcc1fa2c57f46a1132ea231c1ad
:104450008a98e60dc0a7b3593c567b7471384b81de
:10446000e573bdda9b22c326d3142c92c10f177caf
:10447000fe24136c35b8b0cdcefe771ac8404d90ef
:10448000d86bad8338c8f00d0072039f1662548e4e
:104490002b6e9b6dfad39e836b99826a4a19ca7ff1
:1044a0004db649b97c194205ef636698cf909403e5
:1044b0004515aafc05e8ac0acd4a3c9aa033374c16
:1044c000b973df1cc7f0e55df8206f52635de06fe4
:1044d00062b31569ab4be9e7c9e6bb00a024711fc5
:1044e000e96899c7d775ab9a2e673eb28be3cf3890
:1044f0009fc7b102a2a6029223531d0d7818100e79
:10450000dbe7ec848ece7e2002f19618cf06ef34e6
:1045100014ca022798b5242d866d3bd8af1651fedc
:10452000846a2b4bc4db11d186c80dda8e72b53d7f
:10453000558baaa37d31400e9df41d16670c2408ef
:10454000801fdcdbbe889baada6eda6761e1a3a478
:10455000fdaad4b9bbf7b4058b14f1f3161aa8c1a0
:104560005f865bbc389343bdc10c9ed3a0b8c7081f
:10457000491e14f22ff11ea36838c1fad4dd194d7b
:104580008432b985d9112d6873fab1f7c2e47f641a
:104590003f59e5dd9388a59ec8ffd742b441f70394
:1045a000fd7c1e1bd6e7363f3b7a4deb241444447a
:1045b0002ba6512fd2a643a7e9021d11c85cbbbc94
:1045c000a35c08a849b2436cd7bd1095ce66bc2643
:1045d0008d1b8b85dfae8caed0b276ef7da9c50a80
:1045e00078fc2c3cf44bfbc3d6059f1dc8205837e4
:1045f000cf15d9aacffbd2ccec2763faca01580f4a
:1046000060f69bd3de04cf4df6a28a6b702050106b
:10461000640fd2ee6dc1a9175975732f2e9acd2a4a
:104620007d8823d4daa33075a398738ffe3ecafd2c
:10463000377d4af9ececeacc8503da65ea4faa6ae1
:1046400075e3dd55463fe2a58c9d6e3c76800339cf
:10465000fa2ee1c4c99e274386fce3223a4fd96d66
:104660004800abfbf298d9df1144f63fbe94f59eab
:1046700082dcfd7d3cc173286c8628e8fbb92a40aa
:1046800062b8bd7a8f377ab4a2c3e651008f6373e4
:104690009bbec5281e63f25e5d42123f9dc7b9be38
:1046a000af58da12a82a6f56b0f08b1b27a6acecd5
:1046b000be00dab1c10dac6a6add388e97d3d3e59e
:1046c00066bffc99ff2882e5c99e10365b16d32a87
:1046d000e058addf0a231d96a1bc51cd0e5d8e338f
:1046e000ee9fea3d9f86ca615f502a96bc2a11c19f
:1046f0004e5bc6b3a8dd536f3f5b3b2df2e65c64b7
:104700007789695087ab86bc306404ae0de5979a13
:10471000986daba43d48323d36aca5a4018648d186
:104720008b3b5a36a01e1276ee3e8ce7341fedaa64
:1047300057d9a11902f739733ab612dc3b31643dff
:104740005ed3dd8098c0900fceb3651f6692a999a5
:104750004c7261f0fe94c08d581fcc8d9afd1f5d88
:10476000cab17c1a1ba7c2622a0be25e1d1b9d1cec
:10477000cb8c38521173a5e3e43fde89733f79bfd8
:104780002e64c84f6e184654eb6f8e70714caa356c
:10479000e88b977441d19c9f600aa0a9e1ea6b580d
:1047a00030ac9bd46141a8e8ae478d5f8bda1b1c0f
:1047b0000e2f95b96129a4aa8c5cfc723a3b726ced
:1047c000fc958eba119b3bacb9db62dceb626558a1
:1047d00033c6eb3efaa5d6257adbc1bd1d2f847406
:1047e000084c5879f5db2a6c4a73c135e67b03180f
:1047f00047346d5e6c104deed0681a3b6be80137a4
:10480000656dd7f80bdd2b3d68e7d237ef973ec8d3
:10481000782012ab927f1160f48f6b96ab5f9a2772
:104820004b0c881ae37027df88e23c4889c8f7ae52
:10483000e1c53160b18652831d3e9b042a845081bc
:10484000fab7b5bad19bbeecf35c625f23c331ca41
:10485000f8aba6958ae4d458007306835a7524cc25
:104860002831e87705003756c836abec077572cbb0
:104870003a5b02f182aeb821f508f89d3981a110aa
:104880008ea4a857ec76b970af9b088dcb771ce44b
:104890008412394527d10614501d53277746f5dd7c
:1048a0003b347921bccd9174b09b5a0fad4c3d6027
:1048b000ad57ddcd7817c6452c18c58dfb8b79c457
:1048c0003ebab5ad1e23b5cb61bf9825b5a80fd1b3
:1048d000089d2b7f4973b9666e7325ff6c01737c4d
:1048e0007d12c505ef042fb9a2dae3b502323e6ba3
:1048f0006571a1cfd12a4375ad7f5c3f060809eef3
:10490000eee4266e340cead8032a6b81f8526be889
:104910006641b381502e22532be81af6baa4d68be7
:104920004b6165cb240199108d94293e07492e6374
:1049300017aeaeab333169e458a379eca28f34df04
:1049400038aea6b24c588d2d535446c414aec57221
:104950005ac0f0e839bd296de8fc0fe63e2bf5bce6
:10496000213bffa8fb1121f56598e170cb27687505
:10497000dd2c45ad99db4d73efa1145b04f94ed0ee
:104980002337fdc6a983870077de438c281d1d359c
:10499000a5d8d715afee19d545709c5bc4ef334c45
:1049a000f968e09a20339e954817b75c404bbad916
:1049b0005e235be1d061ec826b5f0514499fc6a862
:1049c000b1aa2d38d16eb29acbf59ec6694a064c73
:1049d000115b964eb36c4f4f1c568f1bb1aafc3f18
:1049e000788f47940c9ede7129d4bd3e1b41adbe2d
:1049f0008786c26873661fcc5763c34dea95802dc6
:104a0000e01f2907f485cabbf124a3edc922542273
:104a1000c79175bf9707f0f72de27f392ea5563a5b
:104a2000a6a8c23d5b721d45f48c305d50b2954e18
:104a30000136509584872566c21bacb075b48c2da9
:104a400070cfe8fb235a13c7d46c922d9bee60c144
:104a5000651f6a99703bfed544672713a8636607f4
:104a6000046bf9e8963f34dc6881e6c0bda2d5143a
:104a7000a8b34a4f6d9fd62ef63482acf927e7577c
:104a80003eaa5a076f29e1af44f44fb4f0e7de764f
:104a9000626846a91c83d187bd61bcf2e99c4e7453
:104aa00080aa8c21326ba8c6633b8f536e8bb9e210
:104ab000b8dda2e2e828504ae0a95d045da3365fb4
:104ac0009c354e76e9837a98ff4c2b063225765733
:104ad0003d111d1c9c7394fdf4eec772536f187f3b
:104ae000f6b9056aa65ead2ff95d32eed3f6a50bd9
:104af00062c5b1a03118a6577ee045c1bcf64d5342
:104b0000c2e091fc22a9d0c745fca98795abdb5f29
:104b1000342094cbc49dca08ecb1b4adc7effdae50
:104b200051d3759da8854b26262099b236fd52ecaf
:104b300014438b318c36f1b627300af8d78bd61850
:104b4000199644cd9d9af7796af0db9f8b6bcbda8f
:104b50005a8c02ba269d9fb3bc086ae52341bc74f7
:104b6000157e0dd4c3cbecbf65c5ac88ed3d854645
:104b7000420781f226e502b7b1da89ce6b6c0ea945
:104b8000be9f8b00cbaca1561801dd80b4cc35adf7
:104b9000899e71e6cdfe967031e1a5b5b864d996cf
:104ba000ab62a0afbabfef06bdb58b5c00d980a5e4
:104bb0008ec32964d6371e54337bbb16a29f4ab8d6
:104bc000f6a0fd26cb78702d7ed4de67cc7770ce34
:104bd000ba12d45bb0f709d361d3819b93cd8a70ad
:104be0003bde4f66c8f7623653a9a997589c2e4101
:104bf000c0956c571933919ceedcc771757f4d00e1
:104c0000e84e24a2865bee2e24dab0af160ae3db70
:104c1000a1c52d981afd0994d402e94fedd77ad792
:104c2000de31269a3cb376cb098c021290776e0d5a
:104c3000d617eb05cea5a715f868b09c7cf341020a
:104c4000b56adeef033d70080e3ac62beb2bce8122
:104c50005f085117d83cf55a3c032776dfa19d4cdd
:104c6000f6793ee80a7aa2c9932cfac0c71e7f568d
:104c7000bbbc867144bf04861cb855c12adb79fad7
:104c80008f66890697f6b5911e16101703dc54f04f
:104c90002fdd30fd362d595eec25820ad843da9699
:104ca000e51cbcdc1b645bf4524d0101f181b6aa2a
:104cb0007827b4ba33c6d937394f47adc22646c96b
:104cc00079e5ae812bab7835ac7c4ba8a1a27918e5
:104cd000e2499e244eb1dedd70e95c701b206b79e9
:104ce0003021bc9dfe3d4aaa75bc1f43d0f426234b
:104cf0006f164ac7c7e60993bf26775e6f69a7613b
:104d00001a0255d610f8fa8c00e0b076476be2f242
:104d100024d81ad257a4dca1e12b90b280eff7334c
:104d200062e6650fc963deb6648285a055119048be
:104d3000857381534313e1b96d85b4c67ba0b9dd9a
:104d4000a9d61616ccff5967d00a60239c67ec439e
:104d5000a0c3acae764fc61076065bf584176333fe
:104d6000dc5c5ee98e0cad16b24d5faec7c4a9190e
:104d7000e39884f5bca9f3aeda8ae80f5c4bf4251e
:104d8000959fab940eb6575458e85e340e4e8c98ef
:104d9000c67302baea5677da3cb6a6e38a1c3b46eb
:104da0008a44a3447d3b4663e88979dc6656caf8a9
:104db00021e32eba76d17deb976274d414627b50d6
:104dc00080c250b0eeb91235770de1c85dbc9504d4
:104dd000f6ac5b3c6af9cb170094abd34bce4d7f5e
:104de000453decbe61ba518761da339bbb77b67a39
:104df0006490a008433869d96d2e6a3c0d147e5723
:104e0000746aa26040ca5479ba65a4dda142655ca7
:104e10007cc61116e188f3dd587f9b875fb0f446ae
:104e20004cd875dd41146091898d90d64183e7f4ab
:104e3000646d4664281d32234af15c50d39878d6bd
:104e40002d28136c1d99a47543f1ea563b44fc28a8
:104e5000706e90d7ca9becc2e1a67381452b45d4f6
:104e6000db029762c1f151bddf39d434abc1883d5b
:104e7000cdc14bdc41784317f072bc7ef278cecbcb
:104e8000a961c34105eb7d6cc32839214db09989d7
:104e9000ab253af69db51f21e1104b41e6526cff60
:104ea00012e87caa3bcdd90772d89c61a090503102
:104eb0005669a20e408212a04b256bb053cf2b1423
:104ec00097ab10f6aa2b6372ed138d87c7fe157f83
:104ed00071fbee444c8a8aedea775dd6fdac0abbe5
:104ee000c4465b6b4ef527e7964ea76d375e1e8c6a
:104ef0005dab1182d88555121e5bf51ffb9e202fde
:104f00005b35138cd28879ffc4036bf6a418f5a423
:104f1000ac2f841883036688be265fc50c2a5fb158
:104f200001a5d6c2cfdcd691e43daf2eeaeb98d3f3
:104f300095c6109226286c10d64ef497fd4b0607a6
:104f40004e8e97160fbf1283b941466a32b4edb246
:104f50005ec8944f33e5bec7899b2f0826e872be12
:104f600070a863bd17840b0556eebc93fe1067f462
:104f7000c41b5222d25c6ede893aa4d5b10cc2e0c9
:104f80003027fd9fe7a68bd4e0b67ab24a54a64bf1
:104f900037c692e722f5c50b968743a8ad4ddf5a79
:104fa000b7bcb189eb6e4cfc3675d9f774a3c19dc3
:104fb00000f9a658cad486c3930ea75da96a4bfe12
:104fc000f88f9a633a0a0592880d2096a98ecc290b
:104fd000073ba17716c35a4e828a04a05170bf06c0
:104fe000294cfa3e38db7cb58d5164ae0e65ad4080
:104ff000546f4b6a0e0994ca3caf18a8812951df3f
:10500000903bfb830b889ae58d11ddb2532a980cf7
:10501000bd2b42a7a050626fee447601364e8cda6b
:105020000bce6987dfef825498ca23605ec5f965ad
:1050300097dc7ca60b240c6c757921346ef038104b
:10504000b7bd77a17976cdffc2eebe83e7e45f9e60
:105050005a82021d8b15a969a5f5cb9df6be226368
:1050600025e19d07e0c4f2c9faecb7a532bd54d6dc
:1050700033d5d61f9c8c3836919bd4ccd81d1f4578
:10508000c3dc9ea965ddc1aedab9263ea3e58784ff
:105090001a87e176ae65417db114e10b8d1f86f86c
:1050a000da3752949f6b5727a1badba18971d27c62
:1050b00002dbe9ec77c2ecfff5b0776de3730761d3
:1050c00021fcec0ca09cf21a3073af31c0e28e20b0
:1050d000d4b9c70770a85052004d3cf380edb421fd
:1050e0007964e20e46639ac7ea7bb27bc95f53fce0
:1050f0004ca264affc5b7f8382d8c59b577ffe4880
:1051000067604bc5867d931e2b82246e429af9f40c
:105110006d057ed9229c03d303977991e59301b95c
:1051200073481e38e0df38f49ce6ec07d0b9725ab9
:1051300021c81da2511a779dc8bdb4dcd360169b4f
:10514000e4cc0739ad03dad2e7417f35514d47b999
:105150006d494cd4b0b43e3b2f91da432ba6771760
:10516000125618e6b75153ab526ec31f89d88f65dc
:105170003d589a61b7b1d9b939279cf6f46aba8813
:1051800091544f73e03329f6a0a72e43057c9c1160
:1051900098f522f7a85e9bcb040e1c6ab9a9737a16
:1051a000f0ed43a739c76f95299060d86c6d19d180
:1051b00073b532846cee7ed593b29379fbee4e27b5
:1051c000547303a003353b3127447cc390fb6a230f
:1051d000e22528ea2aa0244d57b7c4a607bfd20d5e
:1051e00016ef6800994366483889ab407759c06b21
:1051f000a38a7f081782a58e4ed3113c0a294f4df2
:1052000002d766fd5617d679f05ce23d5b849810b4
