:1040000003B40148019001BD3140000000000000F0
:10401000FFFFFFFFFFFFFFFFFFFFFFFFFFFFFFFFB0
:10402000FFFFFFFFFFFFFFFFFFFFFFFFFFFFFFFFA0
:1040300008B5044600F0D0FB134A1448801A20F05B
:1040400003000023834204D011495958D15004334E
:10405000F8E7104A1049891A21F0030100238B4226
:1040600003D00020D0500433F9E70C4B0C4A9A607F
:104070000C4A236813600C4A636813600B4BA268F8
:104080001A6000F015F8FEE700040020400A002046
:10409000B0A20200400A0020104D002000ED00E018
:1040A0000004002040430020384300203C4300200F
:1040B00008B500F0ADF917F0FBFA15F099FE0120F4
:1040C00003F077FE03F0EAFB00F022FE03F0C3FEEC
:1040D000FCE7000008B572460248122103F040FEDA
:1040E000002008BDE8830200724602481A2103F04E
:1040F00037BE00BFE883020008B57246024823219C
:1041000003F02EFE002008BDE88302000320704764
:10411000032070472DE9F04F534C544F4FF0FF33BD
:104120003B60236895B09B69032106463846984753
:10413000236838681B6905A99847A0464C4C10B9FC
:104140000A9B236004E072464A48662103F008FE99
:104150002368B3F5006F04D2724646486C2103F021
:10416000FFFD454A25684FF0FF3313609246002358
:10417000424AD908694342F8331002EBC30003F006
:104180000704013301EB0421102B41609146EFD16C
:104190004FF0FF3B5C460025D8F800303868D3F874
:1041A00000C009EBC502694652681423E04738B9DC
:1041B000D8F800303868DB6898470028F8D104E068
:1041C00072462C48832103F0CBFD019B5B4508D24E
:1041D000BDF800104AF25A52914208BF9B4608BFF0
:1041E0002C460135102DD7D1631C39D0D8F80030BA
:1041F0003868D3F800C009EBC402314652684FF466
:104200008073E04738B9D8F800303868DB689847E1
:104210000028F8D104E072461648A52103F0A0FD5D
:1042200032884AF25A539A420AD1301DFC21B6F81C
:1042300002B003F09AF9834502D1CAF800400FE0BA
:10424000002C08BF1024013D04F1FF34CED13046CC
:10425000FF214FF4807215B0BDE8F04F23F047BA4C
:1042600015B0BDE8F08F00BF384300202843002080
:104270002C430020F383020030430020A84200209A
:104280002DE9F3412B4F2C4A3B682C4E2C4D01332A
:10429000102B28BF002302EBC3013B60496852F892
:1042A000333099420446904615D101230193336877
:1042B00000919B682868694601AA984730B933681D
:1042C0002868DB6898470028F9D104E072461D4849
:1042D000D32103F045FD00236372A372E372636888
:1042E000013B63605A236FF0110223706FF05A0391
:1042F00022726370FC21201D03F037F960803A6858
:10430000336828685F6808EBC2024FF48073516815
:104310002246B84730B933682868DB6898470028D8
:10432000F9D104E072460748F02103F019FD02B00C
:10433000BDE8F08130430020A8420020384300202F
:1043400028430020F38302000820704737B52B4D27
:10435000D5F89430022BFAD10121294C03200A46CA
:1043600001F06AFA2368002B35D12B69236023689A
:1043700043F000632360236803F07F030193236805
:10438000C3F305230093019B092B04D872461D48F3
:10439000F32103F0E5FC019B0A3B0193009B013BE9
:1043A0000093236823F47D5323F03F0323602268A6
:1043B000019B03F07F03134323602268009B1B02D1
:1043C00003F47C53134323600F4B1B68002BFBD17A
:1043D0000A4B22681A61094C2023C4F8A8300B4B01
:1043E00001251D60122323654FF4164363651020D9
:1043F00000F0B8FA656603B030BD00BF00400E4063
:10440000400A0020078402006028C8439415C8436E
:104410002DE9F04186B000F0CFFB3D4B1A6842F425
:1044200080721A6000F086FA3A4B01AA03F1100577
:10443000964618685968144603C40833AB422246AE
:10444000F7D11B882380344B344E354D1868DFF884
:10445000F480009000244FF080777046C6F8AC409E
:10446000C6F8A880C5F88070C5F8807101F032FBED
:10447000442368468DF8003001F06AFB11200421C6
:1044800001F058FA21462246032001F0D5F92548CB
:1044900001F0C0F822462046012101F01DF9224812
:1044A000022101F047FA2148012100F0B9FE20481D
:1044B000022101F03FFA1F48012100F0B1FE214620
:1044C0002246012001F0B8F91B4B1C602223C6F8DC
:1044D000A880C6F8AC30202385F818332F60FFF78A
:1044E00035FF02F05DFB00F0DBFB00F02FFC01F07C
:1044F000A5FC00F0FFFA00F00FFB104B186001F074
:10450000AEFC0F4B186000F073FD06B0BDE8F08103
:1045100000000E4090A20200A2A2020000400E4045
:1045200000E100E080D5430202001A0000250800E7
:10453000050020008009120000300E40480A0020CB
:10454000440A00207FFF03B838B500F0E5FA0446BE
:1045500001F085FC0C4B1A681968121B002AB4BFC5
:10456000C1EB0401C4EB0101084AB1F57A7F15687B
:1045700003DC411BB1F5E14F05D91C60BDE83840B3
:104580001060FFF7E3BE38BD480A0020440A00204F
:10459000684620F007018D4611B5334BD3F8A020B3
:1045A00012F0020F83B01C4608D01120042101F044
:1045B000C1F9002103200A4601F03EF9D4F8A030E9
:1045C0009B0646D5294B00221A60274B5B6DA3F54D
:1045D00016430093009B9342009BB4BF0D3B0D33E9
:1045E0000093009B4FF46E7253430093009A4FF474
:1045F000164392FBF3F300931B4B1A691C4B1A6092
:104600001A68C2F3052201920099019A0A440092A5
:10461000009A002A01DA002203E0009A3F2A01DD15
:104620003F220092009A01921A6822F47C521A608A
:104630001968019A120202F47C520A431A600D4A68
:104640001268002AFBD11A68074B10201A6100F08B
:104650009DF9054B084AC3F8A820BFF34F8F03B05C
:10466000BDE811408546704700400E409415C84390
:10467000400A00206028C8437FFF03B8024B186837
:1046800001301860704700BFF8FF00202DE9F84F97
:1046900007464FF480709A46894690460A9D9DF8D9
:1046A0002CB000F05FF9454801230360BFF34F8F42
:1046B000434E444C00233360736023687362636825
:1046C0007362A3687362E3687362BBF1010F84468F
:1046D00038D817B92762676203E03B6823627B68BA
:1046E00063620023A362E3622CE00A4616F8011B12
:1046F00002F8011CCAEB06079F4202F10101F4D344
:104700004DB3314B03F1100753F8041BDA684A40EC
:104710002B4943F8042CBB42C1F88020F4D1052377
:104720008B600B69264A9B07FBD4D2F8803023624A
:10473000D2F880306362D2F88030A362D2F8803041
:10474000E362B24645B3102D34BF2B461023ED1A59
:104750001E495646C9E7BBF1000F02D0BBF1030F5B
:10476000CFD1D3F110010AD080231370002301337D
:104770008B4202D00027D754F9E7154900E01549CC
:104780000023E718CA583869043380EA020E102B58
:10479000C7F810E0F5D1B4E7CCF800504FF48070C2
:1047A00000F0F4F8454506D0631993F8203009F875
:1047B00005300135F6E7BDE8F88F00BF0016C843A5
:1047C00000000F40784300208843002089430020E8
:1047D000604300205043002007B5094803F026F944
:1047E000084B09499B6C1B0C00209B020093019015
:1047F00004224FF00053FFF749FF03B05DF804FBBC
:1048000077850200B081E00FF8FF00202DE9F0412C
:1048100004464FF4807017461D460E4600F0A2F87D
:104820002D4A01231360BFF34F8F2C4B00211960D9
:104830002168596261685962A1685962E1685962E8
:104840009446002D3FD0254B2269C3F88020D4F830
:104850001480C3F88080A169C3F88010E269C3F8AE
:1048600080200520986020690130206140B908F15E
:104870000103636123B94B1CA3610BB90132E261EF
:10488000164B186910F00200FAD1D3F8802022628A
:10489000D3F880206262D3F88020A262D3F88030FF
:1048A000E362102D34BF2B46102304F12008ED1ACB
:1048B00018F80010325C4A403A5401309842F7D15F
:1048C00006440744BDE7CCF800504FF48070BDE8C3
:1048D000F04100F05BB800BF0016C84300000F4075
:1048E000054BD3F8C02010B142F0010201E022F0E4
:1048F0000102C3F8C020704700400E40054BD3F8BA
:10490000C02010B142F4006201E022F40062C3F85A
:10491000C020704700400E40054BD3F8B02010B1C6
:1049200042F0100201E022F01002C3F8B0207047FC
:1049300000400E40084B10B500241C60074B234478
:104940000020986010345B689847302CF6D1BDE8A1
:10495000104001F0EDB900BF3443002000050020F5
:104960007047000072B6074B1A6801321A60064A97
:104970001168084310601A68013A1A601B6803B98D
:1049800062B67047580A00203443002072B6084BC4
:104990001A6801321A60074A116821EA00001060A3
:1049A0001A68013A1A601B6803B962B6704700BF03
:1049B000580A00203443002038B572B6164D174C03
:1049C0002B6801332B602368834208D0236983421C
:1049D00007D0236A834208BF022315D102E00023D7
:1049E00000E0012304EB0314A368FE2B04D97246F4
:1049F0000B489B2103F0B4F9A36813B96368012045
:104A00009847A3680133A3602B68013B2B602B6898
:104A100003B962B638BD00BF580A00200005002067
:104A20001184020038B572B6144D154C2B68013351
:104A30002B602368834208D02369834207D0236A0E
:104A4000834208BF022312D102E0002300E00123C9
:104A500004EB0314A36823B972460A48C12103F08A
:104A60007FF9A0680138A06008B9636898472B688F
:104A7000013B2B602B6803B962B638BD580A002091
:104A8000000500201184020013B5EFF31083019399
:104A9000012383F31088144B1C6800238B4205D03C
:104AA00050F823201278CAB90133F7E774B90F4BD5
:104AB00003F13001DA680AB99A683AB910338B42C7
:104AC000F8D10B4B1A6942F0040203E0084B1A6953
:104AD00022F004021A61BFF34F8F30BF019B83F3B2
:104AE000108802B010BD00BF344300200005002034
:104AF00000ED00E0054B064A1968C1F3074111605B
:104B0000DA6E044BC2F30B121A607047B081E00FEB
:104B1000500A0020540A002013B51F4C2046FFF70E
:104B20004BFF1E4B4FF40042C3F88020C3F8802196
:104B3000002363641A4B23640A23A360D4F88C30E7
:104B400043F00103C4F88C30164B2360164B2361ED
:104B50000123A360E3681048DB07FBD4846CFFF7F4
:104B600061FF042394FBF3F4104B1B681C1B42F2FF
:104B700010735C430194019A40F25B2392FBF3F3C0
:104B80000B4A0193019B1268642101FB0232094B1D
:104B90001A60186802B010BD0020004000E100E07B
:104BA000000F033F0001100118F30005540A002014
:104BB000500A00204C0A00200F4A0023136003F023
:104BC0001F02012191405A09920002F1604202F550
:104BD000614201332E2BC2F88010C2F88011EED151
:104BE000064B4FF48042C3F88420C3F8842160222E
:104BF00083F82E2362B67047580A002000E100E0D7
:104C0000684620F007018D4611B50D4C236883B02E
:104C100023B972460B48452103F0A2F80A4B4FF422
:104C20008042C3F88420C3F88421236801930023C1
:104C30002360019B984703B0BDE81140854670474B
:104C40005C0A00202584020000E100E02DE9F0412B
:104C5000104C14F0070F8046264604D072460E48CA
:104C60004F2103F07DF80D4D15F0070F2F4604D0AE
:104C700072460948502103F073F8AC4204D37246DF
:104C80000548512103F06CF8C8F80060B81BBDE876
:104C9000F08100BF104D00205884020000B00020B9
:104CA0000F4B44F244415A68196001219960130581
:104CB00002D50C4B04221A710B4BDE221A70AD2266
:104CC0005A70BE229A70EF22DA70084B5A6A42F488
:104CD000E0225A625A6942F010025A61704700BFDE
:104CE00000500E40E8FF0020F8EF002000ED00E04B
:104CF000064B1A68D00708D59A68910705D49A68B8
:104D0000D207FCD4014B01225A60704700200540B5
:104D10000B4B1A68D10710B510D40A4A1A609A686A
:104D2000074CD207FBD4FFF7E3FF02236362A362C1
:104D3000054B202283F8022304221A6010BD00BF15
:104D400000200540052F030000E100E008B5FFF753
:104D5000CFFF054B1A68D20701D59A68FBE7034BD2
:104D600000221A6008BD00BF002005400000A442D8
:104D700010B5074C10222046002122F0B8FC052374
:104D80002371044B1A889B78A4F80520E37110BDA9
:104D9000E8FF00205E84020038B50C4C20711846F4
:104DA0001D46E160628022F0AAFC0146284602F01E
:104DB000DCFB2080BFF34F8F054A064BD16801F41E
:104DC000E0610B43D360BFF34F8FFEE7E8FF0020A5
:104DD00000ED00E00400FA0510B5074C2379052B1F
:104DE00005D8601D0549032222F04EFC08B10023BE
:104DF0002371207910BD00BFE8FF00205E8402000F
:104E0000034B9A68DB68012814BF184610467047A8
:104E1000E8FF0020014B186C704700BFB081E00F25
:104E2000014B586C704700BFB081E00F10B5144CB7
:104E30002378DE2B05D07246124840F2171102F09B
:104E40008FFF6378AD2B05D072460E484FF48C71FE
:104E500002F086FFA378BE2B05D07246094840F2C7
:104E6000191102F07DFFE378EF2B07D07246054859
:104E70004FF48D71BDE8104002F072BF10BD00BF4D
:104E8000F8EF002058840200014B1888704700BFDB
:104E9000E8FF0020014B5888704700BFE8FF002062
:104EA000EFF3088303209969024B40F22912FFF7C0
:104EB00073FF00BF58840200EFF308839969144B15
:104EC000DA6A12F0804215D09A6A986A22F040425B
:104ED00010F0FF0F42F0004201D0596B0AE0986ACF
:104EE00010F47F4F01D0996B04E09B6A1B0C1B04EC
:104EF00003B11831064BDB6A9B07064B48BF42F0F3
:104F000080429A6003204FF4A972034BFFF744FFDD
:104F100000ED00E0E8FF002058840200EFF3088372
:104F200003209969024B40F26F12FFF735FF00BF73
:104F300058840200EFF3088303209969024B4FF471
:104F4000BA72FFF729FF00BF58840200EFF308830D
:104F500003209969024B40F27912FFF71DFF00BF51
:104F600058840200EFF3088303209969024B4FF441
:104F7000BF72FFF711FF00BF58840200EFF30883F0
:104F8000074A9969936AC3F30723180648BF916BD0
:104F9000044A032093604FF4B272034BFFF7FCFE08
:104FA00000ED00E0E8FF002058840200EFF30883E2
:104FB00003209969024B40F28912FFF7EDFE00BF12
:104FC00058840200684620F007018D4601B5EFF3D2
:104FD00008831B68BDE801409A69034BDA60034B04
:104FE00002225A6285467047E8FF002000200540F3
:104FF0007047000010B5164C2046FFF7DDFC154B3E
:105000004FF40042C3F88020C3F880210023124AE5
:10501000636422640A22A260D4F88C2042F0010268
:10502000C4F88C2023634FF4F81323600B4B2361E7
:105030000123A360E3680648DB07FBD4846CFFF719
:10504000F1FC41F2883303FB04F0C0F30F3010BDD4
:105050000020004000E100E0000F033F60E0000698
:1050600040F6C41398420DD940F6533398420BD8FA
:10507000A0F6C4104FF4C873C0EB0020B0FBF3F0EF
:10508000C0B2704700207047FF207047114B41F6B7
:10509000713270B51D6C1A645B6800230E4C04EB12
:1050A000C30216798E4203D154F83340A0420ED980
:1050B0000133052BF2D10322064B596821F04071D0
:1050C00041EA02625A6025B100221A6470BD527929
:1050D000F2E770BD00000E4070840200234B98423E
:1050E00031D011D8224B984229D003D8214B984275
:1050F00025D038E0204B984221D0204B984232D125
:105100001F4BD3F88C0070471E4B984223D00CD80D
:105110001D4B98421BD003F5371303F5D863984213
:1051200021D1174BD3F8A0007047184B984216D0E6
:10513000174B984217D1124BD3F8B0007047104B61
:10514000D3F8800070470E4BD3F8980070470C4B93
:10515000D3F89C0070470A4BD3F8A8007047084B5F
:10516000D3F8AC0070470020704700BF405DC60018
:1051700080841E0040420F0000093D00C0CF6A003D
:10518000B081E00F80BA8C010024F4000048E801EF
:1051900080D5430208B500F0EBFD0021BDE80840D2
:1051A000FFF774BF044BD3F84421D20703D4D3F8DC
:1051B00040211042FBD1704700400E400C4B9842FA
:1051C00004D90C4B984204D8012303E000231A466B
:1051D00001E00223012208490A60084AD2F80011BE
:1051E00021F0807141EA0363C2F80031704700BFCB
:1051F0000048E8010090D0034000C84300400E4042
:10520000044B1B68002BFBD1034B5868C0F30140D3
:10521000704700BFC800C64300300E40FFF736BFDE
:10522000C0F30323013B70B50D46092B27D8DFE8F7
:1052300003F005082626180B0E2611150023104C26
:1052400011E000230F4C0EE001230F4C0BE0102364
:105250000E4C08E04FF480330D4C04E000230D4C5D
:1052600001E00D4C0023C0F3043613B11846FFF7DC
:1052700099FF04F1047406EBC406B600356070BDF6
:1052800000400E40C0400E40E0400E40E8400E405E
:10529000F0400E4050410E40B0400E40C0F30313AA
:1052A000013B062B49D8DFE803F004080E14181E52
:1052B0002E00234BD3F8000102E0214BD3F8140158
:1052C000C0F3042070471E4BD3F80001C0F3006008
:1052D00070471B4BD3F80C0102E0194BD3F80801BF
:1052E000C0F308207047174B984206D0164B9842DF
:1052F00023D1134BD3F8200118E0114BD3F8200130
:1053000000F00F0014E0114B98420CD003F5B013DD
:1053100003F58053984210D1094BD3F82801C0F30C
:105320000120043004E0064BD3F82801C0F301103B
:10533000012303FA00F0013870470020704700BFD6
:1053400000400E406006140060162A007017160018
:1053500000F00F000138072848D8DFE800F0040EFD
:105360001847232D4735244BD3F8943003F0070317
:10537000023B022B3CD8214A12E01F4BD3F880306D
:1053800003F00703013B032B34D81D4A08E01A4BF6
:10539000D3F8843003F00703013B032B2AD8194AC2
:1053A000D05C7047144BD3F8883003F00703013BFF
:1053B000032B1FD8144AF3E70F4B1B6F13F0010F99
:1053C00014BF0920072070470B4BD3F85C3103F062
:1053D0003003202B06D0302B06D0102B0CBF07201B
:1053E0000120704704207047082070470020704754
:1053F000052070470120704700400E406184020084
:1054000064840200688402006C84020010B50446C3
:10541000FFF79EFF1C4B9C4209D01C4B9C420AD0BC
:105420001B4B9C420CD11B4BD3F8800006E0194B60
:10543000D3F8840002E0174BD3F8880000F007008F
:10544000013803281DD8DFE800F002060E0ABDE887
:10545000104000F0CDBCBDE8104000F0CFBCBDE86E
:10546000104000F0C8BC00F0ABFC0A4BD3F8003190
:10547000C3F300630122013302FA03F3B0FBF3F03C
:1054800010BD002010BD00BF03001C00050020005F
:1054900002001A0000400E4000F47810B0F5901F92
:1054A00008B558D021D8B0F5002F00F0848009D875
:1054B000B0F5003F44D0B0F5802F3BD0002840F03D
:1054C000988078E0B0F5402F6ED0B0F5602F00F0F6
:1054D0008380B0F5202F40F08C8000F04DFC464BCF
:1054E000D3F81431C3F3042331E0B0F5E01F41D009
:1054F00011D8B0F5B01F3FD0B0F5D01F29D0B0F50E
:10550000A01F76D13D48FFF781FF3B4BD3F82031F8
:1055100003F00F0342E0B0F5281F21D003D8B0F507
:10552000001F18D065E0B0F5301F2ED0B0F5381F41
:1055300045D05EE000F020FC2F4BD3F80C3104E0A6
:1055400000F01AFC2C4BD3F80831C3F308230133C5
:1055500027E02A4800E02A48BDE80840FFF756BF88
:105560002648FFF753FF244BD3F82031C3F3011330
:10557000D84008BD2348EFE72248FFF747FF1E4BFE
:10558000D3F82831C3F3011308E01E48FFF73EFFAC
:10559000194BD3F82831C3F301230433012202FA53
:1055A00003F3B0FBF3F008BD1748FFF7D1FE07285F
:1055B00012D009281DD1BDE8084000F0DDBB13481A
:1055C000FFF7C6FE072807D0082808D0042810D106
:1055D000BDE8084000F006BC0D4B186808BD00F09F
:1055E000CBFB054BD3F80031C3F3042303FB0000CE
:1055F00008BD002008BD00BF00400E4002001A0098
:105600000500200003001C0006000C0098002E007E
:105610003005002070B50446FFF760FD274B0546B6
:1056200011201E681C60FFF793FE052801D1FFF7CB
:10563000B1FD234B1B68002BFBD1224B9C420AD0AF
:10564000214B9C420CD0214B9C420BD125F0C065D4
:1056500045F0806506E025F0C06545F0007501E085
:1056600025F0C0651120FFF773FE052802D1204602
:10567000FFF7A4FDB44203D92046012100F0BEFA91
:10568000134B11201D61FFF763FE052808D100F0C0
:1056900097FB0546FFF7B4FD01462846FFF7F6FCE9
:1056A0000C48FFF7F9FEFFF789FDB44205D800204A
:1056B0000121BDE8704000F0A1BA70BD4005002096
:1056C0006028C84380841E0000093D0040420F004E
:1056D00000400E400025080038B5124B5B6A40F0D0
:1056E0004055002923EA05030CBF00214FF08051EB
:1056F00043EA0005002A14BF4FF0005400240D4374
:10570000254300B95AB100F06DFB0446FFF778FD60
:1057100001462046FFF7BAFC2046FFF74FFD014B3C
:105720005D6238BD00400E400138032842D8DFE8F2
:1057300000F0022B111EC1F308011F4B1B68002B48
:10574000FBD11E4A136A23F4FF7323F001030B43BA
:105750001362704701F07F01194B1B68002BFBD1CE
:10576000164B1A6922F07F0211431961704701F04C
:105770007F01144B1B68002BFBD1104B9A6922F060
:105780007F021143996170470C4BD3F890205A6AFD
:1057900022F0300242F010025A62186B0A4A0240AC
:1057A0000A43C1F3C31103310F2928BF0F2142EA75
:1057B00001711963704700BF6828C84300400E405C
:1057C0006028C8436428C84300F8FF0F0F4B5A6A8B
:1057D00012F0300F184609D0202904D0302905D006
:1057E00021B10B4B04E04FF4000301E04FF4400300
:1057F000D0F890201A409A42FAD15B0243BF034B83
:10580000D3F8A000C0F380200120704700400E4074
:10581000FF33E13F02280AD129B1064B4FF48060E3
:10582000C3F8A800596612B10220FFF7CFBF0120CC
:10583000704700BF00400E40F8B5042873D8DFE879
:1058400000F0086D0F2B03002026102404230525EB
:1058500026E04FF400764FF48074082309251FE0FA
:10586000002950D0304B596A11F0300F0BD12F491D
:10587000C96B596AC9070AD5596A21F0300141F04C
:105880000101596203E00424022303250AE00424F1
:1058900002230325012106E00124022600232546D8
:1058A000002932D00021204E3466214E1E44B6001D
:1058B0003368002BFCD0002A35D01D4B2B449D00B3
:1058C0002B68002BFCD002282DD161B3164E716AD3
:1058D00011F0010104D020210122FFF79BFF01E01C
:1058E000FFF774FFD6F89C70022000210122FFF719
:1058F000A3FF0220C7F30A01FFF716FF34662B68E7
:10590000002BFCD0F8BD08260223074A1666084A79
:105910001A4492001368002BFCD1F8BD8026402465
:1059200006230725BCE7F8BD00400E4000300E40BE
:105930008004F210112870B506460D4601D00024EF
:1059400011E0042904D100F04DFA044638B9F6E715
:105950000529F4D1554B1C68554B9C42EFD9204684
:10596000002100F04BF906F00F06013E072E00F271
:105970009C80DFE806F00698429A04699A744D4CC0
:105980003CE0023D032D00F29080DFE805F00211BB
:10599000050B002004250DE04748FFF70FFC02200F
:1059A000054607E04448FFF709FC0125032001E014
:1059B0000120032501210A46FFF73EFFFFF7EAFB1E
:1059C0001CB13E4B1B68002BFBD13D4B3D485D6736
:1059D000FFF762FDFFF7F2FB00F0F2F90546FFF773
:1059E0000FFC01462846FFF751FB002C5DD12046F5
:1059F0000121BDE8704000F001B9334C013D092D93
:105A000053D8DFE805F005070E5252155252521EC8
:105A1000002317E0012100200A46FFF70DFF0223B3
:105A200010E0012001460246FFF706FF012309E0CE
:105A300000F0C6F9FFF7C2FB244B01221A600323D2
:105A400000E00423236070BD072D02D0092D02D091
:105A500070BD002200E00122194B1A6770BD013DA4
:105A6000072D22D8DFE805F00421210D212106149D
:105A700000230EE0012104200A46FFF7DDFE01238A
:105A800007E0012102200A46FFF7D6FE022300E0CC
:105A900003230B4AD2F85C1121F0300141EA0313D1
:105AA000C2F85C3170BD0A4CA8E770BD400500200B
:105AB000002D310188400E400148E801C800C6436E
:105AC00000400E400025080084400E400816C843E0
:105AD00080400E4038B504461120FFF739FC022003
:105AE00000210122FFF7A8FE174B217C5A6A22F001
:105AF0000102022908BF42F001025A62134A2178CA
:105B00001160627AA18842EAC122DA62186BA57A32
:105B1000217A00F07F602843E588CA1C40EAC5204E
:105B200040EAC1110F2A28BF0F2241EA02721A630C
:105B3000A27B617B120142EA0132E17B0A43217BB5
:105B400042EA01425A6338BD00400E40A004C843F7
:105B500010B504461120FFF7FBFB0020014602466A
:105B6000FFF76AFEA27863780749120642EAC32269
:105B700023781A43E37842EA0322044B196003F1C5
:105B800000731A6010BD00BF7F1B000738400E4431
:105B9000024B1B68002BFBD1704700BFC800C643F7
:105BA000F8B5144B0446D3F800310E4600F0E4F883
:105BB0000546FFF7EDFF104B5A68C2F30142A242BF
:105BC0001F4615D0022C03D128462146FFF726FB9D
:105BD000C4F10203102202FA03F33B611CB9284608
:105BE0002146FFF71BFB1EB1BDE8F840FFF7D0BF11
:105BF000F8BD00BF00400E4000300E4038B50C4BE1
:105C00000C46D3F8005128B900F0B6F8C5F30425C6
:105C100005FB0000074B1B7823B1074B984201D8C6
:105C2000022000E000202146BDE83840FFF7B8BF61
:105C300000400E40660A0020FF2C3101304B1A6FE5
:105C4000D96CC90702F0070206D5012A04D9132826
:105C500018D91438142811E0DB6CDB0706D4012AAC
:105C600004D809280ED90A380A2807E0244BDB6C2F
:105C700013F0010309D0012A06D8282834BF0823CD
:105C8000102302E0042300E000235A1E1C4BD96CB1
:105C9000100340EA022221F47F410A43DA641949E1
:105CA000DA6C0988C2F303222831013202EB820048
:105CB00001EB5101B1FBF0F1D86C013920F0EE603D
:105CC000072928BF072140F4801040EA0161D96408
:105CD0000D49B1F90010002910DB2831500001EB0B
:105CE000610100EB5202B1FBF2F2196D072A28BFE5
:105CF000072221F0700141EA02121A65704700BFC5
:105D000000300E40640A0020600A0020054B1B682A
:105D1000054B1A6F22F0070210431867034B1888CF
:105D2000FFF78CBF8009C64300300E40620A002096
:105D3000074BDA6B42F41052DA63996F044AC907D1
:105D4000FBD403231364106CC31A584258417047A4
:105D500000300E40EFF3108072B6704700B962B6A3
:105D60007047EFF3108072B6704700B962B67047A3
:105D70000048704700F049020D4AD2F8943003F011
:105D80000703032B0AD0042B03D0022B03D1094BAA
:105D900002E0094B00E0094B1B6801E04FF40043AF
:105DA000D2F80001C0F304200130B3FBF0F07047DB
:105DB00000400E403805002034050020400500203A
:105DC00008B5FFF7D9FF054BD3F80831C3F3082313
:105DD0000133B0FBF3F0024B186008BD00400E40E9
:105DE0003C050020014B1868704700BF38050020B3
:105DF0004FF4004070474FF47A707047014B1868B9
:105E0000704700BF340500200B4B59691A6901F037
:105E10000F01C2F3811242EA810282701A6902F014
:105E20003F0242709A69DB6902F0F002C3F3031388
:105E300013430370704700BFD0FF0FE008B500F0B8
:105E40003DFA00F04DF800F0A7F9BDE8084000F079
:105E50001FB908B500F064F8C0F3CF3008BD08B52D
:105E600000F05EF8C20B42EA4142104608BD13B58D
:105E700000F048FA04460DF1060000F08BF8BDF87A
:105E800006301B1B41F2C7029BB253431B0BC3EBF3
:105E9000401002B010BD08B500F06AF8400108BD1E
:105EA00008B500F03DF8020A42EA0162104608BD5A
:105EB00080B584B000AF0346FB8000F023FA0346B0
:105EC000FB8100BF00F01EFA03461A46FB899BB215
:105ED000D31A9BB2FA889A42F4D81037BD4680BDD7
:105EE0000B4B00221A600B4B1A600B4B9A605A62E4
:105EF00040F2FF721A62094A4FF000412020C2F8B6
:105F0000801182F81F03116001221A60704700BFE0
:105F1000680A00206C0A00200020044000E100E034
:105F200030B572B60E4B1A6801321A600D4A90688D
:105F30000D4A1168884211460C4A02D21468013495
:105F40001460086014681A68013A1A601B6803B983
:105F500062B60022234642EA00042046194630BDBC
:105F6000580A0020002004406C0A0020680A002023
:105F700008B5FFF7D5FF20F0784008BD4901C1EB17
:105F800040107047401A7047014B9868704700BF37
:105F900000200440064B996810B504469A68914267
:105FA000FCD000F0AFF92080BDE81040FFF7E0BF63
:105FB0000020044010B5044611B12020FEF7D2FCA9
:105FC000074B9A6802F59C5208325A6502221A65FC
:105FD00004221A625C65034B01221A6010BD00BFE7
:105FE0000020044088048442044B00221A60044BC1
:105FF00004221A622020FEF7C9BC00BF8804844234
:1060000000200440084B9A6802F59C5208325A64FA
:1060100002221A641A629A6802F0784210445864A4
:10602000024B01221A60704700200440840484421D
:10603000034B00221A60034B02221A62704700BF12
:106040008404844200200440684620F007018D4605
:1060500019B50E4C636A980706D5A369990703D54D
:10606000FFF7E6FF00F0FCF8636A5A0707D5074B15
:106070009B695B0703D5FFF7B7FF00F081F8034B7F
:1060800001221A62BDE8194085467047002004408D
:1060900008B5FFF7A9FF044A00231360034A136001
:1060A000034A136008BD00BF780A0020740A00206C
:1060B000700A002070B5044672B6154D2B68013386
:1060C0002B60FFF791FF2368124A134C2360136083
:1060D000FFF75AFF064631462068FFF753FF0028B6
:1060E00001DA013605E0032806D801282CBF36184E
:1060F00001362660012100E000212068FFF75AFFE9
:106100002B68013B2B602B6803B962B670BD00BFE2
:10611000580A0020740A0020780A002010B572B6D0
:10612000064C236801332360FFF75EFF2368013BC1
:106130002360236803B962B610BD00BF580A00206F
:1061400010B50446FFF720FF00EB541010BD0368A4
:1061500008681B1A584258417047000072B6064B37
:106160001A6801321A60054A10601A68013A1A600A
:106170001B6803B962B67047580A0020700A0020F5
:1061800008B5034B1B680BB10248984708BD00BF18
:10619000700A0020740A002008B500F0DBF8FFF751
:1061A00047FF034A00231360024A1360536008BD8F
:1061B000840A00207C0A002072B6064B1A6801325D
:1061C0001A60054A10601A68013A1A601B6803B920
:1061D00062B67047580A0020840A002073B504464E
:1061E00072B61D4D2B6801332B6000F0B3F8FFF73A
:1061F0001FFFE01E194C430900F01F002360606080
:106200000DF10600FFF7C6FE064631462068FFF78F
:10621000B5FE002817DB4309042B0ED862681E2147
:1062200001FB032363606368BDF8062013446360C9
:10623000606880B200F06CF803E0301F1844FFF78C
:10624000E1FE012000E000202B68013B2B602B6861
:1062500003B962B602B070BD580A00207C0A002063
:1062600037B50DF10600FFF795FE0D4C014620688D
:10627000FFF784FE051E04DA72460A48892101F000
:106280006FFD63681D446560BDF8063060681844A2
:1062900080B2ADF8060000F03BF803B030BD00BF9F
:1062A0007C0A00209884020008B5034B1A680AB1E2
:1062B0001B68984708BD00BF840A002010B50E4B2C
:1062C0000E4C4FF4A062C3F80C212046FEF774FB7D
:1062D0004FF040732360002140F6F773A1616361C2
:1062E000074B4FF40062C3F8802183F80B131A6048
:1062F0000123636010BD00BF00400E4000800140DC
:1063000000E100E0014B586A80B270470080014014
:1063100070B50E4C666AB6B2831B1BB20E2B0546D7
:10632000D8BF06F110054FF0010006F59C56D8BF06
:10633000ADB20836FEF716FB1023666663610223D2
:1063400065662366024B01221A6070BD0080014021
:1063500010033042044B00221A60044B1021596193
:1063600001201A66FEF712BB100330420080014084
:10637000684620F007018D4619B5094CA369DA0675
:1063800006D5E368DB0603D5FFF7E4FFFFF78CFFD4
:1063900040F6E7736361BDE819408546704700BF6A
:1063A0000080014007B50021CDE90001DDE90001D1
:1063B0000B0543EA10330205CDE90023DDE90001B6
:1063C000034A002321F03AFD03B05DF804FB00BF4F
:1063D00040420F0013B50021CDE90001DDE90001C5
:1063E000064CA0FB042304FB0133CDE90023DDE9C7
:1063F0000023100D40EA033002B010BD40420F00F0
:10640000134A1378DBB2052B10B5144611D80122BC
:1064100002FA03F313F0320F11D113F0050F16D166
:106420001B0706D50B4B43F29C31186814F026FF6E
:1064300005E0724608484FF4C67101F091FC074B25
:106440000321186801221BF0A9F80223237010BD54
:10645000900D00208C0D0020CE840200340E002010
:1064600008B5074B1868074B002219781BF09FF8F6
:1064700010B9054B04221A70044B187008BD00BFF8
:10648000340E00203A0E0020900D00209C0B0020BE
:1064900010B5044628B972460B4840F2574101F046
:1064A0005FFC236813B914F0CFFE206023682BB97A
:1064B0007246054840F25C4101F052FC2068BDE89C
:1064C000104014F051BF00BFCE84020008B5074B46
:1064D0001868074B0022197813461BF063F810B9AF
:1064E000044B03221A70044B187008BD340E0020B0
:1064F0003A0E0020900D0020A90B0020084B1A78BE
:10650000084B904238BF10461870074B1A78074B5B
:1065100002441978D2B2914218BF1A70704700BF76
:106520009D0B00209E0B002044050020890A0020BE
:106530002DE9F743054688461646FFF7ACFC0746AB
:106540000EB9344B1E78344C344920681BF025FAC0
:1065500020B172463248D82101F002FC2068294659
:1065600000221BF024F820B172462D48D92101F0F9
:10657000F7FB2C4D01216846297000F0CBFFA9469E
:10658000FFF789FC07EB0805281A002804DA264BD8
:106590009DF805201A7027E0206801211BF00CF8F7
:1065A00010F5007FECD001B2042391FBF3F17F31B1
:1065B00021EAE1714900FF29A8BFFF216846C9B25D
:1065C00000F0BAFE684600F095FE0028D8D0164BC1
:1065D0009DF805501D70154B1B78AB4202D928461B
:1065E000FFF78CFFB542CBD92068032101221AF0B6
:1065F000D5FF022320680E4989F800301BF0CDF941
:1066000028B1724606484FF4837101F0A9FB03B02C
:10661000BDE8F083890A0020340E0020AC8402001B
:10662000CE840200900D0020A80B00209E0B0020BD
:10663000AA84020038B5134B134C1A781D4662B178
:1066400023780133DBB2022B237019D972460F482D
:106650003821BDE8384001F083BB237823B172466E
:106660000A48302101F07CFB02234FF400702B70AC
:10667000FEF778F9064BD3F89430022BFAD1DFE716
:1066800038BD00BF900D00209F0B0020CE8402007B
:1066900000400E4038B5084CA168A288054621F09C
:1066A00002F8E16839B1A3886288E818D21ABDE817
:1066B000384020F0F8BF38BDE40C0020114B10B575
:1066C000186801211AF078FF10F5007F0E4B01D1F8
:1066D0001C780BE0042490FBF4F424B27F3424EA09
:1066E000E4746400FF2CA8BFFF24A4B21B78074AFF
:1066F000E4B2A342147002D92046FFF7FFFE204601
:1067000010BD00BF340E00209E0B0020A80B0020FF
:10671000F8B57F4E1D4633688342144605D0724655
:106720007C484FF47D7101F01BFB7B4B4FF4002242
:10673000C3E90045002322402B4052EA030103D065
:10674000764B186814F0F2FD4FF08052002322407F
:106750002B4052EA030106D0714B02221A706F4B94
:10676000186814F0E3FD4FF02872002322402B40FC
:1067700052EA030106D06A4B06221A70674B18686A
:1067800014F0D4FD4022002322402B4052EA0301A2
:106790000DD0FFF76CFB634BA0F542701860624BA5
:1067A0001B78042B03D1614B186814F0BFFD42F233
:1067B0000872002322402B4052EA030100F0A68019
:1067C000594F3B78012B00F0A18000230822144090
:1067D0001D4054EA050302D1002301251FE0544C5B
:1067E0003068022122461BF071F902280146F3D9D4
:1067F0002378063B012BEFD8454B4E4A18681BF017
:1068000069F938B1724643484FF4537101F0A8FA60
:10681000012500E005462378991F4B424B413A7809
:10682000042A1ED1444C63713E4B1A6822602146F3
:1068300015B101230B710EE03D4A5288912AF8D818
:10684000E28020463B4A1B68927B40F8093B22725B
:10685000FFF720FF2571394B1868BDE8F84014F0A8
:1068600065BD314A1278052A50D1002D3AD1002B4E
:1068700038D12F4F7B88912B34D8314C2046FFF7ED
:1068800009FF25787A886B1C9A422BD16B1EDBB2EC
:106890008F2B27D82B4B1A68FAB9224B2A4C1B682E
:1068A0006360244B294993F90E3065727F335A1C7B
:1068B00008BF00235B00264AFF2BA8BFFF23DBB2E3
:1068C000137004F10A002A46237220F0ECFE214BDB
:1068D00020461B689847C8B104E01B68601C9847B5
:1068E0000028DAD13068032101221AF057FE1A4B32
:1068F0003068197800221AF05AFE38B172460548FD
:106900004FF47671BDE8F84001F02ABAF8BD00BF37
:10691000340E0020CE840200A00B00208C0D00203D
:10692000540E0020AC0B0020900D0020940D002090
:10693000E40C0020400E0020B00B0020880D002049
:10694000500C00204C0C0020980D0020510C002011
:10695000880A00208C0A00203A0E002038B5044630
:10696000FFF74EFD1CB1BDE83840FFF763BE0A4D8E
:106970002B7823B9724609483D2101F0F1F92C78B2
:10698000013CE4B22C702CB94FF40070FDF7FEFF0F
:10699000034B1C7038BD00BF9F0B0020CE8402004B
:1069A000900D0020024B1878003018BF012070476E
:1069B000900D0020072810B5044604D972460448FB
:1069C000662101F0CDF9034B13F9240010BD00BF7F
:1069D000CE840200AE8402000023064911F9231080
:1069E0008142DAB203DA0133082BF6D107221046CE
:1069F000704700BFAE84020010B504460846FFF79A
:106A0000D9FF6408C4F12404204440B2BDE810401A
:106A1000FFF7E2BF072810B5044604D972460848BC
:106A2000882101F09DF9FFF7EBFC064B03EB840492
:106A3000054B61781868BDE810401AF0EFBF00BF41
:106A4000CE840200AE840200340E002008B501207E
:106A50001AF0F6FF044B054918681AF0E4FF01200C
:106A6000BDE80840FFF7D6BF340E0020DA840200EC
:106A7000072810B5044604D972460448962101F04F
:106A80006FF9034B03EB8404E07810BDCE84020061
:106A9000AE840200072938B505460C4604D9724673
:106AA0000748A62101F05CF928463DB1054B03EBF0
:106AB0008404A3781844FF2828BFFF20C0B238BD43
:106AC000CE840200AE8402006FF05A0070476FF06F
:106AD0006400704740087F3840B270477F3080F3D1
:106AE0004800C0B270474000FF2828BFFF20C0B256
:106AF0007047FF207047000008B5FFF781FCFFF7E3
:106B000099FD02200449FF22FFF712FD0020BDE895
:106B10000840FFF723BF00BF33330300014B187851
:106B2000704700BFA80B0020034B1B78834234BF83
:106B300000200120704700BF890A002070B50C4674
:106B400016460546FFF75CFC2846D22E2CBF314680
:106B5000D2212246FFF7ECFC014B187870BD00BF34
:106B6000A80B0020014B1878704700BF880A00204E
:106B7000044B4000C0B21870034B1B781844034B01
:106B800018707047440500209E0B0020890A0020E1
:106B900072460248CE2101F0E3B800BFCE84020065
:106BA00070B5114B114E124D124800244FF48C72E7
:106BB00021461C702C70346020F099FD4FF4007059
:106BC000FDF7D0FE0C4801211AF094FE0B48214637
:106BD0001AF0D4FC306020B972460948E32101F074
:106BE000BFF801232B7070BD380E0020340E00203A
:106BF000390E0020540500204443002048050020A1
:106C0000CE84020037B5644C2378DBB96348FFF7C4
:106C10003FFC6348FFF73CFC6248FFF739FC624BDE
:106C20001A78624B3D3A1A70614BC3221A70614B5D
:106C300040221A70604B6FF0090118681AF0E9FEE3
:106C4000012323704FF40070FDF78CFE5B4B1B7823
:106C5000002BFBD0584C0321206801221AF09EFC27
:106C6000206800211AF00FFF28B17246544840F204
:106C7000031101F075F820681AF013FF28B172466D
:106C80004F4840F2071101F06BF84E4B206819682D
:106C900000221AF01DFE4C4B18801D4628B9724682
:106CA00047484FF4867101F05BF8206829881AF094
:106CB000C2FC28B1724642484FF4877101F050F887
:106CC000424A0023CDE9002320681AF06BFE28B168
:106CD00072463B4840F29B1101F042F820683C4963
:106CE0001AF03AFE28B1724635484FF4CF7101F0E0
:106CF00037F800224FF48073206836491AF0E1FE1D
:106D000042F248720023CDE9002320681AF04AFEBF
:106D100028B172462A4840F2312101F021F80221BF
:106D200020680A461AF048FE28B17246244840F20C
:106D3000372101F015F8206825491AF02EFE28B1F8
:106D400072461F4840F23A2101F00AF8FFF77EFE32
:106D50002149206864230B804B808B80CB801AF004
:106D600065FC28B1724616484FF48C7100F0F8FFAC
:106D70002068032101221AF011FC184A0023137025
:106D8000174A1370174A4FF40070137003B0BDE830
:106D90003040FDF7FBBD00BF380E0020880D0020FD
:106DA000940D00208C0D002044050020890A00204D
:106DB0009E0B00209D0B0020340E0020390E002079
:106DC000CE840200700600203C0E00200000A812B5
:106DD000AA840200900A0020900B00209F0B002044
:106DE000900D00203A0E00201FB50278002362F3B8
:106DF0001743427862F30F23827862F3070302930A
:106E00004FF0FF330393084B084A1868019201A919
:106E10001AF0EAFB28B1724605484FF4A97100F058
:106E20009FFF05B05DF804FB340E00206060010098
:106E3000CE84020010B50446FFF7E2FA044B218825
:106E4000A2789A7019802046BDE81040FFF7CCBFA9
:106E5000580E002010B50446FFF7D2FA24B9724646
:106E600007484FF4B67105E0082C05D9724604486E
:106E700040F26D1100F074FF024B1C7010BD00BF9A
:106E8000CE8402003A0E00202DE9F743837E902B3A
:106E9000044667D8354D364F364EFFF7B1FA00231A
:106EA0006168A27E3B70681C20F0FDFBA27E2A7008
:106EB00001233068294601321AF0FEFD2B78013398
:106EC000984205D072462C484FF4E47100F048FF18
:106ED000A56825B9637E03B3FFF7F8FA31E0E37ED6
:106EE000FF2BF7D0627E002AF4D0244A92F800905B
:106EF000234AFF211278009300200B4600F07BFB11
:106F00005FFA80F8294648464246FFF711FB1D4BC1
:106F10001B784345DED902241AE0A3682BB17246E0
:106F2000154840F2DD1100F01BFF23684F3B236042
:106F300014F0AAFA1448216814F056FA38B114F083
:106F400081FA3B7803F0FF006BB1062400E00124D6
:106F50003068012203211AF021FB0C4B02221A7027
:106F6000204600E0042003B0BDE8F083F40C0020CC
:106F7000A90B0020340E0020CE8402003A0E00201F
:106F8000890A0020A80B0020CD640000900D00208D
:106F9000214B2DE9F04116461A6805460F469846E2
:106FA0002AB172461D4840F2F32100F0D9FE2DB9F6
:106FB00072461A484FF43D7100F0D2FEFFF720FAF6
:106FC00072B6174C236801332360164BC8F8005083
:106FD0001F60154B05221A70144B1868144B0022C1
:106FE00019781AF0E4FA28B172460C4840F2FE21F2
:106FF00000F0B6FE2368013B2360236803B962B644
:10700000012E06D19D2014F059FABDE8F041FFF79A
:1070100055BBBDE8F08100BF8C0A0020CE84020081
:10702000580A00204C0C0020900D0020340E002047
:107030003A0E002008B50A4B0122186803211AF005
:10704000ADFA084B186814F08FF9074B186814F064
:107050008BF9064B02221A70054B00221A6008BDFC
:10706000340E0020940D0020880D0020900D00208B
:107070008C0A0020014B1868704700BFAC0B002041
:1070800008B5054A054B064902FB0030B0FBF1F09C
:10709000FFF788F9D23008BD00127A0000C63E051D
:1070A000A08601002DE9F0411C4680460D4616469B
:1070B000FFF7A6F99C223348002120F018FB324B41
:1070C00000221A701F469DF81C3013B1FFF7C8F953
:1070D0000AE014F0D9F92D48A8F19D0114F084F9C3
:1070E000002847D014F0AEF93B78002B44D1284B50
:1070F00005F19D01186814F0C1F8B8B12078FFF7C8
:10710000BFFF244B05F583752918186814F0B6F8ED
:10711000002833D01B490B7973B94D7985BB4A7A66
:10712000C888531C984207D132B10CE0069BDB079C
:1071300007D5FFF7C3FA04E0052000232370BDE85C
:10714000F0810120F9E723789342F5D391F90830D3
:1071500022707F33581C08BF00230F485B00FF2BB1
:10716000A8BFFF2303700A31304620F09CFA28465E
:10717000BDE8F0810420E0E70620DEE70220DCE73E
:107180000320DAE7B00B00209C0B002061640000B4
:10719000940D0020880D0020880A002001207047EF
:1071A0000020704700207047704700207047FF2084
:1071B000704710B5CB1D00EBD30091421BD910F8DE
:1071C000014D0839002CF8D004F0F003002B18BF53
:1071D0001C460CBF0023042314F0CC001CBF044643
:1071E000023314F0AA0F18BF01335818904238BF69
:1071F0004FF0FF3010BD4FF0FF3010BDF8B50D4619
:1072000016461F46044620B972460648672100F01C
:10721000A7FD237807FA06F623EA050335401D4348
:107220002570F8BD4C85020070B50E461546044623
:1072300020B972460448762100F092FD23781E4062
:1072400046FA05F0C0B270BD4C850200F8B50D4697
:1072500016461F46044620B9724606487F2100F0B4
:107260007FFD216807FA06F621EA0501354029432A
:107270002160F8BD4C85020070B50E4615460446E7
:1072800020B9724604488F2100F06AFD236806EA9F
:107290000300E84070BD00BF4C85020038B50446CD
:1072A0000D460822002120F022FA257138BD38B59C
:1072B00004460D460822002145F0100520F017FA7B
:1072C000257138BD38B504460D461822002145F019
:1072D000100520F00CFA257138BD70B504460E4635
:1072E00015460021102246F0100620F000FA267103
:1072F000A57370BD0379817903F0100203F00703D1
:10730000032B98BFC3F10403D2B294BFDBB20133A5
:10731000002A0CBF0422FF22082B07D0012000FA0C
:1073200003F39A42B8BF1346D8B200E01046814238
:1073300034BF00200120704703791A0610B506D427
:107340000A0663F07F030260417103713FE013F0AE
:10735000100F03F00703DBB216D1032B03D8C3F1E0
:107360000402D2B202E05A1C082A07D0012404FA0F
:1073700002F2FF2AA8BFFF22D4B200E0FF248279E4
:10738000A24201D2002406E0032B02D8C3F1040379
:1073900008E0013309E05208E3B204F10104FAD134
:1073A00013B10133DBB200E00123026822FA03F4D7
:1073B000C3F1180301FA03F31B1B1344B3F17F4F0E
:1073C0003DBFDA0D01325208FF224271036083791A
:1073D000FF2B1CBF0133837110BD38B504460D4629
:1073E000FFF7AAFFE379AB4238BFE57138BD38B586
:1073F00004460D46FEF74FFD237903F04002400995
:1074000002F0FF0152B12369C31A33F078430AD066
:10741000A268217D01FB0322A26004E043F0400347
:10742000E0602371A160E3792575AB4238BFE57157
:10743000206138BD38B50446FEF72DFD217D450994
:107440002046FFF7D4FFE368EB1A33F078430DD002
:10745000A268B2FBF3F12046C9B2FFF76DFF2379B2
:10746000E56043F0400323710023A36038BD70B58D
:107470000446867BFEF70FFDA37BCBB123795B0629
:1074800016D5A389C0F34F35EB1AF2019BB2B3FBBB
:10749000F2F169B1A1685143B1FBF3F1FF2928BFB3
:1074A000FF212046C9B2FFF747FF0023A360A58153
:1074B00070BD836819448160704738B504460D4635
:1074C000FEF7E9FC23799A065CBF43F020022271A3
:1074D00003F040033DB193B9237943F04003400BDF
:1074E0002371A08138BD53B1237923F04003237168
:1074F000A37B23B92046217AFFF71EFFA56038BD84
:10750000007900F0070070470B4604300721002285
:10751000FFF774BE10B50446FFF7C0FE237943F0B1
:107520001003237110BD03791A0604D463F07F039E
:107530000371012383710B060360417170478379E6
:107540008B422BBFC1EB0301002381718371704714
:1075500040BA83B25940C1F303134B4083EA03336B
:107560009BB2D8B283EA4010704738B5044645183C
:107570004FF6FF70AC4204D014F8011BFFF7E8FF90
:10758000F8E738BD4FF0013358435943000C0B0C5A
:1075900043431B0CC3EB032303F50040C0F3074038
:1075A0007047C0B1FF2816D04FF001335843000C8C
:1075B0000204B2FBF0F30344C3F34F03C01A40F2DA
:1075C0000441884201D91846F3E7C3EB032303F5CE
:1075D0000040C0F307407047C0F1FF038B42A6BFD5
:1075E0004018C0B2FF207047C3438B422CBF4018E5
:1075F0004FF0FF30704710B58842029C06DDA04274
:10760000B8BF04468C42B8BF0C4607E081420DD09B
:10761000A142B8BF0C468442B8BF0446241A9B1A44
:107620006343091A93FBF1F0104410BD184610BDD6
:1076300010B5074C074A2368074901FB0323236061
:10764000FEF729FC2368054A1844106010BD00BFEE
:10765000600E00205FF36E3C0D6619005C0E00208A
:10766000024B80F001001860704700BF600E0020E0
:1076700008B5FFF7DDFF014B186808BD5C0E002060
:1076800008B5FFF7D5FF014BD87808BD5C0E002088
:1076900008B5FFF7CDFF014B588808BD5C0E0020F0
:1076A00010B5044648B1FFF7C3FF044BDB78B3FBCA
:1076B000F4F004FB1034E0B210BD10BD5C0E0020ED
:1076C00010B5044648B1FFF7B3FF044B5B88B3FB2A
:1076D000F4F004FB1034A0B210BD10BD5C0E00200D
:1076E00010B5044620B972460448102100F038FB5A
:1076F000002323606360A36010BD00BF57850200B4
:107700000068704738B50D46044600B121B972468D
:107710000F481F2100F024FB23680BB9256010E0FF
:10772000636823B972460A482C2100F019FB63688C
:107730001B6823B1724606482D2100F011FB6368D7
:107740001D60002365602B60A3680133A36038BD12
:107750005785020038B50D46044600B121B972467E
:1077600006483A2100F0FCFA23682B606368256024
:1077700003B96560A3680133A36038BD5785020073
:10778000F8B50F461646044608B101B122B9724653
:107790000A484D2100F0E4FA25462B68BB4207D089
:1077A00023B972460548532100F0DAFA2D68F4E750
:1077B000A368376001332E60A360F8BD57850200CF
:1077C00038B5044620B972460B488A2100F0C8FA41
:1077D000256875B1A2682B682360013AA26033B9AD
:1077E000636022B172460448992100F0B9FA00237F
:1077F0002B60284638BD00BF5785020070B50E4685
:10780000054600B121B972461648AD2100F0A8FA2C
:107810002C462368FBB1B34201D01C46F9E7AA68A5
:1078200033682360013AAA606A68B24218D123B172
:1078300072460C48BC2100F093FAAC4201D06C6057
:107840000EE0A36823B172460648C42100F088FA0E
:107850000023636004E072460248D22100F080FAFF
:10786000304670BD5785020008B5FFF7C7FF0022FC
:10787000026008BD006818B18842FBD10120704742
:10788000704770B504680D4616462CB12046314647
:10789000A84708B92468F8E7204670BD07B516F078
:1078A0000FFD03B05DF804EBFFF7DABE03460020DE
:1078B0002BB103F001021044C0B25B08F8E7704737
:1078C00070B5114E002A18BF16460129044619D971
:1078D000C0B14D1EEDB2B0476B1C90FBF3F202FB42
:1078E0001300C3B29D4209D0225C635D53406355CF
:1078F000225C53402354625D53406355013D15F0B3
:10790000FF05E8D170BD00BF8176000010B50F23E0
:107910000022CC5C42EA4402C254CA5C13F1FF3339
:107920004FEAD212F5D21AB1C37B83F08703C37337
:1079300010BD0000074A084B12681A61074A08493F
:1079400012685A61074A1068526888619861CA6172
:10795000DA617047C00E00206C0E0020640E00201B
:10796000C80E0020A00E002030B5034601F110041F
:1079700051F8045B43F8045BA142F9D1103002F1E5
:10798000100352F8041B40F8041B9A42F9D130BD91
:1079900021F07F411B4A10B50C040B0214601A4AF7
:1079A0001A4C03F07F4320F07F4013601843184BBC
:1079B000184A21608CB043401360FCF75FFE6060A2
:1079C000FDF728FAA060FDF72BFA2246E060124985
:1079D0006846FFF7C9FF6846224610491023FCF7A6
:1079E00015FF616824680020021941F100030C4969
:1079F000C1E900230B49C1E900230B49C1E9002378
:107A00000CB010BDC00E0020C40E0020B00E00202F
:107A100042BA6AA5640E00206185020077850200E3
:107A2000A80E0020A00E00207043002030B50D4CA1
:107A30000D4D85B001462A462046FFF795FF2946A1
:107A40000A4D6A4610232046FCF7E0FE284604F162
:107A50002001FFF75BFF06482946FFF757FF05B0F7
:107A600030BD00BF784300207785020050430020DE
:107A700060430020F0B5104C0346024600F11007A9
:107A8000264610685168254603C50832BA422C467E
:107A9000F7D10A4A154618685968144603C40833D2
:107AA000BB422246F7D1B268054B1344B360AA68C3
:107AB000034B1344AB60F0BDC80E00206C0E0020D9
:107AC00042BA6AA5F0B587B00746002416461D469F
:107AD0001A4600910A48019402A93B46FCF7D6FDDC
:107AE00002A831462A461FF0CFFD28B1054B1A687F
:107AF00001321A60204600E0012007B0F0BD00BF4F
:107B0000A00E0020680E0020064B074A1B68194390
:107B1000064B11611B6820F07F401843044B434023
:107B200053617047C00E0020C80E0020C40E002014
:107B300042BA6AA5014B188A704700BF6C0E00203C
:107B400010B5084CD4E9002340F2F31012184FF09E
:107B5000000143EB01030449C4E90023C1E9002308
:107B600010BD00BF70430020A80E002010B5084CC7
:107B7000D4E9002340F2F31012184FF0000143EB58
:107B80000103C4E90023034B9A616268DA6110BD06
:107B9000A00E00206C0E00200649D1E9002301321E
:107BA00043F10003C1E900230349C1E90023FFF7C2
:107BB000C1BE00BFA80E0020A00E0020024BC3E9EA
:107BC0000001FFF7B7BE00BFA00E0020014BD3E9B4
:107BD00000017047A00E002030B505460C46134644
:107BE000294622460248BDE83040FCF70FBE00BFE0
:107BF000C80E002030B505460C46134629462246DD
:107C00000248BDE83040FCF701BE00BF6C0E00200A
:107C100013B50446009100210191044811461A460B
:107C20002346FCF733FD02B010BD00BFA00E0020BC
:107C300010B5044628B9724607484FF41D7100F08C
:107C40008FF8064B1A6922605A6962609A69A260CD
:107C5000DB69E36010BD00BF718502006C0E00207F
:107C600010B5044628B972460A4840F27D2100F05A
:107C700077F8094B22681A6162685A610749A2685D
:107C800007488A619A610260E268CA61DA6142600B
:107C900010BD00BF718502006C0E0020C80E0020D0
:107CA000A00E0020034B1B680360034B1B6843605E
:107CB000704700BFC00E0020640E002010B50446BF
:107CC000FEF7C7F8230406D46400C4EB400000B2FA
:107CD000C043C00F10BD002010BD38B50446FEF7EC
:107CE000B8F805462046FFF7E9FF20B9C5F30E05B1
:107CF000641BA0B238BD002038BD10B50446FEF7A5
:107D0000A8F82044C0F30E0010BD70B504460088EA
:107D10000D461646FFF7E1FFB4F90030002B07DBF4
:107D200016B9A84204D870BD012E05D1A84203D2CD
:107D30002846FFF7E2FF208070BD01440023814206
:107D400004D011F8012D42EA0323F8E718467047E2
:107D50000244904203D000F8011B090AF9E770477A
:107D60000F4B70B516461A680446012018608DB294
:107D70002AB1022031462A462346FDF70DF872B695
:107D8000084B1A6800221A6062B60A2013F0C6FB7C
:107D900031462A4623460220BDE87040FCF7FCBF6E
:107DA000F80E0020580A00207047002082B002B070
:107DB000704713B5044618B117F074FA15F070FF48
:107DC000FEF720FF4CB1FEF797FE00F06DF816F0BD
:107DD00049FF14F059F814F09FF811F06FF90DF104
:107DE000070016F017FB58B99DF8073003F00F0392
:107DF000042B05D107F0FAFB20460FF0D5F81FE061
:107E000016F080FD0CB112F087FD0AF067FD2046E8
:107E10000BF086FB204600F04FFF20460DF048F99E
:107E20000CB111F069FC20460FF0BEF81CB117F040
:107E3000CDFA17F060FD0DF0A9F954B1FFF7B4FFCA
:107E40003CB116F05DFAFCF7C7FF2030C0B20BF072
:107E5000EBFA02B010BD07B5002012F029F801A816
:107E600016F0ECFB0DF1030016F096FB16F040FA4D
:107E7000042801D016F03CFA0A2013F04FFB0A2028
:107E800013F04CFB0A2013F049FB0A2013F046FBC9
:107E90000A2013F043FB0A2013F040FBFFF784FF96
:107EA00013F05AFEFCE7000008B5A42013F0F8F820
:107EB00028B972460B482521FFF752FF01E006283A
:107EC00005D8724607482721FFF74AFF01E012282C
:107ED00006D8724603482921BDE80840FFF740BF95
:107EE00008BD00BFA0850200A42013F061B938B519
:107EF0000446A4200D4613F0BFF8002D0CBF132339
:107F00000723984201D2022C0BD1A42013F050F980
:107F1000044648B100230360FDF7C2FFC4F88400A3
:107F200002E013F03BF90024204638BD38B5044682
:107F300070B108300FF020FF0FF0E6FE0121FFF7CF
:107F4000D6FF054628B1214698221FF0ACFB00E081
:107F50000546284638BD08B5A42013F08DF8122830
:107F60008CBF1238002008BDA42013F099B870B55A
:107F7000054608300C460FF0FFFE0FF0C5FE064622
:107F800004F108000FF0F8FE0FF0BEFEB04208D377
:107F900009D1D5F88400D4F88430C01AC043C00F8A
:107FA00070BD002070BD012070BD000008B558B143
:107FB00008300EF017FC18B104480121FFF779FAD8
:107FC000034B1A68013A1A6008BD00BF000F002079
:107FD000FC0E00200E4B10B500221A6016F048FA75
:107FE00000280CBF3C24142422460A480121FFF734
:107FF00074F9224608480121FFF76FF9054801216D
:10800000FFF75BFA04480121BDE81040FFF755BABD
:10801000FC0E0020000F0020100F0020F7B50446D2
:1080200008461E460F460192FFF76AFB019BC4F803
:108030008030194B0546002E08BF1E4675B12046FC
:108040002946B04728B9384629462246FFF798FB0B
:1080500008E02846FFF754FB0546EFE7384621467F
:10806000FFF750FB94F8903043F01002DB0684F8E1
:1080700090200FD4094B1A6804F1080001321A60ED
:108080000EF0B0FB30B10648012103B0BDE8F0406E
:10809000FFF70FBA03B0F0BD6F7F0000FC0E0020A9
:1080A000100F002010B5044620B9724605486D2116
:1080B000FFF756FE2046FFF783FB0446FFF776FFE7
:1080C000204610BDA985020010B5044620B97246AD
:1080D00004487621FFF744FE2046BDE81040FFF734
:1080E0006FBB00BFA985020038B50D46044620B914
:1080F000724606487F21FFF733FE29462046FFF7E8
:108100007DFB0446FFF752FF204638BDA9850200DB
:1081100010B50446FDF7C4FED4F88430C01A10BD73
:1081200008B5FFF7F5FFC0F3CF1008BD2DE9F0410A
:1081300007460E46FFF7E4FA044664B304F108006C
:108140000FF01AFE80460FF0E7FD05462046FFF7C8
:10815000E7FF1DB1A84234BF0025012505F001004D
:1081600016B1B0B12046B04798B121463846FFF766
:1081700045FBFFF7C5FA054640460AF027FD2046B5
:10818000002116F039FF054B1A68013A1A602C4697
:10819000D3E72046CEE7BDE8F08100BFFC0E00200B
:1081A00008B50448FFF763F90348BDE80840FFF746
:1081B0005EB900BF100F0020000F0020014B58795E
:1081C000704700BF000F0020014B5879704700BF77
:1081D000100F0020FFF784BA8068704738B5054655
:1081E000FFF772FF044688B104F108000EF006F9AB
:1081F00038B103232371064B2146186812F0EEFDB7
:1082000002E0204612F0FCFE2846E9E738BD00BF38
:108210005422002090F868300878DB09012818BF44
:1082200083F00100704710B5002104467C22043021
:108230001FF05DFA02224FF0000362F3051384F889
:108240006C303F2384F8733084F86E304FF4004371
:108250000321A4F85A3004F13C00FFF71FF8FF2374
:1082600084F8583004F12C00FFF7B4FFFFF708FA48
:1082700084F87B00204608F013FB04F11400BDE8ED
:10828000104011F0F3B9000010B5802012F008FF83
:1082900020B9724610483921FFF762FD00214FF4E2
:1082A000C0720E481FF023FA0D48FFF719FA0D4867
:1082B000FFF716FA0324013C08490A48E4B201EB2F
:1082C000C411002381F8443081F84530FFF742FAA9
:1082D000002CF0D110BD00BF7F8602002C0F0020C3
:1082E000200F0020AC100020043004317C221FF04D
:1082F000DAB900002DE9F04107460025194C1A486B
:1083000066193146FFF7B6FAA04620B31748FFF7C3
:10831000F7F90446F8B1444518D221463046FFF734
:10832000E3FF21461148FFF79FFA804612F068FEEE
:1083300031460D48FFF798FA044621460B48FFF7EF
:1083400009FA47B140462146B84704E0084B9C4231
:10835000E3D22046DBE78035B5F5C07FCED1BDE85E
:10836000F08100BF2C0F0020AC100020200F002057
:10837000AC10002010B5044621461048FFF77AFAE9
:10838000012804D072460E48E021FFF7E9FC21469F
:108390000A48FFF769FA0B4B9842014608D303F5E8
:1083A000C073984204D20848BDE81040FFF7AAB94C
:1083B0000846BDE8104012F023BE00BF200F002089
:1083C0007F8602002C0F0020AC10002007B502AA07
:1083D00002F8011D0249FFF754FA03B05DF804FBEF
:1083E0001582000001460148FFF7F0BF200F002072
:1083F00013B5094B01901B689842044601D1002037
:1084000007E00648FFF77CF90028F8D0436EA34246
:10841000F8D102B010BD00BFA8430020200F0020FB
:1084200038B504460D48FFF76BF9002598B16CB1DB
:10843000012C03D190F86830DB0907D090F86A303E
:108440001A0703D4032C03D15B0901D10135EDB226
:10845000FFF756F9EAE7284638BD00BF200F002095
:108460000B1A51BFC3F31400C1EB0000C0F314009A
:10847000C0F5001070470B1A002B02DA484041404B
:108480004840081A02F5AE23C0F31400A8339842FE
:1084900008D3C2F5D41202F65872904294BF00205D
:1084A00001207047012070478068896841F27B4253
:1084B000FFF7E1BF08B5FFF7D3FFB0F5801F88BF16
:1084C000C0F5001044F2DC6398428CBF002001200C
:1084D00008BD38B50D460446FFF7A5FEEB68636698
:1084E000EB6863612B7A84F84430AA7F94F86E308D
:1084F00062F3C50384F86E3004F13C00E97FFFF7B6
:1085000012F8AB6963652B7F84F8583095F8212009
:1085100094F8683062F3861384F868306B7F84F8CF
:10852000723038BD0B6883644B68C36490F8503078
:1085300043F0200380F850307047483000210C226F
:108540001FF0D5B890F8502000F1480312F0200F2A
:1085500014BF18460020704700F14803806C82B0B9
:1085600088420CBF1846002002B07047836C43B1AC
:1085700090F84C30FF2B06D090F85000C0F340101C
:108580007047184670470020704790F8503003F04D
:10859000200303F0FF022BB1826C436ED31A5842C2
:1085A000584170471046704718B190F86800C0F302
:1085B0008010704718B190F86800C0F3801080F008
:1085C0000100C0B2704790F873303F2B06D03F23B4
:1085D00080F873300121406E07F026BA704739B138
:1085E0003F2905D080F87310406E022107F01CBAB5
:1085F0007047000010B504460648FFF781F840B107
:10860000054B426E1B689A42F7D190F87830A3422E
:10861000F3D110BD200F0020A843002073B5164BE6
:1086200001901B6898420D46064603D10846FFF7A5
:10863000E1FF01E0FFF7DCFED8B91048FFF7C0F812
:10864000044658B90E4B9B68072B01D9002010E057
:10865000802012F0ADFD04460028F7D02046FFF739
:10866000E2FD0748666684F878502146FFF772F805
:10867000204602B070BD00BFA8430020AC1000200F
:10868000200F0020034B406E1B68C01A18BF01204A
:10869000704700BFA843002090F8683043F00403FF
:1086A00080F86830704710B590F868306FF3820337
:1086B00080F868300446FDF7CCFBA4F8600010BDDC
:1086C00090F86800C0F38000704770B5041E94F8FD
:1086D00068300CBF2546C3F380155A070E4615D4E3
:1086E00094F86930DB0711D4FDF7B3FBB4F85C40B4
:1086F000001B84B2284616B100F023FA01E000F016
:108700001BFA844294BF0020012070BD012070BD7F
:1087100008B50020FFF766FE48B190F8683043F0D6
:10872000040380F868300021FFF750FEF4E708BD2D
:1087300008B50020FFF756FE48B190F868306FF397
:10874000000380F868300021FFF740FEF4E708BD21
:1087500010B5FDF77EFB044615F0F4FE78B300205B
:10876000FFF740FE58B390F86A305B0723D5B0F8A6
:108770006020436FA21A002BB8BF5B4292B283B154
:1087800044F2DC61B1FBF3F3072B88BF083B3C2BC1
:1087900038BF3C23B3F5966F28BF4FF496639BB266
:1087A00001E04FF496639A4205D990F8683043F09F
:1087B000040380F868300021FFF708FED2E710BDFF
:1087C00010B5FDF768FB04460020FFF70BFE60B113
:1087D000037BFF2B05D103691B1B002BBCBF0023B0
:1087E00003730021FFF7F2FDF1E710BD90F86A3046
:1087F00043F0080380F86A3005F0F6BC90F84500B5
:1088000007F0CDB890F8440007F0C9B8836A10B5F6
:1088100004460BB1012010BD2C30FFF7DDFC002811
:10882000F8D1A36B002BF5D1606E05F0C7FC0030CA
:1088300018BF012010BD90F8693043F0010380F8A3
:108840006930704790F869306FF3000380F8693041
:10885000704790F8690000F00100704790F86930A7
:1088600043F0020380F86930704790F869306FF385
:10887000410380F86930704790F86900C0F3400008
:10888000704790F8713031B1C3F381023AB10332CD
:1088900062F3830301E043F00C0380F8713070470A
:1088A00090F8710010F00C0018BF0120704707B558
:1088B000036802A84FF47C5140F8043D0822FEF7FB
:1088C000DBFCC0B203B05DF804FB13B502680446DC
:1088D00002A80B4640F8042D4FF47C510822FEF705
:1088E000B5FC019B236002B010BD07B5036802A868
:1088F0004FF47C2140F8043D0E22FEF7BDFCC0B2CF
:1089000003B05DF804FB13B50268044602A80B46E9
:1089100040F8042D4FF47C210E22FEF797FC019BBA
:10892000236002B010BD07B5036802A8FF2140F81C
:10893000043D0022FEF7A0FCC0B203B05DF804FBCA
:1089400013B50268044602A80B4640F8042DFF2127
:108950000022FEF77BFC019B236002B010BD07B52F
:10896000036802A84FF4700140F8043D1422FEF79A
:1089700083FC000100F0F00003B05DF804FB13B5C8
:108980000368044602A8142240F8043D0B094FF482
:108990007001FEF75BFC019B236002B010BD00007C
:1089A000022810B5044604D9724604486921FFF72D
:1089B000D7F9034B53F8240010BD00BFE88502002F
:1089C000C4850200022810B5044604D97246044842
:1089D0006F21FFF7C5F9034B13F8240010BD00BF4A
:1089E000E8850200B885020002288CBF0020012023
:1089F0007047000010B50C46FFF7D2FFB0F5001F1E
:108A000005D9B0F5800F8CBF0223012300E00023BD
:108A100004EB44042344024A52F8230010BD00BF73
:108A2000D085020010B50C46FFF7BAFFB0F5001F65
:108A300005D9B0F5800F8CBF0223012300E000238D
:108A400004EB44042344024A52F8230010BD00BF43
:108A5000F88502000820704702289ABF024B53F89D
:108A600020004FF0FF30704710860200094B9842FB
:108A70000AD0094B984209D0084B984208BF0220FF
:108A800005D04FF6FF7002E0002000E0012000B2A8
:108A9000704700BF80841E0000093D0000127A006C
:108AA00007B502A8002300F8013D15F0D9FD9DF897
:108AB0000700003018BF012003B05DF804FB002060
:108AC00070470120704700207047000008B515F07E
:108AD000C9FA10B915F0CCFC0248BDE80840FDF712
:108AE00061BC00BF40420F0008B5FFF7EFFF034B2A
:108AF000C0EBC000B0FBF3F008BD00BF383303008B
:108B000008B5FFF7E3FFFDF765FC084B984208D96D
:108B1000074B984207D9074B984294BF1C2000206E
:108B200008BD092008BD122008BD00BF20A1070014
:108B300040420F0080841E00002814BF19203020FE
:108B40007047002814BF0A2020207047013838B52C
:108B50000C46072879D8DFE800F004252A39787810
:108B60005B473B4B1A683B4B1A6015F0E1FC10B1B8
:108B700004F00AFA69E0384B1B7883B1374B1A7856
:108B80001C4662B9FFF72EFC38B190F86A309B079B
:108B900005D40021FFF71AFCF6E70123237003F048
:108BA000F5FD52E02E4B186807F020F84DE02D4CF3
:108BB00023682BB972462C484FF44771FFF7D0F861
:108BC000206804F0BFFC002323603EE0254B002218
:108BD0001A6006F093FC08B906F044FD06F0C4FCE8
:108BE000BDE8384006F08ABC204B1A681D462AB9F9
:108BF00072461D4840F23D31FFF7B2F8FEF7CEFA5B
:108C00001B4B00221A702B681C441A4B1C601CE082
:108C1000194B1A781C462AB9724613484FF4517101
:108C2000FFF79EF800F077FD01F0AEFE134B144AFB
:108C300019781078134B19B9196810F09DFE02E0ED
:108C4000196810F05BFD00232370002038BD00BFC1
:108C5000BC100020D8100020C3100020DC10002021
:108C6000E0100020B04400201C860200D01000203C
:108C7000E4100020C8100020C4100020E5100020DF
:108C8000C0100020D410002010B50446FFF763F98F
:108C900088B12046FFF7A0FA082804460AD9FEF753
:108CA000EFFC073CFF23B3FBF4F4A0428CBF002091
:108CB000012010BD012010BD70B52C4B00241C708C
:108CC0002B4B86B005461C7005F0DAFB284603F0F6
:108CD00055FC04F04BF906F089FC06F06DFF1DB160
:108CE00000F070FD234B1C70FEF75AFA224C234E05
:108CF0002060FEF757FA224B1860FDF7B8F823689A
:108D0000204A1844204B106000241C701F4B1C602C
:108D10001F4B1C701F4B1C701F4B1C701F4B1C707B
:108D20001F4B1C70FDF7A3F81E4B18601E4B1860FC
:108D300085B11E4B019303238DF8083001A81C4B0D
:108D400003930494059412F0E1FC1A4B188011F07F
:108D5000F7FF30603068002112F040F81DB1154B6C
:108D6000188807F065FA06B070BD00BF24440020E3
:108D7000AC440020C1100020D0100020CC100020F6
:108D8000B8100020C8100020E4100020B0440020DB
:108D9000C2100020C4100020DC100020C3100020EE
:108DA000AF440020BC100020E0100020228602000A
:108DB000F1900000DE10002010B5044615F055FBC0
:108DC000034B18B114B102221A7010BD1C7010BDF3
:108DD000C210002010B50220FFF722FB044615F058
:108DE00099FB10B101F098FD0444201C18BF01202C
:108DF00010BD0000014B1868704700BFBC10002078
:108E0000014B1868704700BFD8100020014B0122A9
:108E10001A707047C3100020014B1878704700BFCC
:108E2000DC100020024A00231370024A13707047BE
:108E3000DC100020C310002040F62170704740F67F
:108E40002D307047024B1A6802441A6006F0AFBD1D
:108E5000BC100020014B1868704700BFE0100020D4
:108E6000024B1A68024B1A60704700BFBC1000200A
:108E7000E0100020014B1860704700BFE010002098
:108E800090F86A3043F0050380F86A30704790F834
:108E90006A306FF3820380F86A30704790F86A3066
:108EA0005B0705D590F873003F3818BF0120704765
:108EB0000020704790F86A3013F0050F0CBF0020B7
:108EC00001207047074B30B51C7884F001053CB990
:108ED00001241C70044B1870044B1960044B1A7069
:108EE000284630BDC4100020C0100020D41000203F
:108EF000E5100020014B1878704700BFC410002017
:108F000015F020BBF7B500F10806054630460C46C3
:108F10000DF074FA002838D02046FFF745FBA0B3C7
:108F2000D5F88C7015F0CCF987422ED030460DF074
:108F300059FC50BB30460DF073FA50B91B480F2155
:108F40000022FEF771F906462046FFF7A7FF30B969
:108F500026E030460DF03AFD0028EFD115E0FEB1D5
:108F600004F15400FFF7A3FCB042074608D9FEF70E
:108F700087FB36B2C6EB062696FBF7F7B8420FD84A
:108F800004F12C00FFF780FE50B1D5F88020284670
:108F900004F12C01002303B0BDE8F040FFF73EB818
:108FA000284603B0BDE8F04012F02AB87808002047
:108FB000F7B590F8903043F0010380F89030044604
:108FC000D0F880006FF07F43984252D0FFF710FA3C
:108FD0000646D4F8800001F045FD074615F09AFAE0
:108FE00010B1381C18BF0120C30767D5384601F0FF
:108FF000B7FF04F1080540B328460DF0FFF9083724
:10900000D0B128460DF00CFA30B915F059F9D4F862
:109010008C30984206D10FE028460DF0D7FC00288E
:10902000F3D109E02E4810210422FEF7FDF818B113
:109030003846FFF729FE10B12046394611E0204698
:1090400003B0BDE8F04011F0DBBF28460DF0D6F9C3
:10905000002841D028460DF0B3FB00283CD0214920
:109060002046D0F88020002303B0BDE8F040FEF792
:10907000D5BF04F1080630460DF06AFA28B17246F1
:10908000194840F27D21FEF76BFE15F0F1F9054617
:1090900070B930460EF070FE032809D115F03AFA87
:1090A0000028CCD0114B0F491A6820462B46DBE72D
:1090B000204603B0BDE8F04000F01CBC36B12046AD
:1090C000314603B0BDE8F040FFF71CBF204603B0B7
:1090D000BDE8F04001F0B2B8002EF0D1BFE700BF0C
:1090E00078080020A04400201C8602009885020019
:1090F000A24B2DE9F74F1A78002A40F03481A04D99
:10910000286811F095FE044608B32379032B0BD091
:10911000362B02D0012B16D111E004F10C00A1680E
:10912000627900F0A7FF0EE004F108000DF010FADC
:1091300028B1724693484FF40D71FEF711FE204698
:10914000FFF736FFDCE7204611F05AFFD8E7FCF7BF
:1091500080FE053080B2019007F0C8F8A146874A2A
:109160001378002B40F0FD80FBF7C2FDFCF77FFE7B
:10917000804600F62D3415F0E5F938B1824B1B68B6
:109180001B1B002B02DA204606F088FDFCF761FE6F
:10919000019A101A010403D508F5D230C730EAE06D
:1091A0007A4B1B78002B40F0B58006F0A7F9002819
:1091B00040F0B380764F3B681BB19B681B1B002BB4
:1091C00003DA204600F053FA38603E682EB1B568E5
:1091D00005F5AF2606F2C97600E0354606F08EF9B1
:1091E000002840F09A8006F083F918B306F02CFAB4
:1091F00008F5FD53083303EB000A15F08BF970B145
:10920000644A1278013A072A09D8634A1268CAEBFD
:109210000202002A03DA06F077F9032809E03A6827
:10922000002A7AD0CAEB0503002B76DA06F06CF937
:10923000022872D815F01CF950B115F079F940F6F2
:109240002D3345F2EC1200280CBF1046184605E0FD
:1092500015F060F90028514808BF0020DFF838B148
:109260003968DBF800A091B10AF62171491BC142AF
:109270000DD4CAEB0606002E0BDB15F04BF918B126
:10928000DBF80050012700E00327AA4603E001278E
:1092900001E0AA46032715F055F9E0B13A4D2E68D2
:1092A00015F038F943F22342002814BF93464FF0DB
:1092B000000B15F0DDF810B10BF2B64B03E015F022
:1092C00017F80428F8D0CAEB060616EB0B0F44BFBC
:1092D000D5F800A00227324A126802B3314A324957
:1092E00012680D683149161B002EB8BF0126087898
:1092F000B8BF0E70022F12D1CAEB0201E94206D4A8
:10930000002818BF92460CBF0227082707E09246A4
:10931000082704E0A246072701E0A2460427244AC2
:10932000C8EB020212EB0A0F0FD4FFF7CAFB38B1E9
:10933000B9F1020251425046514106F027FD8246E2
:109340006FF472630AEB030015E038462146FFF71D
:10935000FDFB20B103B0BDE8F04F06F0FFB8B94601
:10936000FDE6002007E0022A04BF01221A70FCF784
:109370007EFD00F1F07003B0BDE8F08FC210002058
:10938000CC1000201C860200E0100020C410002039
:10939000B044002024440020BC100020A870050028
:1093A000D0100020C8100020B8100020E4100020C9
:1093B00091D6FFFF07B502AB202103F8010D05226E
:1093C0001846FDF731FF10B912238DF807309DF8CC
:1093D0000720024B1A7003B05DF804FB78080020E8
:1093E000024B1A68824208BF19607047B0440020DF
:1093F00070B506460D46FFF745F930B1104BEA68E7
:109400001B689A4201D1002417E096F8580010F02A
:10941000B1FB0028F7D1287F10F0ACFB044660B9FF
:10942000214630460AF0E0FF2946064620460AF06B
:10943000DBFF864294BF00240124204670BD00BF9C
:10944000A843002010B50446806AD0B108300CF063
:10945000D5FF88B1A06A04F079FE20B1606EA16AE0
:1094600004F07CFE0BE0A36A03221A71084BA16A88
:10947000186811F0B3FC02E0A06A11F0C1FD0023EE
:10948000A362A06B18B111F0BBFD0023A36310BD54
:109490005422002073B5436E019390F86A301B0785
:1094A00004460E4602D502200BF086FE2046FFF74A
:1094B000F5FC0146606E09F0E7FD94F86830DB09C1
:1094C00002D1204606F0E8F90025204684F84450F1
:1094D00084F84550A4F86C50FFF7B4FF04F12C0059
:1094E000FEF77CFE0D4B1A68A24208BF1D6094F87F
:1094F00073303F2B03D0606E012106F095FA16B150
:109500002046FEF737FF019804F058FE014610B1DF
:10951000019804F023FE02B070BD00BFB0440020EB
:1095200070B5184B05461B68C06898420E4603D1BB
:109530000846FFF75FF801E0FEF75AFF0446E0B97E
:10954000E8683146FFF76AF8044698B9FEF74AFF23
:10955000044690B129462046FFF74AFF01462046BF
:1095600029B100210222FFF795FF204602E0FEF715
:109570002DFFEDE72946FEF7ACFF034B00221A60F2
:10958000204670BDA8430020B04400200148FEF7EB
:10959000B1BE00BFE19300002DE9F843804691F889
:1095A00072008F684E680C46FFF7FAF905462946A7
:1095B000606F00F00FFFC0EB05090025A168C8EB44
:1095C0000102002A3FDA94F86A20C2F34213013301
:1095D00003F0070363F347126FF30412032B84F8BD
:1095E0006A2026DD2046FEF7E5FF60B12046FFF742
:1095F00061FCB0B194F86A305B074CBF2920282089
:1096000009F012FF0DE0B4F85C50FCF722FC303595
:10961000281A0204EAD494F86A305B09072B08D1AF
:10962000E4E7204601210022FFF734FF0220BDE8D5
:10963000F883A36863604B44A36004F114000FF047
:10964000E3FF0125BAE7C91B94F84400002206F0A5
:10965000A9F9616884F84400891B94F84500002248
:1096600006F0A0F984F845002846BDE8F88370B5F7
:10967000064600240120FEF7B5FE0546002848D026
:1096800030462946FFF788FF0228F3D0002C3AD055
:1096900020462946FEF708FFAA68A36868B3D01AD7
:1096A00000F5AF2101F2C97100292CDB03F5AF23CE
:1096B00003F2C9739B1A002B26DB94F86A2095F8F5
:1096C0006A3012F0040F01D159071CD4D10701D41C
:1096D000D90718D4520906D15B0914D134EA200401
:1096E00028BF2C4610E05B090ED093420BDC0BD157
:1096F00013F0010F18BF2C4606E0D31A34EA2304F6
:1097000028BF2C4600E02C4628460121FEF75EFECD
:10971000B3E7204670BD08B50120FEF763FE20B117
:1097200001210522FFF7B6FEF6E708BD90F86A00B2
:109730005F2894BF00200120704770B505460830AF
:109740000C460CF08DFD064604F108000CF088FD77
:10975000864203D086F00106F0B270BD284621464D
:10976000BDE87040FEF703BC10F1910F70B51CD03E
:10977000002300EBD304591C94F8916003F0060514
:10978000012400EBD10204FA05F52E4292F8912053
:1097900005D001F0070104FA01F10A4003D00233B9
:1097A000222BE6D101E0104670BD90F891309B0667
:1097B00003D4034B1A88013A1A80012070BD00BF00
:1097C000F410002008B50648FEF704FD04F036FC4E
:1097D00008F014F808F076FA024B00221A8008BD4F
:1097E000E8100020F410002070B5044664000C4816
:1097F0000D46E608FDF784FF04F00604012303FA92
:1098000004F460B1831993F89120224204D135B158
:10981000144383F8914070BDFDF772FFF1E770BD0E
:10982000E810002038B50D46044620B972462E488F
:10983000A121FEF795FA022D11D194F891309B06E3
:109840000DD42A4A1388013B9BB213804FF6FF7256
:10985000934204D172462448A921FEF781FA690097
:1098600004EBD103012293F8915001F0060002FAB3
:1098700000F01144284383F8910004EBD10301F078
:1098800007018A4093F891100A4383F8912000233E
:109890005A1C02F0070004EBD202012592F8911045
:1098A00005FA00F000EA010204EBD30191F89100FF
:1098B00003F0060105FA01F1084213D092B1023318
:1098C000222BE5D121460A48FEF70EFC204600F087
:1098D000A5FC204608F088FA20462946BDE8384015
:1098E00015F08ABB38BD00BF26860200F4100020A8
:1098F000E81000201A4B1B491A681B4B10B5044690
:10990000FEF78CFB052204F1910000211DF0EFFE13
:10991000164A138801339BB2138023B97246144848
:109920005D21FEF71DFAFFF7CCF818B92046022199
:10993000FFF778FF04F108000CF0D3FA20B12046BD
:10994000BDE8104008F090B804F04EFC08F068F84C
:10995000204604F069FD2046BDE8104008F0B8B983
:1099600098850200E81000203B970000F4100020CA
:109970002686020008B504480449FEF7D7FBBDE877
:10998000084008F057BA00BFE810002069970000AF
:1099900011207047022870B5044602D10D4B18887B
:1099A00070BD0D4864000134FDF7AAFEE5080126EC
:1099B00004F00704A640002448B1431993F89130FD
:1099C000334204BF0134A4B2FDF79AFEF4E7204607
:1099D00070BD00BFF4100020E810002000B901485D
:1099E000FDF78EBEE810002038B50D46044628B9B4
:1099F000724610484FF4A371FEF7B2F9690004EB08
:109A0000D102012392F8915001F0060003FA00F010
:109A1000194404EBD10425EA000082F8910094F87F
:109A2000912001F007018B4022EA030384F8913072
:109A300038BD00BF2686020038B5074B05460C46E8
:109A40001A680649064BFEF7E9FA28462146BDE8A2
:109A50003840FFF7C9BF00BF98850200E81000201A
:109A60003B97000030B5054685B0C068FEF7C0FCE6
:109A70002B7A5A1E072A044607D9002849D001210B
:109A80000422FFF707FD002059E0D0B921462846FF
:109A9000FFF746FD044600283DD12B7A8DF80A30A9
:109AA0002B6801936B7F8DF80B30AB7F8DF80C30FA
:109AB00001A895F821308DF80E30202105F04AFEDE
:109AC00027E090F844209A4202D0606E09F066F8D0
:109AD0002B68A36094F86A306FF3041384F86A303B
