:020000040000fa
:10000000e8ff0020090400007104000071040000f2
:10001000710400007104000071040000710400000c
:1000200071040000710400007104000071040000fc
:1000300071040000710400007104000071040000ec
:1000400071040000710400007104000071040000dc
:1004000006000000000000001049086800281bd00a
:100410000f4a90470d490868002815d00d4a012061
:1004200010600d4a11600d49012008600c4a00203f
:100430001060082008600b4a10684008fcd2054a8a
:10044000002010600848004708480047fc41e00fc2
:10045000ef05000008000e4010000e400c000e409a
:1004600018000e401c000e40710400009d040000a6
:10047000bff34f8f054906480860bff34f8f05490a
:1004800005480860bff34f8ffee7000000500e40a4
:10049000444400000ced00e00400fa0500b5444ab5
:1004a0004448801a91b020f0030000231446834290
:1004b000414a03d0d158e1500433f8e73f4940485e
:1004c000401a134420f003000022824203d000248b
:1004d0008c500432f9e73b493b4c641a24f0030486
:1004e0000022a24203d0985888500432f9e7374ad4
:1004f0003749891a21f0030100238b4207d00020dd
:10050000d0500433f9e7d3f89020940705d4314b49
:10051000d3f84021d501fad4f5e72f4a5468516841
:1005200021f0407141f0807151602c4a1d69d2f870
:10053000b0201a6101f0dafc01f030fc00f056f84e
:1005400000f09cfb00f06cfe00f098f908b100f0a0
:1005500085fa204bd3f84021d001fad4d3f890206b
:100560009107f6d51d611b4bd3f84021d201fad477
:10057000d3f890309b07f6d5174b01215c60684695
:1005800000f050fc009801a900f0fafb20b9039b91
:10059000134843f001039847bff34f8f114a124ba2
:1005a000d16801f4e0610b43d360bff34f8ffee7e6
:1005b0000000002020010020f02200002001002087
:1005c0002802002000040020080400200c04002061
:1005d0005827002000400e4000000e40b081e00f80
:1005e0009021000000ed00e00400fa05704770471c
:1005f0000020704703207047032070470320704796
:100600000020704703207047054b5a6842f01002e3
:100610005a6003f5a04344f244421a60704700bf99
:1006200000000e4010b500231a464ff0ff31c45ca5
:100630008c4218bf00220132042a04d00133102b4f
:1006400003d02146f3e7002010bd012010bd0000bb
:1006500008b501f071f8bff34f8f054a054bd1681b
:1006600001f4e0610b43d360bff34f8ffee700bf9f
:1006700000ed00e00400fa051fb5436a994202d379
:100680004ff0ff301ee0c269531c1ad0036b994231
:1006900004d2013b591a8369585c13e0cb1a0b4909
:1006a00000208de803000a49013a0868d21a0df1ca
:1006b0000f01012300f0e1fb0028e1d19df80f00bc
:1006c00000e0002005b05df804fb00bfa08601003b
:1006d0006414002038b5026a836a9a42044602d341
:1006e0004ff0ff3038bdc36a0f2b11d90c48616938
:1006f000102200f0e3fd05460028f1d11023206907
:100700000749224601f00cfc6369e562103363611e
:10071000236a01332362e36a5a1ce262e05c38bd5b
:1007200058170020f7b5134b134e05461446002208
:100730008de80c0030682a4623460f4600f00cfc7a
:1007400008b1002013e00d4b0090019330680c4974
:100750003a46234600f091fb0028f2d1284608498a
:10076000224601f0b5fcd0f1010038bf002003b0f3
:10077000f0bd00bf20a1070064140020a086010086
:1007800058170020c369013310b5044616d0036b17
:100790008269581c2063d154626b236b93420dd342
:1007a000a069e169fff7beff10b9a36b0133a36332
:1007b000e269636b1344e36100232363636a0133db
:1007c0006362002010bd0000f0b51e46244b9fb0b0
:1007d00007460c4618686946154600f0d1fa20b164
:1007e0006b1c36d14ff480530493049b1d4914971e
:1007f000b3f5805f84bf4ff4805304931a4b139377
:100800001a4b1593236819934ff0ff3300221a9364
:10081000049b179218921b921c931d92144b154a1d
:1008200016950fa801f0f4f9134a1d9b116819449d
:10083000116080b91b9820b10fa8ff21fff7a2ff1c
:10084000f8e7189ab24208d8169b013306d0226006
:1008500004e0082002e0052000e006201fb0f0bd03
:100860006414002085070000241400201c040020cc
:1008700079060000d50600001c1400202de9f04f79
:10088000544b554a554e1360803391b03360544bee
:1008900000220df113001a6000f02afc002840f03d
:1008a00095809df813305a1e012a40f28f80052b47
:1008b00000f08c8009a800f0d9fe002840f0868066
:1008c0000d9b002b40f082800e9c621c7ed1fff7b6
:1008d0009bfe9df81330032b08bf022002d0042b8f
:1008e00002d10320fff7b4fe3e4b3f4f3f4d202186
:1008f00019600b9ba3f1300038603d483022026044
:100900002a603c4a402010603b4a3c48403b136010
:10091000102200f0d3fc002858d12d68d7f800a091
:10092000d6f800900395054609eb451000f054fffa
:10093000baf5805fddf80cb094bf0027012756465a
:100940005eb1b6f5805f34bfb0464ff480582c4896
:100950005946424600f0b2fc58b105a8274910227a
:1009600001f0b6fb002808bf2c4601351c2ddbd159
:1009700011e0b6eb0806c34402d1022f08bf0327db
:100980000197cdf80080002005a910221c4b01f032
:1009900007fa0227d4e7631c10d009eb4419484634
:1009a000fff740fe40b109f11000fff73bfe0028c1
:1009b00008bf4ff0ff3401e04ff0ff34114b1c60d3
:1009c000013408bf04208dd0012000e0002011b0c8
:1009d000bde8f08f003800000c04002070140020e7
:1009e0001c14002068140020741400206c140020d3
:1009f00010040020140400201804002054140020c7
:100a0000581700202014002070b5124e94b00546ef
:100a100001243068039405a900f0b2f9a8b9b5b172
:100a20000a9b0490013d5b421d40049bab424ff08a
:100a300001000dd8084b03900093306804a903aa65
:100a4000002300f0e0fa0028efd0002000e020466c
:100a500014b070bd6414002040420f002de9f04f27
:100a6000734b74481968c3b0102200f027fc0028ab
:100a700040f0db80704b71481968714b6d4a1b6800
:100a800003eb4111103100f092fe6e4bd3f8008061
:100a90006d4b1e68002e44d003a84146102208f179
:100aa000100900f00bfc002837d10f2e37d9049b1a
:100ab00003f11002964232d3069a002a2fd15f4ddd
:100ac00002930fcd18ac0fc40fcd0fc495e80f00e3
:100ad00084e80f005d4c0398206024a900f050f9d1
:100ae000002835d133a8259f00f0c0fd60bb9df8dc
:100af000e430f3b1484602a94ff0ff323b46fff71e
:100b000063fe834670b92368dff840a1013300f02b
:100b100087803846fff778fff0b9082002e0072009
:100b200000e030464a4b1b68002b18bf0120fff73e
:100b30008ffd9df8ca30022bdcd1359b203fff1a78
:100b4000299b5a421740d5e74ff0ff332360d1e786
:100b50004ff0ff372760cde718ad0fcd374c0fc4ee
:100b60000fcd0fc495e80f0084e80f00484602a996
:100b70005a463b46fff728fe0028d3d19df8c930de
:100b8000002b4dd011a800f071fd139bdaf8000086
:100b90000990203b0793bdf85030adf820309df808
:100ba00052308df822309df853308df823309df867
:100bb00014308df828309df815308df829309df8c7
:100bc00016308df82a309df817308df82b3033a968
:100bd000029b0b9300f0d4f810bb349b232b1fd93e
:100be0001c4bdaf8000001228de80c000ca9102241
:100bf000142300f042f998b90cab11aa934204d225
:100c000013f8012bff2af8d00ae009d107a8102118
:100c10001422fff787fd18b90d4b1a6801321a60cc
:100c2000049b10339844f61a34e743b0bde8f08fc4
:100c30001004002078140020201400202414002028
:100c400070140020140400201804002064140020f4
:100c50001c140020a0860100074b014603f180020e
:100c600018469b688b4205d000f110039342f7d1e0
:100c70004ff0ff30704700bf0038000010b501f0a2
:100c8000e3f90446fff7b4fc002c18bf204610bd62
:100c9000e0b51d460f461646fff7deff431c0fd09a
:100ca000436872199a420dd8c368016813f0020fa5
:100cb0000ad1384631442a46bde8e04001f0d0b9b7
:100cc0000520e0bd0420e0bd384631442a46fff748
:100cd00091fce0bd70b51d460c461646fff7bcff03
:100ce000431c0fd0436862199a420dd8c36800684c
:100cf00013f0020f0ad1204431462a46bde8704065
:100d000001f016ba052070bd042070bd20443146a4
:100d10002a46fff771fc70bd73b50e461546fff706
:100d20009bff326803681344421c0446019308d0b9
:100d30004db1c3689b070dd401a8294601f0f0f915
:100d400002e0052000e004202268019b9b1a33602a
:100d500002b070bd01a82946fff750fcf4e708b5c2
:100d6000fff77aff421c05d0c3689b0704d5fff745
:100d700047fc08bd002008bdbde8084001f07ab975
:100d8000f0b58db00c46fff767ff421c054606d054
:100d9000c3689b0705d501a8fff734fc04e00520d4
:100da00026e001a801f068f9ab6823606b68636016
:100db0002b68a360074601ae04f10c030df12c0c67
:100dc000324603ca624518605960164603f10803ab
:100dd000f6d110681860eb68c3f3400284f838203d
:100de00003f001029b0884f8392084f83a30384631
:100df0000db0f0bd30b50023094c04eb0314dab29a
:100e0000a468651c09d00d78954288bf40f823403e
:100e100001330132082bd2b2eed10a7030bd00bfcf
:100e200000380000f0b599b008238df803304ff07a
:100e3000ff33036005460f4601a80df10301fff7dc
:100e4000d9ff00249df80330e6b2b34212d918aba3
:100e500003eb860609a956f85c0cfff791ff38b939
:100e60009df85e30bb4203d156f85c3c2b6002e03b
:100e70000134e7e7012019b0f0bd2de9f04f91b042
:100e8000894601a9804692469b46fff779ffe8b95b
:100e90009df868600e9f1b9c0136bc4238bf3c46e3
:100ea000f6b24046494652465b46fff7f1fe05461c
:100eb00038b94046fff753ffe41b10b1002cf8d1be
:100ec0000625013e16f0ff06ebd1284611b0bde81d
:100ed000f08f000030b589b005460c46fff7bcfe28
:100ee000431c33d0c368d90701d401202fe0194b2c
:100ef00001228de80c00284603a910221423fff7d5
:100f0000bcff20bb039b002befd013f00f00ecd1f4
:100f1000059a0132e9d09df81850ff2de5d09df8d3
:100f20001910ff29e1d09df81a20ff2addd02033c7
:100f30002360bdf81030a3809df81230a3719df896
:100f40001b30e57121726272a37200e0052009b0c6
:100f500030bd00bfa08601002de9f04f95b00c46d2
:100f60001d4605a99df87830019092460393fff73e
:100f700007ff0746002842d1ddf848901f9b4b45ec
:100f800038bf4b460293002d39d0099bddf80c8009
:100f9000029ec3f1000c04ea0c0c9c442b1963451f
:100fa0008cbfc4eb0c0bab465b4601982146524606
:100fb000fff790fe034660b901980093fff7cffe5c
:100fc0004e45009b14d3c9eb060610b1002ef3d199
:100fd000062308f1ff32b8f1000f01d09046e3e795
:100fe00023b95c44da44cbeb0505cce71f4606e0a9
:100ff00000284ff000060cbf33460623e9e73846c9
:1010000015b0bde8f08f2de9f04790b0894601a9f1
:10101000804692461e46fff7b3fed0b90e9f189c3d
:101020000136bc4238bf3c46f6b2404649465246bd
:10103000fff772fe054638b94046fff790fee41b05
:1010400010b1002cf8d10625013e16f0ff06ecd1b8
:10105000284610b0bde8f087044a00231370044a04
:101060001360044a1360044a13707047a001002003
:10107000c001002020010020bc01002030b5174b2a
:1010800091b0186801a9fff77bfe28bb144a059ba5
:101090001360144b144c1b78144a02991bb10020a6
:1010a0002060116018e0039800f110030069002827
:1010b000f5d010f00f00f2d19d680135efd01d7b07
:1010c000ff2decd05d7bff2de9d09d7bff2de6d081
:1010d0001b692360cb1a136011b030bdc80100201a
:1010e000b8010020b401002094010020d0010020ac
:1010f0002de9f04f3f4e89b033780390002b6ed12d
:10110000052333703c4b1b78002b6ad13b4bdff837
:1011100004a13b4c0194012700971a68daf80000fb
:1011200004a91023fff7a9fe054600285ad1354827
:1011300004a9102200f0ccff08b102234de0dff833
:10114000d890dff8d88000970194daf80000d8f83a
:10115000002049461023fff790fe0546002841d1a4
:10116000d9f80040284ba4f140029a4201d8210747
:1011700001d0032331e0d8f800304ff6ff78c4ebfc
:10118000030b1f4bdaf8000020490022702c34bffb
:10119000274670278de80c005a463b46fff76dfe48
:1011a00088b9bb44e41b0346184a4046d15c02930d
:1011b00000f036fb029b0133bb428046f4d3002c87
:1011c000dfd1034601e04ff6ff73114ab9f80480fe
:1011d0001360434514bf04230623337002e0002547
:1011e00000e007253378039a2846137009b0bde85c
:1011f000f08f00bfb5010020a0010020c401002035
:10120000a086010041210000c0ff0f002401002042
:1012100098010020c8010020a40100209c010020aa
:1012200038b51d4c1d4d20460421fff7fbfd30b99c
:101230002368013303d01a4b01221a700ae0164cbe
:1012400002212046fff7eefd40b92368013305d0a7
:10125000134b1870fff712ff044618b105232b70cb
:10126000012416e00f4b104a1b6812680f491a44fc
:10127000a2f1100008600e49203a0a600d49d31a05
:101280000b60fff7e9fe0c4b04481c602c70fff765
:101290002fff204638bd00bfc8010020b501002047
:1012a000b401002094010020d0010020c4010020de
:1012b0009c010020cc010020980100202de9f3477b
:1012c000324b0c461b783249154606460a68894659
:1012d000002b52d12f49097806294ed12032944251
:1012e0004dd2121baa424ad3002848d01f2c31d815
:1012f0000093dff8b480284b284fdff8a8a0cdf882
:1013000004a01a68d8f8000039461023fff7b5fd8d
:10131000002837d18de80104214bd8f800001a6865
:1013200007f110011023fff7a8fd58bb4ff0004351
:10133000c4f12008a84528bfa846bb614ff0ff3381
:1013400030463919fb61424600f0d1fe4444c8ebf7
:1013500005054644adb1124b1a68d9f80030203a61
:10136000d21a104b00218de80a000f4b3146186845
:1013700022442b46fff781fd04e0072002e0042011
:1013800000e0284602b0bde8f08700bfa0010020c1
:10139000a4010020b5010020c40100202401002088
:1013a0009c010020a0860100c8010020f0b51a4d64
:1013b00095b0044605a92868fff7e2fc174b1a7898
:1013c000012a1e4624d0164b0a9a1f68154b1b682b
:1013d000524213400f3703931740039bbb420ed872
:1013e0000123049304b1a0470f4b0093286803a97d
:1013f00004aa0023fff707fe0028eed009e00b4bfc
:1014000000241c6001233370fff726fe204600e015
:10141000002015b0f0bd00bfc8010020b5010020bc
:10142000c40100209401002040420f0098010020d8
:101430006f2838b504460d4601d8012038bd030792
:10144000fbd1094b1b689842f7d81046fff7aeff57
:101450000028f2d1054b01221a70054b1860054b8c
:101460001c60054b1d7038bdd0010020a00100207c
:10147000c001002020010020bc0100202de9f04f18
:1014800015466d4a1c46137885b0064688461bb93a
:10149000fff7e2fd03230ee0684f3a689042ba4638
:1014a00003d0fff7d9fd0426c1e015f0030c05d0e9
:1014b000fff7d2fd052323700426b9e0702df7d87d
:1014c0005f4ad2f800b05845ebd8c0eb0b02aa42f5
:1014d000eed319b9fff7c0fd0723ece7012b6bd161
:1014e000584b0293c0f12009a94528bfa9461818f6
:1014f0004e444a46cdf80cc000f0f9fd1f2e3e6068
:10150000029bddf80cc003d884f800c066468fe06b
:1015100018464d490293102200f0dafd029b18b1e3
:10152000fff79afd06237ce01b69484a454fa3f16b
:1015300040019142f4d81907f2d1ba6932f0004261
:10154000eed1f9690131ebd120339b45e8d14ff061
:101550000043bb613e4bdff80cc11b78bb753d4bb4
:10156000dff804b11a703c4b0092cdf804c0196842
:10157000dbf80000cdf80cc03a461023fff7ecfc76
:10158000ddf80cc0002833d18de80110334bdbf8b7
:101590000000196810373a461023fff7ddfc38bb0e
:1015a00097e80f00dff8b8c08ce80f00224a02234a
:1015b0001370c9eb0505c84415b925702e4637e0f0
:1015c00041462a461f4800f092fd244b1968244bdf
:1015d0001b682039c91a234b00228de80c00224bce
:1015e000184a186831442b46fff7b6fc064608b186
:1015f000082316e0daf80030114a164f1d4413682c
:1016000038709d42caf8005011d1fff725fd3846c9
:101610003e70fff76dfd064610b93b78062b03d0f0
:1016200002232370012603e00123237000e02670cb
:10163000304605b0bde8f08fa0010020c0010020b9
:10164000200100202401002041210000c0ff0f00e4
:10165000bc010020b5010020c40100209c01002035
:10166000a401002020a10700c801002030b5164dbc
:10167000044691b0fff702fd2b682360134b1a68f4
:101680002032a2609a88a2819a79a2739a68226114
:10169000da68db79e3730e4b62611b7823760d4bbe
:1016a00001a91868fff76cfb10b14ff0ff3307e09a
:1016b0000a9b0d9a29681a44069bb1fbf3f3534326
:1016c000636011b030bd00bfd0010020a401002034
:1016d000b4010020c801002070b5134b88b00df193
:1016e0000f001d68fff704fd0446c8b99df80f30d0
:1016f000062b15d10d4b9a689ab10fcb08ae06e9af
:101700000f0032460a4b42f8084d0193094b0094f2
:10171000186805f108010423fff71efc044600e0e9
:101720000724204608b070bd9c010020a4010020c1
:1017300020a10700c801002070b50f4b1c680f4b9b
:10174000da680132054686b018bf072011d10fcbe9
:1017500006ae06e90f000a4b3246002142f8045d4e
:101760008de80a00074b04f10c0118680423fff709
:10177000f3fb06b070bd00bf9c010020a401002057
:1017800020a10700c801002010b50f230022cc5c67
:1017900042ea4402c254ca5c13f1ff334fead21248
:1017a000f5d21ab1c37b83f08703c37310bd30b584
:1017b000034601f1100451f8045b43f8045ba142b5
:1017c000f9d1103002f1100352f8041b40f8041b49
:1017d0009a42f9d130bd000030b50d4c0d4d85b0a9
:1017e00001462a462046fff7e2ff29460a4d6a468f
:1017f0001023204600f094fb284604f12001fff757
:10180000c3ff06482946fff7bfff05b030bd00bf44
:10181000f40100209c210000d4010020e4010020fc
:1018200040ba83b25940c1f303134b4083ea0333f8
:101830009bb2d8b283ea40107047f0b5036889b014
:10184000002500245c530235202dfad1944208da99
:1018500031f9145033f81560013623f8156001345e
:10186000f4e7b3f9004094422ed0002501245e191c
:10187000b6f90260d6eb440428d402351e2df6d109
:101880000025adf8025000ae2e445f190235b7f8be
:1018900002c077881c2d6744b780f4d1002393429f
:1018a00014da31f813606eb108ad36b205eb4606b6
:1018b000476836f8205c05f1010c2db226f820cce3
:1018c00027f815300133eae7002000e0204609b090
:1018d000f0bd70b5056904460e466369b34210da7f
:1018e000a36820689847002804da04f11800012151
:1018f00000f00cfc6369c2b29a400833154363617f
:10190000ebe7012025fa06f29b1b00fa06f6701e93
:1019100022616361284070bd2de9f84f04460a68d2
:101920000069636900268a4602f102083746b1461b
:10193000012523b300f00102b8f900c042ea090210
:1019400008f10201cceb0208b8454fea50000dda6d
:10195000636920615b1b03f00703d71b63613e448f
:10196000daf8043033f91600bde8f88f6744013b1c
:1019700066447f004fea420901358846d9e7d5f130
:10198000100b10d0a26820689047002804da04f1f8
:101990001800012100f0bafbc0b2bbf1080fb4bfc0
:1019a0005b460823c5e76ff00900bde8f88f00002b
:1019b0002de9f84304460f46904639462046fff786
:1019c000abff011e49dbff290adc6568002df4d05e
:1019d0002068c9b2a8470028efda0120bde8f883e3
:1019e000b1f5807f02d10020bde8f8836ff48073e9
:1019f000cb181c2b34dc204a32f913601f4a2046d6
:101a000032f91310fff765ff414606442046fff701
:101a100083ff051e28db1a4b33f91590194b20461e
:101a200033f91510fff755ff6368814493b9b5f595
:101a3000807fc2d1d7e709f1ff31e368206898477a
:101a4000011e14db94e80900c9b29847002806f18a
:101a5000ff36c2db002eeed1e9e70846bde8f88389
:101a60006ff00900bde8f8832846bde8f8836ff001
:101a70000a00bde8f88300bf842200004a2200006b
:101a8000ac210000e82100002de9f047adf5a86d7c
:101a900004ab009323ab01930cab0293052114ab71
:101aa00005460393fff715ff052100f201172846ad
:101ab000fff70fff042100f101082846fff709ff97
:101ac000b7f58f7f00f1040900f38880b8f11e0f8d
:101ad00000f3848000264e45b2ac0ada4b4b284610
:101ae000032133f916a0fff7f4fe013624f81a009b
:101af000f1e7122e07dc454b33f91630002224f8ab
:101b000013200136f5e7684621461322fff795febc
:101b1000002866d1064607eb08094e4534da284608
:101b20006946fff7f9fe00286cdb0f2803dc721c06
:101b300024f8160026e010280ad1002e54d0731e77
:101b40002846022134f913a0fff7c3fe03300de04d
:101b50001128284604d10321fff7bbfe033003e020
:101b60000721fff7b6fe0b304ff0000a32184a4546
:101b70003ddc04eb46060023834203d026f813a085
:101b80000133f9e71646c6e7b4f9003293b3684665
:101b900021463a46fff751fe002808d02ddb009b76
:101ba000b3f90020b3f9023013449f4225d102a8b3
:101bb00004eb47014246fff740fe002808d01fdb38
:101bc000029bb3f90020b3f902301344984517d1b2
:101bd0002846694602aafff7ebfe13e06ff0020009
:101be00010e06ff003000de06ff004000ae06ff00a
:101bf000050007e06ff0080004e06ff0060001e068
:101c00006ff007000df5a86dbde8f08724220000f5
:101c1000f0b5adf52f7d0190049307a80023029144
:101c200003920593069300f06bfa002840f0a18020
:101c3000012101a8fff74dfe0221044601a8fff78c
:101c400048fe00283cd105900690039b01989847d8
:101c5000061e01da022087e0039b01989847051ec3
:101c6000f8db039b01989847071ef3db039b019861
:101c700098470028eedb80b2ffb2adb2f6b247ea79
:101c8000002746ea0525ff43adb2bfb2bd4214d1dd
:101c9000029b0bb9002067e0002dfbd0039b01984d
:101ca0009847011ed6db029b0198c9b29847013db7
:101cb0000028adb2f0da012056e06ff0010053e0e9
:101cc00001284cd12e4b1b68002b42d02d4b2e4aa5
:101cd0001a602e4a5a602e4b2e4a1a602e4a5a60bb
:101ce00000231eaa082199520233b3f5907ff8d140
:101cf00000231eaa1a4402330921e02ba2f8201166
:101d0000f7d100230233322b05d0aeaa1a440721a3
:101d100022f8421cf6e700230233122b05d0aeaaac
:101d20001a44082122f8121cf6e716481ea94ff49f
:101d30009072fff782fd00231ea905225a5202333a
:101d40003c2bf9d11e221248fff777fd0c4b0022e5
:101d50001a6001a80b490e4afff72afe04e0022888
:101d600009d101a8fff790fe38b9002c3ff460af0d
:101d700003e0022001e04ff0ff300df52f7df0bdb4
:101d8000000400208814002098140020f41400207f
:101d90009014002034170020b81400207047000071
:101da0002de9f84f07464ff480709a4689469046d1
:101db0000a9d9df82cb000f01df9454801230360f1
:101dc000bff34f8f434e444c00233360736023684e
:101dd000736263687362a3687362e3687362bbf1e2
:101de000010f844638d817b92762676203e03b6861
:101df00023627b6863620023a362e3622ce00a46ed
:101e000016f8011b02f8011ccaeb06079f4202f1fb
:101e10000101f4d34db3314b03f1100753f8041b08
:101e2000da684a402b4943f8042cbb42c1f88020b1
:101e3000f4d105238b600b69264a9b07fbd4d2f8ab
:101e400080302362d2f880306362d2f88030a3629f
:101e5000d2f88030e362b24645b3102d34bf2b4632
:101e60001023ed1a1e495646c9e7bbf1000f02d0f8
:101e7000bbf1030fcfd1d3f110010ad0802313702f
:101e8000002301338b4202d00027d754f9e71549cc
:101e900000e015490023e718ca583869043380ea7e
:101ea000020e102bc7f810e0f5d1b4e7ccf80050c3
:101eb0004ff4807000f0b2f8454506d0631993f8ee
:101ec000203009f805300135f6e7bde8f88f00bf8e
:101ed0000016c84300000f40f40100200402002057
:101ee00005020020e4010020d401002007b50948c4
:101ef000fff772fc084b09499b6c1b0c00209b02ee
:101f00000093019004224ff00053fff749ff03b004
:101f10005df804fb9c210000b081e00f0804002064
:101f20002de9f04104464ff4807017461d460e46d9
:101f300000f060f82d4a01231360bff34f8f2c4b44
:101f4000002119602168596261685962a16859626b
:101f5000e16859629446002d3fd0254b2269c3f8b1
:101f60008020d4f81480c3f88080a169c3f8801061
:101f7000e269c3f880200520986020690130206163
:101f800040b908f10103636123b94b1ca3610bb98c
:101f90000132e261164b186910f00200fad1d3f851
:101fa00080202262d3f880206262d3f88020a2626f
:101fb000d3f88030e362102d34bf2b46102304f198
:101fc0002008ed1a18f80010325c4a403a540130eb
:101fd0009842f7d106440744bde7ccf800504ff4cf
:101fe0008070bde8f04100f019b800bf0016c8438a
:101ff00000000f4072b6074b1a6801321a60064a99
:102000001168084310601a68013a1a601b6803b926
:1020100062b67047541700202402002072b6084ba5
:102020001a6801321a60074a116821ea000010603c
:102030001a68013a1a601b6803b962b6704700bf9c
:102040005417002024020020044b41f671321a6418
:102050009a6822f001029a600020704700000e404a
:1020600010b5eff3108472b600f041f804b962b60f
:10207000002010bd00207047134a70b50346054686
:1020800002f12806144603ccb44218605960224677
:1020900003f10803f6d1206818600c4b9a6c596b59
:1020a0005b6b92b2090e1b0e92020a310a332a6050
:1020b00003f01f03012201f01f0102fa01f19a400f
:1020c0006960aa60002070bdc0220000b081e00fee
:1020d00030b50023934208d0c55c0133cc1814f806
:1020e000014ca542f6d0281b30bd002030bd10b5f4
:1020f0000023934203d0cc5cc4540133f9e710bdf4
:10210000ec46a0e8f05f4ff000007047b0e8f05fe9
:10211000e546080008bf0120704700bf000000002e
:1021200001b40248844601bc604700bf9100002012
:1021300001b40248844601bc604700bf0100002092
:1021400000534352319a933082d9eb0afc3121e398
:1021500037000000f1100000bd120000ad130000b8
:10216000311400007d1400006d160000d916000027
:10217000910c0000d50c0000190d00005f0d00004f
:10218000810d0000f50d0000250e0000d50e0000a9
:102190000600000070210000542100000000000033
:1021a000000000000000000000000000010002002c
:1021b000030004000500070009000d0011001900cc
:1021c00021003100410061008100c1000101810155
:1021d00001020103010401060108010c01100118ac
:1021e00001200130014001600000000000000000fb
:1021f00001000100020002000300030004000400cb
:10220000050005000600060007000700080008009a
:10221000090009000a000a000b000b000c000c006a
:102220000d000d0010001100120000000800070052
:10223000090006000a0005000b0004000c00030062
:102240000d0002000e0001000f0000000000000061
:10225000000000000000000000000100010001007b
:10226000010002000200020002000300030003005c
:10227000030004000400040004000500050005003c
:102280000500000003000400050006000700080028
:1022900009000a000b000d000f00110013001700c9
:1022a0001b001f0023002b0033003b0043005300a2
:1022b000630073008300a300c300e3000201000079
:1022c00000001000000800000008000004000000ea
:1022d00000000000000000000000000052000000ac
:1022e00002a00000ba880000020000000000000008
:1022f00040ea020313f00303f7b5064638d192080b
:10230000eff3108772b61d48846844f001048460be
:1023100093421a4c25d206eb8300c0f30a0c012528
:10232000ccf5006c20614fea9c0ce560d41aa44502
:1023300028bfa44663440024644501eb84000ed00a
:10234000006801900d4de8690007fbd50198a86170
:102350000820e860e869c007fcd40134ece70146d6
:10236000d6e7a36823f00103a3601fb962b601e0ba
:10237000042000e0002003b0f0bd00bf00000e40cc
:1023800070b58cb0044601a80d4600f039f80399e9
:1023900022684b1e13402ed1286800fb01260198ad
:1023a000864228d899421dd00433981850f8040c5e
:1023b0000130f7d0eff3108172b6104b9a6842f0fb
:1023c00001029a6022681a610122da600222da6050
:1023d000d8690a4ac007fbd4936823f001039360cd
:1023e00001b962b62268039b134423602b68013b4a
:1023f0002b60002000e004200cb070bd00000e40f7
:1024000001b40248844601bc604700bf7920000047
:0c241000010000000000000000000000bf
:020000040000fa
:103800000000040000f003000879ec8c09000000bf
:10381000000000000040000008010010000000004f
:103820000040000000c00300080100000500000087
:1038300000f0070000100000080000200c0000004d
:020000040000fa
:1038800021bbd37575030c0a64664b2496d661324e
:10389000634d84afe8e5b025a27b0fb1834c4da703
:1038a000396503c6b24ac4333c646d941c76033553
:1038b0009587f5f9e82bb22b3e3749e850e321f51f
:020000040006f4
:1029c00034042e62340a7e15cb427aea9b60659409
:1029d000aee9152780c30601f37f723774b48346ce
:1029e0000801000080c3010004003e000000000058
:1029f000fc94dec8813211c5ebeab719996950859c
:102a00001e11612ac442174fada0d988466e05d168
:102a10001414120fc3a7d9703695a70b3d17509603
:102a2000392e88d7f7bc4eb1985d3277de0a234441
:102a300051f98e1a55ea592299d9c1550179de8387
:102a40006c789bfb2ad36edcb3e33cc65d406e4fd3
:102a50004c095f98131cb42aed3a82e107d6847bb7
:102a60004f25c270f293b1a4780b1b5d4586217887
:102a7000f8e79915055c246bb95aa7f805f4c0511d
:102a8000ae0851a00e97ad9801f5205c185b25beed
:102a9000003b6fe1ad5ba369acd7be4e2f5ac7a711
:102aa00078a023c7f84fe9c5fa9ddbe67b8ff9963e
:102ab00004d967088f5347715d93fe6c7dabe5ffca
:102ac000e3e63712d6fbada8192492568b0ea8eb7d
:102ad00094e5d6788bec8cfe385d58c0bd89e164f6
:102ae000962934fcd7e0a4157a6eb3a52e813c75e7
:102af000027e0a0a4185ccb4ad4472a3cd63da6b81
:102b000004c452d99110b07e6a7fb21375d8828006
:102b10001760cc1e6018e90a8aba1b774f7f37aa64
:102b20008075c3dd63ffe60c6847eaa8987b31ae89
:102b30008c03e1185a3ad8b8f12488b4f4e135a6e8
:102b400068e58b4f1cff47a37976d6e750909c58d9
:102b500014bec26d549117dbdaafc3209b6be57ec8
:102b6000fea68dbd7a34507fc3b2e3a6f55b584311
:102b7000f772d56a8662348b00d4311035275c3009
:102b800021f7c50cff6f1fe5fde680659dc5e80ace
:102b90001d35076ed5e998ff1d8e3ab05ab763ac64
:102ba000a73bfa9d76cc176ffc4cb39aed5cbeaa9e
:102bb000f253b1351ae109ee4c340b2322c5350f1f
:102bc000ba96da0fca128a4be60c9647175341f1b0
:102bd000d1c28accf1659a59dad01e418a870c2677
:102be000fff824fd6fd9f96ab900dd4d8d1561f349
:102bf000c25bb315ac22bb84b33e1cee67eff91e7b
:102c00007f24d4687f230e1cb9880305b01023c726
:102c100078a0fb97f8577d68f76f64aea83282de24
:102c200046543ecc1f4c25c8a3b5af26533b58890c
:102c30004fa2777d5e3f25d1e982b82cbf4f677eda
:102c400004354b75e6cbcf54465986e6bfadc0057b
:102c50004a4d2168f46afc4a8a4f10bddde8eedd7a
:102c6000552ffe723b42e4a5419462ae0a892e675d
:102c7000c0a93c5991e1fa19e4c331d9454c81d539
:102c8000db463a83ec89fe27a2989b39614b7b5b3c
:102c900094366cef6920d0c517ba1852a3c5b94a4b
:102ca0009e0eb65292f35171f719da197940ff4d21
:102cb0002fd34b1b043aa57074b7bceb49c7097fef
:102cc0001e08252b3571b63372617c2e1e19edcb93
:102cd0002e3f81b51a2849602a8f41641e46cd5a7d
:102ce0005248e4244d5d86ea9a9bf97591d2f21b15
:102cf000e2bfc6f6517ca0441c991d1313fa792f2c
:102d0000d3c3f9a4d09ea41c7cc64ff528a60463a7
:102d1000fe893e3f1ff23b65cdfd650d498357b5ea
:102d200065387d0a2c6b583e33471b03dad99f392f
:102d30009bb4a9ab7011fb0e304ed507bbf67934ae
:102d400099a30a1fd738848c5be5d472e47c525d6a
:102d5000cdc49f4fc0a37edfe579a0e4f6c8686bc1
:102d6000f09b73c24a4e0818ba09dcb58adcf998a0
:102d700055167badd3d59f332020505d0b80353564
:102d8000d2f7a1324bddd8f5afa1da4b398c423600
:102d9000834f967b5e9fbbc2085273ff7248db9adb
:102da00044c3e2673a7422a84e687935c450b90426
:102db0005dd78540c9a0412bf36b308a70d6336450
:102dc000be06c3ae7410d3b128719feaabc001e157
:102dd0009645211600d34ef41b045ad6e73e01dc7b
:102de0001aedf51fe7db54958027acaae7e98c6262
:102df0006bbc0911947e9152c12c418ec04fd225db
:102e00002c8469d9171de6c487ca8f5180d78a7769
:102e1000878deb856838f0c8c694f24f2059350984
:102e2000140d90960923db761f929003e531e1188b
:102e3000852e6daaa6d66bbc1596ae5d8e43b31ecd
:102e40005de66f98138a3722348a667d3ad43cee69
:102e50002a4312847453f3a05e0e4fa0e77184a23c
:102e6000f248261501c0ce09ae0476ce2ae87b1cb6
:102e7000365ff44d27b698ed42a5ada69f30596058
:102e800061254bf1ceaffcdf211f8b3958122d95f8
:102e900001ace5dbecc0cb9a0cbfde3ceb9aaa5749
:102ea000f094c074511d9863ebc0f26c3780397a8e
:102eb000371e7360276a76732e13cf02966f1a102f
:102ec0006469bcaa33f7be8094e6d4abfe64a42345
:102ed000136176b08fedd26b0e21cd1fc23b9cac3f
:102ee000d1d33dad5eaad295d75133e9685a1a8243
:102ef00055a5bdd9dc4f94bce107eb9f5faf998529
:102f0000da248ff2e0a7698d5ff630ed3cda2379a1
:102f1000e5ca40f05542e61f13f87b023360669c19
:102f2000a1d15c2ac5d4948667c0d7548b9b052257
:102f3000702935a77b37ec9e23ffb8a2eb4b7da011
:102f400098b02fc0c08053ead072061fff625cd8d1
:102f5000e15a1c23974a07b8de7defaff4c8a0bf43
:102f60006e975c0af7e98467c8f5bfee1285af6219
:102f7000e0fbd617fde41ab29f23802441496a364c
:102f8000f0d7453b94a52a954095457b331bcb2b29
:102f90003f2e359a6ca71f477887fe296a2fde6a75
:102fa000634545ca17dae8ba9bf75ac5a739a48d15
:102fb00063a3f2c32e9004c5c247d6d8af5319e31a
:102fc000f17ec04a0db0209e7da94b5a3b9b70cf2d
:102fd000bdd6393793f8b43b3641c6604a405e45aa
:102fe000e3b8e79edd1d47500a5d9f604eaf4b750d
:102ff000f04017e3cce53263768e3b4dc9432d2f6d
:103000003599daa3fc9702ab0aae3d428841b7ed91
:10301000dafffedade40c34edc4dfa8479867c6549
:10302000279f67ae3df6f3d9dd9c469c29c4040f6b
:10303000c60564037438b7392c247809be129693f8
:103040009e4e892fb85820f793d627e1c6080bacbf
:103050009274e4e4e6d5e73a41e70aca491ab9a608
:1030600036126611130190d8be8e5c1c2a1f0c2ddf
:10307000658ef78e2c46a6e37c306b73ba816a6e40
:10308000815c6a8682c90a96703a6ad7a4ef59238e
:10309000eab679a3a76df3451bbed5399cf529e4a3
:1030a0005bb5ba2671b8432e58487e3c1b85b63caa
:1030b000273128e6e9cfd7d116f99b84aec38945dd
:1030c0002652bfe63465164e2c1a3aab2248b4a5f8
:1030d00008f58419cadc9009651df70bb0e0d9c466
:1030e000e726dcc53a3a03e74f5770965b8fc493e7
:1030f0002b1dd03ccecf16b950b9f55a89e9c4d5ad
:10310000e772e4e10c6a1d822a7a8cc7372c12ff21
:103110005d3e7645f8eaddb83f77df4aa4d5234027
:10312000dcee8f4beeb3c35680132eba895b434e51
:103130004b79ecef20b101e46f3487dc5ce0d8f62a
:103140009ea281395e763547900f28f7dc4f15cf68
:10315000564e5f3d43e6fcebd67bc4528005ab8503
:10316000ab660dab63c660542e5a794cd64f8917a7
:103170000b15641d8c9f9749009a0de710d8968611
:103180002198e78db70b5a8825e02b4829d786f878
:103190007217bdb8832a517a2ff384fedd28394c8b
:1031a000cdbd16d8ebc7cef4bea263084ce656edf3
:1031b0003cfae68da14aa030d0c94f81695ae16f2f
:1031c0006a1da4c8671ad275a6d09a44ae31635d51
:1031d000de849bd226c9321e790614e1f139140a25
:1031e0005ab5e5c06cc2c041e7e3ef8734c2752f22
:1031f00009891a00f4ff182a59b515e8bd74452944
:10320000254f1ffcb348c28b59a28bed666f6343f9
:1032100013f174426583668749ebfb480b1b4842f8
:1032200097d8fc6066acf9a0be3a3c326ec793d822
:103230002f5cae2d96e315c5b4b37974ccab448a3c
:10324000852a9f3e001967357f3a623a605aa44446
:103250001f79e160902c8ff8dd1102de51a7b07e5e
:1032600052f030c1e8aad699afa36cdf3d6561800a
:1032700030cf62e7e9b3fe8143d5d9ad55d3380ce1
:10328000091a940d91457fbb875c3eaa669571c073
:10329000e1836c1c38651bcd2f200371cdd5b7f1b0
:1032a000255863cd2b93934656e86090d385354fd0
:1032b000a8edc35e32f49ae125c9528fc9f884b9ea
:1032c000303c51fb060953fa639a886dabe2a6e8dd
:1032d0002cc8c0110fd266c53ed4bb6390dd13db92
:1032e000da8ad36034ecac07f012eb4f914a4acb48
:1032f000b658328b757801d05652bb0e33e67d1925
:103300005a1b9c64aa1b2aedb1935b7634ab76c240
:103310003e609730943dee9690877997f50c695d05
:103320005af2b792146a9a07c1836ef746373b1672
:103330004240207d332faa47be5d07f60d8a1d0a45
:1033400077ee5d478b0d20d03c7214dd4a07563e68
:103350005e77f95d87e3a3ac892b2632beed6675f7
:10336000f96c8ed2280f102573dfe3a4375cff635e
:10337000ae45b50e4802deb3834ee9a5c9d83490f8
:10338000205eeb638ea8b9a499af24b38d34f78d7a
:10339000eba82aa6ddf641f3777e90ba97ea88e299
:1033a000585a3c04de64e1d7049ab043da442b8fc8
:1033b000b01cbe9fb63cfaebe4507723d71981bd11
:1033c000d70d84a9602eba6d308f0322a5f7bde812
:1033d0000273735a59dc2296a252631ed4227309d7
:1033e0006a4ca46bafc125318d3aa779701bbb9e87
:1033f0000ae971ce90153c855c97a51d4afe7bdce1
:103400009f6ef2fc095b6e02ba898efb7905fc1493
:10341000541a1551d4e5c64b5c9dd0c734af1cd9a6
:1034200003ac86fb914469d6603f1356cdbe9c5bce
:10343000be98725b00b7708ef7b561d0fd3a050d8e
:103440007b4df7e445bd6b3312a877f6bf014a897f
:103450004309c9af053c6ba782a9fa0e5789f4d27c
:103460005c1ff340f9ba56db912a1a78f73f8c18a3
:103470001cb198549bb48f46a4fa618717fa18229e
:103480009999d0b433ec39504b86780012221c0540
:103490004eeeb96d2199359a62b91ac2ee02302703
:1034a00006699d5ad5c9bc0dfbb1e6f4e32921e3b9
:1034b00010b981466e14e3030626f3247d63de30e3
:1034c000370a479aac60041a27ff767d2652e1f747
:1034d000c4248db76c2b2d735d97483038573a3420
:1034e0003828256ada4db17db26e4e8ae118a62fd2
:1034f000c9680ee8ad6368ad24566de586b4975b88
:10350000e18c8aee6c6ca96b70754c5aeb1a6353a4
:10351000e4da71c9f439baf39a84b991a4835126d3
:10352000c7d93a1b3b3cbdfdd73e08b5049c49b208
:10353000cb10033e0660a3c8ff432e2ae795708791
:10354000a0c183eac844e779c12e5ac75e9fb6b8c6
:10355000cc00fe60adb7546a5efb00d3d618b59eb2
:10356000cbaa6384dda89a05e79617ae6cb1e63f57
:10357000f435c603b90c50105b8af35045d337e5d8
:103580003107a4736ac6d90980652dc4cf93513e13
:10359000ac389d71e28de90bcff2a409b9084596cc
:1035a000291554d22108d0222a26befcc246b77162
:1035b0000d8693cf87ab68dd805ddcdea6baf67b37
:1035c000d123a1e28d6dbf0d7273a79ba208f2b04b
:1035d00060eb5be6728aa4e805ffe72de265758d76
:1035e00004f27c467f75e86de1ecb7869eefb3820e
:1035f000c853f42e837ad625cea3bfca22bd3a98eb
:103600008923a6c161c678a235bc063d492a8ca58e
:10361000e3dbbea1d85693f9881b2b305970db39f8
:103620005d27b0d8f1b673eb8ac8c54c34242c871b
:103630007ba83ba97ca8fe940c37c8a5ec94f8c8dd
:1036400095470ea2fb3be61493cd46a99140809c82
:1036500021e51c0fcb68f4155992ce6fcc084605b6
:103660002e6e29421c44564baa53b821c7005ae774
:103670008ee1a2806cdfa60aefedd3e0bc19883999
:10368000e20bc3b29053fa0272dbb5647f41e59856
:103690002c3393e7309016d119af0247baa8ae0d7c
:1036a000763790a4d56cc12005f968c49a5eba3b00
:1036b0007bc7329867a25c7dc48cba1cd8f3649136
:1036c0004e2c069547eb553e278691be27a69bbc00
:1036d000f74d5731a9ae1471b7a9a1571c52291b38
:1036e000f577d612a51079ca89dabd918ba342610c
:1036f00045d96fb07cd57107fd7f47f5d4ab48e560
:103700005caab45ca630f730c4677bb425b9549189
:1037100044f458935758fe979e7564bbc226f44de7
:10372000881d0cf845379b9c08d71f7a35a4721e5c
:103730005f24922717c20af28b014746f43b41bb34
:10374000c15d9e7279c0d69236e5365e7648967136
:103750004d8e34ee5d3a4600fd564ef092671f6086
:10376000cf55df0e64a9ccd50163af19d7ac796012
:1037700066179877a333548a5c875d202e34bdaddd
:103780005227d4a66d2b1d272cdcc8548061af3284
:10379000b9fc1ad9d5c20abae994b5a989c3860b6e
:1037a000f4ba695d310128e1283a5be93b96af3410
:1037b00006add8154c6c21f2d76420c973aab6aff8
:1037c000ac059d91ca7ec38c9fb444346e8051f386
:1037d000adcdfe2f93bf059171f6d68a93f8870180
:1037e0006065790a58a29d77bafd9e6236edc39551
:1037f000355196aa35b1111d839e3cb5b9b1e4f29d
:103800002d5318d77f1f701638af1a3c609a7cbeb4
:10381000f5c40fea88c337a6560b2105ce7d8dee81
:1038200056453cff437ce9eaf0ad720c79f42394f1
:10383000ae6e0dcc1ba3744ad041959bfb7d3dbb66
:103840008b6f548be8c04a0e89324c59a63d5a0200
:10385000e8bcb1fe5d5f361cf40bdc0fcb70d850ba
:103860000c8f186099bc1a83458ace88950fdb139c
:103870007e95e6bdcf3952cc2a7fa7759fb9df1858
:10388000c6c0c273d38cb23301996dc27aadc0f495
:10389000e59acceabea57ce94a986fdc48b4a04b17
:1038a0007cdc91974aa0511c85bb69233fade2e9be
:1038b000eeb4c99319d4259d559d671debafa2d7d2
:1038c00046291d86aec40c3bd5bff8bfabf6de3e25
:1038d0004ee0257362fe53b295c21ae137b5ac6e65
:1038e0005082762d9c7ed558159e02d7bf9b6b6b60
:1038f00016ca788a913517c1f4ffea6bac4a38745e
:103900009d52c16a90fc80a765bd1a7e9e252bfe44
:103910002d0f71d92ff0dff8f0340d063b73459a67
:1039200062a3062bac0e54eb91116341c186536127
:10393000c5565bda22a2785504978716299db58c67
:103940003af48750eda6942ea033e5e71d12069eab
:103950009fbf609c79893af28feea089ca6986621e
:10396000dbaccf9957a29942965265dfff90fc2ab3
:1039700001965c1e1e7cbff6e3d0ee37bfe31ddd73
:10398000ff232e2ff64f5ca5f8aafcaef69e2ce482
:1039900039deaf0f1b02da1a83fafbb95f15a616e0
:1039a0007e18b78905072cc1431df68986fcd923eb
:1039b000dce70472cd265c1cc34ef9d9f8c85981e6
:1039c00089aa2161e3e80790d710bf7b7f2c7feaab
:1039d0000a65d1c782c81a71ac64dae14a3589b385
:1039e000c9c63caa8a0f192eef2020120e2ccd63d7
:1039f000d3efd98753fd1751d96f8a1a8ae32adc8e
:103a0000766db68f3b978e124dddca0beadd1cfc3e
:103a1000c318e13356753334154a7669eb8a8855f5
:103a2000418ded75be3ac65da98afe81136e78a6fa
:103a3000c033512d614da027b6c9b0fcfa40c3aace
:103a40007c314b201770df0911472123bcf0472040
:103a50001d51e396f2dc4ff5fbd0f87c17dd9b326d
:103a60001ba6f2484c59c4cb939249f847d0d9aa27
:103a7000987c8355b2e31c925f818ff3c3153ce1c0
:103a80006566494b543553209c3293a5a7c2c1a902
:103a90009ab21787b235a8e6149c62e3c67ac7507b
:103aa000e3f54188d272e70ec9fe1fe4d996caeb4e
:103ab00087c445cf3734a2bfe47f5c11e6d73773a4
:103ac0007d8ae81a0aef834e11663f03d156afc8cc
:103ad000c33727fa1763b4bb88697eb9a6049d75fe
:103ae0002af36d25d6d31e313132d8a5fcbb370f52
:103af000417547e2275ae06ae0cf3ab094a819c965
:103b00008d4582e0524f0035de99a4beeac2727c38
:103b1000424e17d1e1346b5bbda756975ba632d0fe
:103b2000d814a9e0e219dccee810fdd7e33914a5da
:103b3000e21550e790d73a2338ec920fbb3de84ba3
:103b4000d8959b577f498681ce196cedaa7041505c
:103b5000ebddb309dc1da0b93b95ab6daa162df5c5
:103b60009627b4b50d2fe884825e8a925ffdef55eb
:103b7000d6455ab499356658a4dc034fc8acd84032
:103b8000a88d7fe11915085a2be68a839ec2ab5c8b
:103b9000f36a4ed3e02eaed2db11a679ee1e17e902
:103ba00052737a9f13f87d592cf7000d0141c80913
:103bb0009bc06dc97bde2bfb88be09e0badac80c5e
:103bc000b112231a0bfaf5c7ad43d4b489d8f5b6b0
:103bd000dd8d8e25fbb3169cf1366d13f2a4e20346
:103be00030e279b5b666a51a658f7496a95e596fed
:103bf00072b420205bd3acc15e39cbacdb9e31c24a
:103c000098bb1ed69f741c90a9a92f0f1483a6a53c
:103c1000065bbb2d1743054bc1c95e1ab42f692241
:103c2000b95abeb39ba06f709e494f65fbb52c4738
:103c3000a2221cd85987cf3a9e5be0be7403ccea1f
:103c40003b6c95367817875d35d6eac59f288c077b
:103c5000c725fd19f65c3747aa4212cdc3de9b5338
:103c60003cd8f59ce58b39f75c8700b523e57b9064
:103c7000afcf09682d30c91f4d681c2f82f1f71096
:103c8000c2b0846c63071954086b3550afe33e64cf
:103c9000689353fd12c58a6535e165a72f320af096
:103ca000def3c251d2bc22559ba5723be16733dde6
:103cb000bb13b7d5c34b4e7a736e4bb7abea262f07
:103cc0003f5028f53b869012156982574b7b26564c
:103cd000b6f8d91daec234754b8b30faff9d2e4b12
:103ce000444f3ef1e1dc8ca40d41ba1c5bb73d4d65
:103cf000e5d4aadc52f317cbe332d92e6e9e652aa7
:103d0000401d3f796679ba8b86e323789307aa2111
:103d10002bfb67139777b21db2f72f8b6fe1c2575a
:103d2000b590ee26bf2410b36ba43730a9bef29c29
:103d3000a6153c57c086e79b0d80ce48b5908e8077
:103d400023bc4c0aca858b062372b7c8be8157664e
:103d5000f207eadcbace3f91e3868624bcf36f0714
:103d6000aa4018481e64676456ec3b61575b16070f
:103d7000ac33b168c5c1e24a82f5b870bd8b8069c9
:103d800072bc44495727c49ad1d9761293adb9571a
:103d9000eb304b44e03a89f73fda4b25a3216867c3
:103da000a3d5bc07a00267a733ae883c4383f6facd
:103db0006b4b07b5108fd51534233b429aa0125098
:103dc0006b25e83e53f08cde1e910d7dd65f187e8c
:103dd00032a56a75d4eff45798a74c0fa87826be81
:103de00023878539626b9b9b2cdd1bf9fac500e3a9
:103df00094f9a406cb81a3843094f24915426875e6
:103e00006f21c99494fd76213b7d6e35914f1b91b6
:103e10007ce71b28f0bde301a950a652747f24acb7
:103e20004c89be263caeb888bffd083e08abeea468
:103e3000e4eb008a58fc5ee1921c1f4d5a38b7a093
:103e4000f317ca32f2dc2062b74c40a98518fef1a4
:103e5000bd44ed5c86600d9c02c066111202c67bfb
:103e6000bddefe6cd76e925d8c992e48c2ae664761
:103e70007dd070694281c2a66c470ae0827f6224cd
:103e8000fd7b881ef0a75e24d0bbd617508e7941eb
:103e9000fd5a88f232d764611234a5f67df7950099
:103ea000b9142c3d21ff8b08e21c22577dbe1883dc
:103eb00046bd919376b34b3c5df8732e34c12773a6
:103ec00070a1ce451a12dd9d9fb5f160584b68a6d2
:103ed000d088ddc423660ff31a373320e74be47034
:103ee00075c0500fd267a6bbcd83d3476645ba07ce
:103ef000792c2ac16544fa799a37db58418c77b21c
:103f00009b08cb1822f1a73cb9ea059ff6d2f5260b
:103f100081040ac69302b15893d40a84033a7c0df3
:103f200051cccca387c94cd517d421105601635c62
:103f3000c29958fe5fa09ae9931d4415b5ef342f3e
:103f4000087ee39d987562717b0b203612e4d06e7b
:103f5000e06c88ac0987436cf95aacd3188d88c5de
:103f60004e27c8c8098770b075e014d45fd11e7899
:103f7000e19f7f459f9ebf541c715a3c2684f336b7
:103f8000763d1b2afc20240aa5fb6927c6146e0077
:103f900001c731cba974fdfd3d0db4aeb2c2e3af94
:103fa000deef279faeb5ecdfa3c6108fc3616905b6
:103fb0004c4d40f9097298c23c79ff64f189554e25
:103fc00096417b4f25ed8553d38cfe5b941588413c
:103fd0007129b2993726b2145bc251c430784bfeb6
:103fe00007d29873abf508bc3310fc0baad00713ab
:103ff000bf538cdc1240a29c9839eb064feee5f2e1
:1040000089f40da15378bfd5c64765bf95ea48e747
:10401000e372f5eaf59f6a5043e93f3b3ec9af665c
:1040200042deec773ed92768226603a0063d294b85
:10403000ff7aa39f3b801c5d0d6380771cff3d7b57
:10404000c7ec967bd59cfe11e098acceb602ca4672
:10405000216e49c68a09c5f213e1802fd89926e559
:104060002c2f3c09b173a8a7b7ff24ba8ed3b61c76
:104070005ae7e24074cb9fcd354425e969bd78a568
:104080008af55f6b3cd25f6950721253386a79c708
:10409000456811b9538f5c352a60dab1d8b9acd014
:1040a000dda3cf0521f9dfd37398044b82d2c22060
:1040b00054047b8232065ede315d0eb56f084aef36
:1040c000e42f9b300582622fc1b25774da520a0284
:1040d000ca9256a96e96462a71f0e1026bd8745bbb
:1040e000441f961736adadd3b4488cc61ebe3339c7
:1040f000f263cb89bd6af39a09543981e839c9332f
:104100006d0da226694c29eaf76331c13e3b6cb8bc
:1041100021f323cb027158e1490dcd12e5992947ce
:1041200045514241e50397be7a9ff71e58db7ec09a
:1041300072bdc7dae378791359e32fec0cecba6659
:104140004b82c2788f8fa712e37490cdd3d66b28a1
:10415000e01526e6c7f028ab24d10854c9525e39d1
:104160003aaca28269eefef7e20d695a365896a083
:104170003ff6f54c0be55ac4c5ab11d8ebdedfb307
:10418000bacc9d25bfe2ac929d2336becd08dab7ee
:10419000263c588bf9031da4c4ee05b7724534d6ee
:1041a000ec7aaca35631b91a0fa5fd6c9521c06607
:1041b0008898bbd1d8d2a51efaff008e0f07a15355
:1041c000c4182b7c96e5bd63e32f6cb5ba184b9fe2
:1041d000b4f6392c4fe95d589079a4c4e798076884
:1041e00020499a0edcb78f3e27f6b78f957c455d48
:1041f000462df6dc3b457590bfd19daae5a821acc4
:10420000b65230845647f7da6df18f45246e68a1b7
:104210000933ae7f4c2dfed20ad639440fd53b79f7
:104220001ee0788bc3fba0a7b0373d974f292cd356
:1042300084f0eb65c03439c8cb2b73af3d6de78696
:10424000ff2ee0395709c5911ba4365c860c28bea9
:10425000233657f3e81f334d088e4c9babac9a10b6
:10426000ed60a04f457606d33a0e9e0eab7168d036
:104270006b07369957c25dcdd60a0a813ebcdfafc7
:10428000ca883be0118abe9e29469a6238780e841d
:104290009e501c6b394bcc0101317fc37869485764
:1042a000fd0d7c3c3b7ea2432f396c80e44c3111e8
:1042b000877694cfe973322a77ce835a80ff0f76c0
:1042c0005c76dbea86e5bdfa4bcf048c59fa327294
:1042d000a84cad010479dcd1e0eb8536a1aa8f4c66
:1042e0005e41ead1102145e3efe79f426c27b4ef2e
:1042f00086dfbfb5094742b073f104ba892fd2e215
:104300001a1e3c908cac9273ff514761cdcfb1d750
:10431000585045eaa3adca9d70a9d810dea5e83b68
:104320009638867cf393e4d309718471f56b670b3f
:10433000970ed95e92caf0e621a1493ab77919a839
:104340002e2c62e666e9d1817c6935327f635f138a
:10435000cdc51b0230e988e6996d989729952bcc3d
:10436000d49490204a00a46726294232aca95785ec
:104370003c88981453589ae3b2994c9b159bd2ec05
:10438000390cafefff363ef90202f9294822d11865
:1043900046c280526e7fb92a9c11bba54e064809c1
:1043a00081a019ef3bf567bc47ca1a2cd77d3d00a9
:1043b0002f847f18129efa69c367ba148dc683b121
:1043c0001a6d8d1e20e97e77b2ac1aa00bd3f37c58
:1043d00071c36c2b7461618c807a88642a54266c5a
:1043e000d8294017f89454e8b6eaeb619f241ac123
:1043f00029a5bcd8f2b94112d11b0a01b13f2653fd
:104400000fc96190bb3d2bbc9cd572687da0088014
:1044100017f41a9e06f4d29f4220eb19e324ef977b
:1044200083f04a08dcbac7855a6ba620b85dca3942
:104430008ba09676b78730591c59c64c28991eb95f
:10444000788776afdd13e8d4f5c1a64966028c61a2
:10445000959bb73ed4d237217ba661ca0f591ae883
:104460004b375466bba5325109fa5d55723d2aa5fa
:10447000e3490e591e5574531cef3f9ca2318340f3
:1044800054d9104af29331b44aa4870a04e40dd0f7
:104490007927c95dcef1cb9ff020ecebe9d2b56274
:1044a00018e3cb13457d0d173f5566559678675831
:1044b00039cd0fb9495d0cb713031496094eb044ba
:1044c00020664986eb1d25427b20c15716eaea5a31
:1044d0008bf1202da8afcd88af8fcd79e47fcef6bc
:1044e0003fcb9984284dc2e5a2b488f090bf0b5011
:1044f000c7c44a035034f7bd53a577f8ee69367b3d
:1045000055eb4680695dccce1a29fa2ecc7edae2d4
:10451000934ebc4f60e0c76793f854d245f87e7d58
:1045200050c2d32d8a9a7cf8d53fb649aa8c19700f
:10453000ac580be06613d93c101e8a2a0638dc8d75
:104540005478f5ac449a7ba943b0692909d0e4f4c6
:10455000d704d9fa4d7319fc713f4b7dd8b4dbb445
:104560008e107509e17175d52682e02516c8746a2a
:104570007de963ba011268ab6eb4c75ff4e99ec30c
:104580002392b5147cb83babb993fb2c16bdc13854
:1045900046c844449a7a84df69853d03fe1acf29d0
:1045a0008ab800da8544a8a764ad89150c6b46e883
:1045b0009cadf93cbec419d07dfd32b94dac5f78dd
:1045c0000f65381da1defe69ea1a2b12aecb2486d8
:1045d000a6407242962c358ef137381d5e1dae5cba
:1045e000300c1125a54291fad67916ae59abe442aa
:1045f000c35cbfc8eeedec67ac4a7cba81b6ee6e28
:104600005e9504b81ec0b24ef23a99c330fc8b9648
:104610006a9de2a3f281f9febef37a23f1113c9484
:10462000d46ca0ecd5284eb73271220b26d8bbff34
:10463000429fe286f3c9cfe8958b4967e81c820365
:104640001632146209a94d94b2df55aa4ec4084b24
:10465000dd252bcb50fbe660b5f5ac92c7e341e717
:10466000b07a1573ba19c6081b5ca307fda4a2d1c2
:104670005c6ca91bca3da53124020fe859d5cc3d7d
:104680008633bdb8c1bf0cedc8eb162c49c0ecdcbd
:104690006ac74c734792a61bc418c6edfefffb62a7
:1046a000c56070ba3e70159c034173809f1f3c55d6
:1046b000c995c95b804cf7dca8995c34d6a9c63e85
:1046c000a552ce8b4ca6ae6d34e6e3fddc8b358374
:1046d0001016b08dc83fc9f7cc7fc2c09d833bff89
:1046e0008e317374c5387616b09cc97882f363cd69
:1046f000b9ce05d07238c6857cbebe993696f2fe1c
:10470000ec8bd4c0a08fc8fc3fc37c4868fc651606
:104710000b041d25998eb3f5d52a273a6207b3bd40
:104720007ddd92d0a45da4be5891171520acb9943c
:104730009ffc482d450ae7edf71d34409273c76a88
:10474000ff2962995365912f9ff23419d115fe6ca0
:10475000d3387485ea1122b8384aaa847485e8f4fb
:104760007e0fb2dac74ceab72fab8f7225023298b0
:10477000f58260bc1bd25fb9a492a9d093f414abac
:10478000b7fd0c440037aab5d527f958e2d025016a
:1047900018db12ff2af6848fe99d23f38c6b4b0400
:1047a000e4839f35032b92dd029d4f4fb527638233
:1047b000844090ac88eef7102cb85ab530ea824ba2
:1047c000f5226940bb37c19ca260ed654c812a8807
:1047d0004ccf777ea2a56ff82170fb39717d9b22ab
:1047e000cdfef06a028e78cf103cc642da548eefce
:1047f000253feb79994722ae55bf5273e8a06ef77b
:10480000294d84ed20f44f4d4fd607d038d48e2c4f
:104810001cd6a12fccec92087faacc1b6ce5d2db76
:10482000630a2b272b2bdaad785c2ea4497c6bb75f
:104830007818ab5293d0711b8e038984fd04e3db9f
:104840007e024b44edfa967384d8e6b372d2d65406
:104850009486379ec2d3aa9a448fecdf11abf5b38e
:10486000405c0177ed17652a9308ed28605ad380e4
:1048700010efb31f85e06b3f8db714f10aa10e68ee
:10488000e139c3b6de7cbde851d157fa70cc6f5c1c
:10489000a6d73f8b26ec3b2deedd44c491b7c6cbab
:1048a000baa5553bfe44bb2ad0e3dddad140a4478c
:1048b0009bb9881fc4cc5dd4cc964edc991446c8f5
:1048c0007998f0d616f3c68d4fd47114322e0e6f30
:1048d000e048d31111070fe61d105c5ea2081d37da
:1048e000226d2b124f595c36ccd03c20ae59c80cef
:1048f000cb245135562587fb4bfea546f52fda987c
:104900001e67479d37bc16ecaad4cca5bfb39c78d4
:1049100031ab65ad6f751fd17344a96427cee57bbc
:104920006309831a41e39d811e9e3e8f3ca87ace87
:10493000e86a4b95fee767534291ff2d275bc92735
:10494000a13f0ab6f21c42d5a3cd7b8fac17b9dfcd
:10495000abd03ff69ab6688feac87a88c5413d5811
:10496000f5cb7d9e2706d0e45fa06f9dfa36f1c897
:10497000054bce9ddd21dcbe4ba4d32798eae63063
:104980005615664ecec88b6c5fa75e8ee9aac0979f
:104990009937b87a98236eab781c38bd7e38dd7ea7
:1049a0002e75660e723526d4a5b02606e6b711f729
:1049b00050002279b77f0fda03df082ec7777a52cb
:1049c00042a8a46bc74ce8e8adc200c63e9ef2d533
:1049d000ce38742c72dc9c72b1ef186ce7b77a2475
:1049e000f9e70a161668797eb6de010a388c751d5d
:1049f0002f86f2e302f135f19b00201e9021ee6f2d
:104a0000f6d7a7bd80c078d94b2f3ccb57d785cae6
:104a1000029efed7a657b1a9bcff9d9298b09aea14
:104a2000c1538919ae1458a5ad530b0c9175e68b83
:104a300084dfd07be0fe1e60b730e39f45bc36527a
:104a4000924565e4d050dd5dee1fd2569cfb44ecf0
:104a5000973671c70694961ec86ede83837453b171
:104a60000dac42c9e1f803cc8a4fe18ff0879c3945
:104a70003efc7506fe2e52f0cbc4f4fdd6d1844523
:104a8000171bcab9f6b4ceffcacda20a04120b6e28
:104a9000ee1954108290013a5d81fb5547adfd61de
:104aa00094f07ba58fa08df1b04c2d61c6d9eeacf2
:104ab000fc086475a9e454814f9d82b351a55abd89
:104ac000b3e1a0ea8ba208f22950825d10977c8b9b
:104ad000a34ff3cbdb83a1871ddf2084301ba331e1
:104ae000c640b22645f52d847221d47d444d284020
:104af000664f86b0a6ee067058c0aece1d978937b9
:104b000003d55dc5ff75eb5115b173f3299b9ae091
:104b1000094c9e768cbd16769bb340d7bafe96d0d4
:104b2000883809e1593b692a33944ad32926eec5ce
:104b30000401650869cbc67d2742a7208d57f99ce3
:104b4000a6ee478cbaad0f53dd8cdfcbe284d4e602
:104b5000cbdc26bf374d927d0021a54ace24e296bc
:104b60005c88fd5d958413e44549209cfa1a414711
:104b7000ae849b85dcce2aef2a43714b7bde3194d9
:104b8000ee4b1db9adc927729ad575f5240db66fd8
:104b90008a04962705cb5c65cb128ef543c01b5e5d
:104ba0003c22fc87253d12ba4e5c34556092a24ce3
:104bb000af6446fd02804f45f0f6c5ecf615efdf19
:104bc000ef925380710eb220310eae44fd4cebc11a
:104bd000b057cef856ec5ea1acbb6b49ba6eafba1b
:104be00055e0fe41b328d7df4fae853406b4dad6a0
:104bf0005cac9adf520982494b9a845d0a1f699422
:104c00009777a979a1c224edb60f3f151988ac7525
:104c10007690c915f0e43b6050c871d1e4e6ceb59a
:104c2000390a17dda3d716c5d273cc249f5e420183
:104c3000c03a2343955c39f20cc45dcde1d4e5ee76
:104c4000a614baa7de6134e8ec3db4efdd1d0f0f0a
:104c5000a03c4edd3cc3df89fd9aaa31a1649d1eb4
:104c600019c4be60fad97efd2dc500ada04f9b8e44
:104c70002f5ca7a732e139bfa175383fdcc05b2ba1
:104c800067fa3670b863030287c2ef23d79e622f9c
:104c9000a59fb41420b02514537202bc64c7211b15
:104ca000d9208dcdc00ee4823964958d0361c1b8e1
:104cb000ebf67a72ffee9b2ab419a8a1f501b2189f
:104cc000d8ec9095e9986343e867f148d622c8018b
:104cd0007263b6d2d16d3a978d149a09338c62a063
:104ce000417317b214e90bf5cbfd388973b48e8c80
:104cf000da4ac20b3e223e2f98a7de73b991b5b4b3
:104d00003e3c939f53090c11d60ff49f709c97c0a3
:104d10008ce14c57a552f3eb7ec1b5b6afca244c1b
:104d200098537987e3facd5397eae065bc7e7dc05e
:104d3000c19936c98e6a3963deb405584a6547bce5
:104d40006e5f10fd6873e36451bba7b6668883e9a4
:104d50002a482697762adc99dd032d4a67cc8ddb1d
:104d6000ab339ea2ceacfc0218f1f372aa185dcb55
:104d70009d57167b2b46dd3335c739fb4fd7b3c85c
:104d800059421c32130d1f8a6341be870d54c03532
:104d9000c36d30d56dd48dcf7eef490a22b08075ba
:104da000207e61db36411eff56b9ebd18f608c96b9
:104db000db54b6ff691f568a8ea2284b0ac8b9df9a
:104dc0009e9d6deda7a24675eac31f9f6c2c6434af
:104dd0004e2369d532adbd463c6c139719fa069a3d
:104de0004e6bd4d8cc23727f9c74e4f59ed32ae119
:104df000d64bfe4364bfe7a0fc07954e74c9092952
:104e000021146740abec7f42564fb0c8bf7c8e5236
:104e10002ab660c6bbbf32bec2ac95d4f9e6b8e4d0
:104e20008d912ef6fcf3d73e380768fb9780e2cfd2
:104e3000734f52e1d0887013ab3376bffd102792c9
:104e4000418188b0804455c84f17eea3f233d25a3f
:104e50004d0e639ef93cde2e21d76d569ebc8871a7
:104e60006bc0fe95443783b81d6764d562a8da2eff
:104e70001d0d818a82f45912067678827385137e1d
:104e80003950c9e5ef40613aad71e92b176755bd5f
:104e9000a988aaf76fc24e58ae96ed3b0758b9d213
:104ea000e6fb328d8009db2e9fef5fa1b6f2afeefd
:104eb000139deaef21fb6540474157a1a0f2e45f53
:104ec00098e6a6db68e763fdcfb8d134a3539db560
:104ed0005cd82de9e33a16dbef389e69f0d26b47d8
:104ee000e23654af5998c9a5c0b48973689635d3d2
:104ef0009eeb683edd1e41e5ef3468ff272cb7f7d7
:104f000071ee5fcb2ab436276640492ae068753acd
:104f10009a74ab8e5748efc678954d5e4b61bcb026
:104f2000b5b5d15da9fe647508cb19d6050fdd8036
:104f3000309bdb0197ea883e31f74ad20ee99f09a0
:104f40002d50467a7a59f157be33de247348eb0967
:104f5000c2b60af38a974bdc195d363f9336c8e236
:104f6000bc153ecfab56e3d4f5a6671bc30dc1b944
:104f7000e1dafd70d816acb421450d1dee46e8bb54
:104f8000bcac2dc4a218fc01844cfb69b47f866eb6
:104f900015872bc9656e474667ab49964c166e055b
:104fa0008b294713658570bd9baa61c5639bcdb2f4
:104fb0009bad50896dc013b279fec02ab5145cc593
:104fc0006a5671a8b25d2f287986f3ab2e71d5b6db
:104fd000ca5987c64ab33a8f18279cdf0c195975ee
:104fe000e09541a79e55840f5ffd728fce2a6ef625
:104ff000a27d28db553163d632613d9c4c31690a74
:10500000fab860f32da2c11179ccd2098ba539a4cd
:10501000d73fe062c4feb1473c276654a33272d644
:10502000902e87dbb9cd6d19e60547948e9b4f5cba
:10503000ab865e83c163c26543cb6c81c8ea58f618
:10504000e0fd371acb04c73874e64a808e937bebb9
:10505000fab4d6632241fef154cbd470f1a92bf7f8
:1050600069691ad38c75db8078243147a7b035790c
:105070006759af2d6c1e87614bd2625912b45c9e8a
:10508000a716d8d66d0abed35d3b5f19c9a6011716
:105090008f67b69f62900ff4f4ba377d481377306c
:1050a0001d4c10818e5429914f69c6951a3ff8ea1c
:1050b0006b2e774ee1c5d9d440cd7d9cf831be2e04
:1050c00098129a0e209a223d30fc0a426ae0296723
:1050d000a560a5cea929dd46400329e08131377db1
:1050e00051ed649322caa809c1315781f7aecb1a9a
:1050f0000a3d7b75b0787242471d600c0f8dc35c12
:1051000021debba37a5843cba304d3461532109ead
:10511000c2314324e06c74970e92a19b905d493597
:10512000c3a69b6b13474f9c8f618fc64a5951751d
:10513000bd8de49e60a564b03ddca4fc0e5648ae77
:10514000111a0e12fa6bc98d625ad331e1f88a51e5
:10515000fda7d4f49cc1d45759ed887b9333663da9
:10516000197eebd985c2e10ea2529df18c4d6f01e3
:105170000e6ce4feee2c9efa5336a1658cfae26fbb
:10518000ed3e72de5c68d7d784b5feae37032133bf
:105190001972c3d251a51e13393685db0fbc5a2ca8
:1051a00096f4691c93f32a40bfe6f127d6c213b8e0
:1051b000b63e25636c23f4c706afcec7ba03218879
:1051c000d3ea38ac3981e063bcca718362e833c882
:1051d000586956bbac7f490d9555407319fe4e1169
:1051e0006bc84ac526c331c1ecca24fa1864769b41
:1051f000a20ab1d60a3ee55a90c20a1da9f3c90e09
:105200002391687ca2ba876357d76f5d5b01874d96
:10521000c77a72a63800f181e7a4c221456efdf07d
:10522000c3b386bf5c321c45ed40ee09a3e614a271
:105230003c154d29ef1387ed89fc6eff9076b26f18
:10524000344bf7e5f929e15454ad34238ba7522aa6
:10525000cd19a6efcb2e00df59b214a29231415cda
:10526000ad980f39bcd43c11387e2e9d028b35761b
:105270002f80b0419d396b26f19ee592f9341d4790
:10528000c01d3e0eac052a957acdd09e7e44070502
:10529000548ccaeaf05f111340ddf0b80397de6268
:1052a000481846991a881b192edbd1a918dea65575
:1052b0001f2263ba48baac92da8b7891df621d0d77
:1052c000b288bc6013ac7435e2ab2e31c4fc260f3f
:1052d0003c5728937926cb0550b2b5449771c1c28b
:1052e00091fb166d57d6502192363c4a9e10924340
:1052f000fcd4ccd9832056a1f5eea605a69f85d770
:10530000e2074f4f09fc36880198e68bca10478d9b
:10531000895e1d5a65479fc959429e805e23a80435
:105320001e308aa57b414664df9535ff2d78878145
:105330005c03f33498bdabc177a31144e4b60f739b
:10534000622b0455c4ada2c2070d9f2b3a0e560521
:1053500087043b34ee904f60b2f69ba8a4fca1a357
:105360009a01dd38ea611d21c3c808f50c3b4fc620
:1053700072ea86089bdaacbc8aa5300f8ebaee8939
:10538000d42ea33163af10cc8cf35efe976f761ee4
:105390007aa360e2fdddfa94e469a8fd10525f6e25
:1053a000f798c39deb09c64efd580b7b2ca7d27214
:1053b000e0135c1c3f031a33b30f1cf6fca56131ec
:1053c0009fef8464e3aac106996d276dec465221d4
:1053d0000c8ff06cb29dbb617bda63a39b0b9afcd4
:1053e00054d4ce87f6fef713aca9e1094e6f0e0e2a
:1053f000ba9f1a97abb6199d528075dcc6ac0f9355
:1054000019f701640e9ea8e9f6b438a8b766251b03
:10541000d1ef855b97983e804e4318f7a5f365f969
:105420007e07812c9adc4318afc4a58e8feeed7eeb
:10543000d12691f2cc0679932284bd9e1b2c1b337e
:1054400013e9a50093f74d5c42bff0da4f3796c3de
:10545000acac166291eadeee1edd7e8a46337bcb73
:1054600025bd5b2a4c8a8049877b2f05c0533b2989
:1054700072d3e14f96f5ffa6d6c3b948c200575a7a
:10548000377e8607fcf26301d97224ed3cf4d2a288
:10549000fc17c3126962b715919262de336c7220f9
:1054a00049658dd6c275ac72425e3260a10f605400
:1054b000b3b47ba3650f0014c730181efcdd25a90b
:1054c0004428ea32cb4747eb6439cf0b67cc973897
:1054d00025f707a8588a877e7cc2ba4545984fd2df
:1054e000602062a8e0fe1ce4b5aa203497a66c09ef
:1054f000d888f081dd068c4f8f2e21acb3793ba28a
:10550000c453cee7598d9eb04963b0848d8b577cd0
:10551000881669f2bc3e9cd190730fef1db95110f3
:105520007237d8942f04d8358d982533897c67fd40
:10553000f7e980fdf0845b2730d43e2a5c9aa19085
:105540000cb4149a80ff9f0745cfa1386151712f89
:105550002b841c6cc939fcfb7e55c26015f4a54038
:10556000d3c3440ebcb694178cfc8afd0b3a0e359f
:1055700091d53e77e1e6c0a3afec30c20de0c17833
:105580005cf7019a4266889141aebf343db200d0cb
:1055900087ce6552cb536f6f3281cf46c0ad48a2e4
:1055a0007b45f5e72c9ea824a32ee89002fac64777
:1055b000bc1b46fa149d378d758aeb2716a706800b
:1055c00064fb823db6aabff0286682f33534215cc5
:1055d000fa99db3418de9520a01db481bfeff9bf26
:1055e0008796c113c9df9bb2edc22ee3202f8bc576
:1055f0000a22be8f0d083594cea7670e89fc097666
:10560000f0131fd0e87f001211e8a802483d123eb7
:105610003ce6c36086c2ee91e7a28accfff8e3586d
:10562000ab2a14c192e69246666cd9992b6c7d1711
:105630006aa2ab5c76e1f63a6064ea076245a7f6d7
:10564000a9c77827eb406d4d156901d3af4dac016b
:10565000b37820c29fc90a1d613509f59e25a2ffb6
:10566000d85dfb18cff9402cf881ed0177fdf8c02b
:1056700029ee331334fc310af4311d7bfe39672cdb
:105680001014b12353e5ab7dfb13fbdbbaa0e4366a
:1056900003c1de2668e462d29ee57306a6ca4bad5e
:1056a000d993c3b40a7bf98c0c27fce072ef9b0bf7
:1056b0007f76632fd812d286a23687d3b509e51a32
:1056c000b2891260ba07a92effcbc7b3d20fca02a4
:1056d000df07c1fde5e113305f525cef71ac2d12c5
:1056e0002786a74437f8505b84526ece46b259ad38
:1056f0009c469065fb921465f6c0d42393d525eca7
:105700003d47836e8c1d690847d60bd8e0ba3aaf87
:10571000edc648dfe71c8b938979d276ce043659e3
:105720006ce0b41985a7f606502d844032bb0f9b60
:10573000bc83dbaab6fc8a8208fe05631df128b291
:10574000a929a90a24826c9fed46c1707783751a36
:10575000bfebcc4ebac10c8650c50e8040ad74fe76
:105760000730a3f7345672edb99a9a704995739a37
:1057700003e2c3b042434a15dcd4e190574fd0de78
:10578000f9ae2e436468ee19467e8b68972e5376e9
:10579000ac52e3334e3546f83607adee30a442cc7a
:1057a000041404365cbe7b332f7d42eb55e11f03ae
:1057b0003547cd9fd0bc7b5412e9f37abf37a0d5d3
:1057c000c6232c4b8354914fdb566c6a9533b41629
:1057d00042a0c704ab8b54fabe8254820cc8904bd3
:1057e0000488042361558df5d2f0ccb8a59ec9bfbd
:1057f0001615a060e59c67e9d894f541e98428da9c
:105800001f8acf1ca48825c22cd703ba5535d220b5
:10581000c60829bce529f88b5770f43d88d4432b82
:10582000223c23618cd6b2af12e484d968261334ab
:10583000162e95e8831c2a891b29b79be62523bad7
:10584000d68db0633bede727290447800ac8ff489f
:105850006390bb1792c4f93b320b2658966273dcf7
:1058600080c49a61ed3cb4a37f50899827a13cb9cc
:10587000385d552f039b30b35d7f163cf8697fb8c8
:105880000e5e407e8f73be4b1c5894a2ee300fb854
:10589000fe90011f6d061b8feb027ca4cb5cc357ef
:1058a00077b3bf5421bb58f0a87f6cc8325fd37662
:1058b000e9cc7a8114b5e90e7043bd121ddbdc55cd
:1058c0004b1a4d1e6b75b858345c01a4af7fe4a130
:1058d000ad87736a95777f6435b18debf36bb1f566
:1058e000ef0b20125dd8908bf117e0c8b8b2964547
:1058f0008d05c65d833bd9001cd190b4cc44a22455
:1059000095846b1bdd678e9314c34302096ed53eed
:10591000cf5f81eb2899fe3419b300f6244722eac1
:105920000a7509973c49cfc1876dabe582c61a63fa
:10593000a2653c18419555117cefcb7701b33b37fd
:1059400050861688e66ff5d638682b5d870f64861b
:10595000aaab11ab953689220c5713bef93fcc9bed
:10596000e8a2a50f5fca6c6479b2b9b355ac65eb18
:105970001d07e6f6703e390960eda061b5a95766ce
:10598000b336fb561ae98887d29661ae92ac4becdf
:1059900089ddcdb837420e0b031dcc669816820ff9
:1059a000dfc3e3a10cd7acf40a7aae26500ffadfbe
:1059b0005c64df6f3711774f89b9a72b2753588a5b
:1059c0005d14daaac7fc8c355e1486264f0cf4836e
:1059d000386be0b436e390090fe418992854372c5b
:1059e0008d07e7d641384fdde39eb80c2bcccef0c7
:1059f00072134ced7cad02ee3a90c8b709b27595c2
:105a000008258e042be7483917854348df1a946729
:105a1000666fb177c87d538d2d1fbbcc31c074c369
:105a20007e22b40e53a1faf3d650e85db48fed2870
:105a300096b08d72153d646da55b90d110cc900031
:105a4000321a9ae6f52617a7a338f4ca99b2460f78
:105a5000947f41cdab0642c355905f9109f824b3c2
:105a6000cb03bf9530c067b5639df6de6df142e9ab
:105a7000922034897891212abc54c8f54bea5dd82c
:105a800015bcddf24a29fff6ae174c35c3ae30d354
:105a9000e17d66784aaf0acd1bba3b8344992ebaa2
:105aa000b7e61d71536a179c6d9b0afb985ea9159a
:105ab000b0ddbe6e67ce765f3ec55829572f704c5d
:105ac000a1ad609c60ec1ec9101341873039701481
:105ad000a45333500f03c264aaafebdfc865ab0415
:105ae000d6de321289b686cf7bc157408e79b0ebb5
:105af00064ad787d9b5937362e26589fb4d1162b2e
:105b000036e782979e094d95bc0259458271dec2e7
:105b10005c0feb165997270f6e600f33bdc2ef5223
:105b200032ae69956f5b10c7f927be92ce9a90cfbf
:105b3000f2ccd1e4436caaabbbc9e1d0b1601b721b
:105b400070feb95b0641815db623001119e3bbfe0f
:105b500001f0d659664c78f90760b086d910a4c513
:105b60003e6a186d8bf24cb6cdcb6c0dacf1221c9d
:105b70002c6ab49c664d6adfc1ad02e5aee50e5df0
:105b80003f24f96b583ef9af4c3fcb6f3538410895
:105b9000acda02ad6c69ba85dae4b814e1896f3c1d
:105ba000246acd248c0ce74b6a7d00d2e201723d61
:105bb0005a11355e43b2a62c361b8db48feeead651
:105bc00009e00a20f70d2dbc8fa4c34d4a4343c7fb
:105bd000e6ec6cf3bf1f8e6da96af55a61b951737b
:105be0006bcb562a85c2c9491bd2fa3fefc9fe24a6
:105bf0009f8088c22fb52f35a880875e8aad812906
:105c00006b3e0c215a08fda158afdcc8f807f34ad7
:105c1000938ec3cd4f8bf8ed621b444fb998c619d4
:105c200085179cdd22cfaf58a23be8d6e6d34b2d9b
:105c300018b2c550d68ad965c7cfa9b08350b5f67a
:105c4000334eb596c62886c95d7862e5e493fbe6d7
:105c500056aff72a01b27eaffdb6521961aa868c03
:105c6000d58bc62f4e5b46cb79d6e0ef1090fe9dcc
:105c7000643e3d60fa3b028ac82adf3ac1bdbba739
:105c8000382cbf32806b125ad48b045fef9e74bfe6
:105c9000f27cb8aa8f021fa7abab26024a4acf7488
:105ca000337ec7f0ce8631f24fda8ac0762a32339d
:105cb0006bff7477329f5632541b7ec7930a2c7544
:105cc000f67958521d142dd2b222768e46ab7666e6
:105cd0004de656400f7e7252fdeb14b6bbd36cdf1f
:105ce0002f7c7270ce5057a53cc7ceeb3f325e9fe3
:105cf000bcbe73dd0e1d051c3a7f9659f8b37d9529
:105d00004c330da6120bf04e32b43ba45e147d4909
:105d10008ab020c7d360c84cd67e37902a5d5281a6
:105d20001486459380755a442cefb3008e3a6d9ad1
:105d3000f13a5ef9a49d960298eba3f35eeb6dd465
:105d4000c4bf3c830370acd9a7fca657ddedc6d316
:105d50008fee61504dac1a563765f120e2281d2cac
:105d60006dc0062a6ab96c4595b2767ac8b4377c9c
:105d7000e1cb76a794ffa5b07cf1493f22b2542e27
:105d80004504c2592c18a9eac6dfdce82408511ad8
:105d90001a8ca393fcda780ea1cf308a90f00a50c7
:105da000e197a274379aa790b577ca99ebadf692ae
:105db000519f56e44fb43c5aa706a17b5bb32d47d5
:105dc00021178e28f07f0ce02b0c682ba3f2ca5d04
:105dd0002d2a6421a13bfcda3e9943e25b9beda7af
:105de000d20a6bfef44db468b8bd6580da5f21c39a
:105df00030866467d214d66def55de4bc012d56283
:105e0000f7a3597f943a1ac8584f64c5de587354a3
:105e1000e0c1ffa54a28f2b4e52db92a06d06dc32a
:105e2000a43d3f2003b068e024bf343939c51f7852
:105e300093fdbb5f3ea802cfe1d3c3b521602575ba
:105e400007516eff9f3de6419e6c237d1eda9e6bdf
:105e50001194474405e597f0c3e8d6f9ec698bd770
:105e6000fa7c28b44b07d01c2c4d67e4d042df6d80
:105e7000b04c4b3b84a83c25bd3b542d90f202fd19
:105e8000474996cdefe03b00c160b084c401e557bf
:105e9000d62a830469356cbdb16b7829b2ecb03d6c
:105ea0008da7222e7409081625e6fe02c0b84aa95d
:105eb00047537bcf4b3e9a893e5d78bef4712b23ce
:105ec000b5438d7deee87d00cc68836c6b626dab75
:105ed000955199e9b0e67820794df3db91d22946c6
:105ee0008eef174df07330b74bb067ac17c23acf97
:105ef00055f6ff41fdf49b38548dbd6746b6ffb2a1
:105f0000533d9d5e72a35d66a447550cac499f4608
:105f10004dba63a2592ae91955f2bdfb0a22595319
:105f2000eb38bef42a016a68e75515928ad1c3fca2
:105f3000ab8a43a9b47511bbe67977322c0e2c429b
:105f400070ff087e0505744a17fdaf4e265db10649
:105f500092804059ae613cb4d286577ca297b9502a
:105f6000ccfdbeca7572d658e310d919fc12e4a64e
:105f7000fc59bce8b5684597f9c30874878d70ec87
:105f800014d6ee1d635faba7245f35dbc222ac40a5
:105f90007f418f31546df2c957b81966c6ad9ec79f
:105fa000d1356a40a8f621edde56ae8967f2a82009
:105fb000b0604c3edbac1e26bc591131ac8fd86ba7
:105fc000fd6216a5e8e389c20163a405064d166ac1
:105fd000534f564243b0c53dcc5bb3ccb16cabe341
:105fe000fd15b7ad6b6c9f04a540027479af0482b8
:105ff00002b867ffd788a49949f1fc3da68a778447
:1060000087a26e71566137971dab3fce9bafeeec0a
:10601000d2850f27db51f1c5dff044f41362d57f41
:1060200084f8499fe1058874b8530c0d3f108e6abf
:10603000aa6824418da4e6ffcd182d7635cb4e6f8e
:106040000df4798f39f704d08bfe9d378378fd8d61
:106050005879a726938151049e728f6f1513a362fe
:1060600045dea785b5625340b5accc0e3e975914ba
:1060700068da19b489c77d4cc208f7937d962293dc
:10608000d7b939fb586e48ec8acf19e642d5be34f1
:10609000f3777c76c8248840bea45d103ef343aeff
:1060a0009ec703bfda0886eeaf404cbb0ea070ce91
:1060b000fff0c85e8ede55f7806fe9c10f072941fa
:1060c00052e772d92402f7244d3864d57f29371b53
:1060d0001dae5ca01425ba32c3cb02d4451b1cc133
:1060e0007a4c267222a3c5015d3a43ae231d90d09f
:1060f0004da623f9232bc5e4292d11927c7c8eeb30
:10610000c01a78351431f011507e9614d07711faf8
:106110001c01da11eff5ebb4b35e0836f8c7623d47
:1061200035cd1f00f80d95520a24996619ce704995
:10613000b7e17279c595fdc7d731e65c792b964bef
:1061400005fa7efb55d60d782567e81ed89c337579
:10615000d314690a4c84ca6659b2e4cd71c5fe9e57
:10616000848a6f660531871673f69c45b90b2177d3
:10617000875eeb7f26d22c353bd2d5644970302820
:106180007ea2e33cefd87c7c802f120caa4b476e9a
:106190007cf2c94d7214ca58bb6e481a3fa4099dbf
:1061a000a541049832a0ac0e8b7963dd15b905a624
:1061b00079580a21cd5088e1581a12ea37e01ca715
:1061c00054633086a8d285cc058d2539e2e2f920ca
:1061d0007bf8bd3744bde3b589e9ba81088f8133c7
:1061e0000d2a18dd57cbcba643d7a2875e61d2fb21
:1061f00062729f847327b166c6526dc52e9d1702c9
:1062000075fc1076fb459b4db910bbf372764ed1f1
:10621000cc21c4c8104912ff0725b64a62c9c08bf9
:10622000710335bdc0672976423c1ade7044b3293c
:106230002263a96b38a4b4457cf15998ed4470bd34
:10624000f5dc607e86755291af1da1054ca9cb751a
:10625000a7adfe7cf6b9adfa84f979f3fb5de6b043
:1062600087ad7a58c5d15de493d90efd1fc215c321
:106270007a1a18c5c19531e79324b66c8e6144b380
:10628000d68ed248e8a45cfc1e976bedab29126455
:10629000305db5f75bed9b183260e9ec49da49c433
:1062a000c5cc1e610326e470c7a3cd3b5f373d0b11
:1062b00088494bb23d580355dfe5893bd9dc27c2fd
:1062c000bdf8d7be084dffdad44120289e244240b5
:1062d0008d9586dd36226b579972e33f5a538cdadf
:1062e0004fc97bbc5c18175e0356b8fc27d928bc85
:1062f000249fc9f54616aaa6984d50e0d7414d995e
:106300008d3fd29d09bb02886690262a69aa12b1e8
:10631000c70089840529499e08880a10ecb16409e0
:10632000fe85b30086751cb058128962743853de3e
:1063300033818e20629e8ed0bbd7ff1c21e2216d5f
:10634000e1d5c62fbb9315efa3707d98ad5f494a89
:10635000f05ddac402eb76283df6c00c65f6df503e
:1063600049e71e549c0f735a11a900cf21c9ac7183
:106370006e0da8276f164cfe9acaba84b96d31e12a
:10638000c4bf5a4ec6517f388044db3b40c40b0625
:106390000e922160a86d8fc20c8e77f5d3ac7b4234
