:020000040000fa
:10000000e8ff0020090400007104000071040000f2
:10001000710400007104000071040000710400000c
:1000200071040000710400007104000071040000fc
:1000300071040000710400007104000071040000ec
:1000400071040000710400007104000071040000dc
:1004000006000000000000001049086800281bd00a
:100410000f4a90470d490868002815d00d4a012061
:1004200010600d4a11600d49012008600c4a00203f
:100430001060082008600b4a10684008fcd2054a8a
:10044000002010600848004708480047fc41e00fc2
:10045000ef05000008000e4010000e400c000e409a
:1004600018000e401c000e40710400009d040000a6
:10047000bff34f8f054906480860bff34f8f05490a
:1004800005480860bff34f8ffee7000000500e40a4
:10049000444400000ced00e00400fa0500b5444ab5
:1004a0004448801a91b020f0030000231446834290
:1004b000414a03d0d158e1500433f8e73f4940485e
:1004c000401a134420f003000022824203d000248b
:1004d0008c500432f9e73b493b4c641a24f0030486
:1004e0000022a24203d0985888500432f9e7374ad4
:1004f0003749891a21f0030100238b4207d00020dd
:10050000d0500433f9e7d3f89020940705d4314b49
:10051000d3f84021d501fad4f5e72f4a5468516841
:1005200021f0407141f0807151602c4a1d69d2f870
:10053000b0201a6101f0dafc01f030fc00f056f84e
:1005400000f09cfb00f06cfe00f098f908b100f0a0
:1005500085fa204bd3f84021d001fad4d3f890206b
:100560009107f6d51d611b4bd3f84021d201fad477
:10057000d3f890309b07f6d5174b01215c60684695
:1005800000f050fc009801a900f0fafb20b9039b91
:10059000134843f001039847bff34f8f114a124ba2
:1005a000d16801f4e0610b43d360bff34f8ffee7e6
:1005b0000000002020010020f02200002001002087
:1005c0002802002000040020080400200c04002061
:1005d0005827002000400e4000000e40b081e00f80
:1005e0009021000000ed00e00400fa05704770471c
:1005f0000020704703207047032070470320704796
:100600000020704703207047054b5a6842f01002e3
:100610005a6003f5a04344f244421a60704700bf99
:1006200000000e4010b500231a464ff0ff31c45ca5
:100630008c4218bf00220132042a04d00133102b4f
:1006400003d02146f3e7002010bd012010bd0000bb
:1006500008b501f071f8bff34f8f054a054bd1681b
:1006600001f4e0610b43d360bff34f8ffee700bf9f
:1006700000ed00e00400fa051fb5436a994202d379
:100680004ff0ff301ee0c269531c1ad0036b994231
:1006900004d2013b591a8369585c13e0cb1a0b4909
:1006a00000208de803000a49013a0868d21a0df1ca
:1006b0000f01012300f0e1fb0028e1d19df80f00bc
:1006c00000e0002005b05df804fb00bfa08601003b
:1006d0006414002038b5026a836a9a42044602d341
:1006e0004ff0ff3038bdc36a0f2b11d90c48616938
:1006f000102200f0e3fd05460028f1d11023206907
:100700000749224601f00cfc6369e562103363611e
:10071000236a01332362e36a5a1ce262e05c38bd5b
:1007200058170020f7b5134b134e05461446002208
:100730008de80c0030682a4623460f4600f00cfc7a
:1007400008b1002013e00d4b0090019330680c4974
:100750003a46234600f091fb0028f2d1284608498a
:10076000224601f0b5fcd0f1010038bf002003b0f3
:10077000f0bd00bf20a1070064140020a086010086
:1007800058170020c369013310b5044616d0036b17
:100790008269581c2063d154626b236b93420dd342
:1007a000a069e169fff7beff10b9a36b0133a36332
:1007b000e269636b1344e36100232363636a0133db
:1007c0006362002010bd0000f0b51e46244b9fb0b0
:1007d00007460c4618686946154600f0d1fa20b164
:1007e0006b1c36d14ff480530493049b1d4914971e
:1007f000b3f5805f84bf4ff4805304931a4b139377
:100800001a4b1593236819934ff0ff3300221a9364
:10081000049b179218921b921c931d92144b154a1d
:1008200016950fa801f0f4f9134a1d9b116819449d
:10083000116080b91b9820b10fa8ff21fff7a2ff1c
:10084000f8e7189ab24208d8169b013306d0226006
:1008500004e0082002e0052000e006201fb0f0bd03
:100860006414002085070000241400201c040020cc
:1008700079060000d50600001c1400202de9f04f79
:10088000544b554a554e1360803391b03360544bee
:1008900000220df113001a6000f02afc002840f03d
:1008a00095809df813305a1e012a40f28f80052b47
:1008b00000f08c8009a800f0d9fe002840f0868066
:1008c0000d9b002b40f082800e9c621c7ed1fff7b6
:1008d0009bfe9df81330032b08bf022002d0042b8f
:1008e00002d10320fff7b4fe3e4b3f4f3f4d202186
:1008f00019600b9ba3f1300038603d483022026044
:100900002a603c4a402010603b4a3c48403b136010
:10091000102200f0d3fc002858d12d68d7f800a091
:10092000d6f800900395054609eb451000f054fffa
:10093000baf5805fddf80cb094bf0027012756465a
:100940005eb1b6f5805f34bfb0464ff480582c4896
:100950005946424600f0b2fc58b105a8274910227a
:1009600001f0b6fb002808bf2c4601351c2ddbd159
:1009700011e0b6eb0806c34402d1022f08bf0327db
:100980000197cdf80080002005a910221c4b01f032
:1009900007fa0227d4e7631c10d009eb4419484634
:1009a000fff740fe40b109f11000fff73bfe0028c1
:1009b00008bf4ff0ff3401e04ff0ff34114b1c60d3
:1009c000013408bf04208dd0012000e0002011b0c8
:1009d000bde8f08f003800000c04002070140020e7
:1009e0001c14002068140020741400206c140020d3
:1009f00010040020140400201804002054140020c7
:100a0000581700202014002070b5124e94b00546ef
:100a100001243068039405a900f0b2f9a8b9b5b172
:100a20000a9b0490013d5b421d40049bab424ff08a
:100a300001000dd8084b03900093306804a903aa65
:100a4000002300f0e0fa0028efd0002000e020466c
:100a500014b070bd6414002040420f002de9f04f27
:100a6000734b74481968c3b0102200f027fc0028ab
:100a700040f0db80704b71481968714b6d4a1b6800
:100a800003eb4111103100f092fe6e4bd3f8008061
:100a90006d4b1e68002e44d003a84146102208f179
:100aa000100900f00bfc002837d10f2e37d9049b1a
:100ab00003f11002964232d3069a002a2fd15f4ddd
:100ac00002930fcd18ac0fc40fcd0fc495e80f00e3
:100ad00084e80f005d4c0398206024a900f050f9d1
:100ae000002835d133a8259f00f0c0fd60bb9df8dc
:100af000e430f3b1484602a94ff0ff323b46fff71e
:100b000063fe834670b92368dff840a1013300f02b
:100b100087803846fff778fff0b9082002e0072009
:100b200000e030464a4b1b68002b18bf0120fff73e
:100b30008ffd9df8ca30022bdcd1359b203fff1a78
:100b4000299b5a421740d5e74ff0ff332360d1e786
:100b50004ff0ff372760cde718ad0fcd374c0fc4ee
:100b60000fcd0fc495e80f0084e80f00484602a996
:100b70005a463b46fff728fe0028d3d19df8c930de
:100b8000002b4dd011a800f071fd139bdaf8000086
:100b90000990203b0793bdf85030adf820309df808
:100ba00052308df822309df853308df823309df867
:100bb00014308df828309df815308df829309df8c7
:100bc00016308df82a309df817308df82b3033a968
:100bd000029b0b9300f0d4f810bb349b232b1fd93e
:100be0001c4bdaf8000001228de80c000ca9102241
:100bf000142300f042f998b90cab11aa934204d225
:100c000013f8012bff2af8d00ae009d107a8102118
:100c10001422fff787fd18b90d4b1a6801321a60cc
:100c2000049b10339844f61a34e743b0bde8f08fc4
:100c30001004002078140020201400202414002028
:100c400070140020140400201804002064140020f4
:100c50001c140020a0860100074b014603f180020e
:100c600018469b688b4205d000f110039342f7d1e0
:100c70004ff0ff30704700bf0038000010b501f0a2
:100c8000e3f90446fff7b4fc002c18bf204610bd62
:100c9000e0b51d460f461646fff7deff431c0fd09a
:100ca000436872199a420dd8c368016813f0020fa5
:100cb0000ad1384631442a46bde8e04001f0d0b9b7
:100cc0000520e0bd0420e0bd384631442a46fff748
:100cd00091fce0bd70b51d460c461646fff7bcff03
:100ce000431c0fd0436862199a420dd8c36800684c
:100cf00013f0020f0ad1204431462a46bde8704065
:100d000001f016ba052070bd042070bd20443146a4
:100d10002a46fff771fc70bd73b50e461546fff706
:100d20009bff326803681344421c0446019308d0b9
:100d30004db1c3689b070dd401a8294601f0f0f915
:100d400002e0052000e004202268019b9b1a33602a
:100d500002b070bd01a82946fff750fcf4e708b5c2
:100d6000fff77aff421c05d0c3689b0704d5fff745
:100d700047fc08bd002008bdbde8084001f07ab975
:100d8000f0b58db00c46fff767ff421c054606d054
:100d9000c3689b0705d501a8fff734fc04e00520d4
:100da00026e001a801f068f9ab6823606b68636016
:100db0002b68a360074601ae04f10c030df12c0c67
:100dc000324603ca624518605960164603f10803ab
:100dd000f6d110681860eb68c3f3400284f838203d
:100de00003f001029b0884f8392084f83a30384631
:100df0000db0f0bd30b50023094c04eb0314dab29a
:100e0000a468651c09d00d78954288bf40f823403e
:100e100001330132082bd2b2eed10a7030bd00bfcf
:100e200000380000f0b599b008238df803304ff07a
:100e3000ff33036005460f4601a80df10301fff7dc
:100e4000d9ff00249df80330e6b2b34212d918aba3
:100e500003eb860609a956f85c0cfff791ff38b939
:100e60009df85e30bb4203d156f85c3c2b6002e03b
:100e70000134e7e7012019b0f0bd2de9f04f91b042
:100e8000894601a9804692469b46fff779ffe8b95b
:100e90009df868600e9f1b9c0136bc4238bf3c46e3
:100ea000f6b24046494652465b46fff7f1fe05461c
:100eb00038b94046fff753ffe41b10b1002cf8d1be
:100ec0000625013e16f0ff06ebd1284611b0bde81d
:100ed000f08f000030b589b005460c46fff7bcfe28
:100ee000431c33d0c368d90701d401202fe0194b2c
:100ef00001228de80c00284603a910221423fff7d5
:100f0000bcff20bb039b002befd013f00f00ecd1f4
:100f1000059a0132e9d09df81850ff2de5d09df8d3
:100f20001910ff29e1d09df81a20ff2addd02033c7
:100f30002360bdf81030a3809df81230a3719df896
:100f40001b30e57121726272a37200e0052009b0c6
:100f500030bd00bfa08601002de9f04f95b00c46d2
:100f60001d4605a99df87830019092460393fff73e
:100f700007ff0746002842d1ddf848901f9b4b45ec
:100f800038bf4b460293002d39d0099bddf80c8009
:100f9000029ec3f1000c04ea0c0c9c442b1963451f
:100fa0008cbfc4eb0c0bab465b4601982146524606
:100fb000fff790fe034660b901980093fff7cffe5c
:100fc0004e45009b14d3c9eb060610b1002ef3d199
:100fd000062308f1ff32b8f1000f01d09046e3e795
:100fe00023b95c44da44cbeb0505cce71f4606e0a9
:100ff00000284ff000060cbf33460623e9e73846c9
:1010000015b0bde8f08f2de9f04790b0894601a9f1
:10101000804692461e46fff7b3fed0b90e9f189c3d
:101020000136bc4238bf3c46f6b2404649465246bd
:10103000fff772fe054638b94046fff790fee41b05
:1010400010b1002cf8d10625013e16f0ff06ecd1b8
:10105000284610b0bde8f087044a00231370044a04
:101060001360044a1360044a13707047a001002003
:10107000c001002020010020bc01002030b5174b2a
:1010800091b0186801a9fff77bfe28bb144a059ba5
:101090001360144b144c1b78144a02991bb10020a6
:1010a0002060116018e0039800f110030069002827
:1010b000f5d010f00f00f2d19d680135efd01d7b07
:1010c000ff2decd05d7bff2de9d09d7bff2de6d081
:1010d0001b692360cb1a136011b030bdc80100201a
:1010e000b8010020b401002094010020d0010020ac
:1010f0002de9f04f3f4e89b033780390002b6ed12d
:10110000052333703c4b1b78002b6ad13b4bdff837
:1011100004a13b4c0194012700971a68daf80000fb
:1011200004a91023fff7a9fe054600285ad1354827
:1011300004a9102200f0ccff08b102234de0dff833
:10114000d890dff8d88000970194daf80000d8f83a
:10115000002049461023fff790fe0546002841d1a4
:10116000d9f80040284ba4f140029a4201d8210747
:1011700001d0032331e0d8f800304ff6ff78c4ebfc
:10118000030b1f4bdaf8000020490022702c34bffb
:10119000274670278de80c005a463b46fff76dfe48
:1011a00088b9bb44e41b0346184a4046d15c02930d
:1011b00000f036fb029b0133bb428046f4d3002c87
:1011c000dfd1034601e04ff6ff73114ab9f80480fe
:1011d0001360434514bf04230623337002e0002547
:1011e00000e007253378039a2846137009b0bde85c
:1011f000f08f00bfb5010020a0010020c401002035
:10120000a086010041210000c0ff0f002401002042
:1012100098010020c8010020a40100209c010020aa
:1012200038b51d4c1d4d20460421fff7fbfd30b99c
:101230002368013303d01a4b01221a700ae0164cbe
:1012400002212046fff7eefd40b92368013305d0a7
:10125000134b1870fff712ff044618b105232b70cb
:10126000012416e00f4b104a1b6812680f491a44fc
:10127000a2f1100008600e49203a0a600d49d31a05
:101280000b60fff7e9fe0c4b04481c602c70fff765
:101290002fff204638bd00bfc8010020b501002047
:1012a000b401002094010020d0010020c4010020de
:1012b0009c010020cc010020980100202de9f3477b
:1012c000324b0c461b783249154606460a68894659
:1012d000002b52d12f49097806294ed12032944251
:1012e0004dd2121baa424ad3002848d01f2c31d815
:1012f0000093dff8b480284b284fdff8a8a0cdf882
:1013000004a01a68d8f8000039461023fff7b5fd8d
:10131000002837d18de80104214bd8f800001a6865
:1013200007f110011023fff7a8fd58bb4ff0004351
:10133000c4f12008a84528bfa846bb614ff0ff3381
:1013400030463919fb61424600f0d1fe4444c8ebf7
:1013500005054644adb1124b1a68d9f80030203a61
:10136000d21a104b00218de80a000f4b3146186845
:1013700022442b46fff781fd04e0072002e0042011
:1013800000e0284602b0bde8f08700bfa0010020c1
:10139000a4010020b5010020c40100202401002088
:1013a0009c010020a0860100c8010020f0b51a4d64
:1013b00095b0044605a92868fff7e2fc174b1a7898
:1013c000012a1e4624d0164b0a9a1f68154b1b682b
:1013d000524213400f3703931740039bbb420ed872
:1013e0000123049304b1a0470f4b0093286803a97d
:1013f00004aa0023fff707fe0028eed009e00b4bfc
:1014000000241c6001233370fff726fe204600e015
:10141000002015b0f0bd00bfc8010020b5010020bc
:10142000c40100209401002040420f0098010020d8
:101430006f2838b504460d4601d8012038bd030792
:10144000fbd1094b1b689842f7d81046fff7aeff57
:101450000028f2d1054b01221a70054b1860054b8c
:101460001c60054b1d7038bdd0010020a00100207c
:10147000c001002020010020bc0100202de9f04f18
:1014800015466d4a1c46137885b0064688461bb93a
:10149000fff7e2fd03230ee0684f3a689042ba4638
:1014a00003d0fff7d9fd0426c1e015f0030c05d0e9
:1014b000fff7d2fd052323700426b9e0702df7d87d
:1014c0005f4ad2f800b05845ebd8c0eb0b02aa42f5
:1014d000eed319b9fff7c0fd0723ece7012b6bd161
:1014e000584b0293c0f12009a94528bfa9461818f6
:1014f0004e444a46cdf80cc000f0f9fd1f2e3e6068
:10150000029bddf80cc003d884f800c066468fe06b
:1015100018464d490293102200f0dafd029b18b1e3
:10152000fff79afd06237ce01b69484a454fa3f16b
:1015300040019142f4d81907f2d1ba6932f0004261
:10154000eed1f9690131ebd120339b45e8d14ff061
:101550000043bb613e4bdff80cc11b78bb753d4bb4
:10156000dff804b11a703c4b0092cdf804c0196842
:10157000dbf80000cdf80cc03a461023fff7ecfc76
:10158000ddf80cc0002833d18de80110334bdbf8b7
:101590000000196810373a461023fff7ddfc38bb0e
:1015a00097e80f00dff8b8c08ce80f00224a02234a
:1015b0001370c9eb0505c84415b925702e4637e0f0
:1015c00041462a461f4800f092fd244b1968244bdf
:1015d0001b682039c91a234b00228de80c00224bce
:1015e000184a186831442b46fff7b6fc064608b186
:1015f000082316e0daf80030114a164f1d4413682c
:1016000038709d42caf8005011d1fff725fd3846c9
:101610003e70fff76dfd064610b93b78062b03d0f0
:1016200002232370012603e00123237000e02670cb
:10163000304605b0bde8f08fa0010020c0010020b9
:10164000200100202401002041210000c0ff0f00e4
:10165000bc010020b5010020c40100209c01002035
:10166000a401002020a10700c801002030b5164dbc
:10167000044691b0fff702fd2b682360134b1a68f4
:101680002032a2609a88a2819a79a2739a68226114
:10169000da68db79e3730e4b62611b7823760d4bbe
:1016a00001a91868fff76cfb10b14ff0ff3307e09a
:1016b0000a9b0d9a29681a44069bb1fbf3f3534326
:1016c000636011b030bd00bfd0010020a401002034
:1016d000b4010020c801002070b5134b88b00df193
:1016e0000f001d68fff704fd0446c8b99df80f30d0
:1016f000062b15d10d4b9a689ab10fcb08ae06e9af
:101700000f0032460a4b42f8084d0193094b0094f2
:10171000186805f108010423fff71efc044600e0e9
:101720000724204608b070bd9c010020a4010020c1
:1017300020a10700c801002070b50f4b1c680f4b9b
:10174000da680132054686b018bf072011d10fcbe9
:1017500006ae06e90f000a4b3246002142f8045d4e
:101760008de80a00074b04f10c0118680423fff709
:10177000f3fb06b070bd00bf9c010020a401002057
:1017800020a10700c801002010b50f230022cc5c67
:1017900042ea4402c254ca5c13f1ff334fead21248
:1017a000f5d21ab1c37b83f08703c37310bd30b584
:1017b000034601f1100451f8045b43f8045ba142b5
:1017c000f9d1103002f1100352f8041b40f8041b49
:1017d0009a42f9d130bd000030b50d4c0d4d85b0a9
:1017e00001462a462046fff7e2ff29460a4d6a468f
:1017f0001023204600f094fb284604f12001fff757
:10180000c3ff06482946fff7bfff05b030bd00bf44
:10181000f40100209c210000d4010020e4010020fc
:1018200040ba83b25940c1f303134b4083ea0333f8
:101830009bb2d8b283ea40107047f0b5036889b014
:10184000002500245c530235202dfad1944208da99
:1018500031f9145033f81560013623f8156001345e
:10186000f4e7b3f9004094422ed0002501245e191c
:10187000b6f90260d6eb440428d402351e2df6d109
:101880000025adf8025000ae2e445f190235b7f8be
:1018900002c077881c2d6744b780f4d1002393429f
:1018a00014da31f813606eb108ad36b205eb4606b6
:1018b000476836f8205c05f1010c2db226f820cce3
:1018c00027f815300133eae7002000e0204609b090
:1018d000f0bd70b5056904460e466369b34210da7f
:1018e000a36820689847002804da04f11800012151
:1018f00000f00cfc6369c2b29a400833154363617f
:10190000ebe7012025fa06f29b1b00fa06f6701e93
:1019100022616361284070bd2de9f84f04460a68d2
:101920000069636900268a4602f102083746b1461b
:10193000012523b300f00102b8f900c042ea090210
:1019400008f10201cceb0208b8454fea50000dda6d
:10195000636920615b1b03f00703d71b63613e448f
:10196000daf8043033f91600bde8f88f6744013b1c
:1019700066447f004fea420901358846d9e7d5f130
:10198000100b10d0a26820689047002804da04f1f8
:101990001800012100f0bafbc0b2bbf1080fb4bfc0
:1019a0005b460823c5e76ff00900bde8f88f00002b
:1019b0002de9f84304460f46904639462046fff786
:1019c000abff011e49dbff290adc6568002df4d05e
:1019d0002068c9b2a8470028efda0120bde8f883e3
:1019e000b1f5807f02d10020bde8f8836ff48073e9
:1019f000cb181c2b34dc204a32f913601f4a2046d6
:101a000032f91310fff765ff414606442046fff701
:101a100083ff051e28db1a4b33f91590194b20461e
:101a200033f91510fff755ff6368814493b9b5f595
:101a3000807fc2d1d7e709f1ff31e368206898477a
:101a4000011e14db94e80900c9b29847002806f18a
:101a5000ff36c2db002eeed1e9e70846bde8f88389
:101a60006ff00900bde8f8832846bde8f8836ff001
:101a70000a00bde8f88300bf842200004a2200006b
:101a8000ac210000e82100002de9f047adf5a86d7c
:101a900004ab009323ab01930cab0293052114ab71
:101aa00005460393fff715ff052100f201172846ad
:101ab000fff70fff042100f101082846fff709ff97
:101ac000b7f58f7f00f1040900f38880b8f11e0f8d
:101ad00000f3848000264e45b2ac0ada4b4b284610
:101ae000032133f916a0fff7f4fe013624f81a009b
:101af000f1e7122e07dc454b33f91630002224f8ab
:101b000013200136f5e7684621461322fff795febc
:101b1000002866d1064607eb08094e4534da284608
:101b20006946fff7f9fe00286cdb0f2803dc721c06
:101b300024f8160026e010280ad1002e54d0731e77
:101b40002846022134f913a0fff7c3fe03300de04d
:101b50001128284604d10321fff7bbfe033003e020
:101b60000721fff7b6fe0b304ff0000a32184a4546
:101b70003ddc04eb46060023834203d026f813a085
:101b80000133f9e71646c6e7b4f9003293b3684665
:101b900021463a46fff751fe002808d02ddb009b76
:101ba000b3f90020b3f9023013449f4225d102a8b3
:101bb00004eb47014246fff740fe002808d01fdb38
:101bc000029bb3f90020b3f902301344984517d1b2
:101bd0002846694602aafff7ebfe13e06ff0020009
:101be00010e06ff003000de06ff004000ae06ff00a
:101bf000050007e06ff0080004e06ff0060001e068
:101c00006ff007000df5a86dbde8f08724220000f5
:101c1000f0b5adf52f7d0190049307a80023029144
:101c200003920593069300f06bfa002840f0a18020
:101c3000012101a8fff74dfe0221044601a8fff78c
:101c400048fe00283cd105900690039b01989847d8
:101c5000061e01da022087e0039b01989847051ec3
:101c6000f8db039b01989847071ef3db039b019861
:101c700098470028eedb80b2ffb2adb2f6b247ea79
:101c8000002746ea0525ff43adb2bfb2bd4214d1dd
:101c9000029b0bb9002067e0002dfbd0039b01984d
:101ca0009847011ed6db029b0198c9b29847013db7
:101cb0000028adb2f0da012056e06ff0010053e0e9
:101cc00001284cd12e4b1b68002b42d02d4b2e4aa5
:101cd0001a602e4a5a602e4b2e4a1a602e4a5a60bb
:101ce00000231eaa082199520233b3f5907ff8d140
:101cf00000231eaa1a4402330921e02ba2f8201166
:101d0000f7d100230233322b05d0aeaa1a440721a3
:101d100022f8421cf6e700230233122b05d0aeaaac
:101d20001a44082122f8121cf6e716481ea94ff49f
:101d30009072fff782fd00231ea905225a5202333a
:101d40003c2bf9d11e221248fff777fd0c4b0022e5
:101d50001a6001a80b490e4afff72afe04e0022888
:101d600009d101a8fff790fe38b9002c3ff460af0d
:101d700003e0022001e04ff0ff300df52f7df0bdb4
:101d8000000400208814002098140020f41400207f
:101d90009014002034170020b81400207047000071
:101da0002de9f84f07464ff480709a4689469046d1
:101db0000a9d9df82cb000f01df9454801230360f1
:101dc000bff34f8f434e444c00233360736023684e
:101dd000736263687362a3687362e3687362bbf1e2
:101de000010f844638d817b92762676203e03b6861
:101df00023627b6863620023a362e3622ce00a46ed
:101e000016f8011b02f8011ccaeb06079f4202f1fb
:101e10000101f4d34db3314b03f1100753f8041b08
:101e2000da684a402b4943f8042cbb42c1f88020b1
:101e3000f4d105238b600b69264a9b07fbd4d2f8ab
:101e400080302362d2f880306362d2f88030a3629f
:101e5000d2f88030e362b24645b3102d34bf2b4632
:101e60001023ed1a1e495646c9e7bbf1000f02d0f8
:101e7000bbf1030fcfd1d3f110010ad0802313702f
:101e8000002301338b4202d00027d754f9e71549cc
:101e900000e015490023e718ca583869043380ea7e
:101ea000020e102bc7f810e0f5d1b4e7ccf80050c3
:101eb0004ff4807000f0b2f8454506d0631993f8ee
:101ec000203009f805300135f6e7bde8f88f00bf8e
:101ed0000016c84300000f40f40100200402002057
:101ee00005020020e4010020d401002007b50948c4
:101ef000fff772fc084b09499b6c1b0c00209b02ee
:101f00000093019004224ff00053fff749ff03b004
:101f10005df804fb9c210000b081e00f0804002064
:101f20002de9f04104464ff4807017461d460e46d9
:101f300000f060f82d4a01231360bff34f8f2c4b44
:101f4000002119602168596261685962a16859626b
:101f5000e16859629446002d3fd0254b2269c3f8b1
:101f60008020d4f81480c3f88080a169c3f8801061
:101f7000e269c3f880200520986020690130206163
:101f800040b908f10103636123b94b1ca3610bb98c
:101f90000132e261164b186910f00200fad1d3f851
:101fa00080202262d3f880206262d3f88020a2626f
:101fb000d3f88030e362102d34bf2b46102304f198
:101fc0002008ed1a18f80010325c4a403a540130eb
:101fd0009842f7d106440744bde7ccf800504ff4cf
:101fe0008070bde8f04100f019b800bf0016c8438a
:101ff00000000f4072b6074b1a6801321a60064a99
:102000001168084310601a68013a1a601b6803b926
:1020100062b67047541700202402002072b6084ba5
:102020001a6801321a60074a116821ea000010603c
:102030001a68013a1a601b6803b962b6704700bf9c
:102040005417002024020020044b41f671321a6418
:102050009a6822f001029a600020704700000e404a
:1020600010b5eff3108472b600f041f804b962b60f
:10207000002010bd00207047134a70b50346054686
:1020800002f12806144603ccb44218605960224677
:1020900003f10803f6d1206818600c4b9a6c596b59
:1020a0005b6b92b2090e1b0e92020a310a332a6050
:1020b00003f01f03012201f01f0102fa01f19a400f
:1020c0006960aa60002070bdc0220000b081e00fee
:1020d00030b50023934208d0c55c0133cc1814f806
:1020e000014ca542f6d0281b30bd002030bd10b5f4
:1020f0000023934203d0cc5cc4540133f9e710bdf4
:10210000ec46a0e8f05f4ff000007047b0e8f05fe9
:10211000e546080008bf0120704700bf000000002e
:1021200001b40248844601bc604700bf9100002012
:1021300001b40248844601bc604700bf0100002092
:1021400000534352319a933082d9eb0afc3121e398
:1021500037000000f1100000bd120000ad130000b8
:10216000311400007d1400006d160000d916000027
:10217000910c0000d50c0000190d00005f0d00004f
:10218000810d0000f50d0000250e0000d50e0000a9
:102190000600000070210000542100000000000033
:1021a000000000000000000000000000010002002c
:1021b000030004000500070009000d0011001900cc
:1021c00021003100410061008100c1000101810155
:1021d00001020103010401060108010c01100118ac
:1021e00001200130014001600000000000000000fb
:1021f00001000100020002000300030004000400cb
:10220000050005000600060007000700080008009a
:10221000090009000a000a000b000b000c000c006a
:102220000d000d0010001100120000000800070052
:10223000090006000a0005000b0004000c00030062
:102240000d0002000e0001000f0000000000000061
:10225000000000000000000000000100010001007b
:10226000010002000200020002000300030003005c
:10227000030004000400040004000500050005003c
:102280000500000003000400050006000700080028
:1022900009000a000b000d000f00110013001700c9
:1022a0001b001f0023002b0033003b0043005300a2
:1022b000630073008300a300c300e3000201000079
:1022c00000001000000800000008000004000000ea
:1022d00000000000000000000000000052000000ac
:1022e00002a00000ba880000020000000000000008
:1022f00040ea020313f00303f7b5064638d192080b
:10230000eff3108772b61d48846844f001048460be
:1023100093421a4c25d206eb8300c0f30a0c012528
:10232000ccf5006c20614fea9c0ce560d41aa44502
:1023300028bfa44663440024644501eb84000ed00a
:10234000006801900d4de8690007fbd50198a86170
:102350000820e860e869c007fcd40134ece70146d6
:10236000d6e7a36823f00103a3601fb962b601e0ba
:10237000042000e0002003b0f0bd00bf00000e40cc
:1023800070b58cb0044601a80d4600f039f80399e9
:1023900022684b1e13402ed1286800fb01260198ad
:1023a000864228d899421dd00433981850f8040c5e
:1023b0000130f7d0eff3108172b6104b9a6842f0fb
:1023c00001029a6022681a610122da600222da6050
:1023d000d8690a4ac007fbd4936823f001039360cd
:1023e00001b962b62268039b134423602b68013b4a
:1023f0002b60002000e004200cb070bd00000e40f7
:1024000001b40248844601bc604700bf7920000047
:0c241000010000000000000000000000bf
:020000040000fa
:10380000000000000040000008010010000000005f
:103810000040000000c00300080100000500000097
:103820000000040000f00300084c7583090000004c
:1038300000f0070000100000080000200c0000004d
:020000040000fa
:1038800021bbd37575030c0a64664b2496d661324e
:10389000634d84afe8e5b025a27b0fb1834c4da703
:1038a000396503c6b24ac4333c646d941c76033553
:1038b0009587f5f9e82bb22b3e3749e850e321f51f
:020000040006f4
:101660005e1b47db732b3e5adeb9ec0d9e3d33df2c
:1016700083ca9389384d0d38bdf7f1458fad5ad5e2
:101680000801000080c3010004003e0000000000cb
:10169000e077954da2091f5007a0d981bc2150d9f0
:1016a000d76cb46de88e387024dd2e0ec581494aa2
:1016b0000fe2c322d98f95172ee258cb5a029f4dc5
:1016c0003dbf85b65306c17c39b17a7c02b19aa878
:1016d00028656f2332df67c90eefb5ee2ef288afb3
:1016e000394d0242dbdbe7f45cc661f2f3d72699a1
:1016f000958f12713f54934732378912a77024dfb8
:101700007a05ee7fa5d64426076b3123b66e7a772d
:10171000ae33c3d0a68578ffb2337c7c0118198b19
:101720003d141afe9def9081918159b855c8716e94
:10173000593d830ea2d3cf776135c62a50f00649b2
:1017400061712eb5616c55df4a1f15a9f1cb50b7f9
:1017500004a899cf27c04e1d32f92316f61bfdb5fc
:10176000110c1d96b5345ee2521bd97423d7e44b9d
:10177000914ceda996875c12cbff79358e99f4d305
:10178000981ad8112497c0f1b8966a9fcc49d20113
:1017900032f41b64bec005eb3bbbd5eb66b44c809a
:1017a0000efb48e3c3043c87404da283105dea9ad8
:1017b000fb638f9b3e7f3deb4b40e75fad1abc8ade
:1017c0000c3da59c6082f2ba43378be011f46a634a
:1017d00014bc52fe6d7859928fe2b8b47faac90d3d
:1017e000300817da1e5257fc04fdecbb2cd8ef6f03
:1017f000d3636248409cc810a251c80f121b2c68ca
:101800008fe7733ad0792664ddaef766e1659b2aef
:10181000fcee05e28fa3ef31f94b31b1caceda1af3
:101820002601d3f0f55fe961235753c90b0845e65c
:10183000ce09e7c0484a315a930415b8ed89257a94
:101840002286c5d47fe35fe4b12e07a7b7efe3c6d6
:1018500053c361649548fe9d715391a5ce460379ab
:101860003be4eeccb0166c904aa4fcfc6cbe14b702
:1018700078acaeaf1d2b16a525472aebc3a259b0f5
:10188000f4be93b36fb738a418d315934e0f05b0b9
:10189000d669581c9e2a57d57e3271d7104a8a7055
:1018a000f53b804e62927ac3eab54699425b4ed4cc
:1018b000d643834cfd932e90313cb7a7ae3215cd65
:1018c000e1cf7388722828245b8d016fd3d51d1258
:1018d00065782004e7f2a7f6a1a67843cfee771645
:1018e000e4ed8eb9e34a3059584b743915a08fa7ef
:1018f000b46f79f7564ad28b7193adebc131abe43b
:1019000031ec595ad50fafb694fb9d1a12c1b85697
:101910000ba56d5dc3c08a2e58d5d1b651b18708cd
:10192000c22af821973a4b73c46845b7ff938e3ba0
:10193000958be2fe2c5ed18eb70bf732ff7f2ddd4b
:10194000e2d30bb91a6dbe788fa5d59c5705323bf3
:101950002a5c1f928049606dcdd956b452703a66a8
:10196000094c357d7a1913d3dd3c313a235cab7bce
:10197000cb2447b3ff09cbdc3971b9ca034c17a597
:10198000ee031fb6f5c71917f05902756882e44dca
:101990002186e98192a22d68889ca4a090563a667f
:1019a0004fed4c156e63b84913f1d24044600311fa
:1019b0009e3051553c2305f2c1f0c489f06f671e7b
:1019c0002ba7a80f3018d969c7f4a42d60c8985d5b
:1019d000c170dff72cbc4536a3b72e6481afd52785
:1019e000b0ca5e6432b66b0c82ee49fd5a84df5891
:1019f000d84e2205ff4e26eb6258989671af02e64c
:101a0000c006997009ad2d9f869d58475576eb46c7
:101a10002724fe8e480bd3b1748f50f8ba846732f6
:101a2000af4efa5380b072880a31654c516be213a5
:101a3000d2844d7c9b1146b4ff6a0302d97a85abf0
:101a40002ef53d91ed352a769a1ae1be153bca85f1
:101a500009590215db50d03746ae8750692c27163e
:101a600033ffb39edbd5b9f7205d1fd9baf56714f4
:101a700065b609501a39d550a946fe37b93a850bd3
:101a8000bc1ae4ef44d4ec71bef5ad73daab6c88ec
:101a90001546bd899217bb299ec6af28bdf3664285
:101aa0007212c5caafff19ae2f4b4c076974debc6a
:101ab000c4df69b1ec2d980963064ee8c3caae7f56
:101ac000c7519341461eb9f22336dd3d2d7f601a82
:101ad0003069a8a325d0612e718191b97a8db57e28
:101ae000fdbcda7b4daa8930004cba1b5f14f2664c
:101af000077acfcaa8cbba9f1f6c724471c107fd89
:101b0000050aac46a019416ca1e7545d5b69261a31
:101b1000144a406e05b87e9d01013cae345fb6cfdd
:101b20007feb0d85049510e88490d648259b0044f2
:101b3000e6b06918952a2679cea00bce82b6cf8d55
:101b4000e8cfa945b6abf2f1d2c3c5b0c8ea22d1fd
:101b50004d493e50fa4a474b0a9000754e4d32604f
:101b60003db52f2b70873e2266ed28534374fec28d
:101b70002188109b7816d0828ede47a81258062442
:101b8000c91ce38a6d253bd7529ca0f05280715945
:101b9000dc5b6e07dd0ff8f85e7057603109c243f9
:101ba000f6d22ef571d446027cf4716205fd8fab3e
:101bb00011c9dce5a210a58f7fd0af4841a2c802b1
:101bc000863b54d4ca44b2c06c5c19ede9a8d1f08c
:101bd0008951d6548092d61eb76314e4f19d796f73
:101be000e1f3ea43f6e3357f70f05f000dfc8cfe15
:101bf00047bb531e2e7eaca6affeb4b65527b1210f
:101c0000654c64df07879b09bab42e88d29512a46d
:101c1000a9d329f91d5349637a6beb9d8a44e8e304
:101c2000bb57029159e3d4ec8d4575f10634c38b53
:101c3000ebf9043cca95b6daf7541d09e3d88c4990
:101c40001e3f3ff73548c6d51a39451b3fde625166
:101c5000dbb2aaad0568c30aa05408fc88b0c53b36
:101c6000ea43747a32275e3cc40ae63d9ac6bd88d0
:101c700084bb08506a88c75b50c9af78020234a998
:101c8000c9b479e82a6e617858900bd6b867a60374
:101c9000e9e0e9889a4b2a3470e761347ef5e20482
:101ca00058e89c0ad69651586c321607057ec20534
:101cb000422d0f93d5e01a592af03c099ecc1dce37
:101cc0008bd8676d1ff3ce6e6a9592cce930a84b26
:101cd000694de1e829738a370a16d629e6a636083f
:101ce000236c49cfc97af7c2d96f15945aa96a9a59
:101cf0008429738ee86e808aec341bbfc88b6c51cc
:101d00000a31643e762b36c070be3d24cd63345913
:101d100064a8a4b1412a55e591cee90f12a2c2648c
:101d2000b8227c413a285023da0ea1bcdf56db589a
:101d3000db595466515e32e691a1ac9bb89046ce19
:101d40007216dd89b8932cfcec812748820e6c2e2c
:101d50007e42d8607f3a12ef6f5f0f581c65b57aec
:101d60008a7c537fd8b1434062c043060ba3271639
:101d70005529dfd4d75088b4225ed14049fb82f880
:101d80000f38bb0756ec0639fc7c36eb3d93cc850f
:101d9000e8f786f6120e15c02a814397e37198b0d2
:101da000c572fb3e90c5d8867c9aede91d6feceac2
:101db000bfb1ce60f81ece0962958a88726dcb5d88
:101dc0007877e8a987dfd33643c7704072411a0d90
:101dd000eb71dc28cc2419ecb9a8af0088643894e6
:101de0008529a10b264236d77408e722e4827e8536
:101df0005d7afa2477d1cb92144dddc5f09b9af928
:101e000031a7194f70854737f0936ebecfdafe4d7c
:101e10003a06bdffeab1f1e8f89c205619bd259db0
:101e200000574621ab66cee601c50b992c73d8aea0
:101e3000f1f815d0d3ce6148a131370a207b500d7f
:101e40004cfc534188244fa3fa516e07a24ece7327
:101e500085fb09a8174d6f6d6d1d576918aca5f46a
:101e600098e7eed334502acc48afcf215b7223ebf6
:101e70002747fff66b99170882ab8346e82388e370
:101e80004f3a0d3d91d72ce1d4d2f1b12c3c834c8b
:101e90009a28478d00b86726bc4991c68c081ad786
:101ea000b24305bffa2090dec722b81c07b8cdd1d7
:101eb00045af59c2c6fe7023d3899d0b3cc0053285
:101ec0007d3ea81c5cb52d5b1ba98be169f34e59c7
:101ed000ef8461eca75e88fb6200069650261dc465
:101ee000e016f652a6e9c57919674318756f526373
:101ef0006b1109d8e6bdbf9b1504358c47789e4b06
:101f00007cef7e1e70120059496d7faf7a3e74dc03
:101f1000ff1f6351026c0fc380be463d2611156141
:101f2000a2dc1ef9aba81b1a65fedec63bb76477c0
:101f30007851b16fa007467c3149d15a17372c50e0
:101f40005a6d00453c742dc8c685d83bf44e5d9c47
:101f50007e9d43a94294a28f93cd9649d19c65c0a2
:101f600067ae450b2571b799fd0ab8c50e36fee977
:101f7000b3335a43a289daaf5d245638d3f215e65b
:101f80004dc458fd3ea874d2ef85e15c148b0b293b
:101f90007c0fe7f10c24bfa94a2f8a9f8f0fbd3d0c
:101fa00081f358df1e21dba05cd395ea121393a5c1
:101fb0003ff46376bcb3e66e7f587e7bd6de027755
:101fc0003ddd1e5e6db1b0c7155f6b917b16aeb97e
:101fd000583b775b2052f1c80650075f9445842f29
:101fe000c9bdfe110d545a301bdb16da3d6dd81aef
:101ff000d8d5c38ab3e1cea2e3d44a5dece236423f
:1020000093a441d8bf1a08d051a1744753233c75fb
:102010002fa1284d09c32e07657335746880ad6ff5
:102020005de59bd7d516e608c58f9a6933edba5c96
:10203000f0c00e3bda253726fbf5a1fc674cc32b1d
:10204000837d7aaa6cea4789cfaafa9f31f39da3d0
:102050007afd8309223fdb3adae1978f616035e749
:1020600069bb17875609e72c3c13cf3006dbba074c
:10207000261c6e98ef7a7565ba41452a4de8a31b78
:10208000761676a4394c363616c749794e8ba5405c
:10209000072e4a137ac5d41a9f4703fcc028a0ca4a
:1020a00040ac94f2636c7319305e12a44611fd8645
:1020b000a98785e979349c814e4e5756a9d95a7a19
:1020c0009935d44c2003b1c2dbd15116e172a7c0bf
:1020d000932211640350b6bb18e2e88054d1631711
:1020e000a5448135ef82c669d823fa9cc2d119ed87
:1020f000be826a1aa97f7133eff5c426c64e747a80
:10210000dbc5d58dd03c03ff1d9972f9fed2aec060
:10211000c9800ae7d45ff28667d94826ee27b5adb5
:1021200077a6394ab826d83475d7e4c349c2b46c07
:102130001fbf3d13674334c826144e2a87606affc9
:102140004a3e7cf5c81c635280bd5bfc02d3e3624f
:10215000b6e7fb712118ef126a83b18f16dc2207f4
:10216000ef5ab12841bc01f1ae98b828fd99a27d83
:10217000c69c438476c0f5face5981d834663c5566
:10218000afa001c85d0e0a0b91ed8348033948ffeb
:10219000d25e8e2343b16f4ba7b440f7c9e0f34a38
:1021a000a2334ae9802d71b7b78ce1c5bae5f508cd
:1021b000de37f8d72c41f9b70d154c8831a379a03b
:1021c00071126cbb5381484637fb4686728ae07eab
:1021d000426b4149dedebeec13f1627c6c6a75e055
:1021e0004d158a277612bdfa3f3f5e70ae945f9020
:1021f000eb382a2f6a35f7c0bf1503ef91b636b515
:10220000469c5d9f47d3808432d209502d95e39838
:10221000820c5eaa6c64a1caf2fbc67b120e96b158
:1022200010d4dc31080eef2c5edd58d41aaed6394e
:1022300075342af7691259d4061b79389744d80a9d
:102240009582ad680c4e5585714a88ef0c75a033a8
:10225000b1e2a54c8fe25594592792b92cba20e1ee
:10226000162c2631f8f28f2c17819b8bbcdf30cfd8
:10227000e750f0810e55b01844e730d8836daa8638
:102280002227d78849c9cd7d56ee34cb675fdbbfa7
:10229000418b1cad5c1ca696767b1e231f7bebb28c
:1022a000b528beaeaaf3fd7e432be8997b25e77bdc
:1022b00097515f709cd7f86379ddcdf74375bc6e9d
:1022c000dc9e3f8e37b39be7ac53943a9216de24e4
:1022d0000ff1a05b093b36138aa05c4fb8a5970f9e
:1022e000d943803beba9b86456e9ab41cb9e30acf7
:1022f0008923cbcd35bd46b604a031b2b424974d69
:1023000080665da0557c92fa541d253f27bd24664a
:10231000bd892b86609f6354562b77c3c6f2b8895c
:1023200091cd8c4e1a7be3f122f76478b73bb191e3
:10233000c54a265c0e730abb751609a861166210a1
:102340001cb66bfc0a9132862a068cc9c94dd2d8bc
:10235000bf41e3a1942595e0d59b778217b3096926
:102360009da0474e669b2b1b95f23079bc729da1b8
:1023700034e215cb0e5bd690c86eab7ffefbe83f18
:1023800004a42959f648fbf940a33d3dbb59ba9234
:102390008a905a5b2e0cf73d4cb0b850cbf8138a9c
:1023a0009d9d14deff4b77481de2bf3515d34bfed4
:1023b00026ed852abfcb8f4d4fda7963aa7125169a
:1023c000a6d517bd41634ec31f743c7353778ee08f
:1023d00085c32c9ba6005a6311705efd1f0441b398
:1023e000d79e7f6ba4b49c3039f9720d01a356457a
:1023f0007b88f0cafc1f862da1ea8ab11eac333659
:102400006706a48b4897a976f641f7879d80a7f5c4
:10241000a5973ea6691d370c4f854df2c7f7beb094
:10242000eb9dab6a7ca71dd6c9ad61d858225c0272
:102430004400208e8a9ba6d64d33dafef4a4014ace
:10244000e52a1e4b2815c8e59d83b0ffeeceaf5c94
:1024500028dd7dde2a615298f4092a451e1fbafa4a
:102460004465fb35f1c5456c0a848d68c226ba40c7
:102470008e57ee18439ba6151839d381a921e0daaf
:102480007f7b7b844e30c8cb7f106347595eef0d56
:1024900070d3f33af324e9b73306f1d8202ec92dcf
:1024a0001e4f0ed7aac7b137d9f2e60c36ad2e3c77
:1024b000f28210a1e16a0f30f883b8b4b25eda3765
:1024c000aa6a62426196db054f3c86f5a9b5f341e5
:1024d000381d1d603aa10899ce1c95d4c3620d6cbd
:1024e000ee258671b7c9a1b4d2574c14553cf3b54b
:1024f00028431ea0f5796d2364bd0b8bea5b782120
:1025000017d03f67991df5ac15be28e8e92bbc1222
:10251000bc13a72166714c7d16f92ad93343175392
:10252000949d312edfcbe890e4fe0aab0783bae935
:1025300007afb84c6d9c7e7710fe622f0533f1cb50
:102540007336d8b9978d30efdd550c6dee686c7f22
:10255000c9e3708fd3e8583e133830de32ca6817ab
:10256000a3bb585ecf6a676fd329f363f3e989256c
:102570001c615d1378f3a81ceeac6807e42ba03b4c
:102580001fdfd9703ed73d8a7bbf258c840ed95082
:102590008734200aafa3e112e69880e18588524b88
:1025a000b574fda49f50d66689820abe347559d38e
:1025b000957ead5f316650972e6967ce5029511fc9
:1025c000dd4345c3173440b380122459fe36a4dce2
:1025d0006ddd9630f72e13b852f1093b34146fb10c
:1025e000dea8e1685e856397fffe4914a352c181ae
:1025f0000c9b28f6faec24f933858639be02e56a8d
:10260000c5223cba675fe276821ace2242be5538b6
:10261000d608de4f87ebeec4bd1b5775499bdc37f0
:10262000b2769e86675187324163bb0f0ec81f4c3e
:102630001fee300118e6addbba38212b125b101605
:1026400067a54e4ac1ce03d222b92376299b5e8666
:1026500048ad01d9939b4c9902eeaf7df95ec7e07e
:1026600000dd495e256056772e558fbfc32e48d7b3
:102670003d07b5beac6aeab39e54298eb871fbe241
:102680007ab86f54c2707aed1359ff11898c62b811
:102690008b8c806bd59e1c6cf614fc15f42a7aa2e8
:1026a0006287ab2b773c8ec8d2f563515e3fd46016
:1026b0008db34020893a869f0d3d5a87801012dbea
:1026c0001508e3c77c58286bbcc0d85f985369a332
:1026d000e02de51c8d5476596931c70241de7792b1
:1026e000efecf98d009fe09b2ce1f4b3a1984481bd
:1026f00046b8d4dca53bbb95904fd0994348cd005c
:10270000be5421777a011f3a3b27bd763ee82773f6
:10271000465761801717bb92fed231cb3faa64b5f2
:10272000dab77776c59f008ca3d8d4e28f55b1c5b0
:10273000d9fec978d87e9131b6dbfcbc8aea71da61
:1027400032ab7e636beec0e58cd4ae7f732c8062bf
:10275000706502d4b2de7280f739ec2f3f689504c1
:1027600093b5d95a4dc9efe9aff84716ec8d8741bb
:10277000dac8ad818d90e9783c12aba4af246b1d13
:1027800015798d9c1bf0cdf6ede9d7f06242a6dd00
:10279000e231bbb87570f3ea53d893ee0e26a8dc8d
:1027a000a7feb0f410c6dfeb27a868d7121be82eef
:1027b000d6a6e8db89ed28df739708bf4d9421c8c2
:1027c0000eb2633345c483797bcac44556798e4fb4
:1027d000643f9e53eac5a14e35afc64693510207ea
:1027e00095ec05430c607f4515db3998b6d06a1827
:1027f000c7595ab76513bc567a9b7ef5e51d908a7a
:10280000b39f2cdd37837efe2614c7eee2b1ad8880
:10281000b5ee5836029b9066a7f4707e75e6e1bb74
:102820000b6aa5b6256f29254be747f14877c6c245
:102830005498be172a167b4e7281e5dd33730f8cd8
:10284000861cb026c74065185e3b04cf6ee65e86e8
:1028500024fac2e2b69aa174692c6cf55d83b012b9
:10286000e4d1dd606ff6adc4d475e9fbabf131a7ff
:102870005efa20e3e6e6603ff662b1f944bcaac81e
:10288000435354f2d2de4db96ecf1fde761245109f
:10289000274c60821c7263bb68487c977019b11129
:1028a0005b644f8f59ff32909a9bc0833785ea2132
:1028b0001a892924496313089891fecaa330d2bc0f
:1028c0004472b053bb6e5280bea7bbc9ef513bdf11
:1028d00034f781b298bdac86c16ce85d04f6bea346
:1028e00012b3784fe20140f1d48ee34e8653c857bd
:1028f00043ad11df0b77538fc9fa4e027c8507ceab
:102900006a06a43d03d1f47ad73c7a6e4c4a3cbbac
:102910004e7450fb42ede1f36403511bcd96ac5c69
:10292000aab3d2905031823c2441ffe1ede4864cc1
:10293000706cf877c933e212cd6ba809c0629e2390
:1029400067f5479759a846f601715cc038ebb9baec
:102950008c4adf2906b46b4058d76451ad9c72eda8
:102960004e218fc584949600ccfde512941df8038a
:10297000789091e54041995940cdf3f71c3274fcb1
:10298000274ddc09dc0cf872d5969cbccb771a6914
:102990000041856b04840d31f07625272540cd9ebe
:1029a000225bdbf5ad40b6a6aeb4c5ccf88f225c99
:1029b0009cd23b0d73de4bfcf5d63ea7d86c377e20
:1029c00037175ff7d134bd5569f520a75dd63d0daa
:1029d00060be26c3b968624e82c961f3c68ca5bacf
:1029e0001636c28f3988e5e07b6b8a609d5b03e712
:1029f0003fd3378b9edca3eca75654b1056d8e43b5
:102a00006e223964f1afe92f36522b215f36fb5429
:102a1000a6258291bfc59c41d6f50cc15cb763f475
:102a2000e5dac9162ae0e5d3d2240dba745519d4d3
:102a30009ce8b392f9a221e0d11595c7d3b544c45f
:102a4000d00342e145e369c2ba7431a290753dad4d
:102a5000afeae1bc3069989653beb1e86b68398a39
:102a60007ba141864f90b98742d1fe565b687e17a5
:102a7000481471eddb9b202663927bd24a6619f3e2
:102a8000ed7f45d1da5bff7e7b2d803f9ed9d6d18d
:102a9000f369eef986d0a43dcd03578f146fde5154
:102aa00038c135600dd862a33944a1f7d8ff3f770c
:102ab00052158891751363aa9b5b4991741db66387
:102ac0000b83a831c493796c074ae7e86ae53db007
:102ad000afdc5dc0a0f64e7731b36d21e96e713d7c
:102ae0008c37aa3a7c11417010f6ff09eab209f856
:102af00070cac4f06171b48ac2405434ba1570b857
:102b000048b4300df2f2d20c045b3fe960ad218095
:102b1000ed1b77d6803edfde5efee1e9d0319bd053
:102b200086a5f873dc11efc90e8d278eb35ed151e7
:102b3000a6be183af2f33ec2f514c957921e6c179e
:102b40002f0059b5858e80be20e1836461e9fe3c8b
:102b50006340e9e902ca461c2be106efc7a124fc49
:102b600067572552a22dccd41aada7643fe7ce4bb0
:102b70000d6f52a6c0fe937d2f13c5abe0d6abdd23
:102b800080afa012466c23f810dd5eacd0fae67878
:102b900065985f6f440200292303be50d8a4a51b8b
:102ba000871bebc30df70f0e9a61d654921419e7e9
:102bb000bd1ff44848e291ad094aa56d7664ae1395
:102bc0001bd2d916ade3bb6a73350d34b25d12e783
:102bd000f7365928256f0aa48f650dfc8cb452086e
:102be00037e2c7908280e057792049d8daae44c0f6
:102bf00024df9159f668370e0dc70a85081bd1e707
:102c0000251a86c3da9688ccf5a7aade94ac9f3a3b
:102c1000d99cdce3586466956810297b8f28c469c9
:102c2000b0978d3f6ad1f642441bed55357bc808fd
:102c3000781dd0981b0e9fc78bcc6e6341105bd85c
:102c4000436af8013781985201422fffe690265ed1
:102c500017451218f22aa05923dbfedc4bcdcaa57a
:102c6000cad7e32c85f62734ec7123540632ff6d66
:102c7000916adbf5ff03d8e35c1e38cf3f63429bcc
:102c80000da110d140e57c64e690d4b4c085808469
:102c9000e38b8c183fe42ba904c2268a946e74e05f
:102ca0008a589e58d83df38f2e2d17a53ba0841926
:102cb000f4cff72e8134c8dbfca502a9c5c1a8ec6e
:102cc000d0924a49cd5780d18e256b60fc4c72283a
:102cd000c27e8099ea09ca1ac074bb7d1a5092b8a4
:102ce00065fdd428fc2a86389df28ed47ac543bf70
:102cf0003db12f5d7ffd4f1fd9e3dc8cf8ffd88fee
:102d0000b9544a2e5eb5a449e313bf26e58a218c47
:102d10003eefd0bedf5fd39393d01c64cc8a69eec4
:102d200077eafc7f1069036044f66e563387a04f44
:102d30000be2051115298fbe2dd8866004ccfb410e
:102d4000e4aa8a8c12cfd13bfa518a450f492c1f35
:102d500073e20695f051c842eb17350eb87f77af96
:102d60000150afc4437139aaacc79a50fec817408e
:102d7000b00afc5c3b18b8a49b3fb8538942eddc19
:102d8000821b7316a79c41df08cb7a1a3c388ca9aa
:102d9000ff5e8aea75139c44c7907931dd9ee71285
:102da0001488a018c60340906ea872f7a0f397335a
:102db0002055c0082d1e21671f3f9c78d03ff54f3e
:102dc00079e76cf5e9b9dc5db1c82d313e4231f5ea
:102dd0004890da7e85246e29a196843534fc447fa0
:102de000b3a5a1616164ae36a17130aebc9767270f
:102df000b465d1d162b0a2c9e7db815de41687fd7d
:102e0000dccbcb3165b4f730e9b010596386f2ee14
:102e1000550d9a996173606737dcc6c0fd02ee09f3
:102e2000122f864ea3c66a6c03a741f4a2503ed06f
:102e3000bf8480c78f4f8626b061793286a4b38d58
:102e4000303c8cd20c492c2733578955d1568644b7
:102e500016bc04bf4be3b5de686fd10b65511003a0
:102e60001bd83dfde467dab906806320f16292dc8d
:102e7000a3709491f9170dc688c1ad9b6719b51f52
:102e800021ea55f29d058fd5a8e82977c25522f091
:102e9000fe9075841884506af4b2f7dc5dcae94d7f
:102ea00064078334275c2f942e9679ce237d9fa7c9
:102eb000e98ed7cb986edabf64b1ed19365ee24b7e
:102ec0003d81aff0efc8d3b52ea21a4879cba6d971
:102ed0008cd1b34168a1e68893280fb61a32d71176
:102ee00029768ad5219894be204cfaf67a990dbe9f
:102ef000a26abb8f2e31e6a721e56fffb1c22f95e5
:102f00005ae0479e140a7d61e25f6fdf04cdafc1d6
:102f1000fe38214089e136d6e00eae043eecb1a782
:102f2000d8f1c502073f6749907a5910cdef6aa9d9
:102f300099ff630d3831dc23021630de505ab2eab5
:102f400002f11e7d4df3d0050ed6e938be15d737f8
:102f50009f73e446ca6d507fd1c7142eba8da50465
:102f6000276e43c16ad3df73a37c6d098b00886e23
:102f70006d14ef451845c3e25b92803c5aad1fd9f2
:102f800084eecc3dcd2ecfbe987c68ac7900508ac3
:102f90006446e514130e5a3425daf67344073c727e
:102fa000c882a37cbbbb2c0ff2425f957cb345adbe
:102fb000349fe77037d0f6508bc126a1510a607c50
:102fc00084408097ee20995123c583f2c8a92684b6
:102fd000eeb273742208d90a933c4d2ed39e25dca1
:102fe0006791f24f6a68b2582e7bbf8d245739869d
:102ff0007821db1b607d19bf71dc23d141653fb8af
:1030000093a8610a7433396fbb9c058c3b6d4314e4
:10301000bff7bfdb98eb812a3f21d5279cd2e1e5a2
:103020001049bc05cb2e4f957e0d23d7fca793f5f9
:10303000c9560e5ac2094dd962cf5e282f4f58107b
:103040002188c948d25db59626ebd2336999b94a31
:103050008840ac0ca75f3f84c4148e421572a3b2a3
:10306000fd7fe9c38104b3c57585355df7f0c250b6
:103070000dad935cb9f8f047cf5adc11ef2dd508b0
:10308000420b6a6f9fb134547755f5dbe47a1cca62
:10309000962e12dd914422ae356fea88b1b4d13656
:1030a000c6293c79a3d93ccc13ebc1f62ec3dbc7b0
:1030b0009ccc44261daaf3f815f716c7ce5cba8936
:1030c0006bf6f01409238e7803b5dc4de29094047e
:1030d000806331c54b7bda002c37a3f1b54b9a7373
:1030e0006fad7d97a87e50cae6e377283283df4f25
:1030f000ded8c3ef403e589e6fee3d283a6188f51a
:103100005dce0e7015fbd9da6d4a1dab693e649c2d
:10311000482effd2a41bbf7c810e9faead8e4a44c9
:10312000b162063cf37a8b2cac4df39032f4168de1
:10313000835d263a3a5c104e82a957a6150c282ac0
:10314000177ddc0f85366b1ca9af8f66ef5d6220a3
:10315000ac55ecbc399337d333a0256383c79ccee1
:103160006d6448d21c8a73bb782dedfa4c8dd82f34
:103170007f793ce5011426ffef51be6518bd9060d4
:10318000ed210e74c059fdd88f24ebdb3a0419826f
:10319000bfc61e41c5b28ce7c919f24eafedd2c011
:1031a0009503c41ccd0376b55e2f90a4ed8c2c0640
:1031b0000e1c59c7072a0cf2f24894048364e59f59
:1031c000e7a1ec9c9b9d190f4f266a1d20e70ba7da
:1031d000bbe65d9f864ffebf5d1e5f74d4db741738
:1031e000b2aad26dc31c4bbfde2b5fe3a9bb07861f
:1031f0008a7c9fa22f62c540432f33af9fa67047a2
:1032000069907c179bdf0f2a5a60d66ca0af97f6a7
:103210009c69adbefcfd137c404097eecc6205aed0
:1032200040bf89a812188a3c7419584a6a5bab835c
:1032300037cb770bd825a492f1c6fd41e8753a004b
:103240005a18023d45e8fcca38b03d81b3da9ebf4a
:103250006438e822ba07cef72a3af97e860ae435be
:103260009b6c30921e69689f41a33cda1264577cc4
:1032700013f302538d4bb95e05593bed5bfbfb1716
:10328000137a29a746e227f1f4bc2232aae5e8f531
:103290001b4cef79ec579d6a6d2a50da1af67b4782
:1032a00084aba4feaecfbba27aa3beb8f521068341
:1032b000d0be9b13c11df682e1bb8a32a49d87f666
:1032c000818abf35a323d7cbb19d9d1d2987c139e5
:1032d000141f7700fca753d3c69380f985276a266d
:1032e000b868c9bdefa783fa9614417cbcfb8ce596
:1032f00038c0997dfadd2107ee0fda245e9122e4d1
:10330000b2fb479706784359d9219785d3d3341f09
:1033100051907eebfe566377da390ece2a2fdca968
:10332000b744d351107d5cc638e97de3bff53c025c
:1033300031edf216447d3012eb7de447dbeee8c65a
:10334000d53ef394605443e7d991ab33d37a1f0c45
:10335000d598b4b38aea6abb50e871370ac60eed55
:103360000819e7796d77d03b439dc825731a2d481e
:10337000981f01cd8063cf690a56c909b815335b20
:103380001ff3626f3c2b28dd308b8e3aa33a02bcd0
:103390002bf3128a8b6b4550698359fd82a4faef97
:1033a00056d0a34bb6c617e0905fe6e743a5776813
:1033b00097df5f7996d1cc280481bbee834b0a0757
:1033c0004df12bd31fa365342956458f57f0b62aec
:1033d000a0b0d7c65183e7535776f80b146925afd1
:1033e000f2e6d43001e122b91eb18a4d79c103e180
:1033f00059917bbeecac29d56b70bdf7546dd4b13f
:10340000262d9cb108bc3614757797800cc4b7bec6
:103410005f5f6103b2cbf65ab1ae6261548644e796
:103420004c7f0335b709221babfd7818a984b55230
:10343000fd8d8f1de85673d6eba76596c147d8372b
:1034400018ea1acfc1be0ef555876bf2c236d741c6
:10345000a00461a8b92227d4d6a2ec00682fe11af3
:10346000774ff0246c2b85418c4fc3e010bea20d2a
:103470009c4e94d879e60ebfe77778c113d2c19df0
:10348000be7f529b577f6e0acc41d880d73e5f5398
:1034900002b95fec8e6356402e1b7d3f4583a4012d
:1034a000ea4e9bea8948da855aa24f783194e76e52
:1034b000389d621c86e7a6e1849a8b10077ca213d4
:1034c000ca273cb1af1481e46619232bb8db0b5635
:1034d00020149cb83623c3aa6c256e148ef0b10854
:1034e000a24e37121d97af1654f85f85e535577811
:1034f000009371d7255dd46f086035bb6037c9da9a
:103500001f9deef08ad32e29d247c0cd45b780ef5c
:10351000f97af2224df48ee2a5d0413630f3a49a26
:103520007db051c6d6cf79463a06d4bdfd96d93086
:10353000abe9140de2733469c34b6e8b523d67a542
:103540006c626ec4edfc16d96bd7970ba423b5ff44
:103550006bcc96972344d8192535009fdc887a0bcd
:10356000974030a78e6fab2df078d6658803990d04
:10357000f4458f140054138307a262bd676b1a725f
:10358000d28396be09a11b7669ae59d80281f91c77
:10359000d11e3aa293c96526535f1130b337bbd60b
:1035a0005a39246f75ac5cbad259fcee6fc950c55c
:1035b000aeaba6fdb088f2aeb9e7a04323b3e2cf2d
:1035c0003eaa3813041c84201f67b591f51e0a1704
:1035d000101c2f7905cae32e18d9345cd41ab6977b
:1035e00050fb2cf40f54e4046f14ce7689c6879aee
:1035f000cff56ce51d1846a6a2ae185d1419197317
:1036000066e103ef321bd07086d65ab39e00509ffe
:103610008921a2d5160cb434e555ffcf71ab8e4885
:10362000d060bf588da4575d27fc79f348ec01f3b7
:10363000fc8bace40498ad83c94ed3c498d2636bc1
:103640001fbb5a0e7ffeb01e35ae8fdcf0d0f92abc
:10365000a0343cf6b8b5cfb53a006d3708c05c6908
:1036600058ef41aa9d0113c377db3ff613d34506fc
:1036700048af53d5c792a16ce638435442aa4041a3
:103680007969470c30ccf7e7e5d081effe6c7134f7
:10369000a7c849b1b12dcf264655803a863480253a
:1036a0004022c3386b8bf7e0899b60d1757832f18b
:1036b0005cfae5f41e1f4a7abaac1544787f9e671f
:1036c000bcdd1b070672223cdb83fc15e019533777
:1036d000b971465ef43b106ba316312af18ab4ae81
:1036e00069e1386f8eed88c0790a09e9cd859f5070
:1036f00034fc61b540143a32d45739e93594b3d229
:1037000097b1d4103e4445e0b5850ef108f55b2c29
:103710007358000f85de21f838b96d293137f9ff6c
:1037200006c438152d0e21c714e5f50768c558ae37
:103730007ea27b2c97bb5d109a14e73b0b04655b64
:10374000e0476c7c4d136733336c90ce80e0f648d5
:10375000fd22d2c92e0453514858d4f8b723f6e6b7
:10376000953174e31bef9c22ac91bec4ad8a053940
:103770004db5fb6343679bbf61997effc852fbb1a8
:10378000e90361bbd59f91c1b779c3fc36c5e5ccd0
:10379000158b2a7d361e7ef5af856dff8ccc4f4d87
:1037a000036c6fa78a1ea0d1e9a2dc80e4ca455e43
:1037b000b72c230d4930b0d39e48e8b526f36dd71a
:1037c000f4efab3332b059d5c7e7392d9fd5fd861d
:1037d000f360b8fdbf82e1930778630fbc0490db10
:1037e000f9f1131e32f28e3b7b36fdd1d4b6ea00de
:1037f000f162ade0db47f5ef5001c67b945000a4c9
:10380000a8507ea8e5a16512d7e31bde980c763799
:1038100066440c4d0d4a429fa7c4039fb5e5627fe5
:10382000ad743faaef60a53ad1f9f0efcc7736df5f
:10383000701dd5259f3e196e45b0a3884c55d5e027
:10384000b07392270d802f0401ebf384d74e49bf4c
:10385000fb8edcbb3b8c2dd42f678e5c0729e24aa4
:10386000517f7119a5522eb96d7368bc373b19a7ea
:1038700014499f7bcecf09cb4ec789debdb06d36d4
:10388000f4f7733a5e22a1a1c9ee1dd0c52ff163f2
:1038900012de0979abeddd5cc3f2a8231482296640
:1038a00035a91fa00744864bd0daae76adb946d510
:1038b0007c49b7928de231ebacd49dc2ef02249dde
:1038c000014b3966b129c6e10a89efb16042f8526d
:1038d000dfa14d183b0576d0eaffe11ef7b0805a14
:1038e0000f9c7792e8160066be1278143bfc249772
:1038f000804400f19aa1d19cba86e93aa81f0a2f08
:1039000035096618a1bc7802b84dc74c86cf8bcf5d
:103910008f54c5106b9c9b951e258ebdad23b07535
:1039200013a0456f53baf9a5f133415790024710e0
:10393000c4816f09703345f06d531c180d512dbdb6
:103940009de5f4ead014a52df68343b00edc817e0c
:1039500047a371cb862b01507fbb74d81ce5e928a7
:1039600084cadb256b420b8cc7b6f027679379348a
:10397000ea65fb8fcb21e028efaefa52263aea0f38
:103980004e768d586d6e7a3007c1716f89c032e8fe
:1039900087d15e72d617589747e745a63025a30012
:1039a000e276a69c4f63eabcd011a9d3cc4e5a73e1
:1039b000041e68952bc33aa4d351f75b85c21d50f2
:1039c00054f7bb3652dfe32106d6eae592cf4a1f11
:1039d000a09211fa620758b606abd7f88e3556d0ca
:1039e0003ba4664ff668ccd8e1fe2f111f80b31db3
:1039f000817e8def5c651a644d7ff8f1b32db63f83
:103a0000a638f58af6bdaa12eb9d06f662df3b19d1
:103a1000888e8f196c45bf1302e1d207fdbd652961
:103a2000d138c81c5676f6a2ca5742991441edba4d
:103a300030609b7c238864f7301bc452892341cac1
:103a4000fc89dcf1845a22139742f404af39d34540
:103a5000ab3ac02a3e13f7de0a6a843890b55d4a55
:103a60005539059b8fb3951ff7a044aa336c6a455f
:103a700055177f588bedd7318736e88198b3cba2a5
:103a8000fc52b631019dc607c4b77605615c36ab02
:103a90008519ed741a339b5ca898aef734b0eb1718
:103aa0009cbc9102ca9450ac94feaf00a9f706ae3c
:103ab00097563b8684e9e855d7002898b633a5c4c5
:103ac0004e45a761875d02af4479b01c90ce1ba51f
:103ad00032e112916c3ae868ae919b12c9495737ae
:103ae000942a125019d2c16a8b5c246749f50b36af
:103af000b4616b7fae1c748ea19969423a327e82aa
:103b0000a35587f1a11f81c72da6e3ab4dd4222e6b
:103b10005a9f90dcad83313d7a8991a8902265ca85
:103b20009cb873a079c4b9ff7c824ac8fe211aeb05
:103b3000b96efe8a14beb213c91b7f55ad7f8f4983
:103b400001bc06182b205fc32e84797cc30098e942
:103b5000d793c922865e266c55ef7f5d4f4b2bfcb9
:103b60008f0557f446f23663bb3ffd5d00fee85c0f
:103b7000c43c55bc3c3f0583d7b5fdee4d18ff77df
:103b80003da75ca56a10e965f40cbd85ce102f3cfd
:103b9000aa2261c0a7cf2617d77db220f4cdf0b5f9
:103ba00009a17dcd577d9b5f5743043ba0340cbcde
:103bb0007300f978c24e6aefffec54a425981660a2
:103bc000e55595a34bfb8225f931cb77901403aed5
:103bd000161122e9f0618a3aa94c43c36cf9c17d00
:103be0004e828f09bc444694c3293fc9875a4bef84
:103bf0005ffe483cc6612abf0d741012db6e459e05
:103c00004d2e99eaf5e4aa64cd4bb782e7a1fdb544
:103c10003d561ee60c61c7f3c2d1dccb2ccd3ff77d
:103c2000d5963391fab1ffdeb78d4dd76534aca58b
:103c30000c4ce7d5dae7f0660a85cddda83537d03c
:103c4000cc2b8d676defa70594c414cf8e6da4b4f3
:103c50007727052c8348579932d6b0e4d96fa6df71
:103c6000a22a79745bdefb51875abdcd72272d1cc9
:103c7000e5dd541809af7bda20f05d1214acb043d7
:103c800006f2b265d4f3f55d716f4a39345e3009de
:103c9000a3789d9fba9624ed97693bfc940f013061
:103ca000cfc7ae9c8445dd9d638dffb82447a250ed
:103cb000509cb9484981913f137cc8a290133e851e
:103cc00083da53ec527649e5537e32a2ad1f71720e
:103cd0003d9dcb961bf21a9f40de512dd1391d57c9
:103ce00094e6996fdd323eded7f6a3b5804efbbc7d
:103cf0004cbb463d81da337985fd795294694105a3
:103d000084fafad507089dccb5776df5a0dd99b298
:103d100047450da68e81879eb88b2ccca33a8c7517
:103d20009e362979d0cc7d7eaf5b5ca3b2970147ec
:103d3000667a575eac38ff3fba012895d3a12fad04
:103d400082e79acd7f0b857dce4c6ab1b02e34fdd3
:103d5000f4da638c8be9e4a74f49540cc831db6e6d
:103d60007b8c0fbb4e3b9c181649057cc64a712cb8
:103d7000083efa8cb10ceca944adf1b92877bb1e12
:103d8000dc9c92700ed292796c93687bd6a89f03cc
:103d9000b248e0ddb27e1350a4f2af7602c2f77ee5
:103da000e7694c7d72181e117985141e794894a418
:103db000a333e88c8c6783177d01975dd5ae892e80
:103dc00050815b452276944c77e0b786a3e647e3c3
:103dd00006f1c1eafc1a3248e749a184b46748a851
:103de0009e94eafba3af1eac267d1ed942ede0cc2b
:103df000a7318bc872fdb30cd93822de47bd77fae4
:103e00000fbbc1367a7b854de68f7fa096019a9fc6
:103e1000ba878424ec4215616f53816472dd94e4a7
:103e2000bdeee0214b94a314f8dd75f8fc645c1042
:103e30001e225fde0176e878b907008f6113005b10
:103e40004f27a1ae7a68df2dba7ee8576a6712184d
:103e5000bdca86a518933055a4c35cd9d9777d1700
:103e6000a0adf5ff2ee9f3b2cd2cc891026c9527d9
:103e7000aeaf071f9913c06c4ace75467cb9dd52b0
:103e800046decf158772cf2374dc1f3f7bb1fd83e5
:103e9000e4dd0f22d5d3db1b98f9c98c7d70ab967e
:103ea000314dab81ff1446e3709742c69ad1ed9530
:103eb000c4f2a90b8c069b8addcda4ed2426524fbb
:103ec00097a0db5a4953570e8d8486a4dcbb33067a
:103ed0002cc99d9b6084bca6e463848427cf64d2f4
:103ee000e79158ec47e984af471b88cd74cb412a52
:103ef000a41369ac9ab826483cdb515c17438c97f5
:103f0000d58da87869955c799c4d671057ee26573a
:103f10003cc1e723e3c837df6dc9e841b838fbf798
:103f2000f54fb801315b921230078189c7a08af33f
:103f3000014a51e43c5bff7dee4f5ec9a540d9ebe1
:103f4000451a0b9756ea8fc1da7b56606689d76ba4
:103f500043fa62e2106b5e11072ce9eb822db3becf
:103f600070ecd1f0d78801004e77f0b6d19f24ca0b
:103f7000e122a1ccc37751cb80685db0b54eedf99d
:103f800034da04bd184c3c379a37c2eb6783991c6e
:103f9000a76db366326e9f0b837143090d138fac0f
:103fa000ed5413d8e55eed693abffe9c4f705fe3b8
:103fb000137b01a119d3b90ee7139b612b8e7ec22f
:103fc0007f2a6b7dbbba80acd3e5ae077c9e2a3bd3
:103fd0001f36ef0f04e29ca935e8c73b009c6479cb
:103fe000dfe2664b60b6a7643b7496cfd025ea0843
:103ff000a930d4454d3a2ff1d324ac747541ae5558
:10400000e4b6def1f7db8e1162c019f01bdfb1e719
:10401000a15eabba230363bd769d9c7b5c58ab4429
:104020000812b0064646f8d8324ed7e6cdcf4d77c7
:10403000db442f77514906a922f01b9ad2ffc6799b
:10404000d1de28fd63f6e772a8f806d863c50e0f27
:10405000313f47fa6f0853ae4496b7c86cd68a54be
:10406000ee64a40ea4e839e107e2c56fa3d5c9cd7b
:10407000218c1abd0d9e82e97f626bb7712a0ca15b
:104080008520f6f0a3cf36f14d0f422a13fd14a977
:10409000610cc9daf66533020eec264c136c263639
:1040a000a76328a2f5e91131d6c4f2fadddd4ceba5
:1040b0003e585a9e5cdee2c6c398386c299cbf53ba
:1040c00059b62e31734def80cdb87e6114c94ea61e
:1040d0004d08dfa515efffc454b953fb5bd258065a
:1040e00081f0c42f907a57294caff60db1d123c17e
:1040f000c6b963a44b2db0723dcc69af5be52a24f1
:1041000026650419c47f856f51298f2967a6466fdc
:10411000514d4878f6ed5ca468f7aac3a9d27f7028
:10412000f4d86559c8a3149476e984fa201e74164d
:10413000010948cf3afa86121b5677c2c924249740
:10414000e1229bde1cbecf6bf03ddbd67d3b85ebd9
:10415000ea9c33feae160c5c7622191a87af25f462
:1041600045a238244fad9574c9531f2cf562e5bfa5
:1041700060efbe66648b5650b8037f499acd557c7c
:104180006d58b0b9447e6e46df4b8631abd93e08e0
:104190008e63be47f761c7e849d22d94fa3826836b
:1041a0003b6b1cf68ce09070b67ea96e4c985bbaa7
:1041b0007edd88584b4b7f276c900cadc9cbb30e7e
:1041c0002359ed47cc7d612e151667f2d9e7bf1450
:1041d000535e645a049136199d2c867084e295b81a
:1041e000631b4d42ce1eca33ad84de15ebe88aa7b1
:1041f000f5f80543d510709b6c6671bf9a30c7a562
:10420000f29e168de1e158cb4b6418e8183cff3e56
:10421000dbf88bfd6ad9e4b887f7f9ad7d00daba2f
:1042200030f89a8bc670430ef6ba248af80f7431b0
:104230008901e7ad11044a48190c879d42b5d75d45
:10424000a9ace2da98eab97bddc8907d62e4589fb8
:104250006b8d823063ef598bfd056df3efa73a3e0e
:1042600036c706108f3b0cf03d42fa45fda3a4cfa4
:10427000a0df5fbe87ad751a3aef01d20295593fb4
:104280000ae7b6086992da8e4c0cb7f042cb59e2d5
:104290005a16d5b16420a124b1d77594268171d85e
:1042a000a849d585c1870b7b09b448a225c35fdf28
:1042b00083524ad9b74adee3d1d4c46d33de645e9b
:1042c00067563cbd081faf9916edb2e8c7c56773c6
:1042d000855d320935276466bf8009f186ac785662
:1042e0006243c3da7b4260f493c4e3f5511d58493d
:1042f000aa669333dc77a1dc08b586ea4c57c9116e
:104300004aa98535bd89ec5f9a607c06eb854bf642
:104310003e53fe97ed82cf5e51e2d5423843c7ba95
:1043200078944477a03b8ce1e13a08cdc12c68d960
:104330008842e1d62bdd92457516c4c18b4ebad7a3
:104340001be6ff3624016a03f10b5532c14436d611
:10435000952f599cd10fcf7f55d04a9a1cf38f804f
:10436000559497aa9794c92cf7216074027550f15f
:10437000d8b410a449193bceb2e89ee451bf0178ed
:10438000b109389502f35342b9feb99899c0d28b5e
:104390002b6a47c5e3d75973f491a736d0eba7d65c
:1043a000fe04a2c4862212d41b42e9b3b658882f59
:1043b000e30bac1ffc616c570a3cc945b4c99c486f
:1043c000bc204eba3d0dae7d7ff87520ccf5f84887
:1043d00038a207b9383fd37616d1d28deeae562c1f
:1043e00066d5873d37d1a637511fec4f500d9072df
:1043f0007435c16a6372556bc97543c4fa98903cb1
:104400008b635c0385a1b302f3bea5088443416db1
:10441000182c02019b59001c9d37a2f38815ecd083
:1044200068540d628e08acf878e83eb90460164115
:1044300011d5bd59e7c32c83f4934d31e63efa8183
:1044400016eab32e88c113d208573e98419905cb7e
:10445000c611240c1d22afca2d27febe3c1ed54816
:104460005546426fb3209826a5a77ac6fec3059b82
:104470001d93dfd962f793c054f308d68c6bf77d98
:10448000c818bbc8fe4b24f728f9cbf54a1e54ab1d
:10449000edf8eea16f4ea06ab6e1a2880e1b179a46
:1044a0008b419606803f8f92442c939882b7a91235
:1044b0007b643d7cb3be12472980d7b89178088cc5
:1044c000bb9a4250b947c0a359d3d2bf1fcad586a1
:1044d00085d52151405ffb71ffabcf34bcb4e528db
:1044e000561ef8d1f3a17589794ff6692a5096398d
:1044f000f12391620a68efb1d2f1eb1dd482cdedc8
:104500009d255f70e7058d44f14e386d0c1632899c
:1045100063b9dc1406f29a089911a550e6e8bb4588
:10452000edf4721c4e09c4e03e6e32bbc93a4ab289
:1045300011b16ed659e54f49013f6f5445ea4c130e
:1045400012606cd076c8d25ac3cf12b80bf3d49293
:104550004418c269d46e0ce66fbee014f6a7d31af5
:1045600022c02006d6364cd0777274247974f99d17
:10457000bfa235f8f73c57baa7dc777d398730bd45
:10458000bc517ce16c1848b98bea7dd1776f0d89fd
:1045900002b3a8742459e2e8460b808bf2702329f9
:1045a0004825d22ff06331e97cab43216420bc4e17
:1045b0000159351b0066f2e3b6ca3680f0aec42757
:1045c0003790977fa0146c8e979cb94e098436590a
:1045d00010e6b45d4da3c23ca19d34e1e8d2f030b9
:1045e000df27d06a4f92b3669773990433ed68c69c
:1045f00012bdedb3c08c233fe6f10a4d6befd5251c
:104600004147018a2eb7e986670a08293382593f54
:10461000ecb3acb25536ab4a82b28a71ef16c0a386
:1046200090a31481ce71f56e589eb189d28381f327
:104630000ad8e593073a5015c8308855251affb9ae
:10464000a79d0d3c4fed65cd8ecb98682006e165aa
:104650001ce186ee265a16970faf9ce276b6c2ade5
:10466000500f55a26b62594dba99c63dd4f3bfc5e0
:1046700057704469588f3461eb1910b0c1a61b2bd9
:10468000a40aaa576df071d555f846158ddc9de347
:104690005948afd469717302bc91c7f20f096dd646
:1046a00015446fadb68082e0a31d8a40f732e1db8e
:1046b000caa79516c0376c391924fd245af0a40cea
:1046c0002f7c3a9912cc065dcc3cc5f0b1b498353c
:1046d000835e1d75ade2f3e303fa5d1662266f9704
:1046e000b99eb2f028df07f9b26e60ad0455328b87
:1046f000e527b5d76fdd84d74181d6591450798627
:10470000f95eec62397355e903e9a91949a0ae7c59
:104710007c0bae92ea39ce4dd2bf9856fd9db9b50d
:10472000668b02769b9c7f1eea0b54b5483c7f4704
:104730006239d6f388259100eb69c50e44b2520860
:10474000524cceabdea4a010465f322b2c2d2c7a1f
:10475000da8ee413c1a32ea4697c4093d459f58664
:104760005501719b80cc4155b2f60efc9b15ec8334
:10477000c4019064ef400d9cae70da0eba6c618398
:1047800016dfbe657ce4fc323c4bc35fabf0964861
:104790007b9f7cd45b79887d592469d23d56a98b57
:1047a000ac47ac2f3225d06bd1f6580348bae51987
:1047b00066da8af6d53df00e3c7dd986fc0eca2b12
:1047c0002b1d190938bd7c29e65c456f28c16b5b40
:1047d000b24f9cd3133db8ff18b7004a56c275f1cb
:1047e00021570cebb6732dcf27e7c1ab7a68ca45ca
:1047f00091ffd38c65ea4ff2fe4030ad927e8d84fe
:1048000019c5041dd466a61c7f65fd3a52cc3c9f99
:1048100034a24cd8f2f3bbc1f7e15bb8a686d0afa7
:10482000f947b4fb68cf02a7746abf98c88a0c4bdb
:104830002a12ebfc29c966073a33c43f6c98fb6d1a
:104840005076fecb0da6399821262ba0bbabb3a387
:10485000d65a4986658aa767daef67b84ef83708ef
:1048600036e9c385f4b879a9f9388f709e85e54299
:1048700025a647af6524b70cd9f967d7c8d72067f5
:1048800037bd6841cce29711dec30a2b0f6f1620ab
:104890006bab8d220842cadd3c22745ed1af4791da
:1048a000b0b8d139f4981def7155ee6a70726c9002
:1048b00088615d539c3b1773770de170700ffbc2ed
:1048c000a5936c1fb8dfbf4c63797d43c6d7e4095d
:1048d00055f7dd8e08682d01b455719bc1d3dee715
:1048e000fab2d475ab605c546f06e1effa5759fc2d
:1048f000834720e8b2a972db8ee01925ef652e050b
:10490000ccd493f5cb5cd9c21603d635b503494751
:10491000a6e074370f5cdf38e01eff9d5c69750808
:104920009c7c20f529a2e85db704fd053520badda1
:10493000c7c03f9739b90f3b262122c31cdf3bc3b9
:10494000a82fbc1cd37a15747fa345d7b7827bee02
:10495000a74948beb71e30f1d84e2926b26eda50ac
:10496000acd02fa167e1c098cbf210beb55908e2d8
:104970000c79ee4a0702a125701d6a1bff8b930d6f
:1049800015e0ffe6d9d6e9ddf22de59fee81f37360
:10499000dff9d8197400e93a977fd117de552a9ac2
:1049a0007b2506646f5fe43de73b37115d903bb8c4
:1049b000ae7a42f6baa64448cbcb71245ffd79c6e5
:1049c0003c0f0c0b721f73de8069f04a3f8dbd3cbb
:1049d000c9c7880abe2e9cf5a0926dbbef5a2d72f6
:1049e000768bee1c6945740be7a9614e2e47bd24fa
:1049f000c2371cc49ecc840a3eb696c371095500ca
:104a00002106aebd499fcd27a7abbbbde9a772dd8f
:104a1000eca6378da9ad7f6c950ed891e840d5ca2c
:104a2000610d988fa1d600a83940245de9118b67ec
:104a3000031fbd56111e9065a43a24c960600e4044
:104a4000864f90d4cf50bc9355acc457eb1835fd6e
:104a50009ab75f1cee9c5f1ef4c4dea0e2c0e73d87
:104a6000b6338cb7bdcb1c9ba3faaeea3d6973eca1
:104a7000e6e546df2a8949949585e1e4dcf69d94d4
:104a80007a03981e20c93c47a6d92d9a3e7824fd6a
:104a9000698d7dff1c7d128a42c735dcbb04dcb604
:104aa000b908943f2e1dc19742c90e335b914f4701
:104ab000542abf571364289646724e2d44f77849fe
:104ac000100db1ac896eaab7a0536b0ec6887c6678
:104ad000797883585d89dec3831c3a919e2334be66
:104ae000d09052b6080cf6901dd9682ff39f1c2960
:104af0007a0d9eb16251025bcb8ab0216c4ac03301
:104b00006c2834d93bb17dedf3eb272472e2a4bfce
:104b1000e16b7543ecbb58dca515652b72b19b8628
:104b2000e6d9e7f7ac9b75cee32b0dcefcd68f5fb5
:104b30008f892663e0aeb870fe43567628af5af7e9
:104b400074f78918404b053f14417026c33376d65d
:104b50007c1b089b30fbebd13679253c624c87ca25
:104b60005236920c68e18c5d9c6d35fe3fcbde4386
:104b7000b293e0189c494c6a36da72d3b70c799f2d
:104b800082f7ec9de0aab24d4196a01a840b9c15c9
:104b900067b0efdcd3eaf95044710efeb1c96fb5ce
:104ba00069e1a11758789b36ab1d4c2c7d2ad7158f
:104bb00031a8b9a5eb778b8583d40b6f2b36818019
:104bc000b640e9386790c27792dcdf4f85580aa378
:104bd000098a489c7a55f6e620bc0b124f1da94a5b
:104be0001ca9daf2768a34ac8e08a2d6bdd211594d
:104bf00087f37ca293cdcbd8dc89a8e36950d89bfe
:104c00003dacab1c321c9340f052d1e51e689e04b3
:104c1000bbb896dae715f0ffb73be7388f5373312f
:104c2000b68dcadd39c23cc1eacc4f5a1315adb6b8
:104c30008ed51174d8acf2edbb1b0c1c826374349e
:104c40009ed1d8b3530aaefa6e69b8f9c7df99d0ce
:104c5000214512446527f652b1be4b59cd9c4f7188
:104c60008e03c818e5b0c1c304d5079980f328c0e6
:104c70004fe13afb0c367d1a1c409c69f4e1c1d32c
:104c8000d9856ad33e9902750cd785db881011232c
:104c9000f896c0efaaca00bc1f3370440cdffb6c4f
:104ca000e8f68be0d249ae820646dbc767cbcab0d6
:104cb0001a34057cd8f47db89a6dab3fbe3c8f8f1b
:104cc000872a6f41143e4225ca0748b3f5f78d265f
:104cd00008bb66abb7a68408a9f02f3a4c9b3948ad
:104ce0008d706edb9ae6585925160a4a46ab82e368
:104cf0008b9ebdb40ec6d50e1661c913a1224325e5
:104d0000594b1f8fcc03dcf1f2d788d780d9ca5515
:104d10001f17a4c536137ed0e41d80f9c91568712c
:104d200047add70987c86d3329c7a1d550302fa803
:104d300093915bc7fb2202c195dc3ac0649045b1f8
:104d40009ba3f230628ef45de537a0d0b9e709becf
:104d5000aaab039fe40920a387e9c8ba1b357d9855
:104d6000f6c4d48fd521c10caa3927f07002aca3a8
:104d7000b2666858cda6aaa56b903cf36cc8f43d0a
:104d8000e39a2a26f9159c9f764bfebec3a1bd105f
:104d9000343dc5ae96a2a16b2a0194676314539863
:104da00021011bc7e5f10e4460aa79e1a766a6c5fb
:104db0000ba0067f3a5a1fc5448aaea0da5f3f6057
:104dc0005a5746aa3cc57f76ef5deb19f1567d40f8
:104dd0005bbc24d0d4c8d2c9cd24af2335fd57a79e
:104de0002daae7223bb59813d1eefb98003438fe8c
:104df000434c073e49e55784b13e2ae6f4b431e717
:104e0000a929218c9db65fb87f8237afbf0867e5bf
:104e100070a7bbfa25e4b195a67571088ea0e15282
:104e2000bca718ab370f2d4ece35c6e913e070bbcb
:104e30004c35b3fd0610629486094c508b43c6c5b1
:104e400084be53319b0e130791ba0eecb634bfa843
:104e5000b959b6c7a04837820958741584447642b8
:104e6000a52e24ec371df541b6cc2a7cf1f77493be
:104e7000c28221616856976324fb0dde683bb9aea0
:104e80002c16f7822c198121c2d709971c6fc219e1
:104e9000ae61426d430c6cf1a1011183636fb96285
:104ea0006f3e5ba2c3cea6a3b2d8ba30b900a0b001
:104eb00087d7955a4801c8936f19356968fffb0673
:104ec0007d3b497f741142357846ba4e946e894cc9
:104ed000b6f96d73a4309c4eca0382f3952aa87567
:104ee0004d38f74114c9838e0581bd73faee9ae5fa
:104ef00029a23d29dfda748e6b0389693b301cc01f
:104f0000b85946bb7f33bc11f4d836e548d1656d3e
:104f1000d1abebd0cd7908bdf171273cf57c488c45
:104f2000c7d5f148c44f6b3ed5df359735194c4f87
:104f300032fd99024aeeade670298bb278803b5083
:104f40002897bf156c22e7c90854fb5d6354022df6
:104f50000bfd25753e2666cabe3aecd5dab4fedafc
:104f60007588741e4417b3f6edd0ca47bf87384b17
:104f700077fefa2959963d744202b4989b7e9ee2d0
:104f800000c039bdeaa107745349bfd2b69278294f
:104f9000f508965e79624f9d6288c7e7fef7141a9e
:104fa000c9dc37db79f5e158e78f17db4f6bf14c44
:104fb0007da266616040ac302b590d59847a15751d
:104fc000c4d18bec968d5f0561f6ab550fcf2ff8f2
:104fd0007c62041848067b4396a8abf67ba29b87ad
:104fe000eac7ec68ea2366597b73ba0714b0a4be1b
:104ff000efa1fa825bbe90ce1765fe992bd64f3398
:1050000070097ae005b731e8894505f39a851ca552
:105010000ba44c80fedca4d7d686cffaee7150be2e
:10502000aae4b4210412af3517ae3a2e325dcd3c5e
:10503000e9a0fb0ec2b7f0fbad7792156dfce30f54
