:020000040000fa
:10000000e8ff0020090400007104000071040000f2
:10001000710400007104000071040000710400000c
:1000200071040000710400007104000071040000fc
:1000300071040000710400007104000071040000ec
:1000400071040000710400007104000071040000dc
:1004000006000000000000001049086800281bd00a
:100410000f4a90470d490868002815d00d4a012061
:1004200010600d4a11600d49012008600c4a00203f
:100430001060082008600b4a10684008fcd2054a8a
:10044000002010600848004708480047fc41e00fc2
:10045000ef05000008000e4010000e400c000e409a
:1004600018000e401c000e40710400009d040000a6
:10047000bff34f8f054906480860bff34f8f05490a
:1004800005480860bff34f8ffee7000000500e40a4
:10049000444400000ced00e00400fa0500b5444ab5
:1004a0004448801a91b020f0030000231446834290
:1004b000414a03d0d158e1500433f8e73f4940485e
:1004c000401a134420f003000022824203d000248b
:1004d0008c500432f9e73b493b4c641a24f0030486
:1004e0000022a24203d0985888500432f9e7374ad4
:1004f0003749891a21f0030100238b4207d00020dd
:10050000d0500433f9e7d3f89020940705d4314b49
:10051000d3f84021d501fad4f5e72f4a5468516841
:1005200021f0407141f0807151602c4a1d69d2f870
:10053000b0201a6101f0dafc01f030fc00f056f84e
:1005400000f09cfb00f06cfe00f098f908b100f0a0
:1005500085fa204bd3f84021d001fad4d3f890206b
:100560009107f6d51d611b4bd3f84021d201fad477
:10057000d3f890309b07f6d5174b01215c60684695
:1005800000f050fc009801a900f0fafb20b9039b91
:10059000134843f001039847bff34f8f114a124ba2
:1005a000d16801f4e0610b43d360bff34f8ffee7e6
:1005b0000000002020010020f02200002001002087
:1005c0002802002000040020080400200c04002061
:1005d0005827002000400e4000000e40b081e00f80
:1005e0009021000000ed00e00400fa05704770471c
:1005f0000020704703207047032070470320704796
:100600000020704703207047054b5a6842f01002e3
:100610005a6003f5a04344f244421a60704700bf99
:1006200000000e4010b500231a464ff0ff31c45ca5
:100630008c4218bf00220132042a04d00133102b4f
:1006400003d02146f3e7002010bd012010bd0000bb
:1006500008b501f071f8bff34f8f054a054bd1681b
:1006600001f4e0610b43d360bff34f8ffee700bf9f
:1006700000ed00e00400fa051fb5436a994202d379
:100680004ff0ff301ee0c269531c1ad0036b994231
:1006900004d2013b591a8369585c13e0cb1a0b4909
:1006a00000208de803000a49013a0868d21a0df1ca
:1006b0000f01012300f0e1fb0028e1d19df80f00bc
:1006c00000e0002005b05df804fb00bfa08601003b
:1006d0006414002038b5026a836a9a42044602d341
:1006e0004ff0ff3038bdc36a0f2b11d90c48616938
:1006f000102200f0e3fd05460028f1d11023206907
:100700000749224601f00cfc6369e562103363611e
:10071000236a01332362e36a5a1ce262e05c38bd5b
:1007200058170020f7b5134b134e05461446002208
:100730008de80c0030682a4623460f4600f00cfc7a
:1007400008b1002013e00d4b0090019330680c4974
:100750003a46234600f091fb0028f2d1284608498a
:10076000224601f0b5fcd0f1010038bf002003b0f3
:10077000f0bd00bf20a1070064140020a086010086
:1007800058170020c369013310b5044616d0036b17
:100790008269581c2063d154626b236b93420dd342
:1007a000a069e169fff7beff10b9a36b0133a36332
:1007b000e269636b1344e36100232363636a0133db
:1007c0006362002010bd0000f0b51e46244b9fb0b0
:1007d00007460c4618686946154600f0d1fa20b164
:1007e0006b1c36d14ff480530493049b1d4914971e
:1007f000b3f5805f84bf4ff4805304931a4b139377
:100800001a4b1593236819934ff0ff3300221a9364
:10081000049b179218921b921c931d92144b154a1d
:1008200016950fa801f0f4f9134a1d9b116819449d
:10083000116080b91b9820b10fa8ff21fff7a2ff1c
:10084000f8e7189ab24208d8169b013306d0226006
:1008500004e0082002e0052000e006201fb0f0bd03
:100860006414002085070000241400201c040020cc
:1008700079060000d50600001c1400202de9f04f79
:10088000544b554a554e1360803391b03360544bee
:1008900000220df113001a6000f02afc002840f03d
:1008a00095809df813305a1e012a40f28f80052b47
:1008b00000f08c8009a800f0d9fe002840f0868066
:1008c0000d9b002b40f082800e9c621c7ed1fff7b6
:1008d0009bfe9df81330032b08bf022002d0042b8f
:1008e00002d10320fff7b4fe3e4b3f4f3f4d202186
:1008f00019600b9ba3f1300038603d483022026044
:100900002a603c4a402010603b4a3c48403b136010
:10091000102200f0d3fc002858d12d68d7f800a091
:10092000d6f800900395054609eb451000f054fffa
:10093000baf5805fddf80cb094bf0027012756465a
:100940005eb1b6f5805f34bfb0464ff480582c4896
:100950005946424600f0b2fc58b105a8274910227a
:1009600001f0b6fb002808bf2c4601351c2ddbd159
:1009700011e0b6eb0806c34402d1022f08bf0327db
:100980000197cdf80080002005a910221c4b01f032
:1009900007fa0227d4e7631c10d009eb4419484634
:1009a000fff740fe40b109f11000fff73bfe0028c1
:1009b00008bf4ff0ff3401e04ff0ff34114b1c60d3
:1009c000013408bf04208dd0012000e0002011b0c8
:1009d000bde8f08f003800000c04002070140020e7
:1009e0001c14002068140020741400206c140020d3
:1009f00010040020140400201804002054140020c7
:100a0000581700202014002070b5124e94b00546ef
:100a100001243068039405a900f0b2f9a8b9b5b172
:100a20000a9b0490013d5b421d40049bab424ff08a
:100a300001000dd8084b03900093306804a903aa65
:100a4000002300f0e0fa0028efd0002000e020466c
:100a500014b070bd6414002040420f002de9f04f27
:100a6000734b74481968c3b0102200f027fc0028ab
:100a700040f0db80704b71481968714b6d4a1b6800
:100a800003eb4111103100f092fe6e4bd3f8008061
:100a90006d4b1e68002e44d003a84146102208f179
:100aa000100900f00bfc002837d10f2e37d9049b1a
:100ab00003f11002964232d3069a002a2fd15f4ddd
:100ac00002930fcd18ac0fc40fcd0fc495e80f00e3
:100ad00084e80f005d4c0398206024a900f050f9d1
:100ae000002835d133a8259f00f0c0fd60bb9df8dc
:100af000e430f3b1484602a94ff0ff323b46fff71e
:100b000063fe834670b92368dff840a1013300f02b
:100b100087803846fff778fff0b9082002e0072009
:100b200000e030464a4b1b68002b18bf0120fff73e
:100b30008ffd9df8ca30022bdcd1359b203fff1a78
:100b4000299b5a421740d5e74ff0ff332360d1e786
:100b50004ff0ff372760cde718ad0fcd374c0fc4ee
:100b60000fcd0fc495e80f0084e80f00484602a996
:100b70005a463b46fff728fe0028d3d19df8c930de
:100b8000002b4dd011a800f071fd139bdaf8000086
:100b90000990203b0793bdf85030adf820309df808
:100ba00052308df822309df853308df823309df867
:100bb00014308df828309df815308df829309df8c7
:100bc00016308df82a309df817308df82b3033a968
:100bd000029b0b9300f0d4f810bb349b232b1fd93e
:100be0001c4bdaf8000001228de80c000ca9102241
:100bf000142300f042f998b90cab11aa934204d225
:100c000013f8012bff2af8d00ae009d107a8102118
:100c10001422fff787fd18b90d4b1a6801321a60cc
:100c2000049b10339844f61a34e743b0bde8f08fc4
:100c30001004002078140020201400202414002028
:100c400070140020140400201804002064140020f4
:100c50001c140020a0860100074b014603f180020e
:100c600018469b688b4205d000f110039342f7d1e0
:100c70004ff0ff30704700bf0038000010b501f0a2
:100c8000e3f90446fff7b4fc002c18bf204610bd62
:100c9000e0b51d460f461646fff7deff431c0fd09a
:100ca000436872199a420dd8c368016813f0020fa5
:100cb0000ad1384631442a46bde8e04001f0d0b9b7
:100cc0000520e0bd0420e0bd384631442a46fff748
:100cd00091fce0bd70b51d460c461646fff7bcff03
:100ce000431c0fd0436862199a420dd8c36800684c
:100cf00013f0020f0ad1204431462a46bde8704065
:100d000001f016ba052070bd042070bd20443146a4
:100d10002a46fff771fc70bd73b50e461546fff706
:100d20009bff326803681344421c0446019308d0b9
:100d30004db1c3689b070dd401a8294601f0f0f915
:100d400002e0052000e004202268019b9b1a33602a
:100d500002b070bd01a82946fff750fcf4e708b5c2
:100d6000fff77aff421c05d0c3689b0704d5fff745
:100d700047fc08bd002008bdbde8084001f07ab975
:100d8000f0b58db00c46fff767ff421c054606d054
:100d9000c3689b0705d501a8fff734fc04e00520d4
:100da00026e001a801f068f9ab6823606b68636016
:100db0002b68a360074601ae04f10c030df12c0c67
:100dc000324603ca624518605960164603f10803ab
:100dd000f6d110681860eb68c3f3400284f838203d
:100de00003f001029b0884f8392084f83a30384631
:100df0000db0f0bd30b50023094c04eb0314dab29a
:100e0000a468651c09d00d78954288bf40f823403e
:100e100001330132082bd2b2eed10a7030bd00bfcf
:100e200000380000f0b599b008238df803304ff07a
:100e3000ff33036005460f4601a80df10301fff7dc
:100e4000d9ff00249df80330e6b2b34212d918aba3
:100e500003eb860609a956f85c0cfff791ff38b939
:100e60009df85e30bb4203d156f85c3c2b6002e03b
:100e70000134e7e7012019b0f0bd2de9f04f91b042
:100e8000894601a9804692469b46fff779ffe8b95b
:100e90009df868600e9f1b9c0136bc4238bf3c46e3
:100ea000f6b24046494652465b46fff7f1fe05461c
:100eb00038b94046fff753ffe41b10b1002cf8d1be
:100ec0000625013e16f0ff06ebd1284611b0bde81d
:100ed000f08f000030b589b005460c46fff7bcfe28
:100ee000431c33d0c368d90701d401202fe0194b2c
:100ef00001228de80c00284603a910221423fff7d5
:100f0000bcff20bb039b002befd013f00f00ecd1f4
:100f1000059a0132e9d09df81850ff2de5d09df8d3
:100f20001910ff29e1d09df81a20ff2addd02033c7
:100f30002360bdf81030a3809df81230a3719df896
:100f40001b30e57121726272a37200e0052009b0c6
:100f500030bd00bfa08601002de9f04f95b00c46d2
:100f60001d4605a99df87830019092460393fff73e
:100f700007ff0746002842d1ddf848901f9b4b45ec
:100f800038bf4b460293002d39d0099bddf80c8009
:100f9000029ec3f1000c04ea0c0c9c442b1963451f
:100fa0008cbfc4eb0c0bab465b4601982146524606
:100fb000fff790fe034660b901980093fff7cffe5c
:100fc0004e45009b14d3c9eb060610b1002ef3d199
:100fd000062308f1ff32b8f1000f01d09046e3e795
:100fe00023b95c44da44cbeb0505cce71f4606e0a9
:100ff00000284ff000060cbf33460623e9e73846c9
:1010000015b0bde8f08f2de9f04790b0894601a9f1
:10101000804692461e46fff7b3fed0b90e9f189c3d
:101020000136bc4238bf3c46f6b2404649465246bd
:10103000fff772fe054638b94046fff790fee41b05
:1010400010b1002cf8d10625013e16f0ff06ecd1b8
:10105000284610b0bde8f087044a00231370044a04
:101060001360044a1360044a13707047a001002003
:10107000c001002020010020bc01002030b5174b2a
:1010800091b0186801a9fff77bfe28bb144a059ba5
:101090001360144b144c1b78144a02991bb10020a6
:1010a0002060116018e0039800f110030069002827
:1010b000f5d010f00f00f2d19d680135efd01d7b07
:1010c000ff2decd05d7bff2de9d09d7bff2de6d081
:1010d0001b692360cb1a136011b030bdc80100201a
:1010e000b8010020b401002094010020d0010020ac
:1010f0002de9f04f3f4e89b033780390002b6ed12d
:10110000052333703c4b1b78002b6ad13b4bdff837
:1011100004a13b4c0194012700971a68daf80000fb
:1011200004a91023fff7a9fe054600285ad1354827
:1011300004a9102200f0ccff08b102234de0dff833
:10114000d890dff8d88000970194daf80000d8f83a
:10115000002049461023fff790fe0546002841d1a4
:10116000d9f80040284ba4f140029a4201d8210747
:1011700001d0032331e0d8f800304ff6ff78c4ebfc
:10118000030b1f4bdaf8000020490022702c34bffb
:10119000274670278de80c005a463b46fff76dfe48
:1011a00088b9bb44e41b0346184a4046d15c02930d
:1011b00000f036fb029b0133bb428046f4d3002c87
:1011c000dfd1034601e04ff6ff73114ab9f80480fe
:1011d0001360434514bf04230623337002e0002547
:1011e00000e007253378039a2846137009b0bde85c
:1011f000f08f00bfb5010020a0010020c401002035
:10120000a086010041210000c0ff0f002401002042
:1012100098010020c8010020a40100209c010020aa
:1012200038b51d4c1d4d20460421fff7fbfd30b99c
:101230002368013303d01a4b01221a700ae0164cbe
:1012400002212046fff7eefd40b92368013305d0a7
:10125000134b1870fff712ff044618b105232b70cb
:10126000012416e00f4b104a1b6812680f491a44fc
:10127000a2f1100008600e49203a0a600d49d31a05
:101280000b60fff7e9fe0c4b04481c602c70fff765
:101290002fff204638bd00bfc8010020b501002047
:1012a000b401002094010020d0010020c4010020de
:1012b0009c010020cc010020980100202de9f3477b
:1012c000324b0c461b783249154606460a68894659
:1012d000002b52d12f49097806294ed12032944251
:1012e0004dd2121baa424ad3002848d01f2c31d815
:1012f0000093dff8b480284b284fdff8a8a0cdf882
:1013000004a01a68d8f8000039461023fff7b5fd8d
:10131000002837d18de80104214bd8f800001a6865
:1013200007f110011023fff7a8fd58bb4ff0004351
:10133000c4f12008a84528bfa846bb614ff0ff3381
:1013400030463919fb61424600f0d1fe4444c8ebf7
:1013500005054644adb1124b1a68d9f80030203a61
:10136000d21a104b00218de80a000f4b3146186845
:1013700022442b46fff781fd04e0072002e0042011
:1013800000e0284602b0bde8f08700bfa0010020c1
:10139000a4010020b5010020c40100202401002088
:1013a0009c010020a0860100c8010020f0b51a4d64
:1013b00095b0044605a92868fff7e2fc174b1a7898
:1013c000012a1e4624d0164b0a9a1f68154b1b682b
:1013d000524213400f3703931740039bbb420ed872
:1013e0000123049304b1a0470f4b0093286803a97d
:1013f00004aa0023fff707fe0028eed009e00b4bfc
:1014000000241c6001233370fff726fe204600e015
:10141000002015b0f0bd00bfc8010020b5010020bc
:10142000c40100209401002040420f0098010020d8
:101430006f2838b504460d4601d8012038bd030792
:10144000fbd1094b1b689842f7d81046fff7aeff57
:101450000028f2d1054b01221a70054b1860054b8c
:101460001c60054b1d7038bdd0010020a00100207c
:10147000c001002020010020bc0100202de9f04f18
:1014800015466d4a1c46137885b0064688461bb93a
:10149000fff7e2fd03230ee0684f3a689042ba4638
:1014a00003d0fff7d9fd0426c1e015f0030c05d0e9
:1014b000fff7d2fd052323700426b9e0702df7d87d
:1014c0005f4ad2f800b05845ebd8c0eb0b02aa42f5
:1014d000eed319b9fff7c0fd0723ece7012b6bd161
:1014e000584b0293c0f12009a94528bfa9461818f6
:1014f0004e444a46cdf80cc000f0f9fd1f2e3e6068
:10150000029bddf80cc003d884f800c066468fe06b
:1015100018464d490293102200f0dafd029b18b1e3
:10152000fff79afd06237ce01b69484a454fa3f16b
:1015300040019142f4d81907f2d1ba6932f0004261
:10154000eed1f9690131ebd120339b45e8d14ff061
:101550000043bb613e4bdff80cc11b78bb753d4bb4
:10156000dff804b11a703c4b0092cdf804c0196842
:10157000dbf80000cdf80cc03a461023fff7ecfc76
:10158000ddf80cc0002833d18de80110334bdbf8b7
:101590000000196810373a461023fff7ddfc38bb0e
:1015a00097e80f00dff8b8c08ce80f00224a02234a
:1015b0001370c9eb0505c84415b925702e4637e0f0
:1015c00041462a461f4800f092fd244b1968244bdf
:1015d0001b682039c91a234b00228de80c00224bce
:1015e000184a186831442b46fff7b6fc064608b186
:1015f000082316e0daf80030114a164f1d4413682c
:1016000038709d42caf8005011d1fff725fd3846c9
:101610003e70fff76dfd064610b93b78062b03d0f0
:1016200002232370012603e00123237000e02670cb
:10163000304605b0bde8f08fa0010020c0010020b9
:10164000200100202401002041210000c0ff0f00e4
:10165000bc010020b5010020c40100209c01002035
:10166000a401002020a10700c801002030b5164dbc
:10167000044691b0fff702fd2b682360134b1a68f4
:101680002032a2609a88a2819a79a2739a68226114
:10169000da68db79e3730e4b62611b7823760d4bbe
:1016a00001a91868fff76cfb10b14ff0ff3307e09a
:1016b0000a9b0d9a29681a44069bb1fbf3f3534326
:1016c000636011b030bd00bfd0010020a401002034
:1016d000b4010020c801002070b5134b88b00df193
:1016e0000f001d68fff704fd0446c8b99df80f30d0
:1016f000062b15d10d4b9a689ab10fcb08ae06e9af
:101700000f0032460a4b42f8084d0193094b0094f2
:10171000186805f108010423fff71efc044600e0e9
:101720000724204608b070bd9c010020a4010020c1
:1017300020a10700c801002070b50f4b1c680f4b9b
:10174000da680132054686b018bf072011d10fcbe9
:1017500006ae06e90f000a4b3246002142f8045d4e
:101760008de80a00074b04f10c0118680423fff709
:10177000f3fb06b070bd00bf9c010020a401002057
:1017800020a10700c801002010b50f230022cc5c67
:1017900042ea4402c254ca5c13f1ff334fead21248
:1017a000f5d21ab1c37b83f08703c37310bd30b584
:1017b000034601f1100451f8045b43f8045ba142b5
:1017c000f9d1103002f1100352f8041b40f8041b49
:1017d0009a42f9d130bd000030b50d4c0d4d85b0a9
:1017e00001462a462046fff7e2ff29460a4d6a468f
:1017f0001023204600f094fb284604f12001fff757
:10180000c3ff06482946fff7bfff05b030bd00bf44
:10181000f40100209c210000d4010020e4010020fc
:1018200040ba83b25940c1f303134b4083ea0333f8
:101830009bb2d8b283ea40107047f0b5036889b014
:10184000002500245c530235202dfad1944208da99
:1018500031f9145033f81560013623f8156001345e
:10186000f4e7b3f9004094422ed0002501245e191c
:10187000b6f90260d6eb440428d402351e2df6d109
:101880000025adf8025000ae2e445f190235b7f8be
:1018900002c077881c2d6744b780f4d1002393429f
:1018a00014da31f813606eb108ad36b205eb4606b6
:1018b000476836f8205c05f1010c2db226f820cce3
:1018c00027f815300133eae7002000e0204609b090
:1018d000f0bd70b5056904460e466369b34210da7f
:1018e000a36820689847002804da04f11800012151
:1018f00000f00cfc6369c2b29a400833154363617f
:10190000ebe7012025fa06f29b1b00fa06f6701e93
:1019100022616361284070bd2de9f84f04460a68d2
:101920000069636900268a4602f102083746b1461b
:10193000012523b300f00102b8f900c042ea090210
:1019400008f10201cceb0208b8454fea50000dda6d
:10195000636920615b1b03f00703d71b63613e448f
:10196000daf8043033f91600bde8f88f6744013b1c
:1019700066447f004fea420901358846d9e7d5f130
:10198000100b10d0a26820689047002804da04f1f8
:101990001800012100f0bafbc0b2bbf1080fb4bfc0
:1019a0005b460823c5e76ff00900bde8f88f00002b
:1019b0002de9f84304460f46904639462046fff786
:1019c000abff011e49dbff290adc6568002df4d05e
:1019d0002068c9b2a8470028efda0120bde8f883e3
:1019e000b1f5807f02d10020bde8f8836ff48073e9
:1019f000cb181c2b34dc204a32f913601f4a2046d6
:101a000032f91310fff765ff414606442046fff701
:101a100083ff051e28db1a4b33f91590194b20461e
:101a200033f91510fff755ff6368814493b9b5f595
:101a3000807fc2d1d7e709f1ff31e368206898477a
:101a4000011e14db94e80900c9b29847002806f18a
:101a5000ff36c2db002eeed1e9e70846bde8f88389
:101a60006ff00900bde8f8832846bde8f8836ff001
:101a70000a00bde8f88300bf842200004a2200006b
:101a8000ac210000e82100002de9f047adf5a86d7c
:101a900004ab009323ab01930cab0293052114ab71
:101aa00005460393fff715ff052100f201172846ad
:101ab000fff70fff042100f101082846fff709ff97
:101ac000b7f58f7f00f1040900f38880b8f11e0f8d
:101ad00000f3848000264e45b2ac0ada4b4b284610
:101ae000032133f916a0fff7f4fe013624f81a009b
:101af000f1e7122e07dc454b33f91630002224f8ab
:101b000013200136f5e7684621461322fff795febc
:101b1000002866d1064607eb08094e4534da284608
:101b20006946fff7f9fe00286cdb0f2803dc721c06
:101b300024f8160026e010280ad1002e54d0731e77
:101b40002846022134f913a0fff7c3fe03300de04d
:101b50001128284604d10321fff7bbfe033003e020
:101b60000721fff7b6fe0b304ff0000a32184a4546
:101b70003ddc04eb46060023834203d026f813a085
:101b80000133f9e71646c6e7b4f9003293b3684665
:101b900021463a46fff751fe002808d02ddb009b76
:101ba000b3f90020b3f9023013449f4225d102a8b3
:101bb00004eb47014246fff740fe002808d01fdb38
:101bc000029bb3f90020b3f902301344984517d1b2
:101bd0002846694602aafff7ebfe13e06ff0020009
:101be00010e06ff003000de06ff004000ae06ff00a
:101bf000050007e06ff0080004e06ff0060001e068
:101c00006ff007000df5a86dbde8f08724220000f5
:101c1000f0b5adf52f7d0190049307a80023029144
:101c200003920593069300f06bfa002840f0a18020
:101c3000012101a8fff74dfe0221044601a8fff78c
:101c400048fe00283cd105900690039b01989847d8
:101c5000061e01da022087e0039b01989847051ec3
:101c6000f8db039b01989847071ef3db039b019861
:101c700098470028eedb80b2ffb2adb2f6b247ea79
:101c8000002746ea0525ff43adb2bfb2bd4214d1dd
:101c9000029b0bb9002067e0002dfbd0039b01984d
:101ca0009847011ed6db029b0198c9b29847013db7
:101cb0000028adb2f0da012056e06ff0010053e0e9
:101cc00001284cd12e4b1b68002b42d02d4b2e4aa5
:101cd0001a602e4a5a602e4b2e4a1a602e4a5a60bb
:101ce00000231eaa082199520233b3f5907ff8d140
:101cf00000231eaa1a4402330921e02ba2f8201166
:101d0000f7d100230233322b05d0aeaa1a440721a3
:101d100022f8421cf6e700230233122b05d0aeaaac
:101d20001a44082122f8121cf6e716481ea94ff49f
:101d30009072fff782fd00231ea905225a5202333a
:101d40003c2bf9d11e221248fff777fd0c4b0022e5
:101d50001a6001a80b490e4afff72afe04e0022888
:101d600009d101a8fff790fe38b9002c3ff460af0d
:101d700003e0022001e04ff0ff300df52f7df0bdb4
:101d8000000400208814002098140020f41400207f
:101d90009014002034170020b81400207047000071
:101da0002de9f84f07464ff480709a4689469046d1
:101db0000a9d9df82cb000f01df9454801230360f1
:101dc000bff34f8f434e444c00233360736023684e
:101dd000736263687362a3687362e3687362bbf1e2
:101de000010f844638d817b92762676203e03b6861
:101df00023627b6863620023a362e3622ce00a46ed
:101e000016f8011b02f8011ccaeb06079f4202f1fb
:101e10000101f4d34db3314b03f1100753f8041b08
:101e2000da684a402b4943f8042cbb42c1f88020b1
:101e3000f4d105238b600b69264a9b07fbd4d2f8ab
:101e400080302362d2f880306362d2f88030a3629f
:101e5000d2f88030e362b24645b3102d34bf2b4632
:101e60001023ed1a1e495646c9e7bbf1000f02d0f8
:101e7000bbf1030fcfd1d3f110010ad0802313702f
:101e8000002301338b4202d00027d754f9e71549cc
:101e900000e015490023e718ca583869043380ea7e
:101ea000020e102bc7f810e0f5d1b4e7ccf80050c3
:101eb0004ff4807000f0b2f8454506d0631993f8ee
:101ec000203009f805300135f6e7bde8f88f00bf8e
:101ed0000016c84300000f40f40100200402002057
:101ee00005020020e4010020d401002007b50948c4
:101ef000fff772fc084b09499b6c1b0c00209b02ee
:101f00000093019004224ff00053fff749ff03b004
:101f10005df804fb9c210000b081e00f0804002064
:101f20002de9f04104464ff4807017461d460e46d9
:101f300000f060f82d4a01231360bff34f8f2c4b44
:101f4000002119602168596261685962a16859626b
:101f5000e16859629446002d3fd0254b2269c3f8b1
:101f60008020d4f81480c3f88080a169c3f8801061
:101f7000e269c3f880200520986020690130206163
:101f800040b908f10103636123b94b1ca3610bb98c
:101f90000132e261164b186910f00200fad1d3f851
:101fa00080202262d3f880206262d3f88020a2626f
:101fb000d3f88030e362102d34bf2b46102304f198
:101fc0002008ed1a18f80010325c4a403a540130eb
:101fd0009842f7d106440744bde7ccf800504ff4cf
:101fe0008070bde8f04100f019b800bf0016c8438a
:101ff00000000f4072b6074b1a6801321a60064a99
:102000001168084310601a68013a1a601b6803b926
:1020100062b67047541700202402002072b6084ba5
:102020001a6801321a60074a116821ea000010603c
:102030001a68013a1a601b6803b962b6704700bf9c
:102040005417002024020020044b41f671321a6418
:102050009a6822f001029a600020704700000e404a
:1020600010b5eff3108472b600f041f804b962b60f
:10207000002010bd00207047134a70b50346054686
:1020800002f12806144603ccb44218605960224677
:1020900003f10803f6d1206818600c4b9a6c596b59
:1020a0005b6b92b2090e1b0e92020a310a332a6050
:1020b00003f01f03012201f01f0102fa01f19a400f
:1020c0006960aa60002070bdc0220000b081e00fee
:1020d00030b50023934208d0c55c0133cc1814f806
:1020e000014ca542f6d0281b30bd002030bd10b5f4
:1020f0000023934203d0cc5cc4540133f9e710bdf4
:10210000ec46a0e8f05f4ff000007047b0e8f05fe9
:10211000e546080008bf0120704700bf000000002e
:1021200001b40248844601bc604700bf9100002012
:1021300001b40248844601bc604700bf0100002092
:1021400000534352319a933082d9eb0afc3121e398
:1021500037000000f1100000bd120000ad130000b8
:10216000311400007d1400006d160000d916000027
:10217000910c0000d50c0000190d00005f0d00004f
:10218000810d0000f50d0000250e0000d50e0000a9
:102190000600000070210000542100000000000033
:1021a000000000000000000000000000010002002c
:1021b000030004000500070009000d0011001900cc
:1021c00021003100410061008100c1000101810155
:1021d00001020103010401060108010c01100118ac
:1021e00001200130014001600000000000000000fb
:1021f00001000100020002000300030004000400cb
:10220000050005000600060007000700080008009a
:10221000090009000a000a000b000b000c000c006a
:102220000d000d0010001100120000000800070052
:10223000090006000a0005000b0004000c00030062
:102240000d0002000e0001000f0000000000000061
:10225000000000000000000000000100010001007b
:10226000010002000200020002000300030003005c
:10227000030004000400040004000500050005003c
:102280000500000003000400050006000700080028
:1022900009000a000b000d000f00110013001700c9
:1022a0001b001f0023002b0033003b0043005300a2
:1022b000630073008300a300c300e3000201000079
:1022c00000001000000800000008000004000000ea
:1022d00000000000000000000000000052000000ac
:1022e00002a00000ba880000020000000000000008
:1022f00040ea020313f00303f7b5064638d192080b
:10230000eff3108772b61d48846844f001048460be
:1023100093421a4c25d206eb8300c0f30a0c012528
:10232000ccf5006c20614fea9c0ce560d41aa44502
:1023300028bfa44663440024644501eb84000ed00a
:10234000006801900d4de8690007fbd50198a86170
:102350000820e860e869c007fcd40134ece70146d6
:10236000d6e7a36823f00103a3601fb962b601e0ba
:10237000042000e0002003b0f0bd00bf00000e40cc
:1023800070b58cb0044601a80d4600f039f80399e9
:1023900022684b1e13402ed1286800fb01260198ad
:1023a000864228d899421dd00433981850f8040c5e
:1023b0000130f7d0eff3108172b6104b9a6842f0fb
:1023c00001029a6022681a610122da600222da6050
:1023d000d8690a4ac007fbd4936823f001039360cd
:1023e00001b962b62268039b134423602b68013b4a
:1023f0002b60002000e004200cb070bd00000e40f7
:1024000001b40248844601bc604700bf7920000047
:0c241000010000000000000000000000bf
:020000040000fa
:103800000000040000f00300084c7483090000006d
:10381000000000000040000008010010000000004f
:103820000040000000c00300080100000500000087
:1038300000f0070000100000080000200c0000004d
:020000040000fa
:1038800021bbd37575030c0a64664b2496d661324e
:10389000634d84afe8e5b025a27b0fb1834c4da703
:1038a000396503c6b24ac4333c646d941c76033553
:1038b0009587f5f9e82bb22b3e3749e850e321f51f
:020000040006f4
:1017000013c3667085faceee02090c7ac20579fd24
:10171000e1a080e61cc85b2e57bf053c09c83bb55d
:101720000801000080c3010004003e00000000002a
:10173000bfa69f8776cd644ce9d9469bc30ca227f0
:10174000a37f2d6da44773229db63344cbdf16dbf8
:10175000ef482eae2a6e0a76203c823b3a7752c77b
:10176000d1cac2db660fcff15f1e1028b6c8f4d90c
:101770008b8113170257dbdb2a9ce140d8d56652d8
:10178000024f3cb2f22a4823f95ec6f8459ec3e4f4
:10179000508a6b89915055cb3deeafc1b9c5431d01
:1017a000929996672b06aefdf18e995492f116c66a
:1017b0001741467af95a4ee0d7ad95b97f1b13779a
:1017c0009e5bd25f9f30a272499b2e3b04ba131cd2
:1017d000a8765f5f2b6cef685a86b0378fe177157c
:1017e000f7e863a2ffdf8f3f2848aeabe7ae27fde7
:1017f000c686c8d796576b4706d22445dfffd76efb
:10180000121cbe490c9405533e0abd85087a1d1b67
:10181000dbf25ec849becf599af5374f5e7ac1fff9
:10182000c33364b7c1cd14463d6e1bf377eee13090
:101830004567763d03971c896144a5a4b800093c1f
:10184000981333a6efa841ffe6893b731a6950a6a7
:101850001ddb2855e4fbe531ff09e7188a94cc9f8e
:101860000059cff21ca81ff81d2fecce8aded570d0
:10187000dbaad8c216749aea7d323ca4bc2a31870e
:10188000d107ffa5c02728aa87405164d15484a45a
:101890001b6330036e487241bf3a6b871add935960
:1018a000c898fc35193cba0d64134cf8f22c492e3b
:1018b0004d003d283d499d77e303f893d31f7a8e71
:1018c000864c363e020444ef78a89b79a81a7be246
:1018d00006045fba756893711fc73de4eb917acd3a
:1018e000c1e322313b12b5cd0edd2d2f1fe6790f5e
:1018f000542ab3434cbfccf4de07e198dd0523df67
:101900006b83be54f31d6ecb303870055bb0b114e1
:10191000a09c3b364d803f5bf38a7fe16f2c0eeb42
:1019200021bffc515570072f79d5b71804a5c2996e
:10193000a0a97a506eaad86064fee1046155938430
:1019400001c3095b618ce77bbd2c6105a45442e6b1
:10195000f7adf0810dd9a64f2ad5cab2ae92650671
:10196000f3c166ac2dbfbfbf04b6d768d89631e1ce
:10197000f443dafd99e512afb5dcc97ff7f91198a8
:10198000fdbf030e68146f166f962ec7b2757d0dde
:1019900015f482b01014492fd7d783107096b93937
:1019a0003c8932d4be4644a384b44f6994ffa4b6a4
:1019b000d564679b5ee0cb9e2c1e71cd5d781c6666
:1019c0007e643ba93e1ed20f367cae1b46b96745ee
:1019d000592f005a20426b281459e06268004e6e5d
:1019e000e74eb5fdf111ba058d1cbde5794b8613a7
:1019f000b067306fad4a78bb5be0e44b605d3e8022
:101a0000fafdc0919e73cdc2f7b3656581110e1bbf
:101a1000bfa841351ef1795848a631d12b86a28d39
:101a2000da49018af3cf0b5f02883daef94261a922
:101a3000fb46661f3683654fcdc5fcaca300c55978
:101a400083d698ebc0718098937e553f3a9830bd0d
:101a5000caeae3af4dd7509f8c39a2f9c66fa2ec0a
:101a60004856ea81195704645208fc0ba84243e126
:101a7000a163da741dc9ca2e4e0f1da08f0e0c0f64
:101a80006155ff52cad51f23d1681fada948762bd7
:101a9000a0cd03f1505cd414e5b14ae26579bd23d1
:101aa000a3f819dc8e944fb7c72075186994b3b1a9
:101ab000802998eb215a08b67d532760ff9d44bad0
:101ac0000174c7d0ad99d51edbc046c89cf3dbc0fe
:101ad000ef950064efc828e0e076957aba72d27389
:101ae000eb52ffb02518d8428a1a3e8b15f21a170e
:101af0008c9ea92c982b05b01dce00af91af97fd01
:101b0000f8fbcacabb0cf0719f89f9ac8f138b0428
:101b1000bd42f3924a82dc8987d1b677585a186b56
:101b20009bea29ba9266e161fb62501a949bcf6fdf
:101b300052fd18868defe623eda6bdc484c46a98d5
:101b4000517f625a854cc1852e3c367a63f6603ee1
:101b50005529f33370c73b380a745766c303ebef5c
:101b600007fb2840dcd5a4cf5c16b617df2a3bb9ab
:101b7000c7992c71737a63b07b0ada0505244a4849
:101b8000d5fd730a083a4588a4e902fab522a32aca
:101b90004ae2bde7f85d2a1fed8780dcfe0990165a
:101ba0009e27d09e89b13b34e63e57cc940bf4dea1
:101bb00005241fd42a9ab67309799f7790f2af4b08
:101bc00075ca0e755ae64756edfa4fa6e8f8197928
:101bd0002ee2c4c9030d2e5c5a49003513255ff26d
:101be0008eb6925df271c68a499474e83dae5f2c60
:101bf00075b6ab8dcbc670089a6db58c7c2a4097b4
:101c0000ec9a521a3e0c6a4538ad69ceb93e1b308b
:101c1000a5dea56abe21f0b791dbd8c64c43244aa5
:101c2000e63d5cf95156ac144c8eb8af1e8faaaf8e
:101c30000e8bc6d84849a4012614df587b59077d6e
:101c4000141924696618e9931c4c05471620f21aea
:101c5000e60f6c2640fe18dbaf6211cb1a7c320a0d
:101c6000722777f64a4b2b11a16a02e30727c716a2
:101c7000d1bfd8da71ecafbf9314a8488f834d124f
:101c8000593750f399aa733e8ce87594afe33be65d
:101c90005b0ea9a3d42bc7748d3653e45dff892452
:101ca000260195b155355e7d46575c48aaaeb062b7
:101cb000ec3410ffc1177e4b36d92f1e5c15fabdd0
:101cc000b9ecee03e634dbb58501bd4a1392cdf1e4
:101cd000f29226b91ddc3ddccbdac93b71ca2b225e
:101ce000b4089abc9533c233e6c4a9e4a4c3008601
:101cf000e6ab3da7bc8d207fdab1cdb40ae481729a
:101d0000ab814082906d302f9a7023263cb317fb35
:101d10007b6ec95999e95ea4191d1ea1bb4cc8a1cf
:101d2000c1a4bbd989e3e9954f7f1fb69d30c42a72
:101d30000fac17446032b09c4bd997c7ce0a5ae417
:101d40004a321a50755da4c94a130b0307806664b2
:101d5000d73ea030b37be0d3068c0c381f03c8e11c
:101d60008848692523dc1c928bbd184993e4b76b26
:101d70005244b94cee1e1ab6e59816286d92b03d45
:101d80002a283f0f1bc2d35233ea902a025a6f749b
:101d90007d8cdd26b4461563fbfc620317ae5f0441
:101da00099cd3626fa078daa43807bc8737be55e02
:101db000d43dac5f0368847ef0e8a732ba7d43a2cd
:101dc000974263ce9c54ff5069ef1b7c3eb2353086
:101dd0007819284262306b878ccd32d885af38367f
:101de000605ac3b672975a89cc2f889ef0c4fcd42f
:101df000b86eae2ee87b2bd08889b501601c857744
:101e00008feca92c6ccb68aa8d3ad81109402f56bb
:101e1000eadd2fb025ef63dcc20559a6eea80f5b03
:101e20007fbd52ea1636bb310d19c5ba7c500a1e69
:101e300020b327b6f739d46724364e8bd2eeba8357
:101e400050ca109dc750beb34505bf59c874f74965
:101e500043001b2b1c3c1b2a343ec54dc7ab831bc8
:101e6000836f48c11d19e18ae46567d0caaa193891
:101e70004c52d20a4443719bf4f3732aaddff081d4
:101e8000d58b0a886f2444ba066b32c04914f254c9
:101e90009130ab5b382c664f3c44ac3197d763b480
:101ea00019304e2e89a958299ab5f75eb63ab16411
:101eb000aa02523d549e5ac3b7de836ca316e35860
:101ec0000eb6936bacaf059eb5277b470bcb99281d
:101ed000a4cbf62c9e595607ee65a02f2037168fff
:101ee000ae3970c008f1d7a1f7aba05b9c2b81176e
:101ef0007c1a47e3e11bc12d21c08507b9e1ff76bc
:101f0000a24c10a5793fec2163d0581135bb606815
:101f10007f8d3a5156311b58f958146275cdf9a787
:101f20006ac8edc8d70d993e3f7613411bceaeee81
:101f300047f774ed966097b418d5ba8baa4e4e0e3b
:101f4000ee59374d99f3b0a44af73c15fe85703928
:101f50009a18d975c4d43aafc532b58f3f96d39984
:101f60004f7ecacdded3129e28e47fe0a172caf173
:101f700093e293ea01a0aecbe927998318f437e105
:101f80005080909b082e8e63be0075811d6d13429c
:101f9000904ab0486891da780e27c0df3be296e1bc
:101fa0001e78cc475d8614f0bd9de8183adfb75522
:101fb000feb4fe016189e8ce876c4e302903773b81
:101fc0006caca6ced41469f67ee5c826fc5e279cd0
:101fd000aa0c73400291c5f373347607e756745820
:101fe0002ac0a2ec07b81297cdd30adbe152d996ea
:101ff000f19c70f455affef08de564310e096880f8
:1020000099bec63acb2ec2eae1ee4e829dae8d1e3f
:10201000c7dcdcd52213d74a2d272d79986a917514
:102020008e517ba81732f3696089edcee2c8afeb21
:10203000e27549f5096e1d6e5983f03698d5222850
:102040007a318d0dc7e08e7784e2069fea7d4f449a
:10205000c7061ea556b0a1dc1c95b32ef25b163642
:102060000b2fdd383f1d37503a56ed0d6105707d61
:1020700007698201bb215d01d1f91185361e254713
:1020800006330f76d23222fe69354f4638ac5237ce
:102090006605f89d88e5431f276868480f93778396
:1020a0006c289b91c5200207a8936cbc79563db063
:1020b0004962eb667442b514703d8ce163010a8598
:1020c000e6004b5d48fa2f76c1e8588a17b572537f
:1020d00090095ec7568977c673a243c6c4c23c7fc7
:1020e000f4e59a7a750cd8f94202fa97263198c924
:1020f000ea310ca387328c00410be3c271a720b1f7
:10210000c4075fc0c72d16c42d6ece44c639dd9fef
:1021100007ea35a1c2f76f4942e64fcceacb444506
:1021200095bc419dcb6ad742c8cd40619646c365f8
:10213000da1780e41871fc330bc32e3a742604e8d6
:10214000da8c46043281e60c9d2aae403a7e077353
:10215000d12c54e5c42912ec24aa3f041e8838cfa0
:102160009def53cf3429bade92501a96cfad969c8c
:10217000ee98a26efd1b93530b485c17081ab3fb35
:102180006189a4d88006e128bcab76d442d00fbccc
:1021900018aef4edae5d16f6adc1a99a350b6f56cb
:1021a00001fae38232924f7e3028d3360a6f3647e7
:1021b00093c7b1657061308937e47a60f24bff668e
:1021c0003f76c9ab549d0941863b992d1a4c323656
:1021d000658bad67bb89e769d025cdff296bba1048
:1021e00052420beefc18c667e99177e9b63a8dd6f4
:1021f000b16201cee3e13b1d9123324f53778f6be8
:10220000a9e1acb3da5433d021d4e68f7c96350ff4
:1022100091b72e1f4c3cbf8b645c272d16c6020461
:1022200070b1f1cfb5fc28fe18dc346052ace25836
:102230002c726872bc9613fe827d1dece7178c1120
:1022400005e4bb2211a8158c701f78562e2d6bbb90
:1022500083f8ac0a0b95ecbbe933803d45f84c1292
:10226000848f2c50b9101e441b26d288a0519edbaf
:10227000b825c3809b8831bf8ccd02e3602d719f50
:10228000714a919567f2416b1c0fc76ee844f0c923
:102290009440596ab9274724e28235c478d7bf579a
:1022a000870e9a8c47f35dfc097b53384bc84bbcb7
:1022b000ef29c6d08d309b04dfa5129aa975f1b421
:1022c0006d294b31d6bcd3ef098f9471faccd13b39
:1022d000bd63d4eb2e3eec572bd48f1fd7cdba8cd9
:1022e0001243f081eccf7786864ace75c569191600
:1022f00053d4cb0aa22bffe790a0232fb9924a1efa
:10230000adea7806c95920ee23dbf2dde0e6f6ad52
:102310000ea24dacb1f13756c74c2c0d4f91685af7
:10232000ccef7face6e39c652c21d8e1a4edcbeab1
:1023300021c5f1292017170716fb028c73e6c593f8
:10234000090bc7b1bf5ad6e160058c8a3b1e9425a4
:102350000cf13d765934d71e95534e2d58df701130
:1023600063467bd9c2838ce15061bba12cd14a72f8
:10237000a52ca4463f15e0f8e13fd7277829302a5d
:10238000192dfe0f16452f6dc0313af3b975f39f25
:102390009dacdc7ca7cdfebd0f68dc6a292961dc21
:1023a000e581ddf8d8476804cc95517cb8fb64fc26
:1023b0001ca73b9294d7cb840ce00b5eccd3d31eee
:1023c0000c0dfe34fb9e8132aae292430003e9ed3c
:1023d000151909bc282c2cf4098d5beae371a4dce7
:1023e000ebc07c316ebf1a5b69584dc63554195825
:1023f000e1799586063429b4fb028b32438d367b16
:10240000fb42cfbdab791431b5a20bacd74dd9c8c7
:10241000c02434164720a10236022be7e84b454181
:10242000d0c94d09265a8edbb67811e2a859631d32
:1024300082da1bf3e84051d6e65ce826050eccf1c3
:1024400070a177920cd5ffdef3389965c2490a0a6c
:102450003bd731f7a9c70cd574c369b2b3daa52e3f
:10246000bbf6036d3ae0011ad272f4eaa9b86e2bfa
:1024700022d78a966f2a6ce1a8ae7c2f9b84c82f46
:102480003b3fdb88693ebeb185139983d77e9c01b3
:10249000811d80bb1d1cb4ac19cccf23e185a8cf16
:1024a00065d3b3d081e09cf4509ba1e78cf84b320c
:1024b000576b542da42a1fcc27d8edcad1d0e3a93d
:1024c000c5e68fe7ef8d1a7714a6345ea25e1d87ee
:1024d00070701235cfec7555c3502f0ee716a492cd
:1024e000432ca95846bed8f7e93830493c2fb704e9
:1024f000512122e5ae5253a0572f3cefc00560c0da
:10250000d7eb39183d2d174a32065e03badc75ad9c
:10251000fe103d0c338272224aa90ee512bd04d48e
:1025200015b0cd62b8fa7af73f5b0064e821075432
:10253000e49d516bad3621158e18aa51d5aeb1e987
:10254000f6a4b103bc3c8c4f8e0038422048d341e6
:102550000115ee80082d202a633c8b4d0d645287b7
:1025600014531f8e0bee2204100506b02e48432a8a
:102570009e2d1f54acb894acf899155132022b78ab
:102580001de86bd8fb76c6f6ad1662ad3b154c4028
:102590007852ed7a3015214ef850043daa9b19551a
:1025a0003c6c778cdf47bcff4cc2ed32d662ac98f6
:1025b0001f51db42f806b44a351f71c71c4ed94c77
:1025c0004ef9e08a1c6523b257c862caf758413eeb
:1025d000488c2b3a3597b7c5de51d271aee11b85d9
:1025e0000aef74d0e20688ad2a23dc30b5763bdcf6
:1025f000aee9d19f5bc91d810a85a665740d1e6d6c
:102600009ea07eac64be2d2db89e4cfb3f83395cf2
:1026100023bc929713f4be84d2e4782c7397d973b9
:10262000cb610a9af90ca22e3bbbaaba3bbbaf5da9
:10263000e16a28c389c4e7a3c917412e6c3ca6ea06
:102640001827e982f93d7b46af892b5860c1e07ab3
:1026500056afd622c0a50d0723b1ae9f76471dd534
:102660003c03fe0479faab08633d3291f0ca451889
:10267000cd9fd77c418365fcbd99ddd9591137cffa
:102680004c8e8e50361912cd7bac326240b0fbb608
:102690003bf5f34e29db00bdf8d038c9b999dec44b
:1026a000c5adb50346151cebd26e444148df1ff59e
:1026b000e0530d0d796451965682dce6a00ed004ed
:1026c000581f9fd5e0a79cfbfc68c5e9c909af2c42
:1026d0007133b5485076864111307432b3631f4b65
:1026e000ae792766e8c4b1066b176ad8cad9191e35
:1026f000069d29943e3f017637c4e58a8e1dbc14a1
:10270000d83d851d46d6f9b92966eedd716614659a
:10271000d5f427c3ed1482080dfe2fca85efd15fd3
:102720002114e2167e68b45c15b424ee62e32f1720
:102730007e1406fff755c3ccb092481de52726df6f
:102740007250beeec223148d48404ab2fc3d1a2e90
:10275000987cc850044833bce06111c0bb0ebae09d
:102760006ef183e1fe177326be9c300f980fe49d37
:102770000b5a1cfaf5c93be8e86054f924d235320b
:102780006fc2916ef1802ce97462522d05147f4561
:1027900064b3cc10474604723ead1448ae593acaf1
:1027a000673b48d3b24bbe51c8dc8551129a61b326
:1027b0007a8babefd75e5a101161a77dfca4da5675
:1027c00013804062121b459f523936a01a70d4a75d
:1027d000953595e66bd4507a9dc7a43ff4cf7eae75
:1027e000f1833742a8ff308662810435b1f2686d0b
:1027f0005cbe8f01579ac25e4b8c07f764d56d8f14
:102800005f9a3dd2c62609e4cf93cf7549120ed305
:10281000f7bda0e690034cf9cf3f01b0e1579561b9
:102820008479542b3713f2ff0f38e2a21d519270b6
:102830000cb45b21c4276b10ab209760c655178280
:10284000069beb332abe8b62bb79f1e0d329e36fa1
:10285000dcf2b6b19e6804e3e263e89946312804ed
:102860005b005021266ac864421ddc24a5fe1e7b45
:10287000d766ecc22d103785b0e951c8aa88382236
:10288000b51d10e5a54f72879a8344c81bdd4e1d08
:1028900095f8dc4ca97257058151b5f6e8931bcf2a
:1028a00078f731d8dfa1be6d3a942bef23ebf5da40
:1028b00023bf181083eff9b37096dc53887f9fec29
:1028c000eebdcf2e82685fec99eddde4a778ce9067
:1028d000949e4e41695de44126d2d083caa409bbcf
:1028e000d8fa3a261883255188e40e257ae8b301f0
:1028f000fe76f25063934e723effbb3212052d04fa
:10290000a7d3126c1822aad28c4a52f0a3eceb4f38
:10291000366ab02e101955107ceadcc0815e6e1943
:1029200091c1f78a02833faf238867d8b7157db17d
:102930001ed34a57b6bcb6309242c27513d161c697
:10294000fda0a67403a52741678b74ce3f93b97a87
:1029500021000a1cc64803a8cb9a26dcb2e009b3c2
:10296000fe81e9d60985524288fd90d71f477896a7
:10297000ace543ec642cc9e8dd17e8b3a988634fe4
:10298000c85eafac796dd77a8cde2a41c126396d2d
:10299000ca83703c451335718151ab43e86ad3f863
:1029a00064abd44e46b50ed552aaabf7f74dc53041
:1029b000be31b2bfc3af91728879f6ee648705d499
:1029c0001c5be80133ca92fca20149816e4c07f8f6
:1029d0005fd6357a05ada331604b5a9acc651e9609
:1029e000369425fd3d958952df41326e86538c9693
:1029f000a8daa73acce2b37a19ea1e1269b763a63d
:102a000031acd0ba9bd9f490a4e148d0f721e5428b
:102a10003f02d3622a4faa9dedf3898cda751779ac
:102a2000e38b6b6dcc82b368be63845c1d9f050d28
:102a3000dddc012b4830b6ced2c3433d6ed38bf6de
:102a4000e6068c7a9fb85239e316dc13b5b9e5e88f
:102a50000d6c422d442c6fde42c87b44a523ec4113
:102a6000f2406c2a42ce4dd8ccd12e6fc3d5f11d89
:102a70003d35055a349877ca30ac448b0ba83a7e62
:102a80001bc01bb04a36527ab227bede478f882c55
:102a9000aa3ecca4fa79da54bbbc441af53253d41a
:102aa000b59eb8e93dfccb4b0766b96b4aa3a7ebd3
:102ab000b5c8515c58d219aec3713d9a166c628983
:102ac000b7772b232316f37b6b0802362149a239f3
:102ad000167c72b5e80459c9aa5250f9a06db865c0
:102ae00012fea0338fedb027f0d2a7b1802a7ca0d0
:102af0000d4de3aecac5c15590d26ce913e491d631
:102b00005a4b44649720ddca74b4e2f2bc44367f69
:102b100016c5914c01fce591d2ab0c947e5f532716
:102b2000b8d45816e3e8e1421374d621b11c9fc310
:102b3000c7bebc2a1096b728dda698631553e2a439
:102b4000bc98ad249620d494018433b76cd3d91e9d
:102b5000b996cbe16e75f43adb62bd854ac88854fc
:102b60008321c00f664f59f8192681cd731609b914
:102b7000e060fc18db4fd02a799b8012cbd221a3d6
:102b8000e2b666948cace9875914ccad4ba0f0c882
:102b9000fb610076972140a9ef5985248be4ee97dd
:102ba000e06c378eb1ca1c000bef0b4273c6b8a1a4
:102bb00023a55e024ee20424ed937e2415fccb0a8d
:102bc000b8846bf17068ba592198b04fea8fa4d5d8
:102bd0007d5de0c139ce0461750d9386ec31f67fe1
:102be000ae9f87862f9b2e1b23cd25c47935b489b4
:102bf00039522b3b763074ea463c5c738b2b0620b3
:102c0000479c5c04d4f7e36e93319ecb4652c94493
:102c100072f9f2ffd0d3d4ccf5a12a8d3ea738baf1
:102c2000787373e273b7cf63a6f64a0eb93b61caf5
:102c30001e106212c439681c3d001b061b78c54c6f
:102c4000dc8bd1071901e69875bceecd886e830741
:102c50000c6d490f3bf8765f49a0e45035877a2820
:102c600038847875eaf071370a7901b910621dcba2
:102c700036c490359689cc961c015b0fcc0220c0df
:102c800014a1e0e9ed6977cf827e12a0eabde34ca2
:102c900010483eea4f2367048617e6b32b91f77b73
:102ca000e20282513e739fcf85afc920005a0af5d8
:102cb00045a390422b5e3f346da7d17e9a1934a66e
:102cc000d79e2144a6a96c70067ce1c8268b88514a
:102cd000a87d2c612a5c1bf20afac4a0d19df1f6f2
:102ce000ce7226bf0aa1238a6598fb543282f6a7ca
:102cf00084c9495c33df738becb7c8579058ec2e0e
:102d00003f9c6a6e7ac13203791eca0d2dc14afbff
:102d1000cc1db2e72eb97b5c00c023ed528a093787
:102d2000b5ac44f8b13954c16f6c415f81995dd045
:102d3000b35236dcaba3c33fcf2cba23072e759a10
:102d4000f8d2f12786b36febbc99d7c38aca2c019e
:102d5000b00f60277c48af9315db81f2e061be4184
:102d6000ae4b6410cb11436175bc30d2d7b79a2eed
:102d700078e469e113152f5fc12d535933fae496b6
:102d80003cf6a8cbf500bdd69508f6d07b3ad59891
:102d9000242dd96fc1c72e1d8587371ea45757cd47
:102da000781b08cd4d54de8664efd96e1621ce58bf
:102db00094f683f686aea694cb1746f188ccc6e887
:102dc0009a654c82558110580c5aaa986af21dfdda
:102dd000b9ede015e93559feb64b8b2e7529cb4e72
:102de000ab27a9b9e3c2628f1d14bd5195ef1abe7e
:102df0006d6d1fe34c567573f7041f601f27231d6d
:102e0000ac53fc571fd4eaf0bf7a7fc1162d1604cd
:102e100052d9d4444e94c640c64789d9520bb254b5
:102e2000f950ff593b6e90afcb580bce04f29b206c
:102e30000aeda8c155777fe75c0d4255a074f0d527
:102e400037df0ab0bf8c95de904370fff3a5e80e24
:102e5000ca264f23ee2574b6773fd6ccf6069ecc15
:102e6000cb208d7d580c4db4053102546c6f158b01
:102e70004e9f19c20a5ecadc8b4b998554baf8255d
:102e800035322c10cc3aa51b318accf41536f136ec
:102e9000b7979a1f94fcfd30aaf4607fa2c5bcf0de
:102ea0001dc59d19dd5daa149fbccb4aeb4a431199
:102eb0006bfa74da3d19beece5e70856213790c28b
:102ec0009684f7c10dcbd95369d9167f4cdb13b764
:102ed000c760a5b2555fd829f4ca65993fd0ba58e2
:102ee000097189d74edfb98e406e6a567648e04246
:102ef00046999261b61692daf7c9f3b1a98867e6e6
:102f00000675081b133bf04fd39f1bff0a6ed58538
:102f10008ee00f66ccae662b0eef989ac941635bcc
:102f200067235fc9a9dada59016a8ffbf7ffa507a2
:102f300074e473624e1617f90175989aedbdc501d8
:102f4000c8629e092fda54bd25efa8c165cf05647c
:102f500030d2dc2826308d6fe7d660b1ec51f54ecb
:102f6000a2c8c4afb5eb1bb0e1b669226fb8b3a07d
:102f70005f10ce7625ac675b6b65f7e3e091c4ca62
:102f8000c8d55d2576118e835c2d851367e3bb392b
:102f900083f85d68277de9422a56b93f30ff2cdd72
:102fa000ed362bb41e033f599637518a624da4402b
:102fb000b4d3bdaa18ed50f2f09f086dff2e8a55cc
:102fc000dcb632f262c57f3795a6119586f90b6f94
:102fd000e2e8f1dd3e5e261642855b08bfd27964e9
:102fe000d149bde47ac1e59b676b10b7798dbcc34d
:102ff0004a95dfa429da83597417f41dc9895ad177
:10300000e65fe1bae739c92b7154ac5edc6daabe4c
:103010000a5c52abc09197f64aa11754845e5d904a
:10302000444105433aab29492e3a079ca59e267b8d
:10303000ce1a6203af315dd4f2bc42c4db02c7e9f1
:10304000b6a719b06ae4ee3208874053906ef18259
:103050008befa7634f42a7db87cff22f1f7449384e
:10306000b680b18cc08f1a69e69aba0bd6b7e771f1
:1030700009f7df43645c76cc1f3c37511c869b0507
:103080000d9fa36438d9eb9bef4dd3442351596f67
:103090000bf84f47f761df6efa2c342c79bcf8d36c
:1030a00035523c24170bca9559e98a8afe6785c8b0
:1030b00091ce94d81639838f19de9df2fc098819b8
:1030c00010b303886be9252c84f67ffdba5fb650f8
:1030d0003d22bace72308dba145bf59fe65e89242c
:1030e00029e640b5d51c1d358ac433b3206c16bc07
:1030f000fad5a14738e82110ee2216099cf67ee4a5
:10310000dbbe8be1981dd7f1b9152b071aa3b9b017
:10311000aed3624777bd32f84f6549b95428f801fc
:1031200085f5153314d1b7f80ad272b5b1015ddf58
:10313000df008806f6a71f523c687bbc6280ea7eef
:10314000f4ed3d2fe5dbcd5b58f08267a21eedbfad
:103150009e071773fb971343ecb207674100927ffa
:10316000f1c2f2f6ff2ab1702c5414e5b10911cb6b
:103170009ceb095e3bd3224cbeb646cfc3a06e4f3c
:103180001f71ae73621a218ef6ca69223083ff5f07
:103190005c199a910a45125ce2c76f29ec234e9d97
:1031a0009a0990c01c8311ba5a477f7ab288a885c1
:1031b0006f552080347873b0522e24f57415fdf2cb
:1031c000508a711d179077d08f8f5801147525e79d
:1031d0002e098f348207d6c31a9e1ab449f635a138
:1031e00007a485eb90aaa11856afe7596bdf58a04a
:1031f000e1759e1d5930248ddf239d4b9e73a16c7c
:1032000062dbd3a213b826eee6b42a00ed7efe857b
:103210002c429d702e999859fc58338c7d936927c8
:10322000cb3a84e7aa4ad0ae6eb07eda03a2d6903b
:10323000972585623d81c14253be6abbef2bfbb02f
:103240009e7ff0c62d8a8699a87c1b0b77992ce36c
:10325000592b6a33e284ed1b76df3974869115941d
:103260005f7c5fedafa682d2125079a2af87b95ac8
:10327000251b7db7cfd880bdac212c209742015ba8
:1032800040e5955efc4c1eec1377407a24935d700c
:103290000ccb6ea35048eaab02f241b94ec562872f
:1032a0004b008eaa2c173cf302af749355c855718e
:1032b000a73a6238465efa3c9b2a98e817413211d9
:1032c000d5382c30b09e43dfe049180b16539929ae
:1032d00005c6377ef0725749f0aa9d7cf994f6c472
:1032e000e2237f13da88f333045153e3c8682c2bad
:1032f00000a425f559cffb48b835376105d671ddf7
:1033000094f5085cff903892fbb914f40436b56963
:10331000f3ae61dd05d39ab35503b6f19c4ef105ca
:10332000cb243d2284535a2c8818e76dbfbf13c2ab
:103330004b4289d1ddd0708f1118d18baa80948e29
:10334000114c3c66aa8323baa665a517e07f427a92
:10335000e400385e3f92baec533a97c0aa8c0e480c
:103360003d339f43362a837caaa82b96d4516dde29
:103370008b2beb9ba5c132def05d6a6ad975a48206
:10338000f49312bbc025161bee8d1b5fb7143509d5
:103390004deadb40c283217ac027ec87f95e835374
:1033a0000f4722c04a0e00bf8548d2a55189b4b844
:1033b000788b3a4b745c51d4c510a0f43461286bff
:1033c000330cfb70d393ae8a8b6cea44d26f1266d7
:1033d0003a49a67fdd598f444784ec5a0b3e1602ca
:1033e00084f6d345172818044dcb460fcada5d433f
:1033f000382d643cde3a970156b6c2c3800ef737cb
:103400008044de29b829dd8747d664c5744be66e53
:103410006f2dbd7a3f5796482fa522302b7adfb00b
:103420004c24f11bb82dff4c3fe8454da7c19182bc
:10343000633361af73e4a12642eb6efef7ff92fea9
:1034400071b66414fff4168737b3e4efcd120f8a18
:103450004c192036c4c04470e6966d5df748b77bc2
:103460002d9588248518a73b7a235a8936cf1eb616
:10347000b789619a7b7c885a4b3141b16bb0e1626c
:10348000db16cea5ff3e448502e7032d1dbd41ff9f
:10349000e915d3bfc840451ff9cae0a5bc8a78c367
:1034a0006e66e4b010eaf607186a00b3159c4dcbbf
:1034b000c5c8a88fb4040adc9b25b9a476b990804e
:1034c0004cae531f3f0916989c6be90c8f26b5e351
:1034d0002e2482d4acb8e839b28fb13766bd277dcf
:1034e000b857f932c8ef4968195e6e26993eac6349
:1034f000287c78d67b8739c093e20a0c9e083779fe
:10350000ea1c83b35ecb62c8fd9fa53cda14c850a9
:10351000fcb44266a17f581846b3bee7c272fb12e4
:1035200055b5777093bbd387b86fb7328736abccbe
:10353000af3455f8b4b66c0b6a2aaa25745e82f6cd
:103540006e057def3e63897885697d62b4b9d319d4
:1035500059e4cb6783c16efa0819aca9e78e1e4ff8
:10356000f7ad4658edd2552c31c19307d19dd86e99
:10357000010551f05860239859c5901f7bfc95e6d2
:10358000f6c4ff5e7b7da5bbe42d441df717141226
:10359000027beeb32db86b83c89874a5a3bcbbd9ce
:1035a000fa472dcc057c393863ca61622460b7e3e1
:1035b00024deaa61cbae216b64e75b68745445c01e
:1035c000d02cf924e258ae9fc2222026450187293b
:1035d0009301037e589f30bb9ebae2c32d174fb6ae
:1035e000c4114972a5c11572b115fdf144827c72f6
:1035f000e3929dbc2e52c74c1b994f5ce8c41e71d0
:10360000ec29b57ea2eabb6f9aa3e8a3f4d6bd2c41
:10361000fb28b1a137462d5fbe4a8c4991ee979e9b
:10362000bc7e6512ac209c291793f94ec7c2e5c435
:103630005f8aa140de0a773f916da7ea0536d39bea
:103640000c46ca29b6464ff24ca6b66a090d2f970a
:10365000f44683a8a79c5b102f6b977b96dbdeb6a6
:10366000e1c0847df1ca573b2cf029e37d80c195f0
:10367000d225a1bfef480ee6cca94950ec43bb29a7
:103680008e4d97184f88bf4ed4ed713fc259092b0c
:1036900071ca50e5af645e81358051364396964bd2
:1036a0008d0a96fb1b567fb848cff0219e296f6983
:1036b000f304283b0ac9d33e2320432a9b9573ec8d
:1036c0008fe7c04100f26290a0041148f0bc920b59
:1036d00070d90bcadd355cbb983893c5998da5515f
:1036e000c28dc48b17c5ec98e79e4f5fbaa297e9cd
:1036f000ea06cbc7e7c7e9c8f47fbb54a07bc83e46
:10370000084a790cb259a243ae9eca718846154840
:10371000c2af595c2465ebc0992ce83a61ed57f9ca
:103720001b75b4681607eee09b438f4a02391dd91a
:10373000bbde134336ad4f8d41f231ffa08bf2cf8c
:103740000b4f6cc3f1b53ad511ed7aee23cfd156bc
:103750001042211783b3e674be69fd2c581f83e81d
:10376000fc494ac10af82d4b8019aa8db24717bbf4
:10377000516b73c3c312c8bdc47e7e088cabf46c9e
:103780006f9b5aa92b401e335168aaa7f6beb012f0
:103790001b2bea940403827180e2c383befdd4082c
:1037a000b92492b5bbc16d86a646849e071bc35f34
:1037b0000e37786dbf78d9307d5502bb675dabbce5
:1037c0008c548781274a5097a25c722038724d46ec
:1037d000891452be4f3193d354ae1a7a2b2f7a15d7
:1037e0001baf5df20316c5bdd4fc65138fbb26fb72
:1037f000fbca20bc62f3f62d4245f8e695bcd8a37f
:10380000fc473993ac6bfc74e4571f897fbfb9c682
:103810008910a30e6a17888ace44ce135b91fe03eb
:10382000b2af049651527c7c244e3b8cc32fb50d15
:10383000b18d29fe62f51d2cc02125ca35ee96f703
:10384000ff57ad9f13b4cebb5ab218e1061f7ff2eb
:10385000028b9a0cdcab922d7df6c8d70fbd7e672c
:10386000d572b795bf2984b47f4a9ba485c13dfe1c
:10387000fe60aa53747b8076aebececdef1bee17f2
:1038800035a8dcf1b721a13b84c15dd14959d44ca5
:103890001eba45ed091793d914590537ae4b5a1482
:1038a000a3158785931eb6e3032a90eef837448a62
:1038b0006254e71d5301adb09995bd18477aa4d065
:1038c000c5cdacd2bb33ac94fd26852e4202e3f7c6
:1038d0008d41c425c91f59340c3e16f98172874c9d
:1038e000619997d7beaca0d412bae86b92982fe436
:1038f000736783981462c0da93ae7f871920359975
:103900006762a433f3173941c6d8e66aa41f2c476f
:1039100017cbb7dae0341a3d706834f7397a8cf493
:10392000a17990548f3ab15909509fb9ba1d5f538c
:10393000e774dd2a7b83b73fd5ea47b73ddbc31683
:103940000936aa3ff8e083da2fa192a5da5d0d705f
:103950001a3f8aba90aba38ed0e23adc5d794bf085
:10396000bb930bc4f09437b26c5c192a6edf13b0b2
:10397000a2ffab2bf058e27b896e38d55be1531e7a
:103980001e8e845a98e282cdafdc71e1c03120d71f
:10399000f0268b941be133ae06101329658d0729a1
:1039a000533423142b3100fce1184e8371a46aa711
:1039b000c76d12375c999c379ea6c16d76bdc481d8
:1039c000f0ec5385ec547facce0eed8129ed84579d
:1039d0001a4f1856d91dc4a23c1f8036335572d5d4
:1039e000b1b581166e40b0349e7235760f0746ee43
:1039f0001667cdcc72194abd920469a6430be3ac9d
:103a00001e28e273272986d0c0e183866997953bfb
:103a1000f7a347b38f80a8c256bb7096300570bd20
:103a2000f20e2e87a172862347f3c0f37abbcabf7a
:103a30002e023ff93f2412c0637d629d1b7acb8c1e
:103a4000407cd9d531de3c501e5e9e467ec8f6c411
:103a5000a7a0283b5cac7852777db0df93a0f160e3
:103a6000ae59a62fb9a5c93e0f268c7993f0ee70fa
:103a7000dd6171cd1da6d66126b340a1894c1d5bc9
:103a800030a20332eca48c19d94db1618885e4428f
:103a900017684367cdb4916f5cefbf5f77b67f590e
:103aa000c4037d77f2cd01ce652c691b7bb2850afc
:103ab0006e3cc18bbba6a45ab0aa68f6dd96ebe4b7
:103ac000e44af789c8f498491a25c68cee7a6664e8
:103ad000814b7cbfa423c53d4b48d51c6c245b7631
:103ae000862ac15b30c995604abb288f526915256b
:103af000d6744b5d8391744cc70796ac7f80653f4d
:103b00004f07bcac946952b9ef574245754bc90792
:103b10006d6ba3521e089986e940de4b820138e89e
:103b2000c56da8066567fef42de057b7f40f8af25d
:103b3000d62763cb9d5135ff0203f8998975404222
:103b4000a1f63809a10fee66f1792a3d1453f8d594
:103b500001c4a5dbfa2c52da39b63d121706ad4c7a
:103b6000566373148f6c9fb6d8ddbf16aacfbc53b3
:103b70000be2cf35db06cc1250ff8f12bb3fb2e811
:103b800049d1c77c797273a7f92701262b39df65e4
:103b9000ff78e278fcccfc22a6ced768528c86282f
:103ba000223fd0bc771b0518b3de9598cacadc72d9
:103bb00017d39dc4a4ba3f803f5c4e43e0c9e69151
:103bc000fdf9dc528ff147b707ee7d13c4a5e494ed
:103bd00011090f4a5bfcd6c2daf745d28857b64cba
:103be00008b616aec2f802d9e85ef110c7b545397d
:103bf00059017d83120842ad3ce2527d3a67e2ec06
:103c0000b1e7db73af8e5441da13745b0e4b3c2a81
:103c10008925d5b5a57bfb25a08887474f54523809
:103c2000d26b6f77ac69bcfc9e969b6213eff87603
:103c30001a44bfda7535c822697fa11f2dc86fa548
:103c4000598aeda92966bc6bc660584d520d24e314
:103c50008c7d60a46e811e55584bdc3f2abed2e796
:103c6000b51bab5bc3b99122997758155ca928e5c0
:103c700093e3aaacf3bdb2d9bafb012173191dd1ec
:103c80004a9cc49145703e471b5f930094477687da
:103c9000e9ec265bcc779da826dd556952c9e6d6ae
:103ca000a560151ace83efed8c3ba2ff81fc9548f1
:103cb00058dbef72017b11813596023f6c6b618995
:103cc0009752f140a5056fad05afcbf4e52229a2cf
:103cd00013be05083ade03db8dca29c972480bd72b
:103ce000193f38e407da6a4f8c3fedc84c08fdec09
:103cf0001b129ab0d0ae0cce13a07cef00f604af2e
:103d000062db63ff1423d3b3b1cff65b4b5b3f6a37
:103d100022727702a0b2b815827c4ec9eaab334c4e
:103d20009e6621660b7492e45238ca86a1d1eee3f6
:103d3000587b5a5be756e7778b94fb9d8aef13a17c
:103d4000986e7719fb36285c5a0b65635aafd458c6
:103d500084fa6fa8675c4f2bd81bf289874f67cf17
:103d60004da79168affb19d8d1131efc78ed562fe3
:103d70005f42d1820411a0ed68f96d03bbf1acef95
:103d800059318adf6f72144762c878df619b8ab746
:103d90004e51f7f3b2c5c8ce6ef3c7f7d67e5ddedf
:103da000e2993664a3db597f7c30466df816c6e590
:103db00051e9e2f2184330d536931a1701c06a2050
:103dc000858b33ce643e5a588bf0acd7fd91a31c43
:103dd000992a69fbe8546710c080df02f6dce4f53d
:103de0008932a1a702fec469d7be4be2f4c52513f0
:103df000db65a753c238051ca44e66497a5ad19296
:103e0000cc24e45f663e2e27d13ad8156ca93399ad
:103e10005566e1e5f7978fe9b0943e0a6c5f1b8227
:103e2000c848245e96a2d9e56e8ebbe8a530c1ece9
:103e300009df0b36397b200759df687408e25ff32e
:103e4000962b48129e815ba0e59e1083a479cfc576
:103e50003c5da9285f8a08e0f223918b441bc7527e
:103e6000124e4f3a1a59e61bbba8bb3a97965c18fc
:103e7000326c55b20c16e764abf9783ae47b263124
:103e8000a7d9dcf135a11cc373d06079aa27ef77dd
:103e9000a8c41660f84ac6cca26d6ef7ed647165d1
:103ea00054b0d33a5ad3e2bf198bb6524b9919f595
:103eb000c4c3a67da0b013d320e14fa0d1adab8a7f
:103ec000f91f49f9c4e589cf5b879f41d3b44af80c
:103ed000a47089d79f493ad8bdbb0a43c0d9caf05c
:103ee0009e0729019e2e290b0b09787e16b6b6294e
:103ef0004f94f6562e43bf912085c99f83160d73ac
:103f0000246342f6cf72960285c5a5b2d219340851
:103f1000baf3c72fbd1d275ba8d547ad5aaecb6af4
:103f2000a0f037494b0412a7e09117bd90a0e6f925
:103f3000c88f91996a21f88b288926d6fb0579fdcf
:103f40001a8892c4b732dfd58d437c4c20da85962f
:103f50004caf9859f4922a0db1d49b20a2347534f9
:103f60001edd1710015bf0f99cfd9b1ff66363ffdc
:103f70000f04a11a9211d940a1567a9de8311ac1b5
:103f80006deb4a064ef4edb7bc65b15f5505b44a1a
:103f9000e0940099c8a0ac83f549981295825f66b9
:103fa000f204f529411a20835487b1d84c44f97e94
:103fb000d40bc418c7241f609fe394da827ec445e3
:103fc00060cd50169a106a6bf60198be815d98ba62
:103fd0008427bdac2047e852a0965b37162e22b04e
:103fe0009c2dea4c8f7d9b6b405657ac4a860775db
:103ff0007ddc0f78975872ada1dcba36995a5b0216
:10400000c5e2b461171391c764f508fe96b9644c14
:10401000763a0dfff20d78ee23ac707f144177d124
:104020006ca44a2d0f671cddf09c6991713cd08413
:104030008d1d5fe7bdbf3c32e91658ad53cd2669f3
:10404000fc6c66a9e7f210aec3b0239ecd18538571
:10405000c78c8bcf502c1653e01df07b818f4aae5e
:10406000ef0dda52f1f837fb276e12a90cac637a28
:10407000a0e34866567ee54ba5be77ee02d3e6493f
:104080003102fdbede2cd871ce341c7f4e04cf8fa2
:10409000661dd98e67ea1e79b93faad5cc53ace428
:1040a00045e871b046c20711801afee7b495ad80ad
:1040b0007d98199795196b850982770bdf56174301
:1040c00076d029d0ec896730f7c7f51cbc2e946fe9
:1040d000d9400c60ab98e8f486219af8332d2d87ef
:1040e000d7d1befc368eee36731d390c598d77371d
:1040f000bfb90abd2ebe578c7154f5315debe1a9f5
:10410000d3458853fd5ba2d5ca3fefb06c96988c1f
:10411000cb54f2b482c456c9d2a117798c6a42c674
:10412000a7fb4049fddf3be65dff9c3e7efa2f3357
:1041300070f45dd11a994853d258ec5b6f0960fb5b
:104140004af76e024d3b82bf46c1818b1871d0ee9b
:1041500064b74af3ef49167ed1ceab0adbb21d3c01
:104160000c1fd2f6ed441dd3af33a93160c6a7733f
:104170005222b8ba404de1fbd2973869b28ae83290
:1041800046341cf79d014aa605002fe1de653f1f5e
:10419000a5bea42e80c2e57f6f2480672a4d748c53
:1041a000fe5b541171375cd716ce5a08e358f410f1
:1041b000918dc6786630f4d827438854f3245590ff
:1041c00009062c19d41502fa1eded0aac00aa66868
:1041d000f84cce0e27b578461d4ccffcb43f4f7d32
:1041e0007c1c07a8d13c756b5ad30e8882fc91e5e4
:1041f000f9fa4cea2b72ab0cade9fb5601b27baa83
:104200001f8ef9a563203b0a0ecf25f5a7387452ff
:104210000f26c07aff8e561285022f73809f9581dc
:10422000c07ea1ac896b79a3e609f4748f9d6ea85a
:10423000ba52a6d68e64e4da06beb18898affec242
:10424000207a72616a91d857cce8612f438436474f
:10425000cb137f7816f5b72d9c19e6555ecb02b2cd
:104260007d1a915d93259d673337e605b3543ffc76
:104270004a37a103b74f812ccccd93698f8b76c27f
:10428000cdc73695911897a915e596566051ca691c
:104290007cb84d4ee24a610153e757f2bcdc6471d1
:1042a000e1ea923d4301986d0799a021b06e8bc55c
:1042b000963f36762df5aff00730285b8f24cb592b
:1042c000fc5c578746c8d3a3d3a89504527a220e24
:1042d000972e1d729dc25c92cad5027c1a581c038f
:1042e0004a1f207bbfbbacf25b01a8ca6f92641966
:1042f000158ea6d6f4cbd92ea978cf8bfecf724bd4
:10430000a4a45b2c1f64ef9aff93916285fd7287d2
:10431000cfdaa827c43d82ac41659bbf4b277f9d68
:10432000f36cb8585ecc53003338f58226b4c34ed4
:1043300045621d52dae75b425ab75071858e435f82
:1043400000bb69405ea322a3add0b34a4114dd8413
:10435000bf1ddf3d9323ddbd6b4278d1be148d0cb4
:10436000bc19f492b87f71b624fc13cade2812f58a
:10437000ed0a6c80eb3176388d3f78f72c5621832f
:104380003a9d4b6f31dcd40f16726cf8428eb272cc
:104390003c459df19321eccf65105fe5a2c1c6beff
:1043a000e45e0916e7397aa747c1d8e359bd2481ed
:1043b000ea737e3cef03d61cb4497d6abaa6ada26f
:1043c000a585b9401bc26b93f09d329f895caa51b1
:1043d000403f30e5b0a88c6818ec98911f879efe8e
:1043e000a1b321f19d649572c49b00c782ae582b86
:1043f000c57ad820cd39884adb8aebcfd17310ce6d
:10440000dba9ca81cce3549421c3b1780c9b15f984
:104410002bc324dcfe47d07656ba428641dbf7f840
:10442000754b51461a0fd0ffb65b66377646b3b070
:10443000993b632c32445fc7766f0dd3028d381ad7
:10444000aeffe27a979cc3769007c03ffb3e00f731
:10445000c2195d7e806dd6ddfefb39935aa174fad8
:1044600094ffcdcd57665627f998e68d0c3eb1be28
:10447000deeda3a0c50c28378ada9178c1a57bcae6
:104480008b12ba58d158927bce931a58330f9a5c3c
:10449000b55813792bd1150e9754f7c9afe77b8325
:1044a000f1484b529ffd65b5d1737cd00acd749015
:1044b0005537adf09e9fc016107b2416e70ae5f233
:1044c000bd32274b99ec0d15ed214f38e5482fbb38
:1044d000fd267f44d30e5c9866262b9334845307c5
:1044e000c99260a986b431f3588f490722c2dfa66a
:1044f000c70735a0e67018c0cc598c3b59ea57372e
:1045000086c2ec1e2be67def5680d7a7cea9c696b5
:10451000b7a2fdd4bc5bbf2c7fa419af4dc2ad9b2d
:104520000ec7ad6ffcdf1bd81631a2fc8e2844a746
:10453000c9d287bd37dc0bc4cfcc51ac15e7cf68ef
:10454000deddd050e87dae2495e84606b9a8909c03
:104550000f4cba0990cd80e05c48f627993f24dce7
:104560003e4c00b9e2c458c74bfac4e6485a95e736
:10457000ba00ee616c2cf8e79395ab37a43bb5809d
:10458000b68fe26ba79d7f5eb84baec78cd6580b3b
:10459000a9b13910755dec44496907a57294c1a9a8
:1045a00025b25e263a1865f092acf9b858466ace44
:1045b00002310496072edeb17cdb2c3ae99772f5c6
:1045c000ae4221d6242a294083e17885e0206f3647
:1045d000da686ebfd0e064a1da92919798316b32bd
:1045e0007f7634283c9b9bd79e59c19ecd08ee70a8
:1045f000f82ab8152cd3fdd7d50e817cfbca055df2
:104600007673c0df9ef167847b2e8644d45a4a5568
:10461000140428db6022c2526b704fc404af02fe48
:10462000bc4e089520431979c2774a4dfe491207be
:10463000b24bdffb27097fdebf4b4d97dbbf0fdfa0
:10464000231ef3079d3965600fe19ac69a52d0c0c8
:10465000fdd7e777d84fcf05e702fa186d00335141
:10466000565d4d50eac11878272c4e9f4b021e7f95
:10467000876a0f37a4f2a62f226ddd58fe89a92480
:10468000ac2c43b872f8ab607724c61fb28e9c97ef
:104690008c8ce966f553f9015092385d7706bb5d65
:1046a000712901be1aba105e2dc15329c73d8c6c09
:1046b0008a98bcbbb972ebd0bcc08156fd464be9b1
:1046c000eee8587483b41c42343df0718d7205f3ea
:1046d000d04574cbbe90cf5fde28a830f9ec63459f
:1046e000ba1a74ea3124f496cbeaaa7e30eb9564c8
:1046f000940b02b355e6cbe90de33b751b2be3b8f6
:1047000015759c06e2edbf9448e477b4370f9b77ac
:104710004a9258ae7755a0547f64f45e8d9278a08b
:10472000c85f44b7984e3d87666d5a675479cb721f
:10473000e4d759a51c41981cf043cb903860b422b3
:104740002d55fa4a9b3c93dde25d4bbbcdc44255ef
:104750004263fcb16350276757df4108cd561e6b9b
:10476000b1d45b85c21ae6f697fa0ce9fd782159b7
:10477000e8fc2b4f893317a6f5de594d987e97d864
:10478000783951e27524b84bb0ba56f8b13b42dde6
:10479000b3bdaf04cfbfc0094edb254a28b999731a
:1047a000d4fbcd8b583d4bac867d79dcddd983972e
:1047b000101e47ca59f6c52916947c6f42504bcc3f
:1047c000b484f4c6857a14dfd6a50c93b51ef7bc65
:1047d0006df5850350a96fd63e46e738ba94825fdf
:1047e000984f6ce3aaa8f47a1ebfdeb7d435134302
:1047f000e6ec57605761221a9fbda39d7e44af5bd4
:104800006a722792cb1aa88c7998a5be3e76d226da
:104810009ef87a465bfa80d80fa8a9eaea8db16db6
:10482000b7f92cb122de2352cda55c62568fc02f82
:1048300050b57cd2c96d7b4357d5c3d5213fd1fa42
:104840001747dc014dcd7b016a86eeaec65a03bb2d
:104850006c1e2c23d39d770ab309ebca36de7e8506
:10486000e70a15d20d65d643edaedaa72bfc375417
:10487000bb828de0f77dccd6d1e8a8ec633cd7eec7
:10488000bb59fa34eed5e65a63a6561798fe0ed4f5
:104890009c7e206cb0485021e96353d32c7090b5b6
:1048a000c85ab3d9b453b78f08e23b4f8ee5d750ff
:1048b000c515428f4622acaf15a429968400e25359
:1048c00042f029bba0539053ba3f8d929ec6d64565
:1048d0003999f8efbe899ba42fc623a4302f8d6f82
:1048e00039c35fe011628a4f366fa4f7f5f8854748
:1048f00010aca7e2a7a3d774ecadbaababccf9e090
:10490000846c8db8a2b82ac63f5c3f84ebd87c6625
:1049100073ca6f9ba315486f57f23fd659f8053fee
:10492000d7dd9b9c029e57576ce8004f63fd8d9c22
:10493000407428671aceef831896b0159a716700f5
:10494000cd056d2e5d5b483f02bc1d0daac4193616
:10495000d088c0f22466a84f08937e7e31d30836f3
:1049600018bb88bfa0f743f662075dc90b482b2c24
:104970005e2b158846c3091d4740bdba4bf10b9805
:10498000c61ab8420d5ef860adbbcfb4222b8b8b3c
:104990007330d058abe3237fe4ba0d8c38608520a8
:1049a000ce6d5950cda0a9cfcf7e7fcbce2f1f3c4f
:1049b000ef12ec87915e7a891ab20cb6f06897868e
:1049c000d539358adc66f5136a853ab98e801323aa
:1049d00022dd87ba8f1610797f037d78e731218633
:1049e00067feedba47980ab0884f760c213e6bc936
:1049f00048eda0696c3d9b678a781fe4867c15634f
:104a0000a36cae0123d15a6ffeee55ec31c3f32ceb
:104a10007ffc628c7744604392269bb7958ed7c00b
:104a2000c0abfcf9a4e713a13124cbf277eb499397
:104a3000d481af068afc6c2de2b6291602e7897490
:104a4000a9b4b34b5aadf53a474dd817f34ccec67f
:104a5000d43c17e94c32031939f3d34e0a29bf9dd0
:104a60006aa38f00d3c4e55e696ce45aa4641b8c0e
:104a700080bf4bdaca353ba4d06736be80fe7505d1
:104a80003c08e50c70854a4924a34bf70b4e8a2657
:104a9000975f18ac932b6ba72b6d874c4c83ff6de6
:104aa0005e810b7286286f3a39b6fb937c0b8b5e66
:104ab000e9fbf71da8a0387b57d17630ffefcdbac0
:104ac0009d4a825e92141dbbbc898a45d9d8cfca43
:104ad000eccfd2eb53b0ee9d2855a2967490825441
:104ae0001d4d82be3c9ad2530049cc8e6d0814797c
:104af000fc77ed00fe404e5c257e98be2415c09ce0
:104b0000d81828ec9013430def09370e3ea6ea772c
:104b10003136c9241839d6e527d9d9fd19a8a39764
:104b2000ec9debaa95e171476d5b8c4fb4bd2f5c9a
:104b30004dd57b8f49f7c3d29950e06fde1f525598
:104b4000c9ad711e673ab5e03859e1a332aec2a2d1
:104b50005f6ff277584dd906fa2f92fa9747ad8ad0
:104b6000d1c63cbd3552c07d5beb9d9c226a1bf2d9
:104b700092f8aab50aec1562923890c3028cdec690
:104b80004afaecc68029a1644c295a849a280bea77
:104b900012973c2e3d9a50e8e6c2ca03b47da29a11
:104ba0001a2fa02c36df8c44fe47e54947278801a1
:104bb000af9ac614743d8ee05f0d9a548b0fb4917a
:104bc000d9679448257a556251c3df3ed892a37abb
:104bd0008882244c5b3d944dfddf239d6663559296
:104be0002ac3deb6e990a6c0ae1cf2e4892a3ad206
:104bf000ddfb8e743e38cec3ab416df224037600ec
:104c0000abe2879b0ce49a82c40c9383abd12e3623
:104c1000c2d533fbea48bc464ba77db37b562a1767
:104c200064099b057ec6c9de3727b1372f61de07d1
:104c3000c68c880a2f6e4a7624419a9ca4f17d8df9
:104c400060b8ddbd211dba88d5e2c5a168083477fa
:104c50006087e332fd6a55bbff6f55cd34b3d5c6cf
:104c6000e0f37d3a23525e8f04d65e826e4d2405ba
:104c7000c89e9ab71c82400e877e028b42e5e46e86
:104c80008ea7de19081f6b28ce814cee1e26073f2b
:104c9000d893d36d6697f8f5e470404c8228117d67
:104ca000a9e9f8cf8ec42f02b7dcf88b44859c921b
:104cb000ff5f3fcdff4e2e0944a99e4112837d0e1a
:104cc0008841f5c0b07db454b9b86b235fd569296c
:104cd000c8669a637be82f75f60f1c421398040888
:104ce0000473ff859b30e1df94dbe8e7d71f3acb05
:104cf000988552bdb319c1cee57064692e6246f93c
:104d0000e4d28d5af4e433658c49c5d85c14d703da
:104d10001e892ef8f4fd676178475815beb55b1201
:104d20006701eef316a15dd7f880932fd7a3d525a1
:104d300007ed305da96b0c72eba081f193b636d410
:104d400042c7791b065b552c6fb821c29e22b170f9
:104d50001d0dac51ab2768d8ebb06936bff3e55dec
:104d60002ad8e40b66080486ab4ab14569d86b9132
:104d7000c912c841b6f087fca5a84fab8dbff63667
:104d8000d86898cef49f18c1bc76cb8474757a0924
:104d900017c51d721dd31d4ab75ab6ddb8845860b9
:104da000e593ac9a384ac871b764f354b8fa88529c
:104db0002db67374e3ac5c5dfab244b25b449821e7
:104dc000151e90bbe1153543ab0945a9c23d1765da
:104dd000dc35a488a1bdf50a3e4838c856083e8c8b
:104de00021441743505b3490d8fc81e1a57487b10e
:104df0007f7bdd9d3547c845664e27da60a0e5e834
:104e0000bdd3463a9e85c3a82d1373e21378673845
:104e1000c381b498794cfd91162f13d913450ee236
:104e200098492c5f498bb6d87261f389a826324025
:104e3000bcb8c6871e5199d9b1bc7cde50b78cd5a1
:104e40005c6aa4d86a2cb08cae52c5747548b8b1ef
:104e500027ba86abe00aeed56a7f3f3cbdf6b77a4b
:104e6000b7087d0f86bc76564fd1ce2123e34e7115
:104e7000351528db31e09e354a2b1a6b6178622e9e
:104e8000fdbfe47bca2cf4f6077bb00fdb1e4f2678
:104e9000bcba1b8f133d94d591b5de24659c589dfb
:104ea000a31e3751671d7f7c09a586c467d969c9d0
:104eb0004e70c3951b6c7335bb5b2b86360b70ed48
:104ec000c2452b8f91cd422dc93341645fa81ceca4
:104ed0002c600f6ebffd8882042efd6cea2b0a93b6
:104ee000b7779f9670fc79db99b9a3272859ee858f
:104ef000e61885a4d97f140998be42a0d7ac7c5c83
:104f0000e0b835d848c6b2c931a50e0281ad8d01d1
:104f100028b541fb4e1a9b9d52694827d7080d833f
:104f2000699597cd835f8e06a07ce89a3a47533304
:104f30005ecf69a4231ecaa9edc1e7c38aef293257
:104f4000c02e675edc4c9b6bb6a07d085f29e1da62
:104f500046941f0f8cdbf3faffac4d60eabc57acf4
:104f60009030004c22e9c685041287b4aafc14b81c
:104f70004e6852391258c737e7bb9b755f72afb89e
:104f8000d02c8790686c7075864c69a380a1a3763d
:104f90001727a8a090ad4d9a976f2c4fe225fcac37
:104fa000dc4b207f40e0452f7bf3958aa4f47e9d67
:104fb0006da794cc8d988d17c807489716a47213c7
:104fc000b6aeacdf2cc96a91f39585ac0345a687d4
:104fd00027a2f47a8214702a97fc33124644868af8
:104fe000b70476583f0f948cfa9a44062e4d6b0afc
:104ff000f5d1dec275011a89ffae0022a6ca395862
:1050000089176bab1eb1f0e4ec1611a030943c5c38
:10501000b19bbc3d818f3d4ab4b9c6be6676f7e40c
:1050200091152d0a87060a6236d56c11c2e42776df
:10503000b00d36484f958e1a96c196fd95179b2850
:105040000c65d82f20c22b0e92854be0983453f17b
:1050500053cc39f978cc14964d6db843e9d64477e2
:10506000470494c159b31d50514473ca8f9372754c
:10507000bb9cf2457ce4aa0e5f5a30b361333139f0
:10508000a60b0f8b8cd5d92726a1656a55a311488d
:10509000547987c514d50ec4993476233fc755c3b8
:1050a000ac16c41954130f53577ab26507bd8f9ac3
:1050b00016188a2a66b6c4f936c058452d2815d068
:1050c00046b923f8e7757d59ed5c219069c8627295
:1050d000ca885a5d904d74bee96d3c4a8760dd4eca
