:020000024000BC
:1000000003B40148019001BD0D150400000000007B
:10001000FFFFFFFFFFFFFFFFFFFFFFFFFFFFFFFFF0
:10002000FFFFFFFFFFFFFFFFFFFFFFFFFFFFFFFFE0
:100030004150503279C63B75B3C3DCD21DB6064D74
:100040000002000000000400A01C000000000000EE
:10005000144BD3F8B02042F00802C3F8B020A3F547
:100060005A239A6E22F4706242F480629A669A6E03
:1000700022F4704242F480429A66DA6E22F4806280
:10008000DA66DA6E22F40062DA66D3F8982022F497
:100090007002C3F89820D3F89C2022F40052C3F8D1
:1000A0009C20704700400E40030903EB830300F0DF
:1000B0000F0000EB4300C0B27047F8B50024055DA7
:1000C000682D00EB040305D15D7A002405F10A07D1
:1000D000264603E00134FF2CF1D11AE05FFA84FCDC
:1000E000BC4504F1010404D213F80C000644F6B236
:1000F000F4E7D85DB0420CD15819C07A162808D15F
:100100000C35158008462A46194601F035FA0120BB
:10011000F8BD0020F8BD0000F8B5037A932B074620
:1001200025D1002600220023B9197442887911498B
:1001300060546421A2FB014501FB0355FFF7B4FFA6
:10014000C0B20021221806F1FF3645EB0103B11DB4
:10015000EAD1094CD4E900018B4208BF82424FF03A
:10016000010005D0C4E90023044B1870F8BD00203D
:10017000F8BD00BF91B50020C0B7002090B50020A9
:1001800030B580000023084D5A420544CC18AA5CC3
:10019000647B3332D2B2944204D1013B1A1DF2D1B6
:1001A000002030BD012030BD541B040030B5C1B06B
:1001B00005460DF10200144601F0DEF9FE238DF82C
:1001C00000308DF80130064B9D42684604F1020173
:1001D00002D100F0C3FB01E000F00CFC41B030BDE7
:1001E000000001402DE9F0412B4C9DF81C10074602
:1001F0001E469DF8180068232370E3711123904672
:10020000237280000025254A0244631B525D01359C
:100210003332042D5A73F6D129B1AA21062220487F
:1002200001F0B3F907E01F4A0A44631A52795A7081
:1002300001398B1DF7D1301DC0B260720021CBB2E5
:10024000B34206D218F80120631833329A73013191
:10025000F5E7002319465D1C06F10E02DBB293425E
:1002600004D2E35C1944C9B22B46F4E734441623A4
:10027000E3730D4BA1739F420CBF0C4A0C4A064915
:10028000012313600B4B00F10C023846BDE8F0412E
:100290001A60FFF78BBF00BF90B40020541B04000E
:1002A00091B4002091B5002000040140A4B50020C5
:1002B00098B500209CB50020124B682210B51A702A
:1002C000DA7113221A72AA229A715A711A71DA70AB
:1002D0009A705A7000225A7210469C5C0949013289
:1002E00020440A2AC0B2F8D11623CB72064B88727A
:1002F00001221A60054B06480C22BDE810401A6026
:10030000FFF754BF90B4002098B500209CB50020A2
:100310000000014070B50023C25C682A00EB0304B2
:1003200005D1667A002306F10A001A4603E001337C
:10033000FF2BF1D12FE0DDB2854203F1010303D29F
:10034000655D2A44D2B2F6E7235C934223D1A31918
:10035000DB7A162B1FD10C368E421CD83920214651
:10036000FFF70EFF18B90D4B0120187070BD3A2031
:100370002146FFF705FF012510B900F0E9FF08E06D
:10038000074B08481D60084B214632461E60FFF7A8
:100390000DFF284670BD002070BD00BF08B00020D2
:1003A00098B50020000001409CB5002007B52F2320
:1003B0000021009301910A460B46FFF713FF03B09B
:1003C0005DF804FB07B538230A460021009301912C
:1003D0000223FFF707FF03B05DF804FB014B187819
:1003E000704700BF08B00020014B1878704700BF6D
:1003F00000B00020014BFF221A70704700B00020AF
:10040000014B00221A70704708B0002010B5044656
:1004100021462F20FFF7B4FE30B9207C3338C0B21C
:10042000BDE81040FFF740BEFF2010BD10B5C2B0C0
:100430000DF10602ADF8061002A9FFF73EFEF0B17D
:10044000104C2378013B032B02A805D8FFF764FE6C
:1004500060B10023237009E0FFF7D8FFFF2807D120
:1004600002A8BDF90610084A00F008FC012006E0C9
:10047000064B187000F022FC0028F1D0F6E742B0DD
:1004800010BD00BFA0B50020FEFFFF0000B000209F
:100490006846094B20F0070108228D4601B5D8694E
:1004A0009A64064B1A6812B11B68C0B29847BDE83F
:1004B00001408546704700BF0000014018B0002091
:1004C0006846094B20F0070108228D4601B5D8691E
:1004D0009A64064B1A6812B11B68C0B29847BDE80F
:1004E00001408546704700BF000401400CB0002069
:1004F000094B0A491A6888540132FF21B2FBF1F115
:10050000C1EB0121521A1A60054B01221A70054BEA
:1005100000221A60704700BFB8B70020B0B50020B5
:10052000B3B70020B4B70020094B0A491A688854B1
:100530000132FF21B2FBF1F1C1EB0121521A1A6025
:10054000054B01221A70054B00221A60704700BF4C
:10055000B0B60020B4B60020A8B50020ACB500208D
:10056000F7B504460D4600F0E5FC714BD3F8B0201A
:1005700042F00802C3F8B020A3F554239C423DD1B9
:10058000A3F5C0436B4E5A6822F0F0025A60DA6855
:1005900022F00202DA605A6822F00F025A60DA682A
:1005A00022F00102DA60644A5388002353801188E4
:1005B0001380624A1360624A1370624A13603368A0
:1005C00013B1DB690C209847336813B11B6A0C2008
:1005D0009847336813B1DB690D209847336813B12E
:1005E0001B6A0D209847584E0121304600F092FDBD
:1005F0000323736740F21F13B3673DE0534FBC42C0
:100600003AD1534B4B4E9A6B22F470429A63DA6B99
:1006100022F40062DA639A6B22F470229A63DA6B36
:1006200022F48052DA634B4A5388002353801188A6
:100630001380494A1360494A1370494A136033686A
:1006400013B1DB6914209847336813B11B6A142077
:100650009847336813B1DB6915209847336813B1A5
:100660001B6A152098473948012100F053FD0323E8
:100670007B6740F20663BB670023E3602360E365AA
:10068000A365314B9C420CBF41F2052341F20503A7
:10069000636000F031FDAD006B0803EB401001908A
:1006A000019BB3FBF5F50195019B203B0193019B59
:1006B000DB000193019A2B4B13400193236823F035
:1006C00060032360236843F060032360019B636140
:1006D0000023E364244BA3640423E3601A4B9C428D
:1006E0000ED1144A1368154613B11B6A0D209847A2
:1006F0002B68BBB19D691D4B01200D21002210E02C
:10070000124B9C420ED10B4A1368154613B11B6A5B
:10071000152098472B682BB19D69154B0120152199
:100720000022A8472046002100F0F4FC03B0F0BDF1
:1007300000400E4068B400201EB0002018B0002019
:100740001DB0002010B00020000001400004014056
:1007500000A0004022B200200CB000201CB00020FD
:1007600014B00020F8FF7F00F9FF0100FD0704002E
:10077000E90804001D4A136870B5064615460BB11A
:10078000DB6898471A4C236896B16BB91948012168
:1007900000F0C0FC012000F003FD174B5A6822F066
:1007A000F00242F040025A6023680133236017E0F0
:1007B00013B12368013B236024688CB90E4B5A683F
:1007C00022F0F00242F020025A60DA6842F002029F
:1007D0000120DA6000F0C8FC0648214600F09AFCCF
:1007E0002B680BB11B69984770BD00BF68B400202F
:1007F00010B000200000014000A00040684620F03A
:1008000007018D4619B5124A01239364114B59888B
:100810005888013189B259801888598880B289B2C4
:1008200088424FF0000407D05988C1F308010B44F7
:100830001B79DBB2536306E0074B20461C60FFF7D1
:1008400099FF064B1C70BDE819408546704700BFF4
:10085000000001401EB00020800920421DB0002091
:100860001D4A136870B5064615460BB1DB689847FC
:100870001A4C236896B16BB91948012100F04AFC63
:10088000012000F08DFC174B9A6B22F4704242F469
:1008900080429A6323680133236017E013B1236811
:1008A000013B236024688CB90E4B9A6B22F4704292
:1008B00042F400529A63DA6B42F400620120DA6378
:1008C00000F052FC0648214600F024FC2B680BB1D6
:1008D0001B69984770BD00BF68B4002014B00020A9
:1008E0000004014000A00040684620F007018D464A
:1008F00019B5124A01239364114B59885888013164
:1009000089B259801888598880B289B288424FF0DC
:10091000000407D05988C1F308010B441B79DBB2EE
:10092000536306E0074B20461C60FFF799FF064B18
:100930001C70BDE819408546704700BF00040140A7
:1009400022B20020808920421CB0002000F10470F7
:100950000C3040010123036070470000204AF8B5C5
:10096000136806460D4617460BB1DB6898471D4CC9
:1009700022886388D31A9BB2C3F50073AB4228D395
:100980002288638892B29BB271198E420ED0208861
:1009900016F801CBC0F30800204480F804C020887A
:1009A000B4F800C0013080B22080EEE79A4211D145
:1009B0000120FFF7DFFE0C4A012313606288C2F3B7
:1009C00008021444094A2179C9B25163084A1370D4
:1009D00000E000253B680BB11B6998472846F8BD2D
:1009E00068B400201EB000208009204200000140B1
:1009F0001DB00020204AF8B5136806460D4617467C
:100A00000BB1DB6898471D4C22886388D31A9BB2D0
:100A1000C3F50073AB4228D32288638892B29BB29D
:100A200071198E420ED0208816F801CBC0F3080051
:100A3000204480F804C02088B4F800C0013080B29F
:100A40002080EEE79A4211D10120FFF709FF0C4AFE
:100A5000012313606288C2F308021444094A217911
:100A6000C9B25163084A137000E000253B680BB11E
:100A70001B6998472846F8BD68B4002022B20020C0
:100A800080892042000401401CB0002070B5214C38
:100A9000236806460BB1DB6898471F4B1F481E6052
:100AA000012100F037FB1E4D23689EB12BB19E69DA
:100AB0001C4B01200C210022B04701232B601A4B54
:100AC0005A6822F00F0242F002025A60DA6842F0DD
:100AD00001020DE013B1DB690C20984700232B6065
:100AE000114B5A6822F00F025A60DA6822F00102B4
:100AF0000A48DA60C36908238364002100F00AFB16
:100B0000236813B11B6A0C20984723680BB11B693B
:100B1000984770BD68B4002018B000200000014064
:100B2000880920429104040000A0004070B5214CC7
:100B3000236806460BB1DB6898471F4B1F481E60B1
:100B4000012100F0E7FA1E4D23689EB12BB19E698A
:100B50001C4B012014210022B04701232B601A4BAB
:100B60009A6B22F4702242F400329A63DA6B42F4F8
:100B700080520DE013B1DB691420984700232B60ED
:100B8000114B9A6B22F470229A63DA6B22F4805232
:100B90000A48DA63C36908238364002100F0BAFAC3
:100BA000236813B11B6A1420984723680BB11B6993
:100BB000984770BD68B400200CB0002000040140CC
:100BC00088892042C104040000A00040044A002398
:100BD0001360044A1370044A1360044A1360704798
:100BE000B4B70020B3B70020B8B7002098B50020F4
:100BF000044A00231360044A1370044A1360044A31
:100C000013607047ACB50020A8B50020B0B6002036
:100C1000A4B50020154B984270B504460E46154603
:100C200002D1FFF7D3FF04E0114B984201D1FFF747
:100C3000DFFF204631462A46FFF792FC0B4B9C42D1
:100C400006D10C48FFF722FF0120FFF793FD08E0D3
:100C5000074B9C4205D10848FFF768FF0120FFF7CA
:100C6000FFFD2046BDE87040FFF770BE0000014068
:100C700000040140F1040400290504007FB50123AC
:100C80008DF814308DF815308DF812300023039351
:100C90008DF813304FF6FF73ADF81030064B8DE82A
:100CA000030022F07F421B680292DB696846984786
:100CB00007B05DF804FB00BF78B40020024B187841
:100CC000431E58425841704748B4002038B50A4B7B
:100CD00000241C70094B05461C60FFF791FBFFF7D1
:100CE00089FB074B1C7035B1214606481822BDE828
:100CF000384000F04ABC38BD26B400202CB4002097
:100D000048B4002030B4002010B5074B074C1870D1
:100D1000002360702370FFF773FB21460448BDE891
:100D20001040FFF74FBB00BF02B0002027B40020E7
:100D300000000140074B1A780023D8B2904207D236
:100D400005490133194411F8011C0029F5D100E0CF
:100D5000FF20704701B0002030B400202DE9F041A1
:100D6000FFF73CFB0746C0B1434B444D1B780124C1
:100D7000EC54434B1B782BB92046FFF7A7FF2C7090
:100D8000BDE8F0810020FFF7A1FFFFF7D3FFFF28A8
:100D900070D03C4B02221A7068E0DFF8E88098F8C7
:100DA0000050012D46461DD0374E384B3468022D79
:100DB00004F10104346046D0D3E900010F2200237E
:100DC00000F0ECFB30324FF0000543F10003A2428B
:100DD00073EB05014EDA2E4B37601F70012388F844
:100DE00000302BE0FFF700FBFF28044616D0244B11
:100DF0001A78824204D10020BDE8F041FFF766BFB7
:100E0000187010B92846FFF761FF214A00231370BC
:100E10001D4A136002233370204627E01A4B1A68DC
:100E20000132042A1A6025D919490A780232D2B24D
:100E3000022A0A70DFD81F60FFF7DCFA1548BDE808
:100E4000F041FFF7B3BAD3E900010322002300F019
:100E5000A5FB083294420DD90D4A13780133DBB259
:100E6000022B1370C7D8044B37601878BDE8F041E7
:100E7000FFF74ABFBDE8F08102B0002030B4002087
:100E800001B0002048B400202CB40020C0B70020DE
:100E900026B40020000001400C4A12F8303002EB6A
:100EA000C002302058430A4B5268034429B15968A4
:100EB000012000FA02F20A4305E05968012000FA15
:100EC00002F221EA02025A60704700BF481C040087
:100ED00008A00040012830B521D8114B13F830107C
:100EE00003EBC0003023594301F1804303F5204355
:100EF00042685D6890000F24844025EA04045C6029
:100F00005C68042505FA00F020435860054B0B444B
:100F10000120596800FA02F221EA02025A6030BD4B
:100F2000481C040008A00040012801D8FFF7B4BF06
:100F30007047000038B50B4B1D783DB100200146CD
:100F40001870FFF7A9FF0120014607E001242046A1
:100F500029461C70FFF7A0FF28462146BDE838400F
:100F6000FFF79ABF8FB500202DE9F04F494BDFF80E
:100F70007481186085B0044683684748474F484EDF
:100F8000484DDFF86491DFF864A1DFF864B14FF4F5
:100F900001719847A368C8F8000040F20321424855
:100FA0009847A368386040F2012140489847A368F9
:100FB000306040F201213E489847A36828604FF412
:100FC00000713C489847A368C9F8000040F201212D
:100FD00039489847A368CAF800004FF400713748B1
:100FE0009847A368CBF800004FF400713448984745
:100FF000344B4FF400711860A36833489847334A64
:10100000A36810604FF40071019231489847DFF8EF
:10101000E4C0A368CCF8000040F20121CDF808C07C
:101020002C4898472C4BA46818604FF40071039328
:101030002A48A04701462A48039B0160D8F80000CF
:10104000019ADDF808C0F8B13868E8B13068D8B165
:101050002868C8B1D9F80000B0B1DAF8000098B13A
:10106000DBF8000080B1106870B1DCF8000058B106
:10107000144802682AB11B682BB1081C18BF012054
:1010800002E0002000E0184600F0010005B0BDE8D5
:10109000F08F00BF5CB4002061F1030064B4002055
:1010A0006CB4002068B4002076D6CE7465C1F90215
:1010B000D51BDB774DC2130015FF4E01AFD613775A
:1010C00038230F004CB40020B830B90C70B40020A5
:1010D0006830B90C1808F20260B40020493BFD01E9
:1010E00058B4002078B4002074B4002050B400201C
:1010F0007CB4002054B40020044B0548D3F80C31D4
:10110000C3F308230133B0FBF3F0704700400E40F7
:1011100000F049020E4B98420AD103F55423D3F84C
:10112000C02011B142F008020EE022F008020BE0EC
:10113000084B98420AD1084BD3F8C02011B142F0B5
:10114000100201E022F01002C3F8C020704700BF77
:10115000000001400004014000400E40014B00220D
:101160001A60704780B4002038B50B4C23680546E0
:101170000BB1DB689847094B1A6822EA0500186032
:10118000186818B923680BB15B69984723680BB1DD
:101190001B69984738BD00BF68B4002080B40020A8
:1011A00038B50A4C236805460BB1DB689847084BF5
:1011B0001A6845EA02001860236813B15B690120D0
:1011C000984723680BB11B69984738BD68B4002065
:1011D00080B4002010B5044C23781BB9FFF7BEFF84
:1011E00001232370012010BD84B40020436870B532
:1011F0000646A3B10B4B84680B4AD3E900010023D8
:1012000000F0CCF900259D4208BF944207D0FFF7BB
:1012100091FE3068B188FFF77DF8002070BD012095
:1012200070BD00BFC0B70020A08601000A4B1B782C
:1012300007B56BB1036800938388ADF804300821CB
:1012400083798DF8063068464AF69C52FFF716FD02
:1012500003B05DF804FB00BF8CB400200120FFF751
:1012600035BD0000264B1B7810B503F0FF0483B199
:10127000244B1A68824207D3234B24481988FFF76E
:10128000D5F8FFF7A3FC38E01A68214801321A604C
:1012900010BD204B1A6882B301328A4201D81A600D
:1012A0002BE01C601C4C2378013B032B25D8DFE886
:1012B00003F0020A121A19484FF416610022FFF7D0
:1012C000A9FC022316E015484FF496510022FFF7BF
:1012D000A1FC03230EE011484FF416510022FFF742
:1012E00099FC042306E00D484FF496610022FFF7B5
:1012F00091FC01232370FEF7DFFF094810BD00BFFA
:10130000B3B70020B4B70020B8B70020B0B50020B4
:101310008038010098B50020A0B5002000000140F1
:1013200020A10700094A08B51368013313600A2297
:10133000B3FBF2F102FB11330BB9FFF70FFD0120F4
:101340000321BDE80840FFF78DBF00BF88B400202F
:10135000074B1A7822B100221A700648162103E0C2
:10136000012205481A7028214AF69C52FFF786BCD4
:101370008CB40020581C04006E1C04002DE9FF41B1
:10138000314E336851201B6B984708B1002057E05D
:1013900033682E4F5B6902A8D7E90045984728B902
:1013A000336803A8DB69984778B914E020462946DA
:1013B000274AD6F80080002300F0F0F8D8F818305B
:1013C000104698470028EBD010E01F4B21481B68BF
:1013D0001B6A984750B933680DF107005B6A98475C
:1013E00030B1194B1B6802209B6A98470028CDD169
:1013F000D7E90001164A3468002300F0CFF8A3694A
:10140000154C10469847154B15491B6815489B68A5
:10141000FA22984733686FF001009B6D9847236864
:1014200011481B6898472368104C5B680E48984722
:1014300023680F485B6A984723681B689847012018
:1014400004B0BDE8F08100BF64B40020C0B7002044
:10145000A0860100C3B2A10078B4002068B40020C7
:1014600000127A0025130400ED1104006CB4002072
:101470002D12040038B50446FFF7ACFEFEF7E8FD78
:101480000020FFF727FD0120FFF724FD0020014683
:10149000FFF74AFD00210120FFF746FD2046FFF738
:1014A00063FD164CFFF7DAFE4FF416610022144874
:1014B000FFF7B0FB02232370FEF7FEFE1149002266
:1014C0000023C1E900230D4623784BB1D5E9002361
:1014D00052EA030104D10C480146FFF7C3FEF3E7CB
:1014E00000200121FFF720FDFFF748FF28B1012070
:1014F0000146BDE83840FFF717BD38BDA0B5002054
:1015000000000140C0B70020400D030038B51D4663
:10151000036804469847B0F5007F1ED31049114870
:10152000401A20F003000022824204D00E4BD35810
:101530008B500432F8E70D490D4B5B1A23F003037F
:1015400000229A4203D0002088500432F9E7204656
:10155000FFF790FF074B1B682B60002038BD00BFD2
:1015600000B0002008B00020981C040008B0002043
:10157000C8B8002004B0002010B50023934203D067
:10158000CC5CC4540133F9E710BD024403469342D6
:1015900002D003F8011BFAE77047000073B96AB97B
:1015A000002908BF0028BCBF00204FF00041C4BF85
:1015B0006FF000414FF0FF3000F03CB882B0EC46D5
:1015C0002DE9005000F006F8DDF804E002B00CBC94
:1015D000704700BF2DE97043069E14461D468046A5
:1015E000894600F029F804FB01F300FB0533A4FB56
:1015F00000451D44B8EB040469EB0505C6E9004548
:10160000BDE870832DE97043069E144680468946E6
:101610001D4600F05DF900FB05F504FB0153A0FB3E
:1016200004451D44B8EB040469EB0505C6E9004513
:10163000BDE87083704700BF00292DE9F00FC0F2AC
:101640009F800024002BC0F29680154606460F4668
:10165000002B3ED18A4257D9B2FA82F34BB1C3F183
:10166000200201FA03F720FA02F29D40174300FA24
:1016700003F6290CB7FBF1F2330C01FB127CA8B284
:1016800043EA0C4700FB02F3BB4209D97F1902F180
:10169000FF3C80F00181BB4240F2FE80023A2F44C1
:1016A000FF1AB7FBF1F3B6B201FB137146EA014131
:1016B00000FB03F0884208D9491903F1FF3780F095
:1016C000ED80884240F2EA80023B43EA0242002376
:1016D00003E08B420AD900231A461046194614B17A
:1016E000404261EB4101BDE8F00F7047B3FA83F867
:1016F000B8F1000F40F084808B4202D3824200F2A6
:10170000DE8000230122E8E712B90123B3FBF2F5E2
:10171000B5FA85F2002A39D17F1B280C1FFA85FC07
:101720000123B7FBF0F1320C00FB117742EA0747C7
:101730000CFB01F2BA4207D97F1901F1FF3802D23E
:10174000BA4200F2C1804146BF1AB7FBF0F2B6B20E
:1017500000FB127046EA00400CFB02FC844507D9EE
:10176000401902F1FF3702D2844500F2AB803A46BD
:1017700042EA0142B1E7E443524263EB430364E7C8
:10178000404261EB41014FF0FF345BE79540C2F10D
:10179000200327FA03F1280C26FA03F39740B1FB44
:1017A000F0F81F433B0C00FB18111FFA85FC43EABD
:1017B00001410CFB08F38B4206FA02F608D94919DD
:1017C00008F1FF3279D28B4277D9A8F10208294477
:1017D000C91AB1FBF0F3BFB200FB131147EA01478E
:1017E0000CFB03F2BA4207D97F1903F1FF3160D233
:1017F000BA425ED9023B2F44BF1A43EA084390E73E
:10180000C8F1200203FA08FC25FA02F343EA0C0CA3
:101810004FEA1C4921FA02F301FA08F720FA02F212
:10182000B3FBF9F1174309FB11333A0C1FFA8CFB98
:1018300042EA03430BFB01FA9A4505FA08F008D97E
:1018400013EB0C0301F1FF3235D29A4533D902393B
:101850006344CAEB0303B3FBF9F209FB1233BFB2D3
:1018600047EA03470BFB02F9B94508D917EB0C0708
:1018700002F1FF331BD2B94519D9023A674442EA53
:101880000145A5FB0001C9EB07078F424FF000039C
:101890000AD305D02A4620E7624601E73B4614E713
:1018A00006FA08F68642F5D26A1E002315E71A46A4
:1018B000E5E70B46A0E71146CBE7904688E74346AD
:1018C00042460AE7023A53E702392F443CE700BF99
:1018D0002DE9F00F144605460E46002B43D18A42EF
:1018E00053D9B2FA82F757B1C7F1200620FA06F6AB
:1018F00001FA07F302FA07F41E4300FA07F5210C78
:10190000B6FBF1F22B0C01FB1267A0B243EA0746CB
:1019100000FB02F3B34209D9361902F1FF3780F018
:10192000F680B34240F2F380023A2644F61AB6FB40
:10193000F1F3ADB201FB136145EA014100FB03F095
:10194000884208D9091903F1FF3680F0E280884205
:1019500040F2DF80023B43EA024200231046194670
:10196000BDE8F00F70478B424AD8B3FA83F6002ED9
:101970004DD18B4202D3824200F2D6800023012255
:1019800010461946BDE8F00F704712B90124B4FBA8
:10199000F2F4B4FA84F2002A7CD1091B260CA7B217
:1019A0000123B1FBF6F02A0C06FB101142EA0141BB
:1019B00007FB00F28A4207D9091900F1FF3C02D265
:1019C0008A4200F2C3806046891AB1FBF6F2ADB2DA
:1019D00006FB121145EA014507FB02F7AF4208D9A1
:1019E0002C1902F1FF3180F09680A74240F29380DB
:1019F000023A42EA004210461946BDE8F00F70472D
:101A000000231A4610461946BDE8F00F7047C6F18C
:101A1000200522FA05F4B3401C434FEA144821FA8A
:101A200005F301FA06F720FA05F5B3FBF8FC2F439E
:101A300008FB1C333D0C1FFA84FA45EA03430AFBFA
:101A40000CF9994502FA06FB04D91B190CF1FF3277
:101A50006DD39446C9EB0303B3FBF8F508FB1533CC
:101A6000BFB247EA03470AFB05F8B84504D93F1956
:101A700005F1FF3361D31D4645EA0C4CACFB0B234B
:101A8000C8EB07079F424FF0000549D345D0624697
:101A90002B4663E79440C2F1200321FA03FC260C95
:101AA00020FA03F301FA02F5BCFBF6F843EA05015C
:101AB0000B0C06FB18CCA7B243EA0C4C07FB08F34F
:101AC000634500FA02F509D91CEB040C08F1FF325A
:101AD0003AD2634538D9A8F10208A444C3EB0C0CF0
:101AE000BCFBF6F389B206FB13CC41EA0C4107FBC1
:101AF00003F28A4207D9091903F1FF3022D28A4240
:101B000020D9023B2144891A43EA084349E73A466F
:101B10000CE733461FE70A466BE7B0409042B6D267
:101B20000CF1FF32002319E73346324616E7994598
:101B30008FD9ACF1020C23448CE7B8459BD9023D08
:101B4000274499E70346DEE79046C7E70238214479
:101B50003AE700BF20010101200102012001010F2D
:101B60002001020F20010B0120010B1020020001B7
:101B700020020102200201032002200420030B01A5
:101B800020030B0220030B0320030B0420030B058F
:101B900020030B0620030B0720030B0820030B096F
:101BA00020030B0A20030B0B20030B0C20030B0D4F
:101BB00020030B0E20030B0F20030B1020030B112F
:101BC00020030B1220030B1320030B1420030B150F
:101BD0000001FF000280010404000401040001016F
:101BE0000203000000000001000B000100000000E3
:101BF00000000000000000000000000004091001C7
:101C00000409110102800102009002000280010615
:101C10000400010202800103040010090280000296
:101C20003C2300000405010002800106048000013D
:101C3000040005030280011341434B4445454545DB
:101C40004545454634333339020000000A000000A0
:101C5000020000000B0000006465627567206D7370
:101C600067207475726E206F6666200D0A006465C9
:101C7000627567206D736720616E642062656163C1
:101C80006F6E207278207475726E206F6E200D0A50
:081C900000000000000000004C
:081C9800FFFFFF00C8B80020A7
:0400000340000000B9
:00000001FF
