:020000040000fa
:10000000e8ff0020090400007104000071040000f2
:10001000710400007104000071040000710400000c
:1000200071040000710400007104000071040000fc
:1000300071040000710400007104000071040000ec
:1000400071040000710400007104000071040000dc
:1004000006000000000000001049086800281bd00a
:100410000f4a90470d490868002815d00d4a012061
:1004200010600d4a11600d49012008600c4a00203f
:100430001060082008600b4a10684008fcd2054a8a
:10044000002010600848004708480047fc41e00fc2
:10045000ef05000008000e4010000e400c000e409a
:1004600018000e401c000e40710400009d040000a6
:10047000bff34f8f054906480860bff34f8f05490a
:1004800005480860bff34f8ffee7000000500e40a4
:10049000444400000ced00e00400fa0500b5444ab5
:1004a0004448801a91b020f0030000231446834290
:1004b000414a03d0d158e1500433f8e73f4940485e
:1004c000401a134420f003000022824203d000248b
:1004d0008c500432f9e73b493b4c641a24f0030486
:1004e0000022a24203d0985888500432f9e7374ad4
:1004f0003749891a21f0030100238b4207d00020dd
:10050000d0500433f9e7d3f89020940705d4314b49
:10051000d3f84021d501fad4f5e72f4a5468516841
:1005200021f0407141f0807151602c4a1d69d2f870
:10053000b0201a6101f0dafc01f030fc00f056f84e
:1005400000f09cfb00f06cfe00f098f908b100f0a0
:1005500085fa204bd3f84021d001fad4d3f890206b
:100560009107f6d51d611b4bd3f84021d201fad477
:10057000d3f890309b07f6d5174b01215c60684695
:1005800000f050fc009801a900f0fafb20b9039b91
:10059000134843f001039847bff34f8f114a124ba2
:1005a000d16801f4e0610b43d360bff34f8ffee7e6
:1005b0000000002020010020f02200002001002087
:1005c0002802002000040020080400200c04002061
:1005d0005827002000400e4000000e40b081e00f80
:1005e0009021000000ed00e00400fa05704770471c
:1005f0000020704703207047032070470320704796
:100600000020704703207047054b5a6842f01002e3
:100610005a6003f5a04344f244421a60704700bf99
:1006200000000e4010b500231a464ff0ff31c45ca5
:100630008c4218bf00220132042a04d00133102b4f
:1006400003d02146f3e7002010bd012010bd0000bb
:1006500008b501f071f8bff34f8f054a054bd1681b
:1006600001f4e0610b43d360bff34f8ffee700bf9f
:1006700000ed00e00400fa051fb5436a994202d379
:100680004ff0ff301ee0c269531c1ad0036b994231
:1006900004d2013b591a8369585c13e0cb1a0b4909
:1006a00000208de803000a49013a0868d21a0df1ca
:1006b0000f01012300f0e1fb0028e1d19df80f00bc
:1006c00000e0002005b05df804fb00bfa08601003b
:1006d0006414002038b5026a836a9a42044602d341
:1006e0004ff0ff3038bdc36a0f2b11d90c48616938
:1006f000102200f0e3fd05460028f1d11023206907
:100700000749224601f00cfc6369e562103363611e
:10071000236a01332362e36a5a1ce262e05c38bd5b
:1007200058170020f7b5134b134e05461446002208
:100730008de80c0030682a4623460f4600f00cfc7a
:1007400008b1002013e00d4b0090019330680c4974
:100750003a46234600f091fb0028f2d1284608498a
:10076000224601f0b5fcd0f1010038bf002003b0f3
:10077000f0bd00bf20a1070064140020a086010086
:1007800058170020c369013310b5044616d0036b17
:100790008269581c2063d154626b236b93420dd342
:1007a000a069e169fff7beff10b9a36b0133a36332
:1007b000e269636b1344e36100232363636a0133db
:1007c0006362002010bd0000f0b51e46244b9fb0b0
:1007d00007460c4618686946154600f0d1fa20b164
:1007e0006b1c36d14ff480530493049b1d4914971e
:1007f000b3f5805f84bf4ff4805304931a4b139377
:100800001a4b1593236819934ff0ff3300221a9364
:10081000049b179218921b921c931d92144b154a1d
:1008200016950fa801f0f4f9134a1d9b116819449d
:10083000116080b91b9820b10fa8ff21fff7a2ff1c
:10084000f8e7189ab24208d8169b013306d0226006
:1008500004e0082002e0052000e006201fb0f0bd03
:100860006414002085070000241400201c040020cc
:1008700079060000d50600001c1400202de9f04f79
:10088000544b554a554e1360803391b03360544bee
:1008900000220df113001a6000f02afc002840f03d
:1008a00095809df813305a1e012a40f28f80052b47
:1008b00000f08c8009a800f0d9fe002840f0868066
:1008c0000d9b002b40f082800e9c621c7ed1fff7b6
:1008d0009bfe9df81330032b08bf022002d0042b8f
:1008e00002d10320fff7b4fe3e4b3f4f3f4d202186
:1008f00019600b9ba3f1300038603d483022026044
:100900002a603c4a402010603b4a3c48403b136010
:10091000102200f0d3fc002858d12d68d7f800a091
:10092000d6f800900395054609eb451000f054fffa
:10093000baf5805fddf80cb094bf0027012756465a
:100940005eb1b6f5805f34bfb0464ff480582c4896
:100950005946424600f0b2fc58b105a8274910227a
:1009600001f0b6fb002808bf2c4601351c2ddbd159
:1009700011e0b6eb0806c34402d1022f08bf0327db
:100980000197cdf80080002005a910221c4b01f032
:1009900007fa0227d4e7631c10d009eb4419484634
:1009a000fff740fe40b109f11000fff73bfe0028c1
:1009b00008bf4ff0ff3401e04ff0ff34114b1c60d3
:1009c000013408bf04208dd0012000e0002011b0c8
:1009d000bde8f08f003800000c04002070140020e7
:1009e0001c14002068140020741400206c140020d3
:1009f00010040020140400201804002054140020c7
:100a0000581700202014002070b5124e94b00546ef
:100a100001243068039405a900f0b2f9a8b9b5b172
:100a20000a9b0490013d5b421d40049bab424ff08a
:100a300001000dd8084b03900093306804a903aa65
:100a4000002300f0e0fa0028efd0002000e020466c
:100a500014b070bd6414002040420f002de9f04f27
:100a6000734b74481968c3b0102200f027fc0028ab
:100a700040f0db80704b71481968714b6d4a1b6800
:100a800003eb4111103100f092fe6e4bd3f8008061
:100a90006d4b1e68002e44d003a84146102208f179
:100aa000100900f00bfc002837d10f2e37d9049b1a
:100ab00003f11002964232d3069a002a2fd15f4ddd
:100ac00002930fcd18ac0fc40fcd0fc495e80f00e3
:100ad00084e80f005d4c0398206024a900f050f9d1
:100ae000002835d133a8259f00f0c0fd60bb9df8dc
:100af000e430f3b1484602a94ff0ff323b46fff71e
:100b000063fe834670b92368dff840a1013300f02b
:100b100087803846fff778fff0b9082002e0072009
:100b200000e030464a4b1b68002b18bf0120fff73e
:100b30008ffd9df8ca30022bdcd1359b203fff1a78
:100b4000299b5a421740d5e74ff0ff332360d1e786
:100b50004ff0ff372760cde718ad0fcd374c0fc4ee
:100b60000fcd0fc495e80f0084e80f00484602a996
:100b70005a463b46fff728fe0028d3d19df8c930de
:100b8000002b4dd011a800f071fd139bdaf8000086
:100b90000990203b0793bdf85030adf820309df808
:100ba00052308df822309df853308df823309df867
:100bb00014308df828309df815308df829309df8c7
:100bc00016308df82a309df817308df82b3033a968
:100bd000029b0b9300f0d4f810bb349b232b1fd93e
:100be0001c4bdaf8000001228de80c000ca9102241
:100bf000142300f042f998b90cab11aa934204d225
:100c000013f8012bff2af8d00ae009d107a8102118
:100c10001422fff787fd18b90d4b1a6801321a60cc
:100c2000049b10339844f61a34e743b0bde8f08fc4
:100c30001004002078140020201400202414002028
:100c400070140020140400201804002064140020f4
:100c50001c140020a0860100074b014603f180020e
:100c600018469b688b4205d000f110039342f7d1e0
:100c70004ff0ff30704700bf0038000010b501f0a2
:100c8000e3f90446fff7b4fc002c18bf204610bd62
:100c9000e0b51d460f461646fff7deff431c0fd09a
:100ca000436872199a420dd8c368016813f0020fa5
:100cb0000ad1384631442a46bde8e04001f0d0b9b7
:100cc0000520e0bd0420e0bd384631442a46fff748
:100cd00091fce0bd70b51d460c461646fff7bcff03
:100ce000431c0fd0436862199a420dd8c36800684c
:100cf00013f0020f0ad1204431462a46bde8704065
:100d000001f016ba052070bd042070bd20443146a4
:100d10002a46fff771fc70bd73b50e461546fff706
:100d20009bff326803681344421c0446019308d0b9
:100d30004db1c3689b070dd401a8294601f0f0f915
:100d400002e0052000e004202268019b9b1a33602a
:100d500002b070bd01a82946fff750fcf4e708b5c2
:100d6000fff77aff421c05d0c3689b0704d5fff745
:100d700047fc08bd002008bdbde8084001f07ab975
:100d8000f0b58db00c46fff767ff421c054606d054
:100d9000c3689b0705d501a8fff734fc04e00520d4
:100da00026e001a801f068f9ab6823606b68636016
:100db0002b68a360074601ae04f10c030df12c0c67
:100dc000324603ca624518605960164603f10803ab
:100dd000f6d110681860eb68c3f3400284f838203d
:100de00003f001029b0884f8392084f83a30384631
:100df0000db0f0bd30b50023094c04eb0314dab29a
:100e0000a468651c09d00d78954288bf40f823403e
:100e100001330132082bd2b2eed10a7030bd00bfcf
:100e200000380000f0b599b008238df803304ff07a
:100e3000ff33036005460f4601a80df10301fff7dc
:100e4000d9ff00249df80330e6b2b34212d918aba3
:100e500003eb860609a956f85c0cfff791ff38b939
:100e60009df85e30bb4203d156f85c3c2b6002e03b
:100e70000134e7e7012019b0f0bd2de9f04f91b042
:100e8000894601a9804692469b46fff779ffe8b95b
:100e90009df868600e9f1b9c0136bc4238bf3c46e3
:100ea000f6b24046494652465b46fff7f1fe05461c
:100eb00038b94046fff753ffe41b10b1002cf8d1be
:100ec0000625013e16f0ff06ebd1284611b0bde81d
:100ed000f08f000030b589b005460c46fff7bcfe28
:100ee000431c33d0c368d90701d401202fe0194b2c
:100ef00001228de80c00284603a910221423fff7d5
:100f0000bcff20bb039b002befd013f00f00ecd1f4
:100f1000059a0132e9d09df81850ff2de5d09df8d3
:100f20001910ff29e1d09df81a20ff2addd02033c7
:100f30002360bdf81030a3809df81230a3719df896
:100f40001b30e57121726272a37200e0052009b0c6
:100f500030bd00bfa08601002de9f04f95b00c46d2
:100f60001d4605a99df87830019092460393fff73e
:100f700007ff0746002842d1ddf848901f9b4b45ec
:100f800038bf4b460293002d39d0099bddf80c8009
:100f9000029ec3f1000c04ea0c0c9c442b1963451f
:100fa0008cbfc4eb0c0bab465b4601982146524606
:100fb000fff790fe034660b901980093fff7cffe5c
:100fc0004e45009b14d3c9eb060610b1002ef3d199
:100fd000062308f1ff32b8f1000f01d09046e3e795
:100fe00023b95c44da44cbeb0505cce71f4606e0a9
:100ff00000284ff000060cbf33460623e9e73846c9
:1010000015b0bde8f08f2de9f04790b0894601a9f1
:10101000804692461e46fff7b3fed0b90e9f189c3d
:101020000136bc4238bf3c46f6b2404649465246bd
:10103000fff772fe054638b94046fff790fee41b05
:1010400010b1002cf8d10625013e16f0ff06ecd1b8
:10105000284610b0bde8f087044a00231370044a04
:101060001360044a1360044a13707047a001002003
:10107000c001002020010020bc01002030b5174b2a
:1010800091b0186801a9fff77bfe28bb144a059ba5
:101090001360144b144c1b78144a02991bb10020a6
:1010a0002060116018e0039800f110030069002827
:1010b000f5d010f00f00f2d19d680135efd01d7b07
:1010c000ff2decd05d7bff2de9d09d7bff2de6d081
:1010d0001b692360cb1a136011b030bdc80100201a
:1010e000b8010020b401002094010020d0010020ac
:1010f0002de9f04f3f4e89b033780390002b6ed12d
:10110000052333703c4b1b78002b6ad13b4bdff837
:1011100004a13b4c0194012700971a68daf80000fb
:1011200004a91023fff7a9fe054600285ad1354827
:1011300004a9102200f0ccff08b102234de0dff833
:10114000d890dff8d88000970194daf80000d8f83a
:10115000002049461023fff790fe0546002841d1a4
:10116000d9f80040284ba4f140029a4201d8210747
:1011700001d0032331e0d8f800304ff6ff78c4ebfc
:10118000030b1f4bdaf8000020490022702c34bffb
:10119000274670278de80c005a463b46fff76dfe48
:1011a00088b9bb44e41b0346184a4046d15c02930d
:1011b00000f036fb029b0133bb428046f4d3002c87
:1011c000dfd1034601e04ff6ff73114ab9f80480fe
:1011d0001360434514bf04230623337002e0002547
:1011e00000e007253378039a2846137009b0bde85c
:1011f000f08f00bfb5010020a0010020c401002035
:10120000a086010041210000c0ff0f002401002042
:1012100098010020c8010020a40100209c010020aa
:1012200038b51d4c1d4d20460421fff7fbfd30b99c
:101230002368013303d01a4b01221a700ae0164cbe
:1012400002212046fff7eefd40b92368013305d0a7
:10125000134b1870fff712ff044618b105232b70cb
:10126000012416e00f4b104a1b6812680f491a44fc
:10127000a2f1100008600e49203a0a600d49d31a05
:101280000b60fff7e9fe0c4b04481c602c70fff765
:101290002fff204638bd00bfc8010020b501002047
:1012a000b401002094010020d0010020c4010020de
:1012b0009c010020cc010020980100202de9f3477b
:1012c000324b0c461b783249154606460a68894659
:1012d000002b52d12f49097806294ed12032944251
:1012e0004dd2121baa424ad3002848d01f2c31d815
:1012f0000093dff8b480284b284fdff8a8a0cdf882
:1013000004a01a68d8f8000039461023fff7b5fd8d
:10131000002837d18de80104214bd8f800001a6865
:1013200007f110011023fff7a8fd58bb4ff0004351
:10133000c4f12008a84528bfa846bb614ff0ff3381
:1013400030463919fb61424600f0d1fe4444c8ebf7
:1013500005054644adb1124b1a68d9f80030203a61
:10136000d21a104b00218de80a000f4b3146186845
:1013700022442b46fff781fd04e0072002e0042011
:1013800000e0284602b0bde8f08700bfa0010020c1
:10139000a4010020b5010020c40100202401002088
:1013a0009c010020a0860100c8010020f0b51a4d64
:1013b00095b0044605a92868fff7e2fc174b1a7898
:1013c000012a1e4624d0164b0a9a1f68154b1b682b
:1013d000524213400f3703931740039bbb420ed872
:1013e0000123049304b1a0470f4b0093286803a97d
:1013f00004aa0023fff707fe0028eed009e00b4bfc
:1014000000241c6001233370fff726fe204600e015
:10141000002015b0f0bd00bfc8010020b5010020bc
:10142000c40100209401002040420f0098010020d8
:101430006f2838b504460d4601d8012038bd030792
:10144000fbd1094b1b689842f7d81046fff7aeff57
:101450000028f2d1054b01221a70054b1860054b8c
:101460001c60054b1d7038bdd0010020a00100207c
:10147000c001002020010020bc0100202de9f04f18
:1014800015466d4a1c46137885b0064688461bb93a
:10149000fff7e2fd03230ee0684f3a689042ba4638
:1014a00003d0fff7d9fd0426c1e015f0030c05d0e9
:1014b000fff7d2fd052323700426b9e0702df7d87d
:1014c0005f4ad2f800b05845ebd8c0eb0b02aa42f5
:1014d000eed319b9fff7c0fd0723ece7012b6bd161
:1014e000584b0293c0f12009a94528bfa9461818f6
:1014f0004e444a46cdf80cc000f0f9fd1f2e3e6068
:10150000029bddf80cc003d884f800c066468fe06b
:1015100018464d490293102200f0dafd029b18b1e3
:10152000fff79afd06237ce01b69484a454fa3f16b
:1015300040019142f4d81907f2d1ba6932f0004261
:10154000eed1f9690131ebd120339b45e8d14ff061
:101550000043bb613e4bdff80cc11b78bb753d4bb4
:10156000dff804b11a703c4b0092cdf804c0196842
:10157000dbf80000cdf80cc03a461023fff7ecfc76
:10158000ddf80cc0002833d18de80110334bdbf8b7
:101590000000196810373a461023fff7ddfc38bb0e
:1015a00097e80f00dff8b8c08ce80f00224a02234a
:1015b0001370c9eb0505c84415b925702e4637e0f0
:1015c00041462a461f4800f092fd244b1968244bdf
:1015d0001b682039c91a234b00228de80c00224bce
:1015e000184a186831442b46fff7b6fc064608b186
:1015f000082316e0daf80030114a164f1d4413682c
:1016000038709d42caf8005011d1fff725fd3846c9
:101610003e70fff76dfd064610b93b78062b03d0f0
:1016200002232370012603e00123237000e02670cb
:10163000304605b0bde8f08fa0010020c0010020b9
:10164000200100202401002041210000c0ff0f00e4
:10165000bc010020b5010020c40100209c01002035
:10166000a401002020a10700c801002030b5164dbc
:10167000044691b0fff702fd2b682360134b1a68f4
:101680002032a2609a88a2819a79a2739a68226114
:10169000da68db79e3730e4b62611b7823760d4bbe
:1016a00001a91868fff76cfb10b14ff0ff3307e09a
:1016b0000a9b0d9a29681a44069bb1fbf3f3534326
:1016c000636011b030bd00bfd0010020a401002034
:1016d000b4010020c801002070b5134b88b00df193
:1016e0000f001d68fff704fd0446c8b99df80f30d0
:1016f000062b15d10d4b9a689ab10fcb08ae06e9af
:101700000f0032460a4b42f8084d0193094b0094f2
:10171000186805f108010423fff71efc044600e0e9
:101720000724204608b070bd9c010020a4010020c1
:1017300020a10700c801002070b50f4b1c680f4b9b
:10174000da680132054686b018bf072011d10fcbe9
:1017500006ae06e90f000a4b3246002142f8045d4e
:101760008de80a00074b04f10c0118680423fff709
:10177000f3fb06b070bd00bf9c010020a401002057
:1017800020a10700c801002010b50f230022cc5c67
:1017900042ea4402c254ca5c13f1ff334fead21248
:1017a000f5d21ab1c37b83f08703c37310bd30b584
:1017b000034601f1100451f8045b43f8045ba142b5
:1017c000f9d1103002f1100352f8041b40f8041b49
:1017d0009a42f9d130bd000030b50d4c0d4d85b0a9
:1017e00001462a462046fff7e2ff29460a4d6a468f
:1017f0001023204600f094fb284604f12001fff757
:10180000c3ff06482946fff7bfff05b030bd00bf44
:10181000f40100209c210000d4010020e4010020fc
:1018200040ba83b25940c1f303134b4083ea0333f8
:101830009bb2d8b283ea40107047f0b5036889b014
:10184000002500245c530235202dfad1944208da99
:1018500031f9145033f81560013623f8156001345e
:10186000f4e7b3f9004094422ed0002501245e191c
:10187000b6f90260d6eb440428d402351e2df6d109
:101880000025adf8025000ae2e445f190235b7f8be
:1018900002c077881c2d6744b780f4d1002393429f
:1018a00014da31f813606eb108ad36b205eb4606b6
:1018b000476836f8205c05f1010c2db226f820cce3
:1018c00027f815300133eae7002000e0204609b090
:1018d000f0bd70b5056904460e466369b34210da7f
:1018e000a36820689847002804da04f11800012151
:1018f00000f00cfc6369c2b29a400833154363617f
:10190000ebe7012025fa06f29b1b00fa06f6701e93
:1019100022616361284070bd2de9f84f04460a68d2
:101920000069636900268a4602f102083746b1461b
:10193000012523b300f00102b8f900c042ea090210
:1019400008f10201cceb0208b8454fea50000dda6d
:10195000636920615b1b03f00703d71b63613e448f
:10196000daf8043033f91600bde8f88f6744013b1c
:1019700066447f004fea420901358846d9e7d5f130
:10198000100b10d0a26820689047002804da04f1f8
:101990001800012100f0bafbc0b2bbf1080fb4bfc0
:1019a0005b460823c5e76ff00900bde8f88f00002b
:1019b0002de9f84304460f46904639462046fff786
:1019c000abff011e49dbff290adc6568002df4d05e
:1019d0002068c9b2a8470028efda0120bde8f883e3
:1019e000b1f5807f02d10020bde8f8836ff48073e9
:1019f000cb181c2b34dc204a32f913601f4a2046d6
:101a000032f91310fff765ff414606442046fff701
:101a100083ff051e28db1a4b33f91590194b20461e
:101a200033f91510fff755ff6368814493b9b5f595
:101a3000807fc2d1d7e709f1ff31e368206898477a
:101a4000011e14db94e80900c9b29847002806f18a
:101a5000ff36c2db002eeed1e9e70846bde8f88389
:101a60006ff00900bde8f8832846bde8f8836ff001
:101a70000a00bde8f88300bf842200004a2200006b
:101a8000ac210000e82100002de9f047adf5a86d7c
:101a900004ab009323ab01930cab0293052114ab71
:101aa00005460393fff715ff052100f201172846ad
:101ab000fff70fff042100f101082846fff709ff97
:101ac000b7f58f7f00f1040900f38880b8f11e0f8d
:101ad00000f3848000264e45b2ac0ada4b4b284610
:101ae000032133f916a0fff7f4fe013624f81a009b
:101af000f1e7122e07dc454b33f91630002224f8ab
:101b000013200136f5e7684621461322fff795febc
:101b1000002866d1064607eb08094e4534da284608
:101b20006946fff7f9fe00286cdb0f2803dc721c06
:101b300024f8160026e010280ad1002e54d0731e77
:101b40002846022134f913a0fff7c3fe03300de04d
:101b50001128284604d10321fff7bbfe033003e020
:101b60000721fff7b6fe0b304ff0000a32184a4546
:101b70003ddc04eb46060023834203d026f813a085
:101b80000133f9e71646c6e7b4f9003293b3684665
:101b900021463a46fff751fe002808d02ddb009b76
:101ba000b3f90020b3f9023013449f4225d102a8b3
:101bb00004eb47014246fff740fe002808d01fdb38
:101bc000029bb3f90020b3f902301344984517d1b2
:101bd0002846694602aafff7ebfe13e06ff0020009
:101be00010e06ff003000de06ff004000ae06ff00a
:101bf000050007e06ff0080004e06ff0060001e068
:101c00006ff007000df5a86dbde8f08724220000f5
:101c1000f0b5adf52f7d0190049307a80023029144
:101c200003920593069300f06bfa002840f0a18020
:101c3000012101a8fff74dfe0221044601a8fff78c
:101c400048fe00283cd105900690039b01989847d8
:101c5000061e01da022087e0039b01989847051ec3
:101c6000f8db039b01989847071ef3db039b019861
:101c700098470028eedb80b2ffb2adb2f6b247ea79
:101c8000002746ea0525ff43adb2bfb2bd4214d1dd
:101c9000029b0bb9002067e0002dfbd0039b01984d
:101ca0009847011ed6db029b0198c9b29847013db7
:101cb0000028adb2f0da012056e06ff0010053e0e9
:101cc00001284cd12e4b1b68002b42d02d4b2e4aa5
:101cd0001a602e4a5a602e4b2e4a1a602e4a5a60bb
:101ce00000231eaa082199520233b3f5907ff8d140
:101cf00000231eaa1a4402330921e02ba2f8201166
:101d0000f7d100230233322b05d0aeaa1a440721a3
:101d100022f8421cf6e700230233122b05d0aeaaac
:101d20001a44082122f8121cf6e716481ea94ff49f
:101d30009072fff782fd00231ea905225a5202333a
:101d40003c2bf9d11e221248fff777fd0c4b0022e5
:101d50001a6001a80b490e4afff72afe04e0022888
:101d600009d101a8fff790fe38b9002c3ff460af0d
:101d700003e0022001e04ff0ff300df52f7df0bdb4
:101d8000000400208814002098140020f41400207f
:101d90009014002034170020b81400207047000071
:101da0002de9f84f07464ff480709a4689469046d1
:101db0000a9d9df82cb000f01df9454801230360f1
:101dc000bff34f8f434e444c00233360736023684e
:101dd000736263687362a3687362e3687362bbf1e2
:101de000010f844638d817b92762676203e03b6861
:101df00023627b6863620023a362e3622ce00a46ed
:101e000016f8011b02f8011ccaeb06079f4202f1fb
:101e10000101f4d34db3314b03f1100753f8041b08
:101e2000da684a402b4943f8042cbb42c1f88020b1
:101e3000f4d105238b600b69264a9b07fbd4d2f8ab
:101e400080302362d2f880306362d2f88030a3629f
:101e5000d2f88030e362b24645b3102d34bf2b4632
:101e60001023ed1a1e495646c9e7bbf1000f02d0f8
:101e7000bbf1030fcfd1d3f110010ad0802313702f
:101e8000002301338b4202d00027d754f9e71549cc
:101e900000e015490023e718ca583869043380ea7e
:101ea000020e102bc7f810e0f5d1b4e7ccf80050c3
:101eb0004ff4807000f0b2f8454506d0631993f8ee
:101ec000203009f805300135f6e7bde8f88f00bf8e
:101ed0000016c84300000f40f40100200402002057
:101ee00005020020e4010020d401002007b50948c4
:101ef000fff772fc084b09499b6c1b0c00209b02ee
:101f00000093019004224ff00053fff749ff03b004
:101f10005df804fb9c210000b081e00f0804002064
:101f20002de9f04104464ff4807017461d460e46d9
:101f300000f060f82d4a01231360bff34f8f2c4b44
:101f4000002119602168596261685962a16859626b
:101f5000e16859629446002d3fd0254b2269c3f8b1
:101f60008020d4f81480c3f88080a169c3f8801061
:101f7000e269c3f880200520986020690130206163
:101f800040b908f10103636123b94b1ca3610bb98c
:101f90000132e261164b186910f00200fad1d3f851
:101fa00080202262d3f880206262d3f88020a2626f
:101fb000d3f88030e362102d34bf2b46102304f198
:101fc0002008ed1a18f80010325c4a403a540130eb
:101fd0009842f7d106440744bde7ccf800504ff4cf
:101fe0008070bde8f04100f019b800bf0016c8438a
:101ff00000000f4072b6074b1a6801321a60064a99
:102000001168084310601a68013a1a601b6803b926
:1020100062b67047541700202402002072b6084ba5
:102020001a6801321a60074a116821ea000010603c
:102030001a68013a1a601b6803b962b6704700bf9c
:102040005417002024020020044b41f671321a6418
:102050009a6822f001029a600020704700000e404a
:1020600010b5eff3108472b600f041f804b962b60f
:10207000002010bd00207047134a70b50346054686
:1020800002f12806144603ccb44218605960224677
:1020900003f10803f6d1206818600c4b9a6c596b59
:1020a0005b6b92b2090e1b0e92020a310a332a6050
:1020b00003f01f03012201f01f0102fa01f19a400f
:1020c0006960aa60002070bdc0220000b081e00fee
:1020d00030b50023934208d0c55c0133cc1814f806
:1020e000014ca542f6d0281b30bd002030bd10b5f4
:1020f0000023934203d0cc5cc4540133f9e710bdf4
:10210000ec46a0e8f05f4ff000007047b0e8f05fe9
:10211000e546080008bf0120704700bf000000002e
:1021200001b40248844601bc604700bf9100002012
:1021300001b40248844601bc604700bf0100002092
:1021400000534352319a933082d9eb0afc3121e398
:1021500037000000f1100000bd120000ad130000b8
:10216000311400007d1400006d160000d916000027
:10217000910c0000d50c0000190d00005f0d00004f
:10218000810d0000f50d0000250e0000d50e0000a9
:102190000600000070210000542100000000000033
:1021a000000000000000000000000000010002002c
:1021b000030004000500070009000d0011001900cc
:1021c00021003100410061008100c1000101810155
:1021d00001020103010401060108010c01100118ac
:1021e00001200130014001600000000000000000fb
:1021f00001000100020002000300030004000400cb
:10220000050005000600060007000700080008009a
:10221000090009000a000a000b000b000c000c006a
:102220000d000d0010001100120000000800070052
:10223000090006000a0005000b0004000c00030062
:102240000d0002000e0001000f0000000000000061
:10225000000000000000000000000100010001007b
:10226000010002000200020002000300030003005c
:10227000030004000400040004000500050005003c
:102280000500000003000400050006000700080028
:1022900009000a000b000d000f00110013001700c9
:1022a0001b001f0023002b0033003b0043005300a2
:1022b000630073008300a300c300e3000201000079
:1022c00000001000000800000008000004000000ea
:1022d00000000000000000000000000052000000ac
:1022e00002a00000ba880000020000000000000008
:1022f00040ea020313f00303f7b5064638d192080b
:10230000eff3108772b61d48846844f001048460be
:1023100093421a4c25d206eb8300c0f30a0c012528
:10232000ccf5006c20614fea9c0ce560d41aa44502
:1023300028bfa44663440024644501eb84000ed00a
:10234000006801900d4de8690007fbd50198a86170
:102350000820e860e869c007fcd40134ece70146d6
:10236000d6e7a36823f00103a3601fb962b601e0ba
:10237000042000e0002003b0f0bd00bf00000e40cc
:1023800070b58cb0044601a80d4600f039f80399e9
:1023900022684b1e13402ed1286800fb01260198ad
:1023a000864228d899421dd00433981850f8040c5e
:1023b0000130f7d0eff3108172b6104b9a6842f0fb
:1023c00001029a6022681a610122da600222da6050
:1023d000d8690a4ac007fbd4936823f001039360cd
:1023e00001b962b62268039b134423602b68013b4a
:1023f0002b60002000e004200cb070bd00000e40f7
:1024000001b40248844601bc604700bf7920000047
:0c241000010000000000000000000000bf
:020000040000fa
:10380000000000000040000008010010000000005f
:103810000040000000c00300080100000500000097
:103820000000040000f00300084c7583090000004c
:1038300000f0070000100000080000200c0000004d
:020000040000fa
:1038800021bbd37575030c0a64664b2496d661324e
:10389000634d84afe8e5b025a27b0fb1834c4da703
:1038a000396503c6b24ac4333c646d941c76033553
:1038b0009587f5f9e82bb22b3e3749e850e321f51f
:020000040006f4
:1017b00081c55a5af681c3e2772c0e08b977e2eb5d
:1017c000768f70e0dc22b195e3f41a14521316b54b
:1017d0000801000080c3010004003e00000000007a
:1017e000ffb1bbde38bd513af76053dea0762ec2a2
:1017f0009b7b85a10144cfa9b0df18aeee4a1d0b3b
:10180000d0fab800f05d6938f39745c3842a5fd0f9
:10181000ef71b66227cd1b879082ebb839c9d4d758
:10182000ec5bf8fbfb724db2798ea791e3fb63b2e0
:101830007548e3ca12ad2c2c67025b65c8e74e8c75
:10184000ec9f8c692bae5fbf5011d2e15f2bf54a44
:10185000f0b4c78142ec5b3fb3d0ab4204c7372042
:1018600018777ee0f7f7f9141a912ec7abc3bdb90c
:1018700025de9da8512c435b0e2188970d4346be63
:10188000bc8185ac9aaeee914c3005a34b8e925044
:1018900015f6831a12100faca487aed0a7375a8260
:1018a0004efccaa529cf6c4b547387f26aae054033
:1018b0001558731f298bb95f8cfd14e7c36e25582b
:1018c0000d0c03a13ee8dda3b69b1b01ec737795dd
:1018d000022510f0f82cd4af7d8d58a57fee0d3089
:1018e000254edcc13da9969491d625de69a7340525
:1018f0001ec0a1088ea351c42cf63e2341f394b020
:101900005f99539efb90afd610bdea26f0b832d156
:101910001c01a25da15ab72731f0e3ffeec478a6ff
:10192000d94074dc125cd59b9f0f15218f279159ec
:1019300086bd6f32c6f6218864b662bd540b4d2653
:10194000a26afb7b2ceb41ff7278bdf7a3395e5f87
:1019500005c7a16e0388fb54e033c8f7b04fd8d356
:10196000a3fbac870ceae91ddab5a1ec7db1559f6c
:1019700039ba579d172042211a0be82e51869670ce
:10198000d60ddb3a652ab32aac7048b1178255c927
:1019900018f80d59985b34a43d8b9ac27c59c15af2
:1019a000b889d50605b8993593046d3088707524cb
:1019b000e3bf8c167e668fa50c6bbc414414c2bf7e
:1019c0006fe397df82026f6ee80c76eb2bd5583110
:1019d00022fede7eca75743a9970dbaadbc32c7cca
:1019e000570659b6df85fba74a0c29563b104a100b
:1019f0000d5e4f809a8ed8ab27bce344684eaed9bb
:101a0000deb94c6e7178b12e3ee662fb7df758dc94
:101a100010b7b11711db812a95559f5bb900d17db5
:101a2000fd4f8de07518a87e277dd47cfeabcbecf6
:101a3000f13b0bfe8c3b477150fc320c29e67d7963
:101a4000e9dcc5f6d8a6a8bdd9e06f6552c6769880
:101a5000223a9c063ee656b37e24299167933dab1d
:101a60003164f091e2d9defdc71370504d777cf7f9
:101a70001f19df5271f8ab465b0f25708b1f6bbdd2
:101a8000bd8001c04960684bbe108bdb7336e9a98d
:101a9000fa0bc78d8010a835d21a5b90186f4cca0c
:101aa0009141d73277f514c517c0c00cb0fb353f54
:101ab000a4afb0556f10b0da6af4f60c01efa17361
:101ac000f94d2971ec3b6dca324cfc0bed6894a4c6
:101ad0005b97ea9d1b5a4218eb6e1ada34c39e4498
:101ae0005f99135e78dc7069774696dca896c3c868
:101af00058e2ba5a33731c36a892961efaffe28255
:101b0000eb50d74229590e8cd5771610236b3cae7b
:101b1000de0c244f6c732cd16f551d4acc11164529
:101b2000eafbd1d9e257a6bbc732a1bc1f44edda0c
:101b3000c0830085f1e6c4c65abee585f6fe541e94
:101b4000ac27c684a6287202b1fffb585e003cb0e9
:101b500045ea80ae0291a8868592b3449e92b7d2a0
:101b60002b156083a05b953f369a82a74518acf58c
:101b70002d92ca311167d77e5203447a2098202dc6
:101b80008bfa33d93631dfa34d78463700e75edf75
:101b9000ff66d82916e608a7713899e4f5c40798b6
:101ba000756e90947ecbd1e5f3ff33c875d5f90ef1
:101bb000021559e1a0f7e64f36f92c70e3911f2882
:101bc000c0130b5059bbad3134d369e25ae1e20086
:101bd000d6a388f1ff3d9a0b0946528ff9c2e2461f
:101be0000f9f9d9541391efb29f0ca719a0ccc4c70
:101bf000bcd8ace8fc8475cb5b37d17f430efcd6f8
:101c0000385dd361f8903a99268b966470361a5bea
:101c10003dfb73802ea52c0a9e0da20fd3dff3b6d9
:101c2000619775ee16a65e523c2f9d3c2a2f5115ea
:101c300026a16848c6bbafea644c9a841ea0d38f25
:101c4000acf0d60e343ae8d7a27280373fcaf53ae4
:101c500055e3ee72fbe985935df27796dc5968b344
:101c600014284a653f65c755db3136d7645394f66f
:101c7000955d95a00cb19f7ef719386f1cd6f1deeb
:101c80008271f07f512f7162d8021aa2425fc203a3
:101c90002deba14fa49751dbe153f3d1a6c542a789
:101ca00042396080d5488644282f0cc6d0b882b807
:101cb0001aa8c95f4c48b6a03dc6fe2aa03d815770
:101cc000259b66beac29029c2161684091df301cd7
:101cd000550b477a520ce33f7f9da801f9c3df2bd8
:101ce000b6261f81284c39c3f6f0e1d8f0fead3995
:101cf00080fe013b7891a713061c25f7ba590227ed
:101d000013e801b63b4e9a5c8ba20e8bd737fb676c
:101d1000c74160545d4cc4a4d388be8aa5067057e1
:101d20005e66a852b0bce32076611904b08b5a24d9
:101d30003344778e45d0646b291558cf243208d3ad
:101d40008e5ae368324597a425678e0ca5ee30e6df
:101d5000690f77173f73cabe473804e2304892a034
:101d6000ce5e454887f8b5a4b8089e201be925b883
:101d700071904e0fe4aecc3889aa77e7539872c0c1
:101d8000473e1f6b95f912af0205ecae8fc8eb0210
:101d9000ba1f22c86d3f39ed9abd8e4a56e6468479
:101da000951a5baed008f37f5f55ff1da004046455
:101db000e58558ddb0e5c59910dbe92a5726d0e066
:101dc000d7bf2c3c2a6cd6016f2558ac3a6d1767eb
:101dd000873ff62fda933ea7f7581bc741c9c39335
:101de0003e67750953e04b24b7b94c7a475b906561
:101df000d42affc160c9fcc58e605269472549fedf
:101e0000569081a45b9d3dabd2a88327e23969ed52
:101e1000f749bbd27f1efb10c5d73cba290f42db66
:101e200092a3eb7f41cdbff9155278b959811d0bb3
:101e30005219b4718eb4957d2cb7c92db7fdfe2b08
:101e40004c96a357d627dd34ff6fa33db6fb601534
:101e5000a08e460be3718d921f2df2bc6ca3ad1bbf
:101e6000f9bd7e754be888a0ce0678f4b22817d469
:101e70004457932561b17313810d0d4c465e265d69
:101e800072f3f01e9f2e510af8f93048c15623c252
:101e9000814245c0136118763bf05304247f4b4bbd
:101ea000f75c25639b5e645fd17e3550eec70245cb
:101eb000eed243e7faffa199e3721bfeb1f90a3ea5
:101ec00092a0de9b136109e38672eecc00f3c88e0c
:101ed00029f29623e8d193b45ba8357eb68815cf56
:101ee00028e704a27e53f98c9811aa1befa96f373b
:101ef00015aba6256cd81443cf64a7def22e0c5484
:101f00004c63ae3f0776e3682c22e8f7a29bd756d6
:101f1000de687a5514274c987b4fb2334b746cab08
:101f200046049b5b66b6e887924e3c3479bde5ea91
:101f30003c5ae2795513f242ca55391452134cd81f
:101f400083adf6a3c6c3fb82d3b579ba5a7c606d64
:101f50004bad05e2ba3dc23a7dfb984a8c9d9c3f51
:101f6000d98b5b7b9f0afa2a0baccca3e699e46c75
:101f7000d0197a322d43fd1269b1f6bf1844590fba
:101f8000fbb0d49c99640f65f27b780e6ffce67c05
:101f900090e7ab226da2a5a27494bcf81273570e01
:101fa0006665e7b569d7973ebe207ffebd7890e4b1
:101fb00047a49c0cf739acae1ee2d8f88dbeac0736
:101fc000d008bc0b91c3bc552b0c94b3432f70723b
:101fd0006980e0d93e656344f0b8a14c634adac732
:101fe000036308d930c14ba6d3255507a3e2a93412
:101ff0003df43ddf40b1b383d2d6e5cf40f9fcddff
:1020000045b8635b42fcd8a5bc309ccd0d05058c62
:10201000f1e53b2250ff0ec0bcc80419dbaa321206
:10202000c3b68f17e7c3454d8504e52042f0554000
:10203000a27edd5c6a633da4681a0fe4ebc68dcc1a
:1020400013baa248246ac5f070b9a0c06daf7f4d25
:102050008f67bace0f6eb30cae4c7b72d24be9a732
:102060001a42d5062a9465113499d737e379e9c124
:10207000240f0dc7e68080437bbcfbb1c0a81fc105
:1020800016c337774b7c406627d76ff55e12b2bb1d
:10209000d9d4c7279ba8c818bb550e5972e15ebe9c
:1020a0004052c9f2ff3ec33aef09116198b82a5075
:1020b00061adca878118c27b5b4e78f2fafaa377ca
:1020c000e31d7ca07e7c154f72f4dd23cd2a12aa7d
:1020d000549fae4b28b5b9d6ff60cfba119e9b086e
:1020e00006bf5a530a9e6212defef4eca1f073b9e9
:1020f00089cf3b4ab5fc021f16a89e2d31ebecaef2
:10210000cec98fd0ef248d1bd1375f8e6b9d069685
:102110005ae6e5b1de3772220601497e7381d0337b
:102120008170dfa896b20ace1e12c3e08cc8971544
:1021300049943fac6c617ce43db66a33ac805ea5eb
:10214000dbeb0b6af1b62dc81695c3dfc94e2dc661
:1021500014ff6c2eb9eb33b120ba8937fa06a5a566
:10216000ff81dd52c12e470cae4916cc3b5c2b964d
:10217000dee1a77ab7374310ff9dac2addbe516e72
:10218000af67c0e757f49406aa07f9322df64e97c9
:102190007f3cea15459701cecac091a13cd8d95fd2
:1021a0006704e705274836003d881277e97e021765
:1021b000b5e306bcdadf4d114647a20bbc198fa967
:1021c000c7d241e41166656e4ba1035dc5983960c5
:1021d00068efe110e1961f7cd1336c1f6f6dc44135
:1021e000ed15c2bbe91ad2e8df754864831c2ff4f1
:1021f000fcfb8c6f8f29fb51499b3226817137a5df
:10220000cec3d664d4c16232e69f858f04b134e375
:10221000e172960761d9621f6e866c38efb0de837b
:102220006c56bb28dcbcaa858251a96062a2f7e883
:10223000e637665e79361f699d0bd179743c1f5d68
:10224000290f21c8f4a9628032d22d7eef7001954a
:1022500004803544b0d38f310b3752f97b4b5f404c
:10226000b6eff71d9972c35861d70711c690771e54
:10227000c4cd486ce9e53d4c81d1ec6cbcc5e7169a
:10228000c4dcf0d4a5a7ad831fa54a39508534cf4f
:102290008a8b7614852464e843b54db1eabd91ed8f
:1022a000c1ddf0a909f46c153b3f8d0fd0fa794bd5
:1022b00023985b9b3d2948c720496a86f718bef3df
:1022c000d0bcbc407f91666cabeb26f801d1247c7e
:1022d00012b95b28c72f59871473432349ab774b37
:1022e000ae226988a012ea7451970baf4bb6d205a3
:1022f0009d8f737c90de34af73a13859a95f8d1f19
:10230000a35963bb8aee662f53891c216b9bb1ede9
:10231000c67cb21b2a0959abfd3c1fae81d3544a7f
:10232000bb795891620454b999f0b9ea6591a6b69f
:10233000e9af493c8b7e4453e9b15c7c2e6c98003c
:10234000aa38221b8646c4d5454636d8a83ec7744f
:102350001afed5008495a304c19c90a5b77b3d6768
:10236000df5fb779c2125b1dc68590e9fcca72d4e3
:102370001e1097822f07611b490591d97650432182
:10238000b419e3d0c2e9beaa352993a479210e9de0
:10239000d132d5ab105ac86538e182002d547893fc
:1023a0007b2fc790ad8c2924a434d3ed434d2a0c48
:1023b00078dd5b7fddf34a2d023eac699d72d0155e
:1023c00038de519a9dffa622626d20203cc40d7c10
:1023d00060f8c7aeea1d2b77998794d8b5be7eb258
:1023e0001e2612c36a09845c3b0938db18de3b3fba
:1023f000482d5b0f326ab6fcde695b5bbc3020d8cf
:10240000d40f40dfe9012a4e59dfaf49798ffbef46
:1024100026e9cf73b435d84a1ad3074bac9a8e3e0f
:10242000dc11db8f79a915603b3f9d42051d9d178f
:102430002244dfa86be24d781e2b3dab551c0e5b92
:102440007da4685a26406371167344a343e3ebefff
:10245000371fe639b8c7af027f529a70f1aba78831
:10246000b91bbe88f1f16b9fa7ba9d9c5e686f0790
:1024700029a494982fc9a5e04495b5bdf6bf18cb03
:1024800069a16eeeae4bcaf6107cb6f0e35d08d8db
:1024900032695827fe068b972761d894a4f9edb7c7
:1024a0008be3ca86205729b997aa337e9474ebd957
:1024b000b8779d9a847d5826e39c67b360b48e49b3
:1024c000d2bcf55324dda4c9c65c2d79bc5e4005a1
:1024d0000b6f207ed81e722b49ccfe6bb4434a9cf6
:1024e0000263c37f50184e828b760230b2e6428977
:1024f000ba464c27b1e921c12f1183ea415314eaae
:10250000fefe0616d57ab776a444bd11e450272105
:1025100062f8f8e1b0ca66be1116e2fffbf3c569c6
:102520007007bf0a00fe0b6a3b93961f465d6aaeba
:10253000630ef0c164501ccf4b1233ce81616cce60
:1025400004dc9e119e27360750e9806b1eb1917600
:10255000cb6b2ede69682dd96abe0ec0b3167680ad
:10256000703e8a7507985fd19316a4ffe849fef77d
:102570001adf27e4f325c45f94a00edc5a17837892
:1025800091f532f4d1746fcc26dbf2715b789aec62
:102590001a0d1e3977e508367d26eaf8e4c2ed13f8
:1025a00016a4c8945087233b12bd1b9521a20b860d
:1025b000439de380c9969f132ca09a9535f271b87c
:1025c0006e3c9b1524e5e292676e963247a12e631e
:1025d00052d7b8271edf106c081cd802b210500565
:1025e00056bdd367e4554f38c03c4d1b2599a258c2
:1025f00094850d84790ccbab25b1d0a7581f0575f8
:10260000ae9dfb21d7a96b6d9239a08aaf7fcbf528
:10261000afa950662d8335ee4edb7b768328eca781
:10262000948f42adad4b77e3660e8a2c017bbe4a98
:1026300021c06aea8182cda4881ce11a8ec0a8abb1
:102640005c2c758cdbe072b2f0874af1deee4a1446
:1026500048ee1c79c15a0148ca82d1e6567af18cfb
:10266000d5d2966b7a1f63969acd78d4630b713f5f
:102670003fa1505b37f521b9edcb7d9c94495cdce3
:102680002a2d49f325bb25ddd73d4e0002b2a32fed
:102690006e3efd7a125522973a61edd1adc4a8f590
:1026a0002057dd4b1eec6a0a143f48238a1a014961
:1026b000aba4bbde3c03a01c106df7876232ecbdff
:1026c0006b6b010fde0fb90f33105b3e974fb0fd00
:1026d000d50a7b3ddb2d21641e11bd4ba8e726a446
:1026e000fda99dd3aed4751f258bdee2723b9a887f
:1026f0003986cfb273faf2455580135132f832342d
:102700002fe2b1ceac7996eb4991088dd800b90a89
:10271000c2210da1c6c96bca4f1a10f0cadfef8dd6
:10272000697dac22a6deca9236c67803799e7cfa11
:102730007e26e48487e883cf6622b4c6cc85116008
:1027400005c28c60a4b3b25ba32af974738698c8df
:102750005656c563465a210b61377ba216543e3e3e
:10276000579230c6f1153d5d4993be392867ecf5a7
:10277000450ac2e719882139a800f42db093a20eaa
:10278000e55a84e54fe6097c761ac29bbdde53e02c
:102790005df261879982530e55f982b01ef94e6140
:1027a00066443bd888a0a02dbf239032ba235ce1b9
:1027b000fa29f778944ccf0ff5435935aa92bd0703
:1027c00055913dda6091eaf41a748a278b126eef04
:1027d000e969f4ca45e6b0b85940fcce359521c048
:1027e0006890053f33a3f2f2799c4d61f5c6060a65
:1027f0005ba862804eef6d5cc3d9395557aaaad643
:102800000c3bbe11d4c7e2815558d9d138569d77bb
:10281000ff029d1ad12bc826cff7133a4e556906f1
:10282000195e39751b3141a4a0c25fce7872523651
:10283000d195923f2703f95938a786088b70c1e2da
:1028400027f0640539a71475b1db6c6318c6c0ced8
:10285000658cb115fe3c68ee67f9c43420e3902224
:10286000c1e75fd5261c433cb1885e95df9ef75dce
:10287000e16753a818e7fdb6f31aff73fb5d3f2a23
:102880001a3fa3dbb1f424a08471f5a08f443afd74
:102890008faee4237d6b4214c949a9ebbc08ff4706
:1028a0009ac8c2fd0ef8c2fb4990c4a4e8b35854bc
:1028b000456593ffcb6baa94212868926ea0face4f
:1028c00014a820efc43265f83bf0524e7023ce8f2f
:1028d00038f5ff653661c525307a787e9c326bcc41
:1028e0005804207d5e305824adaec17ae8c98425f5
:1028f0004ef85c1ca45c411cad27b6ae6920e355c4
:10290000c71c75cd9bc8dc0d3682451d8c4ff7d892
:1029100021bddc3c4d222ee5af0c8687d4e1dbc324
:10292000032507071896cd4ff6597277973e42e177
:102930007fd171d2b6d90a56e6381982d4ae7fadae
:1029400020e709e9de8d3533f6c378bb03edf29558
:10295000a3aab6643ad70e125971b804bbe5ecc508
:102960003344369d4c1b1db2c47115f2f29c7da3fd
:102970001dcd15add21d3a91385e8bae6d5f3370b3
:1029800008a60d85f138326c42d7e1479dd4b55e7b
:102990005b1d03ab642bbe04fbc10b040771dcb6eb
:1029a000f134ac26d4404d8fb926be67991fa427b9
:1029b000553d5b46f767df771a5c32e32a9c377038
:1029c00093435e9ca1eafd451b55366e5eb7695f79
:1029d000d13fdf400b0cbfc927af23f67d6c9e0ca7
:1029e000a917c8e7a18b0111f28c0d7739075a1886
:1029f0007c21989a97664010432377f66523d05b35
:102a0000dcd709f8f9eba8eb495532551efcd8d6ae
:102a1000bb82fe585fbf905fc265bbd39e3de96e2f
:102a20001507596e8c09332a50010f3f9300cc963d
:102a30005cbbac1ed4314a367cc8aefc9f78e899aa
:102a400055865c401b5e134d28ca898b62f16998dc
:102a5000c747fbe068275d6c5cfe9b042b8fd9dfca
:102a6000daaa1fcb5579184fd445731d759bec021c
:102a70003366e88aae8e9a2526b203f7725e4b0261
:102a80002a324af16794ecc41855a80d9ed51eb998
:102a9000d7a38c0df39ac141886989875c0dfb0c23
:102aa00095ce0f1c2d32ac7d1cc59fde10c885abaa
:102ab000fc168cd362e2361c2f69edc369755a2768
:102ac00061153ee83307aac43abdbc515092244a6e
:102ad00068d3a7671e35ed5d8e3fe3be9774145c27
:102ae000ce940c3b32f0850dd40206ecd6c19f3457
:102af000a63e61fe6c426144f64f4d3fd338dd3255
:102b000013d1bd048deaafb772a7c959c9203ea839
:102b1000582fbacccca5c481c49a44990879319b6a
:102b2000e31710c818779d8a3247dd97b78791d091
:102b3000daccaf820b6cb185e48c9053706c428818
:102b4000114f5aeb21b6ca811602059802db1d34db
:102b5000454df43ace16150ba95cb4dd6a255157e4
:102b6000dfbe019b74b15a297143fe1a4a7d6c7a0b
:102b7000b16fe6dea97cb5b6051fc0bc95eb03a519
:102b8000850eb963c872ed502ee10eb000510fbc36
:102b9000c71e1e5ec308150d1cbd22049f290723f6
:102ba000dcfca63c31d44710ffb63417358884a925
:102bb00089b2bc7c0039b67efbf8f5204d9047e821
:102bc000ed6838bf3cc8e72d97df43aa6b390b701f
:102bd0007a567f025df6155d099a07852f7ea2461b
:102be000e0aad5f0774b361107bce6d3b4f3b79c17
:102bf000ec7f3006e27251cdc79ed80f61c7eb4c17
:102c0000eb8f71fc407c4c08a9866a17d095f58d36
:102c1000d48aaa1f233ccdd415e23ed633b0ade60c
:102c20007f01fa982a92f58a553cc4c6437c7f9668
:102c30005f6d1f6b183c70e816438b1ca09683dbfe
:102c400016aa03d589ca6edfb15a09c6a78c6b577d
:102c500030caf05b50e9699ac52f896869e12c7e1a
:102c600020e81f00e8137d5e00bf6eca34ad63a08c
:102c700061f20823cded7fdf937e1db6dd64e5a212
:102c80005892b230a737106305a2f67ad250f77087
:102c900031c880c3a12164d3f19bf42a8aab56f1d9
:102ca0001efc3101089cac32ebe340e6cf5c3530d2
:102cb000b72ff9383676f60a58036042acc84b1382
:102cc000d19e18066dbf5d0f6614191dbe4920a662
:102cd000c8dea1c1d5fab4321ed4e6194f3076b79a
:102ce000349213bc388b5e1e15fdee9a03737c2064
:102cf000418f680c1f77aec1268feb93247d3a83fa
:102d000083f50a4ed163f3e1d0c6adb850ad63deb2
:102d1000cfb004850f12e850870a2aa1ab2d1f01fe
:102d200001237b416f7fb5812263ab08d07325748b
:102d3000f035ed057a53d771632f70bb3df7620311
:102d40001de54c49f35c7f19a6870e61dcb5c274a2
:102d50005b3f7255fb664665ba48f82d0641adea01
:102d6000061d4f4b3f53c9a6a19a3ff2fe9c60b38c
:102d7000c26948e524a6299d4a2188f07b6312b6e2
:102d80008b1b3b28f4fcbdb435681cdf521eed41a3
:102d90006ad4daf0fab5263668cb1716f0cf79aade
:102da000b4b5f01bad0cec49ae2fd81cbae15dfff9
:102db00038e48b49124b54585ee219656052f7d1e2
:102dc0005407e05cc24d1295cf11458a0cda16b15a
:102dd0006d38edf789346c133b92a8ecf77e77e9f8
:102de0005610da759930d005e00428238473579d76
:102df000f2ee4f057b1ed9f24ac116a7b8bde2d14b
:102e0000dcc6763893771c14d281768ed07b96649c
:102e10000a9150592c8ecc24e07d00eefc87f639c7
:102e200093323d5b38c404d4789c946ea5e35fe391
:102e30000c67637a0ab1ea46bd5e05db3b66d36088
:102e40003ba75230358eb1e5a8c41f3111554ed580
:102e5000757f4cf46f65a6f9f89006f0a18806cc52
:102e6000d61d4ff91f9278d6bc8d68994c0c43d86b
:102e7000fe4b2b52997646ebff2122c074ca90ed8f
:102e8000586b6bbe927158f441afdcb2d89177a702
:102e90008592e380c620c64c93401ba9bc62b07dde
:102ea0002d8480846fc35249f4e65ced5c1e128d64
:102eb00026a1be4e4d815189d9e9776af00ad2aa7e
:102ec00036c6114718eccea533f4f071abeb2cde0f
:102ed0001e59972ab92e5df468f717bc8b8823a476
:102ee00043f9d577fed15c966dbf090b8a51a19c41
:102ef000b79de68f1f0486eb89c417e483425dcf3c
:102f0000a319246839c4ec81681c88811372cc9998
:102f1000e142a1327bea7d5b2621c3eb493f85c8b4
:102f2000b20a2fbfd3966d5aef675a1f3987219a7d
:102f30001c7cf4789e772e3c0932b8d160302a3957
:102f40002035d64f55a8267e7f6c5391d71e45ef6e
:102f50004634f88664cd66557069507b3342a0e3f1
:102f6000eaf870b3c0502746528a4ca5be6adb11fe
:102f700096b0f9e9d4b1b53833be88a654412a5089
:102f800028421b33a7be470dcdcde1a11034833cb1
:102f9000310bf9dabe08a52e28fff1001afc0faba1
:102fa000de0d080bc1dcdb63e77bf60dae5ee6b938
:102fb000634ffa9a42029c7c0b2d35af97e4b168bf
:102fc00068d121c869589d7ef853e561eccbd9aa38
:102fd000bb5b6acd97ab23601555e44effab13a2e4
:102fe000039e2d809ab03d383413c6ebb5c5df483b
:102ff000d5295a6369b96f66be66f40102a66be90a
:10300000a91cf3467ba5c2aa3365f49871404c7a9b
:10301000377b2e92d7c67e8a3697a644d114b0c687
:10302000a0dda3e52e25a976b4238935b26b7843bc
:10303000528d3bb88bbaa847c1324e6878532a5f8d
:1030400042df4177a13348a6cd64a4cdbe68d770d6
:103050009dd910640906cbf35e9a6da27d6492ca75
:1030600074ae0fb762a7530cc147c6189b6ee4eb52
:10307000831f390788812e42eae7f6a2ca369aef03
:103080002c7bbe9c0c6e072aab4298acfd54dd6cc9
:1030900096450e44b096777b6cb6001608acec6f84
:1030a0007925b52686ca3e10686bd8574dbfc70e26
:1030b000f57ac310d227492ffb7d6d840df647dfcb
:1030c000a143b86ac138998774c29cb087b24b4398
:1030d000538460c498d4d929849063ada0caf9669a
:1030e0007023b0da8ead4833b5b8d1cfed585ec19c
:1030f000330fd2825109b5ffe06a05e8b10ebec0b8
:103100009164ed934821b9c8130a4085539ec65b6c
:1031100069c76bc271eab531f4d7fd4c5b428edef4
:103120006c4d3d99fe7c5ae7c179625fb9d62e920b
:10313000b606048532675b4a10e70f9fba6cc7e09a
:103140004a7c060d3607d53a41e6554c383f181ee5
:10315000f84f1812186f51eca2bfa491c42f2e2360
:10316000d13f9913f0cea31bad6b435fb26fa03676
:10317000a34b1469ce7524628ab555851893ce9eeb
:10318000e33fd68656de7f5a8d5031823d60e4a5fe
:10319000651bd1b085a6de9b0b43cf635c7f1d36dc
:1031a000112ba299ac59897a5084ee421226a33889
:1031b000baa8467e72edba23fae162b1ef2f3a87e0
:1031c000e7d259c82ce46fe092964f0040e5e7b390
:1031d000790227daf43f19632f4c4a86dee6d3835f
:1031e00017ac165ca4663fc320c4a3fe00b7c3dec1
:1031f000fff37ea9848e222a696026ccc5c525d41a
:10320000f469f080c9f2b393dda32eaaa2c6a50e7d
:103210009a7438956fc3c5502cf0da136c17cd2c07
:103220008f0498f722a8c67e690e7f36659fcc3d35
:1032300030626a4ab2c53daf6f23e1d4074315a09f
:103240003ede916492f74f47d9e9a693ef313313ed
:1032500065b2ff59ab593572c0ecc6ff6590fa8f65
:103260005f389f437588f259e9f046dbb5c94f5b7b
:103270008bcbd003b0610f963bbf14280e9cc7695f
:10328000fc629b9c5473f1259f06f118ae84ea8a78
:10329000167691b26ae892de4f7df09ae1574e853c
:1032a000837cdb4fe8be96d9d87cea316f45257721
:1032b000dedb9b499ea0c57707670f7c6d3c2fb373
:1032c000a4bd7af52fa18b8b0dbd7787a22976251a
:1032d0005b12ed1803c682c0e7c9b23cc042344a53
:1032e0003705a1d482d881e012426e850345e9b347
:1032f00009b072626913b79fff6fb60b939fc577d2
:10330000c64d9d84ff6db8f378f2a954bf3c109d63
:10331000f4ee86ab41a8f3269379a39151e39eb4d2
:10332000eca994f943bbd701f77c159651e9d784f2
:103330007cbde980ce345f3919c929f171d3ffa171
:103340003296c75a61576dca3ad529f71518c7770b
:1033500019e0edb333f66d95418d521175313fb2e1
:10336000044e7a62c6ab94f48ea673c097c3e6d1be
:103370008d9e661779bd326735b2d231535692446d
:1033800075144aafe62559e90587bb4dedfcab192d
:1033900065f5ddcab17cd44d5066829b3d960f9792
:1033a000cebb4a60506c3a0a0088aa1c994b4c006c
:1033b000a499a687a95b2cf9132994fd1d01b9a432
:1033c00039d87dc74162740c499626cc3ed55d85bf
:1033d000aa92468e031328a9c30e16c10f4245dcdc
:1033e000eff224bc5ebe67e4bfe62dbf1da019004e
:1033f000fd7061bc5010cadc6644c45b8ba9a5a7f4
:103400005df50a41e3b44d73225862ea05c16c5a76
:10341000f1d9de014a5ed5c4af12cb93321dc5d0bf
:10342000ab09b7c3986824bf52b3b7b1d0f999ab11
:103430008e7e285b4dc03f0647be9663472c18ed35
:10344000d804266eba3a532fb8cb46037dfcef74ee
:10345000414dd3d351b3efd777e6ec740289106caa
:10346000dc20cbf31762008c26ee0fd15add07ce9d
:10347000bae3bcdc17aeca107988cd3e578fb025b1
:10348000dee52e19af707b6e689a38142154adc1f9
:10349000a85d03d5ec9ee97bacff48a05e7bc6939c
:1034a00047cec36e06e9ec79626ff67f6cc4a4a2c6
:1034b000ec4715d449effddb8f6a4ee376edcffe86
:1034c000ea8d01ccce2df9a7d4be58cf52da229c7a
:1034d000ef4446009b58b533dd475f851d81738ff0
:1034e00058fc1ee007d99bf46db4bd2325f7977ee9
:1034f000d6162d4209120ef8df30ae241dc4a39358
:103500005db5bf5949c7b7d0b13e849bce775767e9
:1035100082ad4574b6028d55aed330a9c6ad44e137
:10352000b58bf12b2a36277d7a93f2605f7a0c6394
:10353000877ec582caa0a95f17306c39d5f4acde8e
:10354000ca66cf56bc2241e03f610cdfcf88e0f273
:1035500038d6fc92e5ca1fe4a74d067e18b44adab5
:103560004181b67d741c89ac14cf7d9a7cda49ea1e
:103570008b71855a50d5dec88d97c52b96fefc639e
:1035800002674d7735caf03d91e7b5f664e62b1e2c
:1035900027b44de29ea1339be4656396d7cb57bc1d
:1035a000749ff32c1d22f55d25513e12f06db85c21
:1035b000ed6d505e9ddc1a52db8171c8bd97a6dab5
:1035c000930974584724cdf9529682ec217cefdea2
:1035d0003cdca3ce44adee834e6b53e6e51783731c
:1035e00041ef687d0e8aa86d231ddf2fc6ca43fafe
:1035f00015a6f824e7a6c395d57bb84669f2e84737
:10360000dd424a1f1a2461e752411e2c00398d7198
:103610006883b85832368d43243e1abd539f2650d6
:1036200005a68a5670871ded4d2bd217a289c57e3f
:1036300007b3fbf7f74ad8a9ac37e507d004ab8f3f
:103640009206a76f6dcb8954246fd19f74f769469a
:10365000080e11470de343b02ad9f9296e237a9158
:103660002dd5074590ccf69d2fa9f04845aae5d960
:1036700012e728719bde3ebd4cf9fa5a8c241e1fbe
:1036800004afe837758d338c8d77bdf80c0d1b0cae
:103690000ee19957bd41264369834855660480e889
:1036a0001cd9e8e8f2695ca6cd099707813f0fe3d2
:1036b0009c80e5f89159409e2157915324ee7cef70
:1036c0002265784f6851f4796216e7fce1c93072df
:1036d0002c251db717f872a8fe0b54404a9f15966b
:1036e000c2827cc7a0d6d46537f6186912019784c8
:1036f000a6f5c180608c4afda42c5562856b3b48c1
:10370000e9c48aeeac5dc45f6cbfc21c4a669e30e1
:10371000f4c4f2bf8ae3399a84c682a14f0c3212f4
:103720004af266e05de6cfae2056efdabaf75263b2
:10373000165460b40f4edf5a64929e7c7fa54ed122
:10374000425d1d79134dbdffad8f04141bb11a5a94
:103750007d1c0ddb3f6cb8e6821ad5382612ae0808
:10376000869b1dac22e01d6aaf92e20ccb1248bcd6
:10377000179ffc734a142f220ee82aac8dac23b895
:103780005907d7de75becd31f944388f930f479c6a
:10379000d826d714c70095cb93e8f60b37d8925ba1
:1037a00029621ab81f360b0549567dae5d795a3c21
:1037b00000436fa6dfb8cafc847982c688c857a6c2
:1037c000c0abd8e38afe2a28dc507b6a63838292ee
:1037d000e5f65ec001a70d803e5d4e39d74dd17034
:1037e00062e44e699c367412bf75ac2915b8e2e7e5
:1037f000b2d7aca019da19ffa9aa056eed50da2ede
:1038000002ff7445e71684ac0d3e3cd7f6531057c3
:10381000b875b33066ab8c7d3d2a0618ae3441c313
:10382000dcf41f80f374154059b32bdf663660ea71
:10383000a06eb401a04cd2771488e37771bd8fbb22
:1038400029a7f4dc12a006083c1c41f9d328a69352
:103850000cab474048299fb019864ad32e9bf840ad
:10386000ab52d1fa102e53553702305bb16546e7a3
:103870006859f042ac6e74111477b277547884a909
:1038800039723bb12e86c45318a98cb2babb953f8e
:1038900098393f29641ce2b509118df3d60ad80284
:1038a000c35492db4e9dcd96afe436394bb8c47508
:1038b00000d2899bff1716dd67b2c53eb4f70b39fe
:1038c0006c9ad6d30d2d7cb0efc572dedabc07f052
:1038d000a4034a371713f3b524ff4ab7e39fcb6518
:1038e000379c5681df777b2d1c52e658e63880588e
:1038f000ceae96ee056183f3f9790041f5fcd06f09
:10390000f4dbcf650dd8142f1468e3c45f75fa811a
:10391000711958c5e5baea757c7ac64e491cbfe5ef
:103920004952c2617ecf4df060f21b442a31863f7e
:10393000699484d51b72daebae31d81ee16b3c1270
:10394000f219af513141790e3ea8420cab5de42b28
:10395000029d09220666a9eddd5a8e6f23f25ea94b
:10396000cd3d62a8d99a8345090c7a4181da054098
:10397000cce7dac7905c7bfe3948783e52fcbaf05f
:10398000bdb99850535b45decce167063821cf4581
:10399000413742cd05161624de05b03a7a407ef650
:1039a000c5a78c53df4b479ad69637132efd7b5015
:1039b00020e005bfc3fd61db9a798721888420ef71
:1039c0004e5d33662a4c7d816bcf563d528043aeaf
:1039d000f9253aaf214ee57b48c4f965aa6d86b555
:1039e00035ae10b7993bc5bad354b73d67ec917d5e
:1039f0004a9c0912686f917ded49b14a98a4fe5a1c
:103a0000aa135f061634ec89677a9a348b746c3e7d
:103a1000a3db95ee0db4d33e71ae66ae2a0878e016
:103a2000c664ce33269656602b2c63d8fef31be17a
:103a3000f2852369fc82ba145ac61c1a3c5aaa8b16
:103a40008e579b9fd589c556146c6a728b79d61890
:103a5000f5b88ee594bd228fa7c6636a0c89ab5278
:103a60009b8e06ef770c4cd3aba2f919f2ffd7620d
:103a7000d14e61661ad677a289da86a62dff730227
:103a800010d05592e2d67c13f3a80dc16c78cd51bd
:103a90003bf7974bf233972f27b7a851966e7229b1
:103aa00051a66551be20b13a1ab5d653443f281edf
:103ab00056948ec901d16536143d0c7e7094a038a1
:103ac00042b92515be46cb540f2a10d22d42d1c083
:103ad0009bf40f0e74f5d8e3b0e81254809c5f920b
:103ae0002ff568d19b21c2787abb975bb9347cf102
:103af000e7bea871c8574c2ee0178419027f0d5af3
:103b0000a2c9f0e9353c1adf48870322ef5aaba877
:103b100003b065141668eb05582ab29a7f1bbd796d
:103b2000a5c292dcfb52786c5ab77839b2f9e4ea54
:103b300071ac99be8ae73f214ed56d03e5a4398764
:103b4000ca5779f70944554cc128866105b4d26338
:103b500059658908bf455eaecd10f9b39faebd9bd8
:103b60005c3afc83af90a3ae81f50138c785e85677
:103b700022007b0374b85cf5da865929c2775aad06
:103b8000cf14aaaec0c47035f333b7c6f4619378ce
:103b9000c42d7397b5a967454c8a0201eb08e3363b
:103ba000387198393ff047f8231b33c7b9140930ef
:103bb0006ae9c790394ac439d121e0cffac0211649
:103bc000be9473ac94b337307282630180c1ae4b44
:103bd00017212310b31330fb9b06d194c3c54b8828
:103be0007163d68f2503c63ecb87af86f190c9653a
:103bf0005c39f5cf6e58f09be37e87be92e2d82aff
:103c00005d0facbc101dcee2c24aab0d16c9fd372c
:103c10008ccc3a54c33290e5eeb81abca7220a09fc
:103c200082d1dde08560348e68b4fcb7e5fccbe181
:103c30009cddba664ff54b6632258eca882fcad3f3
:103c400028ceb05f1c58e041c660985ce04291818c
:103c5000477b50f8ced3bdabcfe7149a336cb72770
:103c60003aac4c0d43175795d52433be16a1419558
:103c70008186d2436f904acb0e9844f48f1055ac96
:103c8000e5b86a1fc3bb934d7b454b7ab2772d31a4
:103c900075923677182286b88ddb1b2edae69e6e7b
:103ca000047a29542e0c9b740c19cc8c7b055ce295
:103cb000b8c232efc1bbafd9cb6ba1d5a87fe41a94
:103cc0000f53c38a503d54e54755a32de2f271b11d
:103cd000401657fc0dbb657a4e95f18aed5353752e
:103ce000bf1ae02c357bab190114f9337d052aaee0
:103cf000223c7308165f14a1c404f28d7db02b3ae8
:103d0000b50f8ea1b903fec708ff52124a9d87abbb
:103d100090495b8361847126ff84f8a629702a513b
:103d20001f57761293fedb6418f0af828a8f1f1f35
:103d30002d3cefd748f3901ffb2acd2c596ac82f92
:103d400063475cd6317847f86af12dbb44c93e67ba
:103d5000fb6cfd86cbd344149091a7db5a42edd97e
:103d6000cd4185b24b3dfb3618db691ddf7006b4d3
:103d70006faddc4ba8a131cc2a13c0547b5a53ba87
:103d80000134c8accef145065ac63b83d28feeb49f
:103d90008cfb2246814a65fe97c9f1e491ed38ca51
:103da00006df1d1cdfda6ad736e0ed5c6ee224cc5c
:103db0008f98a2fd60a277987a5465fb21c3f1d158
:103dc000f7324e2fc120f936a358e19c4d300f62d7
:103dd000218760c7416d7b8ff2823dd801a2020826
:103de000b0a8f07aa854f0dd59e7a8e9fb2d71508e
:103df0006623a2b638a9139df4e5968a3579a18683
:103e0000fe5b5c867f165261aa54d80da713da3a7e
:103e100006885ee71ab39350cc849f933a302db155
:103e2000c80b2cef961e9514943f64da0ee591337f
:103e30002221711e42d6551905c83456ba88f25c43
:103e4000578cfdaa877abde246c6bbde9db7a78721
:103e5000289494fa66c7bee5e40d956d4fcecd2447
:103e6000ba3d36d667af77313d45c20e4b6fb405cc
:103e7000f9b036d5375caf4b2bce2f9136b7054f07
:103e80001940642593f1f25316f75cd22d10c9e75f
:103e90001a2972844d311437119db26b01a3575109
:103ea000f58e98f0908ff73452d7b5766fde751592
:103eb000706e0b9baaa7851671e0eb9a4678687d19
:103ec0006a802f1cbf385a73a23ce9769e94171e55
:103ed000a47c3ba063ad4baa6cf46fd98f75c586eb
:103ee00012f72a26c17077b30b445b60f997f6cec0
:103ef000e54591ef8cf6c6c96a0da7cdbb93a13df0
:103f00001e3493f7a8ffe99c3edb7fe540eba60259
:103f100005ca37573f04b48b02d03840978f9f773c
:103f20000eea09008d742cceb99472b7037adca620
:103f3000cdb5b2a71c349b8611e5a7dafcec7b0a51
:103f400045f26794f6933e1001a0b531a0e3b0a30b
:103f5000a3cccd1f889ee73e941f6077d95243853e
:103f6000a6d31586bef30778e1ca23577ff4b04a7b
:103f70001431fa697e99c292d4501d848d52b68e46
:103f8000a6dd7d7d7ea589ea900a3404ef84fa1cc3
:103f90004bc6574091d233473e33c2f6f9771e6184
:103fa00058ec0711d02e6cc6e155a4ee0d959ab3ce
:103fb0004b9e83b72ea55b08fca8e0a05966e725b9
:103fc0005139ab7cae796b6c138ee0e6008a950cb0
:103fd0003bd48405df8075bc9cc21b73e87beb3b44
:103fe0003038d7b321b23ea105c23ce93ff341a727
:103ff000cb1eea5ef380b386f5014cc719d8f92fc2
:10400000f47e93b9841a33cc71a4051c4ed3e9af66
:10401000f41dea27f987cc13d69d0ac05904661f00
:1040200061006f997b7e0e619662f0e1680ca404da
:10403000a89be73a6d858c6abef48d39d874a4fad2
:10404000f538a8e840d6a7c0dfbc1bf15ec0928b54
:104050008d64993e012279c7505d18a0b243760e57
:104060008fd2d561331558d67e783118192a51125e
:104070001c18362bf57cb166caf7df4cbc39849e20
:1040800022fadab42b345fe5f4db9a05be3950ab83
:104090005f8a5ece4d62abf57fe7aad9a2fb9b8318
:1040a000e7c90e7b9f5a368544176e70e235177844
:1040b0003f054e21a9978ed69ca61408cf640c12fa
:1040c0008e78b39659d33d553d17209a5611f00678
:1040d000fb14f938816844193a00069194f771aedf
:1040e000ea836c0183f0c94e2f6155c72a8db60152
:1040f000a2771e0023a2db509abbc6c0210a7d987e
:104100004afeff000ac7df4bb98b6f9029b4adecb4
:104110008064432f68451d30803562fe502823e6b9
:104120000c556c7fcdc453cc41f42e460922467801
:104130006e2383ac714badde17bf340cfe34a9097e
:104140004909737620a2cdaa4872ed4cdc8a7e48dc
:10415000930d0c47fa6125d06430eeb872defea2f2
:104160009709a9c503db5a8af8840d4af9b3be370b
:10417000948cacd8a61d0a67d04a6115e55524f782
:10418000b2d72f6d9b3d7f5119061e31a2798ab39c
:104190001c52eb86d3f3271301e8dc8180099f0cc6
:1041a0005ec59f251667b7e0387e7cb61de4e81132
:1041b0006f3af4cc557d928ea36850684a0b197cf7
:1041c0001b824c6bbcb72246cba0dd7254f4abe72c
:1041d0003fc683fc966e5ae371014c98691fd68cda
:1041e00039970c691cddcba033099209dea356eb8d
:1041f000be60b2b355d43887f35cbbc5a100a4320e
:10420000773dbf75146cf13362c14fe1ab9ddf6d3b
:104210005a32606c7b44a9e32a7241842d75d47da7
:10422000b8c6c1e29efd1732ca7ffc77966e67b9a9
:10423000a0b036b0361e195cc3a8cd509ffd4bf31d
:10424000af3d10f7995cab7420c452a748a0063e5e
:104250003619a917ed7597b8f48f2d3bf26b0e9cac
:1042600083d4713e0cdaf3e095f63dfc3d07829a6b
:104270005fb876b590b399ff6c07e5838bd8d68d80
:10428000ee36cd4b46888d01b26b8f735e9fb6ecd8
:1042900082d45f77f33041089da7112ad4546e521f
:1042a0008a6faed9604628580982cf9c5361fa8143
:1042b000402f1893be611b3c0ed35bb839f9d89ad6
:1042c0002453a63b08d1d5a82624c5101ffa91c0b7
:1042d000f2a4d0ba3ff642e049cd6301723a4bf9fd
:1042e00049be0d08d289ef55b569e9b3a3a50d9272
:1042f00033f21937bd77bb2c117c20c12d52e82534
:1043000008417de13450d19febcdf52a6310419fe8
:10431000b010fdabb493adcd9708af3e879a0d6159
:10432000f71648e62240e414424fa4541f2b1c10f9
:10433000bf1314009c4ebcfebc2b491735b715baf1
:10434000e67525ceefcd7c8efae2090645bea0b714
:104350005651f8bb9fc6fd96f9876a261294835b77
:10436000d6a4904455b7918bad9b1f9cde198e3619
:1043700007a0622b4597563ffb6fa19cf942fc7347
:10438000dc333b440bf6f6522b0348452fcf416cf0
:10439000785d079634a0a73598be7ef35ade517f2c
:1043a000ad93d52cff5244eea09b7c8f6191240ae3
:1043b0005e58a74e09cdd1cc0e5e9e986b9b8f4d5b
:1043c00071d16e6629287025aab21be2ed3d06e088
:1043d0003f290a9eee5c48e4ee3b6b4ef584debb63
:1043e000d61b1436900cb406be5dd41ddd296cdee0
:1043f00029c9dd9158d9c57647e52aabd85d542443
:10440000b47d654d4ebc6b70ca950aaf60d037e382
:10441000711baa9bb17c674b5d265cef9bda1d701c
:10442000f0248930cb72b733cc27476bc6a09823d2
:1044300025c234f2a96e11a28ecb74fd811d40b14c
:10444000620aaf59def34b314538584cf77919e31e
:10445000cdae664a9a3381b5e27b6dc3b26b15610e
:104460006ecdd061b11cdd9ee4bfc63a5b9ec50e29
:10447000a758321ec9d1c7bfbeb3dda06ef0f1018f
:10448000fd79f3fb2c115f05935e603b3ecb453c11
:104490003ba5eda3d98bac1996cbc3d437c85639fd
:1044a0008c150bf976dcdf61bde748c49d908a1e50
:1044b00042fba7143e3e6f474fbf363c46f9773c60
:1044c000c62deaeb4a9f783af492b5111a9cad35a5
:1044d000eeae025da77aa7bcf2a3921dd67b7087d1
:1044e000e94b8faec3c0789b31fb0680273930c4bf
:1044f0002a27824c05480633dc6d65bd8053107554
:104500001b46812d94868dc949a1d04e2964b8a43b
:1045100076b84c1fb7116215db8cce6bae8562f797
:104520007f856eafb85120dfa07a79b5194fd0bd25
:104530000a4f9fcbc0ec4933d4be2410abe26c448d
:10454000d4b987dc1544ec9091316c0cb3e76cb4b2
:104550007be1d728ee39fafe9e740ad6424da1f7c8
:104560009fa3b5ff3e11721177304e930a701899d0
:10457000a16c386326359b2f65a24d5ee8886f01dc
:10458000a74621b8b9656f52675f8580552a4bce23
:104590004eaeace759f1618ce9db2e4aacb7edecdd
:1045a00053fd79228e4f322a4878ed6df94c466ad8
:1045b000f4127bf4786b24086b64d0c51886069ad5
:1045c000965dade6cbee995645c50b92242656dc9a
:1045d000ca03e2db29ae0a7fbbb3bbdcf7c42cc83d
:1045e000226e4ab5097ce6650f0dbe0e66886734fb
:1045f0001880f7951be2b307a2679dccd94bff67e4
:10460000a16632938f526f22fff9db2b7aaa198da4
:1046100096c41436bf2e3a101492aac5cafc1e05c1
:1046200085dcec1e2eafbcf73fea720ca29d98af62
:104630007a7899aadb19a31e8180e37de72cfac75b
:10464000d2b8b801c7b7f3d288a2c95a6c7f50510b
:1046500070758c6a34ecfbf97bedaac014c1fa1baf
:10466000cc098721970ef6a4374e68ae1d4d3f4505
:10467000da1ddca51666c1e7f95c0f0961a1d4f962
:1046800043016e28ba86521d9f5362757a89d8da23
:1046900055851c8e98f2569ca8ede6eacfeba9d082
:1046a000cfd47c2df525bb875c5f1f70a093a0063f
:1046b000cd19563ea5b47d2830cc4af4e5a659b1b3
:1046c00034f9831bf6cb2797e88c678245abd6611c
:1046d00075867404d9ad5b1ef824253ddf1df9e114
:1046e000342303800c3965c4658a7cfca0f6e04a5b
:1046f000b4eb7b3a67b61ec3a181d57e9355366d68
:10470000cf0ce9b17e3693845f98f703390b4844a8
:10471000443dc0f15196eb7d1aa9ccdff09b746645
:104720007e6efadad3306b4cea960270696b1b7bb3
:104730004c229b1b8fccef801345ea520af54befbe
:1047400084d37f0c45cf26bc3f15dea9f17545ab60
:10475000fa6e8a71776638bf85548af224905d8e2e
:10476000e7b2c99ca9628b4db39834929130fe3d5b
:10477000f95b4a57b48f87c06f2a7e5a3151fe8841
:104780009dd2b8e22b5cb4238785d9d757960364b2
:104790001a3d2661ac4a0ec84119bbb15bfa2f9590
:1047a0003ac7b6a9742220c0da6f7b43a58492e28f
:1047b000468b75de0b0929a210cfb4392f0aa93d0b
:1047c00037ca25bb15dbadd0701b6b7013e50f34fa
:1047d000565bdaca6b659664e496a0830c765d320c
:1047e000f562874dd9d48b5cbe118fe7d9d01037d5
:1047f0003852981634b082950c523742397f436153
:10480000c8f9f37303366c4a6cf0f5356db191332a
:10481000d4974b50e7dc8d150e11e3eb8f8351805d
:1048200050702f09ff2f554bdb3940b2ecb3e2102b
:10483000bded8474554da0730f9fbabfdb5fdfb52c
:1048400016f5083d9b99a88a071dc0debf7cf507b9
:10485000c1ce9c4d04207b0b59131cf57f9222cbbb
:104860008d2e63a2a640ff177699aa818b7961539a
:1048700080ee813583d0d4ad38008963ce7bbebe57
:10488000a6f46a6791ab2f33f4263cb62677a412c0
:1048900097d12051a85ee9507846761335d997888c
:1048a000e0a322d6ad5fda1eb516bc5b1d39251e0e
:1048b0004141c47602dae49f85eb08482af64300ba
:1048c0005ba4e7cb75359807eca07c0071802d4d7b
:1048d0007343585c14a54d3624f919d367e21ce9db
:1048e00090787c7b981473b14d9fd6fd2212873748
:1048f0009521aabd98a45cf7856afba0b603117b3d
:10490000bd0ba9ee9684f8a4f34f495ac05ad28140
:10491000730edbd657fb9e144a46e1f8917f655a29
:1049200003410cc862d2ae6ec06e43d90418ba8976
:10493000913865ac3b24eca633613aee38722674ac
:10494000b6171c83c8c23982a3e2fbf458dd1916de
:10495000600550643021c66442f23a3d62113574fc
:1049600014b915a87177669a3a8b731641d83ff639
:104970003245ebbebc274918b64c2100d7a9e59caf
:10498000f98b6c33740fba2e8555f8cb9d3e5d4f75
:1049900021ee4e572258664c1c9acb40875c233d33
:1049a00024cabecdf136ffd7a33b691aedeb8ec406
:1049b000c42b11386f63704e3593a8f0870290e4d2
:1049c000f2a38076cf7d8212204d4533515eacc775
:1049d00034f9695881df55361ed562140927ebc3b7
:1049e000fdef22e87c5a3e64ca90bc5c673859e609
:1049f0000271f2cdbfea1788127989969fc29c5343
:104a0000f4763c8a8ab339bbdc11a8e08bf622d954
:104a1000bf0a2b116a45f20b5ba97c5a0ecb4d5194
:104a200001c52d9dfb28d7fafba2e2fc084fa50982
:104a3000fc1c359ab15086e4a2fab1b1f3aa5ba589
:104a40000cab86200f9f3366576d7ef959535c87f8
:104a5000d247fa0c54ccd1becf75c917ac688629a1
:104a60008f5bab878b683b2e880034988ed827df0e
:104a7000340b408f25851ae463d3633a5832d7d973
:104a8000ddef3aa0757ddb49645db9e87d95928ed6
:104a90002a28072ca3fbac1d52b9c39e59724de6c0
:104aa00079dab0150fa2c72b226f4dec7ae8af97d9
:104ab000b6fe36788f81557c2b3c008a80ec6cea00
:104ac000e3baf896df4386152af48a45a4cdf88e1a
:104ad000ccea06565ed88c3491dc5973efc361750d
:104ae0008ba6c01ff35feb0a7c01d16ba50aa51151
:104af0000c2299a8c7e1c3b55d3bfc1b3172b6e13e
:104b000093ec8942c70ecae751a8cdf0e44b26b317
:104b10003b2575a0ada1f4c30dce5989d324a0e7e0
:104b2000556ed2d9d912bd404e426d9ef5fdf7c8e3
:104b300023f35cf175f7ff3febd79a5ed47b714aa4
:104b4000b1fe70826f32c6d77f021225cc476596c0
:104b500045423eaf99e37f13ccf7a8e44fc5578c8d
:104b600032846480e770e2e952b6e05ef483da12e0
:104b7000e1acfed48621b801228a39f6f4602760c0
:104b80006816652ed1909af0500387c8f4a592cc90
:104b900037745a5dc2eb57e3ac6188fd426ca6fee8
:104ba000e99664e229edccd93008872ab847c68057
:104bb000c7b6046c221394d67ca4cf0abdb4845d1e
:104bc0005f0c89663bf28574636e8fc04155b4a15a
:104bd000f4584a9410948481f24831130898621072
:104be000a96a0908a58723eb9f566f35b6a4d0475d
:104bf0004899ce4ed574043e2461f783aa1e8704db
:104c00000ea071cb69d09a8a9019bb50226dfa28f8
:104c1000346ac9c650a031339eef5cf66b4b9f954a
:104c2000e6608a1a6d9f1534b663c86f0c68ed4d47
:104c30002f136420563a6631b1086e7c944f82dea1
:104c400056b0430e058d10bf8f16985a3a3efc1b86
:104c5000d95590960e66c63694d5503c8f4b088b2e
:104c60005a617c147052e063449afefca9939f76cb
:104c70008de6e7b3579d8c6f5a2e38334350a6b953
:104c8000f5cbe50d01d8f91f357d1474021d2804fc
:104c90002c2f7d4bda657d1cc128a9c50e6fa4c5dc
:104ca0004d8ebf0f4ba1277860bfdbadf1c1e04651
:104cb00007000bbe9d6d6fe149250c6a18c37b9df3
:104cc000e636db9c11ff7774cc246ebe8605948f8c
:104cd0007cccf9e493f0d7fb9e5b0b183005f341d5
:104ce000d9ba2b532384e3428f6978d31f202f78be
:104cf000a8b5e3e4360b4f6052a6a91b0b040ec007
:104d0000b9f1824fe52773ef301b173dd9da18fd53
:104d100098c359b1383966abc2aa915bcb55c93e2d
:104d200057f8f28ff75d6031016c5b5b7f16c5cf82
:104d30008da0f9187a2dac967a8b7de891104954a4
:104d4000367eb63acbca8c061d85687be0f952bc2c
:104d5000a12dd5ef39940bd1d7a6d200d9b52aec25
:104d6000b27154593402e14591a034336a388cdf72
:104d7000ce3f78a5d0fc383bf808bd6cdba7893264
:104d8000ae4105abcef1a212e2dd99bd38f5da3eb7
:104d9000dc949a28a22183b3c0947fb0f82d3226e8
:104da000dc7bab10a4420a5e5ed005f4439446b8a7
:104db0003a2f1cbc0555ac6a8b0733150e24f1c184
:104dc000a0060394796a2f8e1a854706f97ea19a68
:104dd0005db1b6f9a4a07e0593971f609b354fe1a6
:104de00087176d4098960692ed4b891743d11d9514
:104df000c869c1a36dfc25003473d51bc05c90e26b
:104e0000a7c0092897b046a4996f9986ad8c7b07f7
:104e1000ccfc1e6e753ef5b3025a7995e28d8a3848
:104e2000931f0ff65482a47a8098694f0d9157ba58
:104e300061625e28a87c8af2cbad74abc3a5efc1da
:104e400071d7df3fdcb1bcdb7aeab84b5ed12440de
:104e5000ea1cbb5e1f221367a4d966b946f126710e
:104e6000d600ed46009a4149452e470d77346968d2
:104e7000de84cb96d5c13b2da831f32964b35c21e8
:104e80009b059ea529f6d789dfa3afffd17973dbf8
:104e9000882f610ed7b64e29e18618b83c25de5c16
:104ea00020b434373a4b21d0219d6c8e25c8231273
:104eb000212d563c5c02d8384f1c4b18e4b210b779
:104ec000f31a0663bbd289c72a41bb530b53c4bd37
:104ed0002b233121dd8fae4ece5656fb3f78ee2e82
:104ee000b9bcbb86e4e45b21d1c58845c835e1d3b4
:104ef000103d2372fda7982abe5a4bd9f05dcd868e
:104f0000495dc590db19dfec826fb3bfdf6edb66f6
:104f10006f565b3a22b04fad2ce1b98daaf5be3188
:104f2000ffec4befbd767f0455c8a1cf57d0cd7ca9
:104f30004a181feb216fc9b2f31b6e1eae75b8770e
:104f40003e2a00055e773d56e35b5b342dced73fae
:104f5000657caea976cd097d4b4ec6acec836c2545
:104f60005b844e64082d0f8e0610dff8a2f6d44243
:104f700044400b370fdabb5805bd3787684276ba15
:104f80003b837061255327f7018e4a7c531cebc28b
:104f9000a2cfe54c19638aaa74c95ae992e8609bca
:104fa0006d8276757fff2997994fd1e325d055e41f
:104fb00069d64d19cdefe489e6089341df5d3f27bf
:104fc0002c8d2e7b25b377c3212ce997985aa5aa5f
:104fd000ab5cd432c72f7ad639dc467b191ec3911d
:104fe0000b1b6a164e408c87b9210c3b780300efef
:104ff000244afb22ecf173d380193f27e92ebb0d25
:10500000e3b1a10d9c7f1220761bd10e3d4ba10c6c
:10501000622d35c10e5720197118e35cf53f8aecfb
:105020007777145bd245a5c79330a83f054da00df7
:1050300096a4f00d0c3cfb29160b9645790ea000aa
:1050400085877f60459f9e8bdd1971fbc9af844dbd
:10505000bfbd9de9a403308aa881be031b876af403
:1050600002bf9518505eee179f377f43f7f915bdc5
:10507000c6b0e7f279106987a541b65daad8c9c163
:10508000cb0a002b6353f46df7fcb920b452259979
:105090008d29cfc64708f9b8beea48850629ef83af
:1050a0000e6dc82e051a4e84c2f477755960fe0540
:1050b000a820e0523753ecce6b41b758e64e06edd0
:1050c000fa2d84ec162c00e28bf377fe1d39627efc
:1050d000305c1c1b56cd022c868437b054844fd3d1
:1050e000e4f45dfdf713b0454135f6de9febc05e9d
:1050f0007a3dcff36a571741b593bd64434fbfeb79
:1051000019e5fa6f8882fe40188d7a5e7ec7f455e5
:10511000b6afbbaf50a71e1a6b1c0925172a8866ad
:10512000d3e2ba7be79bf6d20fd73f21d1b13abb8e
:10513000265ea66ef190621c4554b1e0f59ca92c48
:10514000ada580ba1d42a3eaa6f7a61a8c5b2c5126
:1051500076caa5fb081e13a517639268c06c20f5dc
:1051600001fd32dfba931c9a6a13a2dd69613195a1
:10517000db185c8c2fac92f13e6b3e9b3980a725ef
:10518000f2e4bdd1f986e4ddd03ae5a38fbca46a90
