:020000024000BC
:1000000003B40148019001BD41100400000000004C
:10001000FFFFFFFFFFFFFFFFFFFFFFFFFFFFFFFFF0
:10002000FFFFFFFFFFFFFFFFFFFFFFFFFFFFFFFFE0
:100030004150503279C63B75B3C3DCD21DB6064D74
:10004000000200000000040088170000000000000B
:10005000204BD3F8B02042F00802C3F8B020A3F53B
:100060005A239A6E22F0F0029A665A6E22F070427B
:1000700042F000525A66DA6E22F08002DA669A6E18
:1000800022F00F0242F002029A66DA6E22F48072C7
:10009000DA66DA6E22F40072DA66D3F8F42022F41B
:1000A000702242F48022C3F8F420D3F8F42022F422
:1000B000700242F48002C3F8F420D3F8FC2022F04E
:1000C0001002C3F8FC20D3F8FC2022F02002C3F871
:1000D000FC20704700400E40030903EB830300F04F
:1000E0000F0000EB4300C0B27047F8B50024055D77
:1000F000682D00EB040305D15D7A002405F10A07A1
:10010000264603E00134FF2CF1D11AE05FFA84FCAB
:10011000BC4504F1010404D213F80C000644F6B205
:10012000F4E7D85DB0420CD15819C07A162808D12E
:100130000C35158008462A46194600F0B7FF012005
:10014000F8BD0020F8BD0000F8B5037A932B0746F0
:1001500025D1002600220023B9197442887911495B
:1001600060546421A2FB014501FB0355FFF7B4FF76
:10017000C0B20021221806F1FF3645EB0103B11D84
:10018000EAD1094C206861688B4208BF82424FF077
:10019000010005D06360054B22601870F8BD002097
:1001A000F8BD00BF45B400202BB3002044B40020AC
:1001B00030B580000023084D5A420544CC18AA5C93
:1001C000647B3332D2B2944204D1013B1A1DF2D186
:1001D000002030BD012030BD8816040010B5034654
:1001E000C0B00C46224619460DF1020000F05EFF39
:1001F000FE236846A11C8DF800308DF8013000F018
:10020000BDFC40B010BD0000F8B5274C68200E467C
:10021000154611219DF818202070E07121729B0075
:100220000020224F1F44211A3F5C0130333704283D
:100230004F73F6D12AB1AA2106221D4800F03FFFD4
:1002400008E013461B491944E21A49795170013BF1
:100250009A1DF7D1291DC9B261720023DAB2AA42F0
:1002600005D2F05CE218333090730133F6E70023D7
:100270001A465E1C05F10E00DBB2834204D2E35C39
:100280001A44D2B23346F4E72C441623E3730A4BE4
:10029000A27301221A60094B03480C311960BDE8B2
:1002A000F840FFF79BBF00BF44B30020881604004E
:1002B00045B3002045B400204CB4002050B40020C9
:1002C000124B682210B51A70DA7113221A72AA2220
:1002D0009A715A711A71DA709A705A7000225A72B1
:1002E00011469C5C0948013221440A2AC9B2F8D15E
:1002F0001623C372064B817201221A60054B0C2132
:10030000BDE810401960FFF769BF00BF44B300208B
:100310004CB4002050B4002070B50023C25C682AA1
:1003200000EB030405D1667A002306F10A001A46A1
:1003300003E00133FF2BF1D125E0DDB2854203F16B
:10034000010303D2655D2A44D2B2F6E7235C9342EF
:1003500019D1A319DB7A162B15D10C368E4212D87F
:1003600039202146FFF724FF012510B9074B1D70E6
:1003700007E0074B1D60074B204631461E60FFF724
:100380002DFF284670BD002070BD00BF08B00020C2
:100390004CB4002050B4002007B500200090014666
:1003A00002462F23FFF730FF03B05DF804FB07B5CB
:1003B00001460020009002223823FFF725FF03B0FA
:1003C0005DF804FB014B1878704700BF08B00020AF
:1003D000014B1878704700BF00B00020014BFF228E
:1003E0001A70704700B00020014B00221A7070474D
:1003F00008B0002010B5044621462F20FFF7D8FE94
:1004000030B9207C3338C0B2BDE81040FFF764BE7D
:10041000FF2010BD10B5C2B00DF10602ADF80610F8
:1004200002A9FFF762FEF0B1104C2378013B032BC9
:1004300002A805D8FFF788FE60B10023237009E009
:10044000FFF7D8FFFF2807D102A8BDF90610084A18
:1004500000F056F8012006E0064B187000F094F802
:100460000028F1D0F6E742B010BD00BF54B4002020
:10047000FEFFFF0000B00020094B0A491A688854AB
:100480000132FF21B2FBF1F1C1EB0121521A1A60D6
:10049000054B01221A70054B00221A60704700BFFD
:1004A0005CB5002058B4002057B5002058B5002096
:1004B000044A00231360044A1370044A1360044A78
:1004C0001360704758B5002057B500205CB5002078
:1004D0004CB4002038B505460C46FFF7E9FF21462D
:1004E000284600F041FA054800F092FB012000F098
:1004F000CFFABDE8384000F03BBB00BF79040400F0
:10050000F0B587B022F07F43029301238DF81430B9
:100510008DF815308DF812304FF6FF73ADF81030AE
:10052000174B009000251B68019103958DF813501F
:10053000DB690646684617460C4698474AF69C53C0
:100540009F421AD02B46992058430E4A805C55286A
:10055000194602D10133042BF5D19923594353187D
:100560000320587055205054D81C314622469C70A8
:1005700007B0BDE8F04000F099BD07B0F0BD00BF86
:1005800040B0002060B50020024B1878431E58424E
:100590005841704710B0002010B5054B00241C6076
:1005A000FFF722FFFFF71AFF024B1C7010BD00BFC0
:1005B0000CB0002010B0002038B5FFF703FF28B1C1
:1005C000314B1A78314B1A70FFF7E6FF304D2B781C
:1005D000012B10D02F4C022B236803F10103236061
:1005E0003AD0B3F5E16F4DD92B4A00231370236045
:1005F00001232B702CE0FFF7EBFEFF2817D0234AD6
:100600001278824203D1BDE83840FFF7C5BF1E4AC9
:100610002149107000220A701E49204C0A600221F4
:10062000607029702270FFF7DFFE204626E0194B2C
:100630001A680132042A1A6024D917490A7802324A
:10064000D2B2022A0A70DED800221A60FFF7C6FE74
:10065000BDE83840FFF7A0BE502B13D90E4A1378DF
:100660000133DBB2022B1370CDD8FFF7BDFE0B4870
:10067000002323600370044B1B784370BDE83840AF
:10068000FFF795BE38BD00BF02B0002001B00020CA
:1006900010B000200CB0002009B000200AB00020EB
:1006A0000C4A12F8303002EBC002302058430A4B9B
:1006B0005268034429B15968012000FA02F20A4342
:1006C00005E05968012000FA02F221EA02025A60AC
:1006D000704700BF7017040008A00040012830B523
:1006E00021D8114B13F8301003EBC00030235943CD
:1006F00001F1804303F5204342685D6890000F24B8
:10070000844025EA04045C605C68042505FA00F076
:1007100020435860054B0B440120596800FA02F24F
:1007200021EA02025A6030BD7017040008A00040A0
:10073000012801D8FFF7B4BF7047000038B50B4B54
:100740001D783DB1002001461870FFF7A9FF012078
:10075000014607E00124204629461C70FFF7A0FF50
:1007600028462146BDE83840FFF79ABF43B4002031
:100770002DE9F04F494BDFF87481186085B00446CD
:1007800083684748474F484E484DDFF86491DFF88B
:1007900064A1DFF864B14FF401719847A368C8F809
:1007A000000040F2032142489847A368386040F2B5
:1007B000012140489847A368306040F201213E483B
:1007C0009847A36828604FF400713C489847A36895
:1007D000C9F8000040F2012139489847A368CAF8D7
:1007E00000004FF4007137489847A368CBF8000029
:1007F0004FF4007134489847344B4FF4007118603F
:10080000A36833489847334AA36810604FF40071D7
:10081000019231489847DFF8E4C0A368CCF80000A3
:1008200040F20121CDF808C02C4898472C4BA46811
:1008300018604FF4007103932A48A04701462A48E4
:10084000039B0160D8F80000019ADDF808C0F8B1F8
:100850003868E8B13068D8B12868C8B1D9F8000064
:10086000B0B1DAF8000098B1DBF8000080B1106890
:1008700070B1DCF8000058B1144802682AB11B6856
:100880002BB1081C18BF012002E0002000E0184630
:1008900000F0010005B0BDE8F08F00BF24B00020DB
:1008A00061F103002CB0002034B0002030B00020F3
:1008B00076D6CE7465C1F902D51BDB774DC2130025
:1008C00015FF4E01AFD6137738230F0014B0002068
:1008D000B830B90C38B000206830B90C1808F202F2
:1008E00028B00020493BFD0120B0002040B000208E
:1008F0003CB0002018B0002044B000201CB0002004
:10090000044B0548D3F80C31C3F308230133B0FB83
:10091000F3F0704700400E4000F04902054BD3F859
:10092000C02010B142F0080201E022F00802C3F832
:10093000C020704700400E406846094B20F0070178
:1009400008228D4601B5D8699A64064B1A6812B11F
:100950001B68C0B29847BDE801408546704700BF9C
:10096000000001404CB000203F4BF7B5D3F8B02059
:100970003E4E42F00802C3F8B020A3F55A230746C2
:100980005A6822F00F025A60DA6822F00102DA6037
:100990005A6822F0F0025A60DA6822F00202DA6045
:1009A000334A002353801380324A1360324A137053
:1009B000324A1360336813B1DB690C2098473368FF
:1009C00013B11B6A0C209847326812B1D3690D200D
:1009D0009847326812B1136A0D209847284C0120BD
:1009E000FFF79CFF03236367002541F20523A567FA
:1009F000E5602560E565A5656360FFF781FFBB00E5
:100A00005A0802EB40100190019AB2FBF3F30193F4
:100A1000019B203B0193019BDB000193019A194B41
:100A200013400193236823F060032360236843F09D
:100A300060032360019B6361134BE564A36404239B
:100A4000E360336813B11B6A0D20984733682BB1FC
:100A50009C690E4B01200D210022A0470020FFF7CA
:100A60005DFF03B0F0BD00BF00400E4030B000207D
:100A700052B000204CB0002050B0002048B0002000
:100A800000000140F8FF7F00F9FF0100110B040096
:100A90001C4A136870B5064615460BB1DB689847CB
:100AA000194C23688EB163B90120FFF737FF01208D
:100AB00000F020F9154B5A6822F00F0242F00402B0
:100AC0005A6023680133236016E013B12368013BA9
:100AD0002360246884B90D4B5A6822F00F0242F05B
:100AE00002025A60DA6842F001020120DA6000F086
:100AF000E5F82046FFF712FF2B680BB11B699847FA
:100B000070BD00BF30B0002048B0002000A0004001
:100B1000684620F007018D46114A19B501239364F8
:100B2000104B5988013189B259801888598880B290
:100B300089B2884207D05988C1F308010B441B7958
:100B4000DBB2536307E0084B00241C602046FFF72C
:100B50009FFF064B1C70BDE819408546704700BFDB
:100B60000000014052B000208009204250B0002017
:100B7000014B01221A607047800120421F4AF8B5DC
:100B8000136806460D4617460BB1DB6898471C4CA8
:100B900022886388D31A9BB2C3F50073AB4226D375
:100BA0002288638892B29BB271198E420CD0208841
:100BB00016F801CBC0F30800204480F804C0208858
:100BC000013080B22080F0E79A4211D10120FFF776
:100BD0005FFF0C4A012313606288C2F308021444C9
:100BE000094A2179C9B25163084A137000E000250F
:100BF0003B680BB11B6998472846F8BD30B0002010
:100C000052B00020800920420000014050B0002076
:100C100070B5214C236806460BB1DB6898471F4B23
:100C20001F4D1E600120FFF779FE23689EB12BB196
:100C30009E691C4B01200C210022B04701232B6030
:100C4000194B5A6822F0F00242F020025A60DA682A
:100C500042F002020DE013B1DB690C20984700233B
:100C60002B60114B5A6822F0F0025A60DA6822F0C9
:100C70000202DA600D4BDA6908229A640020FFF75D
:100C80004DFE236813B11B6A0C20984723680BB1F3
:100C90001B69984770BD00BF30B000204CB00020E9
:100CA000880920423909040000A0004000000140EA
:100CB000014B00221A60704758B2002038B50B4C27
:100CC000236805460BB1DB689847094B1A6822EA8E
:100CD00005001860186818B923680BB15B6998475C
:100CE00023680BB11B69984738BD00BF30B00020A6
:100CF00058B2002038B50A4C236805460BB1DB68B2
:100D00009847084B1A6845EA02001860236813B137
:100D10005B690120984723680BB11B69984738BD70
:100D200030B0002058B2002010B5044C23781BB915
:100D3000FFF7BEFF01232370012010BD5CB200202D
:100D4000436870B506467BB3184984680A684B68E7
:100D500010461946164A002300F0BAF900259D42B4
:100D600008BF944220D0FFF7E9FC002399205843A4
:100D7000104A805C5528194602D10133042BF5D165
:100D800099234B43D018032141705521D1547368E6
:100D9000837096E80600033000F088F93068B18867
:100DA000FFF7BAFA002070BD012070BD2BB3002000
:100DB000A086010060B50020244B1B7810B503F01D
:100DC000FF0483B1224B1A68824207D3214B224889
:100DD0001988FFF71FFBFFF76BFB34E01A681F4809
:100DE00001321A6010BD1E4B1A6862B301328A428A
:100DF00001D81A6027E01C601A4C2378013B032BB2
:100E000021D8DFE803F0020910174FF41660002123
:100E1000FFF760FB022313E04FF496500021FFF729
:100E200059FB03230CE04FF416500021FFF752FB4F
:100E3000042305E04FF496600021FFF74BFB0123EC
:100E40002370FFF73DFA084810BD00BF57B50020DA
:100E500058B500205CB5002058B40020803801004F
:100E60004CB4002054B4002020A1070008B5FFF7BF
:100E7000A3FB0022992050430D494318415C55299A
:100E80000DD15A78013AD2B25A705AB918469978A7
:100E900000F8032B4AF69C52FFF732FB02E00132C6
:100EA000042AE7D101200321BDE80840FFF784BFF1
:100EB00060B500202DE9FF412F4E336851201B6B98
:100EC000984708B1002053E033682C4F5B693C68B9
:100ED0007D6802A8984728B9336803A8DB6998475A
:100EE00078B914E020462946254AD6F80080002328
:100EF00000F0EEF8D8F81830104698470028EBD0EC
:100F000010E01D4B1F481B681B6A984750B9336897
:100F10000DF107005B6A984730B1174B1B68022040
:100F20009B6A98470028CDD138687968144A34689C
:100F3000002300F0CDF8A369134C10469847134BDB
:100F400013491B6813489B68FA22984733686FF06F
:100F500001009B6D984723680F481B6898472368DA
:100F60000D485B6898470D4B1B681B68984701202C
:100F700004B0BDE8F08100BF2CB000202BB30020EE
:100F8000A0860100C3B2A10040B0002030B0002014
:100F900000127A006D0E0400410D040034B00020F0
:100FA00038B50446FFF7C0FEFFF752F80020FFF700
:100FB00095FB0120FFF792FB00200146FFF7B8FBED
:100FC00000210120FFF7B4FB2046FFF7D1FB194CAD
:100FD000FFF7E2FA4FF416600021FFF77BFA0223D5
:100FE0002370FFF76DF9144B002225461A705A70D2
:100FF0009A70DA701A715A719A71DA711C462B78EC
:101000004BB12268636852EA030104D10B480146E0
:10101000FFF7D2FEF3E700200121FFF789FBFFF77E
:1010200049FF28B101200146BDE83840FFF780BBE9
:1010300038BD00BF54B400202BB30020400D030086
:1010400038B51D46036804469847B0F5007F1ED3A7
:1010500010491148401A20F003000022824204D0B7
:101060000E4BD3588B500432F8E70D490D4B5B1AE9
:1010700023F0030300229A4203D000208850043258
:10108000F9E72046FFF78CFF074B1B682B60002019
:1010900038BD00BF00B0002008B000208017040059
:1010A00008B00020C8B7002004B0002010B500230D
:1010B000934203D0CC5CC4540133F9E710BD024421
:1010C0000346934202D003F8011BFAE77047000081
:1010D00073B96AB9002908BF0028BCBF00204FF0CF
:1010E0000041C4BF6FF000414FF0FF3000F03CB84A
:1010F00082B0EC462DE9005000F006F8DDF804E07F
:1011000002B00CBC704700BF2DE97043069E144628
:101110001D468046894600F029F804FB01F300FBD8
:101120000533A4FB00451D44B8EB040469EB050539
:10113000C6E90045BDE870832DE97043069E14465C
:10114000804689461D4600F05DF900FB05F504FB6D
:101150000153A0FB04451D44B8EB040469EB0505ED
:10116000C6E90045BDE87083704700BF00292DE93E
:10117000F00FC0F29F800024002BC0F2968015462D
:1011800006460F46002B3ED18A4257D9B2FA82F367
:101190004BB1C3F1200201FA03F720FA02F29D409D
:1011A000174300FA03F6290CB7FBF1F2330C01FBED
:1011B000127CA8B243EA0C4700FB02F3BB4209D9F8
:1011C0007F1902F1FF3C80F00181BB4240F2FE80BA
:1011D000023A2F44FF1AB7FBF1F3B6B201FB1371C9
:1011E00046EA014100FB03F0884208D9491903F19E
:1011F000FF3780F0ED80884240F2EA80023B43EA0C
:101200000242002303E08B420AD900231A4610460B
:10121000194614B1404261EB4101BDE8F00F70473F
:10122000B3FA83F8B8F1000F40F084808B4202D308
:10123000824200F2DE8000230122E8E712B9012396
:10124000B3FBF2F5B5FA85F2002A39D17F1B280CE1
:101250001FFA85FC0123B7FBF0F1320C00FB11777C
:1012600042EA07470CFB01F2BA4207D97F1901F1A4
:10127000FF3802D2BA4200F2C1804146BF1AB7FB22
:10128000F0F2B6B200FB127046EA00400CFB02FC22
:10129000844507D9401902F1FF3702D2844500F294
:1012A000AB803A4642EA0142B1E7E443524263EB83
:1012B000430364E7404261EB41014FF0FF345BE7D9
:1012C0009540C2F1200327FA03F1280C26FA03F314
:1012D0009740B1FBF0F81F433B0C00FB18111FFABD
:1012E00085FC43EA01410CFB08F38B4206FA02F647
:1012F00008D9491908F1FF3279D28B4277D9A8F180
:1013000002082944C91AB1FBF0F3BFB200FB131164
:1013100047EA01470CFB03F2BA4207D97F1903F1F0
:10132000FF3160D2BA425ED9023B2F44BF1A43EA72
:10133000084390E7C8F1200203FA08FC25FA02F3FB
:1013400043EA0C0C4FEA1C4921FA02F301FA08F7B0
:1013500020FA02F2B3FBF9F1174309FB11333A0CFF
:101360001FFA8CFB42EA03430BFB01FA9A4505FA8C
:1013700008F008D913EB0C0301F1FF3235D29A457E
:1013800033D902396344CAEB0303B3FBF9F209FB17
:101390001233BFB247EA03470BFB02F9B94508D93C
:1013A00017EB0C0702F1FF331BD2B94519D9023AEA
:1013B000674442EA0145A5FB0001C9EB07078F42DC
:1013C0004FF000030AD305D02A4620E7624601E722
:1013D0003B4614E706FA08F68642F5D26A1E002359
:1013E00015E71A46E5E70B46A0E71146CBE790461E
:1013F00088E7434642460AE7023A53E702392F4458
:101400003CE700BF2DE9F00F144605460E46002BC1
:1014100043D18A4253D9B2FA82F757B1C7F12006B5
:1014200020FA06F601FA07F302FA07F41E4300FA5F
:1014300007F5210CB6FBF1F22B0C01FB1267A0B2F1
:1014400043EA074600FB02F3B34209D9361902F119
:10145000FF3780F0F680B34240F2F380023A264430
:10146000F61AB6FBF1F3ADB201FB136145EA014197
:1014700000FB03F0884208D9091903F1FF3680F018
:10148000E280884240F2DF80023B43EA02420023CE
:1014900010461946BDE8F00F70478B424AD8B3FAA0
:1014A00083F6002E4DD18B4202D3824200F2D680C9
:1014B0000023012210461946BDE8F00F704712B90B
:1014C0000124B4FBF2F4B4FA84F2002A7CD1091BA3
:1014D000260CA7B20123B1FBF6F02A0C06FB101173
:1014E00042EA014107FB00F28A4207D9091900F1DB
:1014F000FF3C02D28A4200F2C3806046891AB1FBE7
:10150000F6F2ADB206FB121145EA014507FB02F700
:10151000AF4208D92C1902F1FF3180F09680A74222
:1015200040F29380023A42EA004210461946BDE872
:10153000F00F704700231A4610461946BDE8F00F19
:101540007047C6F1200522FA05F4B3401C434FEA68
:10155000144821FA05F301FA06F720FA05F5B3FB62
:10156000F8FC2F4308FB1C333D0C1FFA84FA45EAB4
:1015700003430AFB0CF9994502FA06FB04D91B192F
:101580000CF1FF326DD39446C9EB0303B3FBF8F5BE
:1015900008FB1533BFB247EA03470AFB05F8B84515
:1015A00004D93F1905F1FF3361D31D4645EA0C4CC0
:1015B000ACFB0B23C8EB07079F424FF0000549D354
:1015C00045D062462B4663E79440C2F1200321FADE
:1015D00003FC260C20FA03F301FA02F5BCFBF6F833
:1015E00043EA05010B0C06FB18CCA7B243EA0C4CEE
:1015F00007FB08F3634500FA02F509D91CEB040C5C
:1016000008F1FF323AD2634538D9A8F10208A44460
:10161000C3EB0C0CBCFBF6F389B206FB13CC41EA1E
:101620000C4107FB03F28A4207D9091903F1FF3085
:1016300022D28A4220D9023B2144891A43EA084334
:1016400049E73A460CE733461FE70A466BE7B040E6
:101650009042B6D20CF1FF32002319E733463246EE
:1016600016E799458FD9ACF1020C23448CE7B845B5
:101670009BD9023D274499E70346DEE79046C7E73A
:10168000023821443AE700BF200101012001020194
:101690002001010F2001020F20010B0120010B107E
:1016A0002002000120020102200201032002200486
:1016B00020030B0120030B0220030B0320030B0468
:1016C00020030B0520030B0620030B0720030B0848
:1016D00020030B0920030B0A20030B0B20030B0C28
:1016E00020030B0D20030B0E20030B0F20030B1008
:1016F00020030B1120030B1220030B1320030B14E8
:1017000020030B150001FF00028001040400040106
:10171000040001010203000000000001000B0001B1
:1017200000000000000000000000000000000000B9
:101730000409100104091101028001020090020055
:101740000280010604000102028001030400100966
:10175000028000023C230000040501000280010613
:1017600004800001040005030280011341434B443F
:101770000500000004000000050000000500000056
:08178000FFFFFF00C8B70020C5
:0400000340000000B9
:00000001FF
