:020000040000fa
:10000000e8ff0020090400007104000071040000f2
:10001000710400007104000071040000710400000c
:1000200071040000710400007104000071040000fc
:1000300071040000710400007104000071040000ec
:1000400071040000710400007104000071040000dc
:1004000006000000000000001049086800281bd00a
:100410000f4a90470d490868002815d00d4a012061
:1004200010600d4a11600d49012008600c4a00203f
:100430001060082008600b4a10684008fcd2054a8a
:10044000002010600848004708480047fc41e00fc2
:10045000ef05000008000e4010000e400c000e409a
:1004600018000e401c000e40710400009d040000a6
:10047000bff34f8f054906480860bff34f8f05490a
:1004800005480860bff34f8ffee7000000500e40a4
:10049000444400000ced00e00400fa0500b5444ab5
:1004a0004448801a91b020f0030000231446834290
:1004b000414a03d0d158e1500433f8e73f4940485e
:1004c000401a134420f003000022824203d000248b
:1004d0008c500432f9e73b493b4c641a24f0030486
:1004e0000022a24203d0985888500432f9e7374ad4
:1004f0003749891a21f0030100238b4207d00020dd
:10050000d0500433f9e7d3f89020940705d4314b49
:10051000d3f84021d501fad4f5e72f4a5468516841
:1005200021f0407141f0807151602c4a1d69d2f870
:10053000b0201a6101f0dafc01f030fc00f056f84e
:1005400000f09cfb00f06cfe00f098f908b100f0a0
:1005500085fa204bd3f84021d001fad4d3f890206b
:100560009107f6d51d611b4bd3f84021d201fad477
:10057000d3f890309b07f6d5174b01215c60684695
:1005800000f050fc009801a900f0fafb20b9039b91
:10059000134843f001039847bff34f8f114a124ba2
:1005a000d16801f4e0610b43d360bff34f8ffee7e6
:1005b0000000002020010020f02200002001002087
:1005c0002802002000040020080400200c04002061
:1005d0005827002000400e4000000e40b081e00f80
:1005e0009021000000ed00e00400fa05704770471c
:1005f0000020704703207047032070470320704796
:100600000020704703207047054b5a6842f01002e3
:100610005a6003f5a04344f244421a60704700bf99
:1006200000000e4010b500231a464ff0ff31c45ca5
:100630008c4218bf00220132042a04d00133102b4f
:1006400003d02146f3e7002010bd012010bd0000bb
:1006500008b501f071f8bff34f8f054a054bd1681b
:1006600001f4e0610b43d360bff34f8ffee700bf9f
:1006700000ed00e00400fa051fb5436a994202d379
:100680004ff0ff301ee0c269531c1ad0036b994231
:1006900004d2013b591a8369585c13e0cb1a0b4909
:1006a00000208de803000a49013a0868d21a0df1ca
:1006b0000f01012300f0e1fb0028e1d19df80f00bc
:1006c00000e0002005b05df804fb00bfa08601003b
:1006d0006414002038b5026a836a9a42044602d341
:1006e0004ff0ff3038bdc36a0f2b11d90c48616938
:1006f000102200f0e3fd05460028f1d11023206907
:100700000749224601f00cfc6369e562103363611e
:10071000236a01332362e36a5a1ce262e05c38bd5b
:1007200058170020f7b5134b134e05461446002208
:100730008de80c0030682a4623460f4600f00cfc7a
:1007400008b1002013e00d4b0090019330680c4974
:100750003a46234600f091fb0028f2d1284608498a
:10076000224601f0b5fcd0f1010038bf002003b0f3
:10077000f0bd00bf20a1070064140020a086010086
:1007800058170020c369013310b5044616d0036b17
:100790008269581c2063d154626b236b93420dd342
:1007a000a069e169fff7beff10b9a36b0133a36332
:1007b000e269636b1344e36100232363636a0133db
:1007c0006362002010bd0000f0b51e46244b9fb0b0
:1007d00007460c4618686946154600f0d1fa20b164
:1007e0006b1c36d14ff480530493049b1d4914971e
:1007f000b3f5805f84bf4ff4805304931a4b139377
:100800001a4b1593236819934ff0ff3300221a9364
:10081000049b179218921b921c931d92144b154a1d
:1008200016950fa801f0f4f9134a1d9b116819449d
:10083000116080b91b9820b10fa8ff21fff7a2ff1c
:10084000f8e7189ab24208d8169b013306d0226006
:1008500004e0082002e0052000e006201fb0f0bd03
:100860006414002085070000241400201c040020cc
:1008700079060000d50600001c1400202de9f04f79
:10088000544b554a554e1360803391b03360544bee
:1008900000220df113001a6000f02afc002840f03d
:1008a00095809df813305a1e012a40f28f80052b47
:1008b00000f08c8009a800f0d9fe002840f0868066
:1008c0000d9b002b40f082800e9c621c7ed1fff7b6
:1008d0009bfe9df81330032b08bf022002d0042b8f
:1008e00002d10320fff7b4fe3e4b3f4f3f4d202186
:1008f00019600b9ba3f1300038603d483022026044
:100900002a603c4a402010603b4a3c48403b136010
:10091000102200f0d3fc002858d12d68d7f800a091
:10092000d6f800900395054609eb451000f054fffa
:10093000baf5805fddf80cb094bf0027012756465a
:100940005eb1b6f5805f34bfb0464ff480582c4896
:100950005946424600f0b2fc58b105a8274910227a
:1009600001f0b6fb002808bf2c4601351c2ddbd159
:1009700011e0b6eb0806c34402d1022f08bf0327db
:100980000197cdf80080002005a910221c4b01f032
:1009900007fa0227d4e7631c10d009eb4419484634
:1009a000fff740fe40b109f11000fff73bfe0028c1
:1009b00008bf4ff0ff3401e04ff0ff34114b1c60d3
:1009c000013408bf04208dd0012000e0002011b0c8
:1009d000bde8f08f003800000c04002070140020e7
:1009e0001c14002068140020741400206c140020d3
:1009f00010040020140400201804002054140020c7
:100a0000581700202014002070b5124e94b00546ef
:100a100001243068039405a900f0b2f9a8b9b5b172
:100a20000a9b0490013d5b421d40049bab424ff08a
:100a300001000dd8084b03900093306804a903aa65
:100a4000002300f0e0fa0028efd0002000e020466c
:100a500014b070bd6414002040420f002de9f04f27
:100a6000734b74481968c3b0102200f027fc0028ab
:100a700040f0db80704b71481968714b6d4a1b6800
:100a800003eb4111103100f092fe6e4bd3f8008061
:100a90006d4b1e68002e44d003a84146102208f179
:100aa000100900f00bfc002837d10f2e37d9049b1a
:100ab00003f11002964232d3069a002a2fd15f4ddd
:100ac00002930fcd18ac0fc40fcd0fc495e80f00e3
:100ad00084e80f005d4c0398206024a900f050f9d1
:100ae000002835d133a8259f00f0c0fd60bb9df8dc
:100af000e430f3b1484602a94ff0ff323b46fff71e
:100b000063fe834670b92368dff840a1013300f02b
:100b100087803846fff778fff0b9082002e0072009
:100b200000e030464a4b1b68002b18bf0120fff73e
:100b30008ffd9df8ca30022bdcd1359b203fff1a78
:100b4000299b5a421740d5e74ff0ff332360d1e786
:100b50004ff0ff372760cde718ad0fcd374c0fc4ee
:100b60000fcd0fc495e80f0084e80f00484602a996
:100b70005a463b46fff728fe0028d3d19df8c930de
:100b8000002b4dd011a800f071fd139bdaf8000086
:100b90000990203b0793bdf85030adf820309df808
:100ba00052308df822309df853308df823309df867
:100bb00014308df828309df815308df829309df8c7
:100bc00016308df82a309df817308df82b3033a968
:100bd000029b0b9300f0d4f810bb349b232b1fd93e
:100be0001c4bdaf8000001228de80c000ca9102241
:100bf000142300f042f998b90cab11aa934204d225
:100c000013f8012bff2af8d00ae009d107a8102118
:100c10001422fff787fd18b90d4b1a6801321a60cc
:100c2000049b10339844f61a34e743b0bde8f08fc4
:100c30001004002078140020201400202414002028
:100c400070140020140400201804002064140020f4
:100c50001c140020a0860100074b014603f180020e
:100c600018469b688b4205d000f110039342f7d1e0
:100c70004ff0ff30704700bf0038000010b501f0a2
:100c8000e3f90446fff7b4fc002c18bf204610bd62
:100c9000e0b51d460f461646fff7deff431c0fd09a
:100ca000436872199a420dd8c368016813f0020fa5
:100cb0000ad1384631442a46bde8e04001f0d0b9b7
:100cc0000520e0bd0420e0bd384631442a46fff748
:100cd00091fce0bd70b51d460c461646fff7bcff03
:100ce000431c0fd0436862199a420dd8c36800684c
:100cf00013f0020f0ad1204431462a46bde8704065
:100d000001f016ba052070bd042070bd20443146a4
:100d10002a46fff771fc70bd73b50e461546fff706
:100d20009bff326803681344421c0446019308d0b9
:100d30004db1c3689b070dd401a8294601f0f0f915
:100d400002e0052000e004202268019b9b1a33602a
:100d500002b070bd01a82946fff750fcf4e708b5c2
:100d6000fff77aff421c05d0c3689b0704d5fff745
:100d700047fc08bd002008bdbde8084001f07ab975
:100d8000f0b58db00c46fff767ff421c054606d054
:100d9000c3689b0705d501a8fff734fc04e00520d4
:100da00026e001a801f068f9ab6823606b68636016
:100db0002b68a360074601ae04f10c030df12c0c67
:100dc000324603ca624518605960164603f10803ab
:100dd000f6d110681860eb68c3f3400284f838203d
:100de00003f001029b0884f8392084f83a30384631
:100df0000db0f0bd30b50023094c04eb0314dab29a
:100e0000a468651c09d00d78954288bf40f823403e
:100e100001330132082bd2b2eed10a7030bd00bfcf
:100e200000380000f0b599b008238df803304ff07a
:100e3000ff33036005460f4601a80df10301fff7dc
:100e4000d9ff00249df80330e6b2b34212d918aba3
:100e500003eb860609a956f85c0cfff791ff38b939
:100e60009df85e30bb4203d156f85c3c2b6002e03b
:100e70000134e7e7012019b0f0bd2de9f04f91b042
:100e8000894601a9804692469b46fff779ffe8b95b
:100e90009df868600e9f1b9c0136bc4238bf3c46e3
:100ea000f6b24046494652465b46fff7f1fe05461c
:100eb00038b94046fff753ffe41b10b1002cf8d1be
:100ec0000625013e16f0ff06ebd1284611b0bde81d
:100ed000f08f000030b589b005460c46fff7bcfe28
:100ee000431c33d0c368d90701d401202fe0194b2c
:100ef00001228de80c00284603a910221423fff7d5
:100f0000bcff20bb039b002befd013f00f00ecd1f4
:100f1000059a0132e9d09df81850ff2de5d09df8d3
:100f20001910ff29e1d09df81a20ff2addd02033c7
:100f30002360bdf81030a3809df81230a3719df896
:100f40001b30e57121726272a37200e0052009b0c6
:100f500030bd00bfa08601002de9f04f95b00c46d2
:100f60001d4605a99df87830019092460393fff73e
:100f700007ff0746002842d1ddf848901f9b4b45ec
:100f800038bf4b460293002d39d0099bddf80c8009
:100f9000029ec3f1000c04ea0c0c9c442b1963451f
:100fa0008cbfc4eb0c0bab465b4601982146524606
:100fb000fff790fe034660b901980093fff7cffe5c
:100fc0004e45009b14d3c9eb060610b1002ef3d199
:100fd000062308f1ff32b8f1000f01d09046e3e795
:100fe00023b95c44da44cbeb0505cce71f4606e0a9
:100ff00000284ff000060cbf33460623e9e73846c9
:1010000015b0bde8f08f2de9f04790b0894601a9f1
:10101000804692461e46fff7b3fed0b90e9f189c3d
:101020000136bc4238bf3c46f6b2404649465246bd
:10103000fff772fe054638b94046fff790fee41b05
:1010400010b1002cf8d10625013e16f0ff06ecd1b8
:10105000284610b0bde8f087044a00231370044a04
:101060001360044a1360044a13707047a001002003
:10107000c001002020010020bc01002030b5174b2a
:1010800091b0186801a9fff77bfe28bb144a059ba5
:101090001360144b144c1b78144a02991bb10020a6
:1010a0002060116018e0039800f110030069002827
:1010b000f5d010f00f00f2d19d680135efd01d7b07
:1010c000ff2decd05d7bff2de9d09d7bff2de6d081
:1010d0001b692360cb1a136011b030bdc80100201a
:1010e000b8010020b401002094010020d0010020ac
:1010f0002de9f04f3f4e89b033780390002b6ed12d
:10110000052333703c4b1b78002b6ad13b4bdff837
:1011100004a13b4c0194012700971a68daf80000fb
:1011200004a91023fff7a9fe054600285ad1354827
:1011300004a9102200f0ccff08b102234de0dff833
:10114000d890dff8d88000970194daf80000d8f83a
:10115000002049461023fff790fe0546002841d1a4
:10116000d9f80040284ba4f140029a4201d8210747
:1011700001d0032331e0d8f800304ff6ff78c4ebfc
:10118000030b1f4bdaf8000020490022702c34bffb
:10119000274670278de80c005a463b46fff76dfe48
:1011a00088b9bb44e41b0346184a4046d15c02930d
:1011b00000f036fb029b0133bb428046f4d3002c87
:1011c000dfd1034601e04ff6ff73114ab9f80480fe
:1011d0001360434514bf04230623337002e0002547
:1011e00000e007253378039a2846137009b0bde85c
:1011f000f08f00bfb5010020a0010020c401002035
:10120000a086010041210000c0ff0f002401002042
:1012100098010020c8010020a40100209c010020aa
:1012200038b51d4c1d4d20460421fff7fbfd30b99c
:101230002368013303d01a4b01221a700ae0164cbe
:1012400002212046fff7eefd40b92368013305d0a7
:10125000134b1870fff712ff044618b105232b70cb
:10126000012416e00f4b104a1b6812680f491a44fc
:10127000a2f1100008600e49203a0a600d49d31a05
:101280000b60fff7e9fe0c4b04481c602c70fff765
:101290002fff204638bd00bfc8010020b501002047
:1012a000b401002094010020d0010020c4010020de
:1012b0009c010020cc010020980100202de9f3477b
:1012c000324b0c461b783249154606460a68894659
:1012d000002b52d12f49097806294ed12032944251
:1012e0004dd2121baa424ad3002848d01f2c31d815
:1012f0000093dff8b480284b284fdff8a8a0cdf882
:1013000004a01a68d8f8000039461023fff7b5fd8d
:10131000002837d18de80104214bd8f800001a6865
:1013200007f110011023fff7a8fd58bb4ff0004351
:10133000c4f12008a84528bfa846bb614ff0ff3381
:1013400030463919fb61424600f0d1fe4444c8ebf7
:1013500005054644adb1124b1a68d9f80030203a61
:10136000d21a104b00218de80a000f4b3146186845
:1013700022442b46fff781fd04e0072002e0042011
:1013800000e0284602b0bde8f08700bfa0010020c1
:10139000a4010020b5010020c40100202401002088
:1013a0009c010020a0860100c8010020f0b51a4d64
:1013b00095b0044605a92868fff7e2fc174b1a7898
:1013c000012a1e4624d0164b0a9a1f68154b1b682b
:1013d000524213400f3703931740039bbb420ed872
:1013e0000123049304b1a0470f4b0093286803a97d
:1013f00004aa0023fff707fe0028eed009e00b4bfc
:1014000000241c6001233370fff726fe204600e015
:10141000002015b0f0bd00bfc8010020b5010020bc
:10142000c40100209401002040420f0098010020d8
:101430006f2838b504460d4601d8012038bd030792
:10144000fbd1094b1b689842f7d81046fff7aeff57
:101450000028f2d1054b01221a70054b1860054b8c
:101460001c60054b1d7038bdd0010020a00100207c
:10147000c001002020010020bc0100202de9f04f18
:1014800015466d4a1c46137885b0064688461bb93a
:10149000fff7e2fd03230ee0684f3a689042ba4638
:1014a00003d0fff7d9fd0426c1e015f0030c05d0e9
:1014b000fff7d2fd052323700426b9e0702df7d87d
:1014c0005f4ad2f800b05845ebd8c0eb0b02aa42f5
:1014d000eed319b9fff7c0fd0723ece7012b6bd161
:1014e000584b0293c0f12009a94528bfa9461818f6
:1014f0004e444a46cdf80cc000f0f9fd1f2e3e6068
:10150000029bddf80cc003d884f800c066468fe06b
:1015100018464d490293102200f0dafd029b18b1e3
:10152000fff79afd06237ce01b69484a454fa3f16b
:1015300040019142f4d81907f2d1ba6932f0004261
:10154000eed1f9690131ebd120339b45e8d14ff061
:101550000043bb613e4bdff80cc11b78bb753d4bb4
:10156000dff804b11a703c4b0092cdf804c0196842
:10157000dbf80000cdf80cc03a461023fff7ecfc76
:10158000ddf80cc0002833d18de80110334bdbf8b7
:101590000000196810373a461023fff7ddfc38bb0e
:1015a00097e80f00dff8b8c08ce80f00224a02234a
:1015b0001370c9eb0505c84415b925702e4637e0f0
:1015c00041462a461f4800f092fd244b1968244bdf
:1015d0001b682039c91a234b00228de80c00224bce
:1015e000184a186831442b46fff7b6fc064608b186
:1015f000082316e0daf80030114a164f1d4413682c
:1016000038709d42caf8005011d1fff725fd3846c9
:101610003e70fff76dfd064610b93b78062b03d0f0
:1016200002232370012603e00123237000e02670cb
:10163000304605b0bde8f08fa0010020c0010020b9
:10164000200100202401002041210000c0ff0f00e4
:10165000bc010020b5010020c40100209c01002035
:10166000a401002020a10700c801002030b5164dbc
:10167000044691b0fff702fd2b682360134b1a68f4
:101680002032a2609a88a2819a79a2739a68226114
:10169000da68db79e3730e4b62611b7823760d4bbe
:1016a00001a91868fff76cfb10b14ff0ff3307e09a
:1016b0000a9b0d9a29681a44069bb1fbf3f3534326
:1016c000636011b030bd00bfd0010020a401002034
:1016d000b4010020c801002070b5134b88b00df193
:1016e0000f001d68fff704fd0446c8b99df80f30d0
:1016f000062b15d10d4b9a689ab10fcb08ae06e9af
:101700000f0032460a4b42f8084d0193094b0094f2
:10171000186805f108010423fff71efc044600e0e9
:101720000724204608b070bd9c010020a4010020c1
:1017300020a10700c801002070b50f4b1c680f4b9b
:10174000da680132054686b018bf072011d10fcbe9
:1017500006ae06e90f000a4b3246002142f8045d4e
:101760008de80a00074b04f10c0118680423fff709
:10177000f3fb06b070bd00bf9c010020a401002057
:1017800020a10700c801002010b50f230022cc5c67
:1017900042ea4402c254ca5c13f1ff334fead21248
:1017a000f5d21ab1c37b83f08703c37310bd30b584
:1017b000034601f1100451f8045b43f8045ba142b5
:1017c000f9d1103002f1100352f8041b40f8041b49
:1017d0009a42f9d130bd000030b50d4c0d4d85b0a9
:1017e00001462a462046fff7e2ff29460a4d6a468f
:1017f0001023204600f094fb284604f12001fff757
:10180000c3ff06482946fff7bfff05b030bd00bf44
:10181000f40100209c210000d4010020e4010020fc
:1018200040ba83b25940c1f303134b4083ea0333f8
:101830009bb2d8b283ea40107047f0b5036889b014
:10184000002500245c530235202dfad1944208da99
:1018500031f9145033f81560013623f8156001345e
:10186000f4e7b3f9004094422ed0002501245e191c
:10187000b6f90260d6eb440428d402351e2df6d109
:101880000025adf8025000ae2e445f190235b7f8be
:1018900002c077881c2d6744b780f4d1002393429f
:1018a00014da31f813606eb108ad36b205eb4606b6
:1018b000476836f8205c05f1010c2db226f820cce3
:1018c00027f815300133eae7002000e0204609b090
:1018d000f0bd70b5056904460e466369b34210da7f
:1018e000a36820689847002804da04f11800012151
:1018f00000f00cfc6369c2b29a400833154363617f
:10190000ebe7012025fa06f29b1b00fa06f6701e93
:1019100022616361284070bd2de9f84f04460a68d2
:101920000069636900268a4602f102083746b1461b
:10193000012523b300f00102b8f900c042ea090210
:1019400008f10201cceb0208b8454fea50000dda6d
:10195000636920615b1b03f00703d71b63613e448f
:10196000daf8043033f91600bde8f88f6744013b1c
:1019700066447f004fea420901358846d9e7d5f130
:10198000100b10d0a26820689047002804da04f1f8
:101990001800012100f0bafbc0b2bbf1080fb4bfc0
:1019a0005b460823c5e76ff00900bde8f88f00002b
:1019b0002de9f84304460f46904639462046fff786
:1019c000abff011e49dbff290adc6568002df4d05e
:1019d0002068c9b2a8470028efda0120bde8f883e3
:1019e000b1f5807f02d10020bde8f8836ff48073e9
:1019f000cb181c2b34dc204a32f913601f4a2046d6
:101a000032f91310fff765ff414606442046fff701
:101a100083ff051e28db1a4b33f91590194b20461e
:101a200033f91510fff755ff6368814493b9b5f595
:101a3000807fc2d1d7e709f1ff31e368206898477a
:101a4000011e14db94e80900c9b29847002806f18a
:101a5000ff36c2db002eeed1e9e70846bde8f88389
:101a60006ff00900bde8f8832846bde8f8836ff001
:101a70000a00bde8f88300bf842200004a2200006b
:101a8000ac210000e82100002de9f047adf5a86d7c
:101a900004ab009323ab01930cab0293052114ab71
:101aa00005460393fff715ff052100f201172846ad
:101ab000fff70fff042100f101082846fff709ff97
:101ac000b7f58f7f00f1040900f38880b8f11e0f8d
:101ad00000f3848000264e45b2ac0ada4b4b284610
:101ae000032133f916a0fff7f4fe013624f81a009b
:101af000f1e7122e07dc454b33f91630002224f8ab
:101b000013200136f5e7684621461322fff795febc
:101b1000002866d1064607eb08094e4534da284608
:101b20006946fff7f9fe00286cdb0f2803dc721c06
:101b300024f8160026e010280ad1002e54d0731e77
:101b40002846022134f913a0fff7c3fe03300de04d
:101b50001128284604d10321fff7bbfe033003e020
:101b60000721fff7b6fe0b304ff0000a32184a4546
:101b70003ddc04eb46060023834203d026f813a085
:101b80000133f9e71646c6e7b4f9003293b3684665
:101b900021463a46fff751fe002808d02ddb009b76
:101ba000b3f90020b3f9023013449f4225d102a8b3
:101bb00004eb47014246fff740fe002808d01fdb38
:101bc000029bb3f90020b3f902301344984517d1b2
:101bd0002846694602aafff7ebfe13e06ff0020009
:101be00010e06ff003000de06ff004000ae06ff00a
:101bf000050007e06ff0080004e06ff0060001e068
:101c00006ff007000df5a86dbde8f08724220000f5
:101c1000f0b5adf52f7d0190049307a80023029144
:101c200003920593069300f06bfa002840f0a18020
:101c3000012101a8fff74dfe0221044601a8fff78c
:101c400048fe00283cd105900690039b01989847d8
:101c5000061e01da022087e0039b01989847051ec3
:101c6000f8db039b01989847071ef3db039b019861
:101c700098470028eedb80b2ffb2adb2f6b247ea79
:101c8000002746ea0525ff43adb2bfb2bd4214d1dd
:101c9000029b0bb9002067e0002dfbd0039b01984d
:101ca0009847011ed6db029b0198c9b29847013db7
:101cb0000028adb2f0da012056e06ff0010053e0e9
:101cc00001284cd12e4b1b68002b42d02d4b2e4aa5
:101cd0001a602e4a5a602e4b2e4a1a602e4a5a60bb
:101ce00000231eaa082199520233b3f5907ff8d140
:101cf00000231eaa1a4402330921e02ba2f8201166
:101d0000f7d100230233322b05d0aeaa1a440721a3
:101d100022f8421cf6e700230233122b05d0aeaaac
:101d20001a44082122f8121cf6e716481ea94ff49f
:101d30009072fff782fd00231ea905225a5202333a
:101d40003c2bf9d11e221248fff777fd0c4b0022e5
:101d50001a6001a80b490e4afff72afe04e0022888
:101d600009d101a8fff790fe38b9002c3ff460af0d
:101d700003e0022001e04ff0ff300df52f7df0bdb4
:101d8000000400208814002098140020f41400207f
:101d90009014002034170020b81400207047000071
:101da0002de9f84f07464ff480709a4689469046d1
:101db0000a9d9df82cb000f01df9454801230360f1
:101dc000bff34f8f434e444c00233360736023684e
:101dd000736263687362a3687362e3687362bbf1e2
:101de000010f844638d817b92762676203e03b6861
:101df00023627b6863620023a362e3622ce00a46ed
:101e000016f8011b02f8011ccaeb06079f4202f1fb
:101e10000101f4d34db3314b03f1100753f8041b08
:101e2000da684a402b4943f8042cbb42c1f88020b1
:101e3000f4d105238b600b69264a9b07fbd4d2f8ab
:101e400080302362d2f880306362d2f88030a3629f
:101e5000d2f88030e362b24645b3102d34bf2b4632
:101e60001023ed1a1e495646c9e7bbf1000f02d0f8
:101e7000bbf1030fcfd1d3f110010ad0802313702f
:101e8000002301338b4202d00027d754f9e71549cc
:101e900000e015490023e718ca583869043380ea7e
:101ea000020e102bc7f810e0f5d1b4e7ccf80050c3
:101eb0004ff4807000f0b2f8454506d0631993f8ee
:101ec000203009f805300135f6e7bde8f88f00bf8e
:101ed0000016c84300000f40f40100200402002057
:101ee00005020020e4010020d401002007b50948c4
:101ef000fff772fc084b09499b6c1b0c00209b02ee
:101f00000093019004224ff00053fff749ff03b004
:101f10005df804fb9c210000b081e00f0804002064
:101f20002de9f04104464ff4807017461d460e46d9
:101f300000f060f82d4a01231360bff34f8f2c4b44
:101f4000002119602168596261685962a16859626b
:101f5000e16859629446002d3fd0254b2269c3f8b1
:101f60008020d4f81480c3f88080a169c3f8801061
:101f7000e269c3f880200520986020690130206163
:101f800040b908f10103636123b94b1ca3610bb98c
:101f90000132e261164b186910f00200fad1d3f851
:101fa00080202262d3f880206262d3f88020a2626f
:101fb000d3f88030e362102d34bf2b46102304f198
:101fc0002008ed1a18f80010325c4a403a540130eb
:101fd0009842f7d106440744bde7ccf800504ff4cf
:101fe0008070bde8f04100f019b800bf0016c8438a
:101ff00000000f4072b6074b1a6801321a60064a99
:102000001168084310601a68013a1a601b6803b926
:1020100062b67047541700202402002072b6084ba5
:102020001a6801321a60074a116821ea000010603c
:102030001a68013a1a601b6803b962b6704700bf9c
:102040005417002024020020044b41f671321a6418
:102050009a6822f001029a600020704700000e404a
:1020600010b5eff3108472b600f041f804b962b60f
:10207000002010bd00207047134a70b50346054686
:1020800002f12806144603ccb44218605960224677
:1020900003f10803f6d1206818600c4b9a6c596b59
:1020a0005b6b92b2090e1b0e92020a310a332a6050
:1020b00003f01f03012201f01f0102fa01f19a400f
:1020c0006960aa60002070bdc0220000b081e00fee
:1020d00030b50023934208d0c55c0133cc1814f806
:1020e000014ca542f6d0281b30bd002030bd10b5f4
:1020f0000023934203d0cc5cc4540133f9e710bdf4
:10210000ec46a0e8f05f4ff000007047b0e8f05fe9
:10211000e546080008bf0120704700bf000000002e
:1021200001b40248844601bc604700bf9100002012
:1021300001b40248844601bc604700bf0100002092
:1021400000534352319a933082d9eb0afc3121e398
:1021500037000000f1100000bd120000ad130000b8
:10216000311400007d1400006d160000d916000027
:10217000910c0000d50c0000190d00005f0d00004f
:10218000810d0000f50d0000250e0000d50e0000a9
:102190000600000070210000542100000000000033
:1021a000000000000000000000000000010002002c
:1021b000030004000500070009000d0011001900cc
:1021c00021003100410061008100c1000101810155
:1021d00001020103010401060108010c01100118ac
:1021e00001200130014001600000000000000000fb
:1021f00001000100020002000300030004000400cb
:10220000050005000600060007000700080008009a
:10221000090009000a000a000b000b000c000c006a
:102220000d000d0010001100120000000800070052
:10223000090006000a0005000b0004000c00030062
:102240000d0002000e0001000f0000000000000061
:10225000000000000000000000000100010001007b
:10226000010002000200020002000300030003005c
:10227000030004000400040004000500050005003c
:102280000500000003000400050006000700080028
:1022900009000a000b000d000f00110013001700c9
:1022a0001b001f0023002b0033003b0043005300a2
:1022b000630073008300a300c300e3000201000079
:1022c00000001000000800000008000004000000ea
:1022d00000000000000000000000000052000000ac
:1022e00002a00000ba880000020000000000000008
:1022f00040ea020313f00303f7b5064638d192080b
:10230000eff3108772b61d48846844f001048460be
:1023100093421a4c25d206eb8300c0f30a0c012528
:10232000ccf5006c20614fea9c0ce560d41aa44502
:1023300028bfa44663440024644501eb84000ed00a
:10234000006801900d4de8690007fbd50198a86170
:102350000820e860e869c007fcd40134ece70146d6
:10236000d6e7a36823f00103a3601fb962b601e0ba
:10237000042000e0002003b0f0bd00bf00000e40cc
:1023800070b58cb0044601a80d4600f039f80399e9
:1023900022684b1e13402ed1286800fb01260198ad
:1023a000864228d899421dd00433981850f8040c5e
:1023b0000130f7d0eff3108172b6104b9a6842f0fb
:1023c00001029a6022681a610122da600222da6050
:1023d000d8690a4ac007fbd4936823f001039360cd
:1023e00001b962b62268039b134423602b68013b4a
:1023f0002b60002000e004200cb070bd00000e40f7
:1024000001b40248844601bc604700bf7920000047
:0c241000010000000000000000000000bf
:020000040000fa
:103800000000040000f00300084c7483090000006d
:10381000000000000040000008010010000000004f
:103820000040000000c00300080100000500000087
:1038300000f0070000100000080000200c0000004d
:020000040000fa
:1038800021bbd37575030c0a64664b2496d661324e
:10389000634d84afe8e5b025a27b0fb1834c4da703
:1038a000396503c6b24ac4333c646d941c76033553
:1038b0009587f5f9e82bb22b3e3749e850e321f51f
:020000040006f4
:101a10007a2b76748c4e562018b621b9089a670b2b
:101a2000361086477f6fb5929904d518d214fff609
:101a30000801000080c3010004003e000000000017
:101a40007d94669e9a524af3931872be158941aef0
:101a50006139648ac340fd034175a85eaeba66a0d1
:101a60001d9837dcbeb328da910970efdb56911868
:101a70001f3d3dc6d7b5c57847564ef00c85c98584
:101a8000b0824f2dbff97b8ae36032075793df1393
:101a90007889ee233e708e1908653843689597afb4
:101aa000d981e9681e74c08388f8b63d0d8d52be99
:101ab00021d4038c5090d4655cc7d5dd031c5e0730
:101ac00035d730041ae064f85dd468f67a4ed9d67a
:101ad0004ee9eb8c4379635575037f634edda39725
:101ae00069ce0c5b3ee69fc03dbaba95d4dcda60a5
:101af000e53608b09a1c85c1ecba7d0f84b57ffa33
:101b000075a39829f2e2e98520adc1a6ea5d80c9f6
:101b10008e15adf3bd7b315626e1bcfa8abb4b7204
:101b20002c179d8d6dc125ffc284262a784da6c431
:101b300088f381b9f1f987d12ae9e886378ded027a
:101b40005ef6d47c6158e009399b4e1ad52ecb91b4
:101b50006914aa333d12a9e7833a922a815ef8a755
:101b60005288bdd829e527e37d418e8763b005e91a
:101b700088b04f2092b869eb94007159c16553b693
:101b8000c0548f583c0998ddedd6c33f1454def0a5
:101b90008a3e81d579d62bc663acc0953a67e853a7
:101ba0000b06dcf01ff72a2391decc5d8fbae0092b
:101bb00091e8089ffd1104937209371022a3ece10c
:101bc000e8f9bdd3b0f5194907803dc0a204d3019f
:101bd000f28ab6b90575c3f25edbc0ca43a9ea91c1
:101be000269831635f3e9e6e4d7bde60dc83f32082
:101bf000293a337c8c75dba86031378706f7b279d8
:101c000035bb378608a21468e1f6d5e44475af0dfc
:101c10001e4c4449cc2ab3f13f23941f51e7861947
:101c2000deb6cc7f79fb4fd427da1372149ac4eb5b
:101c3000ec6062a143d56c2f8cf24f45ae211fced4
:101c4000efc1c24bee86d196608bf87c245ac71246
:101c50001b8b055317451035dfb6b928ce4314c783
:101c60006d95cbd066e1ad43a921d276ba10fc9b2d
:101c70005c7b3fd0d79651a25b0035f5317cedd52a
:101c80006772c372d165894108e2f06ccc292447a0
:101c900033c817d127fd5b3445da881181a69c90a3
:101ca0003d378397d26e2604dc1ee702bcfdd9b611
:101cb000c0d9c8d73b44430f2ff486606e258a12e3
:101cc0009a4cd478e89de262e426816eb7d7785ac0
:101cd00039889fa7adbf0db609ba370fbec191a411
:101ce000476574296785fca17e37d0bd06419aa956
:101cf0009524fa95d94a21c2b00edd820162ae4127
:101d0000cd4dde81b274764b4636032dec490fb6cd
:101d10000122a6356408021d68000cd8f588b8f8c1
:101d200086c0e700d3f430ea53d27c77e384f4e64c
:101d3000bed5b44c3e1c9ef7cd3b1d23f39857d126
:101d40006266dd5b16b8e508b22107f0cb3332a638
:101d500043d78024f9ab5a1075ff1ade643484e946
:101d600074eba3e4a79e05a30bc001ee12109388a9
:101d70009214a4ba08729e8ace14fbe98701ff620e
:101d8000bd41e1755a3d698b8c797fe153380ec9ad
:101d900078cc36903ca75d2ce982afdfb7379f1e29
:101da000e3acf4efc22a47aa339c267184c2d8a1bf
:101db000b6541a6b0ef6513069ccfed4d95ef57864
:101dc00060e2fe22ca8d9fa8edebcbab50c16ce167
:101dd000d4824557fb53e98f8511a44fb0cebb6a1f
:101de0008558735d6df11eec37222d69e5a0c24662
:101df000974314ac6467dc5f15713fe0cb3c28e28d
:101e00003ab7ca11f3331845765da5c30eb5e75b43
:101e10004c7f82e52569d9e66c628009b04d656624
:101e2000cd77052bfbd18872c2f0cfd6e57d3d334f
:101e30003b5a7325ccf2fada2cb5b3e012e64f0226
:101e400053d39f96eb1781ce3571b5d732b100efe2
:101e500070895860e43139700e417cd3637cd402c0
:101e6000fa1366ead5b936a232b5f5bc60053c7501
:101e70004081fa09904bc936703aca68b094d18e45
:101e80000989315e8d30b46563387519e1080157f1
:101e9000a1e26b7c7256ff5ad06ee5c378a28f1315
:101ea000208f6d0ab072581c8291513cbcffb285e4
:101eb0008e68633a862bf6f91ca3a9013ca7e9fdbd
:101ec0003a23bc15dcebf1ebf16753c80e704e14ee
:101ed000bea60045e040307c526690d075a1d6c8c1
:101ee00026fd8c3a2e2689a2e0624dd10a88e5387b
:101ef0002d9781a4d39b26465c758717001fe1357b
:101f00000a02518ea3c6d339a5b3b9f3c5fae7c304
:101f10003287ef3aa4dfdc376a1aa0d178151014a3
:101f2000e18e74b6444b01b16afa06cfc847db7a3a
:101f300014c422c4f446ba30c4312d8e593b33b296
:101f4000558fc77df4f92549ad2bd721b366a51f61
:101f500079ff0fc13b0415251b0e170eae7e98535b
:101f6000b261006c64cfc94d73ebec01d286e431f1
:101f7000db08aa14777f8a81ede229d36a2b78ad3a
:101f8000bcfb53d4cc8636be866637ac358ed41ea9
:101f9000d86fa12f4a3ed0bc0efe52c10bf905df0f
:101fa0009b15b46c50bdb9bed4193c7fb1ba6b1b44
:101fb00007b1a211c40c43537523a63c7933e20147
:101fc000296bdaddc80a92d90fb8bcf4ec1d4b2995
:101fd000f65bf9ac54c6d996e4b728dceebf71a81d
:101fe00095594d142348abbaf435de1bea3cf9266b
:101ff00001a7d387449d94efc30058c1159b5d2b67
:1020000003680875068c5936ba3d94612b2d6cad6a
:10201000057ebb41d5174a1fd01dac917eeeff2235
:10202000e351d32e2f3b5cf57bde12e7e1c95b97d2
:1020300039c2386be8d9118a3af8cea3d01e2141b3
:10204000ac50d446b61db984f46d8ffdc57ba23e5d
:1020500065bda086430cde1f80e2ae1f4e8e977fcb
:102060006660099e0fee94d92668e97c95128f0b65
:1020700052a89cfe4b983c09c11f59daad32dd6570
:10208000265c7f4791238ca40d68ae8a6723fc4da4
:1020900084f388d8ebdc9c290912c1f2cd084ef9f3
:1020a0003731df7bc9c929422fe5a190d0ac880721
:1020b000a1f4bc0cb6c0eb7996192813aa19bdf48b
:1020c00058bde8cfeb92650ab11b368580b2f7693f
:1020d000e23fa80d1a39b40a0227cf2f78fc5c3ae8
:1020e000e477e9659bb3df09ad46231ed40fc99e93
:1020f000259af0ab4c22adcbbe4ae73cd5d273cc8f
:10210000d5be639771fc02e9785f6cc0c370088626
:10211000764302d0eb150c8afddb6d3e1d26739bca
:10212000a179d0d6b8b9858297cc45808fa02ada1c
:10213000f0f752b36748796d3be398a8213b154b04
:10214000a0a963e1a3571e879249d078b708b63497
:10215000132e0c296f578b80d5b468bc611292f690
:102160002a5265a73ec80fd199022f6eaf9cf34546
:10217000bd04676289550c99d2c5c05f682a1909e8
:10218000cef76ae1db0293b75f52e6e1d4ab73ded0
:1021900051953a0c43c5d7ba1efb88f605cd976b0f
:1021a000e7a1ff4c716af41c4c4b2cad2508b825f7
:1021b0006965ddacd83c455c8a518df006bc0a24cb
:1021c00097a7151beec3f99b856a5520db679c26f4
:1021d000a6d9b04158a090e0cd1e3b5c40eadddbc3
:1021e000ae3804eef3af4bf251702e268fadeb7983
:1021f000db08e400eca92221b90882e34a190bb7f5
:10220000454fa1a736904076179cc9b9590ee5be37
:102210009db6ff21f56366a257ade5aec531f53138
:102220009d3caeea1bb650e87367bace25b3967de7
:10223000c6dcf5899cd11cc980997cb77316a77d33
:102240008cf057408b83824a4a4dba0422b083f502
:10225000a027bdbcbc213129d44a720d293c05916f
:102260008591ff18ef239909f9573bc919c9253bf7
:10227000e00c395bd1f7a86c485d255642cc5287fb
:10228000abfd59bd7f0ed31118db60e885e992b82c
:102290009f4e03d10d5b43767cc2b6ba8d003c8f56
:1022a0003a7237574b19c811c7b2263bb23448842b
:1022b0001e2230b80fa7490613891c4e4f59e460ff
:1022c00043c108166e1814dfad66148c6c7374e28b
:1022d000e1ecbcc542bb1d7393f4b5fa0351ac638a
:1022e0008af9b155e0b65364cebca28abbfef0e5d4
:1022f0006dd3cc85f50ff5eaca800a55d114515d2e
:10230000ff75c5928bcff8aab6db64348a96cec926
:102310000741e544c0180e52fa3df636de50ea3c5d
:10232000997ca5a2d9bc08193f1ebf02d8075882c4
:10233000b14f62473b23d0f4b225b42ac2978cfe3a
:10234000adc1304e9e9f1c5589458e2db1f2096757
:102350004418e3e98b95a7217ae4342acb3b5e034a
:10236000f40cd66f9e072ed945a817b38eb85c968d
:10237000f93549b781fdc8094fafa9b02518abb3ee
:10238000220448336d174a19852c861ba0b8333bad
:10239000c1c6624f0eddbf1dafa52420a83ee45983
:1023a00067638c569f0e55aea295ff9198174f39d3
:1023b00089c30922748fe3d4199a4026bde9c2c3a8
:1023c000a790456eb72954d2b24e1617cc13800c85
:1023d000ce0392dfb1dd1bcf816be318e1be31aae2
:1023e000fc74804129949736c6473b85fcd5b2aa38
:1023f000751b45b5c0172ef8377890c227e0ed332e
:1024000000b3e28f4a7b2ef21ba355a9fd5abae511
:10241000d6d620110930a00d450561f605c15a2315
:102420009ac585ac97247b2e22379a0704c21035b3
:10243000be5113014e1a703a0ac7f64efbab3b5d14
:10244000fbc0c183e15abe99c787338b65b3e004f3
:10245000c33a9112bc4859686c58f62151f1eb9c73
:10246000228cc7e9f3a966992480fc3da350de17ae
:1024700068ea13bb07ff3b2cff492b01d4b7c09e72
:10248000fbbf950a259102eac60db73a074e69a12e
:10249000c96b038f39445d908e1682dcaaa70a1699
:1024a000b791c403299bee7e2a669c8c2fc5c580fc
:1024b0004897a56f5370a2fb07479d124a6aa2dc9a
:1024c000aa39cd940bfa8da21fd374a84390dc6671
:1024d00006ddb2cd68185e466b268400b98ec387d0
:1024e00006ee800ecae2527fabe0f19ffe52c28f31
:1024f0008c45a1d3e48cf4e6faa0443076c2dc012a
:1025000092677c50c5158049d00c6e73c497855571
:1025100069d48dda533e7b61d5d51103ea83b59436
:1025200017ea04de4b1378c1447f43392be9ecbc36
:10253000571b098cfa091e2caa1ac9e658a42e1595
:10254000274a12ffa9ed9edb1a0f1ac52356fe8cef
:102550000ca786c37cb9d152d51b6d144aaa03308f
:10256000f2ccec0f4d188df84034e130f56b9fb88c
:102570002c32427fab9196d7d05183766b675f97b1
:102580003b42ed60b8ed919765daf834d2f072d441
:1025900036507ce40e8ae0ff7bd42b540b8b5f5ebd
:1025a000b6d3ca1fdb7b91d6ee8e4ffe335ac919c4
:1025b0006c40f7cb579359fa94554cdecca3627319
:1025c000abc6350e27c3c61af854fadfd1dc33bdcb
:1025d000be398a6d19a90c6317d071235aa8345ecd
:1025e0008306e188c45be5589a3cd2760bd0416af9
:1025f00064da47a0356a627fd695682622fc189077
:1026000090ad26664edb4ec674da9a92dcb49d45d8
:10261000f1ac93dc203fe6d558d0aadc39a675eea4
:10262000002407b1453f14633543a63f6a8bbea81b
:102630001f77dbf6f4c37b55a61ecffec54d609811
:10264000fa8b169288e9e03cf97dd658e160611773
:102650001c0937622813692be472f9cb600b6440c4
:10266000bee4aa4c577ef2099331b13213b4feafe7
:10267000409186decb0b1246b33f98ef218cdb11e5
:102680004267529a412f9aec19e759ea00e8368dd1
:10269000118c27f3f6f8d996453eedeb127774715d
:1026a00065698d3cf1b3d0eb88c9f0cd10157bd5b1
:1026b000e66b8feddef6e054dea764a5d8f6e9cd33
:1026c0007ca1d5272be38451d55b3e0e8e2a16dee6
:1026d000f4a6ef4f5ad1377a42d396161eb8f0239c
:1026e00038faa2876938d2cfa41f5f0fcdbe6158d8
:1026f000f487fdfd72e7ab8cd26d0cb357e621a0d9
:10270000a5d7ab8c28007d144586b7b45346608aa4
:102710009121da1bbb3075219972d5b6526d614c8f
:102720002c8a117f27a11abd7cc24dc04c59617201
:10273000653859998aeb4a87493905ade18679b4fc
:10274000c386c0c32bd38e1a9c4bb6ba1a7e6602c0
:102750000ede4291dc6ecd38d081437a2d6b0eaa0d
:102760001c4067c00861de1e9ddaf55086d577e90a
:10277000a4d3e4f43d94f778877fcad4f5f9203fd9
:10278000510393c02b7b886be2e7ec15e3be272453
:102790000ffa58b46ab9bb89b2f245638bb9956d2b
:1027a00047f3582f9114e9e5f14c01e4f2f6295b67
:1027b000f6b4ba35897750d080a2f56d92b0c8389a
:1027c000250b3066de494c90fabfa082127e1deeca
:1027d000214e01de82d5c1abd1e82bb078b0f50136
:1027e00095166252595c3fe67572a4124e66511fef
:1027f00085ffc3fca8b5d5fde977f7c946e4a1621a
:10280000583e6d21c63c8943ebc67d2f86b35335b8
:10281000edf72f84615fbb46b64b242d9630bbeaa3
:10282000b287faecef1dba6f3c9470265a493b0907
:102830002b5bde3e0f4ae3283fb2e1222118e03055
:10284000094013984a60de7830bd5271054c9cd81f
:1028500052527016f6bac120437607ee4c58ab9c24
:1028600080e0d2af5640a97b00ce0a1c23187c1909
:102870003e2f9203d3206ccb20ff0cdabac72995e8
:10288000b5db417fc487267957a08c086804afadbb
:102890003507f153543960011b2e10599283feeb1a
:1028a000d98f55d7ea676a6bfc72376b95d46d3b4d
:1028b0000f7e4d7284c5282a9fe44bdbe7e837d9a9
:1028c000000752eeeaa9c9979bf2647ab23f4f61c2
:1028d000f66a5e0b81eda5978d4cabc0839d6ee2d1
:1028e000197adb5b61f3ae97e650aed642ef03b7e1
:1028f000bd22183583e0d6619bb41d44f48cddf90c
:10290000a66c8f3f00f9c84c5cfc3820be772b3c8e
:10291000cb3292aca8e6f5bf94483846cb8c8547bd
:1029200039062b69c4ed161ac06c1d6264347ea38f
:10293000451a84a80e8c6269dc3753e89d298bf315
:102940003da7cc2ce33b7f286a77df9185a7f8cea3
:1029500036847fe1498bd11ae13c626abe2fbe8486
:1029600046f536530ecbe5a81df036106086f5c04f
:10297000367795dd5b2bdf1a17ebd868361cc79dc1
:10298000ca182b5ba895b8b9bd9806714f1781a5d9
:10299000f77f5f9d04fd012e63b71d6e247983d1ff
:1029a00089db56422d6d9637971abea9de011d2e82
:1029b000ddffec95ee002b26886f33a843096bc32f
:1029c000042be0c1b34e98d183358e1667801b80ef
:1029d0006095a58785b72a0ae8d0ec95164cc09774
:1029e000d82d7528b1807039af122258e30a6e7164
:1029f0002c708ecdc3d29744319d2fdeac176177fa
:102a00008cc8fc73fb8cae26331f34d940da62b31a
:102a10001daf75f970fe94de38bd08c0a5d1d4b6df
:102a2000475a5830df9118967ff0a2bdd898519838
:102a3000d0b9c7286a9d71ce57dff839ca26176307
:102a4000c733862b453ee5e3619fa17081dfe6fe3b
:102a500078fc59f075e7908e81d25410953a212d6b
:102a60006cbcc6ccb539472cb3c6b6ed0ed586b016
:102a7000b21596560914836204c238a037a51864ab
:102a8000c726232a65a0d421797a9df7edb0ceeb35
:102a9000c95e4625c194a3b61d70a46cddde8adc38
:102aa000277c0815ee02905902a0a98590bcb97c3c
:102ab0008a0e473c98fb8666d0a9aa0546ae5a35d1
:102ac00012d26b6490837de67c634681c03615a785
:102ad000e86340b4970697c376f152ef42e66b9ee7
:102ae00049be20d01797318f73f632cbf3a683956a
:102af00051b0fdf1066a608b96b9c1b6f156bfffc1
:102b0000f738434fbcf42d8f5f07b5608f48d7aac5
:102b10003299f9005386dc93404bc112b353c1f292
:102b20004e97b520f99dc8879e6eb1ffa104551c34
:102b30000073a23d569da94ce1fad7bfcf542d4258
:102b400053dd0102f9fac5251ba0d57d83deb7a8a8
:102b5000a93957f3b0f9ea5114a9e667ea3bb61070
:102b6000c99bb298432c2c3c00550b6fd4d42d320a
:102b7000b288b2edbed2929ef989b5f4e04c205aeb
:102b800054567db5910e9677acb4f42d45e13803db
:102b9000ba4b1d61f6b4e5be307232bb8d3fe6071d
:102ba000af506064bcd92d5e84d8dd3f2487b9a0c6
:102bb00007b2e853e1555cb0b805a15f3af75f8d05
:102bc00069d34e105425102656a1889876e14156b7
:102bd000fef978245bb8917d65e8e727abd671e014
:102be0002298cd208648ea86a97453e4e8fea5839e
:102bf000bf404930e2416bc3ad89bfe5e0fcdec0b8
:102c0000116c51f4b6b435fb5eff66b728bf6bd9c3
:102c10000b2841e64371903bc81d75536354061f52
:102c2000a824fa49fc401b55decf70a9aeea8cfc03
:102c30002c9e798c1869bfcc2739a6961cc313ea41
:102c4000e5f400850da79d39a4f5db83f3fa076a47
:102c50007bcdeaa31375147c4073816e547bb3253e
:102c6000237830ac9702ad3ca513c58b94423dbe92
:102c700052f4ce5beb14e6c37c2e141f76d8e8d852
:102c8000eb487e02921372de8c06aa68f270d800be
:102c9000b8d0be1c717fa7c71160354a1b87c2cc54
:102ca0002e05125ace1003ac14f32ea0884e121922
:102cb000dc1d4d1c2a453a2d92f159bdd0cd53b49f
:102cc000ef6be2e7a2b0d558f7cab0298ba0e6f1c6
:102cd0008204f105d4a0a38e2f0594e3f7a773d641
:102ce000d7dbc4026f5cf88287b839527cdba686da
:102cf0008f95a09160428284ea1466c3d30c6886e3
:102d000067de0210a79b44dea1449bac58d57a4ee7
:102d10007abc049f8715c915854c8444060e2ae0a9
:102d200015f5da9bdd3a8aedbea1c6e01f2851b742
:102d300012dbbf81b94d29fab1ed935f6998613318
:102d40003d1e094e075527730e9a629f13eae71d31
:102d50001ea7b87cc41131a91de75d06be7f33cf25
:102d600032fb53f2907ff2109f954646087ab910d5
:102d7000ff5cc575befd2ee9c93f4b8612e6ed141a
:102d8000b488fe5b6f6d6df18931ff91484808f89a
:102d90007bab32025be7e2050df8c1c4203dd2d126
:102da000916cafedf16354ca95a68fcd6c1105b14e
:102db0008bafd7957ed8f51895c66e00257f48a1b4
:102dc000ad7e5f7df3280a887354b8fcd391c69812
:102dd0006479d174240815e01f1a3fc115b779e64c
:102de00019653827974ed5a3b02df5eb39d4c2fe1f
:102df00017a67bca83f7e62c6dd588b7c969d37b44
:102e00004d5d79dc1c749ffb70fdce9de91097f63b
:102e10007e65b58cd188e2b1b0ca24b8e356da2316
:102e20002906c43e507d72eb83357a857d51b1ab66
:102e30009fc8cb06fec1070307ecfee79faf7f34b8
:102e4000e010d4dee77ad9bc0eb923bd06dac09d06
:102e5000263efd34e28a5905f919b3356ae8d16591
:102e600084f4126f0b4dd4afe02c013ad3f3b2745b
:102e7000de0d6f6277d7ca2309379897f7506ad269
:102e800012ad673ec4818dc58b8a2c7a2063d984ac
:102e9000c96ddb4e05717ba2aadd3ec739fe94ac3d
:102ea00050740b763bb0527815f0b838e2e337e453
:102eb000bed4f1681bef505cb245f8fce8e8a454be
:102ec0004c52d1d681019f7bb980c36eedfd4c6b16
:102ed00028b7d966f223e4af0aa4f0a4ac0958d10c
:102ee000c9a30f34dfa55a7ea2c4f6dd8e722a77fd
:102ef00037c14dd0d526be11bd424eab61307b7e71
:102f00004cadd6a91388ee66b118caea74f0dc8e0f
:102f10008c358a4066ad58fb1b10b80bcbddf12c0d
:102f2000aed50d837bc0f88aac5b4ddedbb7d63ff8
:102f3000e9484fe1a9385982098850a2ad96a94bba
:102f4000bc4158e98b3dac0566eff04febc991b041
:102f5000882341392e55da74da02fdbdf085b1c4fb
:102f6000bfa175ae9319748d0d7b21e20aee3597e2
:102f70003b115aafe9fc40d9bde6ed09cf03033d53
:102f800098b8223bdb51996aadfae1738ce140833a
:102f900085c05e99acda855ba67fca4e17c4c311a3
:102fa0004f37854a9b4e2c3ffd45b0b4e10b248939
:102fb000a4c9858035d11cdd4825c292b811f38e95
:102fc000b1706aa233f7f837912df2299d70bdab2d
:102fd000ed5a1f93dc2bb4141ed49310326c463977
:102fe000f6dc32edd788c5e9ac3bcc4f09cd42f7d2
:102ff000336796c1dd5a6754c1c785819aabb1a2c8
:10300000d92da9f140c0f53c19c6a59dbcd7e1e872
:10301000990d26582419a5a53b4c259c5081badc56
:103020004a6eda052f1a8d9f4aa655dc21a7104e4d
:10303000c5fbcce179930278000b77a153aee2bfd8
:10304000fa41a5225788ba4b114c7cb757e4cbbf45
:10305000251f499b7e16b1311f8913492327d3129f
:103060004e64c72eeca8d6820367a057cafdb1a94b
:10307000c59b2e116e91e2db020aa61443ebf54ac2
:10308000fe8ab269d75e9e2545b29d608384e5695c
:103090001a2194d056519b9711732c5ffe5d59a84d
:1030a000dd49de0e2fa9b67412794d2a38f24bf5a0
:1030b000ea4d4c8f0906cf8bea3de0c69f95c43c94
:1030c000f721f3e71828992ba510bd7c3d75352e07
:1030d000083dafa61d5114631ffdd0dd1850ad6a29
:1030e000454b4bb34546c00595b15921ef4370039d
:1030f0004bfdf88887b30d1ff003bbbccd97479fee
:10310000347305a42db5602ff496a940147321c320
:103110002cc6b3b818e80a629567184d67c4ee6dff
:10312000dffbb625b22e08be686df9fb2c4b1bdc0d
:103130006e08d79478ccb7e27f0b50ba937f933c5c
:103140005bbf51461db519af43e919ca873ed7e3a6
:10315000bc19c23a10c0ff2611608293df9a598fc2
:103160001dad83a8a8a7e1c77da2130c1f1419a049
:103170004d1f6e3563193e4fe23d1305611c6d8294
:10318000f57302600db823589bc81e2451aaaff8ee
:10319000bd79297988fca1acaf01837ad0a16c41bb
:1031a000b6e68a1f7b2732fc93326a0172fd2b3010
:1031b000ad8e836ec03f594774542ef8c96282d6d3
:1031c00052c24a19bcd330a34d7af7ad3ab44d94ec
:1031d000dc244013bfe72316cfc1eaeee67d6e0b79
:1031e0006b25a88a2be57ae0731fb1ffe086286281
:1031f0002ba0cf21c0e5a49842086f42feb25190a7
:10320000f14a69e9c54b26e77284a576bea5be7270
:10321000522dbe861246d259446e8aa3f6fad18741
:10322000ba8bbd10467bf81575537ccb5c419d294c
:1032300057d833751bcd712bd81fd58805f0609eec
:103240001881b27ec1e1c07f1a0835b9129700b06b
:103250006fea8d296a22bade752cbf569bd3050111
:103260006831c02cfe36666e16da23a1d837c03618
:103270004380c338645954b44c1250d4c0b759fe7b
:1032800048ea91ff67799f6b71dd7dc31d150103ce
:1032900020c5149814558f354a5dc0680173c23635
:1032a00098e5ae767bb81cbf4571ea7180ecc43ef0
:1032b000d8995a14b7979e1c1c6b23b28189da9552
:1032c000a588fba5ffd9b8003d21442429209037cb
:1032d000faa6772492c0453f5c87d4c23f0f8a2765
:1032e00088cc2926bdc2dd7da97ac8313148ff14ba
:1032f0004cebd348854699bde87bcf3d4891bc84d3
:103300004294398a37ae5908f3e31d827315554448
:10331000152a4659c917e8fd2725a7e3e9944cc5a6
:1033200029f3e7d0b085b19348fa31135cb9bc16e4
:10333000f60382798be9a5d7393f996b5803e0b73b
:10334000162b91d62781d3e4c663ee11031b4cd212
:103350008ca1c67954aa9337614f01b6905c788fdf
:1033600063bb59696294eb00beb0506ac01b06f89b
:10337000355e5afefaf490d20b7faccf1ad994acda
:10338000ac42b5f522dd739f96b1622c3daa38dbc5
:10339000734674f408664217af854c37eccbf001e6
:1033a0004bb13ec2b8fe3391b508c7a074de5df8dc
:1033b000e9b39c96d1f8a9878381766eb96eab7b11
:1033c0001b39297c2cb8e3a23f2dd62b9183f2ff29
:1033d000475b7c2e5e833e0b58fecc1e4a8522a99d
:1033e000945ff76df2d91d385aee94fae210a83abc
:1033f0007446c3fe43c0649ecaee46a1763a68aee8
:10340000dc19d686b101c800fac3116a2aa2fe9758
:103410002c4d1c5be4d92f814c4499fc922bf4eb8e
:10342000c1ad1b52d097b39b59d34ab0b4e6a14a61
:103430003d5e87302dfdf54fa9266f89c5c6610f0a
:103440007b9a73fef6be0928ef03a9a899f79e633d
:103450005b058e375782e953600e7b6d4a154dc16f
:10346000211a74c774fe7564e8a3181dec3e998791
:10347000e12a606a67d824db7878d4d819e9fc2976
:103480009023a9cbbe850f0d5c3a931e18060bf94d
:103490001b55d60c3e3d8ad2274f73c72e55f99c3b
:1034a00045bad943d3b2dfa71acd753a18af9bde20
:1034b000f78b30a97265e3078d8060e92d0bb201af
:1034c000d5e466c84333972d9b82cb8a71d6e884b6
:1034d000d8ad7c3d7428d4ab7725e8ff862c75dc0d
:1034e00052bd34389139a7df667a184cc0f0504885
:1034f00001f9e9fe4476d02b6a3f834da4aa65a565
:10350000894d33442ed0a9891a49b4ef3efc2da42d
:10351000c881d6167e48b7b42b3914a3aa45557274
:10352000a834f8bbfb4ff7957d0d84b626f3ad4a62
:103530009a4c77ad3534f2a26c1a94e4940ba246ff
:10354000670ef726c06ba4d8fd47be0b2b54c62dc3
:1035500021fbb60cd18cd87438882fee7ba71eeed9
:10356000679dfbeb910642c60b28d9c4b8c2fdf695
:1035700029bcef00a4698fc7b0214230bd4d90da5d
:103580009967f138981156ea31553b50268acd3b60
:10359000ec00ad5fcbf975890975e834f04aea7142
:1035a0006cb421c4a5baed5971348489cc84df4848
:1035b000c7121f82b53f1313094675e17ad107cab6
:1035c00047f44c03ba57de1b7b987f1c24246c28dd
:1035d000b4081ccac8359319bdbaa9018bcd617254
:1035e0008f290c22c6b323ae6ef81e83c36056e942
:1035f00097bd2f82a0983b2d73acf967e5f027c7e4
:10360000362a1fd90dae347b7967a2e649708ec980
:10361000efc8f88d60f86445430c558101759b46f1
:1036200050cbf8f4260b6c8371df7d836ea537e9f0
:10363000c0294ced6db182814462425dfb4d76e163
:103640003df507bafcee1f8bade7e6faaaafcd74e5
:1036500084dfa73912ad1e897adcdcb30ba47213a8
:103660005e3818d37f079b43f5d114dff8c55f059b
:103670005d32c1cb4c7612d5d0e5d55a8fd3c4bdbf
:10368000ccd79d5f4c7db953ac6c64a09dd115ca5d
:103690003c8a4eda050f37a2d89747a5c581277611
:1036a00048c650d04f5376ec9bdd2396522feebd8b
:1036b000973da76da92f23b47c91159e531229899c
:1036c0005c545120677d7a2aeba56e1b04f97fc6f6
:1036d000e49c48724e7b1ed2f7e0fbba62b104d87c
:1036e000aad8c7af72721b3cfec429f5c3f968f9aa
:1036f000a5decc310c07ba7a24e5a30dee582d9740
:103700001801ceba91638c6708ab51a325190b360b
:1037100084c81b81b68c4e982951ecbd5a1ee179a4
:10372000adb840fa04162eff5923ee08dade9249ae
:10373000be88ea522f6ce8fa22e21d0b65cad5d684
:1037400001ba2e2af769d0f3c8750a39d4372bb3da
:10375000a602ffec81f176fbd0404658b91f913aa2
:1037600020dfc920a8d2e2d096588360d38926886a
:10377000aa55fa2d7684dd7cd970d5db0f1b366512
:103780000058151071fe92052d32814599dd81a2f8
:10379000f8486ec6a0eed48adb47ad8375f45dc8e9
:1037a000b0506781d72225eedd2ce1956bdbb02090
:1037b000439a283a135495a7eac18450657b9ec466
:1037c00057d8a6b31f973bc344d341ec9cfb15b31a
:1037d000af2e0fed0b7cf52389ad284048d6e1dafa
:1037e000882d913b16aab6f6d8f3fc337bfd225cfc
:1037f000bc797fb10582f1748ff864b4c7d88a743c
:10380000e4460f631f83b2d6e80120f4dcd631df33
:1038100030751f82576fac0cbdfbefef799c76b310
:1038200062dfab55717e3897fa49b9d96de3f6bac4
:1038300064c20dc5f43fff82f01870facf5351dc1b
:1038400030ffdd837cc49cb3b4d277a5f42525adcd
:103850006400efe90ec312f7cee022a72a3797766d
:10386000f6a420692fbb5f51f6e5fa7d644200bae9
:10387000b509a6fc7fdbbd380c03fdb0bfc0b504a5
:10388000ab2dc78117880273d9623a78ce7830a6fb
:10389000f994dac282396865527e876d45f767dc34
:1038a00077b567432b166c2fe2d055805299063faf
:1038b00025d3da17d7c66cb3a10225743867aeb228
:1038c00076bd9654061237fc3685d083b0fb576719
:1038d000b50a5ff3e250064e30bf308f0204fc841d
:1038e00013a82297b638752e714d0eb3666684e321
:1038f0005fc1fee4479feb817f658ddba02733e945
:10390000ed44a299559f4f257d63257e2e49df3ad0
:10391000c58fc4c4f7ba29e54ad8721c804092fb0f
:10392000daa3a45616703c295e6bbd7ce7d60f0463
:103930009c0f37f10ebdba530bab4b78d72080618b
:103940008d0a44b1379572f13bf243a23a9bec07e2
:10395000c6eb4f51fddac7f990ed02dd3859bcf9dd
:10396000ef29ddad69c212aa061e8922b81dee86b6
:10397000f358b9ac687c95e4f7056deb426f0a36f5
:10398000327aa2fd2bc1efb5811664d2fdfb6860cf
:10399000ccdbf5a4a08dee167dfd9e545147b4d628
:1039a00051136cdd01bd75ebaeb93631c1d230ab10
:1039b0002fb80ef3fb649fe07c866b06891f012401
:1039c000d3a2b5e80ae55d336fa8ab03d9e1a6b68b
:1039d000d81353a745331b432411bfc89d960d969a
:1039e00079412e439a01e70161e8c90d53df1b04b9
:1039f0009c6613c2c1d5a239c25b256f69eafd017d
:103a0000c290c14100e316bc8579080ba4910b8ad2
:103a100079f62260d395ec1ab0cfed2bf6c363dfb5
:103a2000c12444c8eb40702be807a37a6867d8b973
:103a30009590d72ea3ad1082dbfce18247b36be5f6
:103a40006d258c4f1c5eb94597f34eca37351879f2
:103a500005573f9491bc36f898e7cdfb1f4696700a
:103a6000f6d774dc18fbe79a2b590e7ee3f8620a4e
:103a70002ce1e9e0d3670b086a0e47317c1a3c70f1
:103a8000626244e605c434dc2d25952f017c39dfc4
:103a900095bb95c5ccfc2bccc225c39920860a2e9c
:103aa000301192e11ce60bfdd4a1122761a1720630
:103ab0009d46fb51cf3c2479497ba1ffcbaa629460
:103ac0007fff7345033053269a555bcb9d375d6d61
:103ad000892a2676ffbe839e6ceec9e73935f896b3
:103ae000c4ead60bc37b370d3e44bc747495d9a988
:103af000a437ffed35e8797983d0a989264239c307
:103b0000b2742d70bc1fad339be94da2805a408525
:103b1000862da8581b943ced2d663a8f1d48ac317c
:103b2000d3db20e4bb4413238af670eb6579a13c18
:103b3000796353504f95d32b48d0df92ac77bb9825
:103b4000a8efbf0355c56953b7d65c6f0361672bf8
:103b50005a09c9ea05cc9c2eb95d2c2f86029649dc
:103b6000d85b0f2ea5abe266afee20414ac84a50a3
:103b70003dc38f9520ad66fa0a32874c807a6caed1
:103b800012792aff50d41ad0961934f1aa6066131c
:103b900097f9604c84bafe5f7e516c0516c20abc70
:103ba0008db09312a414617f687152a64caa5c5b1d
:103bb0009971eed50f0681799a0880f6d6a337a3be
:103bc000019e3e808def95a2dbfef2f31d9719f664
:103bd00024fa1bf04d7de55f987cae39ec9b17a273
:103be00097db2ae91bbff2f9930b67310468326552
:103bf000cb6584008b2032592536d187a52366ee0c
:103c0000361bf5c39714540fea544c3fd037de737c
:103c10006bda9763439ea6358b087eb504489737c9
:103c2000d8ebc0acf5f167f5fbdcf0002a51acc66f
:103c3000884b28547d73805ebd7fdd8f9d9cc5526f
:103c40003ecef16f0646852fa410af629bd9278820
:103c5000d1966b04e6e162657a106309bd73c2a078
:103c6000cf06ad35bfd5d9d6efd12198d01778f48e
:103c70003e263e37055cb12e8bdbc42ceedbb09bc1
:103c8000c0ceb713ed24bc6dafc62eb86a096f4025
:103c9000a3dc04c6995495521f1ffede4a800dc452
:103ca000c03192c9bed79e8884aded6793594cd779
:103cb000ad1cb61870caf47351c89f11855ad29fb3
:103cc0001d314bf9d3e662d789d69a750d05ff39b8
:103cd000caa97c5dee69d2e615aefc3f1d797585fb
:103ce00082da112b5193467fb89b54912df77b02ba
:103cf00065e8b621ac74b2d4f83e67299d340cba9d
:103d00002bc2bf0f2334257604c3a597d0e26b8264
:103d1000037b3e1558334f3b55779562c0f238be52
:103d2000a8f3fb45a42afafcc9d77aa37fd08c203c
:103d30005d057be3a21079b2c364c543b11c1ca529
:103d400037ce7e724cd7a28ee4047df9dad701d645
:103d50008485cf778f7a8b6514cb7f10b63f89a18e
:103d60000a130e372cf05dfcec93579eb57faa3af0
:103d700020ce2c8318c4e24efef4256ecc4030d306
:103d8000d37c71ac2e5325c0cd9ed5f96d104b6ff1
:103d900052658cbbe5d718d3a770304ec758b319fe
:103da000dffcb39f098e1d176151096005b10372d5
:103db0003345fbc4f90b664cd2f1ff428828f34a25
:103dc00025eef63d8159a6a23953c3c0fcdb96b05f
:103dd0001447ddfdddb4192ebd3ebf6feb44d304a7
:103de00023ad8a65f98361f817b3a3451bb8f33691
:103df000717da92844c539791efb7e396fb02257e1
:103e00002a2982675a7586a20bd701c98d345a1a9e
:103e100033fabd6d97a2aeed2907c92c9ad8425d41
:103e2000a1dce260a314b5e88700879453b50e7453
:103e3000c6483b48e778292cad8764d10722eb7a46
:103e4000320b3019b74b26b5f32d2d3c48d2b75560
:103e5000fe3a2f3864ba028f4216f1cfb9103bee0a
:103e6000b73705c87f0089ec0e01741c2dc6c74307
:103e7000943dba053e8432bf820b0b1bbb67633196
:103e8000aa6958d079ef1a9cc59b9703096a8e7f5f
:103e90003e82ac3a965d96100e80d4653f6d818e61
:103ea000bd066850bdd5fb3af936523d00077cc2cd
:103eb00057a7d0a6c7784cf405fa808e794a2ee52c
:103ec00080e461d934a37dee50e208092e93d1c974
:103ed000342176b090e257399b1879031be581595c
:103ee000c9ebc58aa23bc3d3aeccbedb8485d64525
:103ef000d64e3ed73b0552d2d97dc86539f3e893fb
:103f0000e7dacaf81e4ae2e6bfbcee94bcb7350455
:103f10005951b769393c5c9c6aa6d24fdea339d7a8
:103f20007aa48de201951533a09f620f8a9c6101ee
:103f30000784f47260f4a1e452d81a555b92bdf97b
:103f400098403fa441378eb26b60bee3c41d661338
:103f500083e9d12f2f7f60147b57051cb5b28d7874
:103f6000f2706598203c8c3b3192e1bb0b7575d1aa
:103f700091915219873558ec78c34e43d2119eb4b3
:103f8000d489f1f38acd91f5b210d7d2fb5aa15161
:103f90003389d5aa81a9bfdd28a30444542d7c61af
:103fa0006eba0ef4a804f9d4f5e3480c4a14ba9991
:103fb00011c8ae6ddeedc25af05774d080bfcfa1ec
:103fc0000334bfe0e0cc3be3a671951dbb7e6d0ed4
:103fd000c87de8bb5792423550b4658824ba4eabd1
:103fe000d809fae686232db5d2e765ca0d5c2a39d1
:103ff000e0f1cb8c3fa4f4a0cd2747aad592584c32
:10400000490ec089f2b4f2686c75fbe79b067e54da
:10401000d28406c117daa04e92be796ac9ee0dc2eb
:104020004a99c6368fcb0e2c9749b47b4a5e9511c0
:10403000f0a7cd891a81549406e49d97657adc39fe
:10404000eba9aaf3cd624f1f9371fcbdc3a57757af
:1040500064ead3fcb6a2ebac42697360d07e61c463
:1040600020aaea6eeb12aa7cf1c2f3517f22726b96
:104070007d3c287ff6d4ae7378e94dc3f2cc5284f0
:10408000959e312ab71c9a14efd2ce340cf4e41e5c
:1040900060ed6c4b453114a25f7e890fe5d103d0f2
:1040a000c078d2424efd4f78e2df822f99e094e44f
:1040b0000cb425ebaa580008afb1912394eae11c97
:1040c000cb0640a0c5cbf5d5845328ee1222839da4
:1040d0004c1a3e1c2ac64cf4eea007b485b65968ab
:1040e000e4b36154040a45614a1f24cf5eadcddebe
:1040f000f7f103ec642b628067edb7c778f7e6cb86
:1041000019434bb22cb1f5120a7817adec6e5e4034
:104110000a59ab20cf5320d89aaa7a6e1c7afba4f6
:104120002631cbdc80e503ccc877abfec43e6a17f2
:1041300036a235b6f1c7da18447154ac17dd12292e
:1041400040f06f3ce2848e7bfe5b55b73923cb5841
:104150003f8b1018db8e8d03e697d420f0d2888b2e
:10416000a70a69a13059bb97fb5d59cf8dd2e29563
:10417000b802c04ba96e031345cf3f5c8fae7f5e84
:104180002b467f2039db4e33c0a370b5707467892e
:104190001ea6c89c09c166e87f64d75b2a3614bf97
:1041a0005e6c8063cce59d719a2aa5b6c05dc9d3cb
:1041b000256e8bd1890457e4dd65d0b314ed6976a3
:1041c000b10ad078b783cf93d962dfed65e21f588b
:1041d000ab63b5798b0981af47e61ca682e02a82e2
:1041e0008aa5d497e768edaa9c6738be0b5cf6f009
:1041f0009ce37f78705d23a2d112a68cbe92e98fda
:10420000adddf5026945ad89b4057af4eb4d2da716
:10421000acb727704b061d136502de96188ec3e8f7
:104220001b6a58622274eea7665ac4e716faad2ece
:104230001695b3fb30f8d573fc4be20bd60e7f1608
:104240009f22c34d6ca0f862e554750b0a8011d013
:10425000e399d448c46507cebdfd3d22591d5b736b
:1042600087aab79f0226844803ff8739774f5e7d70
:10427000d4ce251061a14144049308b087990e392a
:104280000783358a447c57c34ad6a8165e2fd12ea1
:10429000e59440bd29204bbf976ad0bea88a7c8e8a
:1042a0001824f7a7be73555cf72f86b8b784d28e53
:1042b000f831ae777b0a3afe1d7d9a86069b5c1329
:1042c000c94b5ce71514f394f91add467fa1bda331
:1042d000cb6e4b1b59b79310a846245bbd707c78fe
:1042e0000cf84a96851b0425824074c3296cf92773
:1042f000b74bce5c27f3261be679b1522548140153
:104300003f0111b4117dfabcb21dc3790732bad690
:104310003b00cd412bf980958d2373484f68c40035
:104320000d068a1e5653ec621f445ccf9a7455c426
:10433000164d5b77e357c60fbcb3ba17ba08da1b42
:10434000c559cec88931441c62ab4f1e02dd8b16a5
:1043500087452eb958ab256def412c5a63adc84b3c
:104360003bb142dfbe8012deaffb6d627b2f99094d
:1043700000252a750b4999f68dca8bfe188e891671
:1043800012b4e40ce62117e60de5bfddfda9d96bfb
:10439000469daa23cc40324f8451cdbbef62db2631
:1043a0003920b3d7a3e42c399dc759463e60ad846c
:1043b0009148886097ea1665993996e2ba7ac37b84
:1043c00056d90840f559ca2903cd160a39cd38a85f
:1043d00096ed8af12da6a63eaeb11af79b4e4bf58f
:1043e0000fdc69308e93d8a4d59aaf6cf099cb715d
:1043f00060d3cd7ad6b26e801f03bf98d02b82b522
:10440000fe17fa84a3f3e073270e270a30bba2f548
:1044100055b7aa162b20e62c8b1c7d9acb1f7b0c44
:104420004d77ee2cc0a495d27c98871b220c0dab47
:10443000463b823b7cea33a2564e3e786153ead03b
:104440002cbd4bb7e18c50d14960801c8613d9fa42
:10445000f8e1b16c5813ada70c3926c57d54f6eec2
:104460008e7993f093f64e3958758e4ea7352afe05
:104470000279e72bc28975d2208de5ce71b6dd9227
:10448000305babf95f46576aad3ef2be2e0e4d1063
:10449000a2f3157f6ceca791c143afb9655bf3360e
:1044a000c369e643227f69c27e5d2cf4d752d4bf34
:1044b0009cb0cf606c109ab9c81f724cea664db2be
:1044c000b2f3cb65291a3e6346212dc62f5880e1f1
:1044d000a09d1437a185dfc4056348ae32110ebd1f
:1044e00083f0178ba0ed9d3f8a21df06a280cf0ebf
:1044f000b27fa82411e625c01be17282098ee02e4e
:10450000cd54d42370800e382d319ec878a6080d66
:1045100097f634ff08f1438f25d41328a97daf8384
:104520008b9301d889f2c701fe046720651a347c99
:10453000faacd822f929373dd5c64b2266c3f3ad74
:104540003dee5dc529cbee4aadf07bca0099214214
:10455000e6411d498fecb38b1a079f562665f895e7
:10456000a830362d49ded4d21cce5338d163a1d128
:104570008b153ebfabd24d1914f5c030f8c144c401
:1045800066db714d8fb72148c651dadc9e3b20f6c1
:104590002df6c19f8431f0758ab5efb9671169fbbb
:1045a0005d1daa01fb6eb6b575acfeeca7abb65ba4
:1045b00040144f4428c9e0213533424ea642cee68e
:1045c0005457c9f89a19ef456348438898759df682
:1045d0003ea031d224e243739a1d820ea9c87e798f
:1045e0001c66d268d905015f3c64995a52eedd31f0
:1045f000d17b29f829dd59f93a964d5c5438f87782
:1046000038429cb69b92efdb0f5ed380c2c12c7efa
:104610000f8f4e3828105b0997ecfdc338d73677db
:104620001f2bcc519ad677af534faff605ee6ff8ec
:10463000d04c4d89c70e6c7eaa7540f3d8dd9ac563
:10464000cc2af4aaf909a59ff4f65a7142a2073cb4
:1046500098f257f05c1330ce2944742db88b6e5d00
:1046600065a0931fab9a13d1952b350952d3640dd6
:1046700097e5052025b8635f69a6ec4a78bb1aa2c6
:10468000186f0558e505f7ab4cade9ff39c51c3d82
:10469000d87e1a12e565291cc0787a90677a1c4189
:1046a0006b3bd3a5c1c9802c818e7a74a66a9437de
:1046b000a39a2deb75d06d2a42cc36aafd81f2de8d
:1046c0000d452ee1cf2530245d34e724a6e05a586d
:1046d000e3915629e2ea98a0f56c5d053cb4d398c5
:1046e000a0d24f8bcfea338e7a0591dafe5cff9a27
:1046f000366a7916566d642b8e71c41a0b23a47d0d
:1047000081bcb0712db52208bd61156a1ef37c9b7a
:10471000b8011285ce52d9f78fe9890fbf085086ac
:10472000c4c86828e8ca08f1a53356f0c902a13107
:10473000dc6ad033a48e5a8aeeeeec220929acfa58
:1047400076aa68a2bd2344eba5f29b889afa74125c
:1047500069ecbacf96ce04aa4cfb11065ae50428a0
:1047600041bda31d2dbc2f704b25bcf4dd7b9253a6
:104770004afb0d6d9f6addebbfbdbacac699792da4
:104780008370334f59e56d2bdc4b9a31a3b4ed3177
:10479000f3ec6181c37e41b807f816290ddeb4162b
:1047a000626b291c60402daccf0a653cf70575eca7
:1047b0001492e67f8f37dd007c44218e8a621ca62e
:1047c0000c46ad14433d05bd4b5503ec023e4ee98e
:1047d000c398537b8bf83456bb42939c0da475df72
:1047e0000fab68f6b12f83ee82c0e015aa492d49c0
:1047f000092d9417f7b232472950ff6a41296621e3
:10480000422d1db8241b6835e67b3196bb4dc86f21
:10481000729d6b403099c9aed782d676c405a52764
:1048200099666146f9ea85fcbee6a751cad371557f
:10483000d561ad114d2f55b9c4f41b416d0534f050
:104840003701f099f3350ecce0aaf873ac1d8fb3a5
:1048500095865e4bb76dd757180a84c6917d7ddd6e
:104860006707b7633c4144841063ce74e16a25c492
:10487000cfd834869ec5296dcfef2bd67972622fa3
:10488000de1d43318ccc5c0581e059258c895d7e31
:10489000d0df95aae8564c7dedfcf4b03d65cccd5b
:1048a000856285a7b9f411fe534f2c6e44d1fbae3f
:1048b0001b0543c0c481079f4cf36f53e84ce16371
:1048c000a46d8b677d1defa1adb06a2c57cf9f9e65
:1048d000e63432cf60dc7bab9691cd0831b6f93649
:1048e000e79b4fd64f7f94e157469b550a07db5213
:1048f000226a7a7b8cf346b1868629115fa80a7bef
:1049000014e60a47da1b06bb3f267598a16616d83f
:10491000c3e12e8b78fb9bf0ffabd4cba60f5233b9
:104920001df97f637af7846a7244decf77e2fdb7c0
:10493000aaa4b0525e692b44c6546ab6eaed424d51
:104940004936f4bdad724a35a037af9dd3224578c4
:10495000b1a207db00bee3faa64413bcda090de5f9
:10496000da36069ef12e8c627a215abfb7899211ef
:10497000044789d11be3b3f9359241078ab6d34383
:10498000528ddb40d7db6e98a0107ac40d01362b18
:104990000f94b46ef4def9dbae52cf0774b2c7f2f7
:1049a00048f14091db7979540cd8d98ee3990f7195
:1049b00085d881c9100c353d42a00a5f1e24c0a9cc
:1049c000fe4ea1643d2111359c4a94bd3b1dbab7f2
:1049d000dc1b56c496f05f930bfed0724b35f7c8c4
:1049e000c93c9ecdc447cc35e48f451babb7bfafa8
:1049f000df7e64c0ce090c9a373a586fd001f2c8f6
:104a0000a886717464840234a886e9a23935f8173f
:104a1000a2451981bd88a6064d7f54d925a74630e9
:104a2000cdda8a1699ced3f1e627bf94c6173b2973
:104a3000e8053ca30d7bb785bd70d921be1e2a8039
:104a40008e784fae2af24752f861d25b6e1e2e3638
:104a5000bbd30bcf0207d8eb9092879592d970c049
:104a60003db16310a9aaae585b162757e7613a8b90
:104a70003439153833a8c388bdeed8e1082182a4a3
:104a80007208e8973984c596f301fd3a95691f7a53
:104a90006f0c8cc3154eb448312b7f14761c617695
:104aa0004f3cb9b922d135386ae6a2770097aa39c6
:104ab000088893cfb091f7919cc5bfa7b6d65af39b
:104ac00022dd77f973b0114d3e2c7154482062c03d
:104ad0000048fcec24287f32d3984cb328add24652
:104ae000d9a0178a05bf11c9888da1d7abbc172ad9
:104af0008d9f4a5db3a30d8a0cc3fa493eb7550595
:104b0000ba97c810129d9a334bd460f85246b0ef52
:104b1000632f3a68a9df3bc9593a222124a3cac2ac
:104b20008a363f60c9280b181c97ee0a825a461233
:104b300029d0b434c8ed81a6f69a61c125f1f657a3
:104b4000fa1308a8d3eb11741e8809680016f2ff47
:104b50009cf7331b251d23cb343b7b6c7d3cdae477
:104b6000b0f4a161e21d2c0ae901e6ca30a133ebe1
:104b70008ab59e2fb3ce88acae0ceb807af6762445
:104b800056a0a3839db4f1b8380bf2b9168d7a956f
:104b90006e108527244079b01f240a820377a8313c
:104ba00007cc64d467073eb1f1cf5ddfeefe6b58f2
:104bb0002d16382312c64b83f0f1a26ceab6451dc0
:104bc00062eaa5cf12e9f95966d3c5a7cb0cecbbb5
:104bd00017e1c21fe5e88fb93a0aee998c55616377
:104be000abfdf1b20eac86170cf9473bdc1822d6b0
:104bf00073a0bf60aa49f7a75e64147711ef42d88b
:104c0000b0a4370accead3d9c43860bdd494e170db
:104c10002d1eb79c79e154274e089f70b80242af11
:104c20007164089686bdf82304181e91f13f85e251
:104c3000291f601fafd24270fcedd253136d82c4a6
:104c400016a1e8e8cc37d46871a24106dab88c2ef8
:104c5000d5df535607fc9ad2754d9e4cee9688d4fc
:104c6000474098bba439696fd5513e79347a62fccc
:104c7000753cf7c70bb702c804a9588a1b02448ebb
:104c8000fa829321662253baf68160dada1dda6f6e
:104c90000a778a24304a5417b7c12bf7f899b4170a
:104ca000aeadc99f9490ffc4e640f1febaaf06973f
:104cb0008510ee55e0346e711229fe0eae2a6f6b30
:104cc0007d4b053406bbc5cc8ab3b7b6046c5966b8
:104cd000a7fa66d5279f875e3f64a2421b560ca8a1
:104ce00029494f880fadb329a417c60068d5119480
:104cf00020244f6037e4a05c334480f44ca2368c0f
:104d0000f02b505bd47dd6b0a77c7029232740f9c7
:104d100050c2684b8ebb237355b409aa9fa7e4e920
:104d200034609b087ed77532b0211f52da6dd716da
:104d3000c980661a5f28927648e4055872a4cd9a15
:104d40001fcf0ccdcedce162429db9e96a6d448f84
:104d50002720d2bffe00cac6dd5b2ae255144b53a2
:104d60004bab6d38c4dc6728f0e2bbe4e5eede391e
:104d7000d65e7b44d8c86e7e45b8604f2f30235432
:104d800079c31c36dafc1b36479c5072c917d9bd53
:104d900062af8a690c2435f9bf0a91acb80732d0ea
:104da000cb3c7b8567da917ca453bcac3d7c74cc56
:104db000b2147d249274101919ac3cc97f2f8692cd
:104dc0003be0d8da19971e14a4fe14977127d8c5b2
:104dd000c2c0b9e9a61a84586286cee097f7302f90
:104de00096c6230a59cd2af648e86488786951376f
:104df0007333d1427749f1fd7742a50d3225cbb50a
:104e0000b87ba9cfa687b62b464d64aa29f9a8314d
:104e1000246ae6b1bba5baee1bc283208e822ca900
:104e2000f94fe0f43c1d305fd15db683709f0bc03d
:104e3000e9a39a66f22e20c7170aea9ffc8b2e8bf5
:104e400078547f61ab11ed0ba06383aafafd219921
:104e500016b2651d16331971ba3bf64478294b0317
:104e600050eac0de4123f52f581a8301eb47bd19e4
:104e7000f2624fed0f0ffe9371321998803481cf9b
:104e8000b3115b7134b94a14195da535a01e5342a4
:104e90006bce4e238412e039d858d7217c1b65474e
:104ea00073921fd1d179a4767f2ccccd013f9b2a60
:104eb000d132626a062789fcbbd6361360919fd82f
:104ec000a04f2d11c1d3a8e50e2d4825e8cb43a74f
:104ed000fb3d094b3503c932f6430b4f0b3f9fb6e1
:104ee000ce89d29259f710d136afd75b249365346f
:104ef0000cda718e50072659d07b3d71b80deea1aa
:104f0000eba73b8e890f920031c8857bccf8eab6bf
:104f1000c00faaefbff6380e035422e939ae674836
:104f2000cc76200f8665e0cd774bfbbfd8e2ff8ab9
:104f30009f81b235da2d281725467fb4e59dca9f9b
:104f40007fc00ea516db98c23d78044d4e1a02f9bb
:104f5000f3804cbfda7270e3aeb88eb94e58137856
:104f600046cde4bd8a16dbd0cbf97414de49441a71
:104f7000cd83140744eaa65ecec924bea407ff6e03
:104f800074f23f5eb6ae80149e10cd2ace53166fdb
:104f9000d87f0e139d9fb1d24286ed7d2a1006b0b8
:104fa0003c424466e47290e82c3faac19becde844c
:104fb00044543e4f186c7a4fdf70b9677f47944d69
:104fc0007ff812bfc2bc5400003690d769d1d6a674
:104fd0004c53182431b509a54fa91e56394f7c965c
:104fe000495aabed80d7e2f398451f25a66be866da
:104ff00025f206ab7f619e8ee5282c41c9aa30ac14
:105000006f334adf88417fb5873a042b5ca95b7117
:105010003bad8e03ddbf61b2d58ae98ace8eb23256
:1050200081dfd9ab0e6f85ee6375a18b2997092cb3
:10503000dfd3cdaad9b30ce71fea8e38b63a47ffc3
:10504000d1bd91666bfee23f7a3952dab0a9477161
:10505000f1a6a1359a0d51d2fb61e4c413b1245ecf
:105060001a0b23f3e223feb459ce8d93cfc8704bb5
:105070009f8face1d26024f86f9e64addddc91efd0
:10508000964e0260c28b05dc06f6c623eb3b5dfd47
:105090009b111b02289da8b09a5deaea2a8ec03fa8
:1050a000b279c03048a63bc5e162cbf550e4c051af
:1050b0005a649701805d462703c54082b2770d6f21
:1050c000c63a2678bf9b28bbf92841442820e44de6
:1050d00076e9f5b07ea4eed8ffad37463a6d7aa9f1
:1050e0008f9f25d19b330c796841c813a03a4defaf
:1050f000d212bff53737effd3464565dc5ae1bd60f
:105100000f743ceab0c5a56721a136c85e828d3315
:105110008c729898057cdc52f26b9445af567f10e8
:105120006f6c65e9736c26807844d411d4af376511
:10513000d8387fafc7868a999e9453c3c2ee78dd74
:1051400000b11a3a2cc7eee32a51cd7404b100b76e
:1051500065b4a4cbfd1db2b2e4e6f349bcaac039e4
:10516000eb4665e2a2d87c18d948c8f56e39f992a9
:105170003303e7145923090778367f25b09d6383ed
:1051800038c32e13da4bc8a6961bf704c0ffd8e627
:105190000b3de828532eab0e55eb2fe158ff7aea72
:1051a000e1b79c466f86fe692c3a7e104ff9a7ee58
:1051b0003d8ebc688a835be2d0bf96e2a8cc792f93
:1051c00032e5314d95c58309c0e4d3dc5ed95a98e8
:1051d0005d5ec8d20db8be511c0a9d65546d854aee
:1051e000b46321f7c465929fea10dd7aeef25d594f
:1051f000a533435b0de68282c6ccba31b6063dca02
:10520000d8f459a1009a61db8de3cde013b8d03f0b
:1052100011b7bead755d4f7baf4604badc03d4a0b9
:10522000b0368db8af1c7303970a354fc224d354e0
:1052300004411f0a31d8dfe4a650fb74adca65b53e
:10524000609b334ca717087d004f95d80574ba357d
:105250005cef32a010cd69b32c22f83964066dd012
:1052600042122c993d9d9cd4e9be0ae6ede9e66d1b
:105270000290c5ace6a634b996ee41dcae25cca8ca
:10528000da20818da2fe100cc139b037d5aaae3a12
:1052900096110c817cf288ecad827643a08e475b40
:1052a000516db8bbd8345765500ad9d05e32cf980b
:1052b000c759f865d5afd086446452a5518a2cd31e
:1052c000a138d31192059ec0a1684fd438dcf90ae9
:1052d00099081c0b8fad03b73cf76fe09fe36fb6e7
:1052e000543cc77211c99fee508a190d4737286385
:1052f00056e702fdd8898886e018849811fc52d7b9
:105300007c7077881214baa8c482c8f18b430b83cf
:1053100050462fec58285fca6eb87ea9e76c9a39c0
:105320003bccca915bcb1f613d0586131112293c12
:10533000fb88b11c69f6e55298745ea322c28cc248
:10534000eb21451ab0dd71cb3834aa09556d516592
:105350005801e892ec98b04349310346a0defd17ae
:10536000cdaf7e8d3659dabcb3fff1ec4440af4e81
:10537000f42df80b29d5b25834de7a5dde2da6bfa8
:10538000a056733d29204c1eb8c4cda8e8eedb9e84
:1053900039527ee84df3fd894e17042e915a105074
:1053a0008ff2981752c924cac496830928ae65c9da
:1053b000efddf60b40a665f6c7d8c4be52afbfdf1f
:1053c0004d90ceb144c49fbde67bf28176b8781390
:1053d000b035a0372420a2df3f014c50d8233c84b5
:1053e0003ee88a53a69e3480e741e79261a3e2211a
